:040000006F10905B92
:10000400000000000000000090000020A204002076
:10001400A9BDF9F3900000200000000000000000DA
:10002400900000209000002000000000000000006C
:10003400900000200000000090000020000000005C
:1000440090000020900000209000002090000020EC
:1000540090000020900000209000002090000020DC
:1000640090000020900000209000002090000020CC
:1000740096050020900000209000002090000020B1
:1000840090000020900000209000002090000020AC
:1000940001A04111B7170040985F3AC6945F3247F8
:1000A400E39CE6FE32454101828073270080218B68
:1000B4009387818209CB7327008023A4E18298432C
:1000C4005D9B731007800F100000371700409306E4
:1000D40070052300D704930680FA2300D7040F1079
:1000E40000008346B70493F6F60DA305D704230056
:1000F4000704732600809443A18AD18E73900680EE
:1001040023A401820F10000093760502638406186D
:100114000347A700118B25E773270080218B09CBA8
:100124007327008023A4E18298435D9B73100780AA
:100134000F10000037170040930670052300D70402
:10014400930680FA2300D7040F1000008346A7000B
:1001540093E646002305D70023000704F326008016
:100164009843218B558F7310078023A401820F10AD
:1001740000001307004B010001007D176DFF73277A
:100184000080218B09CB7327008023A4E18298434C
:100194005D9B731007800F10000037170040930613
:1001A40070052300D704930680FA2300D7040F10A8
:1001B40000007D892314A700010001000100010053
:1001C40023000704F32600809843218B558F731076
:1001D400078023A401820F10000073270080218B65
:1001E40009CB7327008023A4E18298435D9B73109D
:1001F40007800F1000003717004093067005230096
:10020400D704930680FA2300D7040F1000000F10C0
:100214000000B726004013061005A383C680230000
:100224000704F32600809843218B558F73100780B1
:1002340023A401820F10000073270080218B09CBB7
:100244007327008023A4E18298435D9B7310078089
:100254000F10000037170040930670052300D704E1
:10026400930680FA2300D7040F1000008346B704D6
:1002740093E60608A305D704230007047327008028
:100284009C43A18BD98F7390078023A401820F1004
:100294000000828093760504638B06140347A7004D
:1002A400418B25E773270080218B09CB73270080BE
:1002B40023A4E18298435D9B731007800F10000014
:1002C40037170040930670052300D704930680FA7D
:1002D4002300D7040F1000008346A70093E606010D
:1002E4002305D70023000704F32600809843218BBD
:1002F400558F7310078023A401820F100000130789
:10030400007D010001007D176DFF73270080218BA4
:1003140009CB7327008023A4E18298435D9B73106B
:1003240007800F1000003717004093067005230064
:10033400D704930680FA2300D7040F1000009376A5
:10034400F50193E606042314D7000100010001001F
:10035400010023000704F32600809843218B558F66
:100364007310078023A401820F1000001307600498
:100374006310E50473270080218B09CB7327008069
:1003840023A4E18298435D9B731007800F10000043
:1003940037170040930670052300D704930680FAAC
:1003A4002300D7040F100000B72600400946B5B556
:1003B40073270080218B09CB7327008023A4E1825B
:1003C40098435D9B731007800F100000371700409F
:1003D400930670052300D704930680FA2300D704FC
:1003E4000F100000B7260040130620053DB5732703
:1003F4000080218B09CB7327008023A4E1829843DA
:100404005D9B731007800F100000371700409306A0
:1004140070052300D704930680FA2300D7040F1035
:1004240000008356870093E6060C2314D700C5BB4F
:100434004111814601468145114506C61D2CF3270D
:100444000080A18B9386818289CBF327008023A42B
:10045400F1829C42DD9B739007800F100000B71758
:100464000040130770052380E704130780FA2380F4
:10047400E7040F10000003C7670413671700238302
:10048400E70423800704732700809C42A18BD98F43
:100494007390078023A401820F100000B240410131
:1004A40082808146014681451145E122F32700807F
:1004B400A18B1387818289CBF327008023A4F18247
:1004C4001C43DD9B739007800F100000B71700409A
:1004D400930670052380D704930680FA2380D704FB
:1004E4000F100000FD562396D70223800704F3263D
:1004F40000801C43A18BD58F7390078023A40182B5
:100504000F100000F3270080A18B89CBF327008014
:1005140023A4F1821C43DD9B739007800F1000001D
:10052400B7170040930670052380D704930680FA1A
:100534002380D7040F10000083C6670493E61600D7
:100544002383D70423800704F32600801C43A18B54
:10055400D58F7390078023A401820F10000001A09F
:10056400BD473305F50201007D1575FD82804111FB
:1005740022C426C206C6AA84014463179400B2406A
:10058400224492444101828005041305803E4204C2
:10059400C13F4180DDB7B71700401307000323882C
:1005A400E702854723ACF18273002030411106C66F
:1005B400EF00701AF5BF2303048015472303E4807A
:1005C40001002302A480828083076480E3CE07FEB7
:1005D40023030480828083076480E3CE07FE0345FF
:1005E4004480828083076480E3CE07FE2302A480D4
:1005F4008280411126C44AC24EC006C61377F50B49
:10060400AD47AA892E8995446306F70019456537D5
:10061400653F8D444E854537FD59FD14639834017B
:10062400B240A24412498249410182801355090112
:100634001375F50F453F2209CDB7011126CC06CE1F
:10064400B704080051371545BD37713769372AC6D5
:10065400A53F32459377150089EB13651500137593
:10066400F50FF240E24405618280FD14E9FC014586
:10067400CDBF397126DC4ADA4ED852D656D45AD276
:100684005ED006DE62CE66CCB7E700E07D5783AA73
:10069400070022C603AA470023A0E71823A2E718ED
:1006A400B7170040130770052380E704130780FA87
:1006B4002380E70483C74704930B75FFB684E207DE
:1006C40093FBFB0F8546AA892E8B32893724004081
:1006D400E187015763FA76016308D5008946130759
:1006E40000026313D5000157D98F93F7F70FB71C96
:1006F40000402382FC0411472303E4801305F00F18
:100704005D3D094CD135636D7C11B7050700DA9561
:1007140037870700795563F2E504B3879500636E64
:10072400F702370B0800A94733EB65016399F90613
:1007340089E48144513D26850DA0DA850945553D5E
:1007440005090345F9FFFD14050B693D81C4937741
:10075400FB0FFDF7DD3569FD7D55B7170040130725
:1007640070052380E704130780FA2380E70403C796
:100774004704418B2382E704F250B7E700E023A04B
:10078400571123A24711E25432445259C259325AE2
:10079400A25A125B825B724CE24C21618280A547B3
:1007A4006395F90685691309F00FB3069900B374CC
:1007B4002B01B6941349F9FFB3749900856B33790F
:1007C4006901416B9387F9FFB3F7270199E363FC50
:1007D400340193D94900C147E3E637FF99BF05695E
:1007E400C1697D19D9B71305800D638869011305A3
:1007F40000026384790113051008CA85DD3B353D89
:1008040021DD4E99B3843441D9B7DA852D45D533EA
:10081400CA94E30099F205097D3BA30FA9FED5BF55
:100824009387F9FF93F7F70F6361FC0C83C71C04EC
:1008340013073008631FF70437070800636BEB04E2
:10084400B3079B00B706100063F5D704334BEB00E6
:1008540089476393F9068980D549E38C04ECDA85EA
:100864000945413B11090327C9FF91472320E4802F
:1008740003076480E34E07FE23033481FD17EDFB79
:10088400FD14110B81C49377FB0FE9FF7D3371F5E0
:10089400E1B5B717004003C75704B707080013773B
:1008A400070219E3B78707007955E378FBEA3307B2
:1008B4009B00E3FFE7F855B58547E382F9F2DA8553
:1008C4002D45053B9389F4FFE38504E6293393F72B
:1008D400390091EB8326048003270900930749001C
:1008E400E39AE6E43E89CE84F1BFB5476396F90006
:1008F4001305900BC93135BDB1471305B00AE38B1D
:10090400F9FE99476391F904B7050800B365BB0084
:100914002D45C53181448D4BA149753963967401C8
:10092400832704802320F9008504E39834FF832778
:10093400048013172B01635507002312F900D5BB5C
:100944002322F900FDB39D476399F90281451305FC
:10095400B0044531BD442320090023220900FD5978
:100964009D3993F77400CA9703C70700FD14398DA6
:100974002380A700E39634FF6DBBA1476392F9047B
:100984006D398144630D0B008D479304C0036308E4
:10099400FB009304000563048B0193044004137566
:1009A400C507E30895D81945393139390545213149
:1009B40026850D3909453D314931E31C05D669BB0E
:1009C40091476399F90013056006F536F53E130562
:1009D40090090DB7E38F09D4F154A9BBBD66014753
:1009E40017460000130606AF938606A6854583477F
:1009F400060093F7F70F91C382800507E3F9E6FE3B
:100A0400974700002388B7ACDDB77D166206618680
:100A140093178601E18763D4070001458280931709
:100A240026003307F500AE9718439C4363E7E700BD
:100A34007D16E37FF7FC7D55828005458280FD1598
:100A4400E205E18513978501618793F7F50F634804
:100A54000700FD15139725002A97584365D713857A
:100A640017006205618582803308B5021C4283A8A1
:100A74000600B335B502C29733B50701AE98469563
:100A840085486367B5006394A50063E30701814863
:100A94000C43C6950CC388C21CC28280814713973D
:100AA400870161876343B7008280139727002A97E1
:100AB400232007008507E5B78147014793968701FF
:100AC400E18663C5B600133517008280939627002C
:100AD400AA9694428507558FD5B793D755408A0770
:100AE400AA979C4305453315B5007D8D8280171365
:100AF40000E0E702433D2A84993705C59317250092
:100B04003E940327C4FF814711EB7D1516053E95DE
:100B140042054185171300E06700233D05838507DF
:100B2400E5B70145C5BF81471397870161876343D3
:100B3400C700828013972700B386E50094422A9762
:100B4400850714C3D5B77D166206618601479317DE
:100B54008601E18763D50700133517008280931758
:100B64002600B306F500AE9794429C437D16B58FDC
:100B74005D8FF1BF8A05AA9501476363B500828042
:100B840083A6C5FFF11593D71600D98F9CC113977F
:100B9400F601E5B72A830148014701456343D700BD
:100BA4008280B387050183A80700B30706019C432D
:100BB400C697AA976384F80033B517010507B308ED
:100BC4000301620723A0F80061871108C1BF2A83CB
:100BD40001478147014563C3D70082803388E5001C
:100BE40083280800330EE600032E0E003388A84045
:100BF4003308C8416384080133B508018507B30885
:100C0400E300E20723A00801E1871107E9B71713FE
:100C140000E0E702432B0111B286B2842E86AA8536
:100C24000A8575372A84A6850A8579353334800088
:100C3400060413351500018D0561171300E06700E4
:100C4400C32A171300E0E70283254111AA89AE8A5B
:100C5400328BB68402C202C402C60144131C84014E
:100C6400135C8C4163499C02939B1400FD1B054952
:100C7400138CF4FFF15C3304890162046184634DD5
:100C8400740592478E04CE9423AEF4FE41011713EB
:100C940000E06700432413192400B30B2B01014A1D
:100CA40093172A00D69783A50B0088437800340055
:100CB40050005D3B050A93178A01E187F11BE3515C
:100CC400FCFE92474E9905042320F900A2473EC238
:100CD400B24702C63EC459B7131A8901135A8A414E
:100CE400131D240093178A01E18763CF970092476D
:100CF4000A044E941CC0A24705091379F90F3EC299
:100D0400B24702C63EC485BFB3079A0313152A002F
:100D140056950841780034005000050AEA97DA979E
:100D24008C439933C1B719CD91CD09CE814733870F
:100D3400F500834607003307F50085072300D70035
:100D4400E317F6FE828019C991C909CA910583A7E0
:100D5400C5FF11057D16232EF5FEC5BF828001C98E
:100D640019C62A960505A30FB5FEE31DA6FE8280CB
:100D740081473307F5000307070019E33E858280A6
:100D84008507C5BF01112E8626CAAA84131506013C
:100D94009305F004418122CC06CE32C6EF00B06741
:100DA4002A8401C53246A685BD3F2285F2406244AD
:100DB400D24405618280854715C18DC105C2814732
:100DC400B306F5003387F50083C606000347070022
:100DD4006398E6008507E315F6FE85473E85828025
:100DE4008147EDBF9307F6FFBE952A966313C500AE
:100DF4008280FD1583C715000505A30FF5FEFDB719
:100E0400AA87014581CF09CE3E96850703C7F7FF20
:100E14006317B700E39BC7FE0545828082800145C6
:100E2400828079719387418622D4804306D626D264
:100E34004AD04ECE52CC56CA5AC85EC65DCCB7C450
:100E4400C901014B9389C1859384F437174A000083
:100E5400130A0AB4974A0000938A4AB71749000054
:100E6400130909BB8357240085E35C44631B0B000F
:100E740023A2F186832BC4002285EF0030665E84B2
:100E8400B9A82326FB00FDB783A7090082971C4459
:100E94003307F5406376F500032749001D8F2A9731
:100EA40063E0E4089747000023AA07B283552400AF
:100EB40003450400976001E0E780809B5C40584450
:100EC400A1CB0C4403264900AE97BE8663E4B70069
:100ED40063E4C700B386C74014C4228B3A8459F034
:100EE40097470000938787AE9C4B09476370F706CA
:100EF400F917174700002323F7AEB2502254925437
:100F04000259F249624AD24A424BB24B456182804D
:100F140063150B0023A2E186B1BF2326EB0099BF22
:100F240003274A0209CF63EFA7003385A74083A7AD
:100F34000A016376F5009747000023A1A7AA228B34
:100F4400404471BF03274900BA97C5B797470000CB
:100F540023A607A85DB7411122C417440000130457
:100F640064A91C4006C626C24AC091C78297974707
:100F7400000023A107A89747000083C777B0858B9B
:100F840097440000938484AF95C397470000A389D6
:100F940007AE83C774001547637AF700CD2183C772
:100FA4007400F5178A07A2979C4382971C4491C347
:100FB4008297138901850327090017460000034619
:100FC400F6A09747000083C767A093961700BA96C8
:100FD40083D60600C5CE9747000083C7279F63E1E9
:100FE400C70C974700002383079E1C406395071294
:100FF4009747000083C717A991CF83C7740093F75D
:10100400F70F89EB97470000A38E07A6977001E0BE
:10101400E78000169387C1859C43638E070E97472C
:1010240000009387E79EDC43174700002328F79AC4
:10103400CD3B974700009387A795DC53E9CF17472B
:1010440000001307A798184B9747000083C797958C
:101054006363F70C83C774001547636EF70A9747F9
:10106400000083C727A6918BDDE703260900974676
:10107400000083C6B69563C6D70A2244B2409244A0
:101084000249410117D301E06700C390850793F734
:10109400F70F97460000238BF692E3E4C7F225BFCF
:1010A40086073E978355070023100700239C01847D
:1010B400938781869C4317450000034525911317A8
:1010C4002500BA979C43829783D7818517470000F0
:1010D4000347C78F93C7F7FF7D8D93171700032727
:1010E40009003E97835707005D8D2310A70097479B
:1010F400000083C7A78D91C7850717470000230702
:10110400F78C174700000347678C9747000083C795
:10111400F78BE378F7ECB240224492440249410150
:101124008280139717003297035707006DF78507DE
:1011340099B7AD6737C70040BD072326F7200F10C6
:1011440000009747000093876788C84F8327872646
:10115400BD66BD0693C7F7FF99836A052326D7208A
:101164005D8D82804111B7170040985F3AC6945F45
:101174003247E39CE6FE3245410182801305F00FBD
:1011840082801387C1881C439306001094C3010016
:101194000100010001001C4323A007008346150041
:1011A40003482500A2064208C29603480500C296D9
:1011B400034835006208C29694D783465500034815
:1011C4006500A2064208C29603484500C296034839
:1011D40075006208C296D4D7834695000348A500DB
:1011E400A2064208C29603488500C2960348B50089
:1011F4006208C29694DB8346D5000348E500A20644
:101204004208C2960348C5000345F500C29662052C
:10121400AA96D4DB83C6150003C52500A2064205A1
:10122400AA9603C50500AA9603C535006205AA96C9
:1012340094CF83C6550003C56500A2064205AA964D
:1012440003C54500AA9603C575006205AA96D4CFC6
:1012540083C6950003C5A500A2064205AA9603C548
:101264008500AA9603C5B5006205AA9694D383C6E1
:10127400D50003C5E500A2064205AA9603C5C5002C
:1012840083C5F500AA96E205AE96D4D3D443F59A65
:10129400D4C3D44393E61600D4C3944393E6160010
:1012A40094C3BA879443D842058B59E3984E0145B9
:1012B4002300E6009843184F2183A300E6009843D7
:1012C400184F41832301E6009843184F6183A3011B
:1012D400E6009C43D84F2302E600D84F2183A302A3
:1012E400E600D84F41832303E600D84F6183A3036C
:1012F400E60098532304E60098532183A304E600F0
:10130400985341832305E60098536183A305E600BF
:10131400D8532306E600D8532183A306E600D85306
:1013240041832307E600DC53E183A307F6008280B0
:1013340001008DBF138701891443411122C49C5EAF
:101344004AC006C6998326C2858B3A841389C1880C
:10135400D1C79C5E973400009384447293F7F7F9E5
:101364009CDE173700000347C77193070008631B0F
:10137400F700832709009C4393F7070417370000FD
:101384002301F77083C7040093F707048DC3938781
:10139400C1859C4382979737000023A9A76E83C712
:1013A400040093F7F70B173700002309F76C83C782
:1013B400440093F707049DE3854717370000A30112
:1013C400F76C9387C1899C43096798C7130700FC8E
:1013D400973600002386E66AD844F8D31C40985F09
:1013E4001183058B09CB985F3D9B98DF05479736A2
:1013F40000002387E668985F1D83058B11CB985FF7
:101404001377F7F798DF854717370000230AF76645
:1014140083270900D8430583058B19C7D843759BD7
:10142400D8C3D843799BD8C3B240224492440249DA
:1014340041018280397106DE16DC1ADA1ED82AD6FA
:101444002ED432D236D03ACE3ECC42CA46C872C628
:1014540076C47AC27EC0F93DF250E2525253C2536E
:101464003255A255125682567247E2475248C24834
:10147400324EA24E124F824F216173002030938767
:10148400C1899443973700009387475F03C70700D8
:10149400058B11CB973700002384075E9737000034
:1014A400A380075E828003C71700058B65F7F85297
:1014B40071FF83C75700DDB713880189032708002C
:1014C4001C5F9583858BD1E709C61C5BBD83230014
:1014D400F60085CA83270800985B4607935767017F
:1014E4006356070093E707C0C207C183039706004A
:1014F400C207C18709C7BA970947B3C7E702239050
:10150400F60085CD834715008DCB9736000083C642
:10151400465793F606041387970089478DCA3A9570
:1015240003470500854699471376F7066311D602EB
:1015340062076187B947634C0700832708009C5FF3
:10154400ED838D8B17370000A30FF75281473E853B
:1015540082808547EDBF411122C406C61384C18928
:1015640018402DE9AE877453FDFE3E85B28597374A
:10157400000023860750977001E0E780C0999387A5
:1015840001899C43B70680009843558F98C3D85768
:10159400719BD8D797370000A384074E9737000074
:1015A400A38E074C1C40094798C31440173700000A
:1015B4001307C74C83472700858B89EB8347370084
:1015C400858BD9C397370000238C074AB240224445
:1015D400410182808D47631EF500938701899C43F6
:1015E400B70680009843558F98C3D857719BD8D7B6
:1015F4006DBF8547E31BF5FA5447F977FD17F58F5F
:101604005CC70F1000001C40096798C7130700F857
:10161400173600002306E646138701891043184253
:1016240031830D8B11E713076019F8D3D4C7B5BF05
:101634001842094631830D8B6315C7001307E04335
:10164400EDB71307E01BD5B7FC52ADF741B75D7199
:10165400A2C4A6C22A84130680022800AE8493057D
:10166400100886C6CAC04EDE52DCEFF04FEF354597
:10167400977001E0E78080C1138301898327030009
:101684009376F41F138E418A23A40700984B938EFC
:10169400C189370FFCFF1367F70398CBF84F130585
:1016A40010F8B7020400137707E0558FF8CF98437A
:1016B400F576FD16758F98C39843B70633009303E8
:1016C40080251377F7E798C3984311497D1F137753
:1016D400F7E71367071098C303270E008549930F94
:1016E40080021C47D58F1CC783A70E001307900DDB
:1016F4003400B8CB014793553700A69583C705003E
:1017040013767700B3D7C740858BE1C383270300E3
:1017140083280E00239C07042390070603A8C8020D
:101724001378D8FF23A6080383A807001378F707C4
:1017340093F808F833E8080123A0070103A8470237
:101744003368580023A2070383A80E00014823A28C
:10175400780603DA07066307480303A80703038A26
:1017640006001358F80062081358884163580A01A8
:1017740003A807031358F8002380060103D80706BB
:101784001378F80F03AA480663060A0003DA8705EC
:10179400E37F49FB03A847023378E80123A2070348
:1017A40083870600635CF40003C805003396C90010
:1017B4001346F6FF337606012380C5003E8663D3C5
:1017C400A7002A8613158601618505071377F70F8D
:1017D4008506E312F7F3B640264496440649F259C7
:1017E400625A616182809386C1899C42D8471316EC
:1017F4001701635506029847131617016350060232
:101804007D57B8D7173700001307471C584F0507F3
:1018140017360000232AE61C116798C798470D83E2
:10182400058B1DCB17370000034767251367170087
:10183400173600002305E624130700F817360000C6
:101844002300E624214798C713870189104358567B
:10185400719B1367170058D69847058B0DC7173728
:1018640000000347B7211367170017360000A307CA
:10187400E620054798C71387018910435856719B82
:101884001367170058D698470983058B09E79847CB
:101894000583058B21CF9847173600001306061ED3
:1018A400138501890983058B6303071018411843C5
:1018B40031830D8B75EBAC4B184E93F50502034742
:1018C4001700CDCD79EF13077006D8CF0347060074
:1018D40013671700173600002302E61A114798C74A
:1018E40018415C57F19B93E717005CD79C429847DB
:1018F4009316370163D606029736000083C6862501
:10190400C18A173700001307671DC5CE0347870731
:101914001367070297360000238EE622056798C7EF
:1019240098479316270163D106021737000003472F
:10193400271562076187635707000547973600003C
:101944002380E614096798C798479316070163D65E
:1019540006029736000083C6F61F858A17370000F3
:101964001307C717ADCE03479707136727009736AA
:101974000000A381E61E216798C7828029D7854588
:101984006315B7001307B00689B789456315B70017
:101994001307F0061DBF8D456315B7001307300705
:1019A4002DB71307500715B71307600739BF03474F
:1019B40036001367170017360000A302E60C094728
:1019C40039BF834687070946BD8A6388C600034733
:1019D40087078D463D8BE313D7F4114725BF834614
:1019E4009707918AC9DA034797071367870041B7B6
:1019F400397106DE16DC1ADA1ED82AD62ED432D273
:101A040036D03ACE3ECC42CA46C872C676C47AC2F2
:101A14007EC0D13BF250E2525253C2533255A255CA
:101A2400125682567247E2475248C248324EA24E7C
:101A3400124F824F216173002030173700001307C3
:101A4400A7058346B7019737000083C7B7074C4BF8
:101A5400B697FD8B33D7F50097360000A38EF602B8
:101A640097360000A380F606058B15EF17370000A4
:101A740003479705B3F7E7028146014713050002C0
:101A840033D6E500058A1378F70F19CA6397D70090
:101A940097370000A38207018280850693F6F60F2C
:101AA4000507E31FA7FC82809737000083C757FD13
:101AB400D9E79387C1859C43411122C426C206C637
:101AC400829797370000938727FF8047BE8463037C
:101AD400A40663688504018D1354550097370000EC
:101AE40083C727FD6368F404893F9844973700004F
:101AF40083C727FC9396570036971D8C97360000B2
:101B040023A0E6FCE372F4FE2244B240924417356B
:101B14000000034575F881454101177301E0670032
:101B2400C39E973700009387A7EEDC433384874036
:101B340022955DB7B2402244924441018280828062
:101B44009387C1859C43011122CC4AC806CE26CA7C
:101B54004EC6829797370000938707F6804701495E
:101B64006301A406BE8463668506018D1354550083
:101B74009737000083C7E7F31379F5016360F40432
:101B8400973900009389C9E84D3D03A8840097362E
:101B9400000083C606F2139756004297158C3A86C6
:101BA40083A54900636407016364B7003306B74043
:101BB4009737000023A6C7F0E378D4FC16043369F2
:101BC4002401F24062444A85D2444249B249056143
:101BD4008280973700009387A7E3DC4333848740F0
:101BE400229569B79387C189984385679387077757
:101BF4007CD39387418A9C4383A607091396560096
:101C04006358060083A6070913966600634406001A
:101C14007453FDF2828061C1AA870145DDCD8D0731
:101C2400C207C183F19BC207C18313074003636BDF
:101C3400F7021387818B08431387018B1443639640
:101C4400A602173700001307A7D4185B014551C734
:101C54004111C20706C60545DD8D0297B240014514
:101C6400410182801387418BF9B70357650035E33F
:101C740003574500636FF704B306F7402146637CBE
:101C8400D60203280500938687001D8FAA96611744
:101C9400173600000356E6D32392E60023A006017C
:101CA4002393060014C12312F500130786FF973609
:101CB40000002390E6D22313B5009735000083D5A6
:101CC40045D1B387F540173700002314F7D0210519
:101CD40082800841ADB701458280828009CD938717
:101CE400818B03A307009387018B83A80700814698
:101CF4009A8763E31701828003A807006369F50AE2
:101D04006367A80A13878700E367E5FE03D66700C5
:101D1400216705076317E60003C731880507A38118
:101D2400E18897350000938565CA03D6470003D739
:101D3400650023930700329742074183173500005B
:101D44002319E5C8638867021385418B084163033F
:101D5400F50203D5660019ED83D7460023A00601DA
:101D640021073E9621062392C6009737000023924E
:101D7400E7C6B6879843E30017F99386418B9442EC
:101D8400E30BD7F683566700BDF683D647000356A8
:101D940047001843A106B2962392D70098C383D76D
:101DA4006500A107173700002315F7C28280BE869D
:041DB400C28781B7AA
:101DB80097110020938181BD176100201301012430
:101DC8001305400097E5FF1F93854523170600205C
:101DD800130606FE63FAC5008322050023A05500FA
:101DE80011059105E3EAC5FE17C50100130545C6AF
:101DF80097050020938505FC1386418263FAC50088
:101E08008322050023A0550011059105E3EAC5FECC
:101E18001385818297350020938585DE6377B50029
:101E2800232005001105E36DB5FEFD42739002BC49
:101E38008D4273904280930280087390023097E23B
:101E4800FF1F9382A21B93E2320073905230371720
:101E58000040930770052300F704930780FA2300D6
:101E6800F7040F1000003C47B70600FAE116F58F9B
:101E7800B70600069506D58F3CC7972200009382C7
:101E8800A2307390123473002030397101436EC64A
:101E980019A0397141536AC866CA62CC5ECE19A0CE
:101EA800397101535AD056D252D44ED64AD826DA6E
:101EB80022DC06DE33016140828241114AC026C21B
:101EC80022C406C68282B24D4101024D924C224C78
:101ED800B24B4101024B924A224AB249410102499E
:101EE80092442244B240410182803D432A87637371
:101EF800C3029377F700BDEFADE5937606FF3D8A01
:101F0800BA960CC34CC30CC74CC74107E36BD7FE4A
:101F180011E28280B306C3408A06970200009696B3
:101F28006780A6002307B700A306B7002306B700FB
:101F3800A305B7002305B700A304B7002304B7001F
:101F4800A303B7002303B700A302B7002302B70017
:101F5800A301B7002301B700A300B7002300B7000F
:101F6800828093F5F50F93968500D58D939605019C
:101F7800D58D61B7939627009702000096968682C2
:101F8800E78086FA9680C1171D8F3E96E374C3F8E2
:101F9800A5B73367B500FD530D8B79E7B7877F7F0A
:101FA8009387F7F710419441B372F6003363F60054
:101FB800BE92B3E262006397720C6318D606504172
:101FC800D441B372F6003363F600BE92B3E2620006
:101FD8006398720A631BD60410459445B372F600E1
:101FE8003363F600BE92B3E262006391720A631E25
:101FF800D6025045D445B372F6003363F600BE925C
:10200800B3E26200639A72086311D60210499449D8
:10201800B372F6003363F600BE92B3E262006393D4
:1020280072085105D105E30FD6F6131706019397E9
:102038000601631CF7001357060193D70601330501
:10204800F7409375F50F91E982804183C183330589
:10205800F7409375F50F91E182801377F70F93F7A7
:10206800F70F3305F74082800346050083C6050055
:10207800050585056313D60065FA3305D6408280C9
:1020880011059105E312D6FE014582802105A105BF
:10209800E31CD6FC014582803105B105E316D6FC68
:1020A800014582804105C105E310D6FC01458280C7
:1020B800B717004003C777051377E70FA38BE7042B
:1020C800130700F8A38DE7043D47238CE7041307A3
:1020D8005003A38CE7048280B717004083C7E70248
:1020E8000D8993F7C70FC98F73270080218B9386BB
:1020F800818209CB7327008023A4E18298425D9BEB
:10210800731007800F100000371700401306700582
:102118002300C704130680FA2300C7040F10000029
:102128002307F70223000704732700809C42A18B32
:10213800D98F7390078023A401820F10000082803A
:1021480041112A83014E930E407E130F0019930FFD
:10215800400663E66E149308001913034006B3782B
:102168001503854E0D4FA14F337365020D89133545
:10217800150063E0BE161308F6FF79467298420808
:10218800135808013307C70213D61700BE07329742
:102198006146B3F6C60213068070B386C602369748
:1021A800A166F58F42075D8FB716004083C7F60218
:1021B80093F70708A307F1000346F10083C7F60267
:1021C80093F70708E394C7FE8347F100B71600406A
:1021D80093F7F70F63890714F3270080A18B938681
:1021E8008182639807140F100000B7170040130688
:1021F80070052380C704130680FA2380C7040F10D4
:10220800000023AA070303C6170313660608A3885A
:10221800C70223800704732600809C42A18BD18FBC
:102228007390078023A401820F1000001166B71570
:1022380000407D16DC59C85DA98FF18FE5FFF327B3
:102248000080A18B89CBF327008023A4F1829C42D4
:10225800DD9B739007800F100000B717004013062E
:1022680070052380C704130680FA2380C7040F1063
:102278000000D8DB03C7170313670704A388E70226
:1022880023800704732700809C42A18BD98F739009
:10229800078023A401820F100000410182807D1372
:1022A8003368E3039308E016630E08003368F3030A
:1022B8009308D016630808009378330093B8180081
:1022C8009388D81633081E01131E0801135E0E01E9
:1022D80049B56393E503054863860800014863032D
:1022E80003002A8871087298FD15131E0801C2059B
:1022F800135E0E01C181B5BD13F8150063F4BF006C
:102308007908D5B713381800E5BF83C7F60293F7E5
:102318000708A307F1000346F10083C7F60293F705
:102328000708E394C7FE8347F10093F7F70FF1DF3F
:1023380065B5F327008023A4F1829C42DD9B73904E
:10234800078055B55971E2C486D6A2D4A6D2CAD0A0
:10235800CECED2CCD6CADAC8DEC6E6C2EAC06EDEB7
:102368002A8C02D6EF001016F3270080A18B138D5C
:10237800818291CBF327008023A4F18283270D006B
:10238800DD9B739007800F100000B71700401307FC
:1023980070052380E704130780FA2380E7040F10F1
:1023A800000003C7F7021377770FA387E70203C775
:1023B800F70213678700A387E702238007047327C0
:1023C800008083270D00A18BD98F7390078023A4E9
:1023D80001820F100000F3270080A18B91CBF32717
:1023E800008023A4F18283270D00DD9B7390078072
:1023F8000F100000B7170040130770052380E7048B
:10240800130780FA2380E7040F10000003C7E702D0
:102418001377C70F2387E70203C7E702136717007D
:102428002387E702238007047327008083270D0092
:10243800A18BD98F7390078023A401820F1000000D
:10244800130780C13347E5029169938709E81306AA
:1024580050023D69B7440F0093840424856B130B25
:10246800A004014A814A13047005FD19B347F50217
:102478003307C7023EC2930709A61309803E3347B4
:10248800F7023AC43347250305493319890113591B
:1024980039403345950293840BFAB3948401811B28
:1024A8003306C702B346F6023309E90236C6330BD0
:1024B800670313076055B304950213050010330929
:1024C800E902B346FB02130B80FAB3C4A40236C870
:1024D800B347F902939634003719004036CC930479
:1024E80009043ECA73260080218A11CA7326008017
:1024F80023A4C18203260D005D9A731006800F1075
:102508000000930770052380F400238064010F10F6
:102518000000034639051376860FA309C90403464C
:10252800390513661600A309C9042380040073251E
:10253800008003260D00218A498E7310068023A48B
:1025480001820F100000916CE17D73260080218AC2
:1025580011CA7326008023A4C18203260D005D9A48
:10256800731006800F100000930770052380F40095
:10257800238064010F100000034639051366060224
:10258800A309C90403560905336696012318C9042B
:10259800035609053366B601420641822318C90469
:1025A800238004007325008003260D00218A498EAC
:1025B8007310068023A401820F100000034639051A
:1025C800137606026305061603463905218A6DDE71
:1025D8006810152F73260080218A11CA732600807F
:1025E80023A4C18203260D005D9A731006800F1084
:1025F800000023808400238064010F10000003463C
:1026080039051376F60DA309C9040346390513667F
:102618000602A309C904035609053366960123185F
:10262800C904035609053366B601420641822318D8
:10263800C904238004007325008003260D00218A25
:10264800498E7310068023A401820F1000000346F0
:102658003905137606026308061003463905218AF0
:102668006DFE97E0FF1FE78080A22A8632CE97E0B2
:10267800FF1FE780C0A17246E30AC5FE035609059D
:102688003255336696012318C904712D034639055E
:10269800218A6DDE0355090503462905924733F55E
:1026A800A9003386C90232951D8DA24763D5A700BC
:1026B800B2476346F50E09466365560FC247850A59
:1026C8001316150093FAFA0F3346F6026354A03A2C
:1026D800050609453346A60273250080218911C9DC
:1026E8007325008023A4A18203250D005D99731032
:1026F80005800F10000023808400238064010F10E0
:1027080000000355C9022A96420641822316C902CF
:10271800238004007325008003260D00218A498E3A
:102728007310068023A401820F10000039BD7326A0
:102738000080218A11CA7326008023A4C18203263F
:102748000D005D9A731006800F100000238084002E
:10275800238064010F100000034639051366060242
:10276800A309C90435BD73260080218A11CA7326BE
:10277800008023A4C18203260D005D9A7310068091
:102788000F10000023808400238064010F100000D4
:102798000346390513660602A309C90459BDE38F28
:1027A8000AF073260080218A11CA7326008023A4A8
:1027B800C18203260D005D9A731006800F10000079
:1027C80023808400238064010F100000034639052C
:1027D8001375FC0F1376860FA309C9040346390540
:1027E800498EA309C90423800400732800800326A6
:1027F8000D00218A336606017310068023A4018226
:102808000F100000034639051D8A631786277326B3
:102818000080218A11CA7326008023A4C18203265E
:102828000D005D9A731006800F100000238084004D
:10283800238064010F1000000346390511651376E3
:10284800F60DA309C9040346390513660602A30950
:10285800C90403560905498E2318C90403560905F6
:102868002165498E2318C90423800400732500803C
:1028780003260D00218A498E7310068023A4018245
:102888000F1000000346390513760602630E062072
:1028980003463905218A6DDE6810B521732600804C
:1028A800218A11CA7326008023A4C18203260D0041
:1028B8005D9A731006800F10000023808400238027
:1028C80064010F1000000346390511651376F60DF3
:1028D800A309C9040346390513660602A309C904F6
:1028E80003560905498E2318C904035609052165AD
:1028F800498E2318C9042380040073250080032609
:102908000D00218A498E7310068023A401820F10BE
:10291800000003463905137606026303061C0346C6
:102928003905218A6DFE97D0FF1FE7804076AA8C73
:1029380097D0FF1FE780A075E30C95FF03560905A4
:102948001165498E32552318C904F12E03463905FD
:10295800218A6DDE73260080218A1385818209CA47
:102968007326008023A4C18210415D9A73100680EB
:102978000F10000023808400238064010F100000E2
:10298800034639051376F60DA309C904238004000C
:10299800732800801041218A33660601731006806F
:1029A80023A401820F1000000358090503462905D6
:1029B800E24733F809013386C90232983308F840F0
:1029C8001306800C3306C802D2473346F602635515
:1029D800001505060948334606036351C014035819
:1029E800C9029308F00F13585800329863D6081F8D
:1029F800094663734619F3270080A18B89CBF32717
:102A0800008023A4F1821C41DD9B739007800F1086
:102A1800000037170040930770052300F704930759
:102A280080FA2300F7040F1000008356C702896755
:102A38008117D58FC207C1832316F7022300070425
:102A4800732700801C41A18BD98F7390078023A422
:102A580001820F100000B650265496540659F649C4
:102A6800664AD64A464BB64B264C964C064DF25D06
:102A7800656182807D16B1B973260080218A11CAEA
:102A88007326008023A4C18203260D005D9A73106B
:102A980006800F10000023808400238064010F103B
:102AA8000000034639052DBB73260080218A11CA10
:102AB8007326008023A4C18203260D005D9A73103B
:102AC80006800F10000023808400238064010F100B
:102AD80000000346390513660602A309C90469B351
:102AE80073260080218A11CA7326008023A4C1821C
:102AF80003260D005D9A731006800F1000002380D6
:102B08008400238064010F10000003463905136612
:102B18000602A309C904C5B37D166DBD55CE035879
:102B2800C902B308C040135858006357180B094628
:102B380063744605F3270080A18B89CBF3270080B7
:102B480023A4F1821C41DD9B739007800F100000C5
:102B5800B7170040130770052380E704130780FAAE
:102B68002380E7040F10000003D7C7027D8B23964C
:102B7800E70223800704E9B573260080218A09CA81
:102B88007326008023A4C18210415D9A73100680C9
:102B98000F10000023808400238064010F100000C0
:102BA8000356C9021376F60F336676014206418250
:102BB8002316C90223800400732800801041218A4B
:102BC800336606017310068023A401820F100000EB
:102BD800050A137AFA0F39B2F3270080A18B89CB43
:102BE800F327008023A4F1821C41DD9B73900780AA
:102BF8000F100000B7170040130770052380E70483
:102C0800130780FA2380E7040F10000003D7C702D8
:102C180016063A96420641822396C70299BF914703
:102C280063EEB70217A70100130787B08A05BA95A4
:102C38009C41BA978287B717004003A7470B1345F3
:102C4800F5FF698F23AAE70A03A7070B698F23A853
:102C5800E70A03A7070A798D23A0A70A8280B71776
:102C6800004083A6470B1347F5FFF98E23AAD70A1E
:102C780083A6070B558D23A8A70A83A6070A758F75
:102C880023A0E70A8280B717004003A7470B498FA4
:102C980023AAE70A03A7070B1345F5FF45BFB71794
:102CA800004083A6470B1347F5FF758F23AAE70A51
:102CB80003A7070A598D4DB7B717004003A7470B5D
:102CC800498FEDB7B717004003D58700420541810A
:102CD8009377050491EB9377F5013755E8011305D0
:102CE80005803345F50282809377050C13070004AD
:102CF8006397E7009377F50137459C1CCDB72165AD
:102D0800130505D0828037E700E01C435443A183B4
:102D1800E206D58F1CC1FD572320F7182322F71888
:102D28000F100000828013178500B7E700E023A08A
:102D3800E710618123A2A7108280B7F700E08847D7
:102D4800CC478280814737370040A14663C4C7001B
:102D5800328582800345B740E38EA6FE3385F500B1
:102D68000345050085072304A740CDB797F7FF1F44
:102D78009387C7419C4317270020130767E83E95B0
:102D8800636EE50017570020130747076368A7001D
:102D980017F7FF1F232CA73E3E858280FD57EDBF06
:102DA800411122C406C62A84313F2947B307E502E8
:102DB800B2408D83B3D7870222449507B3D7E70281
:102DC80037370040C207C1832316F740410182808C
:102DD800716541111305052006C6D937B73700407C
:102DE800130770F82381E7400D47A381E7401307D5
:102DF8000004A380E74005472387E740B24041012C
:102E080082802386018223A80182B717004003A786
:102E1800070CB706C0FFFD16758F23A0E70C03A7A4
:102E2800070DB7064000558F23A8E70C03A7070C2A
:102E38003D9B23A0E70C03A7070D1367070123A8F1
:102E4800E70C828023A8A18213064006894503C5A2
:102E580041836F30B126B717004003A5470C83A7FD
:102E6800470C598113451500C18B058999E31365F2
:102E7800250083C7C182638CA7002386A18201C96C
:102E88009387018303A307006303030002838280FF
:102E980011456FF02FCB411193962500AA852D453A
:102EA80006C697D0FF1FE780807CB24001454101EC
:102EB8008280411126C29394250022C44AC02A84E4
:102EC8003289A686AA850146254506C697D0FF1FE2
:102ED800E780E079A6864A86A285294597D0FF1F14
:102EE800E780E078B240224492440249014541011A
:102EF8008280011122CC06CE3714004026CA4AC867
:102F08004EC652C483447405034AB40583498405F4
:102F180003499405EFF0CF998347A40593F4F40F80
:102F2800137AFA0F93E71700230DF40493F9F90FB6
:102F38001379F90FB717004003C7A705058B6DFF75
:102F480003D5C705A38D4705238C3705A38C270513
:102F5800A38B9704F2406244D2444249B249224AC0
:102F68000561828041119397050122C406C6C18775
:102F78002E8463DA0700EF30016819C1EF308160F1
:102F88002165218D1DA093F7150013C5150091EF3C
:102F980093F7250099CFC1351306000A894503C563
:102FA8004183EF30B11113452400B240224441015E
:102FB80082809397250163D00702EF50813AC93D7B
:102FC80037F60200130606E0896503C54183EF3032
:102FD800F10E09657DB7939715010145E3D707FC05
:102FE800179501001305857AEF80814F1306006459
:102FF800916503C54183EF30710C116559B71D7197
:103008004946979501009385E57317A501001305B7
:10301800657A86CEA2CC97E0FF1FE78080D901E9C8
:103028001795010013054573EF80814B01A037F711
:1030380000E0795610CBFD5654CBB7E700E00564A5
:1030480023A087109306F00214C323A087180F103B
:1030580000001306C0038145480897E0FF1FE7807A
:10306800C0CF970700209387E72B3ECAB5472304B4
:10307800F102A167938707E03ECEB7070105938762
:1030880007103ED0ED472312F10285472303F102D2
:1030980097070000938767E0BEC4970700009387EF
:1030A80087E1BEC68567938717D02315F102970776
:1030B80000009387C7C83EDAB7F5070097070000F6
:1030C800938767E33EDE814697070000938787DC96
:1030D8007000E1051945BEC0231C810097D0FF1F71
:1030E800E780E05858088147994670003E960346A5
:1030F800060085070507A30CC700E398D7FED2474B
:1031080091C70357810185676373F70001A04808D9
:10311800EF30312FAA8501C9179501001305056500
:10312800EF80C12701A0F6406644256182804111E5
:1031380017050000130545E306C622C4EF30F12841
:10314800138441832300A400212865390345040022
:103158002244B24013060032896541016F3001767E
:10316800411106C6F3270080A18B1387818289CB82
:10317800F327008023A4F1821C43DD9B7390078012
:103188000F100000B7170040930670052380D7047E
:10319800930680FA2380D7040F10000083C6F70235
:1031A80093F6A60FA387D70223800704F32600808F
:1031B8001C43A18BD58F7390078023A401820F1025
:1031C8000000F3270080A18B89CBF327008023A47C
:1031D800F1821C43DD9B739007800F100000B71726
:1031E8000040930670052380D704930680FA238055
:1031F800D7040F10000083C6F70293E62600A387C2
:10320800D70223800704F32600801C43A18BD58FA7
:103218007390078023A401820F1000000545EFE09A
:10322800BFEBBD311305407E814701478146054606
:103238008545EFE0FFF0B240014541016F30114292
:10324800138741658147BA851306900283560700A4
:1032580089CE139547002E9554411398360063463E
:103268000800139826006357080085074107E39F65
:10327800C7FC0145828093864165814736871306DE
:10328800900283D506006396A50092073305F700E0
:1032980082808507C106E396C7FE01458280D84132
:1032A8004111A16722C406C626C29386B7012A84A3
:1032B8006306D7089387D7036305F7044DEF9795FF
:1032C80001009385255617A5010013052580EF8079
:1032D800E10C17A5010013056580EF80210C294535
:1032E800EF80C10F835764007D77F98F93E757000C
:1032F8002313F40089471CC4B2402244924441017C
:103308008280979501009385E55117950100130573
:10331800E57BEF80A108179501001305E57DEF8097
:10332800E1072945EF80810B835764007D77F98F8A
:1033380093E757002313F4008D4775BF9795010055
:103348009385454E1795010013054578EF800105D3
:10335800179501001305057CEF8041042945EF808E
:10336800E107835764007D77F98F93E757002313AC
:10337800F400914749B7AE84179501001305057508
:10338800979501009385054AEF804101CC40179538
:1033980001001305657AEF8061002244B24092442F
:1033A800294541016F80810341119795010093855B
:1033B8006543179501001305657106C6EF70117E08
:1033C800B240294541016F806101411122C497959E
:1033D80001009385A54A2A84179501001305056FF6
:1033E80006C6EF70B17B2945EF70517F5840A16741
:1033F80093879704631BF70403D5E18369C1EFF052
:10340800C02B03D5E183853D835765007D777D1704
:10341800F98F23240500231005002313F500979541
:1034280001009385A545179501001305256AEF70DE
:10343800F176179501001305655CEF70317622442B
:10344800B240294541016F707179DD3B05E19795DF
:1034580001009385A5421795010013052567EF70B4
:10346800F173179501001305A55AC1BF83460400DF
:103478001307F00F6390E6049795010093850540C4
:103488001795010013058564EF7051714C4017952D
:1034980001001305A559EF7071702945EF7011747B
:1034A8002244B24003C5C1831306803E85454101CD
:1034B8006F30C1405C45A2859C438297D5B7B24026
:1034C800224441018280411122C406C68347050077
:1034D8002A849DC3979501009385853B1795010024
:1034E8001305C55EEF70916B4C40179501001305ED
:1034F800E577EF70B16A71A05841B707CF0093879D
:10350800777D631CF70C97950100938565381795AF
:1035180001001305A55BEF7071681C448356E40035
:103528008355C40003C60700179501001305857568
:10353800EF70D1662945EF70716A0356C4000C44D8
:103548001385415797D0FF1FE780A07D03C74157D8
:10355800930720086317F70E0357C40085476308CD
:10356800F702979501009385A53217950100130579
:10357800E555EF70B1621795010013052573EF70DB
:10358800F1612244B240294541016F70316591458E
:1035980003C5C183EF3001450355E400EFF0E011A6
:1035A8000355E400C939835765007D777D17F98F86
:1035B80023240500231005002313F5009795010027
:1035C8009385052D1795010013054550EF70115D82
:1035D800179501001305456F5DB7B707CE009387B0
:1035E800777D631AF702979501009385652A1795E9
:1035F80001001305A54DEF70715A1C448356E40071
:103608008355C40003C60700179501001305456DCF
:10361800EF70D158BDB7B707CC009387777D6302A9
:10362800F702979501009385A526179501001305C4
:10363800E549EF70B1564C40179501001305856CAC
:103648004DBDB240224441018280397126DA4AD800
:103658004ED6AE84AA89328981457146480006DE75
:1036680022DCEFE09F8805442313810023143101F5
:10367800EF00F07A930700192305A1003EC64A8699
:10368800FD57A6854800A3058100230AF100EF0035
:10369800907BF2506254D2544259B25921618280CF
:1036A8001C45411106C622C426C209476382E706A3
:1036B8000D476382E70A0544639187028355050035
:1036C800035545001797010013070755854601461E
:1036D800EF30105FAA8401E901442285B2402244F8
:1036E800924441018280979501009385251517958D
:1036F80001001305A53DEF70714AA68517950100D5
:1037080013050545EF7091492945EF70314DF1B723
:1037180003560500035545009307707D014785460C
:10372800B285EF30305B2A8445D99795010093859F
:10373800E5101795010013056539EF703146A2852C
:103748001795010013058543EF7051452945EF7022
:10375800F148054459B7035605000355450093073A
:10376800707D0147B166B285EF3070582A842DD537
:10377800979501009385850C17950100130505356C
:10378800EF70D141A285179501001305A5416DBFC2
:10379800D841411122C406C626C22A841DCFA1677A
:1037A8009387D703630DF706AE84179501001305B9
:1037B800E531979501009385A507EF70313ECC4020
:1037C8001795010013054537EF70513D2244B2406B
:1037D8009244294541016F70714097950100938586
:1037E8002505179501001305652EEF70313B1795D8
:1037F800010013052528EF70713A2945EF70113E35
:10380800835764007D77F98F93E717002313F4003B
:1038180089471CC4B2402244924441018280979552
:1038280001009385E500179501001305252AEF701F
:10383800F136179501001305A525EF703136294596
:10384800EF70D139835764007D77F98F93E71700BC
:103858002313F400914775BF411122C406C62A8478
:103868001385416515E02A8781471308900283581C
:10387800070063900808139447002A942312B400A1
:103888002310C4002311D400138741658147930591
:1038980090028356070099CE630ED6009396470090
:1038A800AA96D44213983600634608001398260057
:1038B8006359080685074107E39DB7FC81471397BD
:1038C800D70083576400F976FD16F58FD98F231337
:1038D800F400139727016349070013060064854520
:1038E80003C5C183EF20917D2285B2402244410166
:1038F800828085074107E39C07F797950100938528
:1039080025F1179501001305651CEF7031291795EE
:1039180001001305A519EF7071282945EF70112CC6
:10392800E1B7854769BF411122C44AC02E842A895C
:1039380097950100938505F2179501001305051960
:1039480006C626C2EF7091252945EF703129054535
:10395800EFF0A00415C5AA8497950100938585EF1B
:103968001795010013058516EF705123A685179545
:10397800010013056526EF7071222945EF701126A5
:103988002285EFF05F8F19C58357650013973701BC
:103998006341070685462286CA857D3D0DE99795D0
:1039A8000100938525EB1795010013052512EF708B
:1039B800F11E1795010013056524EF70311E22448E
:1039C800B24092440249294541016F70312197A7BD
:1039D8000100938727F95CC503C7018483576500F5
:1039E80019CF7D77F98F93E717002313F5008547E3
:1039F8001CC5B240224492440249410182807D772D
:103A0800F98F93E717002313F5009147D5B70111F4
:103A180022CC26CA2E84AA8497950100938545E571
:103A2800179501001305850A06CE32C6EF701117E7
:103A38002945EF70B11A2285EFF0FF83B24619C508
:103A48008357650013973701634F07042286A685BD
:103A5800213505E997950100938585E117950100C2
:103A68001305C506EF709113179501001305051985
:103A7800EF70D1126244F240D244294505616F705B
:103A8800F11597A70100938767EE5CC503C701840A
:103A98008357650011CF7D77F98F93E7570023137C
:103AA800F50085471CC5F2406244D2440561828016
:103AB8007D77F98F93E757002313F5009147DDB71A
:103AC800411122C497950100938585DE2A841795B4
:103AD80001001305A5FF06C6EF70510CA2851795C6
:103AE80001001305253BEF70710B2945EF70110F8D
:103AF80083D74166C9CF97950100938565DB1795F4
:103B080001001305A5FCEF70710983D5416617956F
:103B18000100130525F3EF7071082945EF70110CAA
:103B2800930720FA03D54166238AF156A38AA15642
:103B3800935785000D4693854157238BF1563136AF
:103B48009377F50F2A848DCB97950100938545D6F9
:103B580017950100130585F7EF7051049375F40F5D
:103B680017950100130505EFEF7051032244B24089
:103B7800294541016F7091062244B240056603C58C
:103B8800C1831306062C914541016F203153B24081
:103B9800224441018280011122CC06CE26CA93F725
:103BA80015002E8463890712EFF08FE9AA841DE5BA
:103BB80097950100938585C417950100130505F1B4
:103BC800EF70C17D17950100130585E4EF70017D45
:103BD8002945EF70B10013441400F9A0035765009C
:103BE8008567FD177D8FB306F700FD8E8357650047
:103BF8007D76F18FD58F2313F5004DEF9795010052
:103C08009385C5BF17950100130545ECEF70017941
:103C1800179501001305C5B7EF7041782945EF7076
:103C2800E17B03D50400EFE0502903D50400EFF051
:103C38008FE4835765007D777D17F98F2313F5008F
:103C4800232405002310050097950100938505BBE3
:103C580017950100130585E7EF704174179501006A
:103C680013058506EF7081732945EF702177138658
:103C780041658146328505489305900283570600C1
:103C8800B1C7139746002A975C439394370063CFD4
:103C98000402F583858B639B070383576700F976D6
:103CA800FD16F58F2313F7002285F2406244D244B3
:103CB800056182805C45DC438297E30E05F083D77B
:103CC80064000567D98F2393F40055B7850641062C
:103CD800E396B6FA09B793F72500D9C783D74166A3
:103CE800ADCB97950100938565BE17950100130527
:103CF800E5DDEF70A16A83D54166179501001305CC
:103D0800A5AAEF70A1692945EF70416D93870182DB
:103D18009C4311466C0003D541663EC6EFF0FF9206
:103D28009377F50FAA8495C797950100938505BAEF
:103D380017950100130585D9EF70416693F5F40FC7
:103D4800179501001305C5A7EF7041652945EF7068
:103D5800E168096613060690894503C5C183EF200B
:103D6800F1351344240089B793F745009DC797950B
:103D780001009385A5B517950100130525D5EF70AA
:103D8800E161179501001305A5A4EF70216129458C
:103D9800EF70C1641344440001BF014431B71C45AE
:103DA800411106C622C405476387E7000947638CAB
:103DB800E704054505A083550500035545001797F9
:103DC8000100130767E585460146EF30606F2A84D6
:103DD80011E50145B24022444101828097950100D6
:103DE800938585A617950100130545CEEF70015BF5
:103DF800A285179501001305A5D5EF70215A29450D
:103E0800EF70C15D7DB70356050003554500930764
:103E1800707D05478546B285EF30C06B2A8455D939
:103E280097950100938545A217950100130505CACA
:103E3800EF70C156A28517950100130525D475BFEB
:103E4800411122C417950100130545C82E84979582
:103E580001009385E59906C6EF704154A285179530
:103E68000100130565C0EF7061532945EF700157D4
:103E780095476319F4002244B24085450545410140
:103E88006FE090352244B240054541016FE0F030C3
:103E9800411122C426C22A84AE8417950100130555
:103EA800E5C2979501009385E59B06C6EF70014F23
:103EB80029450588EF70815229C0954601468145FC
:103EC8002685EF10B0742A840DC997950100938553
:103ED800659917950100130565BFEF70214CA28500
:103EE80017950100130545D6EF70414B2244B240A7
:103EF8009244294541016F70614EB2402244924478
:103F08004101828001113546979501009385C5A22C
:103F1800179501001305C50806CE22CC97D0FF1FC0
:103F2800E78020E901E9179501001305E582EF70A4
:103F3800215B01A097E7FF1F938787313EC4B7F540
:103F480007008567938707CB81460A86E1051945EF
:103F58003EC697C0FF1FE780807119468A8517F50E
:103F6800FF1F1305653297D0FF1FE78080DB340001
:103F78000A86979501009385E5DB179501001305DF
:103F8800E5DCEF10F0432A840DC99795010093856D
:103F9800E59217950100130565B3EF702140A285DE
:103FA800179501001305459AEF70413F2945EF70B9
:103FB800E142F240624405618280EF70507D1795BE
:103FC80001001305E591EF0030659387416517F708
:103FD800FF1F1307E72923A4070023900700C10741
:103FE800E39BE7FEEF407072EFE0701617E5FF1FE6
:103FF800130505EFEFE0207A179501001305458FAB
:10400800EFE0B0162A84EF10403DEFA0A02CEF009F
:10401800313DEF202056EF10F017EFC0D0109795E4
:1040280001009385A58917950100130525AA09C8DC
:10403800EF70C136A2851795010013052593ADB71A
:10404800EF70C1351795010013058594EF700135A0
:104058002945EF70A138EFC0607385472380F1844C
:10406800EF90C01629C5979501009385258517956A
:1040780001001305A5A5EF7061321795010013051E
:10408800A592EF70A1312945EF7041359795010050
:104098009385C58217950100130545A3EF7001307C
:1040A8001795010013054594EF70412F01B79797B5
:1040B8000100938767B705478146014681451795F3
:1040C8000100130565B7EF10B05A2A8461D19785AE
:1040D80001009385A57E179501001305259FEF70B4
:1040E800E12BA285179501001305458E75BD411179
:1040F80017050000130565AA06C622C4EF20F12C97
:104108001384C1832300A40017E5FF1F130585DF6F
:10411800EF005009C53BEFE0DFCE1705000013059F
:10412800659AEFE03FD2034504002244B240056699
:104138001306062C894541016F2041780111354647
:10414800978501009385457F17950100130545E57F
:1041580006CE97D0FF1FE780C0C501E9179501007B
:104168001305C5BBEF70C13701A0EF50415D2AC6EA
:10417800EF001169EF005148EF70201CF240324502
:104188000561828041111305800406C697C0FF1F90
:10419800E78060F1371700408327870A8D451305AC
:1041A800002093E707202324F70AEFE05FA7EFE05A
:1041B8003FC2179501001305E55FEF70613217954F
:1041C80001001305E5DDEF70A131EFE05FE3EFE0FB
:1041D8001FF6AD37293F97C0FF1FE780E03C014538
:1041E80082804111B2862E86AA852D4506C697C0C3
:1041F800FF1FE780C047B240014541018280AE867B
:104208000146AA85254517C3FF1F67004346930744
:10421800000463E6C7021D71A2CC2A84080886CE72
:1042280032C6EF70410CB2461008A285294597C0E6
:10423800FF1FE780C043F6406644256182803955F8
:1042480082809387418418429C4383D64500034566
:10425800070083C5C700035646006396A50083D5AB
:10426800E700638DD502011106CE2386A7002397A8
:10427800D700B705CF00DC4B9385757D05077D1604
:104288002EC2230001003AC42316C1002317D1000F
:1042980099C30A858297F2400561828082806D7198
:1042A8003C083EC6B707E500232291103EC8AA8401
:1042B8003C083285232611103ECA2324811023206E
:1042C80021112E89EF20A04A2A8497950100938511
:1042D800A5AB178501001305657FEF70210CA2853A
:1042E800179501001305C5B7EF70410B2945EF700D
:1042F800E10EB705CD009385757D6800EF00702B42
:10430800A2856800EF20403C014781467000CA85BD
:104318002685EF00504A15C52A8497950100938594
:10432800A5A6178501001305657AEF702107A285F8
:1043380017950100130585B3EF7041062945EF7005
:10434800E1098320C110032481108324411003292B
:10435800011051618280797122D452CC2E842A8A2C
:10436800979501009385C5A3178501001305057668
:1043780006D626D24AD004424ECE32898359460008
:10438800EF70C101035724008306840003566400BC
:1043980083554400179501001305C5B2EF7001005D
:1043A8002945EF70A103938741849C4303C7040008
:1043B80083C607016398E6000356440083D6E700E6
:1043C800630AD6022388E700835644003707CE00E5
:1043D8001307777D2397D700DC4B8504FD193AC274
:1043E8002300010026C4231631012317D10099C3E5
:1043F8000A8582974A86A28552855535B25022543D
:1044080092540259F249624A456182806D713C08B2
:104418003EC0B707E5003EC23C083EC42326111043
:10442800232481102322911023170100231801004F
:1044380023190100231A0100231B010097E7FF1F1E
:1044480083D747AE99E3C167FD172316F10097E7B5
:10445800FF1F83D747AD81EB938741849C439C43DF
:10446800DC4783D7070017E4FF1F1304A4AB584C9D
:104478002317F10083574400484B2318F10005ED3A
:10448800979501009385C596178501001305056466
:10449800EF60D1701795010013058599EF601170D1
:1044A8002945EF60B1738320C11003248110832450
:1044B80041105161828097E7FF1F83C717A799E7CB
:1044C800EF20410C5C4C23AA0700F1BFFD1797E6CB
:1044D800FF1FA38CF6A403560701834704014C472A
:1044E8000A85230BF100EF20401C938741849C43ED
:1044F8000147814688430A866C00EF00D02BAA84C6
:1045080005C9979501009385A58E178501001305A8
:10451800E55BEF60B168A685179501001305059264
:10452800EF60D1672945EF60716B5C4CC84B49BFA0
:1045380097E7FF1F83C7779FEDDB1044854503C5C9
:104548008184EF20A13785B7411122C426C22E8469
:10455800AA84979501009385A58B178501001305FB
:10456800E55606C6EF609163A68517950100130509
:10457800A59CEF60B1622945EF6051665C4CDC4B4D
:1045880099CB10442244B240924403C5818491459A
:1045980041016F20A132B2402244924441018280FD
:1045A8005C4EDC4BA1C7B9C1411122C4178501007B
:1045B8001305C5512E84979501009385A58406C6D9
:1045C800EF60D15DA2851795010013052598EF606E
:1045D800F15C2945EF6091602244B24003C58184B3
:1045E80013064006914541016F20412D82804111FB
:1045F80022C417E4FF1F1304E4941C4C06C689C7A1
:10460800DC4399C34C4882975C4CC84BEF109177B8
:104618005C4CB240224423AA0700410182801387E0
:10462800118483470700850793F7F70F939687014F
:10463800E18663C70600A380F184034507008280F2
:10464800A3800184DDBF83574500638D070C0111EA
:104658004AC817E9FF1F1309E98C52C4032AC90184
:1046680006CE22CC03274A0126CA4EC6F15729EBAB
:104678001307D00DFD576365C7042A841305860008
:1046880042054181B284AE89EF109172232AAA00B3
:104698000325C9015C4995EF97850100938545730A
:1046A8001785010013058542EF60514F17950100EA
:1046B80013054584EF60914E2945EF603152DD576F
:1046C800F2406244D2444249B249224A3E850561D9
:1046D800828093874400B705CF002319F50093859E
:1046E800757D3105EF00E06C0325C9018345640041
:1046F8003105EF10707D0325C9012686CE85310569
:10470800EF10B07A7146A2854A85EF60D13D5044DA
:1047180001CA854503C58184EF20411A81474DB7F9
:10472800F531EDBFFD573E858280411122C417D473
:10473800FF1F1304247F5C4C06C6C84BEF1091641E
:104748005C4C2244B24023AA070003C581848545F6
:1047580041016F202129138741841C43BDCB41119E
:1047680026C2BA84D84306C622C439CF2300B5006E
:1047780058C123A4070023A2070097D7FF1F9387D8
:10478800677CDC4F2A84DC4B99C329558D3597D734
:10479800FF1F93872779DC4FDC4B91C37937894515
:1047A80003C58184EF200124914503C58184EF204E
:1047B80061239C4003A34701630803002285224428
:1047C800B240924441010283B240224492444101E2
:1047D800828082800111328506CE22CC26CA2E84A0
:1047E800EF10F078AA84978501009385E55C17851A
:1047F80001001305A52DEF60713A030784000356E5
:10480800640083554400A686178501001305C56812
:10481800EF60D1382945EF60713C97D7FF1F83C7F8
:10482800C772639797000145D93381450A852537B3
:10483800F2406244D244056182806D712324811064
:10484800232611102322911093F715002E8489CF67
:10485800EFF0DFBB134514008320C110032481103F
:10486800832441105161828093F725008DC341460E
:104878008145280897C0FF1FE780204E2555853BB6
:1048880028089305F00FC13D13452400F1B793F7AD
:1048980045000145F1D33C083EC0B707E5003EC2DC
:1048A8003C083EC423170100231801002319010006
:1048B800231A0100231B010097D7FF1F83D787689E
:1048C80099E3C167FD172316F10097D7FF1F83D718
:1048D800876781EB938741849C439C43DC4783D75C
:1048E800070017D7FF1F1307E7652317F100544F79
:1048F800835747002318F100DC4A9DE7978501009C
:104908009385C551178501001305451CEF601129D2
:10491800178501001305C551EF6051282945EF603F
:10492800F12B134544000DBF97D7FF1F83C7F761CD
:104938002555B5C7FD1717D6FF1FA308F66003D680
:10494800060183470701CC460A85230BF100EF10C7
:10495800D055938741849C4317D7FF1F1307875E61
:10496800979601009386060188430A866C00A12564
:10497800AA8445D9978501009385454A1785010082
:104988001305C514EF609121A6851785010013054D
:10499800E54AEF60B1202945EF6051242685EFF004
:1049A8001FC541B75C4D411106C688C317050000F5
:1049B8001305E5E823A2F184EF202121B2402384E6
:1049C800A184014541018280EFD28FCD2A84084518
:1049D8002E89B28909C900C1970500009385C5735E
:1049E8006105EF00C13281447D5AEF10E00363C3D3
:1049F800A4048144EF10400463C6A4049707002070
:104A08009387C7959C43DC47B307F94091872302F6
:104A1800F400638109048327C900B307F44095872C
:104A2800A302F4001C4C89C79C4799C3228582972E
:104A38006FD04FCA5C44139714008504BA9723902B
:104A4800470165B71C48139714008504BA9723904B
:104A580007004DB7832789000547B307F4409587BA
:104A6800A302F40083570400638EE7028DC309474D
:104A78006384E7040D47E397E7FA97970100938764
:104A8800E7A01CCC97970100938747A111A89787A7
:104A98000100938727671CCC978701009387876756
:104AA8005CC849B7978701009387C7521CCC978782
:104AB800010093872753EDB7979701009387C7A104
:104AC8001CCC97970100938727A2D9BF85E1EFD225
:104AD800CFBE004618448347940075839D8B6315A9
:104AE800F700EF00B01948C46FD06FBF8280EFD2D3
:104AF8002FBB13893500C16442094111AA890144B9
:104B0800F11413590901054A2EC6EF00F071B24598
:104B18006346A400014541016FD0CFBB83A70900BC
:104B280013171400BA9783D707006388B7006394F4
:104B3800970063742A010504C1BF0545E9BFEFD298
:104B48004FB5AA892E89328BB6843A8ABE8AEF80FD
:104B5800E0674DC12685EF1030318D4763E5A7002A
:104B68007D556FD08FB683DB4400EF00F0712A8447
:104B7800EF00D0729307740031443305850263C592
:104B8800A702EF007070EF0030702A84EF001071F8
:104B98009307740031443305850263CDA702EF0003
:104BA800B06E9307450019A8EF00506F33058502D2
:104BB8001307F0179307C017E357A7FC2D55E3C257
:104BC80077FB63000B02D6865286A6854A85EFF0EE
:104BD800A01541BFEF00906C330585029307C5FF10
:104BE800F1BF832749001385C90083D52700013702
:104BF80079F9BDB76955B5B797F7FF1F2392A7761F
:104C080097F7FF1F93878775904381470C463307B3
:104C1800F500420741836393B70082805446139896
:104C280047008507C2962390E600D5B797F7FF1F80
:104C38009387C7729C4303C58700828017F5FF1FBF
:104C4800035505728280EFD24FA7C1671387D7FF3C
:104C58006307E5026368A700F117630EF5000145D5
:104C68006FD0EFA71387E7FF630EE500FD171D8DD3
:104C780013351500F5B7EF40C0617D15D5BFEF407E
:104C8800403FE5BFEF40A03DCDBFEFD20FA341119C
:104C9800AA8401442EC6EF00305AB2456346A400E8
:104CA800014541016FD0AFA39C48131514003E95F0
:104CB80083570500E387B7FE0504E9BF034855009D
:104CC800814693F7F60F63E5070181473E858280A9
:104CD800584593975600BA9703D727006316B7002D
:104CE80003D70700E304C7FE8506E1BF83464500F6
:104CF80001479377F70F63E4D700814711A81C4554
:104D0800131657000507B29703D60700E313B6FE3C
:104D18003E858280EFD2CF9893170501C18797FA15
:104D2800FF1F938AAA636353F00883A70A00C0474A
:104D38009C4703570400198D420541816366F500BD
:104D4800014422856FD00F9912052A94DDBFDC47F4
:104D580013944900014A3E94834744006341FA0290
:104D6800014A834754006346FA028509C20993D968
:104D7800090183A70A009847E3EBE9FCD1B71C4473
:104D880013195A00A6853E994A85013709ED050A87
:104D9800E1B75C4413195A00A6853E994A85F53552
:104DA80019E1050A7DBFE30209FC61BFAA848149B4
:104DB800C9B7EFD28F901C452A8481E79307C500B5
:104DC8001CC51C44231204001CC09307F00F63E9A0
:104DD800B70093F5F50F2285EF10100F6FD02F90C5
:104DE80093940501C167C18063F7F500A685228504
:104DF800EF103011E5B7C18193F5F50F2285EF105B
:104E0800B00CA6852285EF10700DC9BF97F7FF1F5C
:104E18009387C754884382801C4599C797F7FF1F1B
:104E280023AEA752014582807D55828097F7FF1FE8
:104E38009387C752984383474500484792073E9552
:104E48008280EFD28F87617100451C183EC6B70774
:104E580080013EC81C183ECA8357440002CE02D0C7
:104E680002CC231EF100834784002A8902D2230141
:104E7800F1023C083ED402D6553F8357050023165D
:104E8800F102EF4080102307A1025C400355640043
:104E9800F18313F717008347F10252055181F99BFB
:104EA800D98FA307F102EFE0905939C5AA840355B9
:104EB8000500EF80803283D704002AD26800231CC3
:104EC800F10083D72400231DF1001C4803D64700B6
:104ED8008C43EF10807D8347B400CA861786010093
:104EE8001306C6088117A305F4006C004810EFE00C
:104EF800B0635D616FC0BFFE2155E5BF1C45B1CFF2
:104F080003C5A700894613576500630BD7028D4672
:104F1800630ED70285466300D702130740063305A0
:104F2800E50203C7B700418B15CB83C7B700BD8B1C
:104F38003355F54082801375F5031307803EC5B7D6
:104F480009671375F50313070771D1BF37270900E0
:104F58001375F5031307077CD9B701458280EFC2A3
:104F6800DFF503A98500630409048347B900AE840B
:104F780093F7070E91CF03459900930520030D8100
:104F88000505B305B50288446105EFF0306405A056
:104F98002E85AD372A8401CDD5218325C900B307D5
:104FA800B54063F887002E94B305A440E9FD6FC0AF
:104FB8001FF38545C9BFEFC25FF02A8403D50500FA
:104FC800011132C636C43AC22EC002CA02CC02CE81
:104FD800EF80A02082452ACA22852ECC813D035726
:104FE8000500231EE100EF30507AA2463246924770
:104FF800230FA10036874C08B28622850146EFF0C0
:105008001FB405616FC0BFEDEFC23FEB61711C18A3
:105018003EC6B70780013EC81C183ECA3C0800457A
:105028003ED4AA8402CC02CE02D002D202D6FD3BE4
:105038008357050035592316F102EF301075230701
:10504800A10209C48357440091E721594A855D614B
:105058006FC0FFE80355640052055181EFE0303E10
:105068002A8965D58347B40093F7070E89C71305C6
:105078008401EFF0305783574400231EF100834723
:1050880084002301F1025C4003550900D98313F71A
:10509800070883471102231CA10093F7F707D98F4C
:1050A800A300F10283572900231DF1005C40F1831E
:1050B80013F717008347F102F99BD98FA307F10271
:1050C800EF80A0112AD251D183479400680013972A
:1050D80057008347B400FD8BD98FA305F4001C4803
:1050E80003D647008C43EF10405CA6871787010062
:1050F8001307C7E7740005464C102685EFF03FA458
:105108002A8929D58347B400A685FD8BA305F40019
:10511800B9352DBFEFC27FDA832485FE2A84411179
:105128002685EFF0BFDD834734FF93F7070E9DC355
:105138002AC62685EFF0FFD019C9834734FFB24548
:10514800FD8BA309F4FE81C52285EFF030484101AB
:105158006FC0FFD86DDD8327C4FF2685829765F968
:10516800834734FF93F7070E81C72285EFF09047F6
:10517800032584FE513DE1BFEFC23FD19C4141115F
:105188002A8903C7070089472E8493566700638CD2
:10519800F6020D466382C6049307F0076302F7021E
:1051A8002E85EF10C05CAA848149C16B130C49009D
:1051B80097F7FF1F9387871A9C43984763ECE90288
:1051C80041016FC05FD003D745008547E3FAE7FE8A
:1051D8002E85EF10A05DC1BF03D74500E3F2E7FEBF
:1051E8002E85EF10C058AA842285EF10A059C2045A
:1051F800C98C5DBFDC470355A900139A49003E9A44
:1052080093170501C187635DF00083570A00639512
:10521800A70263E574038327CA00034D5A001DA043
:10522800A1672167A98F1307F7EFE374F7FE63956A
:105238000900EFF05FA171FD85099DBF83278A00F2
:10524800034D4A00835DA90003576900216A138B47
:10525800C7003AC6814A33CA4D01631E5D0197F7FC
:10526800FF1F938727109C43E1DBA2866286814556
:1052780026858297D1B7A1679387F7EF930C4BFFE9
:1052880063F04703B2455A85EFF07F8619CD0327AF
:105298008B00104719CA10436380C4023107D5BF79
:1052A800EE856685EFF07F9E71FD93861A0093FA6E
:1052B800F60F130B0B0255B7835644005C43E3ED1E
:1052C800F6F622853AC6EF108039A1679387D7048E
:1052D8002A8A035D4400324763E897008347D90070
:1052E80093E707F8A306F9001C4766852286E2853E
:1052F8008297C1670844FD17337AFA00529508C0AF
:105308002312A40115BF97F7FF1F9387270598431A
:10531800814715C31447814763FFD500939745001C
:105328004C47BE9519C903C7550081476375E60008
:10533800DC451606B2973E85828003C74500814743
:10534800E37BE6FE16069C45F5B7EFC27FB5AA8952
:105358002E8A814497FAFF1F938A4A0083A70A007E
:10536800984763E4E4006FC0FFB6DC471394440039
:1053780001493E9413BB140083474400634BF90072
:10538800014913BB140083475400634FF900850497
:10539800F1B70844931759005287DA860146A28567
:1053A8003E9582990509C9BF484493175900528709
:1053B800DA860546A2853E9582990509E9B7EFC2C6
:1053C800DFAF814517F5FFFF1305456097F7FF1F0E
:1053D800239807F89D3F6FC09FB097F7FF1F9387EB
:1053E800E7F79C4399CBEFC25FAD814517F5FFFF07
:1053F8001305C55D993F6FC09FAE8280EFC25FAA5B
:1054080041112315E1002E89B284B6893A86814676
:105418000147ED452A84EF1011692AC61DCD0356B0
:10542800A100CE85EF50316CCA852285EF10117C22
:10543800058915C1228501462C0023149100EF200F
:10544800E1112A8409C5ED452800EF103174228541
:1054580041016FC03FA84944FDB76554CDBF5C41C9
:10546800FD175CC18280EFC25FA5EF10C13C954774
:105478003305F50281450D816FC07FA6EFC2FFA3FA
:10548800EF10613B95473305F5020D816FC03FA5CD
:10549800EFC2BFA203550500EF10313D6FC03FA416
:1054A800EFC2BFA1035505003287AE8617D6FF1F8E
:1054B800035626B097F5FF1F938505EB81376FC01C
:1054C8001FA2EFC29F9FEF5001376FC05FA1EFC2CD
:1054D800DF9E97F5FF1F938525E9EF20010F014512
:1054E8006FC0FF9FEFC27F9D814517D5FF1F0355F2
:1054F80045A8EF10D1796FC09F9EEFC21F9C97F50A
:10550800FF1F938565E7EF20410C01456FC03F9D64
:10551800EFC2BF9A814517D5FF1F035585ABEF1022
:1055280011776FC0DF9BEFC25F992E85EF604079DE
:10553800EF60902E6FC0BF9AEFC23F98EF6070384F
:105548006FC0FF995C49E1175CC95CC583572501A9
:10555800A1072319F50083570501A1072318F500B2
:105568008280F1473305F50297F7FF1F9387C7E25B
:105578009C433E9582808D476317F60603D7460005
:10558800854763F2E706EFC25F93368536842E8936
:10559800EF10E01D39C18357440093140501C18001
:1055A80063ED97022285EF10801CFD1423129400EE
:1055B8009307A002630EF5009307B0026301F5029A
:1055C80093079002631BF5002285EFD0E02431A0F9
:1055D8000146CA852285EF8000306FC05F90228522
:1055E800EF00D059DDBF828097F6FF1F938606DB58
:1055F8009C42014599CF9843D44217F6FF1F232FA9
:10560800E6D86396D70097F6FF1F23ABE6D8138535
:10561800C7FE8280EFC27F8AC126714433058502A6
:105628009145EF70700301E565556FC05F8B97F783
:10563800FF1F23A1A7D64D26330585029145EF709C
:10564800B0017DD197F7FF1F23A8A7D4712697F73C
:10565800FF1F239BA7D2492697F7FF1F2397A7D29F
:10566800978701009387C79517F7FF1F2322F7D263
:1056780097070000938747ED17F7FF1F2328F7D0F8
:10568800014565B7EFC27F83AA8517F5FF1F13058C
:10569800A5CFEF10A0216FC09F84EFC21F82DD3716
:1056A800EF10402297F7FF1F938747CF9C4381CF86
:1056B8001387C7FE09CB83D5C7FF17F5FF1F13054F
:1056C80065CEEFF0A0706FC09F81EFC20FFFEFF0C3
:1056D800BFF111C9834785002A8493F7070491E72E
:1056E8000355E5005D3F6FC08FFF8347C5009304F6
:1056F800450117F9FF1F130969CA85E383270900C4
:105708005CC997F7FF1F23AB97C883274900E1FFC0
:1057180097F7FF1F23A697C8F9B7FD172306F500CB
:105728006105EF60901F8307840063C907048347FE
:10573800840093E707F82304F400EF10E10A420518
:10574800A94741813375F5028347840093F707FC25
:10575800C98F2304F4008347D4003E951C402318C6
:10576800A40089CF984319CB8347C4005040814592
:1057780085073305F5024205418102978327090011
:105788005CC897F7FF1F23AB97C08327490089E7B9
:1057980097F7FF1F23A697C08347C400A9D783554F
:1057A800040117F5FF1F1305E5BFEFF0206225BFC1
:1057B800EFC2AFF097F7FF1F938707E49C470144B8
:1057C8008583858B81EFAE84B2853A86EF10E0142D
:1057D8002A8409C5EF10E00B829408CC22856FC09B
:1057E8000FF0EFC2EFEB41112E8932C6AA89692C5E
:1057F800324713060502CA86970500009385A5D689
:1058080017F5FF1F130545B865372A8429CD93047A
:10581800C5004D261946AA852685EF0010698545DD
:105828002685EF00F06517750100130525774E955D
:10583800834505002685EF0030695C48314681457F
:10584800A1075CC85CC483572401E1172319F4003D
:1058580083570401E1172318F4001C4C3E85EFC060
:10586800CFE8A3042501228541016FC0AFE6EFC24E
:10587800CFE44111AA842EC632C4EF10E003004DD4
:10588800B2452246834784000CC050C093F7F70303
:1058980093E707042304F400231804002685EF0087
:1058A800507F83479400A9462317A40013D73700D5
:1058B80005073307D7029D8B85072306F400A30647
:1058C800E40083C70401D8488507230FF7FE17F7BC
:1058D800FF1F1307A7AC5843232A0400930744016A
:1058E8001DEB17F7FF1F232DF7AA17F7FF1F232715
:1058F800F7AA17F4FF1F1304E4AA2285EFF0C042A9
:105908001C44858B5D8D09E581452285EFF0004CAF
:1059180041016FC0CFDC1CC317F7FF1F2322F7A874
:10592800C9BFEFC28FD997050000938505C501450A
:10593800EFF07FBF01456FC08FDAEFC20FD8EFF0ED
:10594800BFBF6FC0CFD98347C500A1E7EFC2EFD66D
:105958002A840355E500EFF0FFD215C98347840078
:1059680093F7F7FB2304F4001C4091C7DC4381C77D
:105978004C4001458297EFF03FC717F5FF1F13050D
:1059880065A2EFF020460355E400EFF01FD16FC089
:105998000FD58280EFC26FD297F7FF1F938707A0BA
:1059A800970500009385A5D217F5FF1F1305859F5E
:1059B80023A0070023A20700EFF060356FC02FD2A5
:1059C8001C4D91CBDC4381CBEFC22FCF8345070021
:1059D80082976FC0CFD0828097F7FF1F9387C79EAB
:1059E8009C4303C50700828097F7FF1F9387C79DD5
:1059F8009C4303C51700828097F7FF1F9387C79CB6
:105A08009C4303C52700828097F7FF1F9387C79B96
:105A18009C4303C54700828097F7FF1F9387C79A67
:105A28009C4303C53700828097F7FF1F9387C79968
:105A38009C4303C55700828097F7FF1F9387C79839
:105A48009C4303C56700828097F7FF1F9387C7971A
:105A58009C4303C57700828097F7FF1F9387C796FB
:105A68009C4303C58700828097F7FF1F9387C795DC
:105A78009C4303C59700828097F7FF1F9387C794BD
:105A88009C4303C5A700828097F7FF1F9387C7939E
:105A98009C4303C5B70011E11D45828097F7FF1F9E
:105AA800938787929C4303C5C700828097F7FF1F9F
:105AB800938787919C4303C5D700828097F7FF1F80
:105AC800938787909C4303C5E700828097F7FF1F61
