:020000024000BC
:10E000006FF071440000000000180118002801287A
:10E0100002280328002901290229032904290529A6
:10E02000062907290829002A012A022A032A042A84
:10E03000052AA62AA0E30600C0FD04006A0200200B
:10E04000B40200202602002014020020DC0100207F
:10E0500018FF040044FF04008A0005009A0205002E
:10E060004203050034FC040058FB0400CAFB040012
:10E0700084FB040034080500FC030020EEFE0400CD
:10E08000F0040500769A06006E9C0600E69C0600E9
:10E090004A6006009260060048160600680B0600FB
:10E0A00054940600260505001C68060072A70500AA
:10E0B00000A8050058A80500F81005004411050047
:10E0C000AE0F05009C630500565E0500326D05002D
:10E0D00002710500AE7405008E5005002C5005003D
:10E0E00014540500DA500500025005008650050062
:10E0F000B44F05005E510500B6510500665105009C
:10E100006A51050004520500BE510500F05105009A
:10E110000A5705000E5705005A51050062510500C7
:10E12000025205000C570500B25205007C5805004C
:10E13000F682050074830500B283050000660500C1
:10E140001866050054660500664A0500844B050004
:10E15000FA4B0500702F0500102A050084400500C9
:10E16000902A0500E83B0500DAC406005CBD060005
:10E1700038C2060046D806002CD70600BCDA0600D6
:10E18000ACDA0600B4DA0600F4DA060008AF0600DE
:10E19000000000000000000000000000000000007F
:10E1A00064DB060026D50600BCD406000000000093
:10E1B000000000000000000000000000000000005F
:10E1C000747C0600326D06005A710600906E0600DF
:10E1D0005C780600F6940600000000003CAF0600E4
:10E1E000FC090500BA610600FC670600F468060039
:10E1F000000000000000000000000000FC690500B5
:10E20000A67B0600000000000000000000000000E7
:10E21000E66C06000006002082620600E0DA0600D6
:10E220000000000000000000B0DA06004602050011
:10E2300052670500E8DA06006E7E0600D47F06000D
:10E24000508006007EC20600E4DA0600ECDA060022
:10E25000F40A0600F0DA06001C0F0020C4130020A8
:10E2600000000000000000000000000000000000AE
:10E27000000000000000000000000000000000009E
:10E280006373B60082801C419105110523AEF5FE33
:10E29000C5BFB727002037270020938707911307B2
:10E2A00007E66373F700828023A007009107D5BFBC
:10E2B0005DCDAA870145D5CD8D07C207C183F19BEE
:10E2C000C207C18313074003636CF702372700209E
:10E2D0000325879137270020832607916397A6029D
:10E2E00037270020032787AC014541C74111C207EA
:10E2F00006C60545DD8D0297B24001454101828089
:10E300003727002003254791F1B70357650031EF08
:10E3100003574500636BF704B72600203306F74028
:10E320002148938646AD6378C8028328050003D848
:10E330006600138687001D8F2A9661172312E60058
:10E34000232016012313060010C12312F500130722
:10E3500088FF2393E6002313B50083D566002105CB
:10E36000B387F5402393F6008280084185BF0145BD
:10E370008280828009CDB727002003A38791B72729
:10E38000002083A8079181469A8763E31701828062
:10E3900003A807006369F50A6367A80A1387870063
:10E3A000E367E5FE03D66700216705076319E6000A
:10E3B000372600200347469C05072302E69C3726A4
:10E3C0000020130546AD83D547000357650023930E
:10E3D0000700130646AD2E97420741832313E5003D
:10E3E0006387670237250020032545916301F50205
:10E3F00003D5660009ED83D7460023A00601210757
:10E40000BE95A1052392B6002313E600B687984374
:10E41000E30F17F7B726002083A64691E309D7F646
:10E4200083566700ADF683D64700835547001843EF
:10E43000A106AE962392D70098C383576600A10722
:10E440002313F6008280BE86C28781B719CD91CD95
:10E4500009CE81473387F500834607003307F5006F
:10E4600085072300D700E317F6FE828019C991C9FA
:10E4700009CA910583A7C5FF11057D16232EF5FE58
:10E48000C5BF828001C919C62A960505A30FB5FE2E
:10E49000E31DA6FE828081473307F50003070700CE
:10E4A00019E33E8582808507C5BF01112E8626CAE5
:10E4B000AA84131506019305F004418122CC06CEEF
:10E4C00032C6FD332A8401C53246A68541372285EE
:10E4D000F2406244D24405618280854715C18DC1F6
:10E4E00005C28147B306F5003387F50083C60600F1
:10E4F000034707006398E6008507E315F6FE8547A6
:10E500003E8582808147EDBF9307F6FFBE952A9630
:10E510006313C5008280FD1583C715000505A30F91
:10E52000F5FEFDB7AA87014581CF09CE3E96850746
:10E5300003C7F7FF6317B700E39BC7FE054582805B
:10E54000828001458280797126D2B724002022D4AE
:10E5500003A4449306D64AD04ECE52CC56CA5AC8CB
:10E560005EC662C455C8372A002037290020B72963
:10E57000002093844493814BB72A002037CBC901F4
:10E58000130A8AA9130949AD938989B183572400D5
:10E5900091EF5C4463990B009CC0032CC40022855E
:10E5A000D13B6284B9A823A6FB00C5BF83A7CA924A
:10E5B00082971C443307F5406376F50003A74900B2
:10E5C0001D8F2A979306FB3763EBE6062328090085
:10E5D0008355240003450400970005E0E78000BB55
:10E5E0005C405844B1C70C4403A64900AE97BE86B0
:10E5F00063E4B70063E4C700B386C74014C4A28BCA
:10E600003A8449F4B7270020938747AD984B894651
:10E6100063FBE604791798CBB25022549254025906
:10E62000F249624AD24A424BB24B224C4561828047
:10E6300063940B0098C095B723A6EB00B9BF0327DE
:10E640004A0219CB63EDA7003385A7408327090150
:10E650006374F5002328A900A28B40445DB703A78B
:10E660004900BA97D5B723A807007DB701114AC85A
:10E67000372900208327C9AF06CE22CC26CA4EC632
:10E6800052C41309C9AF81C7829723200900B72458
:10E690000020938704DA83C75700938404DA858BBC
:10E6A0008DC3A382040083C774001547637BF70002
:10E6B000EF00704283C77400F5178A07CA979C431E
:10E6C00082978327890091C382973724002093077C
:10E6D00044AD03C61700B729002003A7099213040D
:10E6E00044AD938909928347040093961700BA9624
:10E6F00083D60600C9CE8347040063E2C70A832796
:10E700000900230004006390071083C7940081CFA1
:10E7100083C7740093F7F70F99E7A3840400976009
:10E7200006E0E780E008B727002083A7C792E1CF83
:10E73000B727002083A7C7B11CC83135B7270020F1
:10E74000938787A9D85361C383C757011848636C5F
:10E75000F70A83C7740015476367F70AB7270020D5
:10E760009387C7DD83C7C700918BD1EF8346140021
:10E7700003A6090063C1D70A6244F240D244424969
:10E78000B249224A056117E306E0670023208507A6
:10E7900093F7F70F2300F400E3E7C7F4A9BF860758
:10E7A0003E97835507002310070003450400B72751
:10E7B000002083A7879313172500372A0020BA97D4
:10E7C0009C43130A8A9223100A00829783570A00F7
:10E7D0000347040093C7F7FF7D8D9317170003A726
:10E7E00009003E97835707005D8D2310A7008347DC
:10E7F000040081C785072300F40003470400834712
:10E800001400E37EF7EEF2406244D2444249B2493A
:10E81000224A056182801397170032970357070039
:10E820007DF3850781BFAD6737C70040BD0723264D
:10E83000F7200F100000B7270020938747ADC84F7F
:10E8400083278726BD66BD0693C7F7FF99836A05B0
:10E850002326D7205D8D82804111B7170040985F35
:10E860003AC6945F3247E39CE6FE3245410182801E
:10E870001305F00F828003278511630007124111F1
:10E8800022C406C68347C5008345E5042A8493F75E
:10E89000C70F2306F500834697000356C70013955C
:10E8A0008601618563F1C508635A05060345870043
:10E8B00093F6F607A304D700054693E627006314F2
:10E8C000C50093E617002306D4005C4389075CC3A8
:10E8D000A30AB400032504112E864C430905BD3656
:10E8E0008327841103465401D44303D7C700B2964B
:10E8F000118FD4C32396E7008947A30DF400B727EF
:10E9000000200347640383C7A7AA6378F7048347FB
:10E91000C40093E707012306F40081A093E71700E2
:10E920002306F40075B79376F60F635D0502034581
:10E930008700854513E627006314B50013E617002A
:10E940002306C400A30AD400A30407008547A30D2F
:10E95000F400832784119C43DDF3B2402244014537
:10E960004101828093E717002306F400A30AD40034
:10E97000A3040700032504114C430905C13C832768
:10E98000841103465401D44303D7C700B296118FB4
:10E99000D4C32396E7008D475DBF05458280B72726
:10E9A000002083A7C79E411122C406C6858B2A84F6
:10E9B000DDEB4165130525F5972006E0E780400073
:10E9C0005DC18347A5002315F50083270412B5E731
:10E9D0002320A4122322A41285472311F404232008
:10E9E00005008347640154412316F5000347D40012
:10E9F0002304E5000547A304E5003727002003278B
:10EA000087DB1385170215811C437D151375F50FE0
:10EA10009CC25C43DCC21C479CC65C47DCC61C4BEA
:10EA20009CCA5C4BDCCA1C4F9CCE5C4FDCCE19CD23
:10EA30009386060213070702C1BF8327441288C3C7
:10EA4000835724042322A412850741BFB72700203F
:10EA5000938707C803D7870005072394E700B240D0
:10EA60002244410182808347C400230904000545F4
:10EA700093C747002306F400DDB78347850193F76A
:10EA8000E70FDDEB83479501C5EB03462501834680
:10EA9000C50009CA37270020834565030347B7AA85
:10EAA00063E7E50013F7060149CB014709C6C18AB0
:10EAB0000357E51881C68356251936973DCFB727EA
:10EAC000002003D507B21307C71237460F00B3352E
:10EAD000A702411113060624814622C426C206C697
:10EAE0007D543305A70297D006E0E7800044B7279E
:10EAF000002083C717ABB384A700B727002003A764
:10EB000007D18327070963F387003E84184375FB09
:10EB1000B727002083A7C792829781476364A40028
:10EB2000B307A440B2402244B3B7970093C717007D
:10EB300092443E854101828081473E858280B7278D
:10EB4000002003A7C7A07C53FDFF8280797126D2E5
:10EB500006D622D44AD04ECE52CC56CA5AC85EC629
:10EB60008347550303447513AA843E941374F40F2A
:10EB70009307400263F687001304B4FD1374F40F87
:10EB800003AA841383AAC413A38B841222865285FA
:10EB9000D68597D006E0E7808036058915E503CB5A
:10EBA000D41201498149337B6403930B50024A8696
:10EBB0005285D68597D006E0E7806034058915C573
:10EBC000639169031374F90F238B8412B25022549A
:10EBD00092540259F249624AD24A424BB24B4561C1
:10EBE00082808509E20993D989410509E31179FDFC
:10EBF000E1BF8327850903560504797193D6070180
:10EC0000BD8EC206C182358E13577640935756404B
:10EC1000898B058B5D8F93573640918B5D8F935712
:10EC20001640A18B5D8F93171600C18B5D8F9317D4
:10EC3000360093F707025D8F9317560093558600B1
:10EC400093F707041E065D8F1376F60F518F93D747
:10EC5000554013D63540118A898BD18F13D6754014
:10EC6000D18F13D61540218AD18F13961500418A72
:10EC7000D18F1396350013760602D18F1396550067
:10EC8000137606049E05D18F93F5F50FCD8FA2075D
:10EC900045465D8F3307C70222D42A8426D252CC40
:10ECA00056CA032A8413832AC4135AC806D6369731
:10ECB0004207418393577740135557400989858B05
:10ECC000C98F135537401189C98F135517402189B2
:10ECD000C98F131517004189C98F13153700137594
:10ECE0000502C98F13155700935587001375050446
:10ECF0001E07C98F1377F70FD98F13D5354013D758
:10ED000055401189098B498F13D57540498F13D50B
:10ED100015402189498F139515004189498F139515
:10ED2000350013750502498F1395550013750504B9
:10ED30009E05498F93F5F50F4D8F2207D98FB38725
:10ED4000C7024AD04ECE5EC662C4B697C207C18320
:10ED500013D7774013D557400989058B498F13D5B1
:10ED600037401189498F13D517402189498F139551
:10ED700017004189498F1395370013750502498F94
:10ED80001395570093D58700137505049E07498F87
:10ED900093F7F70FD98F13D5354013D75540118905
:10EDA000098B498F13D57540498F13D5154021899B
:10EDB000498F139515004189498F139535001375B7
:10EDC0000502498F13955500137505049E05498F5B
:10EDD00093F5F50F4D8F2207D98FB387C70213061E
:10EDE00050025285D685B697BD8E93940601C18098
:10EDF00033F6C402137BF60F97D006E0E7802010AD
:10EE000005890DED8347D41201498149B3849702E6
:10EE1000130C5002C1804A865285D68597D006E0F1
:10EE2000E780E00D0589937BF90F11C563863403F4
:10EE3000850993F9F90F0509E31F89FD230B641375
:10EE4000B250225492540259F249624AD24A424B79
:10EE5000B24B224C456182805E8BCDB7797122D452
:10EE600006D683C735002E8423160100A307F100C0
:10EE700083C74500100802C02307F10083C755006F
:10EE80008A8502C2A306F10002C402C802CA02CCEB
:10EE900002CE81220347F10183470400014563103C
:10EEA000F7020347E1018347140001456319F700A6
:10EEB0000345D101834724001D8D13351500B25041
:10EEC0002254456182800111B727002022CC03A47F
:10EED00007D426CA4AC84EC606CEAA8413092500FE
:10EEE000854915C083C7140003473400858B63042C
:10EEF000F700405CFDB71946930544004A85EFF0E2
:10EF0000CFDDE31835FF2285F2406244D244424906
:10EF1000B249056182804111B727002022C403A4B1
:10EF200007D426C24AC006C693042500054901E855
:10EF30002285B24022449244024941018280A68542
:10EF40001305A402213FE30525FF405CCDB7411125
:10EF5000B727002022C403A407D426C24AC006C68D
:10EF600093042500054901E82285B24022449244D9
:10EF7000024941018280A6851305A401C535E30538
:10EF800025FF405CCDB70111B727002022CC03A498
:10EF900087D326CA06CE2AC42EC6854419E4014565
:10EFA000F2406244D2440561828083479100034766
:10EFB0001400858B6304F7000044CDB71946930510
:10EFC000A10013052400EFF04FD1E31795FE05458E
:10EFD000C1BFB72600209387C69F9843130800102F
:10EFE0002320070101000100010001009C439386DA
:10EFF000C69F23A0070003471500034825002207EA
:10F0000042084297034805004297034835006208CA
:10F01000429798D7034755000348650022074208E6
:10F02000429703484500429703487500620842979B
:10F03000D8D7034795000348A50022074208429706
:10F040000348850042970348B5006208429798DB61
:10F050000347D5000348E5002207420842970348CA
:10F06000C5000345F500429762052A97D8DB03C720
:10F07000150003C52500220742052A9703C5050090
:10F080002A9703C5350062052A9798CF03C7550014
:10F0900003C56500220742052A9703C545002A9744
:10F0A00003C5750062052A97D8CF03C7950003C52D
:10F0B000A500220742052A9703C585002A9703C5A4
:10F0C000B50062052A9798D303C7D50003C5E500AC
:10F0D000220742052A9703C5C50083C5F5002A9774
:10F0E000E2052E97D8D3D843759BD8C3D84313676E
:10F0F0001700D8C398431367170098C398425C431E
:10F10000858BD9E31C4F01452300F6009C429C4FA0
:10F11000A183A300F6009C429C4FC1832301F6000B
:10F120009C429C4FE183A301F6009C42D84F2302EE
:10F13000E600D84F2183A302E600D84F4183230382
:10F14000E600D84F6183A303E60098532304E6004A
:10F1500098532183A304E600985341832305E600D6
:10F1600098536183A305E600D8532306E600D853DD
:10F170002183A306E600D85341832307E600DC532E
:10F18000E183A307F600828001008DBFB72600202F
:10F1900003A706A001114AC81C5F4EC606CE99837C
:10F1A00022CC26CA858B938906A037290020ADCFB3
:10F1B0001C5F37240020930404DA93F7F7F91CDF6F
:10F1C000930704DA83C76700130700086319F70081
:10F1D0008327C99F9C4393F707042383F400834745
:10F1E00004DA93F7070489CFB727002083A7C792D3
:10F1F000829788C8834704DA93F7F70B2300F4DA81
:10F2000083C7440093F7070485E38547A382F4008E
:10F21000B727002083A7C7A0096798C7130700FC7A
:10F220002382E400D844F8D383A70900985F1183B0
:10F23000058B19CB985F85463D9B98DF37270020CB
:10F24000130707DA2302D700985F1D83058B01CFD0
:10F25000985F1377F7F798DFB7270020938707DACF
:10F2600005472382E7008327C99FD8430583058B81
:10F2700019C7D843759BD8C3D843799BD8C3F240EC
:10F280006244D2444249B24905618280397106DE46
:10F2900016DC1ADA1ED82AD62ED432D236D03ACE7E
:10F2A0003ECC42CA46C872C676C47AC27EC0F93D18
:10F2B000F250E2525253C2533255A2551256825660
:10F2C0007247E2475248C248324EA24E124F824F16
:10F2D000216173002030B727002083A6C7A0B7277D
:10F2E0000020938707DA03C70700058B11C7238225
:10F2F0000700A3820700828003C71700058B65FB08
:10F30000F85275F303C75700EDB7372800200327DD
:10F3100008A01C5F9583858BD1E709C61C5BBD8364
:10F320002300F60085CA832708A0985B46079357F9
:10F3300067016356070093E707C0C207C1830397BD
:10F340000600C207C18709C7BA970947B3C7E702D2
:10F350002390F60037270020130707DA95C9834763
:10F3600015009DC70346670093869700894713766B
:10F3700006041DC63695834605000546994793F554
:10F38000F606639FC500E206E186B94763CA060038
:10F39000832708A09C5FED838D8BA305F700814731
:10F3A0003E8582808547EDBF411122C406C63724C1
:10F3B000002026C20327C4A02DE9AE877453FDFEAA
:10F3C000B7240020938404DA3E85B28523810400AB
:10F3D000975006E0E7806021B727002083A707A0A9
:10F3E000B70680009843558F98C3D857719BD8D7DC
:10F3F0008327C4A0A3820400A3800400094798C304
:10F400008326C4A0B7270020938707DA03C7270005
:10F41000058B19E703C73700058B35CF238207001B
:10F42000B24022449244410182808D47631FF5001F
:10F43000B727002083A707A0B70680009843558F01
:10F4400098C3D857719BD8D765BF8547E31AF5FA9B
:10F450005447F977FD17F58F5CC70F10000003279D
:10F46000C4A08967130600F81CC7B727002093873C
:10F4700007DA2382C700B727002083A707A09C4391
:10F48000B1838D8B91E7930760197CD354C78DBFEF
:10F490009307E01BDDBFF85235FB59B75D71A2C47D
:10F4A000A6C22A84130680022800AE8493051008A1
:10F4B00086C6CAC04EDE52DCEFE0DFFC3545975011
:10F4C00006E0E780003D37230020832703A09376E2
:10F4D000F41F372E002023A40700984BB72E0020DE
:10F4E000370FFCFF1367F70398CBF84F130510F89D
:10F4F000B7020400137707E0558FF8CF9843F576ED
:10F50000FD16758F98C39843B70633009303802583
:10F510001377F7E798C3984311497D1F1377F7E7EF
:10F520001367071098C303274EA18549930F8002E4
:10F530001C47D58F1CC783A7CEA01307900D34009E
:10F54000B8CB014793553700A69583C705001376BE
:10F550007700B3D7C740858BE1C3832703A08328F7
:10F560004EA1239C07042390070603A8C802137822
:10F57000D8FF23A6080383A807001378F70793F89A
:10F5800008F833E8080123A0070103A847023368FD
:10F59000580023A2070383A8CEA0014823A278061F
:10F5A00003DA07066307480303A80703038A060074
:10F5B0001358F80062081358884163580A0103A8D9
:10F5C00007031358F8002380060103D807061378B1
:10F5D000F80F03AA480663060A0003DA8705E37FEB
:10F5E00049FB03A847023378E80123A20703838776
:10F5F0000600635CF40003C805003396C900134697
:10F60000F6FF337606012380C5003E8663D3A7004C
:10F610002A8613158601618505071377F70F85067E
:10F62000E312F7F3B640264496440649F259625A6B
:10F6300061618280372600208327C6A01306C6A0FA
:10F64000D8479316170163D20602984793161701FD
:10F6500063DD06007D57B8D737270020130747AD75
:10F66000544F850654CF116798C798470D83058B73
:10F6700015CB37270020130707DA8346270093E6C8
:10F6800016002301D700930600F82302D700214774
:10F6900098C737270020832607A0D856719B136789
:10F6A0001700D8D69847058B15C7372700201307B2
:10F6B00007DA8346170093E61600A300D700054734
:10F6C00098C737270020832607A0D856719B136759
:10F6D0001700D8D698470983058B09E79847058313
:10F6E000058B39CB944737270020372500208982A6
:10F6F000858AF5CE832605A09442B1828D8AEDE6F7
:10F70000AC4B930607DA944E93F5050283C61600B8
:10F71000D5C5E1EA93067006D4CF834607DA93E6AF
:10F7200016002300D7DA114798C7032705A05C57B6
:10F73000F19B93E717005CD718421C47939637015B
:10F7400063D40602B7270020938607C803C60607BE
:10F75000938707C8418A55C683C7060793E7070200
:10F760002388F60685671CC71C479396270163D13B
:10F770000602B7270020938707DA83C64700E20610
:10F78000E18663D5060085462382D70089671CC7BA
:10F790001C479396070163D20602B7270020938780
:10F7A00007C883C61707858AADCE83C6170793E6B9
:10F7B0002600A388D706A1671CC78280A1DE8545E5
:10F7C0006395B6009306B00681BF89456395B60080
:10F7D0009306F00691B78D456395B6009306300702
:10F7E00025BF930650070DBF9306600735B7130773
:10F7F00007DA8346370093E61600A301D7000947CE
:10F8000025B783C607070946BD8A6388C60083C635
:10F8100007070D46BD8AE397C6F491462388D706AD
:10F8200091B783C61707918AD9D683C6170793E67F
:10F83000860041B7397106DE16DC1ADA1ED82AD6E0
:10F840002ED432D236D03ACE3ECC42CA46C872C648
:10F8500076C47AC27EC0F93BF250E2525253C25390
:10F860003255A255125682567247E2475248C24854
:10F87000324EA24E124F824F216173002030372743
:10F880000020B72600201386C6DB1307C7DD834799
:10F89000D7008345B601484AAE97FD8BB355F500B6
:10F8A000A300F600A306F700858995E90347170131
:10F8B000814613080002B3F7E7020147B355E5009C
:10F8C00085899378F70F89C96395D700A30016013E
:10F8D0008280850693F6F60F0507E31107FF828005
:10F8E000B7270020938707DA83C7570093F7F70FEE
:10F8F000D1EBB727002083A7C792411122C44AC089
:10F9000006C626C28297372900209307C9DD8047A3
:10F910001309C9DD6302A40663688504018DB72459
:10F9200000209387C4DB83C7A70113545500938439
:10F93000C4DB6363F404A13783C7A40103278900F0
:10F940009396570036971D8C2324E900E375F4FE47
:10F95000224403C51400B24092440249814541014A
:10F96000175306E06700A33BB727002083A7C7B162
:10F9700033848740229565B7B240224492440249BD
:10F98000410182808280B727002083A7C79201119E
:10F9900022CC26CA52C406CE4AC84EC68297B72485
:10F9A00000209387C4DD8047014A6301A406938445
:10F9B000C4DD63668506018D372700209307C7DB0A
:10F9C00083C7A70113545500137AF5011309C7DB48
:10F9D000636BF402B7290020938989B14D358346C2
:10F9E000A90103A8840083A54900139756004297F4
:10F9F000158C3A86636407016364B7003306B74029
:10FA000090C4E37DD4FC1604336A4401F24062449E
:10FA10005285D2444249B249224A05618280B727C1
:10FA2000002083A7C7B133848740229571B7B727D9
:10FA3000002003A7C7A08567938707777CD3B727E4
:10FA4000002083A747A183A6070913965600635891
:10FA5000060083A6070913966600634406007453E4
:04FA6000FDF28280B1
:10FA6400B72700203727002083A787910327079112
:10FA740001456313F700828083D6670081E683D64D
:10FA8400470036959C43F5B7B727002083A587A97F
:10FA940037270020938787A913860522232CC79034
:10FAA40003D74700938785FFB72600204111BA97F3
:10FAB400056523A8F69006C61D05935637006374A2
:10FAC400E500930600203307D60037250020232ABB
:10FAD400E59023A0E522E1162312D60023130600A5
:10FAE4001CC3998FE1172312F700231307008D3FDE
:10FAF400B240B7270020239DA7AC41018280B727DD
:10FB04000020B726002083A7879103A606912A87A1
:10FB1400B305B5406314F6003A8529A89386870097
:10FB24009C43E369D7FEE377F7FE2E85E3E4D5FE35
:10FB3400E3F2F5FE828023AC05FE1C4191E701004F
:10FB440001000CC18280BA8703A787FF6DFF23AC35
:10FB5400B7FE82801DC18346E5FF1307F00F91476E
:10FB6400639EE600411106C69700FB1FE78080599B
:10FB7400B24081473E854101828095473E8582801F
:10FB840001E9014582800145B2402244410182805D
:10FB940095654111938505D022C4C98D2A84210518
:10FBA400C2054205C181418106C69700FB1FE7805B
:10FBB400204971D9FD572320050023128500230312
:10FBC400F5002105D1B7411126C2B724002022C473
:10FBD4004AC083A7C49106C6014401499384C491D1
:10FBE40089E7A1654D2D05C401A803C7E7FF631785
:10FBF400A70215C8A165392E9840832784FF631690
:10FC0400E4029CC0FD57232C04FE230FF4FE22853E
:10FC1400B2402244924402494101828011E03E896B
:10FC240083A787FF75BF3E84E5BF232CF9FED9BFA8
:10FC3400B1CDB727002083C757AD411122C406C6F2
:10FC44002A842E856375F400894763E88700193791
:10FC54000D45B24022444101828083A785FF99E784
:10FC640003C7E5FF9307F00F6305F700E535154576
:10FC7400CDB737250020238F85FE1305C591653D3B
:10FC840022852244B240A165410169A415458280C0
:10FC9400B727002023AE07908280B727002083A7D0
:10FCA400479399E33E85828003D727006316B70004
:10FCB40003C70700E308A7FEDC47E5B7C1C17971B4
:10FCC40022D406D626D24AD04ECE01444147B3D7D9
:10FCD4008540858BB9CF1205314722953305E5025E
:10FCE400B727002003A947928544B3948400C20433
:10FCF400C180938947922A990327090011C70325D4
:10FD040049002EC60297B24531473304E40283A763
:10FD140009003E941C4489E723200900232209009A
:10FD2400B2502254A58D02599254F2492E85456150
:10FD340082800504E31DE4F88144DDB72E858280CA
:10FD440041111397050122C406C626C24AC0418741
:10FD54002E84635E0700853D11C1ED3BA1673D8C98
:10FD64002285B24022449244024941018280EDD965
:10FD7400AA8701474146B356E440858A9DCA920743
:10FD8400BA97B146B387D702B726002003A9469293
:10FD94008544B394E400C204C1803E9983270900DA
:10FDA4000325490082972320090023220900258C7A
:10FDB40045BF0507E311C7FC8144D5BFB727002021
:10FDC40083A787AB411122C406C63724002013043D
:10FDD400048E91C782971C403E9508C031A0B72776
:10FDE400002083A7C792FDF70840B7470300938715
:10FDF400D73F3305F502B7A72600938737ECB24007
:10FE04003E9508C022444101828071CDB72700206D
:10FE140083A7C792797122D426D24AD04ECE52CC2F
:10FE240056CA5AC806D65EC63A8AB689328BAE8A94
:10FE34002A898297B727002003A747929384479281
:10FE44000144B146C147B30BD402330677011042D3
:10FE540051E6C165938505F041459700FB1FE78096
:10FE6400201E15E5B727002083A787AC2D4589C739
:10FE74001145814582972D45B2502254925402591E
:10FE8400F249624AD24A424BB24B45618280B7265C
:10FE9400002093864693984215EF88C223000500FC
:10FEA4009C4005473317870023260500232465015A
:10FEB4002311E50023224501DE9723A0270123A275
:10FEC400570123A447010145E38809FA23808900E7
:10FED40065B73E875C47F5FF48C7C9B70504E31417
:10FEE400F4F6214551BF09458280B727002083A736
:10FEF4000793411122C406C637240020130444ADDD
:10FF040089C782975C483E9548C84848B240224415
:10FF140041018280B727002083C757AD6370F50283
:10FF24003727002093171500032507923E95835722
:10FF34000500DD8D2310B500014582800D458280CA
:10FF4400B727002083C757AD6372F5023727002017
:10FF5400931715000325079293C5F5FF3E95835724
:10FF64000500FD8D2310B500014582800D4582807A
:10FF7400130705FF1377F70FFD4763E5E70AB1465B
:10FF8400B306D502B727002003A7479289473697BF
:10FF9400184351CB011122CC26CA05449354450081
:10FFA4003D893315A4001314050141804AC82685F0
:10FFB4002E89A2854EC606CECD31AA89814739C97C
:10FFC400A2852685B53FB727002083A7C792B7240B
:10FFD4000020938484B1829783D784002A84814645
:10FFE400B385270313060064B3B7270313850532CB
:0CFFF400B335B500BE95EFD0D14BB3077C
:020000025000AC
:1000000085003E87D44063E4A70063E4D7003387CC
:10001000D74023A4E9008147F2406244D2444249D8
:10002000B2493E850561828089473E858280011103
:1000300026CA06CE22CC4AC84EC6BD47894463EEC6
:10004000A70231473307E502B727002083A747926D
:100050008944BA979C4395C305443314A4004204D1
:1000600041802E890145A2851D39AA89814411C587
:10007000A2850145C13D23A42901F24062442685A1
:100080004249D244B24905618280B727002083C724
:1000900057AD6364F500014582800111B727002048
:1000A00056C283AAC79206CE22CC26CA4AC84EC6DA
:1000B00052C463880A0A37290020130989B12E8A9D
:1000C0008324490083558900B74736FE938707C8C4
:1000D000BE94B387C5022A84B2898146B3B5C502EE
:1000E00013850732B337F50013060064BE95EFD0D1
:1000F000913C63E8A406829A83558900AA8413067A
:100100000064B38735038146B3B5350313850732E1
:10011000B337F500BE95EFD0113AB3079500BE8412
:100120000327490063E4A70063E4E700B384E740E2
:10013000D2852285AD3601C504C5054525A0936548
:1001400004F0C205C18141459700FB1FE78080EFA5
:100150001DE1B727002083A787AC81C7A285114581
:1001600082970145F2406244D2444249B249224A50
:10017000924A0561828037270020130747931C436A
:1001800085E308C385472326050004C523114501DF
:1001900023008500A300F5002322050079BFBA875C
:1001A000D84775FFC8C7F9BF49CD797122D426D287
:1001B0004AD04ECE52CC5EC662C466C26AC006D673
:1001C00056CA5AC83689328AAE89AA844144314C0B
:1001D000B72C0020054D930B0003B30A8403138B47
:1001E0004C9203270B0056971C43B9E79375F40014
:1001F000B315BD0013554440C2055286C181137525
:10020000F50F613515C983270B000145D69784C3C7
:1002100023A237016304090023008900B25022544D
:1002200092540259F249624AD24A424BB24B224C92
:10023000924C024D456182800504E31074FB214518
:10024000F1BF09458280411122C426C24AC006C6B8
:100250002A842E89B284153DCA852285893405CD2C
:10026000B727002083D507B22A8413060064B3871A
:1002700095028146B3B5950213850732B337F50071
:10028000BE95EFD0512348C00145B240224492446C
:100290000249410182802145CDBF411122C426C2BD
:1002A0004AC006C62A892E84DD3AAA8419C12311C0
:1002B0000500A2854A857931B727002083C747AD5D
:1002C000639B2701B72700209387879203D70700F6
:1002D000598C23908700014591E01945B240224492
:1002E00092440249410182809307F00263E8A70427
:1002F0004111B14722C43304F50226C2B7240020BD
:10030000938444929C4006C6A297984389470DC3A4
:100310009377F5008545B395F500C205C18111813C
:10032000AD3F9C40A29723A0070023A2070081476E
:10033000B240224492443E854101828089473E85F5
:100340008280411106C622C4993A11E50145B240A6
:10035000224441018280B727002083A7C79200452D
:100360008297B7270020938787B16368A402D84398
:10037000B74636FE938606C83305A4403697E37722
:10038000E5FC13070064B335E50203D68700814618
:100390003305E502EFD031125DBFD8433A94C1BFB7
:1003A0004111B727002006C623A8A7920295B240A4
:1003B000B727002023A6A7AE0145410182809947B7
:1003C00063EAB70093972500B72500209385C5AF52
:1003D000BE9588C18280B727002023AA07923725BF
:1003E0000020B7270020411123A807927146B727A4
:1003F000002081451305C5AF06C623A6079222C477
:1004000026C29700FB1FE78020E137250020130656
:1004100080028145130445AD130545AD9700FB1FD0
:10042000E78080DFEFF08FE6B727002083C7F7AAC9
:100430008545B724002013D527008D8B3E958D4729
:100440003305F50299479384449239051375F50FE6
:100450002301A4003305F502130505249700FB1FB3
:10046000E78040BE88C041C10346240099478145CA
:100470003306F602130606249700FB1FE780C0D957
:100480009C4003472400B7240020938707249384CB
:1004900084930A079CC0BA97372700202320F7923D
:1004A000EFF04FFF452983471400944037060500BD
:1004B000139727003697130606CC10C3138717002F
:1004C0001377F70F0A07370605003697130646D449
:1004D00010C313873700890793F7F70F8A07A30024
:1004E000E400B69790C3B240224492444101828016
:1004F00037270020130747AD83471700834627009F
:1005000063F0D702B726002083A6869313861700D0
:10051000A300C70013972700369708C33E85828043
:100520009307F00FE5BF1C416384071241777D8F6D
:10053000B70600208947631ED71003574500630A9A
:100540000710411126C21946AA849305F00F6905C8
:1005500006C622C44AC09700FB1FE780E0D50547C6
:100560008D476300E50E9C4491C7D858994771CBDD
:10057000985C61CB372400201306C0038145130526
:1005800084A99700FB1FE78020C91306C003A68536
:10059000130584A99700FB1FE78080C4130984A971
:1005A0000357C900930784A909E71307001023968E
:1005B000E70003C7E70001E705472387E70003D704
:1005C000070101E76D472398E70003C7F70001E73C
:1005D0001547A387E70003C7270101E705472389DC
:1005E000E70003C7370109E703C7F700A389E7005E
:1005F00003C7470101E73547238AE70003C797018F
:1006000009E713078002A38CE70003C7570109E736
:100610001307D002A38AE70003C7840109E7130781
:10062000C003238CE7009C5791C78297B72700200F
:10063000239EA7ACB72700207D57A383E7A8613B83
:100640008147B2402244924402493E854101828062
:1006500089473E85828001114AC837290020130945
:1006600089B18327090006CE22CC26CA52C456C2BD
:100670004EC68297130A0064B3354503835A890036
:100680008146568633054503EFD0E162B727002047
:10069000138747AD004FAA840145630694029389EE
:1006A00047AD33858440636E940003254900568628
:1006B0008146B335AA023305AA02EFD0C15F018D8E
:1006C000269523AC9900F2406244D2444249B24993
:1006D000224A924A05618280011122CC2E84B7E51C
:1006E00006000A8541469385451006CEEFD03116A7
:1006F000180806043A94B7270020035504FF83D74F
:1007000027B2F2406244AA9737450F00130505242B
:100710003355F50205618280B727002083D727B2C1
:1007200051471D45637CF702794719456378F70205
:100730001307200315456373F7021307B00411452F
:10074000637EF700130740060D456379F700130732
:10075000600909456374F70013B5B70F8280011172
:1007600022CC06CE2A842EC6EFF08FE5B245F240A9
:10077000818D33A5A502229562441375F50F05619D
:100780008280011122CC06CE2A842EC6EFF04FE3E0
:10079000B245F240818D33A5A502229562444205FF
:1007A000418105618280011122CC06CE2A842EC6A9
:1007B000EFF00FE1B245F240818D33B5A5022295ED
:1007C000624405618280B7270020138787A91857E4
:1007D0002DC3411122C426C24AC006C6138987A967
:1007E0000297B7270020138747AD035787002A8455
:1007F000938447AD0DCBBA876373A700AA87C2075E
:10080000C183BA866373E400A286C206C182958F53
:100810005147635AF7008327C90291C38297EF605B
:10082000610D23948400B240224492440249410164
:1008300082808280011122CC37240020930784A972
:10084000DC5706CEAA85130484A981C72AC68297DD
:10085000B245B5CD9C410545BDC7DC41ADC783D789
:100860008500B5C383D7A500B9CF83C7C500A1EF65
:10087000372500204146130585B19700FB1FE7800F
:100880002096B7270020938787B19443372700200D
:100890002326D792034794010DE303D587009307DE
:1008A000800237460F003305F50213060624814601
:1008B0008145EFD04140A30CA40037050500130586
:1008C0006565F93C0145F240624405618280034759
:1008D0006401B7270020938787B193168701E186CB
:1008E00063DB060237270020130747AD232E0700DE
:1008F000370700201307675B98C337873200FD5620
:10090000130727A1D4C398C723860700B7C70040A1
:1009100023A4D726BDB7937617008DC2378720034F
:10092000130707D098C73707C0A8D8C337070020D8
:100930001307875E98C323860700A1B7E176239447
:10094000D70011C7130700322395E700E9BF13074B
:100950002003DDBF011122CC37240020930784A996
:10096000884706CE26CA4AC801E90545F2406244D6
:10097000D244424905618280130484A95C58F5D7AA
:10098000185C65D77000854582971844B247E30E1E
:10099000F7FC0355C4009305E004B724002097F04A
:1009A000FA1FE780206A138744AD08D3938444ADCF
:1009B0004DDD0356C4009305F00F01499700FB1F5E
:1009C000E78080858347E4009050634DF9003285CD
:1009D00097F0FA1FE7804073014523A0040223A289
:1009E000040269B78355C4000844185CB387250323
:1009F000898105093E9508C20297E9B701114EC6E3
:100A0000B7290020938789A99C4726CA4AC852C49F
:100A100006CE22CC56C25AC02A8AAE843289638C52
:100A2000071E938989A903A74903630207127D471B
:100A30006361A71237240020130744AD832A0702FD
:100A4000130444AD639A0A0803D5C90095659385DC
:100A500015E097F0FA1FE780E05E08D02A8665C9A6
:100A600083D5C90083A7490303A58900898182979B
:100A700083A78900832A04025CD089476316FA0899
:100A8000C1476396F40C83D5C9009147938505FC53
:100A9000B3C5F5028A05D69503C705009307A005DF
:100AA0006313F70A83C71500639F47094A852686A3
:100AB000910597F0FA1FE780A0721C50568563934A
:100AC00057130145F2406244D2444249B249224A96
:100AD000924A024B056182805850E380E7FA03D5C1
:100AE000C9009565938525E097F0FA1FE78080554A
:100AF000AA8A31CD83D5C9002A8683A7490303A5D5
:100B000089008981829795BF8D47631BFA00C14791
:100B1000639FF40283D5C900938545FDF199A5BF74
:100B200091476318FA006394440383D5C900A11563
:100B3000F5B7C147631DFA00A14763EA970083D563
:100B4000C900C115E1BF1C5056856391570D294559
:100B500095BF1307F006636CA708930A05FE1947B3
:100B6000B3CAEA0203D7C900372B0020B38AEA02CE
:100B7000BE9A93074BADDC53130B4BAD63955701F6
:100B800003240B021DE003D5C9009305E00497F090
:100B9000FA1FE780204B2A845DD983D5C90083A73B
:100BA00049032A8689815685829791451307A005B6
:100BB000898193972500A29783C607006393E60473
:100BC00083C61700639C460385058A052686A29581
:100BD0004A8597F0FA1FE780A06083270B02E38223
:100BE00087EE228597F0FA1FE7800052D9BD1307E0
:100BF000E007E36EA7F4930A05F9ADB783D52700A4
:100C000045BF83270B02E38487F4228597F0FA1F00
:100C1000E780804F2DBFB727002083A547AF85D938
:100C200091479306A0058983139727002E970346C3
:100C30000700E31ED6F003461700631C4601850734
:100C40008A072686BE954A8597F0FA1FE7804059A5
:100C50008DBD83572700C1BFB7270020938787A981
:100C6000984729C3985F1DCF8546631DD502411162
:100C700022C437240020130444AD105006C619CEF8
:100C800083D5C700485089810297085097F0FA1F12
:100C9000E78080472320040223220402B24022443A
:100CA000410182808280011122CC372400209307E9
:100CB00084A956C283AA870026CA4AC84EC606CE51
:100CC00052C42A89AE84B289130484A9638B0A1C96
:100CD0001C5C99EB2945F2406244D2444249B24936
:100CE000224A924A056182805C58EDD7FD4763E74E
:100CF000A70C372A002093074AAD9C53130A4AAD2C
:100D0000B9C7084483274A02639FA704894763172A
:100D1000F906C147E390F4FC0355C400914713055D
:100D200005FC3345F5029317250003250A022686A4
:100D3000CE853E959307A0052300F500A30025016D
:100D4000110597F0FA1FE780A049014569B70355DF
:100D5000C4009305E00497F0FA1FE780A02E23203B
:100D6000AA0245F185BF8355C4005C5803260A02D8
:100D7000898182971C442322FA0249BF8D47631C54
:100D8000F900C147E398F4F40355C400130545FD89
:100D90009377C5FF59BF91476318F900E39C24F38B
:100DA0000355C4002115EDB7C147E315F9F2A1477A
:100DB000E3E297F20355C4004115D9BF9307F0064B
:100DC00063E9A706930705FE1947B3C7E702035770
:100DD000C400372A0020B387E702BE9A93074AADC2
:100DE0009C53130A4AADA9CF83274A02639657073B
:100DF00003250A0291461308A005FD5593D7260046
:100E0000C207C183139727002A970346070063147C
:100E100006078348170003562700639C2805B3067E
:100E2000D64063C6960485078A072686CE853E95FA
:100E300009BF9307E007E3EFA7E8930705F941BF70
:100E40000355C4009305E00497F0FA1FE780801F64
:100E50002320AA0251F9BDBD8355C4005C58032666
:100E60000A0289815685829723225A0351B7A3002B
:100E7000B700B28661B70356C400B38596009105EA
:100E8000130606FCE3F8C5E4138634001376C60F98
:100E90001106B29623000701A30027012311D700F2
:100EA00059B7372A002093074AAD9C53130A4AAD1D
:100EB000A1C303250A0291461308A005FD5593D747
:100EC0002600C207C183139727002A97034607000D
:100ED000631206058348170003562700639828010C
:100EE000B306D640E3D196F4A300B700B286C1BFE3
:100EF0000345E4008357C4009305E0043305F5027D
:100F00004205418197F0FA1FE780C0132320AA020F
:100F10004DF1C9B30356C4008345E400B385C5024F
:100F2000338696001106E3E7C5DAB9BF0145828032
:100F300083C705002300F50083D72500A300F50033
:100F400083D72500A1832301F50083C74500A301B2
:100F5000F50011458280B727002023A00794B7270A
:100F6000002023AE0792828029C1411126C206C605
:100F700022C4AA8401458DC52E84B7E506002285CA
:100F800041469385451197F0FA1FE780602583C796
:100F9000040005452306F40083C71400A306F400EB
:100FA000B240224492444101828001458280011175
:100FB00022CC26CA06CE0947AA8432846381E5047E
:100FC00041468147639BC500638FE6006397B60087
:100FD0000DA841478147638EE600F2406244D24447
:100FE0003E85056182808A852285BD3F41468A858E
:100FF00019A88A85953F41468A85228531A0E39AC2
:10100000B6FC2E86A285268597F0FA1FE78020265B
:10101000AA87E1B7B727002023AEA7928280B7271F
:10102000002023A0A7948280011122CC03546500E4
:1010300006CE26CA4AC84EC641C083298500AE8462
:101040002A8803C9090081471317890161876355FD
:101050000702B147054563FA87045114420403555A
:101060002800418033878900A2864E868545EFA0FF
:101070003008B337A00085077D141355690042047A
:1010800005891379F90341802380F400A380A4002B
:101090002381240123928400014719C0138719007A
:1010A00098C409476383E7000145F2406244D24493
:1010B0004249B249056182800545C5BFC167F9173C
:1010C000630AF502D94763F7B702011122CC2EC695
:1010D00006CE2A84EF701051B2456368B5002285B0
:1010E0006244F24005616F90A074F240624405458D
:1010F0000561828005458280C167F9176314F50098
:101100006F70504E411106C6EF90406111E15D4590
:10111000B2404101828091476394F5028347050004
:101120002300F6008347250003471500A207D98F47
:101130002311F6008347350001452302F600828023
:10114000114582804111814522C426C206C6AA8467
:1011500005252A8409E9B727002083A7C79381C7FB
:10116000F945268582972285B24022449244410166
:10117000828039714ED656D25AD006DE22DC26DA6B
:101180004AD852D4AA8A2E8BB28941EF36C6AD37DF
:101190009145EF70F056AA844D492DC9B246054AD3
:1011A000238034010544630A0B00B68513851400BF
:1011B000029B0505131405014180E20993D9894179
:1011C00063D30902C1455685EF908063654905E9FF
:1011D00033868400A2852685EFA0A0422A8905E1F6
:1011E00031044204418091472C085685231CF100AC
:1011F00026CE231D8100EF80306C2A8901C9630748
:101200000A00268597F0FA1FE78000F0F25062543A
:101210004A85D2544259B259225A925A025B2161EC
:101220008280BA84014AADBF011122CC26CA4AC8C5
:101230004EC606CE2A893284B689253FAA840DE19E
:10124000B727002083A7079481CF05476317E400E1
:1012500003C4090005041374F40FA2854A8582971C
:10126000F240624426854249D244B24905618280F7
:10127000AE86B715050001470546938505F36DB7A2
:1012800083D705002300F50083D70500A183A300C1
:10129000F5000945828083D705002300F50083D738
:1012A0000500A183A300F50083D725002301F500E5
:1012B00083D72500A183A301F5001145828083D740
:1012C00005002300F50083D70500A183A300F500E6
:1012D00083D725002301F50083D72500A183A3012F
:1012E000F50083C755002302F50083C76500A302FC
:1012F000F50003D58500190542054181828083D719
:1013000005002300F50083D70500A183A300F500A5
:101310000945828083D705002300F50083D70500A7
:10132000A183A300F50083D725002301F50083D70F
:101330002500A183A301F5001145828003D5450056
:10134000060542054181828083D705002300F50010
:1013500083D70500A183A300F50003D52500090567
:1013600042054181828083D705002300F50083D7A1
:101370000500A183A300F50083D725002301F50014
:1013800083D72500A183A301F50003D545001105EE
:1013900042054181828083C705002300F500054591
:1013A000828083D70500411122C406C62300F500C0
:1013B00083D705002E841105A183A30EF5FE83D7E4
:1013C00025009505230FF5FE83D7D5FFA183A30F35
:1013D000F5FE03C6F5FF97F0FA1FE78060E00345CE
:1013E0004400B24022441105410182808947639C38
:1013F000F50083471500034705000145A207D98F73
:101400002310F60082801145828003D70500D9475A
:1014100063FEE702011122CC06CE2EC62A84EF70AD
:10142000701CB24683D70600636DF50022856244C6
:10143000F240B71505000147094693850528056167
:101440000DBBF240624409450561828009458280F6
:1014500091479DC583460500FD15C2058547C1819D
:101460006392F60213D725008D89914791E9914740
:1014700001CB05052301D6002310E60048C28147B1
:101480003E85828009479147E39CE6FEC94733D7F2
:10149000F502B3F5F502D1BFAE86B71505000147D9
:1014A000114693856529F1B193F7350091EB898158
:1014B000914789C52310B60048C281473E85828086
:1014C0009147EDBF03C745008947631AF702011131
:1014D00022CC2A84C84506CEAE86014719C52EC641
:1014E0009D45EFE00FE2B2462A8722856244F24032
:1014F000B715050019469385E52B05619DB909458A
:10150000828099E1114582808347050005472311B8
:10151000F600E379F7FEFD1593F5F50F33D7F502E5
:10152000B387E702E390F5FE050548C22310E60005
:101530000145828083C745000947AE866385E70081
:1015400041476399E700B715050001472146938598
:10155000253A05B1094582802310B60091E1014585
:1015600048C201458280AE86B7150500014729466D
:101570009385E52FFDBE2310B60091E1014548C2D9
:1015800001458280AE86B715050001473146938537
:101590004531C5B62310B60091E1014548C2014569
:1015A000828003D74500854763FDE702011122CC05
:1015B0002A84884106CE0DC12EC68545EFE06FD442
:1015C0002A8722856244B246F240B71505003946A3
:1015D0009385C533056171BEF240624409450561DA
:1015E00082800945828091479DC5034705008D464D
:1015F000914763F2E602FD15C205C181B3C6E5025B
:101600003308D7026399050105052310D60023117D
:10161000E60048C281473E85828083C7450009476E
:10162000AE866385E70041476399E700B71505007B
:10163000014741469385253A2DBE09458280B33541
:10164000B000139525008280011122CC26CA06CE57
:1016500003C785008547AA842E8449466310F70294
:10166000613C8357240049151306200963C8A7006D
:10167000F2406244D24409450561828003479400E8
:1016800085476314F70013660604484011C58D456D
:1016900032C6EFE00FC73246A2866244F2402A8784
:1016A0002685D244B7150500938585340561D1B4EC
:1016B0008D4763FFB7028347150003470500F11507
:1016C000A207D98F2310F600834735000347250072
:1016D000C205A207C181D98F2311F6002312B600DB
:1016E00089C5110508C60145828023240600E5BF8F
:1016F00011458280011122CC2A84884506CEAE860F
:1017000011C52EC69545EFE0CFBFB2462A87228588
:101710006244F240B7150500594693856536056168
:1017200089BCB335B000139525008280AE86B7150D
:101730000500014761469385653925BC85471145FC
:1017400063F4D7028347160083450600A207CD8FB6
:101750002310F7009387E6FF2311F700894763867C
:10176000F600090650C30145828023220700E5BF29
:101770000147814679468145EDBA83D705002300AC
:10178000F50083D70500A183A300F50009458280F9
:1017900083C7250005472300F50003D5050063979F
:1017A000E7000A050505420541818280C9473305E6
:1017B000F502CDBF03D505000A05420541818280AF
:1017C00083D725002300F50003D5050083D7250026
:1017D0003305F502050542054181828003D50500E8
:1017E000828003D50500828003D50500828083D7DF
:1017F00025002300F50003D5050083D72500330518
:10180000F502050542054181828083D7050023004A
:10181000F50083D70500A183A300F50083D7250039
:101820002301F50083D72500A183A301F50003D58B
:101830004500110542054181828083D705002300C0
:10184000F50083D70500A183A300F50003D525008B
:10185000090542054181828089471145639BF60055
:1018600083471600834606000145A207D58F231043
:10187000F700828003D70500D947AE8663F9E700F9
:10188000B715050001470D469385A57771BA09453F
:10189000828011456393A6028347160083460600A3
:1018A0000145A207D58F2310F700834736008346F2
:1018B0002600A207D58F2311F700828083C7250059
:1018C0000547FD1793F7F70F6361F70483D705000A
:1018D0008DCF011122CC2A84C84106CE15C12EC657
:1018E0008945EFE00FA22A8722856244B246F24082
:1018F000B715050015469385057905616FF0DF92F0
:10190000F24062440945056182800945828095471D
:10191000114563F9D706411122C426C24AC006C642
:1019200083471600BA8403470600A2073284D98F82
:101930002390F400834736000347260093054400B4
:10194000A207D98F2391F40089472382F400094626
:1019500013855400368997F0FA1FE7806088930753
:10196000A9FF2394F4009947631BF90023A6040000
:10197000B240224492440249014541018280190447
:10198000C0C4FDB7828083D705008DCF011122CC62
:101990002A84C84106CE15C12EC68545EFE06F9654
:1019A0002A8722856244B246F240B71505001D46DB
:1019B0009385457B05616FF03F87F240624409459E
:1019C000056182800945828099476395F6048947BD
:1019D000411106C62302F70083471600834606001E
:1019E000B285A207D58F2310F700834736008346C0
:1019F000260003464700A207D58F13055700231181
:101A0000F700910597E0FA1FE780807DB24001451D
:101A100041018280D14711456394F600C1474DBF13
:101A2000828083D705008DCF011122CC2A84C84142
:101A300006CE15C12EC68945EFE0AF8C2A872285D8
:101A40006244B246F240B715050025469385057CF1
:101A500005616FF06FFDF2406244094505618280C7
:101A60000945828089471145639BF600834716002C
:101A7000834606000145A207D58F2310F700828018
:101A8000011122CC2A84C84106CEAE86014719C571
:101A90002EC68545EFE0EF86B2462A87228562444E
:101AA000F240B71505002D469385C57D05616FF0A1
:101AB000AFF711456393A6028347160083460600DD
:101AC0000145A207D58F2310F700834736008346D0
:101AD0002600A207D58F2311F7008280011122CCA6
:101AE0002A84C84106CEAE8611C52EC68545EFE0D4
:101AF0004F81B2462A8722856244F240B71505001D
:101B000035469385257E05616FF00FF293F7160039
:101B1000114589EB89476387F60085822312D70038
:101B200010C301458280011122CC2A84C84106CE0F
:101B300015C12EC68545EFD0DFFC2A872285624479
:101B4000B246F240B71505003D469385857E056196
:101B50006FF08FEDF240624409450561828083D7C2
:101B600005008DCF011122CC2A84C84106CE15C1B3
:101B70002EC68945EFD0FFF82A8722856244B246F7
:101B8000F240B715050045469385E57E05616FF087
:101B9000AFE9F240624409450561828009458280CF
:101BA000854763FCD7022304A700A304B70083473B
:101BB000160083450600A207CD8F2310F7009387F8
:101BC000E6FF2311F70089476386F600090650C334
:101BD0000145828023220700E5BF1145828001472D
:101BE00081464D4681456FF02FE48D47114563FBDB
:101BF000D7028347160083450600A207CD8F231026
:101C0000F7008347360083452600A207CD8F2311B6
:101C1000F7009387C6FF2312F7006386A60011061C
:101C200010C70145828023240700E5BF011122CCA3
:101C30002A84884506CEAE8611C52EC69545EFD0BE
:101C40005FECB2462A8722856244F240B725050040
:101C50005D469385A58005616FF00FDD85471145D1
:101C60006397F6008347060001452300F700828052
:101C700001478146654681456FF00FDB011122CC9B
:101C80002A84C84106CEAE86014719C52EC68D45A9
:101C9000EFD03FE7B2462A8722856244F240B7255B
:101CA00005006D469385A58305616FF08FCC01110A
:101CB00022CC2A84C84106CEAE86014719C52EC65D
:101CC0008D45EFD01FE4B2462A8722856244F24058
:101CD000B725050075469385A58305616FF06FC92B
:101CE000011106CE2EC6EF80901F01C9B245F24009
:101CF0000355250005616FC07029F2404945056113
:101D00008280B7270020A3860796B7270020238666
:101D10000796B727002023AA0794B727002023ACF3
:101D20000794B727002023AE0794B727002023A0ED
:101D30000796B727002023A80794B727002023A6DB
:101D40000794B7270020938787B2370684033707A5
:101D5000B40090D337C6070098C3130606B83747B8
:101D6000A000D8C3D0D33707100041669306070AF6
:101D7000B70550009308060194C723A41703938660
:101D80000501930816F8D4C723A61703B706D00792
:101D9000B7087F001308070513850601410723A82C
:101DA0001703B0C393081600938606051386150023
:101DB000D8CBF8C323A8070188CF23AE070023AAF6
:101DC000170323AC070223AE070223A40704F0C7BE
:101DD000B4CB23AA0704ACCF23AE0705B8D337078B
:101DE000A000F8D71307000AB8DB1307C01CF8DB04
:101DF000130710F8E8D323A4070623A0070823A29B
:101E0000E7088280011126CAAA84214522CC06CE89
:101E10002E8432C636C43AC2EFD0DFD61DC9A246E0
:101E200012473246930700FD2300F5009947A300AF
:101E300095002301F5002303D500A303E500231239
:101E4000C500AA8522856244F240D24405616FD064
:101E50007FDEF2406244D24405618280B7270020D1
:101E600023AEA7948280B727002023A0A796828064
:101E7000011122CC4AC806CE26CA2A890144B304DD
:101E800089006368B400F2406244D244424905616B
:101E900082802EC6EFD0DFF293170501C183A183A4
:101EA000B2452380F4009307140093F7F70F8504DD
:101EB00063F9B700CA9709042380A7001374F40FCD
:101EC0007DBF3E847DBF411122C43724002013040E
:101ED00004BB03556400C16706C6FD17630FF50018
:101EE000B727002003C607C7B7250020938545966E
:101EF000EF80005EFD572313F400B24022444101FD
:101F0000828009C925151375F50F1335850E134504
:101F1000150082800145828023900500C9C6797131
:101F200022D426D24ECE52CC5AC806D64AD056CA51
:101F30005EC63684328AAE892A8B814463F34407B5
:101F4000B307940083C70700138914004209939ACA
:101F5000070193DA0A011359090163840A04CA9735
:101F60006341FA04B307240183CB07005E85513F28
:101F70000DC99387FAFF2390F90063906B03130553
:101F800019002295B250225492540259F249624AE1
:101F9000D24A424BB24B45618280D694C204C18082
:101FA00071BF0145C5B701458280011122CC37249C
:101FB000002026CA4AC84EC6930704BB06CE2E8907
:101FC000D0CB8CCBC8C7AA8441469305F00F4A8575
:101FD00097E0FA1FE780402E8549130404BB63197C
:101FE00035030848C145693541469305F00F2685FC
:101FF00097E0FA1FE780402C054963152503484404
:102000006244F240D2444249B249C14505618DB5AE
:10201000414681454A8597E0FA1FE780E029E315AC
:1020200035FDC1B741468145268597E0FA1FE78017
:10203000A028E30625FDF2406244D2444249B24959
:1020400005618280011122CC3724002026CA4EC6A9
:10205000AE84AA8913060002130504BB814506CE8F
:102060004AC897E0FA1FE780201BB7270020130912
:1020700004BB238A97C6A3013901EFC06073130420
:1020800004BB854719C1814749452300F400F2404C
:102090006244D2444249B24905618280814781CD80
:1020A00019C98547631BF50083C7550093E707FCF3
:1020B000A382F50085473E85828089476317F50036
:1020C00083C7550093F7F703E5B70D478547E3143A
:1020D000E5FE03C755001377F70313670704A382D0
:1020E000E500D1BF81478DC105C103C755009306E7
:1020F000000C85471377070C6308D700930600048C
:102100008D476303D70089473E858280411122C4F1
:10211000005D06C626C21DC8AA84085009C597E0FE
:10212000FA1FE78060FE485009C597E0FA1FE78074
:10213000A0FD085409C597E0FA1FE780E0FC22855E
:1021400097E0FA1FE78040FC23AC0402B24022442F
:10215000924441018280B7270020938707BB19E989
:1021600003C727001385870101CB372500201305FE
:1021700045948280138587018280B727002003C59C
:1021800027BB8280B727002003A5C7BB8280B72763
:10219000002003A507BC8280B727002083A747BC87
:1021A00088438280B7270020938707BBD44B98428F
:1021B000050798C203C537009307F00F6305F500C4
:1021C00091656FD07FD58280011122CC06CE2E84FE
:1021D00032C6EF8060619147B2456310F502B727C0
:1021E000002083A7079695C303A30700630F03008E
:1021F00022856244F24005610283B727002083A74D
:10220000879581C703A34700D5B7F24062440545CF
:1022100005618280011122CC2A840355450006CE37
:1022200026CA4AC84EC6EF80403A3DC92A8983442F
:1022300005008349C500D93D4A85EF80101A035532
:102240004400EF80A055372900201309C996834721
:102250000900B9CB639A9704B727002083C5D796A6
:102260002685BD3C19E12300090003554400EF8099
:10227000A0579147631FF500B7270020938707BB3E
:102280008356440003D767006395E6007D57239388
:10229000E700F2406244D2444249B249056182807B
:1022A00081499304F00F45B79307F00FE38FF4FAD9
:1022B0008346640003564400034524004E87A685E8
:1022C000913665B779715EC6AA8B2E8552CC56CAF7
:1022D0005AC806D622D426D24AD04ECEAE8A328BE7
:1022E000368AEF80802E7DC1045D2A89E5C09C502E
:1022F000614599C3130540039C5481C751054205AC
:10230000418163050A00710542054181DC5081C7A6
:102310005D0542054181EFD0FF862A8445C96146AB
:10232000814597E0FA1FE78020EFB727002083C997
:1023300087B56394090083490900930700FD2300D2
:10234000F400A947A30074012301F40023036401EE
:102350008C50231254011305840191C908C471469D
:10236000930A440397E0FA1FE78080E756858C5470
:1023700091C948C45146930A450197E0FA1FE78086
:1023800020E65685630C0A0008C87146D285930A78
:10239000C50197E0FA1FE780A0E45685CC5099C5A7
:1023A00048C85D4697E0FA1FE78080E3A2854E8526
:1023B000EFD05F882254B2509254F249624AD24A16
:1023C000424BB24B4A850259456189B3B2502254FF
:1023D00092540259F249624AD24A424BB24B456189
:1023E000828001114EC6AA892E854AC806CE22CC0B
:1023F00026CA2E89EF80601D21C9B727002083C41B
:1024000087B599E0834405001945EFD0AFF72A84DA
:1024100005CD8145194697E0FA1FE780E0DF930775
:1024200000FD2300F400B947A30034012301F400A8
:1024300023122401A2856244F2404249B249268512
:10244000D24405616FD00FFFF2406244D24442494A
:10245000B2490561828039715ECEAA8B2E8526DA5B
:102460004ED652D456D25AD006DE22DC4AD8AE849A
:10247000328BB68A3A8ABE8942C6EF80001521CDDA
:102480002A894145EFD00FF02A8431C54146814564
:1024900097E0FA1FE78040D8B727002003C587B52B
:1024A00019E103450900930700FD2300F400BD472F
:1024B0002301F400B247A300740123129400230403
:1024C0006401A304540123054401A30534015CC441
:1024D000A285EFD02FF6F2506254D2544259B2592D
:1024E000225A925A025BF24B21618280797126D284
:1024F000AA8439454AD04ECE06D622D42EC6B289F9
:102500003689EFD02FE821C1B2459307000D231083
:10251000F500B1472A842312B5002301F500CE85CA
:102520001905194697E0FA1FE78080CB230624019E
:10253000A2852254B2500259F24913F5F40F925475
:1025400045616FD02FEFB250225492540259F24994
:1025500045618280411126C2B7240020938404BBC8
:1025600003C7340006C622C44AC09307F00F630AAB
:10257000F7042A893945EFD0EFE02A8439C193075F
:1025800000FD2300F500A30025012301050093852C
:1025900084010D05194697E0FA1FE78060C483D7D0
:1025A0008400A28503C534002315F40083C71400FA
:1025B0002306F4002244B2409244024941016FD004
:1025C0006FE7B240224492440249410182800111E6
:1025D0005AC02A8B314526CA4EC652C456C206CEB0
:1025E00022CC4AC8AE84B28A368ABA89EFD08FD953
:1025F0003DCD2A842685EF70507D11C50347C50067
:10260000A1476314F704B727002003C937BB93071A
:1026100000FD2300F4009D47A30064012301F400A2
:10262000231294002313540123144401231534016D
:10263000A2856244F240D244B249224A924A024BF5
:102640004A85424905616FD0EFDEB727002003C9F4
:1026500057C7E31E0BFAB727002083A7C7A69C47DE
:10266000DDD7CE865286D685268582974DB7F24035
:102670006244D2444249B249224A924A024B05611D
:102680008280011122CC2A84214506CE2EC6EFD0AD
:102690006FCF21C1B245930700FD2300F500C54768
:1026A0002301F50083C73500A301F50083D745005A
:1026B0002312F50083C765002303F50083C7750067
:1026C000AA85A303F50022856244F24005616FD01C
:1026D0006FD6F240624405618280397162CC2A8CE7
:1026E000594526DA4AD84ED652D456D25AD05ECE62
:1026F00006DE22DCAE8432C636C4BA8B3E8BC28A7A
:10270000468A8359010403494104EFD0AFC725C964
:102710003246930700FDA2462300F5009547A3012A
:10272000C500A30085012301F5002A84194611057F
:10273000A9C2B68597E0FA1FE78080AA2306640144
:10274000230A24012315740123175401231844017B
:1027500023193401A2856254F2504259B259225AC7
:10276000925A025BF24B624C2685D25421616FD0A3
:102770006FCC814597E0FA1FE78000AAC1B7F250FD
:102780006254D2544259B259225A925A025BF24BC5
:10279000624C21618280411122C43724002013043D
:1027A00004BB8347240006C626C28DCBB724002075
:1027B000AA8519461385449497E0FA1FE78040A242
:1027C0000345240093854494EFF05F8D2244B2408A
:1027D00013854494924441016FB0507EB24022442C
:1027E0009244014541018280411126C2B724002054
:1027F000938704BB06C622C44AC003C737009307A9
:10280000F00F938404BB6304F7042A892945EFD0B1
:102810006FB72A840DCD930700FD2300F500A14773
:10282000A30025012301F50083C72400B72500205C
:1028300093854594A301F5001946110597E0FA1F09
:10284000E780009A03C53400A285EFD0AFBE03C76E
:1028500024008D476311F702B727002083A7C7958F
:1028600099CB03A38700630803002244B24092443B
:10287000024941010283B24022449244024941018B
:102880008280797122D406D626D24AD04ECE52CC3E
:1028900056CA09445DCD2A8903550500AE895144C5
:1028A000EF70B052AA8455C537270020930707C799
:1028B00083C747008546BA8AFD1793F7F70F494447
:1028C00063F9F6080347C500A1476314F700639254
:1028D00009089C5C4544B5EF9165938545711305E6
:1028E000C00297D0FA1FE780E07588DC2A8A4D4441
:1028F0002DC11306C002814597E0FA1FE780C09101
:102900008357090093064A0036852311FA00714661
:102910009305490036C697E0FA1FE780608C894727
:102920002300FA0003C5C400B2460356090083C55C
:102930000AC7611513351500EF80706F2A8463860E
:102940000900CE852685EF80E05801C42685EFF08A
:10295000EFFB2285B250225492540259F249624A46
:10296000D24A45618280B727002083C747C7054701
:10297000FD1793F7F70F637AF708894741CA0111EA
:1029800022CC26CA4AC84EC652C406CEAA89368A66
:10299000B2842E89EF7070432A84D14739C94855D3
:1029A00009C597D0FA1FE7802076F145268597E084
:1029B000FA1FE780C08848D4CD4705CD8346C400C0
:1029C00021478147639FE600630D0A000347A50185
:1029D0000356050193062501AA854E85EF802057F1
:1029E000AA8703474400630F0900136767002302A7
:1029F000E400F2406244D2444249B249224A3E8550
:102A00000561828013674700DDB7C9473E85828034
:102A10009307200463ECA7009317150037250020C7
:102A2000130585B23E9503550500828041657D15ED
:102A30008280011122CC2A842E8526CA06CEAE843D
:102A4000EF70B0381DCDB7470F009387F7230945C6
:102A500063E4870281450A85414697D0FA1FE780E3
:102A6000A07BA685231081000A8541802301810077
:102A7000A3010100EF805047F2406244D244056157
:102A800082804945D5BFB72700202389A7C6828009
:102A90006F801054797152CC2A8A328522D426D282
:102AA0004AD04ECE56CA5AC85EC606D662C4AE8B4F
:102AB000B28A368BBA843E89C2894684EF70F03080
:102AC00015C92A8C63140A0213774B00834745000B
:102AD00015CF93E727012302FC008DEC631C09024C
:102AE000639A090205E8ED9B2302FC00832B8C030B
:102AF00063910B08B250225492540259F249624A2F
:102B0000D24A424BB24B224C45618280F59B93E7FF
:102B10000701D1B793E747002302FC0001CC1C4812
:102B20004146A2852324FC0213058C0197D0FA1F8D
:102B3000E780006B63930B02D5D80325CC0209C54F
:102B400097D0FA1FE780405CF145268597D0FA1FA1
:102B5000E780E06E2326AC0251BFE30909F80325A4
:102B6000CC0209C597D0FA1FE780005AF1454A8583
:102B7000F1BF9DC483A70B0299EB916593853571D5
:102B8000714597D0FA1FE780E04B23A0AB0203A565
:102B90000B0219C57146A68597D0FA1FE7804064DD
:102BA0006388090283A74B0299EB91659385257190
:102BB0005D4597D0FA1FE780E04823A2AB0203A54A
:102BC0004B0219C55D46CE8597D0FA1FE78040615C
:102BD0001DC483A78B0299EB9165938515715145AF
:102BE00097D0FA1FE780004623A4AB0203A58B020F
:102BF00019C55146A28597D0FA1FE780605E22541E
:102C0000B2509254F249B24B224CCA865A860259AB
:102C1000424BD6855285D24A624A45616FF08FEAAF
:102C2000011126CA52C406CE22CC4AC84EC62A8AF0
:102C3000AE84EF70901925C5AA893945EFC09FF47D
:102C40002A8431CDB727002003C987B56314090052
:102C500003C909009307000D2310F400AD472301B9
:102C6000F4009385690013053400194697D0FA1FC4
:102C7000E780005793F71400858085882306F400C9
:102C8000A306940023154401A2856244F240D24475
:102C9000B249224A4A85424905616FC0BFF9F240F4
:102CA0006244D2444249B249224A056182800111FC
:102CB0004EC652C456C206CE22CC26CA4AC8AA8ADA
:102CC0002E8AB289EF7070102DCD2A891305C002AB
:102CD000EFC05FEB2A8435C5B727002083C487B5D2
:102CE00099E0834409009307000D2310F400E9479D
:102CF0002301F4009305690013053400194697D0A9
:102D0000FA1FE780E04DD285231554011305C40056
:102D1000414697D0FA1FE780A04CCE851305C40129
:102D2000414697D0FA1FE780A04BA2856244F2404B
:102D30004249B249224A924A2685D24405616FC06F
:102D40007FEFF2406244D2444249B249224A924A59
:102D500005618280411122C4372400201304C494E9
:102D6000084006C619C597D0FA1FE780E03923202E
:102D70000400B240224441018280011106CE22CCDF
:102D800026CA4AC82EC6EF70500439CDB245B727BF
:102D9000002003C987B50CD5AA8463140900034930
:102DA00005004145EFC01FDE2A841DCD9307000DAD
:102DB0002310F500A5472301F50083C75400938530
:102DC00064001105A30FF5FE194697D0FA1FE7809E
:102DD00020419C54A285F2405CC46244D2444A859E
:102DE000424905616FC01FE5F2406244D244424946
:102DF000056182801D71A2CC86CE2A842EC6EF701A
:102E0000C07C05CD8346C5001147AA87494563921A
:102E1000E6029C5FB24599C383C56701B7C605004A
:102E20002308B1009386267E100889452285EF800D
:102E30002001F6406644256182805145DDBFB727F9
:102E4000002083C747C70547FD1793F7F70F637A3D
:102E5000F704894721CA411122C426C24AC006C6C6
:102E6000B2842E89EF7060762A84D14705C5630845
:102E700009008347450093E727002302F5004146F8
:102E8000A6851305840197D0FA1FE78060359C481A
:102E90001CD48147B2402244924402493E854101FC
:102EA0008280C9473E858280797122D406D62A84E1
:102EB0002EC6EF70807101CDB2452285230EB10080
:102EC0006C08EF70B07DB25022544561828051454C
:102ED000DDBF6F703006C1671387E7FF6395E502BA
:102EE000B727002083A7879591EB49458280494504
:102EF000B2402244924402494101828003A3070068
:102F0000E30503FE0283411122C426C24AC006C65D
:102F1000FD172A892E84B284639AF502B727002010
:102F200083A7879591CF9C4381CF829711E9B727DB
:102F3000002023862797B7270020A38697964DBFAA
:102F4000A6854A85EFE0DFD945F5D5B72E85EF7028
:102F5000C06751DD834705000D45E39B27F92285B6
:102F60002244B2400249A685924441016FB010024A
:102F70009307200463E2A7064111C16722C406C675
:102F800026C2FD172A8409456382F502C547AE842F
:102F90006313F4022E85EFB0F006372500201305E9
:102FA00085B206042A94231094000145B2402244BD
:102FB0009244410182809307A0036316F4002E859A
:102FC000EFB0807DD9BF9307B003E318F4FC13F58D
:102FD000F50FEFB0A07CD1B709458280011106CE74
:102FE0002AC6EFE01FD2EF10401FEFA0816BB7277A
:102FF0000020938707BB130700F02391E70023828B
:103000000700B72700203245138707C7FD56230165
:10301000D700F2402388A7C6954505616F50B06878
:10302000597193970501A6D286D6A2D4CAD0CECE26
:10303000D2CCD6CADAC8DEC6E2C4E6C2EAC06EDEC8
:10304000C187AE8463D20752B729002003C509C7E0
:1030500037240020372A0020EFC03FB72A8DB72A37
:103060000020B72B0020B72C0020130404BB6313EF
:103070000D022165258DB650265496540659F64901
:10308000664AD64A464BB64B264C964C064DF25DE8
:103090006561828083470D001307200A639CE70067
:1030A0000349340003552D00C1656A86FD15EFF014
:1030B000AF918DA2138709C7034927001307100991
:1030C0006397E71683471D001547639EE7006A85EF
:1030D000EFF04F946A85EFC03FA803C509C7EFC062
:1030E000DFAE2A8D69B73947639DE71603554D005A
:1030F0008567A5076316F50483258D0003CB0500BE
:10310000631D0B00850591C9B7270020194613855B
:1031100087BC97D0FA1FE780A00C034704008547BF
:103120006317F71063080B00230004005A85EFF0C3
:103130006FC24DB789472300F400EFB0E06759BF75
:10314000896713872700631CE504032B8D00630048
:103150000B0E83470B0089EF83472B0003471B00AF
:10316000A207D98F2314F40083473B00A300F40087
:10317000034704008947631CF70A83470B0091C784
:103180002300040003450B005DB78345140003557D
:1031900084008D472300F400EF50F053E5B7950706
:1031A0006319F50083278D0003C50700EFF0CFE317
:1031B00015B7F9771387A7FF2A97420741839146EE
:1031C00063F1E6049387A7FCAA97C207C1837147FE
:1031D0006371F70289671387B7006310E50483A75B
:1031E0004A95E38907EE9C43EA85E38507EE8297DB
:1031F00015A0370700181307F770B357F700858B32
:10320000B9CB8327CA95E38707EC9C43E38407EC9B
:103210006A858297E31005EC19A81387C70063112C
:10322000E50283278D0083C70700E38507EA93073C
:10323000F00FE301F9EAEA854A85EFC0BF9F71BD4F
:10324000B907631AF500B727002083A78795E383A2
:1032500007E8DC4351BF896793871704E301F5F85A
:10326000F9B73D47639BE70403554D008967138712
:10327000D700E30AE5FC13879701E306E5FCCD07D9
:10328000E317F5FA03576400C167FD17631FF700E2
:10329000B727002083A78795E38E07E2DC43E38B03
:1032A00007E20965EA854D0599B7B727002083A78E
:1032B0000796E38107E29C43DDB71307E003E39839
:1032C000E7F683472D0005476396E70E83476D00B9
:1032D00037270020930DC794F1E383A70D00C5CFD6
:1032E00003CB0700214903457D00130C8D00E285C7
:1032F000EFE05FDF83474D01A303AD0083580D016D
:103300000358ED0003574D002A8603453D003EC299
:1033100083572D01E286DA853EC0CA87EFF0EFBB06
:1033200083473D0095E7DD4783580D010358ED00C5
:1033300083467D0083554D003EC283572D01628731
:103340003EC0CA8705465A85EF700061A301AD00F3
:1033500083A70D0081C71145EFF0DF9F138BCB963C
:1033600003450B00E30805D683C5DC96EFE05F97C5
:10337000E30205D683463D0093071003638AF600F7
:1033800003564D0083450B004A873685EFE09FA723
:1033900023860B9681B3034B3400A9B78327CA95C4
:1033A000034B34001149A1D3DC4395DF814501452E
:1033B000829715BF29476398E70A83476D0037272F
:1033C0000020930DC794A5EF83A70D00B5C703CBCD
:1033D0000700214903457D0093068D009377250062
:1033E000BDCB13761500130E4D0183470D02835894
:1033F000CD010358AD0103574D0003453D003EC2CA
:103400008357ED01DA8572CE3EC0CA87EFF0EFAC8C
:1034100083473D00724E8DFFDD478358CD01035831
:10342000AD0183467D0083554D003EC28357ED01BB
:1034300072873EC0CA8739B7034B340059BF832710
:10344000CA95034B34001149D1D7DC43C1D781451C
:103450000145829741B7B68536CEEFE0BFC8F24648
:103460002A86368E59B70947639CE70083A74A9599
:10347000E38207C6DC43E38F07C46A85829799B964
:103480002D476398E70083A74A95E38507C49C47C7
:10349000DDB70D476397E7006A868D4503554D00FC
:1034A00039B119476395E706930561021305103199
:1034B000EFA0C1272C1013052031EFA021270356C0
:1034C0006D008357810203554D0063E8C7008356A2
:1034D0008D000357610263F7E60093050002EFB029
:1034E0006031CDBE6374E6002313ED0063F4D700B2
:1034F0002314FD000357CD008356AD0003568D0005
:1035000083556D0001488147EFB0802EE1B61D471D
:10351000E38FE7D031476395E7006A86B145BDBFC9
:1035200035476398E70083A74A95E38507BADC47E8
:1035300099B74947639DE7008327CA95E38907CE7A
:10354000DC43E38607CE814505458297CDB14D47E3
:10355000E39FE7CC8327CA95E38B07CCDC43E38862
:1035600007CCEA850945D5B793F7150089CFB7276A
:10357000002083A7479589C7DC4399C301458297FB
:1035800013C51400CDBC93F7250091CFB7270020B9
:1035900083A7C79591C7DC4381C7814505458297BD
:1035A00013C52400C9BC93F745000145E38507AC6A
:1035B000B727002083A7079537240020130404BBF6
:1035C00091CF85472302F400B727002083A7C79532
:1035D00091C7DC4381C781450545829748442C103B
:1035E000EF70F07C2810EFF00F9BB727002083D7F7
:1035F000A7B481CF130600643386C702B727002023
:1036000003C507C79145EFC05FA813C54400A5B423
:10361000411122C4372400200325049506C619C58C
:1036200097D0FA1FE78040AE23280494B24022448A
:1036300041018280757122C53724002083270495BB
:1036400006C726C34AC1CEDED2DCD6DADAD8DED649
:10365000E2D40545638D070E9305F1051305F0418E
:10366000EF80C16F9305F1051305F041EF80016F05
:10367000B7270020938707BB83C727000347F105BF
:10368000B337F00011C3890703270495BEC603456D
:10369000370093054700EFE07FA003270495AAC4F5
:1036A0000D4583452700AEC2EFF08FB6AAC0114585
:1036B000EFF00FB6032404952ADE65450347A40006
:1036C000034CB4003ADCEFF0AFB4AA846945EFF0E4
:1036D0002FB42A897145EFF0AFB3AA896D45EFF099
:1036E0002FB32A8A7545EFF0AFB2AA8A7945EFF079
:1036F0002FB22A8B13050004EFF08FB1AA8B1305AC
:103700001004EFF0EFB0E2042648B6476257F256D5
:10371000064696451375F50F93FBFB0F137BFB0FC6
:1037200093FAFA0F137AFA0F93F9F90F1379F90F45
:10373000E1842AD05ECE5ACC56CA52C84EC64AC47C
:1037400026C262C0930844000545EFB0600CBA4041
:103750002A449A440A49F659665AD65A465BB65BD9
:10376000265C49618280011122CC06CE26CA8D4793
:103770002E846315F50603C73500B7240020E947FA
:1037800003D54500938404BB6316F70083D7640018
:103790006382A706EF60706309C58357640023172F
:1037A000F5000357A4008356840003566400835534
:1037B000440003453400EFE09FE10357440083D702
:1037C00064006309F7008547F2406244D2443E85B5
:1037D00005618280FD572393F400F5B78967CD0713
:1037E000631DF50083C7250031476385E700454722
:1037F000E39BE7FCEFE02FEDF9B7B1476319F50064
:10380000B727002003C557C7EFE0BFE76DBF41678B
:103810007D178147E31AE5FA83C655004947E395CA
:10382000E6FA83C545000355240030002314010047
:10383000EF60504649BF411122C43724002083471E
:10384000E49626C206C64AC01307E00FAE8463861C
:10385000E7041307F00F1304E4966387E7021145AA
:10386000EFC04FB215C1930700FD2300F500894753
:103870002301F5008547A3009500A301F500AA8563
:1038800003450400EFC00FBBF9572300F400B2401A
:10389000224492440249410182802A891145EFC0A5
:1038A0006FAE75D5930700FD2300F500894723010E
:1038B000F500A3009500A30125012244B7270020AD
:1038C000B24092440249AA8503C5F79641016FC0F0
:1038D0006FB679714AD0372900208327099522D401
:1038E00006D626D24ECE52CC56CA4544D5EFB72482
:1038F0000020938704C783C747004944958BCDC7F1
:10390000B72700202E8A9165A387A796AA89938559
:103910007571314597C0FA1FE780C0722328A994BA
:103920004D4459C123003501A30005002946D28525
:10393000090597D0FA1FE780A08A83270995914649
:1039400003C7270063EDE60835EB4D472381E70009
:1039500003C72700136707012381E7009305710060
:103960001305F041EF80813F83477100F1EBB727EA
:10397000002003C727BB8D476314F70CEFE09F803F
:103980002C00EF70D0422800EFE0FFE04545EFF05B
:103990002F88014411C9130600643306C50203C50C
:1039A00004C79145EFC06FEE2285B2502254925465
:1039B0000259F249624AD24A4561828085466314BF
:1039C000D700754761B789466314D7004947BDBF23
:1039D0008D466314D700414795BF554785BF95462F
:1039E000CA8A630ED70099466316D7000947238118
:1039F000E70031A01D466314C70223810700654517
:103A0000EFF00F819307F007E30AF5F403A70A9597
:103A10008347270093E707042301F70081B7214676
:103A20006314C7000547E1B725466315C700238126
:103A3000D700F1B7A9460544E318D7F6114745BFAB
:103A4000D53E2A8435D1EFF0BFBCB9BF011126CADB
:103A5000B724002083A7049522CC06CE4AC8494447
:103A6000B1C783C707000D446392A704372900201C
:103A7000034509C78945EFC05F82034509C7B727DA
:103A80000020914523980796EFC03F8183A70495B6
:103A900001478146A38087001306F10085478545CD
:103AA0000145A307F100EFA0105A2A842285F240B5
:103AB0006244D244424905618280011106CE22CC83
:103AC00026CA4AC88547631EF5063724002013041A
