:040000006F20802CC1
:10000400000000000000000090000020A204002076
:10001400A9BDF9F3900000200000000000000000DA
:10002400900000209000002000000000000000006C
:10003400900000200000000090000020000000005C
:100044000C08002090000020900000209000002068
:100054009000002090000020AC05002090000020BB
:1000640090000020900000209000002090000020CC
:1000740096050020900000209000002090000020B1
:1000840090000020900000204A42000090000020D0
:1000940001A04111B7170040985F3AC6945F3247F8
:1000A400E39CE6FE32454101828073270080218B68
:1000B4009387018709CB7327008023A8E18698439F
:1000C4005D9B731007800F100000371700409306E4
:1000D40070052300D704930680FA2300D7040F1079
:1000E40000008346B70493F6F60DA305D704230056
:1000F4000704732600809443A18AD18E73900680EE
:1001040023A801860F100000937605026384061865
:100114000347A700118B25E773270080218B09CBA8
:100124007327008023A8E18698435D9B73100780A2
:100134000F10000037170040930670052300D70402
:10014400930680FA2300D7040F1000008346A7000B
:1001540093E646002305D70023000704F326008016
:100164009843218B558F7310078023A801860F10A5
:1001740000001307004B010001007D176DFF73277A
:100184000080218B09CB7327008023A8E186984344
:100194005D9B731007800F10000037170040930613
:1001A40070052300D704930680FA2300D7040F10A8
:1001B40000007D892314A700010001000100010053
:1001C40023000704F32600809843218B558F731076
:1001D400078023A801860F10000073270080218B5D
:1001E40009CB7327008023A8E18698435D9B731095
:1001F40007800F1000003717004093067005230096
:10020400D704930680FA2300D7040F1000000F10C0
:100214000000B726004013061005A383C680230000
:100224000704F32600809843218B558F73100780B1
:1002340023A801860F10000073270080218B09CBAF
:100244007327008023A8E18698435D9B7310078081
:100254000F10000037170040930670052300D704E1
:10026400930680FA2300D7040F1000008346B704D6
:1002740093E60608A305D704230007047327008028
:100284009C43A18BD98F7390078023A801860F10FC
:100294000000828093760504638B06140347A7004D
:1002A400418B25E773270080218B09CB73270080BE
:1002B40023A8E18698435D9B731007800F1000000C
:1002C40037170040930670052300D704930680FA7D
:1002D4002300D7040F1000008346A70093E606010D
:1002E4002305D70023000704F32600809843218BBD
:1002F400558F7310078023A801860F100000130781
:10030400007D010001007D176DFF73270080218BA4
:1003140009CB7327008023A8E18698435D9B731063
:1003240007800F1000003717004093067005230064
:10033400D704930680FA2300D7040F1000009376A5
:10034400F50193E606042314D7000100010001001F
:10035400010023000704F32600809843218B558F66
:100364007310078023A801860F1000001307600490
:100374006310E50473270080218B09CB7327008069
:1003840023A8E18698435D9B731007800F1000003B
:1003940037170040930670052300D704930680FAAC
:1003A4002300D7040F100000B72600400946B5B556
:1003B40073270080218B09CB7327008023A8E18653
:1003C40098435D9B731007800F100000371700409F
:1003D400930670052300D704930680FA2300D704FC
:1003E4000F100000B7260040130620053DB5732703
:1003F4000080218B09CB7327008023A8E1869843D2
:100404005D9B731007800F100000371700409306A0
:1004140070052300D704930680FA2300D7040F1035
:1004240000008356870093E6060C2314D700C5BB4F
:100434004111814601468145114506C6E921F3274C
:100444000080A18B9386018789CBF327008023A8A2
:10045400F1869C42DD9B739007800F100000B71754
:100464000040130770052380E704130780FA2380F4
:10047400E7040F10000003C7670413671700238302
:10048400E70423800704732700809C42A18BD98F43
:100494007390078023A801860F100000B240410129
:1004A40082808146014681451145B129F3270080A8
:1004B400A18B1387018789CBF327008023A8F186BA
:1004C4001C43DD9B739007800F100000B71700409A
:1004D400930670052380D704930680FA2380D704FB
:1004E4000F100000FD562396D70223800704F3263D
:1004F40000801C43A18BD58F7390078023A80186AD
:100504000F100000F3270080A18B89CBF327008014
:1005140023A8F1861C43DD9B739007800F10000015
:10052400B7170040930670052380D704930680FA1A
:100534002380D7040F10000083C6670493E61600D7
:100544002383D70423800704F32600801C43A18B54
:10055400D58F7390078023A801860F10000001A097
:10056400BD473305F50201007D1575FD82804111FB
:1005740022C426C206C6AA84014463179400B2406A
:10058400224492444101828005041305803E4204C2
:10059400C13F4180DDB7B71700401307000323882C
:1005A400E702854723A0F18A73002030B787004013
:1005B40003C76700098B630C072003C77700930602
:1005C4000003137707036301D70803C8418B13861D
:1005D400818A0547B30606012380E60083C57700B8
:1005E4001387018B429793F5F50F2300B70003C5DA
:1005F40087009385C18AC2951375F50F2380A500E2
:100604000347070089451377F7036305B70C63E0D5
:10061400E50A6307071885456301B71283C7418B51
:100624003307F600034707001377F70F09CB850755
:1006340093F7F70F0D476366F718238AF18AB78794
:10064400004009472383E700B787004083C777004A
:10065400E207E18763D4070483C7418B1387818A48
:100664003E9785462300D7001387018B3E97930658
:1006740000032300D7001387C18A3E97A14685074C
:100684002300D70093F7F70F0D47636FF712238A00
:10069400F18AB787004009472383E700854503C5EE
:1006A400418A975000E0E78020867300203093064B
:1006B40010026308D70C930620026301D706930641
:1006C4000002E31DD7F403C727021377C70F13678C
:1006D4002700D5A003C767001377070465C303C7C2
:1006E400A702138881BC138581B4134707082385A7
:1006F400E70203C7A7021377370F13678700238521
:10070400E702814713070004B305F5008C41B306E3
:10071400F80091078CC2E399E7FE09B703C7A70263
:10072400134707042385E70203C7A7021377C70FFC
:10073400136727002385E702D5B503C7670013773E
:1007440007042DCF03C76702138881B0138581A8DE
:10075400134707082383E70203C767021377370F9A
:10076400136787002383E702814713070004B30557
:10077400F5008C41B306F80091078CC2E399E7FEBB
:1007840071BD03C76702134707042383E70203C746
:1007940067021377C70F136727002383E702BDBDE2
:1007A40003C767001377070411CB03C72702137726
:1007B400370F136787002381E7028DB52380060076
:1007C400B1BD238A018AA5BD238A018AD9B503C78D
:1007D4006700058B11C705472383E7008945C1B529
:1007E40003C76700118BE30207EC11472383E7007B
:1007F400914575B5411106C6974000E0E780E02CAD
:10080400974000E0E7802031612DFDB73727004095
:1008140083476700858B85CB85462303D700938761
:10082400018D9C43850723A8F18C294733F7E70200
:1008340019E32386D18C13074006B3F7E70281E757
:100844008547A386F18C7300203023030480154769
:100854002303E48001002302A48082808307648050
:10086400E3CE07FE23030480828083076480E3CE03
:1008740007FE03454480828083076480E3CE07FE3D
:100884002302A4808280411126C44AC24EC006C6F7
:100894001377F50BAD47AA892E8995446306F700B3
:1008A40019456537653F8D444E854537FD59FD141F
:1008B40063983401B240A2441249824941018280C2
:1008C400135509011375F50F453F2209CDB70111E1
:1008D40026CC06CEB704080051371545BD3771370D
:1008E40069372AC6A53F32459377150089EB13650E
:1008F40015001375F50FF240E24405618280FD1482
:10090400E9FC0145CDBF397126DC4ADA4ED852D60E
:1009140056D45AD25ED006DE62CE66CCB7E700E08B
:100924007D5783AA070022C603AA470023A0E7181D
:1009340023A2E718B7170040130770052380E704C4
:10094400130780FA2380E70483C74704930B75FFDA
:10095400B684E20793FBFB0F8546AA892E8B328966
:1009640037240040E187015763FA76016308D50014
:100974008946130700026313D5000157D98F93F7F3
:10098400F70FB71C00402382FC0411472303E480C3
:100994001305F00F5D3D094CD135636D7C11B7052E
:1009A4000700DA9537870700795563F2E504B387C2
:1009B4009500636EF702370B0800A94733EB650116
:1009C4006399F90689E48144513D26850DA0DA85B1
:1009D4000945553D05090345F9FFFD14050B693D1E
:1009E40081C49377FB0FFDF7DD3569FD7D55B7179E
:1009F4000040130770052380E704130780FA23805F
:100A0400E70403C74704418B2382E704F250B7E7A6
:100A140000E023A0571123A24711E2543244525953
:100A2400C259325AA25A125B825B724CE24C216167
:100A34008280A5476395F90685691309F00FB3060B
:100A44009900B3742B01B6941349F9FFB374990058
:100A5400856B33796901416B9387F9FFB3F72701FC
:100A640099E363FC340193D94900C147E3E637FFB6
:100A740099BF0569C1697D19D9B71305800D6388CC
:100A84006901130500026384790113051008CA85FE
:100A9400DD3B353D21DD4E99B3843441D9B7DA8548
:100AA4002D45D533CA94E30099F205097D3BA30F84
:100AB400A9FED5BF9387F9FF93F7F70F6361FC0C89
:100AC40083C71C0413073008631FF70437070800A3
:100AD400636BEB04B3079B00B706100063F5D70400
:100AE400334BEB0089476393F9068980D549E38C3E
:100AF40004ECDA850945413B11090327C9FF9147F5
:100B04002320E48003076480E34E07FE230334813B
:100B1400FD17EDFBFD14110B81C49377FB0FE9FF67
:100B24007D3371F5E1B5B717004003C75704B70724
:100B340008001377070219E3B78707007955E378AC
:100B4400FBEA33079B00E3FFE7F855B58547E382EB
:100B5400F9F2DA852D45053B9389F4FFE38504E634
:100B6400293393F7390091EB832604800327090086
:100B740093074900E39AE6E43E89CE84F1BFB54782
:100B84006396F9001305900BC93135BDB1471305C0
:100B9400B00AE38BF9FE99476391F904B70508009D
:100BA400B365BB002D45C53181448D4BA1497539D1
:100BB40063967401832704802320F9008504E39855
:100BC40034FF8327048013172B0163550700231276
:100BD400F900D5BB2322F900FDB39D476399F902BF
:100BE40081451305B0044531BD4423200900232267
:100BF4000900FD599D3993F77400CA9703C707008C
:100C0400FD14398D2380A700E39634FF6DBBA14703
:100C14006392F9046D398144630D0B008D4793048D
:100C2400C0036308FB009304000563048B01930471
:100C340040041375C507E30895D819453931393986
:100C44000545213126850D3909453D314931E31CDE
:100C540005D669BB91476399F90013056006F5361B
:100C6400F53E130590090DB7E38F09D4F154A9BBE0
:100C740019CD91CD09CE81473387F500834607000E
:100C84003307F50085072300D700E317F6FE8280BB
:100C940019C991C909CA910583A7C5FF11057D1614
:100CA400232EF5FEC5BF828001C919C62A96050503
:100CB400A30FB5FEE31DA6FE828081473307F5002E
:100CC4000307070019E33E8582808507C5BF01112C
:100CD4002E8626CAAA84131506019305F0044181C1
:100CE40022CC06CE32C6EF00F0512A8401C532462A
:100CF400A685BD3F2285F2406244D24405618280CC
:100D0400854715C18DC105C28147B306F5003387F8
:100D1400F50083C60600034707006398E6008507CD
:100D2400E315F6FE85473E8582808147EDBF930734
:100D3400F6FFBE952A966313C5008280FD1583C70E
:100D440015000505A30FF5FEFDB7AA87014581CF60
:100D540009CE3E96850703C7F7FF6317B700E39BE9
:100D6400C7FE054582808280014582807971938720
:100D7400C18E22D4804306D626D24AD04ECE52CC3F
:100D840056CA5AC85EC65DCCB7C4C901014B938923
:100D9400418E9384F437174A0000130AEA29974ACC
:100DA4000000938A2A2D174900001309E93083575C
:100DB400240085E35C44631B0B0023A6F18E832B84
:100DC400C4002285EF0070505E84B9A82326FB007E
:100DD400FDB783A7090082971C443307F540637667
:100DE400F500032749001D8F2A9763E0E40897471D
:100DF400000023A9072883552400034504009740D5
:100E040000E0E78060105C405844A1CB0C4403260A
:100E14004900AE97BE8663E4B70063E4C700B386B7
:100E2400C74014C4228B3A8459F097470000938733
:100E340067249C4B09476370F706F91717470000AE
:100E44002322F724B250225492540259F249624A9E
:100E5400D24A424BB24B4561828063150B0023A6F4
:100E6400E18EB1BF2326EB0099BF03274A0209CFC5
:100E740063EFA7003385A74083A70A016376F500D3
:100E84009747000023A0A720228B404471BF03276B
:100E94004900BA97C5B79747000023A5071E5DB759
:100EA400411122C4174400001304441F1C4006C609
:100EB40026C24AC091C782979747000023A0071E05
:100EC4009747000083C75737858B97440000938466
:100ED400643695C397470000A380073683C7740020
:100EE4001547637AF700052B83C77400F5178A0743
:100EF400A2979C4382971C4491C382971389818D46
:100F040003270900174600000346D616974700003A
:100F140083C7471693961700BA9683D60600C5CEA4
:100F24009747000083C7071563E1C70C9747000084
:100F3400238207141C40639507129747000083C758
:100F4400F72F91CF83C7740093F7F70F89EB974777
:100F54000000A385072E974001E0E780E0199387FE
:100F6400418E9C43638E070E974700009387C714F6
:100F7400DC43174700002327F710CD3B97470000B9
:100F84009387870BDC53E9CF174700001307870EBD
:100F9400184B9747000083C7770B6363F70C83C72D
:100FA40074001547636EF70A9747000083C7072D3F
:100FB400918BDDE7032609009746000083C6960B54
:100FC40063C6D70A2244B2409244024941011773CE
:100FD40003E06700E326850793F7F70F97460000C1
:100FE400238AF608E3E4C7F225BF86073E978355B4
:100FF4000700231007002390018E9387018F9C43E1
:10100400174500000345050713172500BA979C43AD
:10101400829783D7018E174700000347A70593C71C
:10102400F7FF7D8D93171700032709003E97835719
:1010340007005D8D2310A7009747000083C787032F
:1010440091C78507174700002306F70217470000DA
:10105400034747029747000083C7D701E378F7ECBB
:10106400B2402244924402494101828013971700FE
:101074003297035707006DF7850799B7AD6737C7F0
:101084000040BD072326F7200F10000097470000FB
:10109400938747FEC84F83278726BD66BD0693C73F
:1010A400F7FF99836A052326D7205D8D828041113D
:1010B400B7170040985F3AC6945F3247E39CE6FE58
:1010C4003245410182801305F00F82800111974758
:1010D40000009387272222CC03A4070C26CA06CE3D
:1010E4002AC42EC6854419E40145F2406244D24420
:1010F400056182808347910003471400858B630454
:10110400F7000044CDB719469305A1001305240048
:10111400C53EE31895FE0545C9BF1387C19A1C4314
:101124009306001094C301000100010001001C4358
:1011340023A007008346150003482500A2064208A1
:10114400C29603480500C296034835006208C29659
:1011540094D78346550003486500A2064208C29608
:1011640003484500C296034875006208C296D4D766
:10117400834695000348A500A2064208C296034888
:101184008500C2960348B5006208C29694DB834684
:10119400D5000348E500A2064208C2960348C500EC
:1011A4000345F500C2966205AA96D4DB83C61500F2
:1011B40003C52500A2064205AA9603C50500AA9602
:1011C40003C535006205AA9694CF83C6550003C5AE
:1011D4006500A2064205AA9603C54500AA9603C562
:1011E40075006205AA96D4CF83C6950003C5A500F1
:1011F400A2064205AA9603C58500AA9603C5B500B2
:101204006205AA9694D383C6D50003C5E500A20659
:101214004205AA9603C5C50083C5F500AA96E20552
:10122400AE96D4D3D443F59AD4C3D44393E61600EC
:10123400D4C3944393E6160094C3BA879443D84224
:10124400058B59E3984E01452300E6009843184F57
:101254002183A300E6009843184F41832301E6004D
:101264009843184F6183A301E6009C43D84F23029F
:10127400E600D84F2183A302E600D84F418323031D
:10128400E600D84F6183A303E60098532304E600E5
:1012940098532183A304E600985341832305E60071
:1012A40098536183A305E600D8532306E600D85378
:1012B4002183A306E600D85341832307E600DC53C9
:1012C400E183A307F600828001008DBF1387019B91
:1012D4001443411122C49C5E4AC006C6998326C2A7
:1012E400858B3A841389C19AD1C79C5E97440000C8
:1012F400938444F493F7F7F99CDE174700000347FF
:10130400C7F393070008631BF700832709009C4376
:1013140093F70704174700002301F7F283C704007B
:1013240093F707048DC39387418E9C438297974715
:10133400000023A9A7F083C7040093F7F70B17470E
:1013440000002309F7EE83C7440093F707049DE3E5
:10135400854717470000A301F7EE9387C19B9C4381
:10136400096798C7130700FC974600002386E6EC3C
:10137400D844F8D31C40985F1183058B09CB985F40
:101384003D9B98DF0547974600002387E6EA985F70
:101394001D83058B11CB985F1377F7F798DF85478B
:1013A40017470000230AF7E883270900D843058379
:1013B400058B19C7D843759BD8C3D843799BD8C329
:1013C400B24022449244024941018280397106DECE
:1013D40016DC1ADA1ED82AD62ED432D236D03ACE19
:1013E4003ECC42CA46C872C676C47AC27EC0F93DB3
:1013F400F250E2525253C2533255A25512568256FB
:101404007247E2475248C248324EA24E124F824FB0
:101414002161730020309387C19B94439747000058
:10142400938747E103C70700058B11CB974700005B
:10143400238407E097470000A38007E0828003C766
:101444001700058B65F7F85271FF83C75700DDB7A6
:101454001388019B032708001C5F9583858BD1E7C4
:1014640009C61C5BBD832300F60085CA83270800D8
:10147400985B4607935767016356070093E707C0D5
:10148400C207C18303970600C207C18709C7BA9779
:101494000947B3C7E7022390F60085CD83471500BB
:1014A4008DCB9746000083C646D993F6060413876E
:1014B400970089478DCA3A950347050085469947A1
:1014C4001376F7066311D60262076187B947634C46
:1014D4000700832708009C5FED838D8B174700006E
:1014E400A30FF7D481473E8582808547EDBF411124
:1014F40022C406C61384C19B18402DE9AE877453D9
:10150400FDFE3E85B28597470000238607D29740AB
:1015140001E0E780A0939387019B9C43B70680007A
:101524009843558F98C3D857719BD8D797470000D5
:10153400A38407D097470000A38E07CE1C40094719
:1015440098C31440174700001307C7CE83472700EA
:10155400858B89EB83473700858BD9C39747000078
:10156400238C07CCB2402244410182808D47631E04
:10157400F5009387019B9C43B70680009843558FE1
:1015840098C3D857719BD8D76DBF8547E31BF5FA2D
:101594005447F977FD17F58F5CC70F1000001C4006
:1015A400096798C7130700F8174600002306E6C822
:1015B4001387019B1043184231830D8B11E71307E6
:1015C4006019F8D3D4C7B5BF1842094631830D8BCF
:1015D4006315C7001307E043EDB71307E01BD5B746
:1015E400FC52ADF741B75D71A2C4A6C22A841306AA
:1015F40080022800AE849305100886C6CAC04EDE59
:1016040052DCEFF06FEA3545974001E0E78060C0B7
:101614001383019B832703009376F41F138E419C4D
:1016240023A40700984B938EC19B370FFCFF1367CD
:10163400F70398CBF84F130510F8B702040013779B
:1016440007E0558FF8CF9843F576FD16758F98C34C
:101654009843B7063300930380251377F7E798C3BD
:10166400984311497D1F1377F7E71367071098C351
:1016740003270E008549930F80021C47D58F1CC792
:1016840083A70E001307900D3400B8CB0147935580
:101694003700A69583C7050013767700B3D7C740F4
:1016A400858BE1C38327030083280E00239C070452
:1016B4002390070603A8C8021378D8FF23A60803BB
:1016C40083A807001378F70793F808F833E80801AC
:1016D40023A0070103A847023368580023A2070385
:1016E40083A80E00014823A2780603DA07066307DD
:1016F400480303A80703038A06001358F800620886
:101704001358884163580A0103A807031358F800C3
:101714002380060103D807061378F80F03AA4806A6
:1017240063060A0003DA8705E37F49FB03A847023F
:101734003378E80123A2070383870600635CF4007F
:1017440003C805003396C9001346F6FF3376060135
:101754002380C5003E8663D3A7002A86131586011D
:10176400618505071377F70F8506E312F7F3B64093
:10177400264496440649F259625A616182809386EE
:10178400C19B9C42D847131617016355060298471C
:1017940013161701635006027D57B8D71747000088
:1017A4001307478D584F0507174600002322E68E7E
:1017B400116798C798470D83058B1DCB1747000009
:1017C400034767A713671700174600002305E6A61B
:1017D400130700F8174600002300E6A6214798C720
:1017E4001387019B10435856719B1367170058D6F3
:1017F4009847058B0DC7174700000347B7A3136726
:10180400170017460000A307E6A2054798C71387E9
:10181400019B10435856719B1367170058D698477D
:101824000983058B09E798470583058B21CF9847E2
:1018340017460000130606A01385019B0983058B38
:10184400630307101841184331830D8B75EBAC4BC0
:10185400184E93F5050203471700CDCD79EF130712
:101864007006D8CF03470600136717001746000019
:101874002302E69C114798C718415C57F19B93E7F4
:1018840017005CD79C4298479316370163D606022B
:101894009746000083C686ADC18A17470000130728
:1018A40067A5C5CE0347870713670702974600005D
:1018B400238EE6AA056798C798479316270163D134
:1018C400060217470000034727976207618763579B
:1018D40007000547974600002380E696096798C7E6
:1018E40098479316070163D606029746000083C6FD
:1018F400F6A7858A174700001307C79FADCE034795
:1019040097071367270097460000A381E6A621677F
:1019140098C7828029D785456315B7001307B00699
:1019240089B789456315B7001307F0061DBF8D45B8
:101934006315B700130730072DB71307500715B702
:101944001307600739BF03473600136717001746AC
:101954000000A302E68E094739BF8346870709467C
:10196400BD8A6388C600034787078D463D8BE31312
:10197400D7F4114725BF83469707918AC9DA0347ED
:1019840097071367870041B7397106DE16DC1ADA48
:101994001ED82AD62ED432D236D03ACE3ECC42CA23
:1019A40046C872C676C47AC27EC0D13BF250E252B7
:1019B4005253C2533255A255125682567247E247C9
:1019C4005248C248324EA24E124F824F21617300D8
:1019D40020309387C19B98438567938707777CD38F
:1019E4009387419C9C4383A607091396560063582A
:1019F400060083A607091396660063440600745321
:101A0400FDF2828061C1AA870145DDCD8D07C20741
:101A1400C183F19BC207C18313074003636BF702C1
:101A2400138701A50843138781A414436396A60270
:101A34001737000013074760185B014551C7411170
:101A4400C20706C60545DD8D0297B2400145410136
:101A540082801387C1A4F9B70357650035E30357A0
:101A64004500636FF704B306F7402146637CD60252
:101A740003280500938687001D8FAA9661171736E1
:101A840000000356865F2392E60023A006012393F9
:101A9400060014C12312F500130786FF97360000D1
:101AA400239DE65C2313B5009735000083D5E55CE0
:101AB400B387F540173700002311F75C21058280B6
:101AC4000841ADB701458280828009CD938701A585
:101AD40003A30700938781A483A8070081469A87FC
:101AE40063E31701828003A807006369F50A63674B
:101AF400A80A13878700E367E5FE03D6670021671A
:101B040005076317E60003C7419805072382E19898
:101B1400973500009385055603D6470003D7650023
:101B24002393070032974207418317350000231699
:101B3400E554638867021385C1A408416303F50271
:101B440003D5660019ED83D7460023A006012107BB
:101B54003E9621062392C60097370000239FE75044
:101B6400B6879843E30017F99386C1A49442E30B24
:101B7400D7F683566700BDF683D647000356470061
:101B84001843A106B2962392D70098C383D7650061
:101B9400A107173700002312F74E8280BE86C28742
:101BA40081B70327851163020712411122C406C6B7
:101BB4008347C5008345E5042A8493F7C70F2306AA
:101BC400F500834697000356C70013958601618587
:101BD40063F2C508635B05060345870093F6F607C1
:101BE400A304D700054693E627006314C50093E6D3
:101BF40017002306D4005C4389075CC3A30AB4001E
:101C0400032504112E864C430905EFF06F868327C4
:101C1400841103465401D44303D7C700B296118FED
:101C2400D4C32396E7008947A30DF4000347640354
:101C34009737000083C767416378F7048347C4007C
:101C440093E707012306F40081A093E71700230616
:101C5400F4006DB79376F60F635D050203458700C4
:101C6400854513E627006314B50013E61700230621
:101C7400C400A30AD400A30407008547A30DF400FD
:101C8400832784119C43DDF3B24022440145410182
:101C9400828093E717002306F400A30AD400A30468
:101CA4000700032504114C430905EFE07FFC83275B
:101CB400841103465401D44303D7C700B296118F4D
:101CC400D4C32396E7008D4755BF0545828093878B
:101CD40001A69C43411122C406C6858B2A84C5EF04
:101CE4004165130525F597F001E0E780809245C52D
:101CF4008347A5002315F50083270412BDE723209D
:101D0400A4122322A41285472311F40423200500DE
:101D14008347640154412316F5000347D400230488
:101D2400E5000547A304E5001737000013078750B3
:101D3400184F1385170215811C437D151375F50F74
:101D44009CC25C43DCC21C479CC65C47DCC61C4B83
:101D54009CCA5C4BDCCA1C4F9CCE5C4FDCCE19CDBC
:101D64009386060213070702C1BF8327441288C360
:101D7400835724042322A412850779B797370000D8
:101D840083D7C7578507173700002319F756B24082
:101D94002244410182808347C4002309040005458D
:101DA40093C747002306F400DDB78347850193F703
:101DB400E70FC5EF83479501CDEB03462501834625
:101DC400C50009CA83456503173700000347F72791
:101DD40063E7E50013F7060151CB014709C6C18A41
:101DE4000357651C81C68356A51C369741C3130748
:101DF400C712173500000355A52CB335A702374683
:101E04000F00411113060624814622C426C206C6C9
:101E14007D543305A702972002E0E780A08A973714
:101E2400000083C7F722B384A70097370000938785
:101E3400674C03A787098327070963F387003E8458
:101E4400184375FB9387418E9C4382978147636453
:101E5400A400B307A440B2402244B3B7970093C789
:101E6400170092443E854101828081473E858280ED
:101E74009387C19B98437C53FDFF8280797126D25E
:101E840006D622D44AD04ECE52CC56CA5AC85EC6C2
:101E94008347550303447513AA843E941374F40FC3
:101EA4009307400263F687001304B4FD1374F40F20
:101EB40003AA841383AAC413A38B84122286528593
:101EC400D685971002E0E780607A058915E503CB93
:101ED400D41201498149337B6403930B50024A862F
:101EE4005285D685971002E0E7804078058915C5AC
:101EF400639169031374F90F238B8412B250225433
:101F040092540259F249624AD24A424BB24B456159
:101F140082808509E20993D989410509E31179FD94
:101F2400E1BF8327850903560504797193D6070118
:101F3400BD8EC206C182358E1357764093575640E4
:101F4400898B058B5D8F93573640918B5D8F9357AB
:101F54001640A18B5D8F93171600C18B5D8F93176D
:101F6400360093F707025D8F93175600935586004A
:101F740093F707041E065D8F1376F60F518F93D7E0
:101F8400554013D63540118A898BD18F13D67540AD
:101F9400D18F13D61540218AD18F13961500418A0B
:101FA400D18F1396350013760602D18F1396550000
:101FB400137606049E05D18F93F5F50FCD8FA207F6
:101FC40045465D8F3307C70222D42A8426D252CCD9
:101FD40056CA032A8413832AC4135AC806D63697CA
:101FE4004207418393577740135557400989858B9E
:101FF400C98F135537401189C98F1355174021894B
:10200400C98F131517004189C98F1315370013752C
:102014000502C98F131557009355870013750504DE
:102024001E07C98F1377F70FD98F13D5354013D7F0
:1020340055401189098B498F13D57540498F13D5A4
:1020440015402189498F139515004189498F1395AE
:10205400350013750502498F139555001375050452
:102064009E05498F93F5F50F4D8F2207D98FB387BE
:10207400C7024AD04ECE5EC662C4B697C207C183B9
:1020840013D7774013D557400989058B498F13D54A
:1020940037401189498F13D517402189498F1395EA
:1020A40017004189498F1395370013750502498F2D
:1020B4001395570093D58700137505049E07498F20
:1020C40093F7F70FD98F13D5354013D7554011899E
:1020D400098B498F13D57540498F13D51540218934
:1020E400498F139515004189498F13953500137550
:1020F4000502498F13955500137505049E05498FF4
:1021040093F5F50F4D8F2207D98FB387C7021306B6
:1021140050025285D685B697BD8E93940601C18030
:1021240033F6C402137BF60F971002E0E7800054E5
:1021340005890DED8347D41201498149B38497027F
:10214400130C5002C1804A865285D685971002E04E
:10215400E780C0510589937BF90F11C56386340369
:10216400850993F9F90F0509E31F89FD230B64130E
:10217400B250225492540259F249624AD24A424B12
:10218400B24B224C456182805E8BCDB7797122D4EB
:1021940006D683C735002E8423160100A307F10059
:1021A40083C74500100802C02307F10083C7550008
:1021B4008A8502C2A306F10002C402C802CA02CC84
:1021C40002CEEFE09FF50347F10183470400014588
:1021D4006310F7020347E1018347140001456319C3
:1021E400F7000345D101834724001D8D13351500E5
:1021F400B2502254456182800111973700009387C1
:10220400670F22CC03A4870C26CA4AC84EC606CE42
:10221400AA8413092500854915C083C71400034700
:102224003400858B6304F700405CFDB719469305C1
:1022340044004A85EFE0DFACE31835FF2285F24025
:102244006244D2444249B2490561828041119737C0
:1022540000009387270A22C403A4870C26C24AC01D
:1022640006C693042500054901E82285B2402244AC
:102274009244024941018280A6851305A40239379C
:10228400E30525FF405CCDB74111973700009387E4
:10229400670622C403A4870C26C24AC006C6930458
:1022A4002500054901E82285B240224492440249AE
:1022B40041018280A6851305A401C93DE30525FFDC
:0422C400405CCDB7F6
:1022C80097110020938101DF17610020130101D3CA
:1022D8001305400097E5FF1F938545D21706002098
:1022E800130606FE63FAC5008322050023A05500E5
:1022F80011059105E3EAC5FE1765030013050500FE
:1023080097050020938505FC1386018763FAC500AD
:102318008322050023A0550011059105E3EAC5FEB7
:102328001385018797350020938585106377B5005D
:10233800232005001105E36DB5FEFD42739002BC34
:102348008D4273904280930280087390023097E226
:10235800FF1F9382A2CA93E232007390523037175C
:102368000040930770052300F704930780FA2300C1
:10237800F7040F1000003C47B70600FAE116F58F86
:10238800B70600069506D58F3CC7972200009382B2
:10239800C24C73901234730020303D432A87637314
:1023A800C3029377F700BDEFADE5937606FF3D8A4C
:1023B800BA960CC34CC30CC74CC74107E36BD7FE96
:1023C80011E28280B306C3408A06970200009696FF
:1023D8006780A6002307B700A306B7002306B70047
:1023E800A305B7002305B700A304B7002304B7006B
:1023F800A303B7002303B700A302B7002302B70063
:10240800A301B7002301B700A300B7002300B7005A
:10241800828093F5F50F93968500D58D93960501E7
:10242800D58D61B79396270097020000969686820D
:10243800E78086FA9680C1171D8F3E96E374C3F82D
:10244800A5B73367B500FD530D8B79E7B7877F7F55
:102458009387F7F710419441B372F6003363F6009F
:10246800BE92B3E262006397720C6318D6065041BD
:10247800D441B372F6003363F600BE92B3E2620051
:102488006398720A631BD60410459445B372F6002C
:102498003363F600BE92B3E262006391720A631E70
:1024A800D6025045D445B372F6003363F600BE92A7
:1024B800B3E26200639A72086311D6021049944924
:1024C800B372F6003363F600BE92B3E26200639320
:1024D80072085105D105E30FD6F613170601939735
:1024E8000601631CF7001357060193D7060133054D
:1024F800F7409375F50F91E982804183C1833305D5
:10250800F7409375F50F91E182801377F70F93F7F2
:10251800F70F3305F74082800346050083C60500A0
:10252800050585056313D60065FA3305D640828014
:1025380011059105E312D6FE014582802105A1050A
:10254800E31CD6FC014582803105B105E316D6FCB3
:10255800014582804105C105E310D6FC0145828012
:10256800B717004003C777051377E70FA38BE70476
:10257800130700F8A38DE7043D47238CE7041307EE
:102588005003A38CE7048280B717004083C7E70293
:102598000D8993F7C70FC98F73270080218B938606
:1025A800018709CB7327008023A8E18698425D9BA9
:1025B800731007800F1000003717004013067005CE
:1025C8002300C704130680FA2300C7040F10000075
:1025D8002307F70223000704732700809C42A18B7E
:1025E800D98F7390078023A801860F10000082807E
:1025F80041112A83014E930E407E130F0019930F49
:10260800400663E66E149308001913034006B37876
:102618001503854E0D4FA14F337365020D89133590
:10262800150063E0BE161308F6FF79467298420853
:10263800135808013307C70213D61700BE0732978D
:102648006146B3F6C60213068070B386C602369793
:10265800A166F58F42075D8FB716004083C7F60263
:1026680093F70708A307F1000346F10083C7F602B2
:1026780093F70708E394C7FE8347F100B7160040B5
:1026880093F7F70F63890714F3270080A18B9386CC
:102698000187639807140F100000B717004013064E
:1026A80070052380C704130680FA2380C7040F101F
:1026B800000023AA070303C6170313660608A388A6
:1026C800C70223800704732600809C42A18BD18F08
:1026D8007390078023A801860F1000001166B715B4
:1026E80000407D16DC59C85DA98FF18FE5FFF327FF
:1026F8000080A18B89CBF327008023A8F1869C4218
:10270800DD9B739007800F100000B7170040130679
:1027180070052380C704130680FA2380C7040F10AE
:102728000000D8DB03C7170313670704A388E70271
:1027380023800704732700809C42A18BD98F739054
:10274800078023A801860F100000410182807D13B5
:102758003368E3039308E016630E08003368F30355
:102768009308D016630808009378330093B81800CC
:102778009388D81633081E01131E0801135E0E0134
:1027880049B56393E5030548638608000148630378
:1027980003002A8871087298FD15131E0801C205E6
:1027A800135E0E01C181B5BD13F8150063F4BF00B7
:1027B8007908D5B713381800E5BF83C7F60293F731
:1027C8000708A307F1000346F10083C7F60293F751
:1027D8000708E394C7FE8347F10093F7F70FF1DF8B
:1027E80065B5F327008023A8F1869C42DD9B739092
:1027F800078055B5B718004003A8C80303D3A8033A
:1028080083D888034111060393D8F8004A08B30E09
:1028180013019308407E22C626C44AC213582801D1
:1028280023101501930F00199302D0169303400645
:10283800130FC01603530500B378F3036380081021
:10284800B3787302638108109378330013BE1800BD
:10285800130EDE166350C8092390050005449944F9
:10286800F94FF542130900199303400683D8050070
:10287800138F18006394880A03530500337E2303DB
:10288800630C0E08B37873026386080093783300EC
:1028980063840808F148635C18052390E50105087E
:1028A800231006010566130606E1B3D5CE023244AD
:1028B800A244124933F6CE022390B6009306C00311
:1028C8003356D602B3F6DE022310C7002390D70092
:1028D8004101828093B818009388D81633081841AC
:1028E800420805031358080123106500A1B785485D
:1028F800630B0E00337E7302814863060E009378E3
:10290800330093B81800F1083308184142081358E7
:1029180008012390E50199BFF548B5BF13F31800E6
:1029280063F8140163180300E3D902F7F948E9BF13
:10293800E31C03FEE3D30FF7FD48F9B7E3DE02F12A
:102948009308E01661BFE3590FF19308D01679B7E1
:102958005971E2C486D6A2D4A6D2CAD0CECED2CCE1
:10296800D6CADAC8DEC6E6C2EAC06EDE2A8C02D64D
:10297800EF009020F3270080A18B138D018791CB66
:10298800F327008023A8F18683270D00DD9B739031
:1029980007800F100000B717004013077005238049
:1029A800E704130780FA2380E7040F10000003C729
:1029B800F7021377770FA387E70203C7F7021367B6
:1029C8008700A387E70223800704732700808327F3
:1029D8000D00A18BD98F7390078023A801860F1053
:1029E8000000F3270080A18B91CBF327008023A858
:1029F800F18683270D00DD9B739007800F10000080
:102A0800B7170040130770052380E704130780FAFF
:102A18002380E7040F10000003C7E7021377C70FEE
:102A28002387E70203C7E702136717002387E70234
:102A3800238007047327008083270D00A18BD98F7B
:102A48007390078023A801860F100000130780C128
:102A58003347E5029169938709E8130650023D69F7
:102A6800B7440F0093840424856B130BA004014A18
:102A7800814A13047005FD19B347F5023307C702ED
:102A88003EC2930709A61309803E3347F7023AC4AA
:102A9800334725030549331989011359394033450B
:102AA800950293840BFAB3948401811B3306C70201
:102AB800B346F6023309E90236C6330B6703130738
:102AC8006055B3049502130500103309E902B346B3
:102AD800FB02130B80FAB3C4A40236C8B347F90249
:102AE800939634003719004036CC930409043ECA43
:102AF80073260080218A11CA7326008023A8C18604
:102B080003260D005D9A731006800F1000009307CE
:102B180070052380F400238064010F100000034631
:102B280039051376860FA309C904034639051366C8
:102B38001600A309C9042380040073250080032616
:102B48000D00218A498E7310068023A801860F1074
:102B58000000916CE17D73260080218A11CA7326DA
:102B6800008023A8C18603260D005D9A7310068095
:102B78000F100000930770052380F4002380640180
:102B88000F1000000346390513660602A309C9049D
:102B980003560905336696012318C9040356090527
:102BA8003366B601420641822318C9042380040013
:102BB8007325008003260D00218A498E7310068034
:102BC80023A801860F100000034639051376060274
:102BD8006306061603463905218A6DDE6810EF0084
:102BE800C07D73260080218A11CA7326008023A81D
:102BF800C18603260D005D9A731006800F10000031
:102C080023808400238064010F10000003463905E7
:102C18001376F60DA309C90403463905136606029F
:102C2800A309C90403560905336696012318C90484
:102C3800035609053366B601420641822318C904C2
:102C4800238004007325008003260D00218A498E05
:102C58007310068023A801860F100000034639056B
:102C6800137606026308061003463905218A6DFEAD
:102C780097D0FF1FE780A0412A8632CE97D0FF1F4A
:102C8800E780E0407246E30AC5FE0356090532555F
:102C9800336696012318C904892703463905218A12
:102CA8006DDE0355090503462905924733F5A9004A
:102CB8003386C90232951D8DA24763D5A700B24756
:102CC8006346F50E09466365560FC247850A131613
:102CD800150093FAFA0F3346F6026354A03A050634
:102CE80009453346A60273250080218911C9732539
:102CF800008023A8A18603250D005D997310058027
:102D08000F10000023808400238064010F1000004E
:102D18000355C9022A96420641822316C902238016
:102D280004007325008003260D00218A498E731044
:102D3800068023A801860F10000031BD732600808D
:102D4800218A11CA7326008023A8C18603260D0094
:102D58005D9A731006800F10000023808400238082
:102D680064010F1000000346390513660602A30923
:102D7800C9042DBD73260080218A11CA73260080DC
:102D880023A8C18603260D005D9A731006800F10D4
:102D9800000023808400238064010F100000034694
:102DA800390513660602A309C90459BDE38F0AF061
:102DB80073260080218A11CA7326008023A8C18641
:102DC80003260D005D9A731006800F100000238003
:102DD8008400238064010F10000003463905137531
:102DE800FC0F1376860FA309C90403463905498EDB
:102DF800A309C904238004007328008003260D005A
:102E0800218A336606017310068023A801860F10F5
:102E18000000034639051D8A63178627732600803C
:102E2800218A11CA7326008023A8C18603260D00B3
:102E38005D9A731006800F100000238084002380A1
:102E480064010F1000000346390511651376F60D6D
:102E5800A309C9040346390513660602A309C90470
:102E680003560905498E2318C90403560905216527
:102E7800498E2318C9042380040073250080032683
:102E88000D00218A498E7310068023A801860F1031
:102E980000000346390513760602630E0620034632
:102EA8003905218A6DDE6810092B73260080218A76
:102EB80011CA7326008023A8C18603260D005D9AD7
:102EC800731006800F1000002380840023806401A3
:102ED8000F1000000346390511651376F60DA30996
:102EE800C9040346390513660602A309C904035633
:102EF8000905498E2318C904035609052165498E19
:102F08002318C904238004007325008003260D00BC
:102F1800218A498E7310068023A801860F100000AD
:102F280003463905137606026303061C0346390572
:102F3800218A6DFE97D0FF1FE7806015AA8C97D075
:102F4800FF1FE780C014E30C95FF035609051165C0
:102F5800498E32552318C904492103463905218A67
:102F68006DDE73260080218A1385018709CA7326BE
:102F7800008023A8C18610415D9A731006800F1047
:102F8800000023808400238064010F1000000346A2
:102F980039051376F60DA309C904238004007328A4
:102FA80000801041218A336606017310068023A829
:102FB80001860F1000000358090503462905E2475A
:102FC80033F809013386C90232983308F8401306EA
:102FD800800C3306C802D2473346F6026355001503
:102FE80005060948334606036351C0140358C9024D
:102FF8009308F00F13585800329863D6081F0946F3
:1030080063734619F3270080A18B89CBF3270080CF
:1030180023A8F1861C41DD9B739007800F100000E8
:1030280037170040930770052300F704930780FAC9
:103038002300F7040F1000008356C7028967811721
:10304800D58FC207C1832316F7022300070473270D
:1030580000801C41A18BD98F7390078023A801861B
:103068000F100000B650265496540659F649664A81
:10307800D64A464BB64B264C964C064DF25D6561DA
:1030880082807D16B1B973260080218A11CA732601
:10309800008023A8C18603260D005D9A7310068060
:1030A8000F10000023808400238064010F100000AB
:1030B800034639052DBB73260080218A11CA732661
:1030C800008023A8C18603260D005D9A7310068030
:1030D8000F10000023808400238064010F1000007B
:1030E8000346390513660602A309C90469B37326A2
:1030F8000080218A11CA7326008023A8C18603266E
:103108000D005D9A731006800F1000002380840064
:10311800238064010F100000034639051366060278
:10312800A309C904C5B37D166DBD55CE0358C902A0
:10313800B308C040135858006357180B0946637406
:103148004605F3270080A18B89CBF327008023A8AD
:10315800F1861C41DD9B739007800F100000B717A4
:103168000040130770052380E704130780FA2380C3
:10317800E7040F10000003D7C7027D8B2396E702F0
:1031880023800704E9B573260080218A09CA7326BB
:10319800008023A8C18610415D9A731006800F1025
:1031A800000023808400238064010F100000035670
:1031B800C9021376F60F336676014206418223165A
:1031C800C90223800400732800801041218A3366D5
:1031D80006017310068023A801860F100000050A57
:1031E800137AFA0F31B2F3270080A18B89CBF3272A
:1031F800008023A8F1861C41DD9B739007800F1087
:103208000000B7170040130770052380E704130771
:1032180080FA2380E7040F10000003D7C7021606C0
:103228003A96420641822396C70299BF914763EEB8
:10323800B70217370200130767498A05BA959C41F8
:10324800BA978287B717004003A7470B1345F5FFC6
:10325800698F23AAE70A03A7070B698F23A8E70A40
:1032680003A7070A798D23A0A70A8280B717004011
:1032780083A6470B1347F5FFF98E23AAD70A83A61F
:10328800070B558D23A8A70A83A6070A758F23A0C5
:10329800E70A8280B717004003A7470B498F23AA84
:1032A800E70A03A7070B1345F5FF45BFB71700400B
:1032B80083A6470B1347F5FF758F23AAE70A03A7D1
:1032C800070A598D4DB7B717004003A7470B498F19
:1032D800EDB7914763EEB70217370200130747406F
:1032E8008A05BA959C41BA978287B717004003A709
:1032F800470D1345F5FF698F23AAE70C03A7070DB0
:10330800698F23A8E70C03A7070C798D23A0A70CC6
:103318008280B717004083A6470D1347F5FFF98E43
:1033280023AAD70C83A6070D558D23A8A70C83A61F
:10333800070C758F23A0E70C8280B717004003A7FE
:10334800470D498F23AAE70C03A7070D1345F5FF7F
:1033580045BFB717004083A6470D1347F5FF758F84
:1033680023AAE70C03A7070C598D4DB7B7170040E0
:1033780003A7470D498FEDB7B717004003D587005E
:10338800420541819377050491EB9377F501375511
:10339800E801130505803345F50282809377050C13
:1033A800130700046397E7009377F50137459C1CE2
:1033B800CDB72165130505D0828037E700E01C43AF
:1033C8005443A183E206D58F1CC1FD572320F7186B
:1033D8002322F7180F100000828013178500B7E723
:1033E80000E023A0E710618123A2A7108280B7F72D
:1033F80000E08847CC478280B717004083C767043E
:1034080093F7F70F93E6270019E193F6D70FF32701
:103418000080A18B1387018789CBF327008023A81D
:10342800F1861C43DD9B739007800F100000B717CF
:103438000040130670052380C704130680FA238012
:10344800C7040F1000002383D70423800704F32642
:1034580000801C43A18BD58F7390078023A8018619
:103468000F1000008280F3270080A18B93860187CC
:1034780089CBF327008023A8F1869C42DD9B7390BB
:1034880007800F100000B71700401307700523804E
:10349800E704130780FA2380E7040F10000003C72E
:1034A8006704136707012383E7042380070473274E
:1034B80000809C42A18BD98F7390078023A8018636
:1034C8000F1000008280814737370040A14663C44F
:1034D800C700328582800345B740E38EA6FE338558
:1034E800F5000345050085072304A740CDB797F7E6
:1034F800FF1F9387273C9C4317270020130747F398
:103508003E95636EE500175700201307278F636801
:10351800A70017F7FF1F232FA7383E858280FD5786
:10352800EDBFB7270040C8C709472380E700114708
:103538002380E7008280411122C406C62A842D3DDB
:103548002947B307E502B2408D83B3D787022244E7
:103558009507B3D7E70237370040C207C183231660
:10356800F74041018280716541111305052006C6A7
:10357800D937B7370040130770F82381E7400D4764
:10358800A381E74013070004A380E740054723878A
:10359800E740B24041018280CC41411106C63285E4
:1035A80003C6150083C5050022064D8E42068D65AB
:1035B8004186138875A2630C060F6348C8041388F4
:1035C80045A26306060B634AC800938535A26309C2
:1035D800B60623900600294679A0138855A26308E9
:1035E800060B938565A2E316B6FEC1451D4663EC3E
:1035F800E5064546198E63F3C7003E862390C6004C
:10360800973502009385051089A8138895A2630051
:10361800060F634E060B1388A5A2630A060F93854F
:1036280005A5E318B6FA99451D4663EEE502198E1D
:1036380063F3C7003E862390C6009385C18031A8F6
:103648009D451D4663E1E5022146198E63F3C700D7
:103658003E862390C60093854187BA9597D0FF1F71
:10366800E780C0600146B240328541018280AD45A5
:103678001D46E3EAE5FE3146198E63F3C7003E8630
:103688002390C600973502009385850BF9B7B1459D
:103698001D46E3EAE5FC3546198E63F3C7003E860E
:1036A8002390C600973502009385850A7DB7C145EA
:1036B8001D46E3EAE5FA4546198E63F3C7003E86E0
:1036C8002390C600973502009385050579B7C14553
:1036D8001D46E3EAE5F84546198E63F3C7003E86C2
:1036E8002390C6009735020093858507BDB7C1456D
:1036F8001D46E3EAE5F64546198E63F3C7003E86A4
:103708002390C6009735020093854502B9B7B545A1
:103718001D46E3EAE5F43946198E63F3C7003E8691
:103728002390C600973502009385C5FC3DB797F6F0
:10373800FF1F938626CC4146CD4517F5FF1F13057D
:1037480065B86F80B02C2D456310071003C50500C0
:1037580009476317E50E411122C43684D44106C6D1
:10376800328503C7160083C606002207558FC16637
:10377800138626FE6300C7086369E60085166302A0
:10378800D70423100400294595A0138646FE630636
:10379800C7089516E317D7FE15473E866373F700EB
:1037A8001546CC452310C4004206418297D0FF1F1E
:1037B800E780C04B835504001735020013058500C8
:1037C8001DA03E8691C30546CC452310C400420681
:1037D800418297D0FF1FE780604983550400173561
:1037E8000200130565FAEF0012040145B2402244B5
:1037F800410182803E8691C30546CC452310C40012
:103808004206418297D0FF1FE78040468355040057
:1038180017350200130585F8F9B73E8691C30546AA
:10382800CC452310C4004206418297D0FF1FE78091
:10383800E0438355040017350200130565F765B7A3
:1038480023900600054582808280011122CC06CE95
:1038580026CA4AC84EC603C8850021441378080200
:10386800631D080C83C905000948AE8705446396A3
:10387800090D03A345003289B684034813000343A6
:1038880003002208336868004163130E13FE6305C2
:10389800C8030D13630268068D6793872790294430
:1038A800631DF8088547EF60305A2A8459E5854733
:1038B80063E99706014451A02D4441E30547354487
:1038C800636DD706C8470546CA8597D0FF1FE780AE
:1038D800E039A68517350200130505F0EF00A2743C
:1038E8008149938781899C43F1D79C43E1D72686F8
:1038F800CA854E8582977DBF2D4421E3054735440F
:10390800636DD702C847CA85054697D0FF1FE78071
:10391800E035A68517350200130545EDEF00A270C6
:10392800C9B78347190083450900173502001305F5
:1039380025EDA207DD8DEF00026F2285F24062447B
:10394800D2444249B2490561828041677917630CC4
:10395800E502411122C406C685472A84639AF50008
:1039680022852244B2409385C18841016F80F014BA
:1039780089476396F5008545EFA0F04875D1B240B8
:103988002244410182808280411122C42A844165F7
:103998009385C1887D1506C6EF8030121705000093
:1039A8001305E5FA0588EFA0503D05C02244B24052
:1039B80097F6FF1F9386C6B54146C54517F5FF1F05
:1039C800130505A441016F807004B24022440145EB
:1039D8004101828009C523ACA18801458280454503
:1039E80082801147636EA70697360200938686D8B1
:1039F8000A0536951841411106C63697AE87B28535
:103A0800028705476145639AE70005461385C18724
:103A180097D0FF1FE78080250145B2404101828091
:103A280005476145E39BE7FE054613850188CDB749
:103A380005476145E393E7FE054613854188C9BFFD
:103A480005476145E39BE7FC054613858188C9B7AF
:103A580015476145E393E7FC1546138501894DBF7A
:103A680009458280411122C42E849385C18826C2CB
:103A780006C6AA84EF601038058915C197F7FF1F9D
:103A88009387079883D7A70BA285B2402310F40029
:103A9800224426859244014641016F709012B2403B
:103AA8002244924449454101828011456FE05FEA12
:103AB800411193962500AA852D4506C697D0FF1F6C
:103AC800E78020E4B240014541018280411126C2CD
:103AD8009394250022C44AC02A843289A686AA85DE
:103AE8000146254506C697D0FF1FE78080E1A686D8
:103AF8004A86A285294597D0FF1FE78080E0B2401B
:103B0800224492440249014541018280011122CC9C
:103B180006CE3714004026CA4AC84EC652C483444B
:103B28007405034AB4058349840503499405EFE005
:103B38003FA38347A40593F4F40F137AFA0F93E78E
:103B48001700230DF40493F9F90F1379F90FB71738
:103B5800004003C7A705058B6DFF03D5C705A38DD7
:103B68004705238C3705A38C2705A38B9704F240C0
:103B78006244D2444249B249224A056182804111D5
:103B88009397050122C406C6C1872E8463DD07000A
:103B9800EF10C00519C1EF00507E2165218DB2409C
:103BA80022444101828093F7150013C51500E5FBF7
:103BB8009397250163D00702EF109112FD3537F670
:103BC8000200130606E0896503C5C189EF10C049E4
:103BD8000965E9B7939715010145E3D207FC173545
:103BE80002001305A5C7EF00C258130600649165CB
:103BF80003C5C189EF10404711654DB71D7149468E
:103C080097350200938505C1174503001305C5E1E3
:103C180086CE97D0FF1FE780600E01E917350200B6
:103C2800130585C0EF00E25401A0B7F600E079570C
:103C380098CAFD57DCCA0567B7E700E023A0E7107C
:103C48001306F00290C223A0E7180F100000130615
:103C5800C0038145480897D0FF1FE780A004970755
:103C680000209387E7BC3ECA896793870780231C97
:103C7800F100B5472304F102A167938707E03ECE20
:103C8800B7070105938707103ED0ED472312F102CD
:103C980085472303F102970700009387A7E1BEC475
:103CA800970700009387C7E2BEC68567938717D03A
:103CB8002315F10297F7FFFF9387A7733EDAB7F54D
:103CC8000700970700009387A7E43EDE8146970721
:103CD80000009387C7DD7000E1051945BEC097D085
:103CE800FF1FE78000C258088147994670003E963A
:103CF8000346060085070507A30CC700E398D7FE0F
:103D0800D24791C70357810185676373F70001A004
:103D18004808EF10A07DAA8501C9173502001305D0
:103D2800E5B1EF00423001A0F640256182804111E3
:103D3800170500001305E5E406C622C4EF108077D6
:103D48001384C1892300A4001928034504002244D0
:103D5800B24013060032896541016F10E03041110D
:103D680006C6F3270080A18B1387018789CBF32729
:103D7800008023A8F1861C43DD9B739007800F10F9
:103D88000000B7170040930670052380D7049306F8
:103D980080FA2380D7040F10000083C6F70293F639
:103DA800A60FA387D70223800704F32600801C43AD
:103DB800A18BD58F7390078023A801860F10000070
:103DC800F3270080A18B89CBF327008023A8F186F5
:103DD8001C43DD9B739007800F100000B71700404D
:103DE800930670052380D704930680FA2380D704AE
:103DF8000F10000083C6F70293E62600A387D702B8
:103E080023800704F32600801C43A18BD58F739071
:103E1800078023A801860F1000000545EFE0CFF6C4
:103E280069311305407E814701478146054685452E
:103E3800EFE00FFCB240014541016F10901F85660D
:103E480001468145254517D3FF1F670083ABAE8622
:103E58002A868145294517D3FF1F670083AAAE86A6
:103E68002A8681452D4517D3FF1F670083A983D76D
:103E7800618BB9C79387618B83D70700FD17C2078A
:103E8800C183239BF18A8DEF411106C64D3F19CDA1
:103E980083C7A17793E70702238DF176B2401735E0
:103EA80002001305E59B41016F00A22C85659385EF
:103EB80005A417F5FF1F1305A5F3513F71F9F9BFC5
:103EC800828001114AC80569930509A417F5FF1FE7
:103ED800130505F206CE22CC26CA51371704002056
:103EE800130404F183D7C1763EC00327C4A28327F5
:103EF80044A3832644A297F8FF1F83C8B8F017F895
:103F0800FF1F034828F003D6A17797F5FF1F83D535
:103F180025EE1735020013052596EF00C2109564AB
:103F280097F7FF1F83D7C7EC9384A45A638E970231
:103F3800130609A4814517F5FF1F130565EBEFE08C
:103F4800CFC597F7FF1F239597EA8347E4A3173553
:103F580002001305259A93E74700238DF1768547DC
:103F6800239BF18AEF00E220854723A0F17623A462
:103F7800017697F7FF1F23A507E897F7FF1F23AFE1
:103F880007E623A8017623AA017617F7FF1F034740
:103F980067E79307100563F8E7008347E4A393E70F
:103FA8004700238DF176F2406244D24442490561CC
:103FB800828001114AC82E89AA8517350200130587
:103FC80025A022CC26CA4EC606CEB2840144EF00F4
:103FD8008205973902009389A99F93170401C18329
:103FE80063EB97006244F240D2444249B249294502
:103FF80005616F006207B307890083C507004E8516
:104008000504EF004202D1BF83C781C0139787011F
:10401800618763470722011122CC06CE26CA4AC807
:104028004EC652C456C25AC0138481C091CF18409C
:1040380083D6818B1377F7076319D70893E707F8B7
:104048002384F1C0239C018A83C781C01397870109
:1040580061876359070E584085466318D71293F74E
:10406800F70709476398E70A1844C167FD177D8F6A
:10407800173502001305C589630EF70A03C401C189
:1040880083C711C122045D8CA28517350200130570
:104098006589EFF051790149973402009384C493FC
:1040A80093092005170A0020130A8AD4973A0200B8
:1040B800938A8A88173B0200130BCB89630E390752
:1040C80083C604002687814729A0239CE18AADBFC7
:1040D800850763DDD702090703560701E31A86FE41
:1040E80017F7FF1FA300F7D28347EAA3568517F7F0
:1040F800FF1F230927D1F59B238DF176EF00620777
:104108002286938514005A85EFF0F171050993848E
:10411800241A6DB70D476391E7041C4437A7AA001A
:1041280013078798A207A183639EE700173502004B
:1041380013054584EF00E20383C7A17793E72700BF
:10414800238DF176F2406244D2444249B249224A70
:10415800924A024B0561828083C7A177104062446E
:10416800F240D2444249B249224A924A024B93E76A
:104178002700238DF1761376F607938501C117354D
:1041880002001305658005612DB58947E31CF7FA20
:104198001040938501C11735020013052580137659
:1041A800F607013D834704000D4793F7F707E386B9
:1041B800E7F617F5FF1F034505C5A94433759502B2
:1041C8001309101017F4FF1F130484C29306000389
:1041D8001306500E938511C133052503B307A400B8
:1041E8006905A38CE700238CD7002295EFF05106D0
:1041F80097F7FF1F83C727C133F79702850793F700
:10420800F70F330927034A94A30BE40063E5F4028C
:1042180017F7FF1F2309F7BE97F5FF1F83C5A5BE34
:104228001725020013058578EFF0F15F83C7A177A2
:1042380093F7D70F31B797F7FF1F238697BCE9BFCE
:10424800828037470040834747C09946BD8B638DBE
:10425800D70031476385E70011476399E704B745FD
:104268000040938681C005A0834757C0828003C65B
:1042780085C0B6972384C70083C7060093F707F85D
:10428800D98F2384F1C09C4203C6A5C093F7F707D2
:10429800138717001376F60F1377F70769FA83C7A2
:1042A800060093F707F8D98F2384F1C082802A8605
:1042B800B305B04017B50200130505DB6FF0B15622
:1042C800011106CE19C589476301F502F24005615F
:1042D8008280680097D0FF1FE780409917B50200D9
:1042E800130585E5EFF0F168D5B7680097D0FF1F93
:1042F800E780C09717B502001305C5E5E5B783D772
:10430800418C6390A7022393B18C2394C18C23958D
:10431800D18C2E8617B50200130505D3BE856FF024
:10432800915017B502001305A5D36FF09164035798
:104338004500011106CE83D7418C631FF702C16780
:10434800F917894503C5018223A2F18C23A4018CA6
:10435800EF00B072914503C50182EF0010728547E6
:104368001306F100854513055030A307F100EF60EF
:104378005135F2400561828017B50200130545CE1C
:10438800EFF0315FFDB73D897D15954763E4A716CA
:1043980017B70200130787C20A053A951C41411155
:1043A80022C406C6BA972E84828717B50200130561
:1043B80025CD2244B24041016FF0B15B83C725008F
:1043C80019476391E7022E859D378345640017B529
:1043D80002001305E5CBEFF0114517B502001305F0
:1043E800E5CCC1BF0D47E38AE7FEB2402244410154
:1043F800828003C725009547E319F7FEC16703D7F5
:10440800418CF91703D5A500630FF700EF6011572A
:1044180017B50200130585CAEFF0B15517B50200AC
:10442800130545CC79B72392A18C83D7E5001306F1
:10443800006403C501822393F18C83D7050123947B
:10444800F18C83D7250189452395F18CDD4723918C
:10445800F182EF007041096613060690A14503C575
:104468000182EF0070400566130606C8914503C532
:104478000182EF00703F0356E4008355A40017B58E
:1044880002001305E5C4EFF0113A49BF03C7250040
:104498008D4717B502001305A5C5E318F7F411BF3A
:1044A80083C5250091476397F50017B502001305EA
:1044B800A5C501B79947639FF50022858D3D8345C2
:1044C800640017B502001305A5BC2244B24041019F
:1044D8006FF071359547639AF50083471400F1F73B
:1044E80017B50200130505C4E9B517B50200130591
:1044F800E5C3E1BF828001119397050122CC06CE66
:1045080026CAC1872E8463DB070603C50182EF0034
:10451800E06DAA8405CD834705001307000B638E61
:10452800E7021307000D6391E70203472500C5471B
:10453800631CF700034665008345750017B5020044
:10454800130545ABEFF0312E2685052D2165218D0C
:10455800F2406244D24405618280034745009307D4
:10456800F007E313F7FE8355850017B5020013051E
:1045780025AA2391B182EFF0112BF9B793F7150013
:1045880091CF17E6FF1F1306A6FF938501D103C538
:104598000182EF600169134514005DBF93F72500A0
:1045A800ADCB13060064894503C50182EF00D02B0B
:1045B800930780F82302F10003D721828D4763EB2C
:1045C800E70017B502001305E5A5EFF0913A13458A
:1045D8002400BDBF8547014781460546ED4503D503
:1045E800418C2315F100EF50503B2AC66DD103567C
:1045F800A1004C0097C0FF1FE78040672C0003D53F
:10460800418CEFF02FC661D5ED452800EF50B05032
:104618007DBF93F7850085C383C7018213074006D2
:10462800814613064006994503D5418CEF60C15871
:104638001345840031BF93F705019DC3014789469F
:104648000946814503D5418CEF609135AA8517B598
:1046580002001305259EEFF0111D13450401CDBD81
:1046680093F745000145E38507EE03D5418CEF60DC
:10467800B1300566130606C8914503C50182EF00EF
:10468800B01E13454400E9B57971170500001305FC
:10469800C5E606D622D426D24AD0EF00B061B707C5
:1046A80006031384C1D1938727101CC0B7E7FF0BFB
:1046B8009384018289072380A4005CC02946A5470A
:1046C80097B5020093850591138551D22304F40010
:1046D800EFF001389947231AF100138641829307B6
:1046E80040068D4513057030231CF1002308010096
:1046F800EF60217D2286CD4513056030EF60617C37
:104708005008894513051031EF60A17B30088945B1
:1047180013052031EF60E17A05441008854513053B
:10472800503023088100EF60C179930500050D45DD
:10473800EF207034930500051145EF20D0338545EF
:104748007945EF2050333008914513057040230414
:104758008100230681002308810002CC230A01007E
:10476800EF5081563000854513050040EF50C15584
:104778007000854513051040EF50015550088545D8
:1047880013052040EF50415410088545130550404B
:10479800EF5081537D55EF5080687D55EF70D02ED6
:1047A800EFE0FFF87D55EFF02F9E17E9FF1F130983
:1047B800E9DD4A86D5450145EF500055CA8517B54C
:1047C80002001305E581EFF0110689472306F10081
:1047D8008D472308F1009147230AF10093878186CA
:1047E800984383C747003000854501453ACC230EDE
:1047F800F10023048100EFF0CF9E70008545054548
:10480800EFF02F9E100885450945EFF08F9D500861
:1048180085450D45EFF0EF9C300895451145EFF0C3
:104828004F9CC1671387418CF9171CC323220700CB
:104838001385C181EFF00F9A1385C18BEF402121B9
:1048480003C504008545EF00606BB25022549254B2
:1048580002594561828041111305800406C622C4AD
:1048680026C24AC097C0FF1FE780E08337250900AA
:104878001305057CEFE0FFCA372700408347270070
:1048880037140040973403009384C4EC93E717006F
:104898002301F700B7E700E0416723A0E71051289C
:1048A8008327840C37070C008D45D98F2324F40CFB
:1048B80037050C00EFE0FFA18327840A854513051F
:1048C800001093E707202324F40AEFE03F968D4574
:1048D80013050020EFE09F9517B4020013044489E4
:1048E800EFE07FC8173903001309C9E6034604003F
:1048F800930514004A851304241AEFF0C172E317D4
:1049080094FE1735030013052512EFF09106EFF01A
:10491800EFAEEFF0CFC137F55569130505143D200B
:10492800EFF02FDAEF601108853397C0FF1FE7809B
:1049380020EC411106C6B7170040A3810704EFE039
:104948009FB2B240054541016FE01FABB7374F9C9E
:104958009387073037374F1CAA9713078707AA850D
:104968006378F70017350300130545E16FF0A16B75
:10497800011122CC556413040418335785024AC820
:1049880006CE26CA4EC652C456C21309207B81469B
:104998009307D016130640063374850213050019D1
:1049A8006368F70205094209135909011D8F9377B6
:1049B800390099E7B377C90281EBB377A90289C7B0
:1049C80081469307D016E9BF85469307E016C9BF0D
:1049D800854917360300130626E00945B307360153
:1049E80083C7F7FF6396A90081C6850793F7F70F7A
:1049F8006368F7008509C2091D8F93D90901F9BFBA
:104A08008567938707E1335AF40205079314070172
:104A1800C1802687CE864A86173503001305C5D878
:104A28003374F4029307C003B35AF4023374F402E4
:104A38005688D287A288EFF0015FA2876244139755
:104A48000A0193160A01F240224A924A2686CE8526
:104A5800D244B2494A8542494183C18205616FD037
:104A68003FB93971130640028145680006DEEFD070
:104A7800DF929307A1003800930661005000930568
:104A880021000A85EFD01FD783570100680093875C
:104A980047893ED083572100FD173ECE83574100FA
:104AA8003ECC835761003ECA835781003EC8835776
:104AB800A1003EC6EFF08121F2502161828083C7B8
:104AC800C18CB9C3411122C42386018C06C6371490
:104AD8000040A3010404EFF02FD38327440C3707C9
:104AE80004009396D70063DB06008327C40CD98F94
:104AF8002326F40CB2402244410182808327840C8F
:104B0800D98F2324F40CFDB7828083C7D18CB1C719
:104B1800A386018CB717004003A7470C411106C6AE
:104B28001316C700B70608006353060203A7C70C8D
:104B3800558F23A6E70CEFF08FB32537B240AA852F
:104B480017350300130585C241016FF0C14D03A756
:104B5800870C558F23A4E70CF9BF828023AC05FE90
:104B68001C4191E7010001000CC18280BA8703A7AC
:104B780087FF6DFF23ACB7FE82801DC18346E5FF2A
:104B88001307F00F9147639EE600411106C697D0C0
:104B9800FF1FE78040F3B24081473E854101828094
:104BA80095473E85828001E9014582800145B240F2
:104BB80022444101828095654111938505D022C424
:104BC800C98D2A842105C2054205C181418106C6D5
:104BD80097D0FF1FE780C0E271D9FD572320050059
:104BE800231285002303F5002105D1B71387418DD2
:104BF8001C43411122C426C24AC006C601440149C9
:104C0800BA8489E7A165952D0DC401A803C7E7FFFC
:104C18006318A7021DC8A165D5249840832784FF7F
:104C28006317E40223AAF18CFD57232C04FE230FFB
:104C3800F4FE2285B2402244924402494101828016
:104C480011E03E8983A787FF6DBF3E84E5BF232C13
:104C5800F9FED9BFA1CD411122C406C62A849707FF
:104C6800002083C7B7402E856375F400894763E841
:104C7800870021370D45B24022444101828083A735
:104C880085FF99E703C7E5FF9307F00F6305F70072
:104C9800ED351545CDB7238F85FE1385418D7D3DB7
:104CA80022852244B240A165410189AC1545828024
:104CB80023AA018C82809387C18E9C4399E33E8509
:104CC800828003D727006316B70003C70700E308ED
:104CD800A7FEDC47E5B7BDCD797122D406D626D22A
:104CE8004AD04ECE01444147B3D78540858BB1CFDA
:104CF8001205314722953305E5029387C18D03A933
:104D080007008544B3948400C204C180BE892A99EF
:104D18000327090011C7032549002EC60297B2458B
:104D280031473304E40283A709003E941C4489E711
:104D38002320090023220900B2502254A58D0259CC
:104D48009254F2492E85456182800504E31EE4F8F9
:104D58008144DDB72E85828041111397050122C455
:104D680006C626C24AC041872E84635E0700BD3D41
:104D780011C12135A1673D8C2285B240224492445D
:104D8800024941018280EDD9AA8701474146B356BD
:104D9800E440858A9DCA9207BA97B146B387D7027D
:104DA8009386C18D03A906008544B394E400C20428
:104DB800C1803E9983270900032549008297232053
:104DC800090023220900258C45BF0507E311C7FC0C
:104DD8008144D5BF97070020938787259C534111AD
:104DE80022C406C61384818299C782971C403E95C7
:104DF80023A4A18229A09387418E9C43FDF70840F4
:104E0800B74703009387D73F3305F502B7A72600B6
:104E1800938737ECB24022443E9523A4A1824101F6
:104E2800828079C99387418E9C43797122D426D296
:104E38004AD04ECE52CC56CA5AC806D65EC63A8A10
:104E4800B689328BAE8A2A8982979387C18D984317
:104E5800BE840144B146C147B30BD402330677017F
:104E6800104251E6C165938505F0414597D0FF1F73
:104E7800E78000B91DE5970700209387671B9C5BB7
:104E88002D4589C71145814582972D45B250225439
:104E980092540259F249624AD24A424BB24B456196
:104EA80082809387C18E98431DEF23A6A18E23008D
:104EB80005009C4005473317870023260500232457
:104EC80065012311E50023224501DE9723A0270170
:104ED80023A2570123A447010145E38909FA238046
:104EE80089006DB73E875C47F5FF48C7C9B7050419
:104EF800E314F4F6214559BF09458280970700203D
:104F080083C7D716637FF5001387818D9317150024
:104F180008433E9583570500DD8D2310B5000145F4
:104F280082800D4582809707002083C737146371FC
:104F3800F5021387818D93171500084393C5F5FF74
:104F48003E9583570500FD8D2310B50001458280ED
:104F58000D458280130705FF1377F70FFD4763E5BB
:104F6800E70AB146B306D5029387C18D98438947AE
:104F78003697184359CB011122CC4EC60544935994
:104F880045003D893315A40013140501418026CA44
:104F98004E85AE84A2854AC806CE313B2A89814710
:104FA80021CDA2854E8541379387418E9C438297B8
:104FB8009707002083D74710338797022A848146B2
:104FC80013060064B3B7970213050732B335E5003B
:104FD800BE95EFE0616EB3078500970600209386C3
:104FE800260D3E87D44263E4A70063E4D7003387E5
:104FF800D7402324E9008147F2406244D244424921
:10500800B2493E850561828089473E8582800111CB
:1050180026CA06CE22CC4AC84EC6BD47894463ED8F
:10502800A70231473307E5029387C18D9C43894422
:10503800BA979C4395C305443314A40042044180A5
:105048002E890145A2858539AA89814411C5A28581
:105058000145D13D23A42901F240624426854249F5
:10506800D244B249056182809707002083C71700A0
:105078006364F5000145828001119387418E56C211
:1050880083AA070006CE22CC26CA4AC84EC652C4F6
:10509800638D0A0A170A0020130A8A0183244A002A
:1050A800B74736FE938707C8AE899705002083D592
:1050B800A500BE94B387C5022A8432898146B3B558
:1050C800C50213850732B337F50013060064BE9591
:1050D800EFE0815E63EBA406829A9705002083D5F2
:1050E800A5FDB3872503AA84130600648146B3B5DA
:1050F800250313850732B337F500BE95EFE0C15B92
:10510800B3079500BE8403274A0063E4A70063E45D
:10511800E700B384E740CE852285713E01C504C50A
:1051280005452DA0936504F0C205C181414597D07E
:10513800FF1FE780E08C05E597070020938747EF7E
:105148009C5B81C7A285114582970145F240624464
:10515800D2444249B249224A924A056182809387E1
:10516800C18E9C438DE323A6A18E85472326050087
:1051780004C52311350123008500A300F50023226F
:10518800050079BFBA87D84775FFC8C7F9BF49C9AD
:10519800797122D426D24AD04ECE52CC56CA5EC697
:1051A80062C466C206D65AC83689328AAE89AA84CB
:1051B8004144314C938AC18D854C930B0003330BCA
:1051C800840303A70A005A971C43B1E79375F400B8
:1051D800B395BC0013554440C2055286C18113756E
:1051E800F50F59350DC983A70A000145DA9784C31D
:1051F80023A237016304090023008900B250225416
:1052080092540259F249624AD24A424BB24B224C5A
:10521800924C456182800504E31374FB2145F9BF74
:1052280009458280411122C426C24AC006C62A8482
:105238002E89B284153DCA852285EFF0DFA705CDFA
:105248009705002083D545E7B38795022A8413067E
:1052580000648146B3B5950213850732B337F5006C
:10526800BE95EFE0614548C00145B24022449244F2
:105278000249410182802145CDBF411122C426C285
:105288004AC006C62A892E84EFF0FFA2AA8419C153
:1052980023110500A2854A8579319707002083C725
:1052A800E7DC6397270183D7018E5D8C2390818E7D
:1052B800014591E01945B240224492440249410116
:1052C80082809307F00263E6A7044111B14722C424
:1052D8003304F50226C29384C18D9C4006C6A2976A
:1052E800984389470DC39377F5008545B395F50035
:1052F800C205C181118151379C40A29723A00700A4
:1053080023A207008147B240224492443E854101CE
:10531800828089473E858280411106C622C4EFF00B
:105328009F9911E50145B24022444101828093874B
:10533800418E9C430045829797070020938747D763
:105348006368A402D843B74636FE938606C8330579
:10535800A4403697E378E5FC13070064B335E5020B
:1053680003D6870081463305E502EFE0E13465BFE7
:10537800D8433A94C1BF411106C623A4A18E029511
:10538800B2409707002023AFA7CE01454101828094
:10539800994763E9B7008A0597070020938787CF65
:1053A800BE9588C18280411171468145170500204C
:1053B800130545CE06C623A6018E23A4018E23A27B
:1053C800018E97C0FF1FE780E08D1306800281459C
:1053D80017050020130585C997C0FF1FE780808C3B
:1053E800EF5091659707002083C7F7C513D52700AD
:1053F8008D8B3E958D473305F50285453905137527
:10540800F50F970700202384A7C699473305F502AF
:105418001305052497C0FF1FE780805E23AEA18C8B
:1054280059C5994717060020034666C43306F60295
:1054380081451306062497C0FF1FE780A08693873F
:10544800C18D9C439387072423A8F18E170700205A
:105458000347E7C10A07BA9723ACF18CEFF05F85E1
:1054680005239387018F94439707002083C717C0AC
:10547800139727003697170600001306068610C3F1
:10548800138717001377F70F0A07369717060000D8
:105498001306C68C10C313873700890793F7F70FD5
:1054A8008A0797050020A383E5BCB69790C3B2404E
:1054B800410182809707002083C757BB1707002048
:1054C8000347E7BA63F1E7021387018F184393860E
:1054D800170017060020A30BD6B893962700369717
:1054E80008C33E8582809307F00FE5BF1C4163889F
:1054F800071641777D8FB706002089476312D716B4
:1055080003574500630E0714411122C419462A8423
:105518009305F00F690506C697C0FF1FE780A082B4
:1055280005478D476308E5121C4481CB58589947B5
:1055380063020712185C630F07101306C003814546
:10554800170500201305C5AE97B0FF1FE7808075CB
:105558001306C003A28517050020130565AD97B093
:10556800FF1FE780A07017070020035727AD970794
:1055780000209387E7AB19E7130700109706002070
:10558800239EE6AA17070020034767AB11E70547E4
:10559800970600202385E6AA17070020035747AA85
:1055A80011E76D4797060020239CE6A817070020FF
:1055B8000347F7A811E7154797060020A381E6A837
:1055C800170700200347E7A711E7054797060020BC
:1055D8002389E6A6170700200347B7A619E703C7DC
:1055E800F70097060020A38EE6A4170700200347BC
:1055F80067A511E73547970600202385E6A4170716
:105608000020034777A419E71307800297060020B4
:10561800A38CE6A2170700200347D7A219E71307B0
:10562800D00297060020A38FE6A00347840119E75C
:105638001307C003970600202388E6A09C5791C74C
:105648008297970700202397A7A2FD57A38BF1A263
:10565800993B8147B24022443E8541018280894777
:105668003E85828001114EC697090020938949A47E
:1056780083A7090006CE22CC26CA4AC852C48297FC
:1056880013090064B335250303DA8900814652867D
:1056980033052503EFE04102970700209387079D14
:1056A800804FAA8401456306940233858440636E63
:1056B800940003A5490052868146B335A9023305F3
:1056C800A902EFD0717F018D26959707002023ABA3
:1056D800979AF2406244D2444249B249224A05614B
:1056E8008280011122CC0A852E844146971502003A
:1056F8009385C5FC06CEEFE0A135180806043A9458
:10570800035504FF9707002083D7279BF240624484
:10571800AA9737450F00130505243355F50205618F
:1057280082809707002083D7479951471D45637C9E
:10573800F702794719456378F702130720031545DF
:105748006373F7021307B0041145637EF70013076C
:1057580040060D456379F70013076009094563742E
:10576800F70013B5B70F8280011122CC06CE2A8428
:105778002EC6EFF02FE6B245F240818D33A5A50283
:10578800229562441375F50F05618280011122CCC0
:1057980006CE2A842EC6EFF0EFE3B245F240818DA3
:1057A80033A5A502229562444205418105618280A4
:1057B800011122CC06CE2A842EC6EFF0AFE1B24505
:1057C800F240818D33B5A50222956244056182803D
:1057D800970700209387C785985739CB411122C472
:1057E80026C206C6BE84029717070020035787887B
:1057F8002A8415CBBA876373A700AA87C207C18317
:10580800BA866373E400A286C206C182958F5147A7
:10581800635BF700DC5491C38297EFF0704C9707F5
:10582800002023998784B240224492444101828017
:10583800828097F7FF1F9387A77FDC57011106CE59
:10584800AA8581C72AC68297B245D1C19C41054520
:10585800A5CFDC41B5CB83D78500BDC783D7A500CD
:10586800A5C783C7C500ADE341461705002013054A
:10587800258497B0FF1FE780603F97070020938734
:1058880027839C4323A2F18E97F7FF1F83C7D77BFB
:105898008DE793078002170500200355E58133053E
:1058A800F50237460F001306062481468145EFD0DE
:1058B800B16097F7FF1FA389A778170500001305A4
:1058C800A5DAEFF05FAB0145F2400561828097F7FA
:1058D800FF1F83C7477713978701618763540704BE
:1058E80097F7FF1F23A2077A97B7FF1F9387C778F9
:1058F80017F7FF1F232EF77A7D5797F7FF1F23AB64
:10590800E77AB7873200938727A197F6FF1F23A569
:10591800F67A97F7FF1F2383077AB7C7004023A4B7
:10592800E726A1BF13F7170005CFB7872003938792
:1059380007D017F7FF1F2321F778B707C0A817F775
:10594800FF1F2329F77697B7FF1F9387077617F767
:10595800FF1F232FF77497F7FF1F2381077631BFA7
:10596800617797F6FF1F2399E67481CB930700327E
:1059780017F7FF1F2313F774C9B793072003CDBF89
:10598800011122CC17F4FF1F1304846A084406CEC1
:1059980026CA4AC801E90545F2406244D244424950
:1059A800056182805C58E5DB185C75D77000854519
:1059B80082971844B247E300F7FE9305E00417F511
:1059C800FF1F0355A56797C0FF1FE780600317F700
:1059D800FF1F232DA76A61D117F6FF1F035606661E
:1059E8009305F00F97B0FF1FE780C02B814417F98C
:1059F800FF1F1309A96797F7FF1F83C7476403268B
:105A0800090263C1F402328597C0FF1FE780A00B2B
:105A1800014597F7FF1F23AB076697F7FF1F23A9D9
:105A280007669DBF97F5FF1F83D54561B38795022C
:105A38000844185C898185043E9508C2029765BFB1
:105A4800011156C297FAFF1F938A8A5E83A78A00BC
:105A580022CC4AC84EC606CE26CA52C45AC0AA8903
:105A68002E8432896385072203A74A036307071434
:105A78007D476366A71497F4FF1F9384245F03AAE6
:105A8800040263170A0A9565938515E017F5FF1F49
:105A98000355C55A97C0FF1FE78080F697F7FF1F89
:105AA80023A6A75E2A86630A051083A74A0303A5CF
:105AB8008A0097F5FF1F83D565588981829783A748
:105AC8008A0003AA040217F7FF1F2323F75C8947FC
