:040000006F2000313C
:100004000000000000000000900000208A0400208E
:10001400A9BDF9F3900000200000000000000000DA
:10002400900000209000002000000000000000006C
:10003400900000200000000090000020000000005C
:100044005408002090000020900000209000002020
:1000540090000020900000209405002090000020D3
:1000640090000020900000209000002090000020CC
:100074007E050020900000209000002090000020C9
:100084009000002090000020DC0700209000002059
:1000940001A073270080218B9387818609CB732766
:1000A400008023A4E18698435D9B731007800F10A2
:1000B400000037170040930670052300D704930609
:1000C40080FA2300D7040F1000008346B70493F688
:1000D400F60DA305D7042300070473260080944378
:1000E400A18AD18E7390068023A401860F1000008C
:1000F40093760502638406180347A700118B25E74E
:1001040073270080218B09CB7327008023A4E18609
:1001140098435D9B731007800F1000003717004051
:10012400930670052300D704930680FA2300D704AE
:100134000F1000008346A70093E646002305D7006E
:1001440023000704F32600809843218B558F7310F6
:10015400078023A401860F1000001307004B010041
:1001640001007D176DFF73270080218B09CB732756
:10017400008023A4E18698435D9B731007800F10D1
:10018400000037170040930670052300D704930638
:1001940080FA2300D7040F1000007D892314A700E0
:1001A400010001000100010023000704F326008080
:1001B4009843218B558F7310078023A401860F1059
:1001C400000073270080218B09CB7327008023A4B0
:1001D400E18698435D9B731007800F10000037176A
:1001E4000040930670052300D704930680FA230089
:1001F400D7040F1000000F100000B72600401306AC
:100204001005A383C68023000704F32600809843C7
:10021400218B558F7310078023A401860F100000D3
:1002240073270080218B09CB7327008023A4E186E8
:1002340098435D9B731007800F1000003717004030
:10024400930670052300D704930680FA2300D7048D
:100254000F1000008346B70493E60608A305D704ED
:1002640023000704732700809C43A18BD98F7390CC
:10027400078023A401860F10000082809376050472
:10028400638B06140347A700418B25E7732700807F
:10029400218B09CB7327008023A4E18698435D9BBF
:1002A400731007800F100000371700409306700585
:1002B4002300D704930680FA2300D7040F1000000C
:1002C4008346A70093E606012305D700230007040D
:1002D400F32600809843218B558F7310078023A445
:1002E40001860F1000001307007D010001007D1737
:1002F4006DFF73270080218B09CB7327008023A413
:10030400E18698435D9B731007800F100000371738
:100314000040930670052300D704930680FA230057
:10032400D7040F1000009376F50193E60604231416
:10033400D700010001000100010023000704F32697
:1003440000809843218B558F7310078023A4018666
:100354000F100000130760046310E5047327008086
:10036400218B09CB7327008023A4E18698435D9BEE
:10037400731007800F1000003717004093067005B4
:100384002300D704930680FA2300D7040F1000003B
:10039400B72600400946B5B573270080218B09CBE9
:1003A4007327008023A4E18698435D9B7310078024
:1003B4000F10000037170040930670052300D70480
:1003C400930680FA2300D7040F100000B7260040DC
:1003D400130620053DB573270080218B09CB7327B5
:1003E400008023A4E18698435D9B731007800F105F
:1003F400000037170040930670052300D7049306C6
:1004040080FA2300D7040F1000008356870093E678
:10041400060C2314D700C5BB411181460146814512
:10042400114506C62D23F3270080A18B9386818670
:1004340089CBF327008023A4F1869C42DD9B739033
:1004440007800F100000B7170040130770052380C2
:10045400E704130780FA2380E7040F10000003C7A2
:100464006704136717002383E704238007047327B3
:1004740000809C42A18BD98F7390078023A40186AE
:100484000F100000B240410182808146014681453F
:1004940011457529F3270080A18B1387818689CBA9
:1004A400F327008023A4F1861C43DD9B739007800F
:1004B4000F100000B7170040930670052380D7047F
:1004C400930680FA2380D7040F100000FD5623966C
:1004D400D70223800704F32600801C43A18BD58F09
:1004E4007390078023A401860F100000F327008077
:1004F400A18B89CBF327008023A4F1861C43DD9BC9
:10050400739007800F100000B71700409306700522
:100514002380D704930680FA2380D7040F100000A9
:1005240083C6670493E616002383D7042380070455
:10053400F32600801C43A18BD58F7390078023A4DE
:1005440001860F10000001A0BD473305F50201002C
:100554007D1575FD8280411122C426C206C6AA8477
:10056400014463179400B2402244924441018280C2
:1005740005041305803E4204C13F4180DDB7B7172F
:100584000040130700032388E702854723A4F1886A
:1005940073002030B787004003C76700098B630CE2
:1005A400072003C77700930600031377070363014B
:1005B400D70803C8C189138601890547B306060114
:1005C4002380E60083C5770013878189429793F5DA
:1005D400F50F2300B70003C5870093854189C295B1
:1005E4001375F50F2380A50003470700894513778A
:1005F400F7036305B70C63E0E50A6307071885454D
:100604006301B71283C7C1893307F60003470700A4
:100614001377F70F09CB850793F7F70F0D47636639
:10062400F718238EF188B787004009472383E70032
:10063400B787004083C77700E207E18763D40704E4
:1006440083C7C189138701893E9785462300D70054
:10065400138781893E97930600032300D7001387ED
:1006640041893E97A14685072300D70093F7F70FEA
:100674000D47636FF712238EF188B787004009474F
:100684002383E700854503C5C188974000E0E780E0
:10069400C02C73002030930610026308D70C930615
:1006A40020026301D70693060002E31DD7F403C7B3
:1006B40027021377C70F13672700D5A003C7670066
:1006C4001377070465C303C7A702138881D1138571
:1006D40081C9134707082385E70203C7A7021377D5
:1006E400370F136787002385E70281471307000448
:1006F400B305F5008C41B306F80091078CC2E39969
:10070400E7FE09B703C7A702134707042385E702D7
:1007140003C7A7021377C70F136727002385E702D0
:10072400D5B503C76700137707042DCF03C7670246
:10073400138881C5138581BD134707082383E70206
:1007440003C767021377370F136787002383E70212
:10075400814713070004B305F5008C41B306F80084
:1007640091078CC2E399E7FE71BD03C76702134783
:1007740007042383E70203C767021377C70F1367CE
:1007840027002383E702BDBD03C76700137707046F
:1007940011CB03C727021377370F13678700238111
:1007A400E7028DB523800600B1BD238E0188A5BD67
:1007B400238E0188D9B503C76700058B11C7054788
:1007C4002383E7008945C1B503C76700118BE302A2
:1007D40007EC11472383E700914575B5374700407F
:1007E400834747C09946BD8B638DD70031476385E6
:1007F400E70011476399E70037460040938681D5A7
:1008040005A8834757C0730020309C42834586C0A7
:1008140093F7F7073387F6002304B70003C70600EE
:10082400850793F7F707137707F8D98F238CF1D44B
:100834008347A6C093F7F70FE9FBF1B7411106C64A
:10084400974000E0E78080CD974000E0E780C0D18A
:10085400612DFDB73727004083476700858B85CB23
:1008640085462303D7009387818B9C43850723AC5C
:10087400F18A294733F7E70219E3238AD18A130758
:100884004006B3F7E70281E78547A38AF18A73003C
:1008940020302303048015472303E480010023024E
:1008A400A480828083076480E3CE07FE2303048050
:1008B400828083076480E3CE07FE03454480828000
:1008C40083076480E3CE07FE2302A4808280411163
:1008D40026C44AC24EC006C61377F50BAD47AA8993
:1008E4002E8995446306F70019456537653F8D44A5
:1008F4004E854537FD59FD1463983401B240A24436
:100904001249824941018280135509011375F50F7B
:10091400453F2209CDB7011126CC06CEB704080005
:1009240051371545BD37713769372AC6A53F32455A
:100934009377150089EB136515001375F50FF240D5
:10094400E24405618280FD14E9FC0145CDBF3971A3
:1009540026DC4ADA4ED852D656D45AD25ED006DEB7
:1009640062CE66CCB7E700E07D5783AA070022C6B3
:1009740003AA470023A0E71823A2E718B7170040EB
:10098400130770052380E704130780FA2380E70424
:1009940083C74704930B75FFB684E20793FBFB0FF1
:1009A4008546AA892E8B328937240040E187015776
:1009B40063FA76016308D5008946130700026313BE
:1009C400D5000157D98F93F7F70FB71C0040238246
:1009D400FC0411472303E4801305F00F5D3D094C2B
:1009E400D135636D7C11B7050700DA9537870700A9
:1009F400795563F2E504B3879500636EF702370B0C
:100A04000800A94733EB65016399F90689E4814439
:100A1400513D26850DA0DA850945553D0509034557
:100A2400F9FFFD14050B693D81C49377FB0FFDF7B6
:100A3400DD3569FD7D55B717004013077005238028
:100A4400E704130780FA2380E70403C74704418BB4
:100A54002382E704F250B7E700E023A0571123A252
:100A64004711E25432445259C259325AA25A125BC3
:100A7400825B724CE24C21618280A5476395F90642
:100A840085691309F00FB3069900B3742B01B6946A
:100A94001349F9FFB3749900856B33796901416B8C
:100AA4009387F9FFB3F7270199E363FC340193D9E2
:100AB4004900C147E3E637FF99BF0569C1697D195C
:100AC400D9B71305800D6388690113050002638497
:100AD400790113051008CA85DD3B353D21DD4E99AA
:100AE400B3843441D9B7DA852D45D533CA94E300AC
:100AF40099F205097D3BA30FA9FED5BF9387F9FFA2
:100B040093F7F70F6361FC0C83C71C0413073008C9
:100B1400631FF70437070800636BEB04B3079B00FC
:100B2400B706100063F5D704334BEB008947639392
:100B3400F9068980D549E38C04ECDA850945413B03
:100B440011090327C9FF91472320E4800307648028
:100B5400E34E07FE23033481FD17EDFBFD14110B57
:100B640081C49377FB0FE9FF7D3371F5E1B5B717C6
:100B7400004003C75704B70708001377070219E3B7
:100B8400B78707007955E378FBEA33079B00E3FF57
:100B9400E7F855B58547E382F9F2DA852D45053B3B
:100BA4009389F4FFE38504E6293393F7390091EB45
:100BB400832604800327090093074900E39AE6E4A7
:100BC4003E89CE84F1BFB5476396F9001305900BB7
:100BD400C93135BDB1471305B00AE38BF9FE994716
:100BE4006391F904B7050800B365BB002D45C53111
:100BF40081448D4BA1497539639674018327048020
:100C04002320F9008504E39834FF83270480131715
:100C14002B01635507002312F900D5BB2322F900E9
:100C2400FDB39D476399F90281451305B00445312D
:100C3400BD442320090023220900FD599D3993F75F
:100C44007400CA9703C70700FD14398D2380A700D9
:100C5400E39634FF6DBBA1476392F9046D39814477
:100C6400630D0B008D479304C0036308FB009304DA
:100C7400000563048B01930440041375C507E3085E
:100C840095D81945393139390545213126850D392C
:100C940009453D314931E31C05D669BB9147639948
:100CA400F90013056006F536F53E130590090DB7F6
:100CB400E38F09D4F154A9BB19CD91CD09CE814755
:100CC4003387F500834607003307F50085072300C3
:100CD400D700E317F6FE828019C991C909CA9105A4
:100CE40083A7C5FF11057D16232EF5FEC5BF82809F
:100CF40001C919C62A960505A30FB5FEE31DA6FE74
:100D0400828081473307F5000307070019E33E8516
:100D140082808507C5BF01112E8626CAAA841315B1
:100D240006019305F004418122CC06CE32C6EF00C1
:100D3400F0512A8401C53246A685BD3F2285F24082
:100D44006244D24405618280854715C18DC105C2C4
:100D54008147B306F5003387F50083C606000347D1
:100D640007006398E6008507E315F6FE85473E8590
:100D740082808147EDBF9307F6FFBE952A966313E1
:100D8400C5008280FD1583C715000505A30FF5FE78
:100D9400FDB7AA87014581CF09CE3E96850703C7D3
:100DA400F7FF6317B700E39BC7FE05458280828087
:100DB4000145828079719387418D22D4804306D680
:100DC40026D24AD04ECE52CC56CA5AC85EC65DCC44
:100DD400B7C4C901014B9389C18C9384F437174A72
:100DE4000000130AEA53974A0000938A2A571749C6
:100DF40000001309E95A8357240085E35C44631B0C
:100E04000B0023AAF18C832BC4002285EF007050C1
:100E14005E84B9A82326FB00FDB783A70900829747
:100E24001C443307F5406376F500032749001D8F02
:100E34002A9763E0E4089747000023A907528355E3
:100E4400240003450400974000E0E78000B15C40C3
:100E54005844A1CB0C4403264900AE97BE8663E4F4
:100E6400B70063E4C700B386C74014C4228B3A8436
:100E740059F0974700009387674E9C4B094763706E
:100E8400F706F917174700002322F74EB2502254F1
:100E940092540259F249624AD24A424BB24B4561DA
:100EA400828063150B0023AAE18CB1BF2326EB00DB
:100EB40099BF03274A0209CF63EFA7003385A740F0
:100EC40083A70A016376F5009747000023A0A74A89
:100ED400228B404471BF03274900BA97C5B797478F
:100EE400000023A507485DB7411122C41744000040
:100EF400130444491C4006C626C24AC091C78297BF
:100F04009747000023A007489747000083C757610D
:100F1400858B974400009384646095C397470000D1
:100F2400A380076083C774001547637AF700052B15
:100F340083C77400F5178A07A2979C4382971C44C1
:100F440091C382971389018C032709001746000077
:100F54000346D6409747000083C74740939617003F
:100F6400BA9683D60600C5CE9747000083C7073FCD
:100F740063E1C70C974700002382073E1C4063953A
:100F840007129747000083C7F75991CF83C77400AE
:100F940093F7F70F89EB97470000A385075897400D
:100FA40001E0E78080BA9387C18C9C43638E070E6F
:100FB400974700009387C73EDC4317470000232769
:100FC400F73ACD3B9747000093878735DC53E9CF49
:100FD4001747000013078738184B9747000083C74B
:100FE40077356363F70C83C774001547636EF70A9C
:100FF4009747000083C70757918BDDE70326090055
:101004009746000083C6963563C6D70A2244B24089
:10101400924402494101177303E0670063C38507E3
:1010240093F7F70F97460000238AF632E3E4C7F2FA
:1010340025BF86073E978355070023100700239496
:10104400018C9387818D9C4317450000034505312E
:1010540013172500BA979C43829783D7818C17472F
:1010640000000347A72F93C7F7FF7D8D9317170041
:10107400032709003E97835707005D8D2310A700BF
:101084009747000083C7872D91C78507174700003E
:101094002306F72C174700000347472C9747000007
:1010A40083C7D72BE378F7ECB24022449244024939
:1010B40041018280139717003297035707006DF799
:1010C400850799B7AD6737C70040BD072326F720CA
:1010D4000F1000009747000093874728C84F8327C5
:1010E4008726BD66BD0693C7F7FF99836A05232645
:1010F400D7205D8D82804111B7170040985F3AC6B2
:10110400945F3247E39CE6FE324541018280130539
:10111400F00F82800111974700009387274C22CC5F
:1011240003A4070C26CA06CE2AC42EC6854419E495
:101134000145F2406244D2440561828083479100B4
:1011440003471400858B6304F7000044CDB71946A8
:101154009305A10013052400C53EE31895FE05453B
:10116400C9BF138741991C439306001094C301001F
:101174000100010001001C4323A007008346150061
:1011840003482500A2064208C29603480500C296F9
:10119400034835006208C29694D783465500034835
:1011A4006500A2064208C29603484500C296034859
:1011B40075006208C296D4D7834695000348A500FB
:1011C400A2064208C29603488500C2960348B500A9
:1011D4006208C29694DB8346D5000348E500A20664
:1011E4004208C2960348C5000345F500C29662054D
:1011F400AA96D4DB83C6150003C52500A2064205C2
:10120400AA9603C50500AA9603C535006205AA96E9
:1012140094CF83C6550003C56500A2064205AA966D
:1012240003C54500AA9603C575006205AA96D4CFE6
:1012340083C6950003C5A500A2064205AA9603C568
:101244008500AA9603C5B5006205AA9694D383C601
:10125400D50003C5E500A2064205AA9603C5C5004C
:1012640083C5F500AA96E205AE96D4D3D443F59A85
:10127400D4C3D44393E61600D4C3944393E6160030
:1012840094C3BA879443D842058B59E3984E0145D9
:101294002300E6009843184F2183A300E6009843F7
:1012A400184F41832301E6009843184F6183A3013B
:1012B400E6009C43D84F2302E600D84F2183A302C3
:1012C400E600D84F41832303E600D84F6183A3038C
:1012D400E60098532304E60098532183A304E60010
:1012E400985341832305E60098536183A305E600E0
:1012F400D8532306E600D8532183A306E600D85327
:1013040041832307E600DC53E183A307F6008280D0
:1013140001008DBF138781991443411122C49C5E3F
:101324004AC006C6998326C2858B3A84138941999B
:10133400D1C79C5E974400009384441E93F7F7F949
:101344009CDE174700000347C71D93070008631B73
:10135400F700832709009C4393F70704174700000D
:101364002301F71C83C7040093F707048DC39387F5
:10137400C18C9C4382979747000023A9A71A83C76F
:10138400040093F7F70B174700002309F71883C7E6
:10139400440093F707049DE3854717470000A30122
:1013A400F7189387419A9C43096798C7130700FC71
:1013B400974600002386E616D844F8D31C40985F6D
:1013C4001183058B09CB985F3D9B98DF05479746B2
:1013D40000002387E614985F1D83058B11CB985F6B
:1013E4001377F7F798DF854717470000230AF712AA
:1013F40083270900D8430583058B19C7D843759BF8
:10140400D8C3D843799BD8C3B240224492440249FA
:1014140041018280397106DE16DC1ADA1ED82AD61A
:101424002ED432D236D03ACE3ECC42CA46C872C648
:1014340076C47AC27EC0F93DF250E2525253C2538E
:101444003255A255125682567247E2475248C24854
:10145400324EA24E124F824F216173002030938787
:10146400419A9443974700009387470B03C70700AB
:10147400058B11CB974700002384070A9747000088
:10148400A380070A828003C71700058B65F7F8520B
:1014940071FF83C75700DDB71388819903270800BC
:1014A4001C5F9583858BD1E709C61C5BBD83230034
:1014B400F60085CA83270800985B4607935767019F
:1014C4006356070093E707C0C207C183039706006A
:1014D400C207C18709C7BA970947B3C7E702239070
:1014E400F60085CD834715008DCB9746000083C653
:1014F400460393F606041387970089478DCA3A95E5
:1015040003470500854699471376F7066311D6020B
:1015140062076187B947634C0700832708009C5F13
:10152400ED838D8B17470000A30FF7FE81473E859F
:1015340082808547EDBF411122C406C61384419AB7
:1015440018402DE9AE877453FDFE3E85B28597475A
:101554000000238607FC973001E0E780403493873E
:1015640081999C43B70680009843558F98C3D857F8
:10157400719BD8D797470000A38407FA97470000C8
:10158400A38E07F81C40094798C31440174700006E
:101594001307C7F883472700858B89EB83473700F8
:1015A400858BD9C397470000238C07F6B2402244A9
:1015B400410182808D47631EF500938781999C4386
:1015C400B70680009843558F98C3D857719BD8D7D6
:1015D4006DBF8547E31BF5FA5447F977FD17F58F7F
:1015E4005CC70F1000001C40096798C7130700F878
:1015F400174600002306E6F2138781991043184228
:1016040031830D8B11E713076019F8D3D4C7B5BF25
:101614001842094631830D8B6315C7001307E04355
:10162400EDB71307E01BD5B7FC52ADF741B75D71B9
:10163400A2C4A6C22A84130680022800AE8493059D
:10164400100886C6CAC04EDE52DCEFF06FEA35459C
:10165400973001E0E78000611383819983270300B9
:101664009376F41F138EC19A23A40700984B938E8C
:10167400419A370FFCFF1367F70398CBF84F130514
:1016840010F8B7020400137707E0558FF8CF98439A
:10169400F576FD16758F98C39843B7063300930308
:1016A40080251377F7E798C3984311497D1F137773
:1016B400F7E71367071098C303270E008549930FB4
:1016C40080021C47D58F1CC783A70E001307900DFB
:1016D4003400B8CB014793553700A69583C705005E
:1016E40013767700B3D7C740858BE1C38327030004
:1016F40083280E00239C07042390070603A8C8022E
:101704001378D8FF23A6080383A807001378F707E4
:1017140093F808F833E8080123A0070103A8470257
:101724003368580023A2070383A80E00014823A2AC
:10173400780603DA07066307480303A80703038A46
:1017440006001358F80062081358884163580A01C8
:1017540003A807031358F8002380060103D80706DB
:101764001378F80F03AA480663060A0003DA87050C
:10177400E37F49FB03A847023378E80123A2070368
:1017840083870600635CF40003C805003396C90030
:101794001346F6FF337606012380C5003E8663D3E5
:1017A400A7002A8613158601618505071377F70FAD
:1017B4008506E312F7F3B640264496440649F259E7
:1017C400625A616182809386419A9C42D84713167B
:1017D4001701635506029847131617016350060252
:1017E4007D57B8D717470000130747B7584F050769
:1017F400174600002322E6B8116798C798470D835F
:10180400058B1DCB17470000034767D113671700EB
:10181400174600002305E6D0130700F8174600001A
:101824002300E6D0214798C713878199104358565F
:10183400719B1367170058D69847058B0DC7174738
:1018440000000347B7CD1367170017460000A3072E
:10185400E6CC054798C71387819910435856719B66
:101864001367170058D698470983058B09E79847EB
:101874000583058B21CF984717460000130606CA37
:10188400138581990983058B630307101841184355
:1018940031830D8B75EBAC4B184E93F50502034762
:1018A4001700CDCD79EF13077006D8CF0347060094
:1018B40013671700174600002302E6C6114798C7AE
:1018C40018415C57F19B93E717005CD79C429847FB
:1018D4009316370163D606029746000083C686D75F
:1018E400C18A17470000130767CFC5CE0347870790
:1018F4001367070297460000238EE6D4056798C74E
:1019040098479316270163D106021747000003473F
:1019140027C16207618763570700054797460000A0
:101924002380E6C0096798C798479316070163D6D2
:1019340006029746000083C6F6D1858A1747000041
:101944001307C7C9ADCE0347970713672700974608
:101954000000A381E6D0216798C7828029D78545F6
:101964006315B7001307B00689B789456315B70037
:101974001307F0061DBF8D456315B7001307300725
:101984002DB71307500715B71307600739BF03476F
:1019940036001367170017460000A302E6B809478C
:1019A40039BF834687070946BD8A6388C600034753
:1019B40087078D463D8BE313D7F4114725BF834634
:1019C4009707918AC9DA034797071367870041B7D6
:1019D400397106DE16DC1ADA1ED82AD62ED432D293
:1019E40036D03ACE3ECC42CA46C872C676C47AC213
:1019F4007EC0D13BF250E2525253C2533255A255EB
:101A0400125682567247E2475248C248324EA24E9C
:101A1400124F824F2161730020309387419A98437B
:101A24008567938707777CD39387C19A9C4383A662
:101A34000709139656006358060083A607091396F0
:101A44006600634406007453FDF2828061C1AA8774
:101A54000145DDCD8D07C207C183F19BC207C18358
:101A640013074003636BF702138781A308431387AB
:101A740001A314436396A602174700001307478A7D
:101A8400185B014551C74111C20706C60545DD8DE6
:101A94000297B240014541018280138741A3F9B7FF
:101AA4000357650035E303574500636FF704B30636
:101AB400F7402146637CD6020328050093868700FD
:101AC4001D8FAA9661171746000003568689239234
:101AD400E60023A006012393060014C12312F50097
:101AE400130786FF97460000239DE6862313B5005F
:101AF4009745000083D5E586B387F5401747000076
:101B04002311F786210582800841ADB70145828003
:101B1400828009CD938781A303A30700938701A340
:101B240083A8070081469A8763E31701828003A88C
:101B340007006369F50A6367A80A13878700E367E8
:101B4400E5FE03D66700216705076317E60003C7B0
:101B5400C19605072386E196974500009385058085
:101B640003D6470003D76500239307003297420743
:101B74004183173500002316E57E638867021385C9
:101B840041A308416303F50203D5660019ED83D729
:101B9400460023A0060121073E9621062392C60093
:101BA40097370000239FE77AB6879843E30017F935
:101BB400938641A39442E30BD7F683566700BDF6A0
:101BC40083D64700035647001843A106B2962392D2
:101BD400D70098C383D76500A107173700002312E5
:101BE400F7788280BE86C28781B703278511630296
:101BF4000712411122C406C68347C5008345E50484
:101C04002A8493F7C70F2306F500834697000356EB
:101C1400C70013958601618563F2C508635B0506F9
:101C24000345870093F6F607A304D700054693E619
:101C340027006314C50093E617002306D4005C4311
:101C440089075CC3A30AB400032504112E864C4300
:101C54000905EFF06F868327841103465401D443AA
:101C640003D7C700B296118FD4C32396E7008947E0
:101C7400A30DF400034764039737000083C7676B21
:101C84006378F7048347C40093E707012306F4004D
:101C940081A093E717002306F4006DB79376F60F3F
:101CA400635D050203458700854513E62700631439
:101CB400B50013E617002306C400A30AD400A30446
:101CC40007008547A30DF400832784119C43DDF3AB
:101CD400B240224401454101828093E71700230664
:101CE400F400A30AD400A3040700032504114C4301
:101CF4000905EFE07FFC8327841103465401D44394
:101D040003D7C700B296118FD4C32396E7008D473B
:101D140055BF05458280938781A49C43411122C409
:101D240006C6858B2A84C5EF4165130525F597E022
:101D340001E0E780203345C58347A5002315F5005E
:101D440083270412BDE72320A4122322A41285476B
:101D54002311F4042320050083476401544123160E
:101D6400F5000347D4002304E5000547A304E50078
:101D7400173700001307877A184F13851702158148
:101D84001C437D151375F50F9CC25C43DCC21C47D4
:101D94009CC65C47DCC61C4B9CCA5C4BDCCA1C4F13
:101DA4009CCE5C4FDCCE19CD938606021307070246
:101DB400C1BF8327441288C3835724042322A41257
:101DC400850779B79747000083D7C78185071747E9
:101DD40000002319F780B2402244410182808347E6
:101DE400C40023090400054593C747002306F400F3
:101DF400DDB78347850193F7E70FC5EF8347950167
:101E0400CDEB034625018346C50009CA8345650316
:101E1400173700000347F75163E7E50013F706019E
:101E240051CB014709C6C18A0357651C81C6835635
:101E3400A51C369741C31307C71217350000035575
:101E4400A556B335A70237460F00411113060624E1
:101E5400814622C426C206C67D543305A7029710C4
:101E640002E0E780402B9737000083C7F74CB38428
:101E7400A700973700009387677603A7870983270E
:101E8400070963F387003E84184375FB9387C18C6D
:101E94009C43829781476364A400B307A440B24083
:101EA4002244B3B7970093C7170092443E8541017B
:101EB400828081473E8582809387419A98437C53F0
:101EC400FDFF8280797126D206D622D44AD04ECE26
:101ED40052CC56CA5AC85EC6834755030344751389
:101EE400AA843E941374F40F9307400263F68700A8
:101EF4001304B4FD1374F40F03AA841383AAC41344
:101F0400A38B841222865285D685971002E0E7803F
:101F1400001B058915E503CBD41201498149337BA4
:101F24006403930B50024A865285D685971002E0CB
:101F3400E780E018058915C5639169031374F90FE7
:101F4400238B8412B250225492540259F249624AA9
:101F5400D24A424BB24B456182808509E20993D94A
:101F640089410509E31179FDE1BF832785090356FA
:101F74000504797193D60701BD8EC206C182358EE0
:101F84001357764093575640898B058B5D8F935733
:101F94003640918B5D8F93571640A18B5D8F9317BD
:101FA4001600C18B5D8F9317360093F707025D8F80
:101FB400931756009355860093F707041E065D8F0A
:101FC4001376F60F518F93D7554013D63540118AA7
:101FD400898BD18F13D67540D18F13D61540218AA2
:101FE400D18F13961500418AD18F1396350013763D
:101FF4000602D18F13965500137606049E05D18FE1
:1020040093F5F50FCD8FA20745465D8F3307C702C1
:1020140022D42A8426D252CC56CA032A8413832A71
:10202400C4135AC806D6369742074183935777405C
:10203400135557400989858BC98F1355374011892A
:10204400C98F135517402189C98F1315170041896A
:10205400C98F1315370013750502C98F131557005F
:1020640093558700137505041E07C98F1377F70F5F
:10207400D98F13D5354013D755401189098B498F12
:1020840013D57540498F13D515402189498F139570
:1020940015004189498F1395350013750502498F41
:1020A40013955500137505049E05498F93F5F50F97
:1020B4004D8F2207D98FB387C7024AD04ECE5EC652
:1020C40062C4B697C207C18313D7774013D557406C
:1020D4000989058B498F13D537401189498F13D549
:1020E40017402189498F139517004189498F13950A
:1020F400370013750502498F1395570093D5870050
:10210400137505049E07498F93F7F70FD98F13D5DD
:10211400354013D755401189098B498F13D5754024
:10212400498F13D515402189498F1395150041898D
:10213400498F1395350013750502498F1395550082
:10214400137505049E05498F93F5F50F4D8F2207EE
:10215400D98FB387C702130650025285D685B69726
:10216400BD8E93940601C18033F6C402137BF60F2F
:10217400971002E0E780A0F405890DED8347D4129F
:1021840001498149B3849702130C5002C1804A86E5
:102194005285D685971002E0E78060F20589937B2B
:1021A400F90F11C563863403850993F9F90F0509FD
:1021B400E31F89FD230B6413B25022549254025935
:1021C400F249624AD24A424BB24B224C4561828068
:1021D4005E8BCDB7797122D406D683C735002E84A1
:1021E40023160100A307F10083C74500100802C0AD
:1021F4002307F10083C755008A8502C2A306F100B4
:1022040002C402C802CA02CC02CEEFE09FF5034723
:10221400F1018347040001456310F7020347E1011C
:102224008347140001456319F7000345D10183472F
:1022340024001D8D13351500B2502254456182804F
:102244000111973700009387673922CC03A4870CC8
:1022540026CA4AC84EC606CEAA8413092500854953
:1022640015C083C7140003473400858B6304F7004B
:10227400405CFDB71946930544004A85EFE0DFACA6
:10228400E31835FF2285F2406244D2444249B24900
:10229400056182804111973700009387273422C457
:1022A40003A4870C26C24AC006C693042500054928
:1022B40001E82285B24022449244024941018280CD
:1022C400A6851305A4023937E30525FF405CCDB785
:1022D4004111973700009387673022C403A4870C09
:1022E40026C24AC006C693042500054901E8228592
:1022F400B24022449244024941018280A6851305DA
:0C230400A401C93DE30525FF405CCDB7F6
:1023100097110020938181E717610020130181CE7E
:102320001305400097E5FF1F9385C5CD17060020D4
:10233000130606FE63FAC5008322050023A055009C
:1023400011059105E3EAC5FE176503001305859C99
:1023500097050020938505FC1386818663FAC500E6
:102360008322050023A0550011059105E3EAC5FE6F
:1023700013858186973500209385853A6377B5006C
:10238000232005001105E36DB5FEFD42739002BCEC
:102390008D4273904280930280087390023097E2DE
:1023A000FF1F938222C693E2320073905230371798
:1023B0000040930770052300F704930780FA230079
:1023C000F7040F1000003C47B70600FAE116F58F3E
:1023D000B70600069506D58F3CC79722000093826A
:1023E00022E773901234730020303D432A876373D1
:1023F000C3029377F700BDEFADE5937606FF3D8A04
:10240000BA960CC34CC30CC74CC74107E36BD7FE4D
:1024100011E28280B306C3408A06970200009696B6
:102420006780A6002307B700A306B7002306B700FE
:10243000A305B7002305B700A304B7002304B70022
:10244000A303B7002303B700A302B7002302B7001A
:10245000A301B7002301B700A300B7002300B70012
:10246000828093F5F50F93968500D58D939605019F
:10247000D58D61B7939627009702000096968682C5
:10248000E78086FA9680C1171D8F3E96E374C3F8E5
:10249000A5B73367B500FD530D8B79E7B7877F7F0D
:1024A0009387F7F710419441B372F6003363F60057
:1024B000BE92B3E262006397720C6318D606504175
:1024C000D441B372F6003363F600BE92B3E2620009
:1024D0006398720A631BD60410459445B372F600E4
:1024E0003363F600BE92B3E262006391720A631E28
:1024F000D6025045D445B372F6003363F600BE925F
:10250000B3E26200639A72086311D60210499449DB
:10251000B372F6003363F600BE92B3E262006393D7
:1025200072085105D105E30FD6F6131706019397EC
:102530000601631CF7001357060193D70601330504
:10254000F7409375F50F91E982804183C18333058C
:10255000F7409375F50F91E182801377F70F93F7AA
:10256000F70F3305F74082800346050083C6050058
:10257000050585056313D60065FA3305D6408280CC
:1025800011059105E312D6FE014582802105A105C2
:10259000E31CD6FC014582803105B105E316D6FC6B
:1025A000014582804105C105E310D6FC01458280CA
:1025B000B717004003C777051377E70FA38BE7042E
:1025C000130700F8A38DE7043D47238CE7041307A6
:1025D0005003A38CE704828041112A83014E930E9D
:1025E000407E130F0019930F400663E66E149308A4
:1025F000001913034006B3781503854E0D4FA14F04
:10260000337365020D891335150063E0BE16130898
:10261000F6FF794672984208135808013307C7023B
:1026200013D61700BE0732976146B3F6C6021306EB
:102630008070B386C6023697A166F58F42075D8F1C
:10264000B716004083C7F60293F70708A307F10007
:102650000346F10083C7F60293F70708E394C7FE29
:102660008347F100B716004093F7F70F638907140B
:10267000F3270080A18B93868186639807140F103F
:102680000000B7170040130670052380C704130627
:1026900080FA2380C7040F10000023AA070303C693
:1026A000170313660608A388C7022380070473264E
:1026B00000809C42A18BD18F7390078023A4018658
:1026C0000F1000001166B71500407D16DC59C85D7B
:1026D000A98FF18FE5FFF3270080A18B89CBF3272A
:1026E000008023A4F1869C42DD9B739007800F102D
:1026F0000000B7170040130670052380C7041306B7
:1027000080FA2380C7040F100000D8DB03C717032B
:1027100013670704A388E702238007047327008058
:102720009C42A18BD98F7390078023A401860F1040
:102730000000410182807D133368E3039308E016B3
:10274000630E08003368F3039308D016630808008B
:102750009378330093B818009388D81633081E0175
:10276000131E0801135E0E0149B56393E503054886
:10277000638608000148630303002A887108729881
:10278000FD15131E0801C205135E0E01C181B5BD02
:1027900013F8150063F4BF007908D5B71338180093
:1027A000E5BF83C7F60293F70708A307F1000346C6
:1027B000F10083C7F60293F70708E394C7FE834747
:1027C000F10093F7F70FF1DF65B5F327008023A43D
:1027D000F1869C42DD9B7390078055B5B718004089
:1027E00003A8C80303D3A80383D8880341110603B1
:1027F00093D8F8004A08B30E13019308407E22C60E
:1028000026C44AC21358280123101501930F00193A
:102810009302D01693034006130FC016035305000E
:10282000B378F30363800810B378730263810810F0
:102830009378330013BE1800130EDE166350C809D8
:102840002390050005449944F94FF54213090019F6
:102850009303400683D80500138F18006394880AF9
:1028600003530500337E2303630C0E08B378730211
:10287000638608009378330063840808F148635C3A
:1028800018052390E50105082310060105661306C7
:1028900006E1B3D5CE023244A244124933F6CE0249
:1028A0002390B6009306C0033356D602B3F6DE0279
:1028B0002310C7002390D7004101828093B81800ED
:1028C0009388D816330818414208050313580801A5
:1028D00023106500A1B78548630B0E00337E730299
:1028E000814863060E009378330093B81800F1080E
:1028F000330818414208135808012390E50199BF95
:10290000F548B5BF13F3180063F81401631803000A
:10291000E3D902F7F948E9BFE31C03FEE3D30FF75D
:10292000FD48F9B7E3DE02F19308E01661BFE35911
:102930000FF19308D01679B7914763EEB7021737B6
:1029400002001307677E8A05BA959C41BA97828771
:10295000B717004003A7470B1345F5FF698F23AA5C
:10296000E70A03A7070B698F23A8E70A03A7070A4B
:10297000798D23A0A70A8280B717004083A6470B52
:102980001347F5FFF98E23AAD70A83A6070B558DA7
:1029900023A8A70A83A6070A758F23A0E70A8280C7
:1029A000B717004003A7470B498F23AAE70A03A7DD
:1029B000070B1345F5FF45BFB717004083A6470B2C
:1029C0001347F5FF758F23AAE70A03A7070A598D56
:1029D0004DB7B717004003A7470B498FEDB7914795
:1029E00063EEB70217370200130747758A05BA95D9
:1029F0009C41BA978287B717004003A7470D13453C
:102A0000F5FF698F23AAE70C03A7070D698F23A899
:102A1000E70C03A7070C798D23A0A70C8280B717BA
:102A2000004083A6470D1347F5FFF98E23AAD70C64
:102A300083A6070D558D23A8A70C83A6070C758FB9
:102A400023A0E70C8280B717004003A7470D498FEA
:102A500023AAE70C03A7070D1345F5FF45BFB717DA
:102A6000004083A6470D1347F5FF758F23AAE70C97
:102A700003A7070C598D4DB7B717004003A7470DA3
:102A8000498FEDB7B717004003D587004205418154
:102A90009377050491EB9377F5013755E80113051A
:102AA00005803345F50282809377050C13070004F7
:102AB0006397E7009377F50137459C1CCDB72165F7
:102AC000130505D08280B7F700E08847CC478280A5
:102AD000B717004083C7670493F7F70F93E6270003
:102AE00019E193F6D70FF3270080A18B1387818616
:102AF00089CBF327008023A4F1861C43DD9B7390D0
:102B000007800F100000B7170040130670052380E0
:102B1000C704130680FA2380C7040F100000238324
:102B2000D70423800704F32600801C43A18BD58F94
:102B30007390078023A401860F1000008280F32782
:102B40000080A18B9386818689CBF327008023A404
:102B5000F1869C42DD9B739007800F100000B71731
:102B60000040130770052380E704130780FA2380D1
:102B7000E7040F10000003C76704136707012383EE
:102B8000E70423800704732700809C42A18BD98F20
:102B90007390078023A401860F1000008280814774
:102BA00037370040A14663C4C700328582800345A1
:102BB000B740E38EA6FE3385F50003450500850783
:102BC0002304A740CDB797070020938727DC9C43B9
:102BD000173700201307C7B43E95636EE5001757FB
:102BE0000020130727226368A70017070020232F60
:102BF000A7D83E858280FD57EDBFB7270040C8C7E4
:102C000009472380E70011472380E70082804111B4
:102C100022C406C62A84BD352947B307E502B2405F
:102C20008D83B3D7870222449507B3D7E70237379E
:102C30000040C207C1832316F740410182807165BD
:102C400041111305052006C6D937B73700401307D1
:102C500070F82381E7400D47A381E7401307000484
:102C6000A380E74005472387E740B24041018280C7
:102C7000411122C406C62A8431352947B307E5022B
:102C8000B2408D83B3D7870222449507B3D7E702BA
:102C900037470040C207C1832316F7C04101828035
:102CA000396541111305051006C6D937B7470040ED
:102CB000130770F82381E7C00D47A381E7C013070E
:102CC0000004A380E7C005472387E7C0B240410165
:102CD0008280B747004003C717C019C9D98DA380A8
:102CE000B7C003C707C0136787002380E7C082808F
:102CF00093C5F5FFF98DA380B7C08280B747004028
:102D00002147B746004091E1828003C6B7C0E30C7B
:102D1000C7FE05050346F5FFFD15C2052384C6C0A1
:102D2000C181D5B7CC41411106C6328503C6150015
:102D300083C5050022064D8E42068D6541861388A7
:102D400075A2630C060F6348C804138845A2630686
:102D5000060B634AC800938535A26309B606239023
:102D60000600294679A0138855A26308060B9385AF
:102D700065A2E316B6FEC1451D4663ECE506454671
:102D8000198E63F3C7003E862390C6009735020074
:102D90009385053D89A8138895A26300060F634EAD
:102DA000060B1388A5A2630A060F938505A5E318F1
:102DB000B6FA99451D4663EEE502198E63F3C70026
:102DC0003E862390C6009385C18031A89D451D464F
:102DD00063E1E5022146198E63F3C7003E86239026
:102DE000C6009385C186BA9597E0FF1FE78000ED86
:102DF0000146B240328541018280AD451D46E3EA7D
:102E0000E5FE3146198E63F3C7003E862390C60067
:102E10009735020093858538F9B7B1451D46E3EA39
:102E2000E5FC3546198E63F3C7003E862390C60045
:102E300097350200938585377DB7C1451D46E3EA86
:102E4000E5FA4546198E63F3C7003E862390C60017
:102E5000973502009385053279B7C1451D46E3EAEF
:102E6000E5F84546198E63F3C7003E862390C600F9
:102E70009735020093858534BDB7C1451D46E3EA09
:102E8000E5F64546198E63F3C7003E862390C600DB
:102E9000973502009385452FB9B7B5451D46E3EA3E
:102EA000E5F43946198E63F3C7003E862390C600C9
:102EB000973502009385C5293DB797F6FF1F938686
:102EC00066584146CD4517F5FF1F1305A5446F8091
:102ED0009059411122C406C626C24AC003C88500C3
:102EE0002144137808026313080C03C30500094842
:102EF000AE870544631C030B03A34500B2843689E7
:102F00000348130003430300220833686800416349
:102F1000130E13FE6305C8030913630C68048D6761
:102F20009387279029446313F8088547EF7060174B
:102F30002A842DED854763EF2705014485A82D449C
:102F400035E71307800735446362D706C847130681
:102F50008007A68597E0FF1FE78040D6014593874D
:102F600001889C43F9DB9C43E9DB4A86A68582976E
:102F7000E9B72D4405EF1307800735446368D7028E
:102F8000C84713068007A68597E0FF1FE78000D398
:102F90000545F1B783C7140083C504001735020047
:102FA00013050523A207DD8DEF00922D2285B24087
:102FB000224492440249410182802D4525EF03C7F6
:102FC000050089476314F706D84183471700034774
:102FD0000700A207D98FC207C18705576394E7048A
:102FE000411122C426C24AC006C632893684AE8444
:102FF000EF106023930780072A8663F4A700130667
:1030000080072310C400CC4442064A85418297E0E1
:10301000FF1FE780A0CAB240224492440249014502
:10302000410182802390060029458280239006007A
:10303000054582808280C167F9176306F504411156
:1030400022C406C685472A846394F50222859385A7
:103050004187EF80304C228593858187EF80904BAC
:1030600022852244B2409385C18741016F80904AF6
:1030700089476396F5008545EFA0907E61D9B240FF
:103080002244410182808280411126C2C16422C44F
:10309000938541872A841385F4FF06C6EF80904705
:1030A000938581871385F4FFEF80D0469385C18790
:1030B0001385F4FFEF801046170500001305E5F7B0
:1030C0000588EFA030710DC02244B240924497F6BB
:1030D000FF1F9386E6444146B54517F5FF1F1305CC
:1030E000253741016F803038B24022449244014577
:1030F0004101828009C523A0A18801458280454500
:103100008280411106C60547AE87B2856303E5029A
:1031100001C909476309E5020945B24041018280BE
:103120003E86138501A797E0FF1FE78020B9014580
:10313000EDB7130780076145E391E7FE13068007AB
:10314000138581AECDB7130780076145E397E7FC90
:1031500013068007138501B6F9B7411122C426C2B0
:1031600006C68547AA8432846386F50491C98947D7
:103170006388F504B240224492444945410182806B
:1031800093854187EF60B06C8947058965D59207C3
:1031900017F7FF1F1307C72BBA9783D7A700A2857E
:1031A000B2402310F4002244268592440146410196
:1031B0006F70D04693858187EF6070699947F1B74A
:1031C0009385C187EF60B068A947C1B74111939655
:1031D0002500AA852D4506C697D0FF1FE78060779A
:1031E000B240014541018280411126C293942500DD
:1031F00022C44AC02A843289A686AA85014625456A
:1032000006C697D0FF1FE780C074A6864A86A285AF
:10321000294597D0FF1FE780C073B24022449244F3
:103220000249014541018280011122CC06CE3714AA
:10323000004026CA4AC84EC652C483447405034A95
:10324000B4058349840503499405EFF06FB68347BD
:10325000A40593F4F40F137AFA0F93E71700230DE4
:10326000F40493F9F90F1379F90FB717004003C766
:10327000A705058B6DFF03D5C705A38D4705238CD7
:103280003705A38C2705A38B9704F2406244D244F0
:103290004249B249224A0561828041119397050152
:1032A00022C406C6C1872E8463DD0700EF10A03953
:1032B00019C1EF1020322165218DB2402244410115
:1032C000828093F7150013C51500E5FB9397250140
:1032D00063D20708EF107146B717004083C7E702B3
:1032E00093F7C70F93E7170073270080218B93860E
:1032F000818609CB7327008023A4E18698425D9BD9
:10330000731007800F100000371700401306700578
:103310002300C704130680FA2300C7040F1000001F
:103320002307F70223000704732700809C42A18B28
:10333000D98F7390078023A401860F10000037F601
:103340000200130606E0896503C54188EF10607727
:1033500009659DB7939715010145E3D007F6173529
:1033600002001305A5ECEF007206130600649165D8
:1033700003C54188EF10E07411653DBF1D714946DA
:1033800097350200938505E6174503001305C50B25
:1033900086CE97E0FF1FE780609B01E917350200AA
:1033A000130585E5EF00920201A0B7F600E079571A
:1033B00098CAFD57DCCA0567B7E700E023A0E7100D
:1033C0001306F00290C223A0E7180F1000001306A6
:1033D000C0038145480897E0FF1FE780A091970749
:1033E00000209387E7733ECA896793870780231C71
:1033F000F100A167938707E03ECEB70701059387E9
:1034000007103ED0930700082312F10285472303DB
:10341000F102970700009387A7DBBEC4970700005F
:103420009387C7DCBEC6B7F5070097F7FFFF938702
:10343000C76935473EDA814697070000938707DF63
:103440007000E10519452304E102A305E1023EDE17
:1034500097D0FF1FE780E04F5808814799467000DA
:103460003E960346060085070507A30CC700E398B0
:10347000D7FED24791C70357810185676373F70071
:1034800001A04808EF10302CAA8501C917350200A9
:103490001305C5D7EF00C25E01A0F640256182800A
:1034A000411117050000130585DF06C622C4EF1081
:1034B0001026138441882300A40019280345040022
:1034C0002244B24013060032896541016F10605FEB
:1034D000411106C6F3270080A18B9386818689CB94
:1034E000F327008023A4F1869C42DD9B7390078024
:1034F0000F100000B7170040130770052380E70482
:10350000130780FA2380E7040F10000003C7F702B7
:1035100013677700A387E7022380070473270080DF
:103520009C42A18BD98F7390078023A401860F1032
:1035300000001305407E81470147814605468545C9
:10354000EFF08F89B240014541016F10305485661C
:1035500001468145254517D3FF1F6700833FAE868F
:103560002A868145294517D3FF1F6700833EAE8613
:103570002A8681452D4517D3FF1F6700833D83D7DA
:10358000E189B9CB9387E18983D70700FD17C2078B
:10359000C183239FF188A9E3411106C64D3F1DC198
:1035A0009707002083C7A75793E707021707002054
:1035B0002307F756B24017350200130565C74101CE
:1035C0006F00C2608565938585B0170500201305DF
:1035D000A5A4713771F5F9BF828001114AC8056948
:1035E000930589B017050020130505A306CE22CC4C
:1035F00026CAB53F17140020130404A29707002021
:1036000083D707513EC0032744AF8327C4AF832627
:10361000C4AE9708002083C878A11708002003488B
:10362000E8A0170600200356864F9705002083D593
:10363000A59E17350200130525C1EF00624495646D
:103640009707002083D7479D9384A45A63809704EB
:10365000130689B08145170500201305E59BEFE0AF
:10366000DFD8970700202399979A834764B01735CE
:103670000200130525C593E7470017070020230024
:10368000F74A8547239FF188EF0042548547170783
:1036900000202329F7469707002023A9074697070C
:1036A000002023A307989707002023AD07969707CC
:1036B000002023A107469707002023AF07441707E0
:1036C00000200347A7969307100563FAE700834796
:1036D00064B093E74700170700202302F744F24045
:1036E0006244D24442490561828001114AC82E8950
:1036F000AA8517350200130565D022CC26CA4EC60E
:1037000006CEB2840144EF00A237973902009389B4
:10371000E9CF93170401C18363EB97006244F24041
:10372000D2444249B249294505616F008239B30745
:10373000890083C507004E850504EF006234D1BFC0
:10374000797122D4138481D58307040006D626D24A
:103750004AD04ECE52CC56CA5AC8635CF00C1C40BC
:1037600003D7018A93F7F707139607014182639005
:10377000E70C83470400938501D617350200130533
:1037800025B693E707F8238CF1D42390018AB13F43
:103790009305F1001305D030EF7081080347F10065
:1037A0009147631AF7001040938501D605451376BB
:1037B000F607EF00E0715C400547639CE712834722
:1037C0000400094793F7F7076393E70C1844C167B0
:1037D000FD177D8F17350200130545B16309F70CFE
:1037E00003C401D683C711D622045D8CA285173588
:1037F00002001305E5B0EF00A2280149973402004A
:10380000938444C193092005171A0020130ACA8023
:10381000973A0200938A0AB0173B0200130B4BB190
:103820006309390983C604002687814731A823909C
:10383000C18AB250225492540259F249624AD24A81
:10384000424B45618280850763DFD7020907035633
:103850000701E31A86FE17F7FF1FA309F77C8347CA
:103860006AB0568517F7FF1F2302277DF59B1707C0
:1038700000202306F72AEF00623522869385140084
:103880005A85EF00E21F05099384241A51BF0D47A2
:10389000639CE7021C4437A7AA0013078798A20776
:1038A000A183E398E7F817350200130565AAEF0036
:1038B000E2319707002083C7872693E72700170781
:1038C0000020230EF724B5B710409707002083C7C8
:1038D000072593E727001376F607938501D617355A
:1038E0000200130525A817070020230AF722F53B3D
:1038F00089B70947E39FE7F21040938501D6173552
:103900000200130565A71376F607C5338347040045
:103910000D4793F7F707E38FE7F617F5FF1F03450A
:103920000571A944337595021309101017F4FF1F90
:103930001304846E930600031306500E938511D66C
:1039400033052503B307A4006905A38CE700238C86
:10395000D7002295EFF0713597F7FF1F83C7276DCA
:1039600033F79702850793F7F70F330927034A9434
:10397000A30BE40063E7F40217F7FF1F2309F76ABC
:1039800097F5FF1F83C5A56A173502001305C59F6C
:10399000EF00020F9707002083C7671893F7D70F30
:1039A00039BF97F7FF1F23849768D9BF37170040A7
:1039B0008327870A411106C693E707022324F70AE3
:1039C00085454145EFE05FF78D4513050002EFE0C7
:1039D000BFF6EFF0EFAC95450545EFF08FAFB24085
:1039E000B7E700E0114723A2E71041018280970763
:1039F000002083C7C712918B89CF130670099735B2
:103A000002009385A599173502001305E5996F000B
:103A1000220723AE01D4930700632390F1DE9306BF
:103A2000100D97F7FF1F83C76760B387D70217F79B
:103A3000FF1F0347B75F0111954506CE22CC26CA6A
:103A40004AC84EC6138981D5BA97A1071737020015
:103A50001307479C8607BA9783D7270015448149E7
:103A600013978700A183D98F2391F1DE2382A1DEF2
:103A7000138501DE238C01D4EFF04FA81546938502
:103A800001DE17350200130525958531CA84834769
:103A9000090093F7F707B1C38327090093F7F707E6
:103AA000639937039040938501D6173502001305BB
:103AB00025931376F607153983C70400F240624454
:103AC00093E707F8238CF1D4D2444249B249056107
:103AD00082809399070193D909417D14420451458D
:103AE000418097D0FF1FE78040A755F083C70400AF
:103AF00093F7F707C5FB173502001305E58EEF00B6
:103B0000E20C5DBF828001114AC82E89AA85173553
:103B100002001305A58E22CC26CA4EC606CEB2845C
:103B20000144EFF0F175973902009389298E9317BC
:103B30000401C18363EB97006244F240D2444249DE
:103B4000B249294505616FF0D177B307890083C574
:103B500007004E850504EFF0B172D1BF83D7C18A4B
:103B60006390A7022397B18A2398C18A2399D18AA7
:103B70002E8617B502001305E5F0BE856FF0517073
:103B800017B50200130585F16F0042040357450085
:103B9000011106CE83D7C18A631FF702C167F917E7
:103BA000894503C5018223A6F18A23A8018AEF1063
:103BB0006012914503C50182EF10C01185471306BD
:103BC000F100854513055030A307F100EF60115552
:103BD000F2400561828017B50200130525ECEFF075
:103BE000F17EFDB73D897D15954763E4A71617B7AC
:103BF0000200130767E00A053A951C41411122C4EF
:103C000006C6BA972E84828717B50200130585E988
:103C10002244B24041016FF0717B83C725001947F0
:103C20006391E7022E859D378345640017B5020036
:103C3000130545E8EFF0D16417B50200130545E917
:103C4000C1BF0D47E38AE7FEB240224441018280B2
:103C500003C725009547E319F7FEC16703D7C18A5B
:103C6000F91703D5A500630FF700EF60D17617B5FC
:103C700002001305E5E6EFF0717517B502001305B4
:103C8000A5E879B72396A18A83D7E50013060064D7
:103C900003C501822397F18A83D705012398F18A0E
:103CA00083D7250189452399F18ADD472391F18244
:103CB000EF003061096613060690A14503C5018235
:103CC000EF0030600566130606C8914503C5018202
:103CD000EF00305F0356E4008355A40017B50200DF
:103CE000130545E1EFF0D15949BF03C725008D47C2
:103CF00017B50200130505E2E318F7F411BF83C5F9
:103D0000250091476397F50017B50200130505E2FA
:103D100001B79947639FF50022858D3D8345640077
:103D200017B50200130505D92244B24041016FF0D6
:103D300031559547639AF50083471400F1F717B59D
:103D40000200130565E0E9B517B50200130545E06B
:103D5000E1BF82800111170500001305053806CE6A
:103D600022CC26CAEF10A01AB70706031384C1E6B7
:103D7000938727101CC0B7E7FF0C93840182890743
:103D80002380A4005CC02D46A54797B5020093850B
:103D900025C8138551E72304F400EFF0017199471A
:103DA0002315F10013864182930740068D451305C4
:103DB00070302316F100A3040100EF603136228633
:103DC000D14513056030EF6071351306A1008945B8
:103DD00013051031EF6091347000894513052031CF
:103DE000EF60D1331306910005448545130550302B
:103DF000A3048100EF609132930500050D45EF208B
:103E0000306D930500051145EF20906C854579458F
:103E1000EF20106C7000914513057040A3038100E2
:103E200023048100A304810002C623050100EF5092
:103E3000510F13067100854513050040EF50710EB8
:103E40003000854513051040EF50B10D1306A10059
:103E5000854513052040EF50D10C13069100854590
:103E600013055040EF50F10B7D55EF50F0207D557C
:103E7000EF703067EFF06F847D55EFF0EFA017E43F
:103E8000FF1F1304246F2286D5450145EF50700DA6
:103E9000A28517B50200130565B8EFF0713EC16742
:103EA0001387C18AF9171CC3232207001385C18118
:103EB000EFF04FA41385418AEF40015F03C5040072
:103EC0008545EF005029F2406244D244056182806A
:103ED000011183D7218206CE22CC26CAF917634D61
:103EE000F60017B502001305E5B8EFF0314EF240C9
:103EF0006244D244056182802A84AE8401478146AF
:103F0000ED4503D5C18A2315C100EF50B04E2AC636
:103F100079DD0356A100A68597D0FF1FE78000DA60
:103F20003000A28503D5C18AEFF02FA369D1ED45FA
:103F30002800EF50F06365BF757122C506C726C320
:103F4000328409C985476306F516BA402A449A4463
:103F500049618280280097D0FF1FE78020D6228603
:103F60002C0017B50200130565BF713E1306F4FF60
:103F7000420641822C0001458944993F63E984004F
:103F800017B50200130545BEEFF051447DBF8347CE
:103F900091001547638CE7066364F7021147E396C7
:103FA000E7FA0345A1009707002083C747B793F7B7
:103FB000B70F170700202304F7B6EFF05FA371B720
:103FC0001947638BE7081D47E391E7F8970700203F
:103FD00083C7E7B493F7B70F1306E4FF9305A10077
:103FE000138501DE17070020230BF7B297D0FF1FC0
:103FF000E780C0CC238C01D423AE91D4896793870A
:1040000007032390F1DE9307000579A097070020AE
:1040100083C7E7B0791493F7B70F22869305A10001
:10402000138501DE420417070020230AF7AE418002
:1040300097D0FF1FE78080C8938501DE228617B5E1
:1040400002001305A5B3238C01D4753CA28513850A
:1040500001DEEFE0BFCAD5BD9707002083C727ACBC
:1040600093F7B70F1306E4FF9305A100138501DE54
:10407000170700202305F7AA97D0FF1FE78000C489
:10408000238C01D4854723AEF1D49D679387070322
:104090002390F1DE930700FA938501DE0D4617B5F4
:1040A00002001305A5AD2381F1DEEFF0DFA58D45FC
:1040B00079BF280097D0FF1FE78040C02C0017B5BC
:1040C0000200130525AC2286EFF0FFA3A285238C06
:1040D00001D42800BDBF41119397050122C406C633
:1040E00026C2C1872E8463DA070603C50182A12B8D
:1040F000AA8405CD834705001307000B638EE702F2
:104100001307000D6391E70203472500C547631CB1
:10411000F700034665008345750017B502001305D7
:104120002591EFF0F115268575212165218DB2408D
:104130002244924441018280034745009307F007DF
:10414000E313F7FE8355850017B5020013050590AC
:104150002391B182EFF0D112F9B793F7150091CF07
:1041600017E6FF1F13064640938501E603C501824B
:10417000EF60C150134514005DBF93F725008DCB50
:1041800013060064894503C50182EF00901397E58B
:10419000FF1F9385254783C70500094515468507F9
:1041A00017E7FF1F2300F74625331345240041B7C7
:1041B00093F7850085C383C70182130740068146B4
:1041C00013064006994503D5C18AEF608144134523
:1041D0008400B1BF93F705019DC301478946094695
:1041E000814503D5C18AEF605121AA8517B5020028
:1041F00013050587EFF0D108134504010DBF93F7B0
:1042000045000145E38507F203D5C18AEF60711CC3
:104210000566130606C8914503C50182EF00700AC2
:104220001345440029B7411106C617E6FF1F1306C0
:10423000E635834706009545014585072300F600CE
:10424000EFE03FECB240154541018280411113057A
:10425000800406C622C426C24AC097C0FF1FE7805A
:1042600080E3372509001305057CEFE01F99372708
:10427000004083472700371400409734030093849D
:1042800064EF93E717002301F700B7E700E0416709
:1042900023A0E710E5288327840C37070C008D4501
:1042A000D98F2324F40C37050C00EFE04FF3EFF027
:1042B000EFEF8327840A85451305001093E7072055
:1042C0002324F40AEFE04FE78D4513050020EFE0CB
:1042D000AFE617B402001304A48BEFE05F96173922
:1042E0000300130929E903460400930514004A85D5
:1042F0001304241AEFF0C178E31794FE1735030076
:1043000013058514EFF0910CEFF04F87EFF04F9904
:10431000F3270080A18B9386818689CBF3270080C9
:1043200023A4F1869C42DD9B739007800F10000050
:10433000B7170040130770052380E704130780FABE
:104340002380E7040F10000003C7F702136777000C
:10435000A387E70223800704732700809C42A18B78
:10436000D98F7390078023A401860F10000037F5C2
:104370005569130505140528EFF02FA6EF603108E5
:10438000EFF05F9D97C0FF1FE780804B411106C68D
:10439000B7170040A3810704EFE06FFAB24005456C
:1043A00041016FE0EFF2B7374F9C93870730373703
:1043B0004F1CAA9713078707AA856378F70017355C
:1043C00003001305A5DD6FF0A16B011122CC55642C
:1043D00013040418335785024AC806CE26CA4EC6AF
:1043E00052C456C21309207B81469307D016130688
:1043F000400633748502130500196368F702050946
:104400004209135909011D8F9377390099E7B37752
:10441000C90281EBB377A90289C781469307D016F9
:10442000E9BF85469307E016C9BF854917360300E3
:10443000130686DC0945B307360183C7F7FF639689
:10444000A90081C6850793F7F70F6368F700850910
:10445000C2091D8F93D90901F9BF8567938707E1C9
:10446000335AF402050793140701C1802687CE86CC
:104470004A8617350300130525D53374F4029307D4
:10448000C003B35AF4023374F4025688D287A28868
:10449000EFF0015FA287624413970A0193160A01A5
:1044A000F240224A924A2686CE85D244B2494A85B3
:1044B00042494183C18205616FE00F923971130651
:1044C00040028145680006DEEFD03FF29307A1006D
:1044D0003800930661005000930521000A85EFE043
:1044E000EFAF835701006800938747893ED0835719
:1044F0002100FD173ECE835741003ECC835761001B
:104500003ECA835781003EC88357A1003EC6EFF0E4
:104510008121F2502161828083C7418BB9C341114F
:1045200022C4238A018A06C637140040A30104046A
:10453000EFF00FA18327440C370704009396D700B0
:1045400063DB06008327C40CD98F2326F40CB2400A
:104550002244410182808327840CD98F2324F40CC8
:10456000FDB7828083C7518BB1C7A38A018AB71771
:10457000004003A7470C411106C61316C700B70633
:1045800008006353060203A7C70C558F23A6E70C48
:10459000EFE0FFFE2537B240AA851735030013056B
:1045A000E5BE41016FF0C14D03A7870C558F23A4D1
:1045B000E70CF9BF828023AC05FE1C4191E70100A6
:1045C00001000CC18280BA8703A787FF6DFF23AC6F
:1045D000B7FE82801DC18346E5FF1307F00F9147A8
:1045E000639EE600411106C697D0FF1FE780A052E8
:1045F000B24081473E854101828095473E85828059
:1046000001E9014582800145B24022444101828096
:1046100095654111938505D022C4C98D2A84210551
:10462000C2054205C181418106C697D0FF1FE780C0
:10463000204271D9FD572320050023128500230352
:10464000F5002105D1B71387C18B1C43411122C44A
:1046500026C24AC006C601440149BA8489E7A16559
:10466000952D0DC401A803C7E7FF6318A7021DC855
:10467000A165D5249840832784FF6317E40223AE05
:10468000F18AFD57232C04FE230FF4FE2285B2404D
:104690002244924402494101828011E03E8983A76D
:1046A00087FF6DBF3E84E5BF232CF9FED9BFA1CDA6
:1046B000411122C406C62A849717002083C717CA4F
:1046C0002E856375F400894763E8870021370D451F
:1046D000B24022444101828083A785FF99E703C746
:1046E000E5FF9307F00F6305F700ED351545CDB7EE
:1046F000238F85FE1385C18B7D3D22852244B240E8
:10470000A165410189AC1545828023AE018A828072
:104710009387418D9C4399E33E85828003D7270090
:104720006316B70003C70700E308A7FEDC47E5B739
:10473000BDCD797122D406D626D24AD04ECE0144C0
:104740004147B3D78540858BB1CF120531472295BC
:104750003305E5029387418C03A907008544B39490
:104760008400C204C180BE892A990327090011C7A9
:10477000032549002EC60297B24531473304E402AF
:1047800083A709003E941C4489E7232009002322C3
:104790000900B2502254A58D02599254F2492E8537
:1047A000456182800504E31EE4F88144DDB72E856F
:1047B000828041111397050122C406C626C24AC051
:1047C00041872E84635E0700BD3D11C12135A1677D
:1047D0003D8C2285B24022449244024941018280AC
:1047E000EDD9AA8701474146B356E440858A9DCA60
:1047F0009207BA97B146B387D7029386418C03A933
:1048000006008544B394E400C204C1803E99832726
:10481000090003254900829723200900232209006B
:10482000258C45BF0507E311C7FC8144D5BF971709
:1048300000209387E7AE9C53411122C406C613841F
:10484000818299C782971C403E9523A4A18229A00A
:104850009387C18C9C43FDF70840B74703009387BB
:10486000D73F3305F502B7A72600938737ECB24050
:1048700022443E9523A4A1824101828079C9938775
:10488000C18C9C43797122D426D24AD04ECE52CCD0
:1048900056CA5AC806D65EC63A8AB689328BAE8ADE
:1048A0002A8982979387418C9843BE840144B146FC
:1048B000C147B30BD40233067701104251E6C165FC
:1048C000938505F0414597D0FF1FE78060181DE5EF
:1048D000971700209387C7A49C5B2D4589C7114576
:1048E000814582972D45B250225492540259F24983
:1048F000624AD24A424BB24B456182809387418DD6
:1049000098431DEF23AAA18C230005009C40054776
:104910003317870023260500232465012311E500B2
:1049200023224501DE9723A0270123A2570123A4B8
:1049300047010145E38909FA238089006DB73E8765
:104940005C47F5FF48C7C9B70504E314F4F62145F1
:1049500059BF094582809717002083C737A0637F1E
:10496000F5001387018C9317150008433E95835774
:104970000500DD8D2310B500014582800D45828044
:104980009717002083C7979D6371F5021387018CE9
:1049900093171500084393C5F5FF3E95835705000F
:1049A000FD8D2310B500014582800D4582801307DF
:1049B00005FF1377F70FFD4763E5E70AB146B30636
:1049C000D5029387418C984389473697184359CB32
:1049D000011122CC4EC60544935945003D8933153B
:1049E000A40013140501418026CA4E85AE84A28519
:1049F0004AC806CE313B2A89814721CDA2854E8502
:104A000041379387C18C9C4382979717002083D7A7
:104A1000A799338797022A84814613060064B3B7A7
:104A2000970213050732B335E500BE95EFE0616EDE
:104A3000B307850097160020938686963E87D4425A
:104A400063E4A70063E4D7003387D7402324E90059
:104A50008147F2406244D2444249B2493E850561F1
:104A6000828089473E858280011126CA06CE22CCEB
:104A70004AC84EC6BD47894463EDA7023147330794
:104A8000E5029387418C9C438944BA979C4395C324
:104A900005443314A400420441802E890145A285B7
:104AA0008539AA89814411C5A2850145D13D23A438
:104AB0002901F240624426854249D244B249056147
:104AC00082809717002083C777896364F5000145CA
:104AD000828001119387C18C56C283AA070006CE3B
:104AE00022CC26CA4AC84EC652C4638D0A0A171A77
:104AF0000020130AEA8A83244A00B74736FE9387C8
:104B000007C8AE899715002083D5058ABE94B38760
:104B1000C5022A8432898146B3B5C502138507329E
:104B2000B337F50013060064BE95EFE0815E63EBDA
:104B3000A406829A9715002083D50587B38725039D
:104B4000AA84130600648146B3B525031385073292
:104B5000B337F500BE95EFE0C15BB3079500BE84A7
:104B600003274A0063E4A70063E4E700B384E74057
:104B7000CE852285713E01C504C505452DA09365EE
:104B800004F0C205C181414597D0FF1FE78040EC8A
:104B900005E5970700209387A7789C5B81C7A285CE
:104BA000114582970145F2406244D2444249B249DC
:104BB000224A924A056182809387418D9C438DE30E
:104BC00023AAA18C85472326050004C5231135019E
:104BD00023008500A300F5002322050079BFBA87D2
:104BE000D84775FFC8C7F9BF49C9797122D426D201
:104BF0004AD04ECE52CC56CA5EC662C466C206D6F3
:104C00005AC83689328AAE89AA844144314C938A83
:104C1000418C854C930B0003330B840303A70A00DC
:104C20005A971C43B1E79375F400B395BC00135534
:104C30004440C2055286C1811375F50F59350DC91F
:104C400083A70A000145DA9784C323A237016304CE
:104C5000090023008900B250225492540259F249AB
:104C6000624AD24A424BB24B224C924C45618280FE
:104C70000504E31374FB2145F9BF09458280411106
:104C800022C426C24AC006C62A842E89B284153D93
:104C9000CA852285EFF0DFA705CD9705002083D5D3
:104CA000A570B38795022A84130600648146B3B5C4
:104CB000950213850732B337F500BE95EFE06145E5
:104CC00048C00145B24022449244024941018280D9
:104CD0002145CDBF411122C426C24AC006C62A8939
:104CE0002E84EFF0FFA2AA8419C123110500A2852A
:104CF0004A8579319707002083C747666397270164
:104D000083D7818C5D8C2394818C014591E019457A
:104D1000B240224492440249410182809307F0024A
:104D200063E6A7044111B14722C43304F50226C249
:104D30009384418C9C4006C6A297984389470DC333
:104D40009377F5008545B395F500C205C1811181C2
:104D500051379C40A29723A0070023A20700814758
:104D6000B240224492443E854101828089473E857B
:104D70008280411106C622C4EFF09F9911E50145DA
:104D8000B2402244410182809387C18C9C430045FC
:104D90008297970700209387A7606368A402D8438F
:104DA000B74636FE938606C83305A4403697E378A7
:104DB000E5FC13070064B335E50203D6870081469E
:104DC0003305E502EFE0E13465BFD8433A94C1BF53
:104DD000411106C623A8A18C0295B2409707002076
:104DE00023AAA758014541018280994763E9B7008A
:104DF0008A05970700209387E758BE9588C182806F
:104E0000411171468145170500201305A55706C6B7
:104E100023AA018C23A8018C23A6018C97C0FF1F15
:104E2000E78040ED13068002814517050020130539
:104E3000E55297C0FF1FE780E0EBEF5091659707C1
:104E4000002083C7574F13D527008D8B3E958D4784
:104E50003305F502854539051375F50F97070020D1
:104E6000238FA74E99473305F5021305052497D0E4
:104E7000FF1FE780E0BD23A2A18C59C59947170603
:104E800000200346C64D3306F6028145130606246C
:104E900097C0FF1FE78000E69387418C9C43938770
:104EA000072423ACF18C170700200347474B0A0760
:104EB000BA9723A0F18CEFF05F8505239387818D4E
:104EC00094439707002083C77749139727003697A5
:104ED000170600001306068610C313871700137702
:104EE000F70F0A073697170600001306C68C10C383
:104EF00013873700890793F7F70F8A079705002074
:104F0000A38EE544B69790C3B240410182809707D3
:104F1000002083C7B744170700200347474463F1C5
:104F2000E7021387818D1843938617001706002028
:104F3000A306D64293962700369708C33E85828003
:104F40009307F00FE5BF1C416388071641777D8FFB
:104F5000B706002089476312D71603574500630E32
:104F60000714411122C419462A849305F00F6905DC
:104F700006C697C0FF1FE78000E205478D4763081C
:104F8000E5121C4481CB5858994763020712185CFC
:104F9000630F07101306C003814517050020130592
:104FA000253897C0FF1FE780E0D41306C003A28511
:104FB000170500201305C53697C0FF1FE78000D0F6
:104FC0001707002003578736970700209387473538
:104FD00019E713070010970600202399E6341707F6
:104FE00000200347C73411E70547970600202380B8
:104FF000E634170700200357A73311E76D479706DC
:1050000000202397E632170700200347573211E7A5
:10501000154797060020A38CE630170700200347AA
:10502000473111E70547970600202384E63017072C
:1050300000200347173019E703C7F7009706002041
:10504000A389E62E170700200347C72E11E735472F
:10505000970600202380E62E170700200347D72D50
:1050600019E71307800297060020A387E62C17078D
:1050700000200347372C19E71307D00297060020BA
:10508000A38AE62A0347840119E71307C00397069A
:1050900000202383E62A9C5791C782979707002018
:1050A0002392A72CFD57A38FF1A0993B8147B240D3
:1050B00022443E854101828089473E8582800111DC
:1050C0004EC6970900209389A92D83A7090006CE13
:1050D00022CC26CA4AC852C4829713090064B33549
:1050E000250303DA89008146528633052503EFE064
:1050F00041029707002093876726804FAA840145C5
:105100006306940233858440636E940003A54900CE
:1051100052868146B335A9023305A902EFD0717FCB
:10512000018D26959707002023A69724F24062441C
:10513000D2444249B249224A05618280011122CCFF
:105140000A852E844146971502009385E5FC06CE1C
:10515000EFE0A135180806043A94035504FF9707B9
:10516000002083D78724F2406244AA9737450F0076
:10517000130505243355F502056182809707002049
:1051800083D7A72251471D45637CF702794719450C
:105190006378F7021307200315456373F7021307BB
:1051A000B0041145637EF700130740060D4563798F
:1051B000F7001307600909456374F70013B5B70FCB
:1051C0008280011122CC06CE2A842EC6EFF02FE673
:1051D000B245F240818D33A5A50222956244137534
:1051E000F50F05618280011122CC06CE2A842EC6DD
:1051F000EFF0EFE3B245F240818D33A5A502229591
:1052000062444205418105618280011122CC06CEB3
:105210002A842EC6EFF0AFE1B245F240818D33B55E
:10522000A50222956244056182809707002093873A
:10523000270F985739CB411122C426C206C6BE8417
:105240000297170700200357E7112A8415CBBA8766
:105250006373A700AA87C207C183BA866373E40099
:10526000A286C206C182958F5147635BF700DC546A
:1052700091C38297EFF0704C970700202394870E1C
:10528000B2402244924441018280828097070020EC
:1052900093870709DC57011106CEAA8581C72AC664
:1052A0008297B245D1C19C410545A5CFDC41B5CB24
:1052B00083D78500BDC783D7A500A5C783C7C50011
:1052C000ADE34146170500201305850D97C0FF1F6C
:1052D000E780C09E970700209387870C9C4323A6F6
:1052E000F18C9707002083C737058DE7930780026D
:1052F000170500200355450B3305F50237460F000F
:105300001306062481468145EFD0B160970700203F
:10531000A384A702170500001305A5DAEFF05FAB21
:105320000145F240056182809707002083C7A700EE
:10533000139787016187635407049707002023AD03
:10534000070297C7FF1F938727D817070020232935
:10535000F7047D579707002023A6E704B78732009C
:10536000938727A19706002023A0F6049707002023
:10537000238E0702B7C7004023A4E726A1BF13F777
:10538000170005CFB7872003938707D017070020A2
:10539000232CF700B707C0A8170700202324F70025
:1053A00097C7FF1F938767D517070020232AF7FEAB
:1053B00097070020238C07FE31BF617797060020F6
:1053C0002394E6FE81CB9307003217070020231EAB
:1053D000F7FCC9B793072003CDBF011122CC1704F6
:1053E00000201304E4F3084406CE26CA4AC801E9A3
:1053F0000545F2406244D2444249056182805C58CE
:10540000E5DB185C75D77000854582971844B24774
:10541000E300F7FE9305E00417050020035505F1AE
:1054200097C0FF1FE780C062170700202328A7F45A
:1054300061D117060020035666EF9305F00F97C061
:10544000FF1FE780208B814417090020130909F111
:105450009707002083C7A7ED0326090263C1F40262
:10546000328597C0FF1FE780006B0145970700203A
:1054700023A607F09707002023A407F09DBF9705F8
:10548000002083D5A5EAB38795020844185C89817A
:1054900085043E9508C2029765BF011156C2970A5E
:1054A0000020938AEAE783A78A0022CC4AC84EC626
:1054B00006CE26CA52C45AC0AA892E843289638570
:1054C000072203A74A03630707147D476366A714EF
:1054D00097040020938484E803AA040263170A0A4D
:1054E0009565938515E017050020035525E497C0C1
:1054F000FF1FE780E0559707002023A1A7E82A8631
:10550000630A051083A74A0303A58A0097050020B4
:1055100083D5C5E18981829783A78A0003AA040203
:1055200017070020232EF7E48947639CF908C14739
:105530006312F40E9705002083D545DF938505FCA3
:105540009147B3C5F5028A05D29503C705009307B5
:10555000A005631DF70A83C715006399370B4A85B9
:105560002286910597B0FF1FE78040759C505285B9
:10557000639347150145F2406244D2444249B2491F
:10558000224A924A024B05618280D850E38EE7F8A6
:105590009565938525E017050020035525D997C00B
:1055A000FF1FE780E04A2A8A35C52A8683A74A0377
:1055B00003A58A009705002083D545D78981829766
:1055C000A5B78D47639DF900C1476315F40497059E
:1055D000002083D5A5D5938545FDF199B5B79147B1
:1055E000639AF900631834039705002083D505D426
:1055F000A115E5B7C147639FF900A14763EC870098
:105600009705002083D585D2C115C1BF9C50528516
:105610006397470D294585B71307F006568B6361DD
:10562000A70A130A05FE1947334AEA0217070020A2
:105630000357C7CF970A0020938A4AD2330AEA0257
:105640003E9A83A74A026395470183A40A029DE418
:105650009305E00417050020035545CD97C0FF1FB3
:10566000E780003FAA845DD583274B039705002080
:1056700083D5C5CB2A8689815285829791451307A8
:10568000A005898193972500A69783C60700639399
:10569000E60483C61700639C360385058A052286C7
:1056A000A6954A8597B0FF1FE780406183A70A024D
:1056B000E38297EC268597C0FF1FE780C0455DBD5C
:1056C0001307E007E368A7F4130A05F985B783D544
:1056D000270045BF83A70A02E38E97F2268597C06D
:1056E000FF1FE78040433DB797070020938707C718
:1056F0008C538DD191479306A0058983139727007A
:105700002E9703460700E317D6F003461700631CE5
:10571000360185078A072286BE954A8597B0FF1F06
:10572000E780C05981BD83572700C1BF970700207C
:10573000938707BF984739C79C5FA9C7054763137D
:10574000E504411122C417040020130424C11050A1
:1057500006C60DC648509705002083D525BD898112
:105760008297085097C0FF1FE780E03A9707002014
:1057700023A607C09707002023A407C0B2402244F5
:10578000410182808280011117070020130747B969
:105790004EC68329870022CC26CA4AC806CE52C4E8
:1057A00056C2AA842E843289638A09201C5FBA8A71
:1057B00099EB2945F2406244D2444249B249224A17
:1057C000924A056182805C5BEDD7FD4763E9A70ED5
:1057D00097090020938989B883A70902B1CB03A553
:1057E0008A0083A749026395A70689476393F40853
:1057F000C147E310F4FC17050020035525B391477A
:10580000130505FC3345F5029317250003A509028E
:105810002286CA853E959307A0052300F500A300C4
:105820009500110597B0FF1FE7804049014559B722
:105830009305E00417050020035545AF97C0FF1FEF
:10584000E78000219707002023AAA7B249F995B75E
:1058500083A74A0303A609029705002083D505AD57
:105860008981829783A78A0017070020232AF7B02F
:10587000ADBF8D47639EF400C147E31CF4F21705EA
:1058800000200355A5AA130545FD9377C5FFBDBFAD
:105890009147639AF400E31E94F017050020035526
:1058A000E5A82115DDB7C147E395F4F0A147E3E290
:1058B00087F017050020035565A74115F9B7930731
:1058C000F00663EAA706930705FE1947B3C7E70288
:1058D00017070020035787A5170A0020130A0AA8F4
:1058E000B387E702BE9983270A02A9CF83274A021A
:1058F000639A370703250A0291461308A005FD5550
:1059000093D72600C207C183139727002A9703461F
:105910000700631D06078348170003562700639599
:105920009806B306D64063CF860485078A07228689
:10593000CA853E95C5BD9307E007E3ECA7E693074C
:1059400005F979B79305E004170500200355059E76
:1059500097C0FF1FE780C00F9707002023A0A7A2D2
:1059600051F581BD83A74A0303260A02970500204B
:1059700083D5C59B89814E8582979707002023A1F7
:1059800037A18DBFA300B700B2869DBFB385860047
:1059900017060020035686999105130606FCE3FAC4
:1059A000C5E0130634001376C60F1106B296230025
:1059B0000701A30097002311D70085BF9707002098
:1059C0009387C7999453BE89A1C203A50902914642
:1059D0001308A005FD5593D72600C207C18313976E
:1059E00027002A9703460700631606058348170019
:1059F0000356270063989800B306D640E3D786F293
:105A0000A300B700B286C1BF8357C70017050020A7
:105A10000345E5919305E0043305F5024205418114
:105A200097C0FF1FE780C0029707002023A8A79414
:105A300049FD41B3170600200356468F9705002005
:105A400083C5E58EB385C502338686001106E3E281
:105A5000C5D681BF01458280011106CE2EC6EF80DA
:105A6000604E01C9B245F2400355250005616FC083
:105A70000061F240494505618280A3820190238242
:105A8000019023A6018E23A8018E23AA018E23ACA8
:105A9000018E23A4018E23A2018E970700209387F5
:105AA0002791370684033707B40090D337C6070021
:105AB00098C3130606B83747A000D8C3D0D337071A
:105AC000100041669306070AB705500093080601C7
:105AD00094C723A4170393860501930816F8D4C727
