:040000006F20802CC1
:10000400000000000000000090000020A204002076
:10001400A9BDF9F3900000200000000000000000DA
:10002400900000209000002000000000000000006C
:10003400900000200000000090000020000000005C
:100044000C08002090000020900000209000002068
:100054009000002090000020AC05002090000020BB
:10006400900000209000002090000020C43E00007A
:1000740096050020900000209000002090000020B1
:1000840090000020900000209000002090000020AC
:1000940001A04111B7170040985F3AC6945F3247F8
:1000A400E39CE6FE32454101828073270080218B68
:1000B4009387018709CB7327008023A8E18698439F
:1000C4005D9B731007800F100000371700409306E4
:1000D40070052300D704930680FA2300D7040F1079
:1000E40000008346B70493F6F60DA305D704230056
:1000F4000704732600809443A18AD18E73900680EE
:1001040023A801860F100000937605026384061865
:100114000347A700118B25E773270080218B09CBA8
:100124007327008023A8E18698435D9B73100780A2
:100134000F10000037170040930670052300D70402
:10014400930680FA2300D7040F1000008346A7000B
:1001540093E646002305D70023000704F326008016
:100164009843218B558F7310078023A801860F10A5
:1001740000001307004B010001007D176DFF73277A
:100184000080218B09CB7327008023A8E186984344
:100194005D9B731007800F10000037170040930613
:1001A40070052300D704930680FA2300D7040F10A8
:1001B40000007D892314A700010001000100010053
:1001C40023000704F32600809843218B558F731076
:1001D400078023A801860F10000073270080218B5D
:1001E40009CB7327008023A8E18698435D9B731095
:1001F40007800F1000003717004093067005230096
:10020400D704930680FA2300D7040F1000000F10C0
:100214000000B726004013061005A383C680230000
:100224000704F32600809843218B558F73100780B1
:1002340023A801860F10000073270080218B09CBAF
:100244007327008023A8E18698435D9B7310078081
:100254000F10000037170040930670052300D704E1
:10026400930680FA2300D7040F1000008346B704D6
:1002740093E60608A305D704230007047327008028
:100284009C43A18BD98F7390078023A801860F10FC
:100294000000828093760504638B06140347A7004D
:1002A400418B25E773270080218B09CB73270080BE
:1002B40023A8E18698435D9B731007800F1000000C
:1002C40037170040930670052300D704930680FA7D
:1002D4002300D7040F1000008346A70093E606010D
:1002E4002305D70023000704F32600809843218BBD
:1002F400558F7310078023A801860F100000130781
:10030400007D010001007D176DFF73270080218BA4
:1003140009CB7327008023A8E18698435D9B731063
:1003240007800F1000003717004093067005230064
:10033400D704930680FA2300D7040F1000009376A5
:10034400F50193E606042314D7000100010001001F
:10035400010023000704F32600809843218B558F66
:100364007310078023A801860F1000001307600490
:100374006310E50473270080218B09CB7327008069
:1003840023A8E18698435D9B731007800F1000003B
:1003940037170040930670052300D704930680FAAC
:1003A4002300D7040F100000B72600400946B5B556
:1003B40073270080218B09CB7327008023A8E18653
:1003C40098435D9B731007800F100000371700409F
:1003D400930670052300D704930680FA2300D704FC
:1003E4000F100000B7260040130620053DB5732703
:1003F4000080218B09CB7327008023A8E1869843D2
:100404005D9B731007800F100000371700409306A0
:1004140070052300D704930680FA2300D7040F1035
:1004240000008356870093E6060C2314D700C5BB4F
:100434004111814601468145114506C6E921F3274C
:100444000080A18B9386018789CBF327008023A8A2
:10045400F1869C42DD9B739007800F100000B71754
:100464000040130770052380E704130780FA2380F4
:10047400E7040F10000003C7670413671700238302
:10048400E70423800704732700809C42A18BD98F43
:100494007390078023A801860F100000B240410129
:1004A40082808146014681451145B129F3270080A8
:1004B400A18B1387018789CBF327008023A8F186BA
:1004C4001C43DD9B739007800F100000B71700409A
:1004D400930670052380D704930680FA2380D704FB
:1004E4000F100000FD562396D70223800704F3263D
:1004F40000801C43A18BD58F7390078023A80186AD
:100504000F100000F3270080A18B89CBF327008014
:1005140023A8F1861C43DD9B739007800F10000015
:10052400B7170040930670052380D704930680FA1A
:100534002380D7040F10000083C6670493E61600D7
:100544002383D70423800704F32600801C43A18B54
:10055400D58F7390078023A801860F10000001A097
:10056400BD473305F50201007D1575FD82804111FB
:1005740022C426C206C6AA84014463179400B2406A
:10058400224492444101828005041305803E4204C2
:10059400C13F4180DDB7B71700401307000323882C
:1005A400E702854723A0F18A73002030B787004013
:1005B40003C76700098B630C072003C77700930602
:1005C4000003137707036301D70803C8418B13861D
:1005D400818A0547B30606012380E60083C57700B8
:1005E4001387018B429793F5F50F2300B70003C5DA
:1005F40087009385C18AC2951375F50F2380A500E2
:100604000347070089451377F7036305B70C63E0D5
:10061400E50A6307071885456301B71283C7418B51
:100624003307F600034707001377F70F09CB850755
:1006340093F7F70F0D476366F718238AF18AB78794
:10064400004009472383E700B787004083C777004A
:10065400E207E18763D4070483C7418B1387818A48
:100664003E9785462300D7001387018B3E97930658
:1006740000032300D7001387C18A3E97A14685074C
:100684002300D70093F7F70F0D47636FF712238A00
:10069400F18AB787004009472383E700854503C5EE
:1006A400418A974000E0E780203E730020309306A3
:1006B40010026308D70C930620026301D706930641
:1006C4000002E31DD7F403C727021377C70F13678C
:1006D4002700D5A003C767001377070465C303C7C2
:1006E400A702138841BC138541B413470708238527
:1006F400E70203C7A7021377370F13678700238521
:10070400E702814713070004B305F5008C41B306E3
:10071400F80091078CC2E399E7FE09B703C7A70263
:10072400134707042385E70203C7A7021377C70FFC
:10073400136727002385E702D5B503C7670013773E
:1007440007042DCF03C76702138841B0138541A85E
:10075400134707082383E70203C767021377370F9A
:10076400136787002383E702814713070004B30557
:10077400F5008C41B306F80091078CC2E399E7FEBB
:1007840071BD03C76702134707042383E70203C746
:1007940067021377C70F136727002383E702BDBDE2
:1007A40003C767001377070411CB03C72702137726
:1007B400370F136787002381E7028DB52380060076
:1007C400B1BD238A018AA5BD238A018AD9B503C78D
:1007D4006700058B11C705472383E7008945C1B529
:1007E40003C76700118BE30207EC11472383E7007B
:1007F400914575B5411106C6974000E0E78040E693
:10080400974000E0E78060E9612DFDB7372700409D
:1008140083476700858B85CB85462303D700938761
:10082400C18C9C43850723A6F18C294733F7E70243
:1008340019E32384D18C13074006B3F7E70281E759
:100844008547A384F18C730020302303048015476B
:100854002303E48001002302A48082808307648050
:10086400E3CE07FE23030480828083076480E3CE03
:1008740007FE03454480828083076480E3CE07FE3D
:100884002302A4808280411126C44AC24EC006C6F7
:100894001377F50BAD47AA892E8995446306F700B3
:1008A40019456537653F8D444E854537FD59FD141F
:1008B40063983401B240A2441249824941018280C2
:1008C400135509011375F50F453F2209CDB70111E1
:1008D40026CC06CEB704080051371545BD3771370D
:1008E40069372AC6A53F32459377150089EB13650E
:1008F40015001375F50FF240E24405618280FD1482
:10090400E9FC0145CDBF397126DC4ADA4ED852D60E
:1009140056D45AD25ED006DE62CE66CCB7E700E08B
:100924007D5783AA070022C603AA470023A0E7181D
:1009340023A2E718B7170040130770052380E704C4
:10094400130780FA2380E70483C74704930B75FFDA
:10095400B684E20793FBFB0F8546AA892E8B328966
:1009640037240040E187015763FA76016308D50014
:100974008946130700026313D5000157D98F93F7F3
:10098400F70FB71C00402382FC0411472303E480C3
:100994001305F00F5D3D094CD135636D7C11B7052E
:1009A4000700DA9537870700795563F2E504B387C2
:1009B4009500636EF702370B0800A94733EB650116
:1009C4006399F90689E48144513D26850DA0DA85B1
:1009D4000945553D05090345F9FFFD14050B693D1E
:1009E40081C49377FB0FFDF7DD3569FD7D55B7179E
:1009F4000040130770052380E704130780FA23805F
:100A0400E70403C74704418B2382E704F250B7E7A6
:100A140000E023A0571123A24711E2543244525953
:100A2400C259325AA25A125B825B724CE24C216167
:100A34008280A5476395F90685691309F00FB3060B
:100A44009900B3742B01B6941349F9FFB374990058
:100A5400856B33796901416B9387F9FFB3F72701FC
:100A640099E363FC340193D94900C147E3E637FFB6
:100A740099BF0569C1697D19D9B71305800D6388CC
:100A84006901130500026384790113051008CA85FE
:100A9400DD3B353D21DD4E99B3843441D9B7DA8548
:100AA4002D45D533CA94E30099F205097D3BA30F84
:100AB400A9FED5BF9387F9FF93F7F70F6361FC0C89
:100AC40083C71C0413073008631FF70437070800A3
:100AD400636BEB04B3079B00B706100063F5D70400
:100AE400334BEB0089476393F9068980D549E38C3E
:100AF40004ECDA850945413B11090327C9FF9147F5
:100B04002320E48003076480E34E07FE230334813B
:100B1400FD17EDFBFD14110B81C49377FB0FE9FF67
:100B24007D3371F5E1B5B717004003C75704B70724
:100B340008001377070219E3B78707007955E378AC
:100B4400FBEA33079B00E3FFE7F855B58547E382EB
:100B5400F9F2DA852D45053B9389F4FFE38504E634
:100B6400293393F7390091EB832604800327090086
:100B740093074900E39AE6E43E89CE84F1BFB54782
:100B84006396F9001305900BC93135BDB1471305C0
:100B9400B00AE38BF9FE99476391F904B70508009D
:100BA400B365BB002D45C53181448D4BA1497539D1
:100BB40063967401832704802320F9008504E39855
:100BC40034FF8327048013172B0163550700231276
:100BD400F900D5BB2322F900FDB39D476399F902BF
:100BE40081451305B0044531BD4423200900232267
:100BF4000900FD599D3993F77400CA9703C707008C
:100C0400FD14398D2380A700E39634FF6DBBA14703
:100C14006392F9046D398144630D0B008D4793048D
:100C2400C0036308FB009304000563048B01930471
:100C340040041375C507E30895D819453931393986
:100C44000545213126850D3909453D314931E31CDE
:100C540005D669BB91476399F90013056006F5361B
:100C6400F53E130590090DB7E38F09D4F154A9BBE0
:100C740019CD91CD09CE81473387F500834607000E
:100C84003307F50085072300D700E317F6FE8280BB
:100C940019C991C909CA910583A7C5FF11057D1614
:100CA400232EF5FEC5BF828001C919C62A96050503
:100CB400A30FB5FEE31DA6FE828081473307F5002E
:100CC4000307070019E33E8582808507C5BF01112C
:100CD4002E8626CAAA84131506019305F0044181C1
:100CE40022CC06CE32C6EF00F0512A8401C532462A
:100CF400A685BD3F2285F2406244D24405618280CC
:100D0400854715C18DC105C28147B306F5003387F8
:100D1400F50083C60600034707006398E6008507CD
:100D2400E315F6FE85473E8582808147EDBF930734
:100D3400F6FFBE952A966313C5008280FD1583C70E
:100D440015000505A30FF5FEFDB7AA87014581CF60
:100D540009CE3E96850703C7F7FF6317B700E39BE9
:100D6400C7FE054582808280014582807971938720
:100D7400818E22D4804306D626D24AD04ECE52CC7F
:100D840056CA5AC85EC65DCCB7C4C901014B938923
:100D9400018E9384F437174A0000130A2A85974A70
:100DA4000000938A6A88174900001309298C835725
:100DB400240085E35C44631B0B0023A4F18E832B86
:100DC400C4002285EF0070505E84B9A82326FB007E
:100DD400FDB783A7090082971C443307F540637667
:100DE400F500032749001D8F2A9763E0E40897471D
:100DF400000023A30784835524000345040097407F
:100E040000E0E78060C85C405844A1CB0C44032652
:100E14004900AE97BE8663E4B70063E4C700B386B7
:100E2400C74014C4228B3A8459F097370000938743
:100E3400A77F9C4B09476370F706F9171737000023
:100E4400232CF77EB250225492540259F249624A3A
:100E5400D24A424BB24B4561828063150B0023A4F6
:100E6400E18EB1BF2326EB0099BF03274A0209CFC5
:100E740063EFA7003385A74083A70A016376F500D3
:100E84009737000023AAA77A228B404471BF032717
:100E94004900BA97C5B79737000023AF07785DB705
:100EA400411122C4173400001304847A1C4006C67E
:100EB40026C24AC091C782979737000023AA0778B1
:100EC4009747000083C79792858B974400009384CB
:100ED400A49195C397470000A38A079083C7740021
:100EE4001547637AF700052B83C77400F5178A0743
:100EF400A2979C4382971C4491C382971389418D86
:100F040003270900173600000346167297370000BE
:100F140083C7877193961700BA9683D60600C5CE09
:100F24009737000083C7477063E1C70C9737000009
:100F3400238C076E1C40639507129747000083C7F4
:100F4400378B91CF83C7740093F7F70F89EB9747DB
:100F54000000A38F0788974001E0E780A0D1938722
:100F6400018E9C43638E070E9737000093870770AA
:100F7400DC43173700002321F76CCD3B9737000083
:100F84009387C766DC53E9CF173700001307C76997
:100F9400184B9737000083C7B7666363F70C83C7A2
:100FA40074001547636EF70A9747000083C74788A4
:100FB400918BDDE7032609009736000083C6D666C9
:100FC40063C6D70A2244B24092440249410117F34E
:100FD40002E06700A314850793F7F70F9736000024
:100FE4002384F664E3E4C7F225BF86073E9783555E
:100FF400070023100700239E018C9387C18E9C4316
:10100400173500000345456213172500BA979C4322
:10101400829783D7C18D173700000347E76093C7D2
:10102400F7FF7D8D93171700032709003E97835719
:1010340007005D8D2310A7009737000083C7C75EA4
:1010440091C78507173700002300F75E17370000A4
:101054000347875D9737000083C7175DE378F7EC94
:10106400B2402244924402494101828013971700FE
:101074003297035707006DF7850799B7AD6737C7F0
:101084000040BD072326F7200F100000973700000B
:1010940093878759C84F83278726BD66BD0693C7A4
:1010A400F7FF99836A052326D7205D8D828041113D
:1010B400B7170040985F3AC6945F3247E39CE6FE58
:1010C4003245410182801305F00F82800111973768
:1010D40000009387A77D22CC03A4070C26CA06CE62
:1010E4002AC42EC6854419E40145F2406244D24420
:1010F400056182808347910003471400858B630454
:10110400F7000044CDB719469305A1001305240048
:10111400C53EE31895FE0545C9BF1387819A1C4354
:101124009306001094C301000100010001001C4358
:1011340023A007008346150003482500A2064208A1
:10114400C29603480500C296034835006208C29659
:1011540094D78346550003486500A2064208C29608
:1011640003484500C296034875006208C296D4D766
:10117400834695000348A500A2064208C296034888
:101184008500C2960348B5006208C29694DB834684
:10119400D5000348E500A2064208C2960348C500EC
:1011A4000345F500C2966205AA96D4DB83C61500F2
:1011B40003C52500A2064205AA9603C50500AA9602
:1011C40003C535006205AA9694CF83C6550003C5AE
:1011D4006500A2064205AA9603C54500AA9603C562
:1011E40075006205AA96D4CF83C6950003C5A500F1
:1011F400A2064205AA9603C58500AA9603C5B500B2
:101204006205AA9694D383C6D50003C5E500A20659
:101214004205AA9603C5C50083C5F500AA96E20552
:10122400AE96D4D3D443F59AD4C3D44393E61600EC
:10123400D4C3944393E6160094C3BA879443D84224
:10124400058B59E3984E01452300E6009843184F57
:101254002183A300E6009843184F41832301E6004D
:101264009843184F6183A301E6009C43D84F23029F
:10127400E600D84F2183A302E600D84F418323031D
:10128400E600D84F6183A303E60098532304E600E5
:1012940098532183A304E600985341832305E60071
:1012A40098536183A305E600D8532306E600D85378
:1012B4002183A306E600D85341832307E600DC53C9
:1012C400E183A307F600828001008DBF1387C19AD2
:1012D4001443411122C49C5E4AC006C6998326C2A7
:1012E400858B3A841389819AD1C79C5E9734000018
:1012F4009384844F93F7F7F99CDE17370000034774
:10130400074F93070008631BF700832709009C43DA
:1013140093F7070417370000230BF74C83C7040027
:1013240093F707048DC39387018E9C438297973765
:10133400000023A3A74C83C7040093F7F70B1737C8
:1013440000002303F74A83C7440093F707049DE38F
:10135400854717370000A30BF7489387819B9C436D
:10136400096798C7130700FC973600002380E648F6
:10137400D844F8D31C40985F1183058B09CB985F40
:101384003D9B98DF0547973600002381E646985F2A
:101394001D83058B11CB985F1377F7F798DF85478B
:1013A400173700002304F74483270900D843058333
:1013B400058B19C7D843759BD8C3D843799BD8C329
:1013C400B24022449244024941018280397106DECE
:1013D40016DC1ADA1ED82AD62ED432D236D03ACE19
:1013E4003ECC42CA46C872C676C47AC27EC0F93DB3
:1013F400F250E2525253C2533255A25512568256FB
:101404007247E2475248C248324EA24E124F824FB0
:101414002161730020309387819B944397370000A8
:101424009387873C03C70700058B11CB97370000D0
:10143400238E073A97370000A38A073A828003C7AE
:101444001700058B65F7F85271FF83C75700DDB7A6
:101454001388C19A032708001C5F9583858BD1E705
:1014640009C61C5BBD832300F60085CA83270800D8
:10147400985B4607935767016356070093E707C0D5
:10148400C207C18303970600C207C18709C7BA9779
:101494000947B3C7E7022390F60085CD83471500BB
:1014A4008DCB9736000083C6863493F606041387E3
:1014B400970089478DCA3A950347050085469947A1
:1014C4001376F7066311D60262076187B947634C46
:1014D4000700832708009C5FED838D8B173700007E
:1014E400A309F73081473E8582808547EDBF4111CE
:1014F40022C406C61384819B18402DE9AE87745319
:10150400FDFE3E85B285973700002380072E973075
:1015140001E0E780604B9387C19A9C43B706800043
:101524009843558F98C3D857719BD8D797370000E5
:10153400A38E072A97370000A388072A1C4009476F
:1015440098C31440173700001307072A834727005E
:10155400858B89EB83473700858BD9C39737000088
:1015640023860728B2402244410182808D47631EAE
:10157400F5009387C19A9C43B70680009843558F22
:1015840098C3D857719BD8D76DBF8547E31BF5FA2D
:101594005447F977FD17F58F5CC70F1000001C4006
:1015A400096798C7130700F8173600002300E624DC
:1015B4001387C19A1043184231830D8B11E7130727
:1015C4006019F8D3D4C7B5BF1842094631830D8BCF
:1015D4006315C7001307E043EDB71307E01BD5B746
:1015E400FC52ADF741B75D71A2C4A6C22A841306AA
:1015F40080022800AE849305100886C6CAC04EDE59
:1016040052DCEFF06FEA3545973001E0E78020784F
:101614001383C19A832703009376F41F138E019CCE
:1016240023A40700984B938E819B370FFCFF13670D
:10163400F70398CBF84F130510F8B702040013779B
:1016440007E0558FF8CF9843F576FD16758F98C34C
:101654009843B7063300930380251377F7E798C3BD
:10166400984311497D1F1377F7E71367071098C351
:1016740003270E008549930F80021C47D58F1CC792
:1016840083A70E001307900D3400B8CB0147935580
:101694003700A69583C7050013767700B3D7C740F4
:1016A400858BE1C38327030083280E00239C070452
:1016B4002390070603A8C8021378D8FF23A60803BB
:1016C40083A807001378F70793F808F833E80801AC
:1016D40023A0070103A847023368580023A2070385
:1016E40083A80E00014823A2780603DA07066307DD
:1016F400480303A80703038A06001358F800620886
:101704001358884163580A0103A807031358F800C3
:101714002380060103D807061378F80F03AA4806A6
:1017240063060A0003DA8705E37F49FB03A847023F
:101734003378E80123A2070383870600635CF4007F
:1017440003C805003396C9001346F6FF3376060135
:101754002380C5003E8663D3A7002A86131586011D
:10176400618505071377F70F8506E312F7F3B64093
:10177400264496440649F259625A616182809386EE
:10178400819B9C42D847131617016355060298475C
:1017940013161701635006027D57B8D71737000098
:1017A400130787E8584F050717360000232CE6E88F
:1017B400116798C798470D83058B1DCB1737000019
:1017C4000347A7021367170017360000230FE6002C
:1017D400130700F817360000230AE600214798C7CC
:1017E4001387C19A10435856719B1367170058D634
:1017F4009847058B0DC7173700000347F7FE13679B
:10180400170017360000A301E6FE054798C71387A3
:10181400C19A10435856719B1367170058D69847BE
:101824000983058B09E798470583058B21CF9847E2
:1018340017360000130646FB1385C19A0983058BEE
:10184400630307101841184331830D8B75EBAC4BC0
:10185400184E93F5050203471700CDCD79EF130712
:101864007006D8CF03470600136717001736000029
:10187400230CE6F6114798C718415C57F19B93E790
:1018840017005CD79C4298479316370163D606022B
:101894009736000083C60609C18A1737000013076C
:1018A400E700C5CE03478707136707029736000092
:1018B400238AE606056798C798479316270163D1DC
:1018C400060217370000034767F262076187635710
:1018D4000700054797360000238AE6F0096798C792
:1018E40098479316070163D606029736000083C60D
:1018F4007603858A17370000130747FBADCE0347ED
:1019040097071367270097360000A38DE600216729
:1019140098C7828029D785456315B7001307B00699
:1019240089B789456315B7001307F0061DBF8D45B8
:101934006315B700130730072DB71307500715B702
:101944001307600739BF03473600136717001736BC
:101954000000A30CE6E8094739BF83468707094618
:10196400BD8A6388C600034787078D463D8BE31312
:10197400D7F4114725BF83469707918AC9DA0347ED
:1019840097071367870041B7397106DE16DC1ADA48
:101994001ED82AD62ED432D236D03ACE3ECC42CA23
:1019A40046C872C676C47AC27EC0D13BF250E252B7
:1019B4005253C2533255A255125682567247E247C9
:1019C4005248C248324EA24E124F824F21617300D8
:1019D40020309387819B98438567938707777CD3CF
:1019E4009387019C9C4383A607091396560063586A
:1019F400060083A607091396660063440600745321
:101A0400FDF2828061C1AA870145DDCD8D07C20741
:101A1400C183F19BC207C18313074003636BF702C1
:101A24001387C1A40843138741A414436396A602F1
:101A340017370000130787BB185B014551C74111D5
:101A4400C20706C60545DD8D0297B2400145410136
:101A54008280138781A4F9B70357650035E30357E0
:101A64004500636FF704B306F7402146637CD60252
:101A740003280500938687001D8FAA9661171736E1
:101A840000000356C6BA2392E60023A0060123935E
:101A9400060014C12312F500130786FF97360000D1
:101AA4002397E6B82313B5009735000083D525B8EE
:101AB400B387F54017370000231BF7B62105828052
:101AC4000841ADB701458280828009CD9387C1A4C6
:101AD40003A30700938741A483A8070081469A873C
:101AE40063E31701828003A807006369F50A63674B
:101AF400A80A13878700E367E5FE03D6670021671A
:101B040005076317E60003C7019805072380E198DA
:101B140097350000938545B103D6470003D7650088
:101B2400239307003297420741831735000023109F
:101B3400E5B063886702138581A408416303F50255
:101B440003D5660019ED83D7460023A006012107BB
:101B54003E9621062392C600973700002399E7ACEE
:101B6400B6879843E30017F9938681A49442E30B64
:101B7400D7F683566700BDF683D647000356470061
:101B84001843A106B2962392D70098C383D7650061
:101B9400A10717370000231CF7A88280BE86C287DE
:101BA40081B70327851163020712411122C406C6B7
:101BB4008347C5008345E5042A8493F7C70F2306AA
:101BC400F500834697000356C70013958601618587
:101BD40063F2C508635B05060345870093F6F607C1
:101BE400A304D700054693E627006314C50093E6D3
:101BF40017002306D4005C4389075CC3A30AB4001E
:101C0400032504112E864C430905EFF06F868327C4
:101C1400841103465401D44303D7C700B296118FED
:101C2400D4C32396E7008947A30DF4000347640354
:101C34009737000083C7A79C6378F7048347C400E1
:101C440093E707012306F40081A093E71700230616
:101C5400F4006DB79376F60F635D050203458700C4
:101C6400854513E627006314B50013E61700230621
:101C7400C400A30AD400A30407008547A30DF400FD
:101C8400832784119C43DDF3B24022440145410182
:101C9400828093E717002306F400A30AD400A30468
:101CA4000700032504114C430905EFE07FFC83275B
:101CB400841103465401D44303D7C700B296118F4D
:101CC400D4C32396E7008D4755BF0545828093878B
:101CD400C1A59C43411122C406C6858B2A84C5EF45
:101CE4004165130525F597E001E0E780404A45C5C5
:101CF4008347A5002315F50083270412BDE723209D
:101D0400A4122322A41285472311F40423200500DE
:101D14008347640154412316F5000347D400230488
:101D2400E5000547A304E500173700001307C7AB18
:101D3400184F1385170215811C437D151375F50F74
:101D44009CC25C43DCC21C479CC65C47DCC61C4B83
:101D54009CCA5C4BDCCA1C4F9CCE5C4FDCCE19CDBC
:101D64009386060213070702C1BF8327441288C360
:101D7400835724042322A412850779B797370000D8
:101D840083D747B38507173700002315F7B2B2404E
:101D94002244410182808347C4002309040005458D
:101DA40093C747002306F400DDB78347850193F703
:101DB400E70FC5EF83479501CDEB03462501834625
:101DC400C50009CA834565031737000003473783F5
:101DD40063E7E50013F7060151CB014709C6C18A41
:101DE4000357651C81C68356A51C369741C3130748
:101DF400C712173500000355E587B335A7023746E8
:101E04000F00411113060624814622C426C206C6C9
:101E14007D543305A702971002E0E780E07F9727FF
:101E2400000083C7377EB384A700973700009387E9
:101E3400E7A703A787098327070963F387003E847D
:101E4400184375FB9387018E9C4382978147636493
:101E5400A400B307A440B2402244B3B7970093C789
:101E6400170092443E854101828081473E858280ED
:101E74009387819B98437C53FDFF8280797126D29E
:101E840006D622D44AD04ECE52CC56CA5AC85EC6C2
:101E94008347550303447513AA843E941374F40FC3
:101EA4009307400263F687001304B4FD1374F40F20
:101EB40003AA841383AAC413A38B84122286528593
:101EC400D685971002E0E7802032058915E503CB1B
:101ED400D41201498149337B6403930B50024A862F
:101EE4005285D685971002E0E7800030058915C534
:101EF400639169031374F90F238B8412B250225433
:101F040092540259F249624AD24A424BB24B456159
:101F140082808509E20993D989410509E31179FD94
:101F2400E1BF8327850903560504797193D6070118
:101F3400BD8EC206C182358E1357764093575640E4
:101F4400898B058B5D8F93573640918B5D8F9357AB
:101F54001640A18B5D8F93171600C18B5D8F93176D
:101F6400360093F707025D8F93175600935586004A
:101F740093F707041E065D8F1376F60F518F93D7E0
:101F8400554013D63540118A898BD18F13D67540AD
:101F9400D18F13D61540218AD18F13961500418A0B
:101FA400D18F1396350013760602D18F1396550000
:101FB400137606049E05D18F93F5F50FCD8FA207F6
:101FC40045465D8F3307C70222D42A8426D252CCD9
:101FD40056CA032A8413832AC4135AC806D63697CA
:101FE4004207418393577740135557400989858B9E
:101FF400C98F135537401189C98F1355174021894B
:10200400C98F131517004189C98F1315370013752C
:102014000502C98F131557009355870013750504DE
:102024001E07C98F1377F70FD98F13D5354013D7F0
:1020340055401189098B498F13D57540498F13D5A4
:1020440015402189498F139515004189498F1395AE
:10205400350013750502498F139555001375050452
:102064009E05498F93F5F50F4D8F2207D98FB387BE
:10207400C7024AD04ECE5EC662C4B697C207C183B9
:1020840013D7774013D557400989058B498F13D54A
:1020940037401189498F13D517402189498F1395EA
:1020A40017004189498F1395370013750502498F2D
:1020B4001395570093D58700137505049E07498F20
:1020C40093F7F70FD98F13D5354013D7554011899E
:1020D400098B498F13D57540498F13D51540218934
:1020E400498F139515004189498F13953500137550
:1020F4000502498F13955500137505049E05498FF4
:1021040093F5F50F4D8F2207D98FB387C7021306B6
:1021140050025285D685B697BD8E93940601C18030
:1021240033F6C402137BF60F971002E0E780C00B6E
:1021340005890DED8347D41201498149B38497027F
:10214400130C5002C1804A865285D685971002E04E
:10215400E78080090589937BF90F11C563863403F1
:10216400850993F9F90F0509E31F89FD230B64130E
:10217400B250225492540259F249624AD24A424B12
:10218400B24B224C456182805E8BCDB7797122D4EB
:1021940006D683C735002E8423160100A307F10059
:1021A40083C74500100802C02307F10083C7550008
:1021B4008A8502C2A306F10002C402C802CA02CC84
:1021C40002CEEFE09FF50347F10183470400014588
:1021D4006310F7020347E1018347140001456319C3
:1021E400F7000345D101834724001D8D13351500E5
:1021F400B2502254456182800111972700009387D1
:10220400E76A22CC03A4870C26CA4AC84EC606CE67
:10221400AA8413092500854915C083C71400034700
:102224003400858B6304F700405CFDB719469305C1
:1022340044004A85EFE0DFACE31835FF2285F24025
:102244006244D2444249B2490561828041119727D0
:1022540000009387A76522C403A4870C26C24AC042
:1022640006C693042500054901E82285B2402244AC
:102274009244024941018280A6851305A40239379C
:10228400E30525FF405CCDB74111972700009387F4
:10229400E76122C403A4870C26C24AC006C693047D
:1022A4002500054901E82285B240224492440249AE
:1022B40041018280A6851305A401C93DE30525FFDC
:0422C400405CCDB7F6
:1022C80097110020938181E017610020130101D349
:1022D8001305400097E5FF1F938545D21706002098
:1022E800130606FE63FAC5008322050023A05500E5
:1022F80011059105E3EAC5FE17E502001305C5EDD2
:1023080097050020938505FC1386018763FAC500AD
:102318008322050023A0550011059105E3EAC5FEB7
:1023280013850187972500209385056C6377B50091
:10233800232005001105E36DB5FEFD42739002BC34
:102348008D4273904280930280087390023097E226
:10235800FF1F9382A2CA93E232007390523037175C
:102368000040930770052300F704930780FA2300C1
:10237800F7040F1000003C47B70600FAE116F58F86
:10238800B70600069506D58F3CC7972200009382B2
:10239800021373901234730020303D432A8763730D
:1023A800C3029377F700BDEFADE5937606FF3D8A4C
:1023B800BA960CC34CC30CC74CC74107E36BD7FE96
:1023C80011E28280B306C3408A06970200009696FF
:1023D8006780A6002307B700A306B7002306B70047
:1023E800A305B7002305B700A304B7002304B7006B
:1023F800A303B7002303B700A302B7002302B70063
:10240800A301B7002301B700A300B7002300B7005A
:10241800828093F5F50F93968500D58D93960501E7
:10242800D58D61B79396270097020000969686820D
:10243800E78086FA9680C1171D8F3E96E374C3F82D
:10244800A5B73367B500FD530D8B79E7B7877F7F55
:102458009387F7F710419441B372F6003363F6009F
:10246800BE92B3E262006397720C6318D6065041BD
:10247800D441B372F6003363F600BE92B3E2620051
:102488006398720A631BD60410459445B372F6002C
:102498003363F600BE92B3E262006391720A631E70
:1024A800D6025045D445B372F6003363F600BE92A7
:1024B800B3E26200639A72086311D6021049944924
:1024C800B372F6003363F600BE92B3E26200639320
:1024D80072085105D105E30FD6F613170601939735
:1024E8000601631CF7001357060193D7060133054D
:1024F800F7409375F50F91E982804183C1833305D5
:10250800F7409375F50F91E182801377F70F93F7F2
:10251800F70F3305F74082800346050083C60500A0
:10252800050585056313D60065FA3305D640828014
:1025380011059105E312D6FE014582802105A1050A
:10254800E31CD6FC014582803105B105E316D6FCB3
:10255800014582804105C105E310D6FC0145828012
:10256800B717004003C777051377E70FA38BE70476
:10257800130700F8A38DE7043D47238CE7041307EE
:102588005003A38CE7048280B717004083C7E70293
:102598000D8993F7C70FC98F73270080218B938606
:1025A800018709CB7327008023A8E18698425D9BA9
:1025B800731007800F1000003717004013067005CE
:1025C8002300C704130680FA2300C7040F10000075
:1025D8002307F70223000704732700809C42A18B7E
:1025E800D98F7390078023A801860F10000082807E
:1025F800411122C406C6B717004083C7F70293F7F4
:10260800F70F13E4470009E5054513F4B70FAD3F8D
:10261800F3270080A18B1387018789CBF3270080DC
:1026280023A8F1861C43DD9B739007800F100000E0
:10263800B7170040930670052380D704930680FAE5
:102648002380D7040F100000A38787022380070484
:10265800F32600801C43A18BD58F7390078023A895
:1026680001860F100000B2402244410182804111CE
:102678002A83014E930E407E130F0019930F4006D4
:1026880063E66E149308001913034006B378150324
:10269800854E0D4FA14F337365020D891335150013
:1026A80063E0BE161308F6FF79467298420813587D
:1026B80008013307C70213D61700BE0732976146D1
:1026C800B3F6C60213068070B386C6023697A166B3
:1026D800F58F42075D8FB716004083C7F60293F760
:1026E8000708A307F1000346F10083C7F60293F732
:1026F8000708E394C7FE8347F100B716004093F735
:10270800F70F63890714F3270080A18B938601874D
:10271800639807140F100000B717004013067005E0
:102728002380C704130680FA2380C7040F10000013
:1027380023AA070303C6170313660608A388C7025C
:1027480023800704732600809C42A18BD18F73904D
:10275800078023A801860F1000001166B7150040F6
:102768007D16DC59C85DA98FF18FE5FFF32700803E
:10277800A18B89CBF327008023A8F1869C42DD9B9F
:10278800739007800F100000B717004013067005FC
:102798002380C704130680FA2380C7040F100000A3
:1027A800D8DB03C7170313670704A388E70223804E
:1027B8000704732700809C42A18BD98F73900780F0
:1027C80023A801860F100000410182807D13336821
:1027D800E3039308E016630E08003368F3039308D5
:1027E800D016630808009378330093B818009388CC
:1027F800D81633081E01131E0801135E0E0149B5D1
:102808006393E503054863860800014863030300F2
:102818002A8871087298FD15131E0801C205135EF7
:102828000E01C181B5BD13F8150063F4BF00790826
:10283800D5B713381800E5BF83C7F60293F7070822
:10284800A307F1000346F10083C7F60293F70708D0
:10285800E394C7FE8347F10093F7F70FF1DF65B5FF
:10286800F327008023A8F1869C42DD9B73900780A4
:1028780055B5B718004003A8C80303D3A80383D8E5
:1028880088034111060393D8F8004A08B30E1301D0
:102898009308407E22C626C44AC213582801231032
:1028A8001501930F00199302D01693034006130FD6
:1028B800C01603530500B378F30363800810B37898
:1028C8007302638108109378330013BE1800130E47
:1028D800DE166350C8092390050005449944F94F52
:1028E800F542130900199303400683D80500138F96
:1028F80018006394880A03530500337E2303630C8E
:102908000E08B378730263860800937833006384F3
:102918000808F148635C18052390E50105082310B1
:1029280006010566130606E1B3D5CE023244A24479
:10293800124933F6CE022390B6009306C0033356ED
:10294800D602B3F6DE022310C7002390D700410158
:10295800828093B818009388D81633081841420823
:1029680005031358080123106500A1B78548630BB8
:102978000E00337E7302814863060E00937833009D
:1029880093B81800F1083308184142081358080191
:102998002390E50199BFF548B5BF13F3180063F814
:1029A800140163180300E3D902F7F948E9BFE31CEF
:1029B80003FEE3D30FF7FD48F9B7E3DE02F193080E
:1029C800E01661BFE3590FF19308D01679B7597132
:1029D800E2C486D6A2D4A6D2CAD0CECED2CCD6CA8B
:1029E800DAC8DEC6E6C2EAC06EDE2A8C02D6EF007E
:1029F8009020F3270080A18B138D018791CBF327BB
:102A0800008023A8F18683270D00DD9B7390078043
:102A18000F100000B7170040130770052380E70464
:102A2800130780FA2380E7040F10000003C7F7029A
:102A38001377770FA387E70203C7F70213678700A7
:102A4800A387E702238007047327008083270D00EC
:102A5800A18BD98F7390078023A801860F100000DF
:102A6800F3270080A18B91CBF327008023A8F18660
:102A780083270D00DD9B739007800F100000B717A8
:102A88000040130770052380E704130780FA2380AA
:102A9800E7040F10000003C7E7021377C70F238767
:102AA800E70203C7E702136717002387E7022380BB
:102AB80007047327008083270D00A18BD98F73909B
:102AC800078023A801860F100000130780C1334731
:102AD800E5029169938709E8130650023D69B744F6
:102AE8000F0093840424856B130BA004014A814AC8
:102AF80013047005FD19B347F5023307C7023EC238
:102B0800930709A61309803E3347F7023AC43347AF
:102B1800250305493319890113593940334595026D
:102B280093840BFAB3948401811B3306C702B3461E
:102B3800F6023309E90236C6330B670313076055FB
:102B4800B3049502130500103309E902B346FB02EA
:102B5800130B80FAB3C4A40236C8B347F90293969C
:102B680034003719004036CC930409043ECA732652
:102B78000080218A11CA7326008023A8C1860326F3
:102B88000D005D9A731006800F1000009307700502
:102B98002380F400238064010F10000003463905E8
:102BA8001376860FA309C904034639051366160070
:102BB800A309C904238004007325008003260D009F
:102BC800218A498E7310068023A801860F10000001
:102BD800916CE17D73260080218A11CA73260080DA
:102BE80023A8C18603260D005D9A731006800F1076
:102BF8000000930770052380F400238064010F1000
:102C080000000346390513660602A309C9040356E2
:102C18000905336696012318C90403560905336666
:102C2800B601420641822318C90423800400732593
:102C3800008003260D00218A498E7310068023A880
:102C480001860F1000000346390513760602630655
:102C5800061603463905218A6DDE6810EF00C07D2F
:102C680073260080218A11CA7326008023A8C18692
:102C780003260D005D9A731006800F100000238054
:102C88008400238064010F10000003463905137681
:102C9800F60DA309C9040346390513660602A309FC
:102CA800C90403560905336696012318C904035657
:102CB80009053366B601420641822318C9042380F8
:102CC80004007325008003260D00218A498E7310A5
:102CD800068023A801860F100000034639051376E5
:102CE80006026308061003463905218A6DFE97D04F
:102CF800FF1FE780C0392A8632CE97D0FF1FE780B2
:102D080000397246E30AC5FE035609053255336693
:102D180096012318C904892703463905218A6DDEDF
:102D28000355090503462905924733F5A90033865B
:102D3800C90232951D8DA24763D5A700B2476346E5
:102D4800F50E09466365560FC247850A1316150026
:102D580093FAFA0F3346F6026354A03A050609457A
:102D68003346A60273250080218911C97325008086
:102D780023A8A18603250D005D99731005800F1007
:102D8800000023808400238064010F100000035595
:102D9800C9022A96420641822316C90223800400EA
:102DA8007325008003260D00218A498E7310068042
:102DB80023A801860F10000031BD73260080218AE8
:102DC80011CA7326008023A8C18603260D005D9AC8
:102DD800731006800F100000238084002380640194
:102DE8000F1000000346390513660602A309C9043B
:102DF8002DBD73260080218A11CA7326008023A85E
:102E0800C18603260D005D9A731006800F1000001E
:102E180023808400238064010F10000003463905D5
:102E280013660602A309C90459BDE38F0AF0732685
:102E38000080218A11CA7326008023A8C186032630
:102E48000D005D9A731006800F1000002380840027
:102E5800238064010F100000034639051375FC0F29
:102E68001376860FA309C90403463905498EA309B9
:102E7800C904238004007328008003260D00218ADA
:102E8800336606017310068023A801860F10000020
:102E9800034639051D8A6317862773260080218A11
:102EA80011CA7326008023A8C18603260D005D9AE7
:102EB800731006800F1000002380840023806401B3
:102EC8000F1000000346390511651376F60DA309A6
:102ED800C9040346390513660602A309C904035643
:102EE8000905498E2318C904035609052165498E29
:102EF8002318C904238004007325008003260D00CD
:102F0800218A498E7310068023A801860F100000BD
:102F18000346390513760602630E06200346390573
:102F2800218A6DDE6810092B73260080218A11CA58
:102F38007326008023A8C18603260D005D9A7310AE
:102F480006800F10000023808400238064010F1086
:102F580000000346390511651376F60DA309C90467
:102F68000346390513660602A309C9040356090571
:102F7800498E2318C904035609052165498E23186B
:102F8800C904238004007325008003260D00218ACC
:102F9800498E7310068023A801860F10000003468F
:102FA8003905137606026303061C03463905218A90
:102FB8006DFE97D0FF1FE780800DAA8C97D0FF1F6A
:102FC800E780E00CE30C95FF035609051165498E6F
:102FD80032552318C904492103463905218A6DDE73
:102FE80073260080218A1385018709CA7326008009
:102FF80023A8C18610415D9A731006800F10000047
:1030080023808400238064010F10000003463905E3
:103018001376F60DA309C9042380040073280080E1
:103028001041218A336606017310068023A80186A1
:103038000F1000000358090503462905E24733F835
:1030480009013386C90232983308F8401306800C08
:103058003306C802D2473346F60263550015050603
:103068000948334606036351C0140358C90293083C
:10307800F00F13585800329863D6081F0946637337
:103088004619F3270080A18B89CBF327008023A85A
:10309800F1861C41DD9B739007800F1000003717E5
:1030A8000040930770052300F704930780FA230074
:1030B800F7040F1000008356C70289678117D58F60
:1030C800C207C1832316F702230007047327008071
:1030D8001C41A18BD98F7390078023A801860F10FC
:1030E8000000B650265496540659F649664AD64A00
:1030F800464BB64B264C964C064DF25D6561828078
:103108007D16B1B973260080218A11CA7326008002
:1031180023A8C18603260D005D9A731006800F1040
:10312800000023808400238064010F100000034600
:1031380039052DBB73260080218A11CA73260080A9
:1031480023A8C18603260D005D9A731006800F1010
:10315800000023808400238064010F1000000346D0
:10316800390513660602A309C90469B373260080EA
:10317800218A11CA7326008023A8C18603260D0060
:103188005D9A731006800F1000002380840023804E
:1031980064010F1000000346390513660602A309EF
:1031A800C904C5B37D166DBD55CE0358C902B30811
:1031B800C040135858006357180B094663744605F6
:1031C800F3270080A18B89CBF327008023A8F18601
:1031D8001C41DD9B739007800F100000B71700405B
:1031E800130770052380E704130780FA2380E70498
:1031F8000F10000003D7C7027D8B2396E7022380B8
:103208000704E9B573260080218A09CA732600805D
:1032180023A8C18610415D9A731006800F10000024
:1032280023808400238064010F1000000356C90224
:103238001376F60F33667601420641822316C902D9
:1032480023800400732800801041218A3366060118
:103258007310068023A801860F100000050A137A50
:10326800FA0F31B2F3270080A18B89CBF3270080B6
:1032780023A8F1861C41DD9B739007800F10000086
:10328800B7170040130770052380E704130780FA77
:103298002380E7040F10000003D7C70216063A96EA
:1032A800420641822396C70299BF914763EEB7024F
:1032B80017470200130747A98A05BA959C41BA9790
:1032C8008287B717004003A7470B1345F5FF698F9F
:1032D80023AAE70A03A7070B698F23A8E70A03A70E
:1032E800070A798D23A0A70A8280B717004083A612
:1032F800470B1347F5FFF98E23AAD70A83A6070BB6
:10330800558D23A8A70A83A6070A758F23A0E70A65
:103318008280B717004003A7470B498F23AAE70A03
:1033280003A7070B1345F5FF45BFB717004083A652
:10333800470B1347F5FF758F23AAE70A03A7070A68
:10334800598D4DB7B717004003A7470B498FEDB705
:10335800914763EEB70217470200130727A08A05B3
:10336800BA959C41BA978287B717004003A7470DC3
:103378001345F5FF698F23AAE70C03A7070D698F8B
:1033880023A8E70C03A7070C798D23A0A70C82803C
:10339800B717004083A6470D1347F5FFF98E23AAF8
:1033A800D70C83A6070D558D23A8A70C83A6070C59
:1033B800758F23A0E70C8280B717004003A7470D3D
:1033C800498F23AAE70C03A7070D1345F5FF45BF4F
:1033D800B717004083A6470D1347F5FF758F23AA3B
:1033E800E70C03A7070C598D4DB7B717004003A783
:1033F800470D498FEDB7B717004003D58700420541
:1034080041819377050491EB9377F5013755E801EE
:10341800130505803345F50282809377050C130761
:1034280000046397E7009377F50137459C1CCDB7F7
:103438002165130505D0828037E700E01C4354431B
:10344800A183E206D58F1CC1FD572320F71823223C
:10345800F7180F100000828013178500B7E700E007
:1034680023A0E710618123A2A7108280B7F700E0AC
:103478008847CC478280B717004083C7670493F713
:10348800F70F93E6270019E193F6D70FF32700808B
:10349800A18B1387018789CBF327008023A8F186A6
:1034A8001C43DD9B739007800F100000B717004086
:1034B800130670052380C704130680FA2380C70407
:1034C8000F1000002383D70423800704F32600800D
:1034D8001C43A18BD58F7390078023A801860F10FA
:1034E80000008280F3270080A18B9386018789CB17
:1034F800F327008023A8F1869C42DD9B7390078008
:103508000F100000B7170040130770052380E70469
:10351800130780FA2380E7040F10000003C767042D
:10352800136707012383E7042380070473270080B8
:103538009C42A18BD98F7390078023A801860F1016
:1035480000008280814737370040A14663C4C70026
:10355800328582800345B740E38EA6FE3385F500A9
:103568000345050085072304A740CDB797F7FF1F3C
:103578009387C7359C43171700201307E7463E95E6
:10358800636EE50017570020130747876368A70095
:1035980017F7FF1F232CA7323E858280FD57EDBF0A
:1035A800B7270040C8C709472380E7001147238091
:1035B800E7008280411122C406C62A842D3D29478E
:1035C800B307E502B2408D83B3D78702224495073B
:1035D800B3D7E70237370040C207C1832316F74045
:1035E80041018280716541111305052006C6D9374E
:1035F800B7370040130770F82381E7400D47A381D0
:10360800E74013070004A380E74005472387E74006
:10361800B24041018280CC41411106C6328503C6C1
:10362800150083C5050022064D8E42068D6541862C
:10363800138875A2630C060F6348C804138845A253
:103648006306060B634AC800938535A26309B6066C
:1036580023900600294679A0138855A26308060B13
:10366800938565A2E316B6FEC1451D4663ECE506E3
:103678004546198E63F3C7003E862390C6009735EA
:1036880002009385E56F89A8138895A26300060F49
:10369800634E060B1388A5A2630A060F938505A53A
:1036A800E318B6FA99451D4663EEE502198E63F3F1
:1036B800C7003E862390C6009385C18031A89D45EA
:1036C8001D4663E1E5022146198E63F3C7003E8675
:1036D8002390C60093854187BA9597D0FF1FE7804E
:1036E800E0580146B240328541018280AD451D4611
:1036F800E3EAE5FE3146198E63F3C7003E86239060
:10370800C600973502009385656BF9B7B1451D462C
:10371800E3EAE5FC3546198E63F3C7003E8623903D
:10372800C600973502009385656A7DB7C1451D4679
:10373800E3EAE5FA4546198E63F3C7003E8623900F
:10374800C600973502009385E56479B7C1451D46E3
:10375800E3EAE5F84546198E63F3C7003E862390F1
:10376800C6009735020093856567BDB7C1451D46FC
:10377800E3EAE5F64546198E63F3C7003E862390D3
:10378800C6009735020093852562B9B7B5451D4631
:10379800E3EAE5F43946198E63F3C7003E862390C1
:1037A800C600973502009385A55C3DB797F6FF1FC5
:1037B800938646C44146CD4517F5FF1F130585B0CE
:1037C8006F80805C2D456310071003C5050009470D
:1037D8006317E50E411122C43684D44106C63285EA
:1037E80003C7160083C606002207558FC1661386D5
:1037F80026FE6300C7086369E60085166302D704DE
:1038080023100400294595A0138646FE6306C708C1
:103818009516E317D7FE15473E866373F7001546DE
:10382800CC452310C4004206418297D0FF1FE78091
:10383800E0438355040017350200130565601DA099
:103848003E8691C30546CC452310C40042064182FA
:1038580097D0FF1FE7808041835504001735020089
:103868001305455AEF0012310145B2402244410187
:1038780082803E8691C30546CC452310C40042068B
:10388800418297D0FF1FE780603E835504001735BB
:10389800020013056558F9B73E8691C30546CC4525
:1038A8002310C4004206418297D0FF1FE780003CE6
:1038B80083550400173502001305455765B7239053
:1038C8000600054582808280011122CC06CE26CAD8
:1038D8004AC84EC603C88500214413780802631DF0
:1038E800080C83C905000948AE8705446396090D8D
:1038F80003A345003289B684034813000343030039
:103908002208336868004163130E13FE6305C80379
:103918000D13630268068D67938727902944631DFA
:10392800F8088547EF60100A2A8459E5854763E956
:103938009706014451A02D4441E305473544636D82
:10394800D706C8470546CA8597D0FF1FE7800032CB
:10395800A685173502001305E54FEF00B22181490E
:10396800938781899C43F1D79C43E1D72686CA85F2
:103978004E8582977DBF2D4421E305473544636D0D
:10398800D702C847CA85054697D0FF1FE780002E93
:10399800A685173502001305254DEF00B21DC9B7DE
:1039A8008347190083450900173502001305054DA3
:1039B800A207DD8DEF00121C2285F2406244D2443A
:1039C8004249B2490561828041677917630CE50273
:1039D800411122C406C685472A84639AF5002285C8
:1039E8002244B2409385C18841016F80C044894711
:1039F8006396F5008545EFA0C07875D1B2402244A2
:103A0800410182808280411122C42A8441659385C4
:103A1800C1887D1506C6EF80004217050000130512
:103A2800E5FA0588EFA0206D05C02244B24097F65C
:103A3800FF1F9386E6AD4146C54517F5FF1F1305E1
:103A4800259C41016F804034B24022440145410128
:103A5800828009C523ACA1880145828045458280C2
:103A68001147636EA70697360200938666380A05E3
:103A780036951841411106C63697AE87B28502873A
:103A880005476145639AE70005461385C18797D0C6
:103A9800FF1FE780A01D0145B24041018280054714
:103AA8006145E39BE7FE054613850188CDB70547C9
:103AB8006145E393E7FE054613854188C9BF05477D
:103AC8006145E39BE7FC054613858188C9B715471F
:103AD8006145E393E7FC1546138501894DBF094508
:103AE8008280411122C42E849385C18826C206C6CD
:103AF800AA84EF60E067058915C197F7FF1F9387D0
:103B0800279083D7A70BA285B2402310F400224444
:103B180026859244014641016F706042B2402244BA
:103B2800924449454101828011456FE05FEA4111A5
:103B380093962500AA852D4506C697D0FF1FE780D6
:103B480040DCB240014541018280411126C2939474
:103B5800250022C44AC02A843289A686AA8501463D
:103B6800254506C697D0FF1FE780A0D9A6864A86B6
:103B7800A285294597D0FF1FE780A0D8B2402244EC
:103B880092440249014541018280011122CC06CEAE
:103B98003714004026CA4AC84EC652C48344740526
:103BA800034AB4058349840503499405EFE05F9B04
:103BB8008347A40593F4F40F137AFA0F93E71700D9
:103BC800230DF40493F9F90F1379F90FB71700408F
:103BD80003C7A705058B6DFF03D5C705A38D47054B
:103BE800238C3705A38C2705A38B9704F2406244E6
:103BF800D2444249B249224A0561828041119397D1
:103C0800050122C406C6C1872E8463DD0700EF00C4
:103C1800F03519C1EF00702E2165218DB240224484
:103C28004101828093F7150013C51500E5FB9397B2
:103C3800250163D00702EF106142FD3537F6020017
:103C4800130606E0896503C5C189EF00F0790965A7
:103C5800E9B7939715010145E3D207FC1735020030
:103C680013058527EF00120313060064916503C549
:103C7800C189EF00707711654DB71D7149469735B9
:103C880002009385E52017C502001305A5C786CE57
:103C980097D0FF1FE780800601E91735020013055A
:103CA8006520EF00227F01A0B7F600E0795798CA97
:103CB800FD57DCCA0567B7E700E023A0E710130645
:103CC800F00290C223A0E7180F1000001306C003EB
:103CD8008145480897D0FF1FE780C0FC97F7FF1F72
:103CE800938747103ECA896793870780231CF10092
:103CF800B5472304F102A167938707E03ECEB707D3
:103D08000105938707103ED0ED472312F10285473E
:103D18002303F102970700009387A7E1BEC4970722
:103D280000009387C7E2BEC68567938717D023151F
:103D3800F10297F7FFFF9387A7733EDAB7F50700FD
:103D4800970700009387A7E43EDE814697070000A7
:103D58009387C7DD7000E1051945BEC097D0FF1FE6
:103D6800E78020BA58088147994670003E96034676
:103D7800060085070507A30CC700E398D7FED247BE
:103D880091C70357810185676373F70001A048084D
:103D9800EF10C02DAA8501C9173502001305C511FA
:103DA800EF00425D01A0F6402561828041111705B0
:103DB80000001305E5E406C622C4EF10A02713840B
:103DC800C1892300A4001928034504002244B240F5
:103DD80013060032896541016F001061411106C662
:103DE800F3270080A18B1387018789CBF3270080F5
:103DF80023A8F1861C43DD9B739007800F100000F9
:103E0800B7170040930670052380D704930680FAFD
:103E18002380D7040F10000083C6F70293F6A60F7D
:103E2800A387D70223800704F32600801C43A18BB5
:103E3800D58F7390078023A801860F100000F32701
:103E48000080A18B89CBF327008023A8F1861C432F
:103E5800DD9B739007800F100000B7170040930692
:103E680070052380D704930680FA2380D7040F10A7
:103E7800000083C6F70293E62600A387D7022380B3
:103E88000704F32600801C43A18BD58F739007800D
:103E980023A801860F1000000545EFE0EFEE693119
:103EA8001305407E81470147814605468545EFE079
:103EB8000FFCB240014541016F10A04F3737004059
:103EC800834747409946BD8B638DD700314763854B
:103ED800E7001147639EE70237360040938541C0EB
:103EE80021A883475740828083468640AE970507BE
:103EF8002384D7002382E1C08346A64003C741C07C
:103F08009377F70793F6F60FE5F285072382F1C05A
:103F180082802A86B305B0401735020013050509CB
:103F28006F004245011106CE19C589476301F502A4
:103F3800F24005618280680097D0FF1FE78000D3B8
:103F48001735020013058513EF00C254D5B7680072
:103F580097D0FF1FE78080D1173502001305C513DE
:103F6800E5B783D7018C6390A7022391B18C239284
:103F7800C18C2393D18C2E861735020013050501B9
:103F8800BE856F00223F173502001305A5016F009B
:103F9800625003574500011106CE83D7018C631F79
:103FA800F702C167F917894503C5018223A0F18C7F
:103FB80023A2018CEF007064914503C50182EF00D4
:103FC800D06385471306F100854513055030A307D4
:103FD800F100EF60D126F2400561828017350200BA
:103FE800130545FCEF00024BFDB73D897D1595474C
:103FF80063E4A71617370200130747EE0A053A9538
:104008001C41411122C406C6BA972E8482871735EF
:104018000200130525FB2244B24041016F0082478C
:1040280083C7250019476391E7022E859D3783458D
:104038006400173502001305E5F9EF00A2331735C0
:1040480002001305E5FAC1BF0D47E38AE7FEB24057
:1040580022444101828003C725009547E319F7FEF2
:10406800C16703D7018CF91703D5A500630FF700C3
:10407800EF60914817350200130585F8EF0082417B
:1040880017350200130545FA79B72390A18C83D719
:10409800E5001306006403C501822391F18C83D7E0
:1040A80005012392F18C83D7250189452393F18C4F
:1040B800DD472391F182EF0030330966130606903D
:1040C800A14503C50182EF0030320566130606C814
:1040D800914503C50182EF0030310356E400835552
:1040E800A400173502001305E5F2EF00A22849BF26
:1040F80003C725008D47173502001305A5F3E318FC
:10410800F7F411BF83C5250091476397F50017356C
:1041180002001305A5F301B79947639FF5002285AF
:104128008D3D83456400173502001305A5EA224436
:10413800B24041016F0002249547639AF500834716
:104148001400F1F717350200130505F2E9B5173524
:1041580002001305E5F1E1BF828001119397050183
:1041680026CA06CE22CCC187AE8463D0070A03C50F
:104178000182ED2B2A8439C5834705001307000BFC
:104188006384E7061307000D639CE7028347250055
:1041980045476380E70465476394E7020348A50041
:1041A80083479500034785008346750003466500ED
:1041B8008345550017350200130505D5EF00821B0E
:1041C8002285252B2165258DF2406244D244056164
:1041D8008280034665008345750017350200130584
:1041E800A5D5EF002219E9BF034745009307F0075B
:1041F800E318F7FC8355850017350200130585D5AC
:104208002391B182EF00021765BF93F7150091CF94
:1042180017E6FF1F1306C6369385C1D003C5018272
:10422800EF60E15713C5140045B793F72500ADCBF0
:1042380013060064894503C50182EF00F01A93074D
:1042480080F82302F10003D721828D4763EBE70052
:1042580017350200130545D1EF00C22313C524000A
:10426800A5B78547014781460546ED4503D5018C2D
:104278002315F100EF50302A2AC66DD10356A1004C
:104288004C0097D0FF1FE780609E2C0003D5018C5F
:10429800EFF03F8561D5ED452800EF50903F7DBF99
:1042A80093F7850085C383C70182130740068146BB
:1042B80013064006994503D5018CEF60A14713C545
:1042C800840019B793F705019DC30147894609463C
:1042D800814503D5018CEF607124AA85173502004A
:1042E800130585C9EF00020913C50401F1BD93F751
:1042F80045000145E38A07EC03D5018CEF60911F67
:104308000566130606C8914503C50182EF00D00D66
:1043180013C5440055BD797117050000130525E440
:1043280006D622D426D24AD0EF00D05093840182F8
:1043380099472380A400231AF1001386418293072A
:1043480040068D4513057030231CF1002308010039
:10435800EF60E16E17E6FF1F13064623C5451305F8
:104368006030EF60C16D5008894513051031EF606A
:10437800016D3008894513052031EF60416C054413
:10438800100885451305503023088100EF60216B24
:10439800930500050D45EF20F0259305000511450F
:1043A800EF20502585457945EF20D02430089145E8
:1043B800130570402304810023068100230881002F
:1043C80002CC230A0100EF50E14730008545130570
:1043D8000040EF5021477000854513051040EF500D
:1043E80061465008854513052040EF50A145100847
:1043F800854513055040EF50E1447D55EF50E05995
:104408007D55EF703020EFF06FBA7D55EFF0AFDFDC
:1044180017E9FF1F1309C9184A86D5450145EF500A
:104428006046CA85173502001305C5ACEFF09174D4
:1044380089472306F1008D472308F1009147230A95
:10444800F10093878186984383C7470030008545EC
:1044580001453ACC230EF10023048100EFF04FE030
:10446800700085450545EFF0AFDF10088545094523
:10447800EFF00FDF500885450D45EFF06FDE30088F
:1044880095451145EFF0CFDDC1671387018CF9170A
:104498001CC3232207001385C181EFF08FDB13852E
:1044A800818BEF40811203C504008545C12BB250B2
:1044B80022549254025945618280411113058004A7
:1044C80006C622C426C24AC097C0FF1FE780A0BD07
:1044D800372509001305057CEFF08F8C372700403E
:1044E800834727003714004097B402009384C41A06
:1044F80093E717002301F700B7E700E0416723A01F
:10450800E71041288327840C37070C008D45D98F85
:104518002324F40C37050C00EFE09FE337F55569C9
:104528001305051461208327840A854513050010A7
:1045380093E707202324F40AEFE03FD78D451305BE
:104548000020EFE09FD6173402001304A4B6EFF062
:104558006F8917B90200130929140346040093054B
:1045680014004A851304241AEFF0D160E31794FE6F
:1045780017B5020013050539EFF0D171EFF0EFEF31
:10458800EFF0DF82EF60C179793397C0FF1FE780D2
:104598002026411106C6B7170040A3810704EFE0A3
:1045A8007FF4B240054541016FE0FFEC01112EC6D2
:1045B800B7374F9C324793870730AA972AC47D178D
:1045C80033B5A70006CE3A9529ED37374F1C1307A8
:1045D80087076368F7040545EFE08F81B717004048
:1045E800130770052380E704130780FA2380E70484
:1045F80003C7F702280013671700A387E702238081
:104608000704EFF0213A8357050003574500835606
:1046180085000356C5008355050103554501EFE0A4
:104628000F85F24005618280397113064002814589
:10463800680006DEEFD07FD67C00180854083008E2
:104648006C080810EFE0EFA26800EFF05105F25097
:104658002161828083C7818C95CB2384018CB71715
:104668000040A381070403A7470CB70604001316EC
:10467800D7006358060003A7C70C558F23A6E70C7D
:10468800828003A7870C558F23A4E70C828083C7F9
:10469800918CA1C7A384018CB717004003A7470CCE
:1046A800411106C61316C700B70608006351060273
:1046B80003A7C70C558F23A6E70CBD37B240AA85C0
:1046C80017B502001305C5FE41016FF0B14A03A7F3
:1046D800870C558F23A4E70CCDB7828023AC05FE49
:1046E8001C4191E7010001000CC18280BA8703A731
:1046F80087FF6DFF23ACB7FE82801DC18346E5FFAF
:104708001307F00F9147639EE600411106C697D044
:10471800FF1FE780403BB24081473E8541018280D0
:1047280095473E85828001E9014582800145B24076
:1047380022444101828095654111938505D022C4A8
:10474800C98D2A842105C2054205C181418106C659
:1047580097D0FF1FE780C02A71D9FD572320050095
:10476800231285002303F5002105D1B71387018D96
:104778001C43411122C426C24AC006C6014401494D
:10478800BA8489E7A165952D0DC401A803C7E7FF81
:104798006318A7021DC8A165D5249840832784FF04
:1047A8006317E40223A8F18CFD57232C04FE230F82
:1047B800F4FE2285B240224492440249410182809B
:1047C80011E03E8983A787FF6DBF3E84E5BF232C98
:1047D800F9FED9BFA1CD411122C406C62A84970784
:1047E800002083C7F7E32E856375F400894763E8E3
:1047F800870021370D45B24022444101828083A7BA
:1048080085FF99E703C7E5FF9307F00F6305F700F6
:10481800ED351545CDB7238F85FE1385018D7D3D7B
:1048280022852244B240A165410189AC15458280A8
:1048380023A8018C82809387818E9C4399E33E85CF
:10484800828003D727006316B70003C70700E30871
:10485800A7FEDC47E5B7BDCD797122D406D626D2AE
:104868004AD04ECE01444147B3D78540858BB1CF5E
:104878001205314722953305E5029387818D03A9F7
:1048880007008544B3948400C204C180BE892A9974
:104898000327090011C7032549002EC60297B24510
:1048A80031473304E40283A709003E941C4489E796
:1048B8002320090023220900B2502254A58D025951
:1048C8009254F2492E85456182800504E31EE4F87E
:1048D8008144DDB72E85828041111397050122C4DA
:1048E80006C626C24AC041872E84635E0700BD3DC6
:1048F80011C12135A1673D8C2285B24022449244E2
:10490800024941018280EDD9AA8701474146B35641
:10491800E440858A9DCA9207BA97B146B387D70201
:104928009386818D03A906008544B394E400C204EC
:10493800C1803E99832709000325490082972320D7
:10494800090023220900258C45BF0507E311C7FC90
:104958008144D5BF970700209387C7C89C5341114E
:1049680022C406C61384818299C782971C403E954B
:1049780023A4A18229A09387018E9C43FDF70840B8
:10498800B74703009387D73F3305F502B7A726003B
:10499800938737ECB24022443E9523A4A18241017B
:1049A800828079C99387018E9C43797122D426D25B
:1049B8004AD04ECE52CC56CA5AC806D65EC63A8A95
:1049C800B689328BAE8A2A8982979387818D9843DC
:1049D800BE840144B146C147B30BD4023306770104
:1049E800104251E6C165938505F0414597D0FF1FF8
:1049F800E78000011DE5970700209387A7BE9C5B11
:104A08002D4589C71145814582972D45B2502254BD
:104A180092540259F249624AD24A424BB24B45611A
:104A280082809387818E98431DEF23A4A18E230053
:104A380005009C40054733178700232605002324DB
:104A480065012311E50023224501DE9723A02701F4
:104A580023A2570123A447010145E38909FA2380CA
:104A680089006DB73E875C47F5FF48C7C9B705049D
:104A7800E314F4F6214559BF0945828097070020C1
:104A880083C717BA637FF5001387418D9317150005
:104A980008433E9583570500DD8D2310B500014579
:104AA80082800D4582809707002083C777B763719E
:104AB800F5021387418D93171500084393C5F5FF39
:104AC8003E9583570500FD8D2310B5000145828072
:104AD8000D458280130705FF1377F70FFD4763E540
:104AE800E70AB146B306D5029387818D9843894773
:104AF8003697184359CB011122CC4EC60544935919
:104B080045003D893315A40013140501418026CAC8
:104B18004E85AE84A2854AC806CE313B2A89814794
:104B280021CDA2854E8541379387018E9C4382977C
:104B38009707002083D787B3338797022A84814653
:104B480013060064B3B7970213050732B335E500BF
:104B5800BE95EFE0B12BB30785009706002093863A
:104B680066B03E87D44263E4A70063E4D700338786
:104B7800D7402324E9008147F2406244D2444249A5
:104B8800B2493E850561828089473E858280011150
:104B980026CA06CE22CC4AC84EC6BD47894463ED14
:104BA800A70231473307E5029387818D9C438944E7
:104BB800BA979C4395C305443314A400420441802A
:104BC8002E890145A2858539AA89814411C5A28506
:104BD8000145D13D23A42901F2406244268542497A
:104BE800D244B249056182809707002083C757A342
:104BF8006364F5000145828001119387018E56C2D6
:104C080083AA070006CE22CC26CA4AC84EC652C47A
:104C1800638D0A0A170A0020130ACAA483244A00CB
:104C2800B74736FE938707C8AE899705002083D516
:104C3800E5A3BE94B387C5022A8432898146B3B5F9
:104C4800C50213850732B337F50013060064BE9515
:104C5800EFE0D11B63EBA406829A9705002083D569
:104C6800E5A0B3872503AA84130600648146B3B57B
:104C7800250313850732B337F500BE95EFE0111908
:104C8800B3079500BE8403274A0063E4A70063E4E2
:104C9800E700B384E740CE852285713E01C504C58F
:104CA80005452DA0936504F0C205C181414597D003
:104CB800FF1FE780E0D405E59707002093878792D8
:104CC8009C5B81C7A285114582970145F2406244E9
:104CD800D2444249B249224A924A05618280938766
:104CE800818E9C438DE323A4A18E8547232605004E
:104CF80004C52311350123008500A300F5002322F4
:104D0800050079BFBA87D84775FFC8C7F9BF49C931
:104D1800797122D426D24AD04ECE52CC56CA5EC61B
:104D280062C466C206D65AC83689328AAE89AA844F
:104D38004144314C938A818D854C930B0003330B8E
:104D4800840303A70A005A971C43B1E79375F4003C
:104D5800B395BC0013554440C2055286C1811375F2
:104D6800F50F59350DC983A70A000145DA9784C3A1
:104D780023A237016304090023008900B25022549A
:104D880092540259F249624AD24A424BB24B224CDF
:104D9800924C456182800504E31374FB2145F9BFF9
:104DA80009458280411122C426C24AC006C62A8407
:104DB8002E89B284153DCA852285EFF0DFA705CD7F
:104DC8009705002083D5858AB38795022A84130620
:104DD80000648146B3B5950213850732B337F500F1
:104DE800BE95EFE0B10248C00145B240224492446A
:104DF8000249410182802145CDBF411122C426C20A
:104E08004AC006C62A892E84EFF0FFA2AA8419C1D7
:104E180023110500A2854A8579319707002083C7A9
:104E280027806397270183D7C18D5D8C239E818C52
:104E3800014591E01945B24022449244024941019A
:104E480082809307F00263E6A7044111B14722C4A8
:104E58003304F50226C29384818D9C4006C6A2972E
:104E6800984389470DC39377F5008545B395F500B9
:104E7800C205C181118151379C40A29723A0070028
:104E880023A207008147B240224492443E85410153
:104E9800828089473E858280411106C622C4EFF090
:104EA8009F9911E50145B2402244410182809387D0
:104EB800018E9C430045829797F7FF1F9387877A57
:104EC8006368A402D843B74636FE938606C83305FE
:104ED800A4403697E378E5FC13070064B335E50290
:104EE80003D6870081463305E502EFE0217265BFEE
:104EF800D8433A94C1BF411106C623A2A18E029598
:104F0800B24097F7FF1F23A9A7720145410182808C
:104F1800994763E9B7008A0597F7FF1F9387C77218
:104F2800BE9588C1828041117146814517F5FF1FE2
:104F38001305857106C623A4018E23A2018E23A022
:104F4800018E97C0FF1FE780E0D5130680028145D8
:104F580017F5FF1F1305C56C97C0FF1FE78080D4A6
:104F6800EF50516597F7FF1F83C7376913D527009F
:104F78008D8B3E958D473305F502854539051375AB
:104F8800F50F97F7FF1F238EA76899473305F5029A
:104F98001305052497D0FF1FE78080A623ACA18CBA
:104FA80059C5994717F6FF1F0346A6673306F60249
:104FB80081451306062497C0FF1FE780A0CE93877C
:104FC800818D9C439387072423A6F18E17F7FF1F33
:104FD800034727650A07BA9723AAF18CEFF05F8584
:104FE80005239387C18E944397F7FF1F83C75763A1
:104FF800139727003697170600001306068610C376
:10500800138717001377F70F0A073697170600005C
:105018001306C68C10C313873700890793F7F70F59
:105028008A0797F5FF1FA38DE55EB69790C3B24038
:105038004101828097F7FF1F83C7975E17F7FF1F0D
:105048000347275E63F1E7021387C18E18439386EF
:10505800170017F6FF1FA305D65C9396270036970F
:1050680008C33E8582809307F00FE5BF1C41638823
:10507800071641777D8FB706002089476312D71638
:1050880003574500630E0714411122C419462A84A8
:105098009305F00F690506C697C0FF1FE780A0CAF1
:1050A80005478D476308E5121C4481CB585899473A
:1050B80063020712185C630F07101306C0038145CB
:1050C80017F5FF1F1305055297C0FF1FE78080BD26
:1050D8001306C003A28517F5FF1F1305A55097C037
:1050E800FF1FE780A0B817F7FF1F0357675097F710
:1050F800FF1F9387274F19E71307001097F6FF1F25
:105108002398E64E17F7FF1F0347A74E11E70547F9
:1051180097F6FF1F238FE64C17F7FF1F0357874D9E
:1051280011E76D4797F6FF1F2396E64C17F7FF1F09
:105138000347374C11E7154797F6FF1FA38BE64A3D
:1051480017F7FF1F0347274B11E7054797F6FF1F80
:105158002383E64A17F7FF1F0347F74919E703C7F1
:10516800F70097F6FF1FA388E64817F7FF1F0347C6
:10517800A74811E7354797F6FF1F238FE64617F72D
:10518800FF1F0347B74719E71307800297F6FF1F6A
:10519800A386E64617F7FF1F0347174619E71307C5
:1051A800D00297F6FF1FA389E6440347840119E755
:1051B8001307C00397F6FF1F2382E6449C5791C745
:1051C800829797F7FF1F2391A746FD57A389F1A25E
:1051D800993B8147B24022443E85410182808947FC
:1051E8003E85828001114EC697F9FF1F9389894732
:1051F80083A7090006CE22CC26CA4AC852C4829781
:1052080013090064B335250303DA89008146528601
:1052180033052503EFE0813F97F7FF1F938747404A
:10522800804FAA8401456306940233858440636EE7
:10523800940003A5490052868146B335A902330577
:10524800A902EFE0A13C018D269597F7FF1F23A542
:10525800973EF2406244D2444249B249224A05612B
:105268008280011122CC0A852E84414697250200AE
:10527800938585AC06CEEFE0D11A180806043A9457
:10528800035504FF97F7FF1F83D7673EF240624438
:10529800AA9737450F00130505243355F502056114
:1052A800828097F7FF1F83D7873C51471D45637C52
:1052B800F702794719456378F70213072003154564
:1052C8006373F7021307B0041145637EF7001307F1
:1052D80040060D456379F7001307600909456374B3
:1052E800F70013B5B70F8280011122CC06CE2A84AD
:1052F8002EC6EFF02FE6B245F240818D33A5A50208
:10530800229562441375F50F05618280011122CC44
:1053180006CE2A842EC6EFF0EFE3B245F240818D27
:1053280033A5A50222956244420541810561828028
:10533800011122CC06CE2A842EC6EFF0AFE1B24589
:10534800F240818D33B5A5022295624405618280C1
:1053580097F7FF1F93870729985739CB411122C424
:1053680026C206C6BE84029717F7FF1F0357C72B2E
:105378002A8415CBBA876373A700AA87C207C1839B
:10538800BA866373E400A286C206C182958F51472C
:10539800635BF700DC5491C38297EFF0304C97F7CA
:1053A800FF1F23938728B240224492444101828000
:1053B800828097F7FF1F9387E722DC57011106CEFB
:1053C800AA8581C72AC68297B245D1C19C410545A5
:1053D800A5CFDC41B5CB83D78500BDC783D7A50052
:1053E800A5C783C7C500ADE3414617F5FF1F1305E1
:1053F800652797C0FF1FE780608797F7FF1F938790
:1054080067269C4323A0F18E97F7FF1F83C7171FBA
:105418008DE79307800217F5FF1F035525253305F0
:10542800F50237460F001306062481468145EFE052
:10543800E11D97F7FF1FA383A71C1705000013059D
:10544800A5DAEFF05FAB0145F2400561828097F77E
:10545800FF1F83C7871A139787016187635407045F
:1054680097F7FF1F23AC071C97C7FF1F9387C7C079
:1054780017F7FF1F2328F71E7D5797F7FF1F23A550
:10548800E71EB7873200938727A197F6FF1F23AF40
:10549800F61C97F7FF1F238D071CB7C7004023A4EE
:1054A800E726A1BF13F7170005CFB7872003938717
:1054B80007D017F7FF1F232BF71AB707C0A817F74E
:1054C800FF1F2323F71A97C7FF1F938707BE17F7F6
:1054D800FF1F2329F71897F7FF1F238B071831BFE2
:1054E800617797F6FF1F2393E61881CB9307003265
:1054F80017F7FF1F231DF716C9B793072003CDBF62
:10550800011122CC17F4FF1F1304C40D084406CE62
:1055180026CA4AC801E90545F2406244D2444249D4
:10552800056182805C58E5DB185C75D7700085459D
:1055380082971844B247E300F7FE9305E00417F595
:10554800FF1F0355E50A97C0FF1FE780604B17F759
:10555800FF1F2327A70E61D117F6FF1F0356460921
:105568009305F00F97B0FF1FE780C073814417F9C8
:10557800FF1F1309E90A97F7FF1F83C78707032649
:10558800090263C1F402328597C0FF1FE780A05368
:10559800014597F7FF1F23A5070A97F7FF1F23A3C6
:1055A800070A9DBF97F5FF1F83D58504B38795022A
:1055B8000844185C898185043E9508C2029765BF36
:1055C800011156C297FAFF1F938ACA0183A78A005E
:1055D80022CC4AC84EC606CE26CA52C45AC0AA8988
:1055E8002E8432896385072203A74A0363070714B9
:1055F8007D476366A71497F4FF1F9384640203AA88
:10560800040263170A0A9565938515E017F5FF1FCD
:10561800035505FE97C0FF1FE780803E97F7FF1FE1
:1056280023A0A7022A86630A051083A74A0303A5B5
:105638008A0097F5FF1F83D5A5FB8981829783A7E9
:105648008A0003AA040217F7FF1F232DF7FE8947D4
:10565800639CF908C1476312F40E97F5FF1F83D5C1
:1056680025F9938505FC9147B3C5F5028A05D295BE
:1056780003C705009307A005631DF70A83C7150034
:105688006399370B4A852286910597B0FF1FE780FB
:10569800E05D9C505285639347150145F240624492
:1056A800D2444249B249224A924A024B0561828059
:1056B800D850E38EE7F89565938525E017F5FF1F29
:1056C800035505F397C0FF1FE78080332A8A35C545
:1056D8002A8683A74A0303A58A0097F5FF1F83D567
:1056E80025F189818297A5B78D47639DF900C14748
:1056F8006315F40497F5FF1F83D585EF938545FD62
:10570800F199B5B79147639AF9006318340397F58F
:10571800FF1F83D5E5EDA115E5B7C147639FF900E4
:10572800A14763EC870097F5FF1F83D565ECC1158A
:10573800C1BF9C5052856397470D294585B713070C
:10574800F006568B6361A70A130A05FE1947334A08
:10575800EA0217F7FF1F0357A7E997FAFF1F938A73
:105768002AEC330AEA023E9A83A74A026395470164
:1057780083A40A029DE49305E00417F5FF1F03556F
:1057880025E797C0FF1FE780A027AA845DD5832758
:105798004B0397F5FF1F83D5A5E52A868981528596
:1057A800829791451307A005898193972500A697AD
:1057B80083C607006393E60483C61700639C360319
:1057C80085058A052286A6954A8597B0FF1FE7803A
:1057D800E04983A70A02E38297EC268597C0FF1F5A
:1057E800E780602E5DBD1307E007E368A7F4130A9E
:1057F80005F985B783D5270045BF83A70A02E38E3D
:1058080097F2268597C0FF1FE780E02B3DB797F7F3
:10581800FF1F9387E7E08C538DD191479306A0052E
:105828008983139727002E9703460700E317D6F0BE
:1058380003461700631C360185078A072286BE9532
:105848004A8597B0FF1FE780604281BD83572700D4
:10585800C1BF97F7FF1F9387E7D8984739C79C5F61
:10586800A9C705476313E504411122C417F4FF1FB4
:10587800130404DB105006C60DC6485097F5FF1FE9
:1058880083D505D789818297085097C0FF1FE78085
:10589800802397F7FF1F23A507DA97F7FF1F23A396
:1058A80007DAB2402244410182808280011117F751
:1058B800FF1F130727D34EC68329870022CC26CA89
:1058C8004AC806CE52C456C2AA842E843289638A34
:1058D80009201C5FBA8A99EB2945F2406244D244F8
:1058E8004249B249224A924A056182805C5BEDD7FF
:1058F800FD4763E9A70E97F9FF1F938969D283A72C
:105908000902B1CB03A58A0083A749026395A706BC
:1059180089476393F408C147E310F4FC17F5FF1FA8
:10592800035505CD9147130505FC3345F50293173B
:10593800250003A509022286CA853E959307A0057E
:105948002300F500A3009500110597B0FF1FE7801D
:10595800E031014559B79305E00417F5FF1F0355DA
:1059680025C997C0FF1FE780A00997F7FF1F23A944
:10597800A7CC49F995B783A74A0303A6090297F567
:10598800FF1F83D5E5C68981829783A78A0017F709
:10599800FF1F2329F7CAADBF8D47639EF400C14797
:1059A800E31CF4F217F5FF1F035585C4130545FDE5
:1059B8009377C5FFBDBF9147639AF400E31E94F047
:1059C80017F5FF1F0355C5C22115DDB7C147E3957C
:1059D800F4F0A147E3E287F017F5FF1F035545C12F
:1059E8004115F9B79307F00663EAA706930705FE82
:1059F8001947B3C7E70217F7FF1F035767BF17FA1F
:105A0800FF1F130AEAC1B387E702BE9983270A0278
:105A1800A9CF83274A02639A370703250A029146CA
:105A28001308A005FD5593D72600C207C183139715
:105A380027002A9703460700631D060783481700B7
:105A48000356270063959806B306D64063CF8604AD
:105A580085078A072286CA853E95C5BD9307E00754
:105A6800E3ECA7E6930705F979B79305E00417F582
:105A7800FF1F0355E5B797C0FF1FE78060F897F74A
:105A8800FF1F23AFA7BA51F581BD83A74A03032699
:105A98000A0297F5FF1F83D5A5B589814E858297A0
:105AA80097F7FF1F23A037BB8DBFA300B700B286AF
:105AB8009DBFB385860017F6FF1F035666B3910591
:105AC800130606FCE3FAC5E0130634001376C60F86
