:040000006F10902BC2
:10000400000000000000000090000020A204002076
:10001400A9BDF9F3900000200000000000000000DA
:10002400900000209000002000000000000000006C
:10003400900000200000000090000020000000005C
:1000440090000020900000209000002090000020EC
:1000540090000020900000209000002090000020DC
:1000640090000020900000209000002090000020CC
:1000740096050020900000209000002090000020B1
:1000840090000020900000209000002090000020AC
:1000940001A04111B7170040985F3AC6945F3247F8
:1000A400E39CE6FE32454101828073270080218B68
:1000B4009387818109CB7327008023ACE180984327
:1000C4005D9B731007800F100000371700409306E4
:1000D40070052300D704930680FA2300D7040F1079
:1000E40000008346B70493F6F60DA305D704230056
:1000F4000704732600809443A18AD18E73900680EE
:1001040023AC01800F100000937605026384061867
:100114000347A700118B25E773270080218B09CBA8
:100124007327008023ACE18098435D9B73100780A4
:100134000F10000037170040930670052300D70402
:10014400930680FA2300D7040F1000008346A7000B
:1001540093E646002305D70023000704F326008016
:100164009843218B558F7310078023AC01800F10A7
:1001740000001307004B010001007D176DFF73277A
:100184000080218B09CB7327008023ACE180984346
:100194005D9B731007800F10000037170040930613
:1001A40070052300D704930680FA2300D7040F10A8
:1001B40000007D892314A700010001000100010053
:1001C40023000704F32600809843218B558F731076
:1001D400078023AC01800F10000073270080218B5F
:1001E40009CB7327008023ACE18098435D9B731097
:1001F40007800F1000003717004093067005230096
:10020400D704930680FA2300D7040F1000000F10C0
:100214000000B726004013061005A383C680230000
:100224000704F32600809843218B558F73100780B1
:1002340023AC01800F10000073270080218B09CBB1
:100244007327008023ACE18098435D9B7310078083
:100254000F10000037170040930670052300D704E1
:10026400930680FA2300D7040F1000008346B704D6
:1002740093E60608A305D704230007047327008028
:100284009C43A18BD98F7390078023AC01800F10FE
:100294000000828093760504638B06140347A7004D
:1002A400418B25E773270080218B09CB73270080BE
:1002B40023ACE18098435D9B731007800F1000000E
:1002C40037170040930670052300D704930680FA7D
:1002D4002300D7040F1000008346A70093E606010D
:1002E4002305D70023000704F32600809843218BBD
:1002F400558F7310078023AC01800F100000130783
:10030400007D010001007D176DFF73270080218BA4
:1003140009CB7327008023ACE18098435D9B731065
:1003240007800F1000003717004093067005230064
:10033400D704930680FA2300D7040F1000009376A5
:10034400F50193E606042314D7000100010001001F
:10035400010023000704F32600809843218B558F66
:100364007310078023AC01800F1000001307600492
:100374006310E50473270080218B09CB7327008069
:1003840023ACE18098435D9B731007800F1000003D
:1003940037170040930670052300D704930680FAAC
:1003A4002300D7040F100000B72600400946B5B556
:1003B40073270080218B09CB7327008023ACE18055
:1003C40098435D9B731007800F100000371700409F
:1003D400930670052300D704930680FA2300D704FC
:1003E4000F100000B7260040130620053DB5732703
:1003F4000080218B09CB7327008023ACE1809843D4
:100404005D9B731007800F100000371700409306A0
:1004140070052300D704930680FA2300D7040F1035
:1004240000008356870093E6060C2314D700C5BB4F
:100434004111814601468145114506C6152CF32715
:100444000080A18B9386818189CBF327008023AC24
:10045400F1809C42DD9B739007800F100000B7175A
:100464000040130770052380E704130780FA2380F4
:10047400E7040F10000003C7670413671700238302
:10048400E70423800704732700809C42A18BD98F43
:100494007390078023AC01800F100000B24041012B
:1004A40082808146014681451145D922F327008087
:1004B400A18B1387818189CBF327008023ACF18042
:1004C4001C43DD9B739007800F100000B71700409A
:1004D400930670052380D704930680FA2380D704FB
:1004E4000F100000FD562396D70223800704F3263D
:1004F40000801C43A18BD58F7390078023AC0180AF
:100504000F100000F3270080A18B89CBF327008014
:1005140023ACF1801C43DD9B739007800F10000017
:10052400B7170040930670052380D704930680FA1A
:100534002380D7040F10000083C6670493E61600D7
:100544002383D70423800704F32600801C43A18B54
:10055400D58F7390078023AC01800F10000001A099
:10056400BD473305F50201007D1575FD82804111FB
:1005740022C426C206C6AA84014463179400B2406A
:10058400224492444101828005041305803E4204C2
:10059400C13F4180DDB7B71700401307000323882C
:1005A400E702854723A0F18273002030411106C67B
:1005B4005D25FDBF2303048015472303E480010068
:1005C4002302A480828083076480E3CE07FE230392
:1005D4000480828083076480E3CE07FE0345448061
:1005E400828083076480E3CE07FE2302A480828096
:1005F400411126C44AC24EC006C61377F50BAD4757
:10060400AA892E8995446306F70019456537653F25
:100614008D444E854537FD59FD1463983401B2402D
:10062400A24412498249410182801355090113757C
:10063400F50F453F2209CDB7011126CC06CEB704EC
:10064400080051371545BD37713769372AC6A53FAC
:1006540032459377150089EB136515001375F50F73
:10066400F240E24405618280FD14E9FC0145CDBFFE
:10067400397126DC4ADA4ED852D656D45AD25ED0D4
:1006840006DE62CE66CCB7E700E07D5783AA07009A
:1006940022C603AA470023A0E71823A2E718B71726
:1006A4000040130770052380E704130780FA2380B2
:1006B400E70483C74704930B75FFB684E20793FBF3
:1006C400FB0F8546AA892E8B328937240040E187A7
:1006D400015763FA76016308D500894613070002BF
:1006E4006313D5000157D98F93F7F70FB71C004058
:1006F4002382FC0411472303E4801305F00F5D3DBE
:10070400094CD135636D7C11B7050700DA9537873D
:100714000700795563F2E504B3879500636EF70229
:10072400370B0800A94733EB65016399F90689E49F
:100734008144513D26850DA0DA850945553D0509BD
:100744000345F9FFFD14050B693D81C49377FB0F45
:10075400FDF7DD3569FD7D55B717004013077005BA
:100764002380E704130780FA2380E70403C74704C0
:10077400418B2382E704F250B7E700E023A057112E
:1007840023A24711E25432445259C259325AA25A4E
:10079400125B825B724CE24C21618280A5476395B7
:1007A400F90685691309F00FB3069900B3742B0198
:1007B400B6941349F9FFB3749900856B33796901D1
:1007C400416B9387F9FFB3F7270199E363FC340185
:1007D40093D94900C147E3E637FF99BF0569C16969
:1007E4007D19D9B71305800D6388690113050002CB
:1007F4006384790113051008CA85DD3B353D21DD8D
:100804004E99B3843441D9B7DA852D45D533CA948A
:10081400E30099F205097D3BA30FA9FED5BF938799
:10082400F9FF93F7F70F6361FC0C83C71C041307EC
:100834003008631FF70437070800636BEB04B30742
:100844009B00B706100063F5D704334BEB008947D0
:100854006393F9068980D549E38C04ECDA8509456C
:10086400413B11090327C9FF91472320E480030773
:100874006480E34E07FE23033481FD17EDFBFD1472
:10088400110B81C49377FB0FE9FF7D3371F5E1B55B
:10089400B717004003C75704B707080013770702C8
:1008A40019E3B78707007955E378FBEA33079B0020
:1008B400E3FFE7F855B58547E382F9F2DA852D457C
:1008C400053B9389F4FFE38504E6293393F7390064
:1008D40091EB832604800327090093074900E39AD8
:1008E400E6E43E89CE84F1BFB5476396F90013056B
:1008F400900BC93135BDB1471305B00AE38BF9FE3E
:1009040099476391F904B7050800B365BB002D4509
:10091400C53181448D4BA149753963967401832790
:1009240004802320F9008504E39834FF832704809E
:1009340013172B01635507002312F900D5BB23229B
:10094400F900FDB39D476399F90281451305B0048D
:100954004531BD442320090023220900FD599D3956
:1009640093F77400CA9703C70700FD14398D2380D9
:10097400A700E39634FF6DBBA1476392F9046D3978
:100984008144630D0B008D479304C0036308FB008F
:100994009304000563048B01930440041375C50795
:1009A400E30895D81945393139390545213126856A
:1009B4000D3909453D314931E31C05D669BB9147E1
:1009C4006399F90013056006F536F53E13059009A1
:1009D4000DB7E38F09D4F154A9BB411126C2973452
:1009E40000009384E44F22C480404AC006C60549EF
:1009F4000DC45C406360F9021C409CC05C4423202D
:100A0400040099C7084882979C4063938700A28496
:100A14008040F9BFFD175CC0DDBFB2402244924460
:100A240002494101828019CD91CD09CE8147338796
:100A3400F500834607003307F50085072300D70038
:100A4400E317F6FE828019C991C909CA910583A7E3
:100A5400C5FF11057D16232EF5FEC5BF828001C991
:100A640019C62A960505A30FB5FEE31DA6FE8280CE
:100A740081473307F5000307070019E33E858280A9
:100A84008507C5BF01112E8626CAAA84131506013F
:100A94009305F004418122CC06CE32C6EF00B06744
:100AA4002A8401C53246A685BD3F2285F2406244B0
:100AB400D24405618280854715C18DC105C2814735
:100AC400B306F5003387F50083C606000347070025
:100AD4006398E6008507E315F6FE85473E85828028
:100AE4008147EDBF9307F6FFBE952A966313C500B1
:100AF4008280FD1583C715000505A30FF5FEFDB71C
:100B0400AA87014581CF09CE3E96850703C7F7FF23
:100B14006317B700E39BC7FE0545828082800145C9
:100B2400828079719387818622D4804306D626D227
:100B34004AD04ECE52CC56CA5AC85EC65DCCB7C453
:100B4400C901014B938901869384F437173A000055
:100B5400130A4A3A973A0000938A8A3D17390000EB
:100B6400130949418357240085E35C44631B0B004C
:100B740023A4F186832BC4002285EF0030665E84B3
:100B8400B9A82326FB00FDB783A7090082971C445C
:100B94003307F5406376F500032749001D8F2A9734
:100BA40063E0E4089737000023AC0738835524003A
:100BB40003450400974000E0E780C0FA5C405844D5
:100BC400A1CB0C4403264900AE97BE8663E4B7006C
:100BD40063E4C700B386C74014C4228B3A8459F037
:100BE400973700009387C7349C4B09476370F70617
:100BF400F917173700002325F734B25022549254C2
:100C04000259F249624AD24A424BB24B4561828050
:100C140063150B0023A4E186B1BF2326EB0099BF23
:100C240003274A0209CF63EFA7003385A74083A7B0
:100C34000A016376F5009737000023A3A730228BBF
:100C4400404471BF03274900BA97C5B797370000DE
:100C540023A8072E5DB7411122C4173400001304E2
:100C6400A42F1C4006C626C24AC091C78297973754
:100C7400000023A3072E9737000083C7F730858B26
:100C8400973400009384043095C397370000A38DF4
:100C9400072E83C774001547637AF700CD2183C7F5
:100CA4007400F5178A07A2979C4382971C4491C34A
:100CB40082971389418503270900173600000346EC
:100CC40036279737000083C7A72693961700BA964E
:100CD40083D60600C5CE9737000083C7672563E136
:100CE400C70C97370000238507241C40639507121F
:100CF4009737000083C7972991CF83C7740093F770
:100D0400F70F89EB97370000A3820728975000E07C
:100D1400E78000B8938701869C43638E070E97375C
:100D2400000093872725DC4317370000232AF72088
:100D3400CD3B973700009387E71BDC53E9CF173788
:100D440000001307E71E184B9737000083C7D71B13
:100D54006363F70C83C774001547636EF70A97370C
:100D6400000083C7A726918BDDE703260900973689
:100D7400000083C6F61B63C6D70A2244B2409244DD
:100D840002494101179300E0670083F5850793F753
:100D9400F70F97360000238DF618E3E4C7F225BF5A
:100DA40086073E978355070023100700239E01847E
:100DB4009387C1869C4317350000034565171317B5
:100DC4002500BA979C43829783D7C18517370000C3
:100DD4000347071693C7F7FF7D8D93171700032763
:100DE40009003E97835707005D8D2310A7009737AE
:100DF400000083C7E71391C785071737000023094D
:100E0400F712173700000347A7129737000083C76C
:100E14003712E378F7ECB24022449244024941018C
:100E24008280139717003297035707006DF78507E1
:100E340099B7AD6737C70040BD072326F7200F10C9
:100E44000000973700009387A70EC84F8327872693
:100E5400BD66BD0693C7F7FF99836A052326D7208D
:100E64005D8D82804111B7170040985F3AC6945F48
:100E74003247E39CE6FE3245410182801305F00FC0
:100E84008280138701871C439306001094C30100DA
:100E94000100010001001C4323A007008346150044
:100EA40003482500A2064208C29603480500C296DC
:100EB400034835006208C29694D783465500034818
:100EC4006500A2064208C29603484500C29603483C
:100ED40075006208C296D4D7834695000348A500DE
:100EE400A2064208C29603488500C2960348B5008C
:100EF4006208C29694DB8346D5000348E500A20647
:100F04004208C2960348C5000345F500C29662052F
:100F1400AA96D4DB83C6150003C52500A2064205A4
:100F2400AA9603C50500AA9603C535006205AA96CC
:100F340094CF83C6550003C56500A2064205AA9650
:100F440003C54500AA9603C575006205AA96D4CFC9
:100F540083C6950003C5A500A2064205AA9603C54B
:100F64008500AA9603C5B5006205AA9694D383C6E4
:100F7400D50003C5E500A2064205AA9603C5C5002F
:100F840083C5F500AA96E205AE96D4D3D443F59A68
:100F9400D4C3D44393E61600D4C3944393E6160013
:100FA40094C3BA879443D842058B59E3984E0145BC
:100FB4002300E6009843184F2183A300E6009843DA
:100FC400184F41832301E6009843184F6183A3011E
:100FD400E6009C43D84F2302E600D84F2183A302A6
:100FE400E600D84F41832303E600D84F6183A3036F
:100FF400E60098532304E60098532183A304E600F3
:10100400985341832305E60098536183A305E600C2
:10101400D8532306E600D8532183A306E600D85309
:1010240041832307E600DC53E183A307F6008280B3
:1010340001008DBF138741871443411122C49C5E74
:101044004AC006C6998326C2858B3A8413890187D0
:10105400D1C79C5E973400009384C4F293F7F7F9E8
:101064009CDE17370000034747F293070008631B11
:10107400F700832709009C4393F707041737000000
:101084002305F7F083C7040093F707048DC3938700
:1010940001869C4382979737000023ADA7EE83C750
:1010A400040093F7F70B17370000230DF7EC83C701
:1010B400440093F707049DE3854717370000A30511
:1010C400F7EC938701889C43096798C7130700FCD2
:1010D40097360000238AE6EAD844F8D31C40985F88
:1010E4001183058B09CB985F3D9B98DF05479736A5
:1010F4000000238BE6E8985F1D83058B11CB985F76
:101104001377F7F798DF854717370000230EF7E6C4
:1011140083270900D8430583058B19C7D843759BDA
:10112400D8C3D843799BD8C3B240224492440249DD
:1011340041018280397106DE16DC1ADA1ED82AD6FD
:101144002ED432D236D03ACE3ECC42CA46C872C62B
:1011540076C47AC27EC0F93DF250E2525253C25371
:101164003255A255125682567247E2475248C24837
:10117400324EA24E124F824F21617300203093876A
:1011840001889443973700009387C7DF03C707009C
:10119400058B11CB97370000238807DE97370000B3
:1011A400A38407DE828003C71700058B65F7F85216
:1011B40071FF83C75700DDB71388418703270800F1
:1011C4001C5F9583858BD1E709C61C5BBD83230017
:1011D400F60085CA83270800985B46079357670182
:1011E4006356070093E707C0C207C183039706004D
:1011F400C207C18709C7BA970947B3C7E702239053
:10120400F60085CD834715008DCB9736000083C645
:10121400C6D793F606041387970089478DCA3A9573
:1012240003470500854699471376F7066311D602EE
:1012340062076187B947634C0700832708009C5FF6
:10124400ED838D8B17370000A303F7D481473E85C8
:1012540082808547EDBF411122C406C613840188EC
:1012640018402DE9AE877453FDFE3E85B28597374D
:101274000000238A07D0974000E0E780C03B9387B3
:1012840041879C43B70680009843558F98C3D8572D
:10129400719BD8D797370000A38807CE97370000F3
:1012A400A38207CE1C40094798C314401737000097
:1012B400130747CD83472700858B89EB8347370086
:1012C400858BD9C397370000238007CCB2402244D2
:1012D400410182808D47631EF500938741879C43BB
:1012E400B70680009843558F98C3D857719BD8D7B9
:1012F4006DBF8547E31BF5FA5447F977FD17F58F62
:101304005CC70F1000001C40096798C7130700F85A
:1013140017360000230AE6C6138741871043184294
:1013240031830D8B11E713076019F8D3D4C7B5BF08
:101334001842094631830D8B6315C7001307E04338
:10134400EDB71307E01BD5B7FC52ADF741B75D719C
:10135400A2C4A6C22A84130680022800AE84930580
:10136400100886C6CAC04EDE52DCEFF04FEF35459A
:10137400974000E0E780806313834187832703005D
:101384009376F41F138E818823A40700984B938EC1
:101394000188370FFCFF1367F70398CBF84F130549
:1013A40010F8B7020400137707E0558FF8CF98437D
:1013B400F576FD16758F98C39843B70633009303EB
:1013C40080251377F7E798C3984311497D1F137756
:1013D400F7E71367071098C303270E008549930F97
:1013E40080021C47D58F1CC783A70E001307900DDE
:1013F4003400B8CB014793553700A69583C7050041
:1014040013767700B3D7C740858BE1C383270300E6
:1014140083280E00239C07042390070603A8C80210
:101424001378D8FF23A6080383A807001378F707C7
:1014340093F808F833E8080123A0070103A847023A
:101444003368580023A2070383A80E00014823A28F
:10145400780603DA07066307480303A80703038A29
:1014640006001358F80062081358884163580A01AB
:1014740003A807031358F8002380060103D80706BE
:101484001378F80F03AA480663060A0003DA8705EF
:10149400E37F49FB03A847023378E80123A207034B
:1014A40083870600635CF40003C805003396C90013
:1014B4001346F6FF337606012380C5003E8663D3C8
:1014C400A7002A8613158601618505071377F70F90
:1014D4008506E312F7F3B640264496440649F259CA
:1014E400625A61618280938601889C42D8471316B0
:1014F4001701635506029847131617016350060235
:101504007D57B8D717370000130787A2584F050730
:1015140017360000232CE6A2116798C798470D835D
:10152400058B1DCB173700000347E7A5136717008A
:10153400173600002309E6A4130700F81736000045
:101544002304E6A4214798C71387418710435856BC
:10155400719B1367170058D69847058B0DC717372B
:101564000000034737A21367170017360000A30BC8
:10157400E6A0054798C71387418710435856719BC7
:101584001367170058D698470983058B09E79847CE
:101594000583058B21CF9847173600001306869ED6
:1015A400138541870983058B63030710184118438A
:1015B40031830D8B75EBAC4B184E93F50502034745
:1015C4001700CDCD79EF13077006D8CF0347060077
:1015D40013671700173600002306E69A114798C7C9
:1015E40018415C57F19B93E717005CD79C429847DE
:1015F4009316370163D606029736000083C606A603
:10160400C18A173700001307E79DC5CE0347870734
:1016140013670702973600002382E6A4056798C77C
:1016240098479316270163D1060217370000034732
:10163400A79562076187635707000547973600003F
:101644002384E694096798C798479316070163D6DD
:1016540006029736000083C676A0858A17370000F5
:1016640013074798ADCE03479707136727009736AC
:101674000000A385E69E216798C7828029D7854507
:101684006315B7001307B00689B789456315B7001A
:101694001307F0061DBF8D456315B7001307300708
:1016A4002DB71307500715B71307600739BF034752
:1016B40036001367170017360000A306E68C0947A7
:1016C40039BF834687070946BD8A6388C600034736
:1016D40087078D463D8BE313D7F4114725BF834617
:1016E4009707918AC9DA034797071367870041B7B9
:1016F400397106DE16DC1ADA1ED82AD62ED432D276
:1017040036D03ACE3ECC42CA46C872C676C47AC2F5
:101714007EC0D13BF250E2525253C2533255A255CD
:10172400125682567247E2475248C248324EA24E7F
:10173400124F824F216173002030173700001307C6
:1017440027868346B7019737000083C737884C4BF9
:10175400B697FD8B33D7F50097360000A382F68445
:1017640097360000A384F686058B15EF1737000023
:1017740003471786B3F7E7028146014713050002C2
:1017840033D6E500058A1378F70F19CA6397D70093
:1017940097370000A38607818280850693F6F60FAB
:1017A4000507E31FA7FC82809727000083C7D77D26
:1017B400D9E7938701869C43411122C426C206C6F9
:1017C4008297972700009387A77F8047BE8463038F
:1017D400A40663688504018D1354550097270000FF
:1017E40083C7A77D6368F404893F98449727000062
:1017F40083C7A77C9396570036971D8C97260000C5
:1018040023A4E67CE372F4FE2244B24092441725FA
:1018140000000345F57881454101174300E0670066
:101824006340972700009387E774DC433384874041
:1018340022955DB7B2402244924441018280828065
:10184400938701869C43011122CC4AC806CE26CA3E
:101854004EC6829797270000938787768047014971
:101864006301A406BE8463668506018D1354550086
:101874009727000083C767741379F5016360F40444
:10188400972900009389096F4D3D03A8840097268A
:10189400000083C68672139756004297158C3A86C9
:1018A40083A54900636407016364B7003306B74046
:1018B4009727000023AAC770E378D4FC1604336981
:1018C4002401F24062444A85D2444249B249056146
:1018D4008280972700009387E769DC43338487403D
:1018E400229569B79387018898438567938707771B
:1018F4007CD3938781889C4383A60709139656005B
:101904006358060083A6070913966600634406001D
:101914007453FDF2828061C1AA870145DDCD8D0734
:10192400C207C183F19BC207C18313074003636BE2
:10193400F7021387C18908431387418914436396C7
:10194400A602172700001307E75A185B014551C781
:101954004111C20706C60545DD8D0297B240014517
:101964004101828013878189F9B70357650035E304
:1019740003574500636FF704B306F7402146637CC1
:10198400D60203280500938687001D8FAA96611747
:10199400172600000356265A2392E60023A00601C8
:1019A4002393060014C12312F500130786FF97261C
:1019B40000002392E6582313B5009725000083D531
:1019C4008557B387F540172700002316F7562105DE
:1019D40082800841ADB701458280828009CD93871A
:1019E400C18903A307009387418983A8070081461F
:1019F4009A8763E31701828003A807006369F50AE5
:101A04006367A80A13878700E367E5FE03D66700C8
:101A1400216705076317E60003C7018A05072380CA
:101A2400E18A972500009385A55003D6470003D784
:101A3400650023930700329742074183172500006E
:101A4400231BE54E6388670213858189084163037C
:101A5400F50203D5660019ED83D7460023A00601DD
:101A640021073E9621062392C6009727000023945F
:101A7400E74CB6879843E30017F99386818994422B
:101A8400E30BD7F683566700BDF683D647000356AB
:101A940047001843A106B2962392D70098C383D770
:101AA4006500A107172700002317F7488280BE8628
:041AB400C28781B7AD
:101AB800971100209381818A176100201301015436
:101AC8001305400097E5FF1F93854553170600202F
:101AD800130606FE63FAC5008322050023A05500FD
:101AE80011059105E3EAC5FE178500001305052BCE
:101AF800970500209385C5FB1386818163FAC5008D
:101B08008322050023A0550011059105E3EAC5FECF
:101B180013858181972500209385055F6377B5003C
:101B2800232005001105E36DB5FEFD42739002BC4C
:101B38008D4273904280930280087390023097E23E
:101B4800FF1F9382A24B93E23200739052303717F3
:101B58000040930770052300F704930780FA2300D9
:101B6800F7040F1000003C47B70600FAE116F58F9E
:101B7800B70600069506D58F3CC7971200009382DA
:101B8800E21973901234730020303D432A8763733F
:101B9800C3029377F700BDEFADE5937606FF3D8A64
:101BA800BA960CC34CC30CC74CC74107E36BD7FEAE
:101BB80011E28280B306C3408A0697020000969617
:101BC8006780A6002307B700A306B7002306B7005F
:101BD800A305B7002305B700A304B7002304B70083
:101BE800A303B7002303B700A302B7002302B7007B
:101BF800A301B7002301B700A300B7002300B70073
:101C0800828093F5F50F93968500D58D93960501FF
:101C1800D58D61B793962700970200009696868225
:101C2800E78086FA9680C1171D8F3E96E374C3F845
:101C3800A5B7B717004003C777051377E70FA38B3E
:101C4800E704130700F8A38DE7043D47238CE70456
:101C580013075003A38CE7048280B717004083C79B
:101C6800E7020D8993F7C70FC98F73270080218B6F
:101C78009386818109CB7327008023ACE180984249
:101C88005D9B731007800F10000037170040130684
:101C980070052300C704130680FA2300C7040F1039
:101CA80000002307F70223000704732700809C42E3
:101CB800A18BD98F7390078023AC01800F1000008F
:101CC800828041112A83014E930E407E130F001922
:101CD800930F400663E66E14930800191303400639
:101CE800B3781503854E0D4FA14F337365020D89E7
:101CF8001335150063E0BE161308F6FF794672988F
:101D08004208135808013307C70213D61700BE0745
:101D180032976146B3F6C60213068070B386C602D0
:101D28003697A166F58F42075D8FB716004083C7C7
:101D3800F60293F70708A307F1000346F10083C7EB
:101D4800F60293F70708E394C7FE8347F100B71636
:101D5800004093F7F70F63890714F3270080A18BDE
:101D680093868181639807140F100000B71700400D
:101D7800130670052380C704130680FA2380C7045E
:101D88000F10000023AA070303C6170313660608EB
:101D9800A388C70223800704732600809C42A18B76
:101DA800D18F7390078023AC01800F10000011665B
:101DB800B71500407D16DC59C85DA98FF18FE5FF86
:101DC800F3270080A18B89CBF327008023ACF18017
:101DD8009C42DD9B739007800F100000B7170040EE
:101DE800130670052380C704130680FA2380C704EE
:101DF8000F100000D8DB03C7170313670704A38875
:101E0800E70223800704732700809C42A18BD98FA7
:101E18007390078023AC01800F100000410182807D
:101E28007D133368E3039308E016630E08003368F4
:101E3800F3039308D016630808009378330093B827
:101E480018009388D81633081E01131E0801135E64
:101E58000E0149B56393E503054863860800014808
:101E6800630303002A8871087298FD15131E080180
:101E7800C205135E0E01C181B5BD13F8150063F4E8
:101E8800BF007908D5B713381800E5BF83C7F60235
:101E980093F70708A307F1000346F10083C7F6028A
:101EA80093F70708E394C7FE8347F10093F7F70F0A
:101EB800F1DF65B5F327008023ACF1809C42DD9B00
:101EC8007390078055B55971E2C486D6A2D4A6D2BC
:101ED800CAD0CECED2CCD6CADAC8DEC6E6C2EAC0EE
:101EE8006EDE2A8C02D6EF001016F3270080A18B35
:101EF800138D818191CBF327008023ACF180832758
:101F08000D00DD9B739007800F100000B71700408D
:101F1800130770052380E704130780FA2380E7047A
:101F28000F10000003C7F7021377770FA387E702A4
:101F380003C7F70213678700A387E7022380070414
:101F48007327008083270D00A18BD98F739007809A
:101F580023AC01800F100000F3270080A18B91CBE8
:101F6800F327008023ACF18083270D00DD9B73905D
:101F780007800F100000B717004013077005238073
:101F8800E704130780FA2380E7040F10000003C753
:101F9800E7021377C70F2387E70203C7E702136730
:101FA80017002387E702238007047327008083270D
:101FB8000D00A18BD98F7390078023AC01800F107F
:101FC8000000130780C13347E5029169938709E848
:101FD800130650023D69B7440F0093840424856BAF
:101FE800130BA004014A814A13047005FD19B34775
:101FF800F5023307C7023EC2930709A61309803EBC
:102008003347F7023AC43347250305493319890191
:10201800135939403345950293840BFAB3948401DC
:10202800811B3306C702B346F6023309E90236C6F6
:10203800330B670313076055B304950213050010AB
:102048003309E902B346FB02130B80FAB3C4A402B6
:1020580036C8B347F902939634003719004036CC96
:10206800930409043ECA73260080218A11CA732684
:10207800008023ACC18003260D005D9A7310068092
:102088000F100000930770052380F400238064017B
:102098000F100000034639051376860FA309C904FB
:1020A8000346390513661600A309C90423800400F2
:1020B8007325008003260D00218A498E731006803F
:1020C80023AC01800F100000916CE17D7326008025
:1020D800218A11CA7326008023ACC18003260D0013
:1020E8005D9A731006800F10000093077005238017
:1020F800F400238064010F100000034639051366BD
:102108000602A309C9040356090533669601231874
:10211800C904035609053366B601420641822318ED
:10212800C904238004007325008003260D00218A3A
:10213800498E7310068023AC01800F1000000346FF
:102148003905137606026305061603463905218A02
:102158006DDE6810152F73260080218A11CA732638
:10216800008023ACC18003260D005D9A73100680A1
:102178000F10000023808400238064010F100000EA
:10218800034639051376F60DA309C9040346390534
:1021980013660602A309C9040356090533669601A6
:1021A8002318C904035609053366B601420641825D
:1021B8002318C904238004007325008003260D001A
:1021C800218A498E7310068023AC01800F1000000D
:1021D80003463905137606026308061003463905D7
:1021E800218A6DFE97E0FF1FE78060EA2A8632CEDB
:1021F80097E0FF1FE780A0E97246E30AC5FE035691
:1022080009053255336696012318C904712D034612
:102218003905218A6DDE03550905034629059247CC
:1022280033F5A9003386C90232951D8DA24763D5BF
:10223800A700B2476346F50E09466365560FC247C5
:10224800850A1316150093FAFA0F3346F6026354FB
:10225800A03A050609453346A60273250080218960
:1022680011C97325008023ACA18003250D005D9959
:10227800731005800F100000238084002380640100
:102288000F1000000355C9022A9642064182231600
:10229800C902238004007325008003260D00218ACB
:1022A800498E7310068023AC01800F10000039BDE1
:1022B80073260080218A11CA7326008023ACC1804E
:1022C80003260D005D9A731006800F10000023800E
:1022D8008400238064010F1000000346390513664B
:1022E8000602A309C90435BD73260080218A11CAD4
:1022F8007326008023ACC18003260D005D9A7310FD
:1023080006800F10000023808400238064010F10D2
:1023180000000346390513660602A309C90459BD1E
:10232800E38F0AF073260080218A11CA7326008081
:1023380023ACC18003260D005D9A731006800F1030
:10234800000023808400238064010F1000000346EE
:1023580039051375FC0F1376860FA309C9040346C4
:102368003905498EA309C904238004007328008015
:1023780003260D00218A336606017310068023ACFC
:1023880001800F100000034639051D8A6317862750
:1023980073260080218A11CA7326008023ACC1806D
:1023A80003260D005D9A731006800F10000023802D
:1023B8008400238064010F1000000346390511656D
:1023C8001376F60DA309C9040346390513660602F8
:1023D800A309C90403560905498E2318C9040356DD
:1023E80009052165498E2318C90423800400732533
:1023F800008003260D00218A498E7310068023ACC5
:1024080001800F1000000346390513760602630E9B
:10241800062003463905218A6DDE6810B52173262A
:102428000080218A11CA7326008023ACC18003264C
:102438000D005D9A731006800F1000002380840041
:10244800238064010F1000000346390511651376D7
:10245800F60DA309C9040346390513660602A30944
:10246800C90403560905498E2318C90403560905EA
:102478002165498E2318C904238004007325008030
:1024880003260D00218A498E7310068023AC018033
:102498000F10000003463905137606026303061C75
:1024A80003463905218A6DFE97E0FF1FE78020BEAD
:1024B800AA8C97E0FF1FE78080BDE30C95FF0356C9
:1024C80009051165498E32552318C904F12E0346B2
:1024D8003905218A6DDE73260080218A1385818162
:1024E80009CA7326008023ACC18010415D9A73101D
:1024F80006800F10000023808400238064010F10E1
:102508000000034639051376F60DA309C904238094
:102518000400732800801041218A33660601731075
:10252800068023AC01800F100000035809050346FC
:102538002905E24733F809013386C902329833087E
:10254800F8401306800C3306C802D2473346F60219
:102558006355001505060948334606036351C01440
:102568000358C9029308F00F13585800329863D6DD
:10257800081F094663734619F3270080A18B89CB8E
:10258800F327008023ACF1801C41DD9B739007800A
:102598000F10000037170040930770052300F70459
:1025A800930780FA2300F7040F1000008356C70230
:1025B80089678117D58FC207C1832316F7022300C5
:1025C8000704732700801C41A18BD98F7390078063
:1025D80023AC01800F100000B650265496540659BB
:1025E800F649664AD64A464BB64B264C964C064D9B
:1025F800F25D656182807D16B1B973260080218AFB
:1026080011CA7326008023ACC18003260D005D9A91
:10261800731006800F10000023808400238064015B
:102628000F100000034639052DBB73260080218A50
:1026380011CA7326008023ACC18003260D005D9A61
:10264800731006800F10000023808400238064012B
:102658000F1000000346390513660602A309C904D2
:1026680069B373260080218A11CA7326008023ACBF
:10267800C18003260D005D9A731006800F100000BC
:1026880023808400238064010F100000034639056D
:1026980013660602A309C904C5B37D166DBD55CEE0
:1026A8000358C902B308C040135858006357180BA1
:1026B800094663744605F3270080A18B89CBF3276D
:1026C800008023ACF1801C41DD9B739007800F10C4
:1026D8000000B7170040130770052380E7041307AD
:1026E80080FA2380E7040F10000003D7C7027D8B10
:1026F8002396E70223800704E9B573260080218A20
:1027080009CA7326008023ACC18010415D9A7310FA
:1027180006800F10000023808400238064010F10BE
:1027280000000356C9021376F60F33667601420697
:1027380041822316C90223800400732800801041B7
:10274800218A336606017310068023AC01800F10BE
:102758000000050A137AFA0F39B2F3270080A18B1B
:1027680089CBF327008023ACF1801C41DD9B73905B
:1027780007800F100000B71700401307700523806B
:10278800E704130780FA2380E7040F10000003D73B
:10279800C70216063A96420641822396C70299BF97
:1027A800914763EEB70217770000130767128A058F
:1027B800BA959C41BA978287B717004003A7470B81
:1027C8001345F5FF698F23AAE70A03A7070B698F4B
:1027D80023A8E70A03A7070A798D23A0A70A8280FE
:1027E800B717004083A6470B1347F5FFF98E23AAB6
:1027F800D70A83A6070B558D23A8A70A83A6070A1D
:10280800758F23A0E70A8280B717004003A7470BFC
:10281800498F23AAE70A03A7070B1345F5FF45BF0E
:10282800B717004083A6470B1347F5FF758F23AAF8
:10283800E70A03A7070A598D4DB7B717004003A742
:10284800470B498FEDB7B717004003D587004205FE
:1028580041819377050491EB9377F5013755E801AA
:10286800130505803345F50282809377050C13071D
:1028780000046397E7009377F50137459C1CCDB7B3
:102888002165130505D0828037E700E01C435443D7
:10289800A183E206D58F1CC1FD572320F7182322F8
:1028A800F7180F100000828013178500B7E700E0C3
:1028B80023A0E710618123A2A7108280B7F700E068
:1028C8008847CC478280814737370040A14663C498
:1028D800C700328582800345B740E38EA6FE338564
:1028E800F5000345050085072304A740CDB797F7F2
:1028F800FF1F9387A7269C43172700201307C7802D
:102908003E95636EE500175700201307274F63684D
:10291800A70017F7FF1F2323A7243E858280FD57B2
:10292800EDBF411122C406C62A84313F2947B307A7
:10293800E502B2408D83B3D7870222449507B3D707
:10294800E70237370040C207C1832316F740410129
:102958008280716541111305052006C6D937B7373E
:102968000040130770F82381E7400D47A381E74033
:1029780013070004A380E74005472387E740B240D8
:102988004101828011456FF00FD4411193962500C3
:10299800AA852D4506C697E0FF1FE78020CDB240E7
:1029A800014541018280411126C29394250022C429
:1029B8004AC02A843289A686AA850146254506C6C4
:1029C80097E0FF1FE78080CAA6864A86A285294528
:1029D80097E0FF1FE78080C9B24022449244024931
:1029E800014541018280011122CC06CE37140040F6
:1029F80026CA4AC84EC652C483447405034AB4055D
:102A08008349840503499405EFF0AFA28347A405E1
:102A180093F4F40F137AFA0F93E71700230DF404D5
:102A280093F9F90F1379F90FB717004003C7A705F2
:102A3800058B6DFF03D5C705A38D4705238C370587
:102A4800A38C2705A38B9704F2406244D2444249E1
:102A5800B249224A0561828041119397050122C437
:102A680006C6C1872E8463DD0700EF10906B19C17D
:102A7800EF1010642165218DB2402244410182800B
:102A880093F7150013C51500E5FB9397250163D04F
:102A98000702EF20F07EFD3537F60200130606E048
:102AA800896503C5C181EF20A0100965E9B793972F
:102AB80015010145E3D207FC17750000130505E76A
:102AC800EF50104213060064916503C5C181EF20E1
:102AD800200E11654DB71D71494697750000938505
:102AE80065E0177500001305250286CE97E0FF1FE5
:102AF800E78020FC01E9177500001305E5DFEF50BA
:102B0800303E01A0B7F600E0795798CAFD57DCCAF5
:102B18000567B7E700E023A0E7101306F00290C2AC
:102B280023A0E7180F1000001306C00381454808CA
:102B380097E0FF1FE78060F297F7FF1F9387C70CA6
:102B48003ECA896793870780231CF100B547230491
:102B5800F102A167938707E03ECEB7070105938787
:102B680007103ED0ED472312F10285472303F102F7
:102B7800970700009387A7E1BEC4970700009387D3
:102B8800C7E2BEC68567938717D02315F10297075A
:102B980000009387E7D23EDAB7F5070097070000F1
:102BA8009387A7E43EDE8146970700009387C7DD39
:102BB8007000E1051945BEC097E0FF1FE78000AB34
:102BC80058088147994670003E96034606008507D7
:102BD8000507A30CC700E398D7FED24791C7035750
:102BE800810185676373F70001A04808EF20C02FB3
:102BF800AA8501C917750000130545D1EF50101AB1
:102C080001A0F640256182804111170500001305D7
:102C1800E5E406C622C4EF20A0291384C18123005D
:102C2800A4001928034504002244B24013060032C8
:102C3800896541016F10D077411106C6F3270080DE
:102C4800A18B1387818189CBF327008023ACF18086
:102C58001C43DD9B739007800F100000B7170040DE
:102C6800930670052380D704930680FA2380D7043F
:102C78000F10000083C6F70293F6A60FA387D702AA
:102C880023800704F32600801C43A18BD58F739003
:102C9800078023AC01800F100000F3270080A18B70
:102CA80089CBF327008023ACF1801C43DD9B739014
:102CB80007800F100000B7170040930670052380A7
:102CC800D704930680FA2380D7040F10000083C628
:102CD800F70293E62600A387D70223800704F3268A
:102CE80000801C43A18BD58F7390078023AC018093
:102CF8000F1000000545EFE05FF669311305407ECF
:102D080081470147814605468545EFE09FFBB24074
:102D1800014541016F20C04241111305800406C6D8
:102D280097D0FF1FE7802038371700408327870A8E
:102D38008D451305002093E707202324F70A8D34D7
:102D48000939177500001305A5BEEF5070191775DE
:102D58000000130565DBEF50B018B53B7535EF4043
:102D6800001C31219521EF00E06C97E0FF1FE78000
:102D7800A083034855008347450003473500834631
:102D88002500034615008345050017750000130547
:102D9800A5C16F50B0007971970700209387C76667
:102DA80022D426D256CA06D64AD04ECE52CCAA8AA9
:102DB8000144BE84A146D8433DE713850501137538
:102DC800050F09052EC6EF1070312A892DC193878A
:102DD800818283A907003E8AB245639B090633872F
:102DE800BA008347F7FF138615001376F60FAD8FE9
:102DF8002300F700A300B900568593052900EF00CA
:102E0800E06903270A0005050E042300A900B3871B
:102E1800840039C323A0F900269423222401232007
:102E28000400054521A80504A107E316D4F8177581
:102E38000000130565BAEF50B00A0145B25022549C
:102E480092540259F249624AD24A45618280BE8947
:102E580083A70900EDFF61B7894503C5D18223A483
:102E6800F182EF10704F4DBF411106C622C426C231
:102E78008D476301F502C5476305F5008547631F64
:102E8800F50C914503C5D182EF10306A914503C511
:102E9800D18295A8CDE5034516008547B2841377FE
:102EA800F5006319F708C14763F6A70883472600AA
:102EB80063F2A708EF1090222A8435C503C61400D0
:102EC80093051500138534007D161376F60F9925A2
:102ED80083C72400B306F40003C7060083C61600A0
:102EE8003D8F6398E6022300F40017750000130570
:102EF800A5A4EF50E07EA28503C5C182EF10F0289B
:102F0800854503C5C1822244B240924441016F10F5
:102F1800B044177500001305E5A2EF50607C2285C8
:102F2800EF101019F1BF177500001305E5A2EF5057
:102F3800207BF9B717750000130545A3CDBF85475A
:102F480017750000130505A3E383F5FE8947E39988
:102F5800F5FA177500001305A5A2D1BFB2402244A7
:102F6800924441018280011122CC06CE26CA93F7F1
:102F780015002E8481CF97E0FF1FE780C0A5134579
:102F88001400F2406244D2440561828093F7250020
:102F98008DCBEF1090371376F5001506B2851775AF
:102FA8000000130565A732C6A3820182EF50005FB7
:102FB8003246914503C5D182EF10903F1345240056
:102FC800C9B793F745006384070C83C75182094743
:102FD800636AF70685E3894503C5C182EF10F0549B
:102FE800894503C5C182EF10D039854503C5C18223
:102FF800EF103039EF30302D03C75182977700003A
:10300800938787CBBA9703C50700EF30106493877F
:1030180081829C439306F00F1306F00FC843834543
:1030280005000505EF3080002146914503C5D18292
:10303800EF10103883C751828507A382F1821345A8
:10304800440081B783C761828507894503C5C1826A
:103058002383F182EF10503003C76182854763E80C
:10306800E700894503C5D182EF10102FC9BF23831C
:103078000182938481829C40C843EF1070039C4076
:1030880023A207009C4323A4F182E1FF4DBF93973D
:103098000501C1870145E3D607EE03C5D182EF10CC
:1030A800500819C1EF10D0002165218DD9BD4111FB
:1030B80022C406C626C293F725002E84B5C383C74B
:1030C8004182850793F7F70F09476368F70423825E
:1030D800F182EF30501F03C7418297770000938732
:1030E800A7BDBA9703C50700EF3030569306F00F17
:1030F8001306F00F81450145EF30E021414689452F
:1031080003C5C182EF10D02A1375C4FF420541815F
:10311800B24022449244410182802382018255BFF9
:1031280093F7150091CFEF30101A9306F00F13069E
:10313800F00F81450145EF30001E13451400C9BF4B
:1031480093970501C1870145E3D407FC03C5C182F4
:10315800EF10207DAA8409C98345050005050D2BBC
:103168002685EF10E074AD232165218D55B779715F
:103178001306000281450A8506D697E0FF1FE780FF
:10318800C08DB7772617938727163EC4B7575500C3
:10319800938757553EC623820182856793870780A8
:1031A8002310F1000A8597070000938727CC3EC8B3
:1031B800EF20D04DAA85176500001305A57DEF50B7
:1031C800E03DB25045618280797171468145480081
:1031D80006D622D497E0FF1FE780208897070020B3
:1031E8009387072D3EC4970700209387A7703EC892
:1031F80097070020938747253EC693070002231DA3
:10320800F100856793874780B7F50700231EF10013
:10321800814685475008E105176400001304C47C03
:103228001945230FF10022C297D0FF1FE780004401
:103238004C0017F5FF1F1305A5870D269377F50F8B
:10324800BDCF3E86A285176500001305257BEF508C
:10325800E034170500001305C5E5EF107045238617
:10326800A18217050000130545D0EF10704413061E
:1032780000028545A386A182EF10F02513060004FD
:103288008145170500201305251897D0FF1FE780F3
:10329800C07C23830182EF3010039306F00F1306DE
:1032A800F00F81450145EF3000074146894503C5C8
:1032B800C182EF10F00FB250225445618280A2857E
:1032C8001765000013058574EF50402D59B741115B
:1032D80006C62529B240AA8517650000130505769C
:1032E80041016F50A02B411106C60521B240AA85A5
:1032F800176500001305057E41016F50202A3971BA
:1033080006DE2ECE22DC26DA3284B6844AD84ED6A1
:10331800AA89EF00006E1379F50F4E85FD26F24558
:1033280026C0976900009389697A83C8550003C845
:10333800450083C7350003C7250083C6150003C6AB
:103348000500AA85176500001305C570EF50002514
:10335800034854008347440003473400834624004D
:103368000346140083450400A6881765000013056A
:10337800E571EF50A022171500201305A581852BB4
:103388001765000013050574EF5040210144971498
:103398000020938424809377F40F63ED2701294557
:1033A800EF50C023F2506254D2544259B2590545E5
:1033B80021618280B387840083C507004E85050498
:1033C800EF50C01DC9BF411122C406C693F71500AE
:1033D8002E84B9C3176500001305C565EF5040304A
:1033E8009305800C171500201305458749211715EB
:1033F800002013052593EF00503E05661306062CA2
:10340800854503C5E182EF10A07A93471400B240C6
:1034180022443E85410182801397050141878147F7
:10342800E35707FEEF10E04F19C1EF106048A1679E
:10343800A18FF1BF411117050000130505F906C654
:10344800EF1010272387A182814717160020130643
:10345800E6801307800CB306F6002380F600850784
:10346800E39BE7FE13062003930590089768000086
:103478009388885B1308200381470D4785461715F5
:1034880000201305258AEF00B045B24003C5E1824C
:1034980013060064854541016F108071397152D45B
:1034A800131A060122DC26DA4AD856D25AD05ECE42
:1034B80006DE4ED6AA8A2E8BB2840144BD4B17E98C
:1034C800FF1F13096960135A0A0133868440B385C4
:1034D8008A00B3098B0063CDCB020A8597D0FF1F02
:1034E800E78020544E868A85410442044A854180FB
:1034F800EF208003E36B44FD2285F2506254D254DE
:103508004259B259225A925A025BF24B2161828087
:103518004E86D9BF011122CC26CA4AC84EC652C40B
:1035280006CEAA892E8A014417E9FF1F1309C95933
:10353800B28433068A00B3858900410442044A856F
:103548004180EF20A002E36694FE2285F2406244A7
:10355800D2444249B249224A056182801C45411140
:1035680022C406C626C24AC00944C9CF1C49114410
:10357800D1CB5C450D44D9C71C411544C1C75C413A
:103588001944C9C31389050123A8A182AE844A85B9
:10359800976500009385857259222A843DE94A85FA
:1035A800512A938701839C4388404D469C4B9765DD
:1035B800000093856553829739CD03C5840131CDC9
:1035C800CC40A1CD93F73500A9EB692903C5940137
:1035D80039C58C44A9C593F73500B1E3EF004070B5
:1035E80003C5A401EF0030011924C52BEF0090306A
:1035F800CC4489C903D5640111C593F7350095E317
:10360800EF10E01B2285B240224492440249410156
:1036180082801D44C5BF0544F5B72144E5B725445C
:10362800D5B72944C5B7411122C406C626C24AC027
:1036380083C741832A8481E78547238AF182054528
:1036480083C54183D12E9387418383C70700228591
:103658008507238AF182EF00904B01E90145B240CA
:1036680022449244024941018280B924938701830C
:103678009C438443BD262A8941269375F50F4A85C4
:1036880082948547E31CF5FC2285992A0545C1BF2C
:10369800011126CA2EC606CE22CCAA84892AB24592
:1036A8009307C00E1306C00E63E4B70013F6F50FB8
:1036B800328532C6212E938701839C438047112E81
:1036C800324622836244F240A685D24405610283D1
:1036D800411106C622C426C2EF00F02115C12A8472
:1036E8001545BD26AA84054589269375F50F2685B7
:1036F800912D19E522852244B2409244410175A8D2
:10370800B240224492444101828003458500828070
:10371800938701839C43194603A3870002839387F9
:1037280001839C43411106C69C4B19468297B240BF
:1037380041018280411122C4138401831C4026C2A6
:1037480006C69C4B19469765000093852557AA84A1
:10375800829709ED1C402244B24003A38700A68546
:10376800924419461385418041010283B2402244A4
:10377800924441018280011122CC06CE2A8432C6AD
:10378800EF00F06332462285F24050C462449765E8
:1037980000009385255305616F009060411122C494
:1037A80097E5FF1F9385C53B2A84154506C67924EE
:1037B80022852244B2404101BDB5011122CC2A84A0
:1037C800154506CE7124AA85280099375C449C4388
:1037D80081C72C0022858297F2406244056182806D
:1037E8005C4503A347006303030002838280239F91
:1037F8000182239E01829307400241112380F184B4
:10380800970700209387875D06C623ACF182970748
:1038180000209387A76B23A0070023A20700239407
:103828000700976500009385654917050020130573
:103838002557F93D976500009385454817050020F1
:1038480013056556F13597650000938525471705DB
:1038580000201305A5556D3DB2409765000093857E
:10386800E545170500201305C554410155B501115B
:1038780022CC2AC62EC406CE26CA953FA245930757
:10388800800C32451304800C63E3B7002E849387C1
:1038980001839C4313878183931404019C47AA8561
:1038A8000843C18026868297F240239E8182624423
:1038B8002685D2440561828003D6E18319CE03D7D9
:1038C800C183130747029707002093872751930660
:1038D800400263C5E600239F01828280B385C7004A
:1038E80083C5050085068507A38FB7FEDDB741119F
:1038F80022C403C70184130440023306E44083D77B
:10390800C18306C626C24AC0B2979306C00E63CCCE
:10391800F6041389018383270900970500209385FE
:10392800A549BA959C47AA848297032709009387DB
:1039380081838C43184783C70184B307F44083D637
:10394800E1833385F40003D6C183B695029703C596
:103958000184098C03D5C1832295B2402244924444
:103968000249410182800145CDBF03C701848146D8
:103978006349A70293074002998F93F7F70F99E3DA
:1039880083C7E18383D6C183B697C207C183AA9749
:103998001306C00E81466346F600098F2380E18432
:1039A80085463685828083D7C18363CFA7004205C9
:1039B80003D7E18341812A973385A740239EA182BB
:1039C800239FE1820545828001458280239EA18252
:1039D800828003D5E18397070020938727403E958F
:1039E800828083C70184170500201305E53C3E95B6
:1039F800828003D5C183828083C701841305400276
:103A08001D8D1375F50F19E103C5E18383D7C183B4
:103A18003E954205418182800605970700209387DD
:103A2800E74AAA972390B7008280060597070020E7
:103A38009387C749AA9703D50700828099476D15D0
:103A48003305F50297070020938787353E95C9B15E
:103A580099476D153305F50297070020938747347A
:103A68003E95828093060011B306D5022E86AE9647
:103A7800AA8517E5FF1F1305250671AA411117E549
:103A8800FF1F1305650522C406C626C2F1222A8433
:103A980015C9B13D938401839C402316A40E294681
:103AA8009C4797050020938565421305E40E82978D
:103AB8009C406146970500209385852E9C471305F9
:103AC800840F82972285B240224492444101828029
:103AD800411122C4AA852A8417E5FF1F1305C5FFD3
:103AE80006C6C52211C9A2852244B24017E5FF1FA8
:103AF800130585FE410149AAB24022444101828052
:103B0800411122C4AA852A8417E5FF1F1305C5FCA5
:103B180006C626C24AC075223DC18354C40EC139A7
:103B28009307C00E268963F497001309C00E938487
:103B380001839C401387818308439C47131609011E
:103B4800A28541828297239E21839C409305E40E9F
:103B580029469C47170500201305453782979C4046
:103B68009305840F2244B2409244024903A387007C
:103B78006146170500201305A52241010283B240C2
:103B880022449244024941018280411122C4AA85FB
:103B98002A8417E5FF1F130525F406C61D2211C543
:103BA8002285B2402244410182800145DDBF035590
:103BB800C50E828015C1970700209387E731984387
:103BC800BA8799E79707002023A8A73018C18280F1
:103BD8006384A7009C43F5B782809707002023AD34
:103BE800072E82800DC1170700201307E72E1C43FC
:103BF80099CB6397A700944314C323A0070082803E
:103C08003E879C43F5B7828011C550C514C90CC5C1
:103C18004CC14DB78280411126C2938401839C40D8
:103C280022C406C6DC472A8410C52311B5002E8697
:103C380054C1814536858297035604008357240072
:103C4800984008443306F6022244B24092440323C3
:103C5800C70081454101028383562500814763C41B
:103C6800D7000145828058413E970306070019EAAC
:103C780085462300D700035705000845B307F70218
:103C88003E9582808507E1BF184583562500814708
:103C980063C4D7007D5582806310B70258413E97B0
:103CA800830607006355D000FD162300D70058414E
:103CB800BA97038507008280035605008507329767
:103CC800C1BF1C4563ECF5000357250003550500EB
:103CD8003305A7023E9533B5A50082800145828051
:103CE800011122CC2A841385418406CE2EC6EF000A
:103CF800F02FB146B306D4023246A2856244F240A0
:103D080017E5FF1F130505DE0561B29629B74111B6
:103D180026C2AA841385418406C622C4EF00702DEA
:103D28002A8419E52285B2402244924441018280C6
:103D3800930544002685EFF09F9E6DF52285EF00E0
:103D4800F034F9BF01114AC82E89976500009385A0
:103D5800E5F652C406CE22CC26CA4EC62A8AEFF011
:103D68001F9C41E983C711848549AA8463EFF9063A
:103D78005285713F2A8419CD8347A500639A270588
:103D88008544F240624426854249D244B249224AD7
:103D98000561828083C711846394370517E5FF1F87
:103DA800130545D4553D2A8419E513854184EF0050
:103DB80070252A8471D593094400D2854E85EFF089
:103DC8003F95938701839C43DC4B99C34E8582972B
:103DD80023052401A28513854184EF00502955B796
:103DE8008D44C5D32305000002900947E392E7FEFE
:103DF80049BF894479B70947AA876373A7008947E8
:103E0800A380F18482801C5903A347006303030045
:103E1800028382801C5903A3870063030300028383
:103E280082801D71D6C2938A018383A70A00A6CA1D
:103E380086CE8447A2CCD2C4DAC02A842EC6CAC889
:103E4800CEC65EDE62DC66DA6AD86ED65936AA85D8
:103E5800214628088294034BF1010D312A8A214515
:103E6800EFF07FB41C589C436385071497E5FF1F48
:103E7800938505CF2808834BE101EFF05F8A631A29
:103E880005121309F4038149814C9304F00F014C86
:103E9800130DF00FFD5D834609006382A61163943C
:103EA800A40D930599FF2808EFF07F874DCD2300D7
:103EB8000900E28493071C0013FCF70FA1472109AE
:103EC800E31BFCFC9D4763EC970E8E04A29483C70A
:103ED800E4038346840763EA770D338677416355A5
:103EE800D60063980B0CF1C7238F74031C58B24596
:103EF800DA869C4330082285829745CD63060A04FA
:103F08005285FD3E5285E93683A70A008447EFF0C3
:103F18005FACAA852146280882948347A407637565
:103F2800FB028347F1018507A30FF10083A70A006D
:103F38008447EFF01FAA21462C0882944C589D46CE
:103F480001462285EF00007CF6406644D644464987
:103F5800B649264A964A064BF25B625CD25C425DE1
:103F6800B25D2561828083460900930700088506B3
:103F780093F6F60F2300D90063FCD700976500007D
:103F88009385C5D3130599FFEFF08FF82300B90186
:103F980083460900E3F0DCF2E289B68C21BFE38BAB
:103FA800ACF1E289930CF00F31B7B387FB40E3CD56
:103FB800D7F2E30B0AF85285EFF09FB171B713857A
:103FC80079000E058E09A2992C082295EFF04FF47E
:103FD800238F7903A38F090211BF411122C42A84B8
:103FE800214506C626C2EFF05F9829C1EFF07F9FF2
:103FF80097E5FF1F9385C5B6AA84EFF06FF1834755
:1040080094072383F400850793F7F70F91CFA30C48
:10401800F406A38304004C5822852244B2409244FB
:104028009D4605464101F9AD8547D5B7B2402244C2
:10403800924441018280011122CC26CA4AC84EC648
:1040480006CE1304850393048507976900009389B6
:10405800E9C67D592285CE85EFF08FEB2104230F29
:1040680004FEA30F24FFE31794FEF2406244D244F7
:104078004249B24905618280011126CA4AC8BA84F8
:10408800328917670000130767A73686BE8642C6BF
:1040980046C406CE22CC2A84252D2285693FA24813
:1040A800A30C040632482328140391E08544230D09
:1040B8009406232A2403854763EB07018947230CC9
:1040C800F406F2406244D244424905618280930773
:1040D800F00F6314F800F957DDB7230C0407D5B7C0
:1040E80001C9411106C6493FB240054541018280D8
:1040F800014582805DA1397126DA06DE22DC4AD8C4
:104108004ED652D456D25AD05ECEEFF09F8CAA84A7
:104118000945EFF05F8911ED01442285F2506254A0
:10412800D2544259B259225A925A025BF24B216137
:10413800828003C5040061292A8479DD034795003C
:1041480083C71400E31AF7FCEFF0BF888347940095
:104158002A8913F577003335A0008D833E95EFF05B
:104168009F845DD9032B4400814B91499D44A14A0A
:1041780003450B005DD113D73B404A97034A1B0008
:1041880093F67B008347070063F3A90C63C94403D4
:1041980003471700A207D98FB397D700A18793F7D2
:1041A800F70F33874A41B3D7E7402304F1000345AB
:1041B8000B002C00EFF09F88D29B090B55BF1356BC
:1041C8003A409DEAB307D70083C507003C00B6977D
:1041D8002380B7008506E3C7C6FE93777A00E1DB44
:1041E8003297034707001408B387FA403696B35747
:1041F800F740230CF6FE65BF3A8581453C003388BD
:10420800B70083470500834815008505A207B3E773
:104218001701B397D700A1872300F8000505E3CF5E
:10422800C5FC93757A00C1D532971C083E96834722
:10423800070003471700B385BA40A207D98FB39781
:10424800D700A18793F7F70FB3D7B7405DB723140B
:10425800010063C6440303471700A207D98FB39729
:10426800D700A18793F7F70F33874A41B3D7E740C1
:104278002304F10083558100EFF00FFA35BF135680
:104288003A409DEAB305D70083C505003C00B697C0
:104298002380B7008506E3C7C6FE93777A00F9DB6B
:1042A8003297034707001408B387FA403696B35786
:1042B800F740230CF6FE7DBF3A8881453C00B38861
:1042C800B70083470800034318008505A207B3E732
:1042D8006700B397D700A1872380F8000508E3CFCC
:1042E800C5FC93757A00D9D532971C083E9683474A
:1042F800070003471700B385BA40A207D98FB397C1
:10430800D700A18793F7F70FB3D7B7405DB73971D7
:1043180022DC06DE26DA4AD84ED652D456D25AD0F5
:104328005ECE62CC66CA2A84034585004D246300AC
:10433800A4020145F2506254D2544259B259225A49
:10434800925A025BF24B624CD24C21618280034646
:10435800940093747600B33490000D82B294138560
:104368002400EFF08FE071D5EFF0AFE783478400CA
:10437800814C914A2300F500834794001D4A214B44
:10438800A300F500EFF0EFE5938701839C439309C1
:1043980025002686DC4781454E858297032C4400FC
:1043A800C14B03450C0019E1054569B713D43C40DE
:1043B80003491C004E9493F47C0063F7AA0EEFF0B7
:1043C8002FE963492A0383470500B3849B40B384DC
:1043D8002441B39497009397040103470400C183D1
:1043E800A183D98F2300F40083471400DD8CA30038
:1043F8009400FDA013573940B1E8B307950083C670
:104408000700B307940085042380D700E3C7E4FEC0
:1044180093767900F1C63A95834705003A943307B5
:10442800DB40B3D7E740B386DB40B397D700139799
:1044380007018346040041832183558F2300E4004C
:1044480003471400D98FA300F40059A8A287814517
:10445800B3089B40B306B50083C6060003C807002F
:104468008505B396160113960601418221823366AB
:1044780006012380C70003C617008507D18E238055
:10448800D700E3C9E5FC93767900B9CA3A95834722
:1044980005003A943307DB40BA94B3D49740B38607
:1044A800DB40B394D40005BFEFF02FD82317A10049
:1044B800634B2A03B3849B40B38424411375F50FDF
:1044C800331595009317050103470400834414002E
:1044D800C183A183D98F458D2300F400A300A400D4
:1044E800CA9C090C7DBD9357394095EC9306E100B1
:1044F800A69683C606003307940085042300D700D8
:10450800E3C6F4FE1377790061DF14083E94B6978A
:1045180083C7E7FFB306EB403387EB40B3D7D740F9
:10452800B397E70029B72287814533089B40930654
:10453800E100AE9683C60600034507008505B396DD
:1045480006011396060141822182498E2300C70085
:10455800034617000507D18E2300D700E3C9F5FCF1
:104568001377790035DF14083E94B69783C7E7FFC1
:10457800B306EB40B694B3D497403387EB40B3947B
:10458800E40091BDAA87014503C7070011E38280B3
:1045980003C7170089073A95C5BF13858184B9A455
:1045A80011CD411122C406C62A844CC02E85D93F9C
:1045B800A304A400B24022444101828082802304E3
:1045C800B50023150500AA8513858184ADAC41117A
:1045D80022C42A841385818406C6212C09E5B240A9
:1045E80022444101828083478500E38A87FE792C33
:1045F800F5B71C4903A347006303030002838280C5
:104608001C55011122CC26CA06CE4AC84EC62A8499
:10461800AE84BDC3EFF0EFBD2A890854EFF02FD95F
:10462800631CA904938701839C4303A90701EFF046
:104638004FBAAA890854EFF04FD50346C402AA8599
:104648004E85029915C98347E4020347D4028507BA
:1046580093F7F70F2307F40263E0E7020854EFF03B
:104668002FC71305440123240402EFF0AFD71C48D9
:104678009C4799C3228582971C4803A30700630BB4
:10468800030022856244F2404249B249A685D244D9
:1046980005610283F2406244D2444249B24905614D
:1046A8008280411122C42A84085506C611CDEFF034
:1046B8002FC50854EFF0CFC12285232404022244D9
:1046C800B24041016FF08F8DB24022444101828097
:1046D800011126CAB284175600001306265F22CCA1
:1046E80006CE2A8436C63AC4EFF0EF88B24622478F
:1046F800A3069402A307D40218C8F2406244D24425
:1047080005618280011122CC2A84085526CA4EC62A
:1047180052C406CE4AC8AE84B289368A05C58347D4
:10472800F402A1EBEFF08FB52A890854630309045A
:10473800EFF00FBD0854EFF0AFB92285EFF00F8608
:104748002324240323070402230644036395090052
:10475800854763EB97021C5422858DE7EFF00F84A1
:104768000545F2406244D2444249B249224A0561B1
:104778008280EFF0EFB51305440123240402EFF023
:104788006FC6C9B7393FE9BF938701839C438580CA
:10479800DC438297337595021C54AA9481CFA28674
:1047A80017060000130626F0A68513054401EFF04E
:1047B800AFC57DB7EFF08FAC08D445D5CDB70111A3
:1047C80022CC2A841385C18406CE2EC60520D14664
:1047D800B306D4023246A2856244F24017D5FF1FC1
:1047E800130505310561B2966FF0EFC2232005006D
:1047F800828008418280084119E182803E851C41FF
:10480800F5FF82801C4189C7984311E723200500E2
:104818003E858280BA8798431443EDFE23A00700A3
:10482800BA87FDB71C41814699E7828098C209A8DA
:10483800BE8665DFBA879843E39CF5FEE5FA18C1A2
:1048480023A007008280411122C426C206C6AA847A
:104858002E84C93F268523200400713F19E580C0B6
:10486800B240224492444101828000C1D5BF411127
:1048780022C426C206C62A84AE846D371C40B240C4
:104888009CC004C0224492444101828011C1084165
:10489800828023AC05FE1C4191E7010001000CC198
:1048A8008280BA8703A787FF6DFF23ACB7FE82809B
:1048B8001DC18346E5FF1307F00F9147639EE6008D
:1048C800411106C697D0FF1FE7800011B24081470B
:1048D8003E854101828095473E85828001E90145F8
:1048E80082800145B2402244410182809565411190
:1048F800938505D022C4C98D2A842105C2054205A5
:10490800C181418106C697D0FF1FE780800071D919
:10491800FD5723200500231285002303F5002105F8
:10492800D1B7138701851C43411122C426C24AC04E
:1049380006C601440149BA8489E7A165FD260DC46C
:1049480001A803C7E7FF6318A7021DC8A1652924AA
:104958009840832784FF6317E40223A8F184FD5756
:10496800232C04FE230FF4FE2285B24022449244F5
:1049780002494101828011E03E8983A787FF6DBF0C
:104988003E84E5BF232CF9FED9BFA1CD411122C435
:1049980006C62A8497F7FF1F83C717592E856375A4
:1049A800F400894763E8870021370D45B240224467
:1049B8004101828083A785FF99E703C7E5FF930735
:1049C800F00F6305F700ED351545CDB7238F85FE4C
:1049D800138501857D3D22852244B240A1654101B0
:1049E800A5AA1545828023A80184828093878186A1
:1049F8009C4399E33E85828003D727006316B7005E
:104A080003C70700E308A7FEDC47E5B7BDCD79710A
:104A180022D406D626D24AD04ECE01444147B3D737
:104A28008540858BB1CF1205314722953305E502C4
:104A38009387818503A907008544B3948400C20441
:104A4800C180BE892A990327090011C70325490097
:104A58002EC60297B24531473304E40283A7090002
:104A68003E941C4489E72320090023220900B25000
:104A78002254A58D02599254F2492E8545618280AF
:104A88000504E31EE4F88144DDB72E8582804111D8
:104A98001397050122C406C626C24AC041872E8440
:104AA800635E0700BD3D11C12135A1673D8C22859C
:104AB800B24022449244024941018280EDD9AA873A
:104AC80001474146B356E440858A9DCA9207BA9782
:104AD800B146B387D7029386818503A9060085442A
:104AE800B394E400C204C1803E99832709000325DA
:104AF800490082972320090023220900258C45BFFD
:104B08000507E311C7FC8144D5BF97F7FF1F9387BB
:104B1800E73D9C53411122C406C61384C18099C73E
:104B280082971C403E9523A6A18029A093870186E1
:104B38009C43FDF70840B74703009387D73F3305E9
:104B4800F502B7A72600938737ECB24022443E957A
:104B580023A6A1804101828097F7FF1F83C7D73C16
:104B6800637FF500138741859317150008433E9529
:104B780083570500DD8D2310B500014582800D4562
:104B8800828097F7FF1F83C7373A6371F50213874F
:104B9800418593171500084393C5F5FF3E95835744
:104BA8000500FD8D2310B500014582800D458280EA
:104BB80097F7FF1F83C757376364F5000145828065
:104BC80001119387018656C283AA070006CE22CC1C
:104BD80026CA4AC84EC652C4638D0A0A17FAFF1F6E
:104BE800130ACA3883244A00B74736FE938707C892
:104BF800AE8997F5FF1F83D5E537BE94B387C50205
:104C08002A8432898146B3B5C50213850732B33782
:104C1800F50013060064BE95EF30C05E63EBA40692
:104C2800829A97F5FF1F83D5E534B3872503AA84B5
:104C3800130600648146B3B5250313850732B337DD
:104C4800F500BE95EF30005CB3079500BE840327DE
:104C58004A0063E4A70063E4E700B384E740CE8535
:104C68002285693301C504C505452DA0936504F067
:104C7800C205C181414597D0FF1FE78080C905E57E
:104C880097F7FF1F938787269C5B81C7A2851145ED
:104C980082970145F2406244D2444249B249224ACD
:104CA800924A05618280938781869C438DE323A481
:104CB800A18685472326050004C523113501230055
:104CC8008500A300F5002322050079BFBA87D847DD
:104CD80075FFC8C7F9BF411122C426C24AC006C61B
:104CE8002A842E89B284E935CA852285013305CD07
:104CF80097F5FF1F83D50528B38795022A841306E5
:104D080000648146B3B5950213850732B337F500C1
:104D1800BE95EF30204F48C00145B240224492442E
:104D28000249410182802145CDBF411122C426C2DA
:104D38004AC006C62A892E84EFF05FCBAA8419C11F
:104D480023110500A2854A852D3D97F7FF1F83C7CC
:104D5800A71D6397270183D7C1855D8C239E818416
:104D6800014591E01945B24022449244024941016B
:104D78008280411106C623A2A1860295B24097F708
:104D8800FF1F23AFA71A014541018280994763E9B4
:104D9800B7008A0597F7FF1F9387871BBE9588C1C1
:104DA800828041117146814517F5FF1F1305451A89
:104DB80006C623A4018623A2018623A0018697C0E4
:104DC800FF1FE78080C913068002814517F5FF1F82
:104DD8001305851597C0FF1FE78020C8EF304013E3
:104DE80097F7FF1F83C7F71113D527008D8B3E95C3
:104DF8008D473305F502854539051375F50F97F786
:104E0800FF1F2384A71299473305F50213050524CC
:104E180097D0FF1FE780E0AF23ACA18459C599471D
:104E280017F6FF1F034666103306F6028145130680
:104E3800062497C0FF1FE78040C2938781859C4363
:104E48009387072423A6F18617F7FF1F0347E70D6B
:104E58000A07BA9723AAF184EFF0FFB80D299387C0
:104E6800C186944397F7FF1F83C7170C1397270032
:104E78003697170600001306A6B910C31387170044
:104E88001377F70F0A07369717060000130666C050
:104E980010C313873700890793F7F70F8A0797F529
:104EA800FF1FA383E508B69790C3B24041018280F3
:104EB80097F7FF1F83C7570717F7FF1F0347E70633
:104EC80063F1E7021387C18618439386170017F624
:104ED800FF1FA30BD60493962700369708C33E8579
:104EE80082809307F00FE5BF1C416388071641775E
:104EF8007D8FB706002089476312D71603574500F0
:104F0800630E0714411122C419462A849305F00F31
:104F1800690506C697C0FF1FE78040BE05478D4755
:104F28006308E5121C4481CB58589947630207125D
:104F3800185C630F07101306C003814517F5FF1FA0
:104F48001305C5FA97C0FF1FE78020B11306C003F9
:104F5800A28517F5FF1F130565F997C0FF1FE780A6
:104F680040AC17F7FF1F035727F997F7FF1F9387E1
:104F7800E7F719E71307001097F6FF1F239EE6F6D9
:104F880017F7FF1F034767F711E7054797F6FF1F56
:104F98002385E6F617F7FF1F035747F611E76D4716
:104FA80097F6FF1F239CE6F417F7FF1F0347F7F454
:104FB80011E7154797F6FF1FA381E6F417F7FF1FC0
:104FC8000347E7F311E7054797F6FF1F2389E6F242
:104FD80017F7FF1F0347B7F219E703C7F70097F65C
:104FE800FF1FA38EE6F017F7FF1F034767F111E7CE
:104FF800354797F6FF1F2385E6F017F7FF1F03478E
:1050080077F019E71307800297F6FF1FA38CE6EEE7
:1050180017F7FF1F0347D7EE19E71307D00297F6D4
:10502800FF1FA38FE6EC0347840119E71307C003AA
:1050380097F6FF1F2388E6EC9C5791C7829797F74E
:10504800FF1F2397A7EEFD572389F188993B8147D6
:10505800B24022443E854101828089473E85828054
:1050680001114EC697F9FF1F938949F083A70900DC
:1050780006CE22CC26CA4AC852C4829713090064B5
:10508800B335250303DA89008146528633052503A3
:10509800EF30401797F7FF1F938707E9804FAA84DF
:1050A80001456306940233858440636E940003A52A
:1050B800490052868146B335A9023305A902EF306B
:1050C8006014018D269597F7FF1F23AB97E6F240F2
:1050D8006244D2444249B249224A0561828097F724
:1050E800FF1F9387A7E0985739CB411122C426C2E6
:1050F80006C6BE84029717F7FF1F035767E32A8483
:1051080015CBBA876373A700AA87C207C183BA867B
:105118006373E400A286C206C182958F5147635B20
:10512800F700DC5491C38297EF00901597F7FF1FA3
:10513800239087E0B24022449244410182808280D9
:1051480097F7FF1F938787DADC57011106CEAA85E8
:1051580081C72AC68297B245D1C19C410545A5CFD2
:10516800DC41B5CB83D78500BDC783D7A500A5C7CC
:1051780083C7C500ADE3414617F5FF1F130505DFDB
:1051880097C0FF1FE780E08997F7FF1F938707DE27
:105198009C4323A0F18697F7FF1F83C7B7D68DE7F7
:1051A8009307800217F5FF1F0355C5DC3305F50289
:1051B80037460F001306062481468145EF308004E8
:1051C80097F7FF1FA380A7D417050000130585E9EB
:1051D800EFF03FBA0145F2400561828097F7FF1F63
:1051E80083C727D21397870161876354070497F70A
:1051F800FF1F23A907D497C7FF1F938747C317F734
:10520800FF1F2325F7D67D5797F7FF1F23A2E7D661
:10521800B7873200938727A197F6FF1F23ACF6D4F0
:1052280097F7FF1F238A07D4B7C7004023A4E726B0
:10523800A1BF13F7170005CFB7872003938707D0BF
:1052480017F7FF1F2328F7D2B707C0A817F7FF1FC4
:105258002320F7D297C7FF1F938787C017F7FF1F31
:105268002326F7D097F7FF1F238807D031BF617730
:1052780097F6FF1F2390E6D081CB9307003217F7EC
:10528800FF1F231AF7CEC9B793072003CDBF01111B
:1052980022CC17F4FF1F130464C5084406CE26CA9F
:1052A8004AC801E90545F2406244D24442490561D1
:1052B80082805C58E5DB185C75D77000854582975D
:1052C8001844B247E300F7FE9305E00417F5FF1F03
:1052D800035585C297C0FF1FE780A06317F7FF1F1C
:1052E8002324A7C661D117F6FF1F0356E6C093050E
:1052F800F00F97B0FF1FE7804076814417F9FF1F32
:10530800130989C297F7FF1F83C727BF032609021E
:1053180063C1F402328597C0FF1FE780E06B014547
:1053280097F7FF1F23A207C297F7FF1F23A007C203
:105338009DBF97F5FF1F83D525BCB3879502084409
:10534800185C898185043E9508C2029765BF0111E2
:1053580026CA93840188984022CC2EC632C406CE31
:105368003C4B2A84354593F7F7F73CCB152D9840ED
:10537800938601873C4B93E707083CCB9C4209473F
:10538800B24598C303471400034524002207420589
:105398002A97034504002A970345340062052A9793
:1053A80098D70347540003456400220742052A970B
:1053B800034544002A970345740062052A97D8D705
:1053C800034794000345A400220742052A97034592
:1053D80084002A970345B40062052A9798DB03479F
:1053E800D4000345E400220742052A970345C40078
:1053F8002A970345F40062052A97D8DB03C71500EE
:1054080003C52500220742052A9703C505002A97E8
:1054180003C5350062052A9798CF03C7550003C511
:105428006500220742052A9703C545002A9703C548
:10543800750062052A97D8CF03C7950003C5A50054
:10544800220742052A9703C585002A9703C5B50098
:1054580062052A9798D303C7D50003C5E50022073C
:1054680042052A9703C5C50083C5F5002A97E205BA
:105478002E97D8D3D843759BD8C3D8431367170042
:10548800D8C398431367170098C322469C42D84351
:10549800058B49EB23A007009C4F01452300F6002C
:1054A8009C429C4FA183A300F6009C429C4FC18361
:1054B8002301F6009C429C4FE183A301F6009C4225
:1054C800D84F2302E600D84F2183A302E600D84F25
:1054D80041832303E600D84F6183A303E600985372
:1054E8002304E60098532183A304E60098534183DC
:1054F8002305E60098536183A305E600D8532306E5
:10550800E600D8532183A306E600D8534183230736
:10551800E600DC53E183A307F600F2406244D2447C
:105528000561828001009DB7011122CC1384018896
:10553800184006CE26CA2EC632C43C4BAA8435452E
:1055480093F7F7F73CCBA929184026853C4B93E7FE
:1055580007083CCB2246B24597C0FF1FE780209240
:10556800F2406244D244014505618280411106C679
:10557800F93BB240014541018280138641871C42B4
:10558800B7068000B71501809843938585E7558F46
:1055980098C39843B7060010558F98C31307001D8A
:1055A800D8DB17F7FF1F0347A79593169701CD8EF2
:1055B800D4D7D457B70500821377F703FD15ED8EBE
:1055C8006607558FD8D73717004093077005230013
:1055D800F704930780FA2300F70497F6FF1F83C6A2
:1055E8002692B54763FBD7028357270293E7070143
:1055F8002311F7021842B7070900938737081CD30D
:1056080037E700E0D147A309F70497C7FF1F93873F
:1056180027B293E717007CD7828083572702C207F7
:10562800C183BD9BC207C183E1B79387C1879C43F0
:1056380099CB944BD04B9842518F98C294439C4736
:105648009842D98F9CC29387418713860188054861
:105658009C4317F7FF1F034707931442631205057E
:10566800884375787D183375050188C3C846F9776E
:10567800FD17E98FDCC60100010014428967AD05FA
:105688009CC6930700F817F6FF1F230BF68E939717
:1056980025009305E709BE958605ECD2C8C6828029
:1056A8007578137325009308F8FF630B030803A8A4
:1056B800070089050D433378180189683368180194
:1056C80023A0070151781307E70B8E057D18631196
:1056D800650488433375050111683365050188C37E
:1056E800C846F977FD17E98FDCC6010001001C42A6
:1056F800930600F89385750D23A4170117F6FF1F6D
:105708002300D6888605BA958605ECD3C8C782805B
:1057180088433375050188C3C846F977FD17E98FB3
:10572800DCC6010001001C42930600F89385A5041D
:1057380023A4170117F6FF1F2304D6848E05E1B7AB
:1057480088430568337515013365050188C3C84664
:10575800F977FD17E98FDCC6010001001C42896654
:10576800A90594C7930600F817F6FF1F230AD680E9
:105778008E051307E70941BF9387C1879C4389CFEB
:10578800D44303A8870098423367070198C2D447D7
:10579800DC4B9842D98F9CC29387418783C6818707
:1057A800137725009C43858A25CB984375757D150D
:1057B800698F0965498F98C3370709001307670878
:1057C80098D3372730084517D8CB37170300130766
:1057D800976198CF0D671307E78D98D73767000152
:1057E80013070731D8D385C637A73F001307F74DEE
:1057F8009E0598CB9385453697E7FF1F23A6B77874
:1058080011C6060697E7FF1F23A0C77882803727AF
:1058180037001307F72DE9BF3707090013073708C3
:1058280098D33727100813071790D8CB37170300DA
:105838001307476298CF0D671307E78B98D7376729
:10584800000113070731D8D385C637A73F001307D0
:10585800E72C98CB75779306F7FF9843054895058D
:10586800758F631C050198C38E059385C50369B7B9
:10587800372737001307072DE9BF8566558F98C36B
:105888009205E5B7411106C617E7FF1F0347876F63
:10589800A1476311F70497E7FF1F83C7E76F858B5D
:1058A80017E6FF1F0346767197E6FF1F83C6E6706B
:1058B800BDC797E7FF1F93872770C8432DC183454E
:1058C80015000905EF00302511C5854717E7FF1FAB
:1058D800A30AF76A17E7FF1F0347C76A9947631CBC
:1058E800F70097E7FF1F9387676FFC5F83C7B700D1
:1058F80095CBEF20A07C17E7FF1F0347A7689D47BC
:105908006312F70297E7FF1F9387476D83A707097D
:1059180083C7770081CBB24041016F202066814563
:1059280001454DB7B24041018280138701881C436D
:10593800B44BE19AB4CB944393E6860094C39C435A
:105948008D83858B89C701000100010001009387C1
:10595800418794439C4293F7F7E793E707089CC273
:10596800938781889043B706CEFFFD161C46F58FB6
:105978001CC61C4313070008B8CB9387C1879C43F8
:1059880099CBD44390479842518F98C2944BDC4BA3
:105998009842D98F9CC297E7FF1FA384075E828035
:1059A800938701889C439C438D8BF1CB411122C482
:1059B80026C206C617E7FF1F0347B75C8D47AA84B0
:1059C80017E4FF1F1304845B631BF70097E7FF1FAF
:1059D8009387875C9C4B01468145454582971947CB
:1059E8006391E40497E7FF1F83C7D75999CB97E7DB
:1059F800FF1F83C727596396970097E7FF1FA38365
:105A080007588347740021476318F70093078010ED
:105A180017E7FF1F2318F7562244B240924441016A
:105A280029B79D47639FF40097E7FF1F83C79755E2
:105A3800E9DB17E7FF1F0347E7548D47E313F7FC3C
:105A48006DBF83467400630BD700034774006387F8
:105A5800E700834774002147E310F7FC97E7FF1F2F
:105A680083C75752D5FB8347740017E7FF1F230BE3
:105A7800F750854717E7FF1FA306F75071BF8280CD
:105A880017E7FF1F0347F74FA5476306F70C97E78C
:105A9800FF1F9387A74E83C777001147630DF70A47
:105AA800938701879843B7C70040938707306314EB
:105AB800F70A4111354506C622C426C24AC0CD356B
:105AC800138941870122EF10604DEFF01FAB832748
