:020000040000FA
:040000006FD00600B7
:101000006F20C020000000000000000090000020C1
:1010100092000020A9BDF9F3940000200000000018
:101020000000000096000020980000200000000052
:10103000000000009A000020000000009C0000203A
:101040000000000064020020A0000020A200002098
:10105000A4000020A6000020A8000020AA00002074
:10106000AC000020AE000020B0000020B200002044
:101070004E010020C6000020B8000020BA00002069
:10108000BC000020BE000020C0000020DC000020CA
:10109000C400002001A001A001A001A001A001A0A6
:1010A00001A001A001A001A001A001A001A001A038
:1010B00001A001A001A001A001A001A001A001A028
:1010C00001A001A001A001A001A0B71700401307D3
:1010D00000032388E702054723A6E186730020303A
:1010E00037470040834747C09146BD8B638FD70089
:1010F00063E7F60009476389E704730020309946E7
:10110000638AD7003147E39AE7FE3746004013056C
:10111000F00F0DA0834757C0CDB7034786C01377A4
:10112000F70F638DA6001388160023800701B6977A
:10113000A381E70083C6C1C89387C1C80347A6C07F
:101140001377F70F79FB55BF978000E0E780006BBE
:101150006DB713878101034727059387810119EF35
:10116000971001E0E7800036B7E700E03707000896
:1011700023A0E7180F10000073002030B73600409E
:1011800003C7464011463D8B6304C702636CE6000B
:101190008947E313F7FE89450145971001E0E78091
:1011A000C02FD9BF1946630DC700B146E316D7FC5F
:1011B0004166B7380040938641327D169D4E89A026
:1011C00083C7564055BFC84B9385419303D705004D
:1011D000050503C88840C8CB1385619303550500F6
:1011E00005071377F71F1378F80F6311A70203D7CA
:1011F00007016305C70005072398E7002384D70389
:1012000003C7A8401377F70F5DFFBDB703D50500EF
:101210003695230005012390E500DDB7411122C476
:1012200026C24AC006C601441309703E512F97F0EA
:1012300000E0E780C071692797F000E0E7808075E3
:10124000412797F000E0E780E07709E883A741991C
:10125000E37EF9FC97B000E0E780C08497B000E03F
:10126000E78060CA0544D9B7372700408347670045
:10127000858BB1C305462303C7001387819A1C439E
:1012800085071CC3138741991443A90614C313F798
:10129000170019E3238DC198294733F7E70201E7C7
:1012A0008546238CD19813074006B3F7E70281E700
:1012B0000547A38CE1987300203073270080218BB1
:1012C0009387019F01CB7327008098C398435D9B50
:1012D000731007800F100000371700409306700549
:1012E0002300D704930680FA2300D7040F100000D0
:1012F0008346B70493F6F60DA305D704230007042D
:10130000732600809443A18AD18E7390068023A017
:1013100007000F100000937605026380061803474C
:10132000A700118B3DE373270080218B01CB73272E
:10133000008098C398435D9B731007800F100000D6
:1013400037170040930670052300D704930680FAF0
:101350002300D7040F1000008346A70093E6460041
:101360002305D70023000704F32600809843218B30
:10137000558F7310078023A007000F10000013077C
:10138000004B010001007D176DFF73270080218B4A
:1013900001CB7327008098C398435D9B731007802F
:1013A0000F10000037170040930670052300D70484
:1013B000930680FA2300D7040F1000007D892314C0
:1013C000A700010001000100010023000704F3262B
:1013D00000809843218B558F7310078023A007004E
:1013E0000F10000073270080218B01CB7327008032
:1013F00098C398435D9B731007800F100000371748
:101400000040930670052300D704930680FA23005A
:10141000D7040F1000000F100000B726004013067D
:101420001005A383C68023000704F3260080984399
:10143000218B558F7310078023A007000F10000029
:1014400073270080218B01CB7327008098C39843BA
:101450005D9B731007800F10000037170040930644
:1014600070052300D704930680FA2300D7040F10D9
:1014700000008346B70493E60608A305D7042300BB
:101480000704F32600809843218B558F7310078043
:1014900023A007000F100000828093760504638765
:1014A00006140347A700418B3DE373270080218B7F
:1014B00001CB7327008098C398435D9B731007800E
:1014C0000F10000037170040930670052300D70463
:1014D000930680FA2300D7040F1000008346A7006C
:1014E00093E606012305D70023000704F3260080B6
:1014F0009843218B558F7310078023A007000F108E
:1015000000001307007D010001007D176DFF7327A8
:101510000080218B01CB7327008098C398435D9B8B
:10152000731007800F1000003717004093067005F6
:101530002300D704930680FA2300D7040F1000007D
:101540009376F50193E606042314D7000100010009
:101550000100010023000704F32600809843218B3B
:10156000558F7310078023A007000F10000013078A
:101570006004631FE50273270080218B01CB732772
:10158000008098C398435D9B731007800F10000084
:1015900037170040930670052300D704930680FA9E
:1015A0002300D7040F100000B7260040094695BD60
:1015B00073270080218B01CB7327008098C3984349
:1015C0005D9B731007800F100000371700409306D3
:1015D00070052300D704930680FA2300D7040F1068
:1015E0000000B72600401306200525BD73270080A4
:1015F000218B01CB7327008098C398435D9B7310A8
:1016000007800F1000003717004093067005230075
:10161000D704930680FA2300D7040F1000008356E6
:10162000870093E6060C2314D700F5BB41118146D1
:1016300001468145114506C6EF10900673270080CC
:10164000218B9387019F01CB7327008098C3984318
:101650005D9B731007800F10000037170040930642
:1016600070052300D704930680FA2300D7040F10D7
:1016700000008346670493E616002303D704230083
:101680000704F32600809843218B558F7310078041
:1016900023A007000F100000B24041018280814664
:1016A000014681451145EF10A07F73270080218BF3
:1016B0009387019F01CB7327008098C398435D9B5C
:1016C000731007800F100000371700409306700555
:1016D0002300D704930680FA2300D7040F100000DC
:1016E000FD562316D70223000704F32600809843F3
:1016F000218B558F7310078023A007000F10000067
:1017000073270080218B01CB7327008098C39843F7
:101710005D9B731007800F10000037170040930681
:1017200070052300D704930680FA2300D7040F1016
:1017300000008346670493E616002303D7042300C2
:101740000704F32600809843218B558F7310078080
:1017500023A007000F10000001A0BD473305F502CC
:1017600001007D1575FD8280411122C426C206C686
:10177000AA84014463179400B24022449244410178
:10178000828005041305803E4204C13F4180DDB7DD
:1017900019CD91CD09CE81473387F50083460700E7
:1017A0003307F50085072300D700E317F6FE828094
:1017B00019C991C909CA910583A7C5FF11057D16ED
:1017C000232EF5FEC5BF828001C919C62A960505DC
:1017D000A30FB5FEE31DA6FE828081473307F50007
:1017E0000307070019E33E8582808507C5BF011105
:1017F0002E8626CAAA84131506019305F00441819A
:1018000022CC06CE32C6EF00F0512A8401C5324602
:10181000A685BD3F2285F2406244D24405618280A4
:10182000854715C18DC105C28147B306F5003387D1
:10183000F50083C60600034707006398E6008507A6
:10184000E315F6FE85473E8582808147EDBF93070D
:10185000F6FFBE952A966313C5008280FD1583C7E7
:1018600015000505A30FF5FEFDB7AA87014581CF39
:1018700009CE3E96850703C7F7FF6317B700E39BC2
:10188000C7FE0545828082800145828079719387F9
:10189000C1A022D4804306D626D24AD04ECE52CC06
:1018A00056CA5AC85EC65DCCB7C4C901014B9389FC
:1018B00041A09384F437175A0000130A2A6A975AF2
:1018C0000000938A6A6D1759000013092971835724
:1018D000240085E35C44631B0B0023A6F1A0832B4B
:1018E000C4002285EF0070505E84B9A82326FB0057
:1018F000FDB783A7090082971C443307F540637640
:10190000F500032749001D8F2A9763E0E4089757E5
:10191000000023AB0768835524000345040097109B
:1019200001E0E780A0FE5C405844A1CB0C440326B4
:101930004900AE97BE8663E4B70063E4C700B38690
:10194000C74014C4228B3A8459F0975700009387FC
:10195000A7649C4B09476370F706F91717570000F7
:101960002324F764B250225492540259F249624A35
:10197000D24A424BB24B4561828063150B0023A6CD
:10198000E1A0B1BF2326EB0099BF03274A0209CF8C
:1019900063EFA7003385A74083A70A016376F500AC
:1019A0009757000023A2A760228B404471BF0327F2
:1019B0004900BA97C5B79757000023A7075E5DB7E0
:1019C000411122C4175400001304845F1C4006C652
:1019D00026C24AC091C782979757000023A2075E8C
:1019E0009757000083C79777858B9754000093849F
:1019F000A47695C397570000A382077683C7740027
:101A00001547637AF700052B83C77400F5178A071B
:101A1000A2979C4382971C4491C382971389819F0C
:101A20000327090017560000034616579757000072
:101A300083C7875693961700BA9683D60600C5CEFD
:101A40009757000083C7475563E1C70C97570000BD
:101A5000238407541C40639507129757000083C7DF
:101A6000377091CF83C7740093F7F70F89EB9757BF
:101A70000000A387076E971002E0E780800A938733
:101A800041A09C43638E070E97570000938707552C
:101A9000DC43175700002329F750CD3B9757000030
:101AA0009387C74BDC53E9CF175700001307C74E86
:101AB000184B9757000083C7B74B6363F70C83C776
:101AC00074001547636EF70A9757000083C7476D88
:101AD000918BDDE7032609009756000083C6D64B9D
:101AE00063C6D70A2244B240924402494101171307
:101AF00003E06700E397850793F7F70F9756000019
:101B0000238CF648E3E4C7F225BF86073E9783554A
:101B1000070023100700239001A0938701A19C4395
:101B2000175500000345454713172500BA979C43F6
:101B3000829783D701A0175700000347E74593C753
:101B4000F7FF7D8D93171700032709003E978357F2
:101B500007005D8D2310A7009757000083C7C74378
:101B600091C78507175700002308F7421757000051
:101B7000034787429757000083C71742E378F7EC83
:101B8000B2402244924402494101828013971700D7
:101B90003297035707006DF7850799B7AD6737C7C9
:101BA0000040BD072326F7200F10000097570000C4
:101BB0009387873EC84F83278726BD66BD0693C798
:101BC000F7FF99836A052326D7205D8D8280411116
:101BD000B7170040985F3AC6945F3247E39CE6FE31
:101BE0003245410182801305F00F82800111975721
:101BF00000009387676222CC03A4070C26CA06CE96
:101C00002AC42EC6854419E40145F2406244D244F8
:101C1000056182808347910003471400858B63042C
:101C2000F7000044CDB719469305A1001305240021
:101C3000C53EE31895FE0545C9BF1387C1AC1C43DB
:101C40009306001094C301000100010001001C4331
:101C500023A007008346150003482500A20642087A
:101C6000C29603480500C296034835006208C29632
:101C700094D78346550003486500A2064208C296E1
:101C800003484500C296034875006208C296D4D73F
:101C9000834695000348A500A2064208C296034861
:101CA0008500C2960348B5006208C29694DB83465D
:101CB000D5000348E500A2064208C2960348C500C5
:101CC0000345F500C2966205AA96D4DB83C61500CB
:101CD00003C52500A2064205AA9603C50500AA96DB
:101CE00003C535006205AA9694CF83C6550003C587
:101CF0006500A2064205AA9603C54500AA9603C53B
:101D000075006205AA96D4CF83C6950003C5A500C9
:101D1000A2064205AA9603C58500AA9603C5B5008A
:101D20006205AA9694D383C6D50003C5E500A20632
:101D30004205AA9603C5C50083C5F500AA96E2052B
:101D4000AE96D4D3D443F59AD4C3D44393E61600C5
:101D5000D4C3944393E6160094C3BA879443D842FD
:101D6000058B59E3984E01452300E6009843184F30
:101D70002183A300E6009843184F41832301E60026
:101D80009843184F6183A301E6009C43D84F230278
:101D9000E600D84F2183A302E600D84F41832303F6
:101DA000E600D84F6183A303E60098532304E600BE
:101DB00098532183A304E600985341832305E6004A
:101DC00098536183A305E600D8532306E600D85351
:101DD0002183A306E600D85341832307E600DC53A2
:101DE000E183A307F600828001008DBF138701AD58
:101DF0001443411122C49C5E4AC006C6998326C280
:101E0000858B3A841389C1ACD1C79C5E975400007E
:101E10009384843493F7F7F99CDE17570000034747
:101E2000073493070008631BF700832709009C43CE
:101E300093F70704175700002303F73283C7040002
:101E400093F707048DC3938741A09C4382979757CC
:101E5000000023ABA73083C7040093F7F70B175795
:101E60000000230BF72E83C7440093F707049DE37C
:101E7000854717570000A303F72E9387C1AD9C43F6
:101E8000096798C7130700FC975600002388E62CC3
:101E9000D844F8D31C40985F1183058B09CB985F19
:101EA0003D9B98DF0547975600002389E62A985FF7
:101EB0001D83058B11CB985F1377F7F798DF854764
:101EC00017570000230CF72883270900D843058300
:101ED000058B19C7D843759BD8C3D843799BD8C302
:101EE000B24022449244024941018280397106DEA7
:101EF00016DC1ADA1ED82AD62ED432D236D03ACEF2
:101F00003ECC42CA46C872C676C47AC27EC0F93D8B
:101F1000F250E2525253C2533255A25512568256D3
:101F20007247E2475248C248324EA24E124F824F89
:101F30002161730020309387C1AD9443975700000F
:101F40009387872103C70700058B11CB97570000A4
:101F50002386072097570000A3820720828003C7AB
:101F60001700058B65F7F85271FF83C75700DDB77F
:101F7000138801AD032708001C5F9583858BD1E78B
:101F800009C61C5BBD832300F60085CA83270800B1
:101F9000985B4607935767016356070093E707C0AE
:101FA000C207C18303970600C207C18709C7BA9752
:101FB0000947B3C7E7022390F60085CD8347150094
:101FC0008DCB9756000083C6861993F606041387B7
:101FD000970089478DCA3A9503470500854699477A
:101FE0001376F7066311D60262076187B947634C1F
:101FF0000700832708009C5FED838D8B1757000037
:10200000A301F71681473E8582808547EDBF4111C8
:1020100022C406C61384C1AD18402DE9AE8774539F
:10202000FDFE3E85B2859757000023880712971062
:1020300002E0E7804084938701AD9C43B7068000AF
:102040009843558F98C3D857719BD8D7975700009E
:10205000A386071097570000A38007101C4009476C
:1020600098C31440175700001307070F8347270032
:10207000858B89EB83473700858BD9C39757000041
:10208000238E070CB2402244410182808D47631E9B
:10209000F500938701AD9C43B70680009843558FA8
:1020A00098C3D857719BD8D76DBF8547E31BF5FA06
:1020B0005447F977FD17F58F5CC70F1000001C40DF
:1020C000096798C7130700F8175600002308E608A9
:1020D000138701AD1043184231830D8B11E71307AD
:1020E0006019F8D3D4C7B5BF1842094631830D8BA8
:1020F0006315C7001307E043EDB71307E01BD5B71F
:10210000FC52ADF741B75D71A2C4A6C22A84130682
:1021100080022800AE849305100886C6CAC04EDE31
:1021200052DCEFF06FEA3545971002E0E78000B12E
:10213000138301AD832703009376F41F138E41AE02
:1021400023A40700984B938EC1AD370FFCFF136794
:10215000F70398CBF84F130510F8B7020400137774
:1021600007E0558FF8CF9843F576FD16758F98C325
:102170009843B7063300930380251377F7E798C396
:10218000984311497D1F1377F7E71367071098C32A
:1021900003270E008549930F80021C47D58F1CC76B
:1021A00083A70E001307900D3400B8CB0147935559
:1021B0003700A69583C7050013767700B3D7C740CD
:1021C000858BE1C38327030083280E00239C07042B
:1021D0002390070603A8C8021378D8FF23A6080394
:1021E00083A807001378F70793F808F833E8080185
:1021F00023A0070103A847023368580023A207035E
:1022000083A80E00014823A2780603DA07066307B5
:10221000480303A80703038A06001358F80062085E
:102220001358884163580A0103A807031358F8009C
:102230002380060103D807061378F80F03AA48067F
:1022400063060A0003DA8705E37F49FB03A8470218
:102250003378E80123A2070383870600635CF40058
:1022600003C805003396C9001346F6FF337606010E
:102270002380C5003E8663D3A7002A8613158601F6
:10228000618505071377F70F8506E312F7F3B6406C
:10229000264496440649F259625A616182809386C7
:1022A000C1AD9C42D84713161701635506029847E3
:1022B00013161701635006027D57B8D71757000051
:1022C000130787CD584F0507175600002324E6CE85
:1022D000116798C798470D83058B1DCB17570000D2
:1022E0000347A7E713671700175600002307E6E622
:1022F000130700F8175600002302E6E6214798C7A7
:10230000138701AD10435856719B1367170058D6B9
:102310009847058B0DC7175700000347F7E313676E
:10232000170017560000A309E6E2054798C7138770
:1023300001AD10435856719B1367170058D6984744
:102340000983058B09E798470583058B21CF9847BB
:1023500017560000130646E0138501AD0983058B6F
:10236000630307101841184331830D8B75EBAC4B99
:10237000184E93F5050203471700CDCD79EF1307EB
:102380007006D8CF034706001367170017560000E2
:102390002304E6DC114798C718415C57F19B93E78B
:1023A00017005CD79C4298479316370163D6060204
:1023B0009756000083C6C6EDC18A17570000130761
:1023C000A7E5C5CE034787071367070297560000A6
:1023D0002380E6EC056798C798479316270163D1D9
:1023E000060217570000034767D7620761876357E4
:1023F00007000547975600002382E6D6096798C76D
:1024000098479316070163D606029756000083C6C5
:1024100036E8858A17570000130707E0ADCE03475B
:1024200097071367270097560000A383E6E6216706
:1024300098C7828029D785456315B7001307B00672
:1024400089B789456315B7001307F0061DBF8D4591
:102450006315B700130730072DB71307500715B7DB
:102460001307600739BF0347360013671700175675
:102470000000A304E6CE094739BF83468707094613
:10248000BD8A6388C600034787078D463D8BE313EB
:10249000D7F4114725BF83469707918AC9DA0347C6
:1024A00097071367870041B7397106DE16DC1ADA21
:1024B0001ED82AD62ED432D236D03ACE3ECC42CAFC
:1024C00046C872C676C47AC27EC0D13BF250E25290
:1024D0005253C2533255A255125682567247E247A2
:1024E0005248C248324EA24E124F824F21617300B1
:1024F00020309387C1AD98438567938707777CD356
:10250000938741AE9C4383A60709139656006358F0
:10251000060083A6070913966600634406007453F9
:10252000FDF2828061C1AA870145DDCD8D07C2071A
:10253000C183F19BC207C18313074003636BF7029A
:10254000138701B70843138781B614436396A60225
:1025500017570000130787A0185B014551C74111A9
:10256000C20706C60545DD8D0297B240014541010F
:1025700082801387C1B6F9B70357650035E3035767
:102580004500636FF704B306F7402146637CD6022B
:1025900003280500938687001D8FAA96611717569A
:1025A00000000356C69F2392E60023A00601239352
:1025B000060014C12312F500130786FF975600008A
:1025C000239FE69C2313B5009755000083D5259DD6
:1025D000B387F540175700002313F79C210582802D
:1025E0000841ADB701458280828009CD938701B74C
:1025F00003A30700938781B683A8070081469A87C3
:1026000063E31701828003A807006369F50A636723
:10261000A80A13878700E367E5FE03D667002167F2
:1026200005076317E60003C741AA05072382E1AA4D
:10263000975500009385459603D6470003D765005C
:102640002393070032974207418317550000231850
:10265000E594638867021385C1B608416303F502F8
:1026600003D5660019ED83D7460023A00601210794
:102670003E9621062392C600975700002391E792C9
:10268000B6879843E30017F99386C1B69442E30BEB
:10269000D7F683566700BDF683D64700035647003A
:1026A0001843A106B2962392D70098C383D765003A
:1026B000A107175700002314F78E8280BE86C287B9
:1026C00081B70327851163020712411122C406C690
:1026D0008347C5008345E5042A8493F7C70F230683
:1026E000F500834697000356C70013958601618560
:1026F00063F2C508635B05060345870093F6F6079A
:10270000A304D700054693E627006314C50093E6AB
:1027100017002306D4005C4389075CC3A30AB400F6
:10272000032504112E864C430905EFF06F8683279D
:10273000841103465401D44303D7C700B296118FC6
:10274000D4C32396E7008947A30DF400034764032D
:102750009757000083C7A7816378F7048347C400B5
:1027600093E707012306F40081A093E717002306EF
:10277000F4006DB79376F60F635D0502034587009D
:10278000854513E627006314B50013E617002306FA
:10279000C400A30AD400A30407008547A30DF400D6
:1027A000832784119C43DDF3B2402244014541015B
:1027B000828093E717002306F400A30AD400A30441
:1027C0000700032504114C430905EFE07FFC832734
:1027D000841103465401D44303D7C700B296118F26
:1027E000D4C32396E7008D4755BF05458280938764
:1027F00001B89C43411122C406C6858B2A84C5EFCB
:102800004165130525F597C002E0E780208345C5A3
:102810008347A5002315F50083270412BDE7232075
:10282000A4122322A41285472311F40423200500B7
:102830008347640154412316F5000347D400230461
:10284000E5000547A304E500175700001307C790EC
:10285000184F1385170215811C437D151375F50F4D
:102860009CC25C43DCC21C479CC65C47DCC61C4B5C
:102870009CCA5C4BDCCA1C4F9CCE5C4FDCCE19CD95
:102880009386060213070702C1BF8327441288C339
:10289000835724042322A412850779B79757000091
:1028A00083D70798850717570000231BF796B24078
:1028B0002244410182808347C40023090400054566
:1028C00093C747002306F400DDB78347850193F7DC
:1028D000E70FC5EF83479501CDEB034625018346FE
:1028E000C50009CA834565031747000003473768D9
:1028F00063E7E50013F7060151CB014709C6C18A1A
:102900000357651C81C68356A51C369741C3130720
:10291000C712174500000355E56CB335A7023746CB
:102920000F00411113060624814622C426C206C6A2
:102930007D543305A70297E002E0E780407B97478C
:10294000000083C73763B384A700975700009387BD
:10295000A78C03A787098327070963F387003E84B1
:10296000184375FB938741A09C438297814763641A
:10297000A400B307A440B2402244B3B7970093C762
:10298000170092443E854101828081473E858280C6
:102990009387C1AD98437C53FDFF8280797126D225
:1029A00006D622D44AD04ECE52CC56CA5AC85EC69B
:1029B0008347550303447513AA843E941374F40F9C
:1029C0009307400263F687001304B4FD1374F40FF9
:1029D00003AA841383AAC413A38B8412228652856C
:1029E000D68597E002E0E780006B058915E503CB0B
:1029F000D41201498149337B6403930B50024A8608
:102A00005285D68597E002E0E780E068058915C524
:102A1000639169031374F90F238B8412B25022540B
:102A200092540259F249624AD24A424BB24B456132
:102A300082808509E20993D989410509E31179FD6D
:102A4000E1BF8327850903560504797193D60701F1
:102A5000BD8EC206C182358E1357764093575640BD
:102A6000898B058B5D8F93573640918B5D8F935784
:102A70001640A18B5D8F93171600C18B5D8F931746
:102A8000360093F707025D8F931756009355860023
:102A900093F707041E065D8F1376F60F518F93D7B9
:102AA000554013D63540118A898BD18F13D6754086
:102AB000D18F13D61540218AD18F13961500418AE4
:102AC000D18F1396350013760602D18F13965500D9
:102AD000137606049E05D18F93F5F50FCD8FA207CF
:102AE00045465D8F3307C70222D42A8426D252CCB2
:102AF00056CA032A8413832AC4135AC806D63697A3
:102B00004207418393577740135557400989858B76
:102B1000C98F135537401189C98F13551740218923
:102B2000C98F131517004189C98F13153700137505
:102B30000502C98F131557009355870013750504B7
:102B40001E07C98F1377F70FD98F13D5354013D7C9
:102B500055401189098B498F13D57540498F13D57D
:102B600015402189498F139515004189498F139587
:102B7000350013750502498F13955500137505042B
:102B80009E05498F93F5F50F4D8F2207D98FB38797
:102B9000C7024AD04ECE5EC662C4B697C207C18392
:102BA00013D7774013D557400989058B498F13D523
:102BB00037401189498F13D517402189498F1395C3
:102BC00017004189498F1395370013750502498F06
:102BD0001395570093D58700137505049E07498FF9
:102BE00093F7F70FD98F13D5354013D75540118977
:102BF000098B498F13D57540498F13D5154021890D
:102C0000498F139515004189498F13953500137528
:102C10000502498F13955500137505049E05498FCC
:102C200093F5F50F4D8F2207D98FB387C70213068F
:102C300050025285D685B697BD8E93940601C18009
:102C400033F6C402137BF60F97E002E0E780A0445E
:102C500005890DED8347D41201498149B384970258
:102C6000130C5002C1804A865285D68597E002E057
:102C7000E78060420589937BF90F11C563863403B1
:102C8000850993F9F90F0509E31F89FD230B6413E7
:102C9000B250225492540259F249624AD24A424BEB
:102CA000B24B224C456182805E8BCDB7797122D4C4
:102CB00006D683C735002E8423160100A307F10032
:102CC00083C74500100802C02307F10083C75500E1
:102CD0008A8502C2A306F10002C402C802CA02CC5D
:102CE00002CEEFE09FF50347F10183470400014561
:102CF0006310F7020347E10183471400014563199C
:102D0000F7000345D101834724001D8D13351500BD
:102D1000B250225445618280011197470000938789
:102D2000A74F22CC03A4870C26CA4AC84EC606CE9B
:102D3000AA8413092500854915C083C714000347D9
:102D40003400858B6304F700405CFDB7194693059A
:102D500044004A85EFE0DFACE31835FF2285F240FE
:102D60006244D2444249B249056182804111974789
:102D700000009387674A22C403A4870C26C24AC076
:102D800006C693042500054901E82285B240224485
:102D90009244024941018280A6851305A402393775
:102DA000E30525FF405CCDB74111974700009387AD
:102DB000A74622C403A4870C26C24AC006C69304B1
:102DC0002500054901E82285B24022449244024987
:102DD00041018280A6851305A401C93DE30525FFB5
:102DE000405CCDB72303048015472303E480010032
:102DF0002302A480828083076480E3CE07FE23033E
:102E00000480828083076480E3CE07FE034544800C
:102E1000828083076480E3CE07FE2302A480828041
:102E2000411126C44AC24EC006C61377F50BAD4702
:102E3000AA892E8995446306F70019456537653FD1
:102E40008D444E854537FD59FD1463983401B240D9
:102E5000A244124982494101828013550901137528
:102E6000F50F453F2209CDB7011126CC06CEB70498
:102E7000080051371545BD37713769372AC6A53F58
:102E800032459377150089EB136515001375F50F1F
:102E9000F240E24405618280FD14E9FC0145CDBFAA
:102EA000397126DC4ADA4ED852D656D45AD25ED080
:102EB00006DE62CE66CCB7E700E07D5783AA070046
:102EC00022C603AA470023A0E71823A2E718B717D2
:102ED0000040130770052380E704130780FA23805E
:102EE000E70483C74704930B75FFB684E20793FB9F
:102EF000FB0F8546AA892E8B328937240040E18753
:102F0000015763FA76016308D5008946130700026A
:102F10006313D5000157D98F93F7F70FB71C004003
:102F20002382FC0411472303E4801305F00F5D3D69
:102F3000094CD135636D7C11B7050700DA953787E9
:102F40000700795563F2E504B3879500636EF702D5
:102F5000370B0800A94733EB65016399F90689E44B
:102F60008144513D26850DA0DA850945553D050969
:102F70000345F9FFFD14050B693D81C49377FB0FF1
:102F8000FDF7DD3569FD7D55B71700401307700566
:102F90002380E704130780FA2380E70403C747046C
:102FA000418B2382E704F250B7E700E023A05711DA
:102FB00023A24711E25432445259C259325AA25AFA
:102FC000125B825B724CE24C21618280A547639563
:102FD000F90685691309F00FB3069900B3742B0144
:102FE000B6941349F9FFB3749900856B337969017D
:102FF000416B9387F9FFB3F7270199E363FC340131
:1030000093D94900C147E3E637FF99BF0569C16914
:103010007D19D9B71305800D638869011305000276
:103020006384790113051008CA85DD3B353D21DD38
:103030004E99B3843441D9B7DA852D45D533CA9436
:10304000E30099F205097D3BA30FA9FED5BF938745
:10305000F9FF93F7F70F6361FC0C83C71C04130798
:103060003008631FF70437070800636BEB04B307EE
:103070009B00B706100063F5D704334BEB0089477C
:103080006393F9068980D549E38C04ECDA85094518
:10309000413B11090327C9FF91472320E48003071F
:1030A0006480E34E07FE23033481FD17EDFBFD141E
:1030B000110B81C49377FB0FE9FF7D3371F5E1B507
:1030C000B717004003C75704B70708001377070274
:1030D00019E3B78707007955E378FBEA33079B00CC
:1030E000E3FFE7F855B58547E382F9F2DA852D4528
:1030F000053B9389F4FFE38504E6293393F7390010
:1031000091EB832604800327090093074900E39A83
:10311000E6E43E89CE84F1BFB5476396F900130516
:10312000900BC93135BDB1471305B00AE38BF9FEE9
:1031300099476391F904B7050800B365BB002D45B5
:10314000C53181448D4BA14975396396740183273C
:1031500004802320F9008504E39834FF832704804A
:1031600013172B01635507002312F900D5BB232247
:10317000F900FDB39D476399F90281451305B00439
:103180004531BD442320090023220900FD599D3902
:1031900093F77400CA9703C70700FD14398D238085
:1031A000A700E39634FF6DBBA1476392F9046D3924
:1031B0008144630D0B008D479304C0036308FB003B
:1031C0009304000563048B01930440041375C50741
:1031D000E30895D819453931393905452131268516
:1031E0000D3909453D314931E31C05D669BB91478D
:1031F0006399F90013056006F536F53E130590094D
:103200000DB7E38F09D4F154A9BB0000970100204A
:103210009381C1C3175100201301C1DE17E5FFFFE1
:10322000130585DE97D5FF1F9385C5DD17F6FF1FB4
:103230001306C6FD63FAC5008322050023A05500CE
:1032400011059105E3EAC5FE17E502001305452EB9
:1032500097F5FF1F938585FB1386818663FAC5006A
:103260008322050023A0550011059105E3EAC5FE60
:1032700013858186973500209385450C6377B500CB
:10328000232005001105E36DB5FEFD42739002BCDD
:103290008D4273904280B72200009382828873909F
:1032A000023097D2FF1F9382E2D593E232007390EF
:1032B000523037170040930770052300F704930737
:1032C00080FA2300F7040F1000003C47B70600FA0D
:1032D000E116F58FB70600069506D58F3CC797B265
:1032E00000009382825273901234730020303D4369
:1032F0002A876373C3029377F700BDEFADE593763A
:1033000006FF3D8ABA960CC34CC30CC74CC7410795
:10331000E36BD7FE11E28280B306C3408A069702B0
:10332000000096966780A6002307B700A306B700A3
:103330002306B700A305B7002305B700A304B70011
:103340002304B700A303B7002303B700A302B70009
:103350002302B700A301B7002301B700A300B70001
:103360002300B700828093F5F50F93968500D58DE5
:1033700093960501D58D61B79396270097020000BB
:1033800096968682E78086FA9680C1171D8F3E96B4
:10339000E374C3F8A5B73367B500FD530D8B79E728
:1033A000B7877F7F9387F7F710419441B372F60098
:1033B0003363F600BE92B3E262006397720C631847
:1033C000D6065041D441B372F6003363F600BE9284
:1033D000B3E262006398720A631BD60410459445F9
:1033E000B372F6003363F600BE92B3E262006391FB
:1033F000720A631ED6025045D445B372F600336399
:10340000F600BE92B3E26200639A72086311D602BC
:1034100010499449B372F6003363F600BE92B3E2EA
:103420006200639372085105D105E30FD6F61317B6
:10343000060193970601631CF7001357060193D703
:1034400006013305F7409375F50F91E982804183BA
:10345000C1833305F7409375F50F91E182801377AF
:10346000F70F93F7F70F3305F74082800346050007
:1034700083C60500050585056313D60065FA330587
:10348000D640828011059105E312D6FE0145828067
:103490002105A105E31CD6FC014582803105B1055B
:1034A000E316D6FC014582804105C105E310D6FC38
:1034B00001458280011122CC06CE3714004026CA75
:1034C0004AC84EC652C483447405034AB4058349AE
:1034D000840503499405EFD0901D8347A40593F418
:1034E000F40F137AFA0F93E71700230DF40493F9FE
:1034F000F90F1379F90FB717004003C7A705058B1C
:103500006DFF03D5C705A38D4705238C3705A38C15
:103510002705A38B9704F2406244D2444249B24942
:10352000224A0561828041119397050122C406C693
:10353000C1872E8463DD0700EFE0200B19C1EFE0A7
:10354000A0032165218DB24022444101828093F77E
:10355000150013C51500E5FB9397250163D20708F5
:10356000EFE0F11AB717004083C7E70293F7C70FE0
:1035700093E71700F3260080A18A91CAF326008002
:1035800023A8D19E83A6019FDD9A739006800F1019
:103590000000B7160040130670052380C60413060A
:1035A00080FA2380C6040F1000002387F6022380D0
:1035B0000604F326008083A7019FA18BD58F73900B
:1035C000078023A8019E0F10000003C5818637F6EF
:1035D0000200130606E08965EFE0004A09659DB721
:1035E000939715010145E3D007F603C581861306BD
:1035F00000649165EFE040481165A9B7B705030085
:10360000371503001D71494693854566130505F27C
:1036100086CE97D0FF1FE780A02011E101A0B7F66A
:1036200000E0795798CAFD57DCCA0567B7E700E0A4
:1036300023A0E7101306F00290C223A0E7180F1092
:1036400000001306C0038145480897D0FF1FE7809C
:10365000A017B7470020938787393ECA89679387A9
:103660000780231CF1009307B00F2312F102954746
:10367000A301F10285472303F102A305F102B71765
:103680000100938747303EDAB7F50700B7370000EF
:1036900035479387474B81467000E1051945230460
:1036A000E1023EDE97E0FF1FE780807F58088147F8
:1036B000994670003E960346060085070507A30C51
:1036C000C700E398D7FED24791C7035781018567AA
:1036D0006373F70001A04808EFE0F00211C101A0F8
:1036E000F6402561828041113735000022C4130560
:1036F000655206C613848186EFE0607D2300A40036
:103700001928034504002244B2401306003289659B
:1037100041016FE06036411106C6F3270080A18B9E
:1037200091CBF327008023A8F19E83A7019FDD9B07
:10373000739007800F100000B717004093067005C4
:103740002380D704930680FA2380D7040F1000004B
:1037500083C6F70293E67600A387D7022380070487
:10376000F326008083A7019FA18BD58F73900780DC
:1037700023A8019E0F1000001305407E81470147DA
:10378000814605468545EFD00077B24001454101AD
:103790006FE0F02BB717004003A5470C2181058986
:1037A000828083470500214793C7F7FF93F7F70F00
:1037B00093968701E186860793F7F70F63C70602A2
:1037C0007D171377F70F6DF7034515003D8DA14762
:1037D00013178501618706051375F50F634A070006
:1037E000FD1793F7F70FEDF7828093C71703C9BF53
:1037F00013451503F5B78545130500106FD0301C30
:103800008545130500206FD0901B37170040832794
:10381000C70C8D451305001093E707102326F70CFE
:103820006FD0F019371700408327C70C8D4513055B
:10383000002093E707202326F70C6FD0501811457E
:1038400017D3FF1F670063F1411106C67D3FC53FD7
:10385000453FF5374D37B2404101D5B7011152C44C
:1038600081452A8A414506CE22CC26CA4AC84EC680
:1038700056C2EFD0900A89450145EFD00061EFD0E4
:10388000E057931A0501B7170040416593DA0A0122
:10389000238C0704D14901441309F5FF8144EFD07B
:1038A0008063569542054181AA8763739500A68778
:1038B00093940701C180AA876373A900CA87FD1981
:1038C000C2091399070193D90901135909012A94CF
:1038D000E39709FC33852401098C49453355A4023B
:1038E0006244F240D2444249B249924AD285224AC5
:1038F0000561420541816F901013411106C622C433
:10390000DD3DFD3D2D3FB717004083A7470C93F7E2
:10391000072091E70145B2402244410182809D3D4C
:10392000254419C5DD35213FF53D113F0545E5B776
:10393000953509E97D141374F40FED350937C93550
:10394000FD3D7DF41137B93571FDE9B7011122CC88
:1039500026CA4AC806CEAA84214437190040939744
:103960008401E18763D407047935D13D513DC13DE0
:103970008327490C93F7072085CF7D1486041374A1
:10398000F40F4D3593F4F40F79F8B5354D3D8D3D79
:103990007D350935133515002AC669354D35324553
:1039A000F2406244D244424905618280B93D75BF0C
:1039B0000145FDB723880186A38C0186238E0186ED
:1039C00041112399018606C6239D01862D350D3DA3
:1039D000B75700209387C79803C7A7A0B2401367C3
:1039E00087002385E7A04101828003C5018782808B
:1039F00003C59187828003D52187828003D5A18763
:103A00008280797122D406D626D24AD04ECE52CCAC
:103A10001387C187834607006381061883A6018840
:103A200083A74199958FA54663FFF61A23000700E7
:103A300003A7419923AAE1860547238CE186753DBA
:103A4000630C050E13059008113781446305050EBC
:103A5000154A99494D332149014406041374F40F62
:103A60004533F13B053B19C1136414007D191379EB
:103A7000F90F4D3BE933E31209FE638C440F7133B8
:103A80004133753B4533653BBD333C00A6972380EE
:103A900087008504E39034FD453B280019338347B4
:103AA000A100639BA7081305B100E5398347D10046
:103AB0006394A70803478100834791008345C100B1
:103AC00022075D8F9307606D3307F702A1671386A6
:103AD000F7FFC1679386F7FF8347B100A207CD8F39
:103AE0009305204EB387B70232973347D702B29778
:103AF000B3C7D7021307E7E342079306803E418727
:103B0000938747FC63D4F6009307803E63D3070096
:103B100081472399F186B75700209387C798854638
:103B20002398E79E2388D1869D46A38CD18603C720
:103B3000A7A05D9B85A0093B9387A18703D70700BA
:103B4000C166FD166305D70005072390E70028002E
:103B5000313315C103578100B75700209387C798A9
:103B600085462398E79E2388D18623990186E546DA
:103B70006DBF513131B723880186414723990186B2
:103B8000A38CE186B75700209387C79803C7A7A0E7
:103B9000136787002385E7A0B9A09389C18703C76E
:103BA00081871389818719CB83A7418703A741990F
:103BB0001D8F89679387F77063F7E7023D3B05CD5B
:103BC000130580086133814411C51305D00FBD3B37
:103BD000B334A000953985C003A741998547238058
:103BE000F90023A0E188B250225492540259F249BC
:103BF000624A4561828003A7419923AAE1868547ED
:103C00002300F90015BFB786B8ED01479386063249
:103C100093170701C18363E3C7008280B387E50080
:103C200083C707003D8DA14713581500058911C1B1
:103C30003685FD1793F7F70F3345A800F5F705070D
:103C4000C1BF411122C4AA852A8431467D5506C6CA
:103C50005D3F930504011306C00A7537B240224444
:103C60001345F5FF4101828001112306A1006C007C
:103C700011467D5506CEA3060100231701006137CA
:103C80000566B7450020130606919385859BA53FE1
:103C9000F2401345F5FF05618280411122C4AA85D7
:103CA0002A8431467D5506C6B93F930504011306A3
:103CB000600E913FB24022441345F5FF41018280DE
:103CC0001841B74754319387E7546318F7044111FB
:103CD00022C406C603574500A967938747102A8464
:103CE00001456318F7020357A4009307E005631228
:103CF000F7023146A2857D5539371306E005930555
:103D0000040111375C441345F5FF3385A740133593
:103D10001500B24022444101828001458280411158
:103D200022C4AA852A841306600E138501B906C62B
:103D3000EFC0E27803471400B75700209387C79875
:103D40002383E7A003472400A383E7A003473400AD
:103D50002384E7A003474400A384E7A0B2402244A1
:103D6000410182801971A2DCD6D2DAD086DEA6DAD1
:103D7000CAD8CED6D2D4DECEE2CCE6CAEAC8AA8A67
:103D80002E84328B23A0050023A2050023A4050066
:103D9000B146AA8550002D4597E0FF1FE7804010EF
:103DA00015C563110B020145F6506654D6544659A9
:103DB000B659265A965A065BF64B664CD64C464D7B
:103DC0000961828085472300FB00F1BF1247FD5740
:103DD0006316F70085472305F400F1B7B757523251
:103DE00093873795E311F7FC0347C100A947E3EC3C
:103DF000E7FAAA8431464C007D55056A2935AA891F
:103E0000130C0A91930C0004138DCA00930BFA90C3
:103E1000B3079C403E89C207C18363F4FC001309C9
:103E20000004420913590901CA861008B3059D0010
:103E30002D4597E0FF1FE780A00625F54E854A86B1
:103E40000C08D133CA94AA89E3F49BFC9305CA9168
:103E500091460A86D6952D4597E0FF1FE7804004DE
:103E600029F1824793C9F9FFE39F37F35CC0834789
:103E7000C100224705452304F400854718C0A30468
:103E8000F4001DB783570500411122C437440020B8
:103E900006C61307C4982311F700834725001306AD
:103EA000000A9305C5002312F70083463500856795
:103EB000BA97A381D7A0835645001304C4982392D0
:103EC000D7A0834665002381D7A08346750014D30D
:103ED000835685002313D7028346A5001385C79315
:103EE0002302D702EFC0A25D014729469307370995
:103EF0009207A29783C6C7000507BD8A2386D7000D
:103F0000E316C7FEB24022444101828041111306EC
:103F1000C00A814506C622C42A84EFF04FBDB747C8
:103F200000209387C79803D727008565BE95231087
:103F3000E40003D747001306000A9385C5932301C5
:103F4000E40003C7750C1305C400A301E40003D704
:103F5000850C2312E40003C7650C2303E400985387
:103F6000A303E40003D767022314E40083C74702D6
:103F70002305F400EFC0A254814729461397470058
:103F800022978346C7008507BD8A2306D700E3979B
:103F9000C7FEB240224441018280411122C406C6BC
:103FA000328426C20146B387C60083870700931474
:103FB0000601C180B1E703570400014893071700C9
:103FC000C207C183B3889700C20893D8080163E38E
:103FD00015032310F4002A972300C7008357040019
:103FE000B6853E95EFC0A24D835704000548BE94A8
:103FF00023109400B24022449244428541018280C1
:10400000050693170601C183E3EFE7F80148DDB722
:1040100003580600636BB800014582800145B24039
:1040200022449244024941018280930718004111C1
:10403000C20726C206C622C44AC0C1832310F600A6
:104040002A980349080093140901C180E3F8E4FCAD
:104050003387970042074183E3E2E5FC3284B305EE
:10406000F5004A863685EFC08245B30625012380D8
:104070000600835704000545BE942310940045B7FD
:104080001441B747473193873764639CF602035660
:104090004500411122C406C691462A848147631D0A
:1040A000D6000356A5009306C00A6317D600513EFA
:1040B0005C44898F93B71700B24022443E8541018A
:1040C000828081473E858280AA958387F5FF9DEF98
:1040D00001471306E005930520021308C005B30746
:1040E000E5008387070099E30545828093F7F70F82
:1040F000938607FE93F6F60F636AD6006388B700CF
:1041000063860701050742074183D1BF01458280CD
:10411000797106D622D426D24AD04ECE52CC56CA77
:104120005AC883C79500F1C73289AE842A84AA850C
:10413000B14650002D4597E0FF1FE78060D65DE552
:10414000056A374B002093060A9113068B9B930553
:10415000C4002D4597E0FF1FE78080D441E9930517
:10416000CA9191460A86A2952D4597E0FF1FE780E8
:1041700020D32DED1247B757523293873795014917
:10418000631BF7048349C100A94763E63705A24AC8
:104190009C406392FA048247C440639EF402314615
:1041A0004C007D55EFF03FA613060A9193058B9BBB
:1041B000EFF07FA51345F5FF631F9500B74700207B
:1041C0004E85238A379B4D3423AEA18823A0518B83
:1041D00023A2818A0549B25022544A859254025939
:1041E000F249624AD24A424B4561828085472300A8
:1041F000F9000149CDB70147A9463306E50003069A
:1042000006009377F70F11E613B547001345150025
:1042100082800507E313D7FE01458280411122C445
:10422000138401B91306200E81451305440006C608
:10423000EFF0EF8BB717040A938717901CC09547D0
:104240002302F4008547A303F400B7073C009387DB
:10425000B7751CC4B7050300B70778009387C70379
:104260003D4693858567130504015CC4EFC0222594
:10427000B70503001546938585681305E405EFC06F
:104280000224B705030025469385056913056407D5
:10429000EFC0E222B705030035469385C5691305D3
:1042A0006409EFC0C2211305E40B2244B240B705F4
:1042B000030035469385C56A41016FC04220411114
:1042C00006C622C426C2AA84913F83C70400138471
:1042D00001B92300F40083C71400938504045146F8
:1042E000A300F40083C72400130504042301F40091
:1042F00083C73400A301F40083C744002302F40001
:1043000083C75400A302F40083D7C4002316F4002B
:1043100083D7E4002317F400EFC0621A93854405A5
:10432000130544052946EFC08219B2402244924445
:104330004101828041119305800226C206C622C433
:10434000AA8459331DC58387040001459DC33704E2
:1043500003009305C46B2685EFC0E22B814701C99A
:104360009305C46B1505EFC0022B9337150013F5A9
:10437000F70FB240224492444101828041112E86BF
:10438000AA857D5506C6EFF01F88B2401345F5FF9C
:1043900041018280144137575435130727E5639A4A
:1043A000E604411122C406C60346C50185462A8497
:1043B000014763EBC6020346D501914663E6C60298
:1043C0008346E5013D46C11693F6F60F636ED600AF
:1043D0000346F5018D4663E9C60093050002793F67
:1043E0001850098F13371700B24022443A85410113
:1043F000828001473A858280B74700209386C7981C
:1044000003D626009387C798054529C683D546005D
:10441000130700026360B70405673697834537A02A
:10442000894663E9B602034827A0636505036397DD
:10443000D500035747A019CF630EE60098530545F2
:10444000636AE50003C547021305E5FA1375F50F26
:104450001335D50A8280411126C24AC08564374986
:1044600000201386C4A01305C998814522C406C63E
:10447000EFE0FFE7B75701BB9387B72A1304C9984A
:104480002326F99895472312F4000547B387840043
:104490002381E7A0130790402393E7A01307A050C0
:1044A0002394E7A07D572302E4021387C1C8834603
:1044B000270093E616002301D7000547E54623A60B
:1044C000E79E239CD79E18C4B240224423A60188AD
:1044D00023A8918802499244410182805171CECF34
:1044E000DAC9138B818803270B00A6D386D7A2D500
:1044F000CAD1D2CDD6CBDEC7E2C599479944630174
:10450000F70ADD3DAA84631805121306C00B814526
:104510004800EFE0DFDD4808EFF05F9F938AC18835
:1045200003A90A00B7474731938737643EC29147D2
:104530002314F1000509C167138CF7FF9357090194
:104540002316F10048009307C00A138A0189231734
:10455000F10023152101EFF0CFEE03240A002AC851
:10456000B7170040133414003204AA8BA381070448
:10457000930600100146A28525459389818897E01E
:10458000FF1FE780E09115C9914723A0F9009387A9
:10459000318B03C707009944136727002380E70086
:1045A000BE502E5426850E599E54FE496E4ADE4A50
:1045B0004E4BBE4B2E4C6D6182809306C00B50005B
:1045C000A285294597E0FF1FE780808D55FD930662
:1045D000C00B5000A2852D4597E0FF1FE780408C5F
:1045E0000DE14800EFF0DFA909CDB2470357A10064
:1045F000B3F78701C207D98F6315F900C247638FEC
:10460000FB00914723A0F9009387318B03C7070074
:10461000A144136727002380E70059B79305C00A18
:10462000480823A02A0123208A00893B23A2A188CD
:1046300023200B00B5B78544A5B71571A2CDA6CB35
:104640001306C00B9305F00F480086CFCAC923A4F8
:104650000188A389018ACEC7D2C5D6C3EFE03FC97E
:104660009306C00B500081452D4597E0FF1FE78062
:1046700020832A89938481881384318B63130510E6
:104680004800EFF0FF9F81479306F00F1307C00B20
:1046900050003E96034606006313D60E8507E39945
:1046A000E7FE054A81490DC54808EFF0AFFD835785
:1046B000C1000357A1009305C00AC207D98F23A6E2
:1046C000F188480823A80188553923A2A188854983
:1046D0001306C00B9305F00F4800EFE05FC193068F
:1046E000C00B500085652D4597D0FF1FE780407BAC
:1046F000AA8A59E94800EFF0BF983335A0008147F6
:104700009306F00F1307C00B50003E9603460600B9
:10471000631DD6068507E399E7FE8547336959018E
:1047200059C5138AC188638D09008357C100035797
:10473000A100C207D98F03270A00998F6353F00A9B
:104740004808EFF02FF48357C1000357A1009305E9
:10475000C00AC207D98F2320FA000567480823A89A
:10476000E188293923A2A188630B090299479CC0DB
:104770008347040093E727002300F4002DA0014A9B
:1047800015B78149014AA9B70145814741BF630671
:104790000A0081C785479CC03DA09547EDBF638750
:1047A000090423A00400014525A09147C9B7639DD2
:1047B0000902E30E09FC99479CC08347040093E774
:1047C00027002300F40041391945631309002145EE
:1047D000FE406E44DE444E49BE492E4A9E4A2D613B
:1047E0008280E30009FC59B7E31209F8C53955FD89
:1047F00089479CC08347040093E717002300F40017
:10480000C1BF3171480006DFEFF04FF09305C00AD9
:104810004800EFF0BFB683A741886312F50203A7F3
:10482000818891476306F7000145FA50296182802B
:10483000753165FD03A7C1888547E317F7FE793910
:10484000EDB703A5C188828003A5818882804111CC
:1048500006C622C426C22A84FD3E854723A4F188C9
:10486000B5399384818819E1953915C191479CC068
:104870009387318B03C707002A841367270023809F
:10488000E7002285B24022449244410182808D4754
:1048900011E09D479CC075D49387318B03C70700F7
:1048A0000144136717002380E700E1BF35714EC74D
:1048B00023A6018A2385018A2389018A9386C18AD6
:1048C0001387A18A9387218B26CB4AC952C5DEDE86
:1048D000E2DCE6DAEAD8EED62398018A06CF22CDCA
:1048E00056C35AC1814B814D014D814C014A014C47
:1048F000814401499389018B36C03AC23EC41306F4
:1049000040029305F00F2808EFE07F9E93054002D8
:10491000B305BA028D6713140A01930640023008EA
:104920002D454180BE9597D0FF1FE780605719C97C
:104930000504239089008544050A93070004E310C9
:10494000FAFC39A0E2477D57639DE70A239089006E
:10495000130640029305F00F2808EFE05F99996570
:10496000930640023008938505E02D4597D0FF1F40
:10497000E780005379E96247FD576309F70C28087F
:10498000EFF05FA1630E05101247854772442300C4
:10499000F70063060900B30754416352F00213069F
:1049A00040022C086818EFB09231425B834B410300
:1049B000834D5103034D6103834C7103A28A374930
:1049C00000209309C99805644E944146CC00130514
:1049D000C49DEFB0D22E23AA69012326749F232AF7
:1049E000B49F231CA49F232E949F1309C99863830B
:1049F0000B00014B824723286901054923A0570179
:104A000081A82808EFF01F991DCDF2476306090021
:104A1000338757416355E002130640022C0868189B
:104A20003EC6EFB0D229B247425B834B4103834D70
:104A30005103034D6103834C7103BE8A054905048C
:104A400023908900D5BD054CDDBF8544E31909F6E7
:104A5000630A0C009387318B03C7070013671700A5
:104A60002380E700A1C02247854799442300F7002F
:104A70009387318B03C70700136727002380E70064
:104A8000FA406A4426854A49DA44BA492A4A9A4A87
:104A90000A4BF65B665CD65C465DB65D0D61828056
:104AA000054C6DB7E31E09FCA144D9BF5971A6D2CC
:104AB00083C4218B86D6A2D4CAD0CECED2CCD6CABD
:104AC000DAC889CC9944B65026542685065996549E
:104AD000F649664AD64A464B65618280B7575435D7
:104AE000938727E53EC43749002083A7C18A13096D
:104AF000C998056A33042A0185079305C49D414678
:104B000008083EC602D4EFB0921B832749019305E3
:104B1000000228003ED08327C49E130BF003938924
:104B2000C18A2302F1028327449FA302F102835723
:104B3000849F2303F1028327C49FA303F102EFF0B4
:104B4000FF8383D7018B2AD41384018B637BFB08FB
:104B5000B71A00401969A3810A04930600100146A0
:104B6000930509E0254597D0FF1FE780603319C101
:104B7000A14491BF930640023000930509E0294506
:104B800097D0FF1FE780C03165F593064002701093
:104B9000930509E02D4597D0FF1FE780603069F944
:104BA000130640026C102800EFB0120F71F168106C
:104BB000EFF04FFE55DD05472385E18A835704005A
:104BC0006371FB02A3810A0493060A9001468D6576
:104BD000254597D0FF1FE780A02CE31505EE231095
:104BE000040003590400930740029306400233096E
:104BF000F9028D67300029453E99CA8597D0FF1F7D
:104C0000E780002A8357040085072310F400E31B84
:104C100005EA930640027010CA852D4597D0FF1F04
:104C2000E780002831F5130640026C102800EFB031
:104C3000B2061DFD3257B7575435938727E5E31960
:104C4000F7F23644930500026810EFF02FF3E311FA
:104C5000A4F2B2471384A18A23A0F9008347040079
:104C6000E38307E69965930600100146938505E006
:104C7000254597D0FF1FE780A022E31605E4230017
:104C8000040091B55D71A2C403C4818A86C6A6C220
:104C9000CAC04EDE52DC56DA5AD85ED662D419CC7F
:104CA00019442285B640264496440649F259625A70
:104CB000D25A425BB25B225C61618280B7470020BE
:104CC00083C4479BA94763E297102685EFE0DFF98D
:104CD00083A7C189AA8A9389C189E384A7FCB757AE
:104CE0005232938737953EC483A7018A02C8314662
:104CF00085072C007D553EC623089100EFE0BFF0EC
:104D00000566374A00201306069193058A9B2AC23E
:104D1000EFE07FEF83A6418A1345F5FF2AC21167B2
:104D2000938B018A138C418A99646383E6009164B2
:104D3000371B00400569A3010B04930609A0014637
:104D4000A685254597D0FF1FE780801531F9B1462C
:104D50003000A685294597D0FF1FE780601429F110
:104D60009306099113068A9B9385C400294597D021
:104D7000FF1FE780E0120DF59305C99191465000A1
:104D8000A695294597D0FF1FE7808011E31A05F00B
:104D9000A3010B0401464C082685EFE0BFFC05C9C2
:104DA0003247D2476395E702E24612476391E60233
:104DB0008346C10103470101639BE60023A059011B
:104DC00023A0FB0023209C00E9BD0544D9BD21445C
:104DD000C9BD3971130671002C00116506DE26DA93
:104DE0004AD84ED622DCA3030100EFE0BFF72A89A0
:104DF000130671004C081965EFE0DFF62384018A81
:104E0000AA899384818A4DC163070900D24722474A
:104E1000998F635DF008130671004C081965EFF077
:104E20002FAF0DC10344710045C085472380F400B6
:104E30009387318B03C7070019441367270023802A
:104E4000E70075A063090900130671002C001165C5
:104E5000EFF00FAC61F9056637450020B747002039
:104E60001306069181451305859B238A079AEFE077
:104E70000FC823AE018823A0018A196723A2E18A03
:104E800083477100DDF38347210189C78347E1012F
:104E90002144B1EF9387318B03C707002144136787
:104EA00017002380E700A1A0E30709FA13067100A9
:104EB0002C001165EFF0CFA535F5E38E09F8130648
:104EC00071004C08196569B7630339039384C1897C
:104ED00003A90400934719009CC06D339387318B5D
:104EE00019ED03C70700136717002380E700228529
:104EF000F2506254D2544259B2592161828003C7A0
:104F0000070023A0240113672700C5B719C16FF05C
:104F10008FAE8280411122C4138401B91305440568
:104F200026C206C6EFF02FAD938441BE29CD26855B
:104F3000EFB0826AB747002003D7E798B7070300AE
:104F40009387476C9356C700BE9683C606007115BB
:104F50001375F50F2295230AD50493568700BD8A51
:104F6000BE9683C60600A30AD50493564700BD8AA1
:104F70003D8BBE96BA9783C6060083C70700230BF6
:104F8000D504A30BF504B240224426859244410186
:104F900082806D151375F50F9D4763E9A7026D16A5
:104FA0001376F60F054563E4C702A94763E1B7022C
:104FB000B315B50093F5F57799C963EAD7003315B2
:104FC000D5001375F577133515008280054582806D
:104FD000011106CE22CC26CA4AC84EC6630305126A
:104FE000034905008544630609109377C90F63924E
:104FF00007108346450003463500834525002A8473
:10500000034515007937AA84631D050E0347540034
:10501000854763E8E70E0347640063E4E70E034750
:10502000740063E0E70E8347940003478400A207FF
:10503000D98FE1CB8347B4000347A400A207D98FDF
:10504000C517C2070567C183930617E063EBF60A2D
:105050008347D4008346C400130767E0A207D58FB7
:10506000D917C207C183636EF7088347F40003476B
:10507000E400A207D98F8917C207C1831307A023B1
:105080006361F7089305000313050401EFF0CF8374
:105090002DC9D14513050404EFF00F833DC19309D9
:1050A0004405A9454E85EFF02F8221CDE14513053A
:1050B000E405EFF06F8131C5930500021305640725
:1050C000EFF08F801DCD13056409EFF0AFA615C971
:1050D0001305E40BEFF00FA60DC513792900630A41
:1050E00009004E852535854409C58304040193B420
:1050F0001400F240624426854249D244B249056117
:1051000082808544FDB7144141113747543126C28E
:1051100006C622C41307E7548144639BE602835604
:1051200045002967130757102A8481446392E602D9
:105130008356A5001307600E639CE600EFE0FFB501
:105140005C446397A7001305040159359334150097
:10515000B240224426859244410182802D71232C45
:10516000811023282111232631112E84B2892A8906
:105170001306C00E81454808232E1110232A9110D2
:10518000EFE0EF96B74754319387E7543EC4E97791
:10519000938757102316F100C1679384F7FF935745
:1051A0000401CE851306600E2318F100280893072A
:1051B000600E2319F10023178100EFB04230280060
:1051C000EFE0BFADAA892ACA930600100146CA853E
:1051D000254597D0FF1FE780A0CC19CD1947832024
:1051E000C111032481118324411103290111832951
:1051F000C1103A85156182809306800F3000CA8500
:10520000294597D0FF1FE780A0C969F99306800F51
:105210003000CA852D4597D0FF1FE78060C85DFD2F
:105220002800D535214745DD8346D1009307100A74
:10523000E397F6FAC2470357E100E58FC207D98F1B
:105240002147E31EF4F8D247E39BF9F8014741BF39
:105250006971232A51111306800F9305F00F28005E
:1052600023261112A384018A23248112232291125E
:1052700023202113232E3111232C411123286111C6
:105280002326711123248111EFE06F869306800F8E
:10529000300089652D4597D0FF1FE78060C0938A55
:1052A000918A631705362800B93D014419C50344A6
:1052B000D1001304F4F51334140081479306F00F62
:1052C0001307800F30003E96034606006316D60C87
:1052D0008507E399E7FE054A014B05C083570101A5
:1052E0000357E1002808C207D98F23AAF18809676C
:1052F00023ACE188054BEFE09FA21306800F9305D6
:10530000F00F2800EFD0BFFE89659306800F3000B4
:10531000938505102D4597D0FF1FE78060B8AA84BC
:105320006318052E2800C533014919C50349D1006A
:105330001309F9F5133919001376F90F814793060C
:10534000F00F1307800F2C00BE9583C505006397EF
:10535000D5048507E399E7FE85499375F40F630348
:10536000090C835701010357E100C207D98F138746
:10537000418963070B001443B386D7406356D00AB4
:105380001CC3896793870710280823ACF188EFE0D6
:105390001F9919C4014539A4014A3DBF814975BF10
:1053A00089641306C00E81454808EFD05FF4B74703
:1053B0005431138B41899387E75403270B003EC474
:1053C000E977938757102316F1000507C167130685
:1053D000600E938501B92317E100938BF7FF41839A
:1053E0009307600E28082318E1002319F100EFB09D
:1053F000020D2800EFE07F8A2A8C2ACA930600104B
:105400000146A685254597D0FF1FE78060A91DC5E9
:1054100085472380FA009387318B03C70700136702
:10542000270041A063020B08E386C5F683A48189A7
:105430008967E397F4F693840410A5B79306800F69
:105440003000A685294597D0FF1FE78060A569F148
:105450009306800F3000A6852D4597D0FF1FE7806B
:1054600020A45DF52800EFF01FCA5DD1D247E311FB
:10547000FCFAC2470357E100B3F77701C207D98F9F
:105480002320FB0023AC918819C0E39509F0630445
:105490000900E3110AF09387318B03C707001367F4
:1054A00017002380E700FDB5130600079305F00FF2
:1054B0002800EFD0DFE393060007300089652D4513
:1054C00097D0FF1FE780C09D59E12800EFE04FFF14
:1054D0002A8C814435CD835401018357E10028088B
:1054E000C204DD8C0964EFE09FDD054C1306000764
:1054F0009305F00F2800EFD09FDF89659306000722
:105500003000938505102D4597D0FF1FE780409907
:1055100013894189138B818921E12800EFE04FFA3B
:1055200005CD835901018357E100C209B3E9F900B0
:1055300063060C00B38799406352F002280809649F
:10554000EFE0FFD7CE8413040410896929A8014C29
:1055500009641304041059BF63000C088967930998
:105560000410E314F4FE138501B9232099002320CD
:105570008B00EFE0CFFA138601B9938514004E85B6
:10558000EFF0DFBD9387318B21E50327090023204E
:105590003B0105072320E90003C707001367170035
:1055A0002380E7008320C112032481128324411247
:1055B000032901128329C111032A8111832A411170
:1055C000032B0111832BC110032C811055618280A4
:1055D00005472380EA0091B5EFE05FC489679387B0
:1055E0000710138501B9232009002320FB00EFE0F9
:1055F0000FF363050A002145E39609FA9387318B7F
:1056000003C707002145136717002380E70059BF30
:10561000EFE0DFC0138501B9EFE06FF023AA018846
:1056200089679387071023ACF18885472380FA00A8
:105630009387318B03C70700194513672700238021
:10564000E7008DB7011122CC4EC606CE26CA4AC845
:1056500052C4AA89EFF0DF9783C7918A1944A9EB56
:105660002A8439E5938501B91306600E4E85EFA0B3
:10567000B26283A541899384418911E195E903A729
:105680008189896613898189130A07106303D7000A
:10569000096A4E8685055285EFF05FAC2A8409E9D8
:1056A0009C404E852320490185079CC0EFE02FE7F1
:1056B0002285F2406244D2444249B249224A0561FD
:1056C0008280954763E5B7081171A2DDA6DB86DF0E
:1056D000AA842E8489C985472DC52E868145EFA0D1
:1056E000125A854739EDEFF0FF821306600E93855D
:1056F00001B92800EFA0B25C82CE82D0231201064D
:1057000011C42286A685E808EFA0725BB747002087
:1057100083D5E798B70603003C003E943147938653
:10572000466C7156B3D7E540BD8BB69783C707006B
:1057300071170504A309F404E316C7FE28001937FE
:10574000AA87FE506E54DE543E85116182808547E3
:105750003E858280138501B9828003C501B9058920
:10576000828003C501B90581058982807971C547A9
:1057700006D622D426D24AD04ECE2317F10009E90C
:105780000545B250225492540259F2494561828033
:1057900065DAC147AE84E3F5B7FE95472300F5000F
:1057A000938901B983C70900328913070003A30055
:1057B000F50083C71900938609011306E100230150
:1057C000F50083C729002A84A301F50083C73900A7
:1057D0002302F50083C74900A302F50083C75900DF
:1057E0002303F50083C76900A303F50083C779008D
:1057F0002304F50083D78900A304F50083D789002B
:10580000A1832305F50083D7A900A305F50083D75D
:10581000A900A1832306F50083D7C900A306F500DC
:1058200083D7C900A1832307F50083D7E900A30725
:10583000F50083D7E900A1832308F500EFE0EFF539
:1058400021D15147938609041306E100A6852285DC
:10585000EFE0AFF415D561479386E9051306E10043
:10586000A6852285EFE06FF301DD13070002938622
:1058700069071306E100A6852285EFE00FF2E30138
:1058800005F013078002938669091306E100A685D7
:105890002285EFE08FF0E30505EE13078002938683
:1058A000E90B1306E100A6852285EFE00FEFE3097F
:1058B00005EC8357E10001452310F900D9B501112A
:1058C000C54706CE22CC26CA4AC82317F10001E9F3
:1058D0000545F2406244D2444249056182806DDA56
:1058E000C147E3F7B7FE034705009547E312F7FE0C
:1058F0003284AA842E89EFF0EFE11306600E9385BF
:1059000001B92285EFA0B23B83C7140093060401BE
:105910001306E1002300F40083C72400CA8526850E
:10592000A300F40083C734002301F40083C74400BC
:10593000A301F40083C754002302F40083C764006A
:10594000A302F40083C774002303F40083C7840018
:10595000A303F40083C7A40003C79400A207D98F50
:105960002304F400A183A304F40083C7C40003C785
:10597000B400A207D98F2305F400A183A305F40086
:1059800083C7E40003C7D400A207D98F2306F4001D
:10599000A183A306F40083C7040103C7F400A20790
:1059A000D98F2307F400A183A307F4001307000392
:1059B000EFE00FE611DD5147930604041306E10002
:1059C000CA852685EFE0CFE4E30405F0614793063E
:1059D000E4051306E100CA852685EFE06FE3E309DD
:1059E00005EE13070002930664071306E100CA855B
:1059F0002685EFE0EFE1E30D05EC13078002930647
:105A000064091306E100CA852685EFE06FE0E30133
:105A100005EC130780029306E40B1306E100CA8528
:105A20002685EFE0EFDEE30505EA8357E100E39129
:105A300027EB2285EFF0CFD969BD6FF07F816D71C3
:105A4000232481102322911023202111CEDF23262D
:105A50001110AA892E89B2843684EFF08FD383C7C0
:105A6000918A9DEF1DE11306600E938501B9280010
:105A7000EFA0F2242800A304310123052101A3058E
:105A8000910023068100EFF0FFBB8320C1100324A7
:105A900081108324411003290110FE595161828035
:105AA0001945E5B779714ECE138501B91305450542
:105AB00022D406D626D24AD002C202C4231601003E
:105AC000EFE06FF3138441BE11C52946A28548005B
:105AD000EFA0F21EB7140040A381040485660146BE
:105AE0008965254597C0FF1FE780803B6311050E40
:105AF000856601468D65254597C0FF1FE780403AC2
:105B00006317050C1969930600100146930509E017
:105B1000254597C0FF1FE780A03855E9A3810404FD
:105B2000856601469165254597C0FF1FE780403790
:105B300059ED856601469965254597C0FF1FE780A9
:105B4000203651E5A381040485660146814525453B
:105B500097C0FF1FE780C0343DE985660146856533
:105B6000254597C0FF1FE780A03335E1A3810404DA
:105B700023A6018A2398018A2385018A2389018A21
:105B800023AE018823A0018A23A2218B2384018ACA
:105B9000A384018A23AA018889679387071023AC0D
:105BA000F188EFE0AFE729464C002285EFA03211E3
:105BB000138501B9A389018AEFF0DFA809E922540E
:105BC000B25092540259F24945616FE05FC8B25039
:105BD000225492540259F24919454561828003C505
:105BE000318B8280C16705668146FD171306160258
:105BF0001397060141836364B7003E8582803307B3
:105C0000D500034707002207B98F214713980701E2
:105C10008607C20713580841C18363530800B18F38
:105C20007D171377F70F7DF38506D9B7854755CDD7
:105C3000CDCDC5CE011126CA8354650006CE22CC37
:105C40004AC84EC61307000F6369970899C01845E4
:105C500049C71389B4004209135909018547636E86
:105C60002607930750FA2380F5008947A380F500A3
:105C700083470500B6892E842381F50083572500CC
:105C8000A381F500A1832382F50083474500A38209
:105C9000F500834755002383F50083576500A383F0
:105CA000F500A1832384F5000356650011C60C4559
:105CB00013059400EFA0B20093859400C205C18142
:105CC00022850D379305E9FF2E942300A40021813E
:105CD000A300A400239029018147F2406244D244EA
:105CE0004249B2493E85056182803E858280854772
:105CF0005DC955CA29476378B70A011122CC06CE7F
:105D000026CA4AC84EC6834605001307500A2A848D
:105D10006393E608834615000947639EE6068349B8
:105D2000850003477500A209B3E9E9001307000FD6
:105D3000636337079384B900C204C180639DB404D0
:105D4000F91493950401C181A2943289EFF09FE97F
:105D500003C7140083C7040022075D8FA147631C9B
:105D6000E5028347240025042300F9008347B4FF9C
:105D70000347A4FFA207D98F2311F9008347C4FF6B
:105D80002302F9008347D4FF231339012324890018
:105D9000A302F9008147F2406244D2444249B24929
:105DA0003E85056182803E85828011C513060015FF
:105DB00081456FD0CFD382800548630F0518638D6E
:105DC0000518638B061863890718914863F6C8188D
:105DD000797106D622D426D24AD04ECE52CC56CA9B
:105DE0005AC85EC662C403C9250041439308F9FF3F
:105DF00093F8F80F6364130B83CB150063F02B0B40
:105E00006D1693140601C1801306600F636896082F
:105E100003C605001373F6036312030813BE1B00C9
:105E200013537600631C6E061982B388784193B8C9
:105E30001800058A6394C80683C945003E8A83C753
:105E40003500A2093A8BB3E9F90083470500B68A09
:105E50002E8C2A8489CB835725006396370183478C
:105E60004500638B27012285893785472300F4008D
:105E700023113401230224011C44B3D77701858BFD
:105E8000A5EB8357C4009306B00F338797004207F2
:105E9000418363F2E6022285093F0548B25022544D
:105EA00092540259F249624AD24A424BB24B224CB6
:105EB00042854561828093991B00A29913052405B0
:105EC0002398F9023E95268693055C00EFA0225F99
:105ED0008357C400A6972316F4002397990085479B
:105EE000B3977701832B8400B3EBFB002324740169
:105EF0001444814733D7F600058B29CF850713F764
:105F0000F70FE36927FF930BE40081498144130CE9
:105F1000240503D60B00B3079600C207C183E36CC8
:105F2000FBF683D52B0233859A008509E295EFA015
:105F3000025983D70B0093F9F90F890BBE94C20461
:105F4000C180E31839FD23109A002285EFF0FFE5A8
:105F50000148A9B70D4899B74285828093D785003B
:105F60002300B500A300F50093D70501E1812301CB
:105F7000F500A301B5008280374700209306C7983B
:105F80008567B69783A6C79E1336150023A6C79EBE
:105F900093B616001307C7986381A60283D6879E1F
:105FA00041667D166385C60085062394D79E01C58C
:105FB00083A741981CCB6F807025828023AA018A19
:105FC000828023AA018A82809387418B9443014572
:105FD00091CA03A741990545158F6345070023A082
:105FE000070001458280411122C406C626C24AC06C
:105FF000B9472E846311F510A547054963E0B7063C
:10600000B74400209387C498985385479384C498D5
:1060100011496315F7049307800EB387F502A6971D
:1060200083C7C70285CF13F4F50F2285EF203071A7
:106030000D490DC59D4763EC8700B70503000A04B1
:106040009385856D2E941C40828705453537130551
:106050002003EF1020440149EF405037B240224462
:106060004A8592440249410182800145C5B785674E
:10607000BE94854723AAF49ED9BF8567BE949147F5
:10608000D5BF8567BE948947F5B78567BE948D47B0
:10609000D5B78567BE9403D7849FB7570020BD4608
:1060A0004117420741839387C79863F5E600654728
:1060B000239CE79E03D7879FF946E3EAE6F80507A6
:1060C000239CE79E69B78567BE9403D7849FB75723
:1060D0000020BD464117420741839387C79863F567
:1060E000E6006547239CE79E03D7879FC146E3F000
:1060F000E6F67D17F1B79307F5FF93F7F70F3147F2
:106100002A89636AF71A370703008A071307876F1C
:10611000BA979C4382878547E3E2B7F4B334B00073
:10612000938404082685EF20B03E63060518268573
:10613000EF20106863030518854733358000E307B7
:10614000F9F08947631DF90CB75700209387C7986A
:1061500023AA879EEDBD91479384150AE3F4B7FC0B
:106160000549EDBD938705F6C207C1831307600992
:10617000E368F7FEA944B3F79502FDF3B3D49502A3
:106180009384040345B78D4793841505E3FCB7F862
:10619000C1BF894793841506E3F6B7F8D1B78547A1
:1061A000E3E0B7FCB334B00093840407A5BF854790
:1061B000E3E8B7FAB334B0009384040BA5B785477E
:1061C000E3E0B7FAB334B0009384040CA1BF854771
:1061D000E3E8B7F8B334B0009384040DA1B7854762
:1061E000E3E0B7F8B334B0009384040E25BF8547CD
:1061F000E3E8B7F6B334B0009384C40925B7854704
:10620000E3E0B7F6B334B0009384E40921BF8547D7
:10621000E3E8B7F4B334B0009384640921B78D4741
:10622000631CF900A945B355B402B7570020938702
:10623000C798239CB79E21BD91476319F900B757B2
:1062400000209387C79823AE879E11B5B547631486
:10625000F904B75700209387C79883D7879F37578C
:106260000020BD46C117C207C1831307C79863F555
:10627000F600E547231CF79E8357879F01C8F94620
:10628000E3E7F6DC8507231CF79ED1B3C146E3F0B4
:10629000F6DCFD17CDBFAD47E31BF9DA0545EFF09E
:1062A000BFCD114711E00547B75700209387C79826
:1062B00023AAE79E69BB114955B30D4945B34971FE
:1062C0002326111623248116232291162320211719
:1062D000232E3115232C4115232A5115232861150E
:1062E0002326711523248115232291152320A1151E
:1062F000232EB11323100600834745001307100512
:106300006394E7006F10800AAA842E843289636444
:10631000F7244D47638EE768636BF7061547638D77
:10632000E74E636AF70005476383E7440947638ADA
:10633000E74A9144CDA94147638DE7544547E39A25
:10634000E7FEB74700209387C79803D7270023901D
:10635000E50003D747002381E50005673E978346A4
:1063600037A0A381D500835647A02392D5000347C9
:1063700027A02383E5009853A383E50003D7670292
:106380002394E50083C747022305F4001DA11307EA
:106390001003E38EE706636FF71413070002E3862A
:1063A000E7041306000381460147E394C7F8374624
:1063B00000201306C6981D45994593873609920714
:1063C000B297DC4785839D8B6395A70005071377FC
:1063D000F70F8506E393B6FEB74700202300E400DD
:1063E0009387972C01458546B94819481307350905
:1063F000120732970347C7009375E7006394150FA0
:10640000B305D400058B2380E50003C7070013778D
:10641000F707A380E50003D3170013872600229710
:106420002300670013538300A300670003D33700E2
:106430001387460022972300670013538300A300AD
:10644000670003D357001387660022972300670075
:1064500013538300A300670003C7870003CE7700B0
:106460001383860022073367C701420722934187BF
:106470002300E300420741832183A300E30003C715
:10648000A70003CE97001383A60022073367C70136
:106490004207229341872300E3004207418321837F
:1064A000A300E30003C7C700C906C2063D8B2386CD
:1064B000E50003C7C700C1821183058BA386E500F1
:1064C00003C7B70011832387E50003C7B7003D8BDF
:1064D000A387E50003C7D7002388E50003C7E700CB
:1064E000A388E5000505C107E31205F12310D900D3
:1064F000814415AE13071004E383E7281307000552
:10650000E38FE72A13070004E395E7E2835765006A
:10651000638A07301445054603C70600E31CC71409
:1065200011476391E73083C416009307100563EBAE
:10653000972E03C4360083C7260022045D8C6303B4
:10654000042EC167FD17630FF42CEF20F03CE3101D
:1065500005108D44C9AC13077005E388E7366367FF
:10656000F71013074005E383E7346368F704130764
:106570002005E386E73013073005E39CE7DA03578D
:10658000650091476310F72A1C4583C6370003C690
:10659000270083C5170003C50700EFF04FCAAA8480
:1065A00063130528B7470020054723AAE79891679A
:1065B000938787A923A6F19ABDA413075005E3800A
:1065C000E73013076005E396E7D6EFF0AF9883D581
:1065D00064002A898844B000EFF06FAEAA84631487
:1065E000052403478104834709000544B98F13F745
:1065F000170015EB83461900034791046395E602E3
:10660000834629000347A104639FE60083463900BF
:106610000347B1046399E600034449000347C104FA
:10662000198C33348000898B854999EB1306100E41
:106630009305D10413055900EF901266B339A000F9
:10664000A800EFF02F80AA84631F051C19C8B74764
:106650000020054723AAE7989167938787A923A677
:10666000F19A6382091CEF40404C75AA1307A005FC
:10667000E382E742636EF70813078005E383E73E92
:1066800013079005E397E7CA83556500638C0518E7
:106690000845054783470500E39DE73CFD1593F555
:1066A000F50F0505EF406063AA84631E0516EF40F1
:1066B000007C89472300F40083476500AA84A30077
:1066C000F400834775002301F400EF4060528347D4
:1066D000A50213056400A301F40083D7440023122C
:1066E000F4008C40EFF09F87EF40C07A2315A400A0
:1066F000EF40607B2316A4009305100E1305F400F1
:10670000EF40807B2307A4003D052310A900CDB3F3
:106710001307C005E389E742E3EFE7401307F005FD
:10672000E399E7C0EF60106E85472300F4008347CC
:106730005500AA84A300F4004C4513052400EFF093
:10674000FF818C4813056400EFF05F81CC4813058E
:10675000A400EFF0BF808C501305E400EFF01F8021
:106760008C4C13052401EFF06FFFD94731AAB747CE
:1067700000201387C79818539384C7980DEF13050B
:106780000008EF20E058896531C99385F5EF22852F
:10679000EFF0CFFCB7071613938727205CC09C50FF
:1067A0002304F400EF209014A304A4002181230506
:1067B000A400AD47D1A8EF207013137735008D47A3
:1067C0008965631AF700938515AF1375C50361D109
:1067D00093E525006DBF938505AFC5BF938505AFD4
:1067E0007DB7EFE02FF3AA89EFE04FF2AA8411C53D
:1067F0004E85EF90725E9374F50F8947A300940065
:1068000026862300F400CE8513052400EF90324B3A
:10681000890423109900E9B983576500ADCB8546FB
:1068200063F0F60485448320C1160324811626856F
:1068300003290116832441168329C115032A8115D2
:10684000832A4115032B0115832BC114032C8114BA
:10685000832C4114032D0114832DC1137561828093
:106860001C4583C707001387F7FF1377F70FE3EB88
:10687000E6FA03A741998966938606713697230045
:10688000F40023AAE18A85472310F90095B18547D2
:10689000CDB7EF10504E374700209306C798856755
:1068A000B69783A6079E37860500130606E4B3D67F
:1068B000C602AA8983A5C79D03D5079F2946B75459
:1068C00000201307C7989384C4987D5A93C7F6FF96
:1068D000B3D7C70263E6B700B385C502338AD500D4
:1068E00083A7C49EA94693B717002300F40083A78B
:1068F000449FA300F40083D7849F2312A400B3878E
:10690000D7022311F40083A7C49F2303F40083D785
:10691000A4A0A303F400A1832304F4001C47A30450
:10692000F40083C724A0A30504002316040093B732
:1069300017002305F40023070400EFD09FF0AA8579
:106940001305F400EFF08FE183C7C9001305A4011C
:10695000A309F40083D70900231AF40083D7290080
:10696000231BF40083D74900231CF40083A5C49D96
:10697000EFF0CFDE83D76900231FF400EFD04F87FD
:106980002300A402EFD02F87A300A40221812301BA
:10699000A402EFD0AF86A301A40221812302A402A6
:1069A000D28513055402EFF06FDB93079002E9BD27
:1069B00003576500AD47E317F7E61C4583C617008C
:1069C00003C7070003C65700A206B3E9E60003C7E2
:1069D0004700220683C58700598E03C797002310FE
:1069E000C10483CB2700220703CA370003CC67000A
:1069F00083CC7700336DB70083CDA700E38409E231
:106A000093050002E3E075E38945E3ED45E10545C3
:106A1000E36A85E1E36895E16319BA12E30406E0ED
:106A2000E382C9E01386EDFA1376F60F9305C00AE8
:106A3000E3FAC5DE374400201306C4980346060275
:106A40001304C49863169611035664026312A611C8
:106A500003464402631EB60F835744008564A29424
:106A60003EC283D744A01306000A9385C4933EC454
:106A700083D724A0A800035B24003ECA83C724A0B8
:106A800003596402834A44023EC61C503EC8EF903C
:106A90001223835601042312740123113401B75BBE
:106AA0000020A38144A12392D4A0238184A1232088
:106AB00094032313A4032302B403938BCB980146BE
:106AC000639F0C0093051005054663EAB501630852
