:020000040000FA
:040000006FD00600B7
:101000006F20C020000000000000000090000020C1
:1010100092000020A9BDF9F3940000200000000018
:101020000000000096000020980000200000000052
:10103000000000009A000020000000009C0000203A
:101040000000000064020020A0000020A200002098
:10105000A4000020A6000020A8000020AA00002074
:10106000AC000020AE000020B0000020B200002044
:101070004E010020C6000020B8000020BA00002069
:10108000BC000020BE000020C0000020DC000020CA
:10109000C400002001A001A001A001A001A001A0A6
:1010A00001A001A001A001A001A001A001A001A038
:1010B00001A001A001A001A001A001A001A001A028
:1010C00001A001A001A001A001A0B71700401307D3
:1010D00000032388E702054723AAE1867300203036
:1010E00037470040834747C09146BD8B638FD70089
:1010F00063E7F60009476389E704730020309946E7
:10110000638AD7003147E39AE7FE3746004013056C
:10111000F00F0DA0834757C0CDB7034786C01377A4
:10112000F70F638DA6001388160023800701B6977A
:101130002381E70083C601C3938701C30347A6C089
:101140001377F70F79FB55BF978000E0E780A05732
:101150006DB71387C1F9034727059387C1F919EFC5
:10116000972001E0E780008BB7E700E03707000831
:1011700023A0E7180F10000073002030B73600409E
:1011800003C7464011463D8B6304C702636CE6000B
:101190008947E313F7FE89450145972001E0E78081
:1011A000C084D9BF1946630DC700B146E316D7FC0A
:1011B0004166B7380040938601327D169D4E89A066
:1011C00083C7564055BFC84B9385A19303D70500ED
:1011D000050503C88840C8CB1385C1930355050096
:1011E00005071377F73F1378F80F6311A70203D7AA
:1011F00007016305C70005072398E7002384D70389
:1012000003C7A8401377F70F5DFFBDB703D50500EF
:101210003695230005012390E500DDB7411122C476
:1012200026C24AC006C601441309703E512F97F0EA
:1012300000E0E7804070692797F000E0E7800074E5
:10124000412797F000E0E780607609E883A781985E
:10125000E37EF9FC97A000E0E780007A97B000E019
:10126000E780C0B90544D9B73727004083476700F6
:10127000858BB1C305462303C700138781991C439F
:1012800085071CC3138781981443A90614C313F759
:10129000170019E32387C198294733F7E70201E7CD
:1012A00085462386D19813074006B3F7E70281E706
:1012B0000547A386E1987300203073270080218BB7
:1012C0009387019E01CB7327008098C398435D9B51
:1012D000731007800F100000371700409306700549
:1012E0002300D704930680FA2300D7040F100000D0
:1012F0008346B70493F6F60DA305D704230007042D
:10130000732600809443A18AD18E7390068023A017
:1013100007000F100000937605026380061803474C
:10132000A700118B3DE373270080218B01CB73272E
:10133000008098C398435D9B731007800F100000D6
:1013400037170040930670052300D704930680FAF0
:101350002300D7040F1000008346A70093E6460041
:101360002305D70023000704F32600809843218B30
:10137000558F7310078023A007000F10000013077C
:10138000004B010001007D176DFF73270080218B4A
:1013900001CB7327008098C398435D9B731007802F
:1013A0000F10000037170040930670052300D70484
:1013B000930680FA2300D7040F1000007D892314C0
:1013C000A700010001000100010023000704F3262B
:1013D00000809843218B558F7310078023A007004E
:1013E0000F10000073270080218B01CB7327008032
:1013F00098C398435D9B731007800F100000371748
:101400000040930670052300D704930680FA23005A
:10141000D7040F1000000F100000B726004013067D
:101420001005A383C68023000704F3260080984399
:10143000218B558F7310078023A007000F10000029
:1014400073270080218B01CB7327008098C39843BA
:101450005D9B731007800F10000037170040930644
:1014600070052300D704930680FA2300D7040F10D9
:1014700000008346B70493E60608A305D7042300BB
:101480000704F32600809843218B558F7310078043
:1014900023A007000F100000828093760504638765
:1014A00006140347A700418B3DE373270080218B7F
:1014B00001CB7327008098C398435D9B731007800E
:1014C0000F10000037170040930670052300D70463
:1014D000930680FA2300D7040F1000008346A7006C
:1014E00093E606012305D70023000704F3260080B6
:1014F0009843218B558F7310078023A007000F108E
:1015000000001307007D010001007D176DFF7327A8
:101510000080218B01CB7327008098C398435D9B8B
:10152000731007800F1000003717004093067005F6
:101530002300D704930680FA2300D7040F1000007D
:101540009376F50193E606042314D7000100010009
:101550000100010023000704F32600809843218B3B
:10156000558F7310078023A007000F10000013078A
:101570006004631FE50273270080218B01CB732772
:10158000008098C398435D9B731007800F10000084
:1015900037170040930670052300D704930680FA9E
:1015A0002300D7040F100000B7260040094695BD60
:1015B00073270080218B01CB7327008098C3984349
:1015C0005D9B731007800F100000371700409306D3
:1015D00070052300D704930680FA2300D7040F1068
:1015E0000000B72600401306200525BD73270080A4
:1015F000218B01CB7327008098C398435D9B7310A8
:1016000007800F1000003717004093067005230075
:10161000D704930680FA2300D7040F1000008356E6
:10162000870093E6060C2314D700F5BB41118146D1
:1016300001468145114506C6EF10900673270080CC
:10164000218B9387019E01CB7327008098C3984319
:101650005D9B731007800F10000037170040930642
:1016600070052300D704930680FA2300D7040F10D7
:1016700000008346670493E616002303D704230083
:101680000704F32600809843218B558F7310078041
:1016900023A007000F100000B24041018280814664
:1016A000014681451145EF10A07F73270080218BF3
:1016B0009387019E01CB7327008098C398435D9B5D
:1016C000731007800F100000371700409306700555
:1016D0002300D704930680FA2300D7040F100000DC
:1016E000FD562316D70223000704F32600809843F3
:1016F000218B558F7310078023A007000F10000067
:1017000073270080218B01CB7327008098C39843F7
:101710005D9B731007800F10000037170040930681
:1017200070052300D704930680FA2300D7040F1016
:1017300000008346670493E616002303D7042300C2
:101740000704F32600809843218B558F7310078080
:1017500023A007000F10000001A0BD473305F502CC
:1017600001007D1575FD8280411122C426C206C686
:10177000AA84014463179400B24022449244410178
:10178000828005041305803E4204C13F4180DDB7DD
:1017900019CD91CD09CE81473387F50083460700E7
:1017A0003307F50085072300D700E317F6FE828094
:1017B00019C991C909CA910583A7C5FF11057D16ED
:1017C000232EF5FEC5BF828001C919C62A960505DC
:1017D000A30FB5FEE31DA6FE828081473307F50007
:1017E0000307070019E33E8582808507C5BF011105
:1017F0002E8626CAAA84131506019305F00441819A
:1018000022CC06CE32C6EF00F0512A8401C5324602
:10181000A685BD3F2285F2406244D24405618280A4
:10182000854715C18DC105C28147B306F5003387D1
:10183000F50083C60600034707006398E6008507A6
:10184000E315F6FE85473E8582808147EDBF93070D
:10185000F6FFBE952A966313C5008280FD1583C7E7
:1018600015000505A30FF5FEFDB7AA87014581CF39
:1018700009CE3E96850703C7F7FF6317B700E39BC2
:10188000C7FE0545828082800145828079719387F9
:10189000C19F22D4804306D626D24AD04ECE52CC07
:1018A00056CA5AC85EC65DCCB7C4C901014B9389FC
:1018B000419F9384F437176A0000130AAA8A976A33
:1018C0000000938AEA8D176900001309A9918357D4
:1018D000240085E35C44631B0B0023AEF19E832B45
:1018E000C4002285EF0070505E84B9A82326FB0057
:1018F000FDB783A7090082971C443307F540637640
:10190000F500032749001D8F2A9763E0E4089767D5
:10191000000023AF07888355240003450400971077
:1019200001E0E780A0535C405844A1CB0C4403265F
:101930004900AE97BE8663E4B70063E4C700B38690
:10194000C74014C4228B3A8459F0976700009387EC
:1019500027859C4B09476370F706F9171767000046
:101960002328F784B250225492540259F249624A11
:10197000D24A424BB24B4561828063150B0023AEC5
:10198000E19EB1BF2326EB0099BF03274A0209CF8E
:1019900063EFA7003385A74083A70A016376F500AC
:1019A0009767000023A6A780228B404471BF0327BE
:1019B0004900BA97C5B79757000023AB077E5DB7BC
:1019C000411122C417640000130404801C4006C6A1
:1019D00026C24AC091C782979757000023A6077E68
:1019E0009767000083C71798858B976400009384DE
:1019F000249795C397670000A386079683C7740052
:101A00001547637AF700052B83C77400F5178A071B
:101A1000A2979C4382971C4491C382971389819E0D
:101A200003270900175600000346967797570000D2
:101A300083C7077793961700BA9683D60600C5CE5C
:101A40009757000083C7C77563E1C70C975700001D
:101A5000238807741C40639507129767000083C7AB
:101A6000B79091CF83C7740093F7F70F89EB97670F
:101A70000000A38B078E971002E0E780805F9387BA
:101A8000419F9C43638E070E97570000938787758D
:101A9000DC4317570000232DF770CD3B975700000C
:101AA0009387476CDC53E9CF175700001307476F44
:101AB000184B9757000083C7376C6363F70C83C7D5
:101AC00074001547636EF70A9767000083C7C78DD8
:101AD000918BDDE7032609009756000083C6566CFC
:101AE00063C6D70A2244B2409244024941011733E7
:101AF00003E067006355850793F7F70F97560000DB
:101B00002380F66AE3E4C7F225BF86073E97835534
:101B10000700231007002398019E938701A09C4390
:101B2000175500000345C56713172500BA979C4356
:101B3000829783D7019F175700000347676693C7B3
:101B4000F7FF7D8D93171700032709003E978357F2
:101B500007005D8D2310A7009757000083C74764D7
:101B600091C7850717570000230CF762175700002D
:101B7000034707639757000083C79762E378F7EC42
:101B8000B2402244924402494101828013971700D7
:101B90003297035707006DF7850799B7AD6737C7C9
:101BA0000040BD072326F7200F10000097570000C4
:101BB0009387075FC84F83278726BD66BD0693C7F7
:101BC000F7FF99836A052326D7205D8D8280411116
:101BD000B7170040985F3AC6945F3247E39CE6FE31
:101BE0003245410182801305F00F82800111976711
:101BF00000009387E78222CC03A4070C26CA06CEF6
:101C00002AC42EC6854419E40145F2406244D244F8
:101C1000056182808347910003471400858B63042C
:101C2000F7000044CDB719469305A1001305240021
:101C3000C53EE31895FE0545C9BF1387C1AB1C43DC
:101C40009306001094C301000100010001001C4331
:101C500023A007008346150003482500A20642087A
:101C6000C29603480500C296034835006208C29632
:101C700094D78346550003486500A2064208C296E1
:101C800003484500C296034875006208C296D4D73F
:101C9000834695000348A500A2064208C296034861
:101CA0008500C2960348B5006208C29694DB83465D
:101CB000D5000348E500A2064208C2960348C500C5
:101CC0000345F500C2966205AA96D4DB83C61500CB
:101CD00003C52500A2064205AA9603C50500AA96DB
:101CE00003C535006205AA9694CF83C6550003C587
:101CF0006500A2064205AA9603C54500AA9603C53B
:101D000075006205AA96D4CF83C6950003C5A500C9
:101D1000A2064205AA9603C58500AA9603C5B5008A
:101D20006205AA9694D383C6D50003C5E500A20632
:101D30004205AA9603C5C50083C5F500AA96E2052B
:101D4000AE96D4D3D443F59AD4C3D44393E61600C5
:101D5000D4C3944393E6160094C3BA879443D842FD
:101D6000058B59E3984E01452300E6009843184F30
:101D70002183A300E6009843184F41832301E60026
:101D80009843184F6183A301E6009C43D84F230278
:101D9000E600D84F2183A302E600D84F41832303F6
:101DA000E600D84F6183A303E60098532304E600BE
:101DB00098532183A304E600985341832305E6004A
:101DC00098536183A305E600D8532306E600D85351
:101DD0002183A306E600D85341832307E600DC53A2
:101DE000E183A307F600828001008DBF138701AC59
:101DF0001443411122C49C5E4AC006C6998326C280
:101E0000858B3A841389C1ABD1C79C5E975400007F
:101E10009384045593F7F7F99CDE175700000347A6
:101E2000875493070008631BF700832709009C432E
:101E300093F70704175700002307F75283C70400DE
:101E400093F707048DC39387419F9C4382979757CD
:101E5000000023AFA75083C7040093F7F70B175771
:101E60000000230FF74E83C7440093F707049DE358
:101E7000854717570000A307F74E9387C1AC9C43D3
:101E8000096798C7130700FC97560000238CE64C9F
:101E9000D844F8D31C40985F1183058B09CB985F19
:101EA0003D9B98DF054797560000238DE64A985FD3
:101EB0001D83058B11CB985F1377F7F798DF854764
:101EC000175700002300F74A83270900D8430583EA
:101ED000058B19C7D843759BD8C3D843799BD8C302
:101EE000B24022449244024941018280397106DEA7
:101EF00016DC1ADA1ED82AD62ED432D236D03ACEF2
:101F00003ECC42CA46C872C676C47AC27EC0F93D8B
:101F1000F250E2525253C2533255A25512568256D3
:101F20007247E2475248C248324EA24E124F824F89
:101F30002161730020309387C1AC94439757000010
:101F40009387074203C70700058B11CB9757000003
:101F5000238A074097570000A3860740828003C763
:101F60001700058B65F7F85271FF83C75700DDB77F
:101F7000138801AC032708001C5F9583858BD1E78C
:101F800009C61C5BBD832300F60085CA83270800B1
:101F9000985B4607935767016356070093E707C0AE
:101FA000C207C18303970600C207C18709C7BA9752
:101FB0000947B3C7E7022390F60085CD8347150094
:101FC0008DCB9756000083C6063A93F60604138716
:101FD000970089478DCA3A9503470500854699477A
:101FE0001376F7066311D60262076187B947634C1F
:101FF0000700832708009C5FED838D8B1757000037
:10200000A305F73681473E8582808547EDBF4111A4
:1020100022C406C61384C1AC18402DE9AE877453A0
:10202000FDFE3E85B28597570000238C073297103E
:1020300002E0E78040D9938701AC9C43B70680005B
:102040009843558F98C3D857719BD8D7975700009E
:10205000A38A073097570000A38407301C40094724
:1020600098C31440175700001307872F8347270092
:10207000858B89EB83473700858BD9C39757000041
:102080002382072EB2402244410182808D47631E85
:10209000F500938701AC9C43B70680009843558FA9
:1020A00098C3D857719BD8D76DBF8547E31BF5FA06
:1020B0005447F977FD17F58F5CC70F1000001C40DF
:1020C000096798C7130700F817560000230CE62885
:1020D000138701AC1043184231830D8B11E71307AE
:1020E0006019F8D3D4C7B5BF1842094631830D8BA8
:1020F0006315C7001307E043EDB71307E01BD5B71F
:10210000FC52ADF741B75D71A2C4A6C22A84130682
:1021100080022800AE849305100886C6CAC04EDE31
:1021200052DCEFF06FEA3545971002E0E7800006D9
:10213000138301AC832703009376F41F138E41AD04
:1021400023A40700984B938EC1AC370FFCFF136795
:10215000F70398CBF84F130510F8B7020400137774
:1021600007E0558FF8CF9843F576FD16758F98C325
:102170009843B7063300930380251377F7E798C396
:10218000984311497D1F1377F7E71367071098C32A
:1021900003270E008549930F80021C47D58F1CC76B
:1021A00083A70E001307900D3400B8CB0147935559
:1021B0003700A69583C7050013767700B3D7C740CD
:1021C000858BE1C38327030083280E00239C07042B
:1021D0002390070603A8C8021378D8FF23A6080394
:1021E00083A807001378F70793F808F833E8080185
:1021F00023A0070103A847023368580023A207035E
:1022000083A80E00014823A2780603DA07066307B5
:10221000480303A80703038A06001358F80062085E
:102220001358884163580A0103A807031358F8009C
:102230002380060103D807061378F80F03AA48067F
:1022400063060A0003DA8705E37F49FB03A8470218
:102250003378E80123A2070383870600635CF40058
:1022600003C805003396C9001346F6FF337606010E
:102270002380C5003E8663D3A7002A8613158601F6
:10228000618505071377F70F8506E312F7F3B6406C
:10229000264496440649F259625A616182809386C7
:1022A000C1AC9C42D84713161701635506029847E4
:1022B00013161701635006027D57B8D71757000051
:1022C000130707EE584F0507175600002328E6EEC0
:1022D000116798C798470D83058B1DCB17570000D2
:1022E000034727081367170017560000230BE6065D
:1022F000130700F8175600002306E606214798C783
:10230000138701AC10435856719B1367170058D6BA
:102310009847058B0DC717570000034777041367CD
:10232000170017560000A30DE602054798C713874C
:1023300001AC10435856719B1367170058D6984745
:102340000983058B09E798470583058B21CF9847BB
:10235000175600001306C600138501AC0983058BD0
:10236000630307101841184331830D8B75EBAC4B99
:10237000184E93F5050203471700CDCD79EF1307EB
:102380007006D8CF034706001367170017560000E2
:102390002308E6FC114798C718415C57F19B93E767
:1023A00017005CD79C4298479316370163D6060204
:1023B0009756000083C6460EC18A175700001307C0
:1023C0002706C5CE03478707136707029756000005
:1023D0002384E60C056798C798479316270163D1B5
:1023E0000602175700000347E7F762076187635744
:1023F00007000547975600002386E6F6096798C749
:1024000098479316070163D606029756000083C6C5
:10241000B608858A1757000013078700ADCE03471B
:1024200097071367270097560000A387E6062167E2
:1024300098C7828029D785456315B7001307B00672
:1024400089B789456315B7001307F0061DBF8D4591
:102450006315B700130730072DB71307500715B7DB
:102460001307600739BF0347360013671700175675
:102470000000A308E6EE094739BF834687070946EF
:10248000BD8A6388C600034787078D463D8BE313EB
:10249000D7F4114725BF83469707918AC9DA0347C6
:1024A00097071367870041B7397106DE16DC1ADA21
:1024B0001ED82AD62ED432D236D03ACE3ECC42CAFC
:1024C00046C872C676C47AC27EC0D13BF250E25290
:1024D0005253C2533255A255125682567247E247A2
:1024E0005248C248324EA24E124F824F21617300B1
:1024F00020309387C1AC98438567938707777CD357
:10250000938741AD9C4383A60709139656006358F1
:10251000060083A6070913966600634406007453F9
:10252000FDF2828061C1AA870145DDCD8D07C2071A
:10253000C183F19BC207C18313074003636BF7029A
:10254000138701B60843138781B514436396A60227
:1025500017570000130707C1185B014551C7411108
:10256000C20706C60545DD8D0297B240014541010F
:1025700082801387C1B5F9B70357650035E3035768
:102580004500636FF704B306F7402146637CD6022B
:1025900003280500938687001D8FAA96611717569A
:1025A0000000035646C02392E60023A006012393B1
:1025B000060014C12312F500130786FF975600008A
:1025C0002393E6BE2313B5009755000083D5A5BD20
:1025D000B387F540175700002317F7BC2105828009
:1025E0000841ADB701458280828009CD938701B64D
:1025F00003A30700938781B583A8070081469A87C4
:1026000063E31701828003A807006369F50A636723
:10261000A80A13878700E367E5FE03D667002167F2
:1026200005076317E60003C741A90507238AE1A848
:10263000975500009385C5B603D6470003D76500BC
:102640002393070032974207418317550000231C4C
:10265000E5B4638867021385C1B508416303F502D9
:1026600003D5660019ED83D7460023A00601210794
:102670003E9621062392C600975700002395E7B2A5
:10268000B6879843E30017F99386C1B59442E30BEC
:10269000D7F683566700BDF683D64700035647003A
:1026A0001843A106B2962392D70098C383D765003A
:1026B000A107175700002318F7AE8280BE86C28795
:1026C00081B70327851163020712411122C406C690
:1026D0008347C5008345E5042A8493F7C70F230683
:1026E000F500834697000356C70013958601618560
:1026F00063F2C508635B05060345870093F6F6079A
:10270000A304D700054693E627006314C50093E6AB
:1027100017002306D4005C4389075CC3A30AB400F6
:10272000032504112E864C430905EFF06F8683279D
:10273000841103465401D44303D7C700B296118FC6
:10274000D4C32396E7008947A30DF400034764032D
:102750009757000083C727A26378F7048347C40014
:1027600093E707012306F40081A093E717002306EF
:10277000F4006DB79376F60F635D0502034587009D
:10278000854513E627006314B50013E617002306FA
:10279000C400A30AD400A30407008547A30DF400D6
:1027A000832784119C43DDF3B2402244014541015B
:1027B000828093E717002306F400A30AD400A30441
:1027C0000700032504114C430905EFE07FFC832734
:1027D000841103465401D44303D7C700B296118F26
:1027E000D4C32396E7008D4755BF05458280938764
:1027F00001B79C43411122C406C6858B2A84C5EFCC
:102800004165130525F597C002E0E78020D845C54E
:102810008347A5002315F50083270412BDE7232075
:10282000A4122322A41285472311F40423200500B7
:102830008347640154412316F5000347D400230461
:10284000E5000547A304E50017570000130747B14B
:10285000184F1385170215811C437D151375F50F4D
:102860009CC25C43DCC21C479CC65C47DCC61C4B5C
:102870009CCA5C4BDCCA1C4F9CCE5C4FDCCE19CD95
:102880009386060213070702C1BF8327441288C339
:10289000835724042322A412850779B79757000091
:1028A00083D787B8850717570000231FF7B6B240B4
:1028B0002244410182808347C40023090400054566
:1028C00093C747002306F400DDB78347850193F7DC
:1028D000E70FC5EF83479501CDEB034625018346FE
:1028E000C50009CA83456503175700000347B78829
:1028F00063E7E50013F7060151CB014709C6C18A1A
:102900000357651C81C68356A51C369741C3130720
:10291000C712175500000355658DB335A70237461A
:102920000F00411113060624814622C426C206C6A2
:102930007D543305A70297F002E0E78040D0975717
:10294000000083C7B783B384A7009757000093871D
:1029500027AD03A787098327070963F387003E8410
:10296000184375FB9387419F9C438297814763641B
:10297000A400B307A440B2402244B3B7970093C762
:10298000170092443E854101828081473E858280C6
:102990009387C1AC98437C53FDFF8280797126D226
:1029A00006D622D44AD04ECE52CC56CA5AC85EC69B
:1029B0008347550303447513AA843E941374F40F9C
:1029C0009307400263F687001304B4FD1374F40FF9
:1029D00003AA841383AAC413A38B8412228652856C
:1029E000D68597F002E0E78000C0058915E503CBA6
:1029F000D41201498149337B6403930B50024A8608
:102A00005285D68597F002E0E780E0BD058915C5BF
:102A1000639169031374F90F238B8412B25022540B
:102A200092540259F249624AD24A424BB24B456132
:102A300082808509E20993D989410509E31179FD6D
:102A4000E1BF8327850903560504797193D60701F1
:102A5000BD8EC206C182358E1357764093575640BD
:102A6000898B058B5D8F93573640918B5D8F935784
:102A70001640A18B5D8F93171600C18B5D8F931746
:102A8000360093F707025D8F931756009355860023
:102A900093F707041E065D8F1376F60F518F93D7B9
:102AA000554013D63540118A898BD18F13D6754086
:102AB000D18F13D61540218AD18F13961500418AE4
:102AC000D18F1396350013760602D18F13965500D9
:102AD000137606049E05D18F93F5F50FCD8FA207CF
:102AE00045465D8F3307C70222D42A8426D252CCB2
:102AF00056CA032A8413832AC4135AC806D63697A3
:102B00004207418393577740135557400989858B76
:102B1000C98F135537401189C98F13551740218923
:102B2000C98F131517004189C98F13153700137505
:102B30000502C98F131557009355870013750504B7
:102B40001E07C98F1377F70FD98F13D5354013D7C9
:102B500055401189098B498F13D57540498F13D57D
:102B600015402189498F139515004189498F139587
:102B7000350013750502498F13955500137505042B
:102B80009E05498F93F5F50F4D8F2207D98FB38797
:102B9000C7024AD04ECE5EC662C4B697C207C18392
:102BA00013D7774013D557400989058B498F13D523
:102BB00037401189498F13D517402189498F1395C3
:102BC00017004189498F1395370013750502498F06
:102BD0001395570093D58700137505049E07498FF9
:102BE00093F7F70FD98F13D5354013D75540118977
:102BF000098B498F13D57540498F13D5154021890D
:102C0000498F139515004189498F13953500137528
:102C10000502498F13955500137505049E05498FCC
:102C200093F5F50F4D8F2207D98FB387C70213068F
:102C300050025285D685B697BD8E93940601C18009
:102C400033F6C402137BF60F97F002E0E780A099F9
:102C500005890DED8347D41201498149B384970258
:102C6000130C5002C1804A865285D68597F002E047
:102C7000E78060970589937BF90F11C5638634035C
:102C8000850993F9F90F0509E31F89FD230B6413E7
:102C9000B250225492540259F249624AD24A424BEB
:102CA000B24B224C456182805E8BCDB7797122D4C4
:102CB00006D683C735002E8423160100A307F10032
:102CC00083C74500100802C02307F10083C75500E1
:102CD0008A8502C2A306F10002C402C802CA02CC5D
:102CE00002CEEFE09FF50347F10183470400014561
:102CF0006310F7020347E10183471400014563199C
:102D0000F7000345D101834724001D8D13351500BD
:102D1000B250225445618280011197470000938789
:102D2000277022CC03A4870C26CA4AC84EC606CEFA
:102D3000AA8413092500854915C083C714000347D9
:102D40003400858B6304F700405CFDB7194693059A
:102D500044004A85EFE0DFACE31835FF2285F240FE
:102D60006244D2444249B249056182804111974789
:102D700000009387E76A22C403A4870C26C24AC0D6
:102D800006C693042500054901E82285B240224485
:102D90009244024941018280A6851305A402393775
:102DA000E30525FF405CCDB74111974700009387AD
:102DB000276722C403A4870C26C24AC006C6930410
:102DC0002500054901E82285B24022449244024987
:102DD00041018280A6851305A401C93DE30525FFB5
:102DE000405CCDB72303048015472303E480010032
:102DF0002302A480828083076480E3CE07FE23033E
:102E00000480828083076480E3CE07FE034544800C
:102E1000828083076480E3CE07FE2302A480828041
:102E2000411126C44AC24EC006C61377F50BAD4702
:102E3000AA892E8995446306F70019456537653FD1
:102E40008D444E854537FD59FD1463983401B240D9
:102E5000A244124982494101828013550901137528
:102E6000F50F453F2209CDB7011126CC06CEB70498
:102E7000080051371545BD37713769372AC6A53F58
:102E800032459377150089EB136515001375F50F1F
:102E9000F240E24405618280FD14E9FC0145CDBFAA
:102EA000397126DC4ADA4ED852D656D45AD25ED080
:102EB00006DE62CE66CCB7E700E07D5783AA070046
:102EC00022C603AA470023A0E71823A2E718B717D2
:102ED0000040130770052380E704130780FA23805E
:102EE000E70483C74704930B75FFB684E20793FB9F
:102EF000FB0F8546AA892E8B328937240040E18753
:102F0000015763FA76016308D5008946130700026A
:102F10006313D5000157D98F93F7F70FB71C004003
:102F20002382FC0411472303E4801305F00F5D3D69
:102F3000094CD135636D7C11B7050700DA953787E9
:102F40000700795563F2E504B3879500636EF702D5
:102F5000370B0800A94733EB65016399F90689E44B
:102F60008144513D26850DA0DA850945553D050969
:102F70000345F9FFFD14050B693D81C49377FB0FF1
:102F8000FDF7DD3569FD7D55B71700401307700566
:102F90002380E704130780FA2380E70403C747046C
:102FA000418B2382E704F250B7E700E023A05711DA
:102FB00023A24711E25432445259C259325AA25AFA
:102FC000125B825B724CE24C21618280A547639563
:102FD000F90685691309F00FB3069900B3742B0144
:102FE000B6941349F9FFB3749900856B337969017D
:102FF000416B9387F9FFB3F7270199E363FC340131
:1030000093D94900C147E3E637FF99BF0569C16914
:103010007D19D9B71305800D638869011305000276
:103020006384790113051008CA85DD3B353D21DD38
:103030004E99B3843441D9B7DA852D45D533CA9436
:10304000E30099F205097D3BA30FA9FED5BF938745
:10305000F9FF93F7F70F6361FC0C83C71C04130798
:103060003008631FF70437070800636BEB04B307EE
:103070009B00B706100063F5D704334BEB0089477C
:103080006393F9068980D549E38C04ECDA85094518
:10309000413B11090327C9FF91472320E48003071F
:1030A0006480E34E07FE23033481FD17EDFBFD141E
:1030B000110B81C49377FB0FE9FF7D3371F5E1B507
:1030C000B717004003C75704B70708001377070274
:1030D00019E3B78707007955E378FBEA33079B00CC
:1030E000E3FFE7F855B58547E382F9F2DA852D4528
:1030F000053B9389F4FFE38504E6293393F7390010
:1031000091EB832604800327090093074900E39A83
:10311000E6E43E89CE84F1BFB5476396F900130516
:10312000900BC93135BDB1471305B00AE38BF9FEE9
:1031300099476391F904B7050800B365BB002D45B5
:10314000C53181448D4BA14975396396740183273C
:1031500004802320F9008504E39834FF832704804A
:1031600013172B01635507002312F900D5BB232247
:10317000F900FDB39D476399F90281451305B00439
:103180004531BD442320090023220900FD599D3902
:1031900093F77400CA9703C70700FD14398D238085
:1031A000A700E39634FF6DBBA1476392F9046D3924
:1031B0008144630D0B008D479304C0036308FB003B
:1031C0009304000563048B01930440041375C50741
:1031D000E30895D819453931393905452131268516
:1031E0000D3909453D314931E31C05D669BB91478D
:1031F0006399F90013056006F536F53E130590094D
:103200000DB7E38F09D4F154A9BB0000970100204A
:103210009381C1CA175100201301C1DE17E5FFFFDA
:10322000130585DE97D5FF1F9385C5DD17F6FF1FB4
:103230001306C6FD63FAC5008322050023A05500CE
:1032400011059105E3EAC5FE171503001305C5EB4B
:1032500097F5FF1F938585FB1386018763FAC500E9
:103260008322050023A0550011059105E3EAC5FE60
:1032700013850187973500209385052D6377B50069
:10328000232005001105E36DB5FEFD42739002BCDD
:103290008D4273904280B72200009382828873909F
:1032A000023097D2FF1F9382E2D593E232007390EF
:1032B000523037170040930770052300F704930737
:1032C00080FA2300F7040F1000003C47B70600FA0D
:1032D000E116F58FB70600069506D58F3CC797B265
:1032E00000009382A27873901234730020303D4323
:1032F0002A876373C3029377F700BDEFADE593763A
:1033000006FF3D8ABA960CC34CC30CC74CC7410795
:10331000E36BD7FE11E28280B306C3408A069702B0
:10332000000096966780A6002307B700A306B700A3
:103330002306B700A305B7002305B700A304B70011
:103340002304B700A303B7002303B700A302B70009
:103350002302B700A301B7002301B700A300B70001
:103360002300B700828093F5F50F93968500D58DE5
:1033700093960501D58D61B79396270097020000BB
:1033800096968682E78086FA9680C1171D8F3E96B4
:10339000E374C3F8A5B73367B500FD530D8B79E728
:1033A000B7877F7F9387F7F710419441B372F60098
:1033B0003363F600BE92B3E262006397720C631847
:1033C000D6065041D441B372F6003363F600BE9284
:1033D000B3E262006398720A631BD60410459445F9
:1033E000B372F6003363F600BE92B3E262006391FB
:1033F000720A631ED6025045D445B372F600336399
:10340000F600BE92B3E26200639A72086311D602BC
:1034100010499449B372F6003363F600BE92B3E2EA
:103420006200639372085105D105E30FD6F61317B6
:10343000060193970601631CF7001357060193D703
:1034400006013305F7409375F50F91E982804183BA
:10345000C1833305F7409375F50F91E182801377AF
:10346000F70F93F7F70F3305F74082800346050007
:1034700083C60500050585056313D60065FA330587
:10348000D640828011059105E312D6FE0145828067
:103490002105A105E31CD6FC014582803105B1055B
:1034A000E316D6FC014582804105C105E310D6FC38
:1034B00001458280011122CC06CE3714004026CA75
:1034C0004AC84EC652C483447405034AB4058349AE
:1034D000840503499405EFD0D0528347A40593F4A3
:1034E000F40F137AFA0F93E71700230DF40493F9FE
:1034F000F90F1379F90FB717004003C7A705058B1C
:103500006DFF03D5C705A38D4705238C3705A38C15
:103510002705A38B9704F2406244D2444249B24942
:10352000224A0561828041119397050122C406C693
:10353000C1872E8463DD0700EFE0206019C1EFE052
:10354000A0582165218DB24022444101828093F729
:10355000150013C51500E5FB9397250163D20708F5
:10356000EFE0F16FB717004083C7E70293F7C70F8B
:1035700093E71700F3260080A18A91CAF326008002
:1035800023A0D19E83A6019EDD9A739006800F1022
:103590000000B7160040130670052380C60413060A
:1035A00080FA2380C6040F1000002387F6022380D0
:1035B0000604F326008083A7019EA18BD58F73900C
:1035C000078023A0019E0F10000003C5018737F676
:1035D0000200130606E08965EFE0101F09659DB73C
:1035E000939715010145E3D007F63725030013052E
:1035F0008528EFD0521D03C501871306006491652D
:10360000EFE0901C11653DBFB7250300374503006F
:103610001D71494693850524130545A686CE97D08E
:10362000FF1FE780E01F01E937250300130545254B
:10363000EFD0721901A0B7F600E0795798CAFD578C
:10364000DCCA0567B7E700E023A0E7101306F00225
:1036500090C223A0E7180F1000001306C003814595
:10366000480897D0FF1FE7802016B74700209387B0
:1036700047623ECA896793870780231CF10093073E
:10368000B00F2312F1029547A301F10285472303EE
:10369000F102A305F102B7270100938727803EDAE4
:1036A000B7F50700B737000035479387474B81468A
:1036B0007000E10519452304E1023EDE97E0FF1F9B
:1036C000E780007E58088147994670003E96034681
:1036D000060085070507A30CC700E398D7FED2476D
:1036E00091C70357810185676373F70001A04808FC
:1036F000EFE07056AA8501C937250300130585261A
:10370000EFD0227801A0F640256182804111373543
:10371000000022C41305655206C613840187EFE03A
:1037200010502300A4001928034504002244B2408D
:1037300013060032896541016FE01009411106C688
:10374000F3270080A18B91CBF327008023A0F19E6B
:1037500083A7019EDD9B739007800F100000B717B1
:103760000040930670052380D704930680FA2380D7
:10377000D7040F10000083C6F70293E67600A387F4
:10378000D70223800704F326008083A7019EA18B24
:10379000D58F7390078023A0019E0F1000001305A2
:1037A000407E81470147814605468545EFD0F02997
:1037B000B240014541016FE0907EB717004003A57C
:1037C000470C21810589828083470500214793C7E3
:1037D000F7FF93F7F70F93968701E186860793F734
:1037E000F70F63C706027D171377F70F6DF70345D1
:1037F00015003D8DA14713178501618706051375D7
:10380000F50F634A0700FD1793F7F70FEDF7828076
:1038100093C71703C9BF13451503F5B785451305AE
:1038200000106FD0D0648545130500206FD0306440
:10383000371700408327C70C8D451305001093E709
:1038400007102326F70C6FD09062371700408327AC
:10385000C70C8D451305002093E707202326F70C9E
:103860006FD0F060114517D3FF1F670003EF4111C0
:1038700006C67D3FC53F453FF5374D37B240410154
:10388000D5B7011152C481452A8A414506CE22CCC2
:1038900026CA4AC84EC656C2EFD0305389450145A4
:1038A000EFD0F013EFD0D00A931A0501B7170040FC
:1038B000416593DA0A01238C0704D14901441309B5
:1038C000F5FF8144EFD07016569542054181AA87D5
:1038D00063739500A68793940701C180AA876373D9
:1038E000A900CA87FD19C2091399070193D90901D3
:1038F000135909012A94E39709FC33852401098CA3
:1039000049453355A4026244F240D2444249B24987
:10391000924AD285224A0561420541816F90F01496
:10392000411106C622C4DD3DFD3D2D3FB7170040C5
:1039300083A7470C93F7072091E70145B240224443
:10394000410182809D3D254419C5DD35213FF53D6E
:10395000113F0545E5B7953509E97D141374F40F5A
:10396000ED350937C935FD3D7DF41137B93571FDA8
:10397000E9B7011122CC26CA4AC806CEAA8421443E
:103980003719004093978401E18763D407047935A0
:10399000D13D513DC13D8327490C93F7072085CF89
:1039A0007D1486041374F40F4D3593F4F40F79F8F5
:1039B000B5354D3D8D3D7D350935133515002AC68C
:1039C00069354D353245F2406244D2444249056181
:1039D0008280B93D75BF0145FDB7238C01862380E8
:1039E0000188238201884111239D018606C6239107
:1039F00001882D350D3DB7570020938747B103C788
:103A0000C7B0B240136787002386E7B041018280C8
:103A100003C58187828003C50188828003D5A18781
:103A2000828003D521888280797106D622D426D25D
:103A30004AD04ECE52CC1387418883460700638E0E
:103A4000061683A6818883A78198958FA54663FB78
:103A5000F61A2300070003A7019823AEE186C935B3
:103A6000630C050E13059008293781446305050E84
:103A7000154A994965332149014406041374F40F2A
:103A80005D33CD331D3B19C1136414007D191379C7
:103A9000F90F653BC13BE31209FE638C440F493BC0
:103AA0005933C9335D337D3B953B3C00A69723805A
:103AB00087008504E39034FD5D3B28003133834764
:103AC000A100639BA7081305B100FD398347D1000E
:103AD0006394A70803478100834791008345C10091
:103AE00022075D8F9307606D3307F702A167138686
:103AF000F7FFC1679386F7FF8347B100A207CD8F19
:103B00009305204EB387B70232973347D702B29757
:103B1000B3C7D7021307E7E342079306803E418706
:103B2000938747FC63D4F6009307803E63D3070076
:103B30008147239DF186B7570020938747B185467B
:103B40002398E7AE238CD1869D462380D18803C776
:103B5000C7B05D9B85A0213B9387218803D70700D1
:103B6000C166FD166305D70005072390E70028000E
:103B7000093B15C103578100B7570020938747B110
:103B800085462398E7AE238CD186239D0186E546A2
:103B90006DBF693131B7238C01864147239D018672
:103BA0002380E188B7570020938747B103C7C7B088
:103BB000136787002386E7B0B1A09384418803A7E9
:103BC000C1871384C18709CB83A7019863E6E70007
:103BD000998F25476378F702A1330DCD130580082F
:103BE000493B014911C51305D00F61333339A0009A
:103BF000BD396301090285472380F40003A781983A
:103C000023A4E188B250225492540259F249624AE4
:103C10004561828083A701981CC03DBFB786B8ED7F
:103C200001479386063293170701C18363E3C700F8
:103C30008280B387E50083C707003D8DA1471358F5
:103C40001500058911C13685FD1793F7F70F334528
:103C5000A800F5F70507C1BF411122C4AA852A842F
:103C600031467D5506C65D3F930504011306C00A23
:103C70007537B24022441345F5FF4101828001119E
:103C80002306A1006C0011467D5506CEA306010057
:103C90002317010061370566B74500201306A6A06B
:103CA0009385D5B3A53FF2401345F5FF05618280AA
:103CB000411122C4AA852A8431467D5506C6B93FE2
:103CC0009305040113064009913FB2402244134575
:103CD000F5FF41018280411122C4AA852A8413067E
:103CE0004009138581B806C6EFD0A2090347140026
:103CF000B7570020938747B12384E7B003472400D8
:103D0000A384E7B0034734002385E7B003474400AA
:103D1000A385E7B0B2402244410182808357050069
:103D2000411122C43744002006C6130744B12311B1
:103D3000F700834725001306000A9305C5002312E8
:103D4000F700834635008567BA97A382D7B08356BC
:103D50004500130444B12393D7B083466500238202
:103D6000D7B08346750014D3835685002313D7023A
:103D70008346A500138547A32302D702EFD0620034
:103D8000014729469307370A9207A29783C647003F
:103D90000507BD9A2382D700E316C7FEB24022442E
:103DA0004101828041111306C00A814506C622C422
:103DB0002A84EFF0CFD3B7470020938747B103D7CA
:103DC00027008565BE952310E40003D7470013063E
:103DD000000A938545A32301E40003C7150D1305CD
:103DE000C400A301E40003D7250D2312E40003C798
:103DF000050D2303E4009853A303E40003D76702EF
:103E00002314E40083C747022305F400EFC0727750
:103E1000814729461397470022978346C7008507A5
:103E2000BD9A2306D700E397C7FEB2402244410162
:103E30008280411122C406C6328426C20146B3875D
:103E4000C6008387070093140601C180B1E70357BA
:103E50000400014893071700C207C183B388970085
:103E6000C20893D8080163E315032310F4002A97CE
:103E70002300C70083570400B6853E95EFC07270DB
:103E8000835704000548BE9423109400B240224496
:103E90009244428541018280050693170601C18341
:103EA000E3EFE7F80148DDB703580600636BB8009D
:103EB000014582800145B2402244924402494101B9
:103EC0008280930718004111C20726C206C622C489
:103ED0004AC0C1832310F6002A98034908009314AE
:103EE0000901C180E3F8E4FC33879700420741836E
:103EF000E3E2E5FC3284B305F5004A863685EFC07F
:103F00005268B30625012380060083570400054547
:103F1000BE942310940045B71971A2DCD6D2DAD032
:103F200086DEA6DACAD8CED6D2D4DECEE2CCE6CAB7
:103F3000EAC8AA8A2E84328B23A0050023A205009A
:103F400023A40500B146AA8550002D4597E0FF1F28
:103F5000E78000F515C563110B020145F650665464
:103F6000D6544659B659265A965A065BF64B664CB5
:103F7000D64C464D0961828085472300FB00F1BF86
:103F80001247FD576316F70085472305F400F1B784
:103F9000B757523293873795E311F7FC0347C100B7
:103FA000A947E3ECE7FAAA8431464C007D55056A3F
:103FB000B531AA89130CAAA0930C0004138DCA0072
:103FC000930B9AA0B3079C403E89C207C18363F458
:103FD000FC0013090004420913590901CA8610089C
:103FE000B3059D002D4597E0FF1FE78060EB25F5A9
:103FF0004E854A860C081D31CA94AA89E3F49BFCBD
:1040000093056AA191460A86D6952D4597E0FF1F34
:10401000E78000E929F1824793C9F9FFE39F37F36D
:104020005CC08347C100224705452304F40085474F
:1040300018C0A304F4001DB70DCD1387F5FF137747
:10404000F70FB946814763E4E60201479306E005AE
:10405000B307E50083C70700811793F7F70F63EAFB
:10406000F60005079377F70FE3E4B7FE85473E8533
:1040700082808147EDBF1441B7474332938737159C
:10408000639CF60203564500411122C406C68D46C4
:104090002A848147631DD6000356A5009306C00AF3
:1040A0006317D600553E5C44898F93B71700B24022
:1040B00022443E854101828081473E858280AA95C7
:1040C0008387F5FF9DEF01471306E0059305200266
:1040D0001308C005B307E5008387070099E305458A
:1040E000828093F7F70F938607FE93F6F60F636AC5
:1040F000D6006388B700638607010507420741833E
:10410000D1BF01458280797106D622D426D24AD009
:104110004ECE52CC56CA5AC883C79500F1C73289D1
:10412000AE842A84AA85B14650002D4597E0FF1F32
:10413000E78000D75DE5056A374B00209306AAA00B
:104140001306DBB39305C4002D4597E0FF1FE780FE
:1041500020D541E993056AA191460A86A2952D458D
:1041600097E0FF1FE780C0D32DED1247B7575232BB
:10417000938737950149631BF7048349C100A94719
:1041800063E63705A24A9C406392FA048247C44022
:10419000639EF40231464C007D55EFF03FA81306B4
:1041A000AAA09305DBB3EFF07FA71345F5FF631FCC
:1041B0009500B74700204E85238E37B3C93423A21C
:1041C000A18A23A4518B23A6818A0549B250225487
:1041D0004A8592540259F249624AD24A424B456199
:1041E000828085472300F9000149CDB7411122C4DF
:1041F000138481B81306000981451305440006C6DF
:10420000EFF0EF8EB717040A938717901CC09547FD
:104210002302F4008547A303F400B7073C0093870B
:10422000B7751CC4B70778009387C7035CC4130530
:1042300044072244B240B72503001D469385C52F8D
:1042400041016FC0123441112E86AA857D5506C6E4
:10425000EFF0DF9CB2401345F5FF41018280184129
:104260004111B757463226C206C622C44AC09387B8
:1042700047048144631AF702034745008547814498
:104280006314F702034955002A843105CA856D334A
:1042900001CD22998307C90081EBF145228565375D
:1042A000444C898C93B41400B240224426850249C0
:1042B000924441018280144137575434130727E553
:1042C000639AE604411122C406C6034645028546A8
:1042D0002A84014763EBC60203465502914663E612
:1042E000C602834665023D46C11693F6F60F636E1D
:1042F000D600034675028D4663E9C6009305800229
:1043000099371854098F13371700B24022443A8561
:104310004101828001473A858280372500201307BA
:104320008520B72503002313070023140700231556
:10433000070023160700231707001D469385052F46
:10434000130585206FC0F223372500201305852033
:104350008280797106D622D426D24AD07D3F1306B8
:1043600000029305F00F0A85EFE07FF88965930658
:1043700000020A86938505202D4597E0FF1FE78000
:1043800020B221ED2A890A85D93DAA84014419C9A0
:104390003725002041466C0013058520EFC0721EB2
:1043A00022498544130600029305F00F0A85EFE0C9
:1043B0001FF48965930600020A86938505302D4512
:1043C00097E0FF1FE780C0AD09CD19442285B250A8
:1043D0002254925402594561828005448144014926
:1043E000D1B70A85AD3D0DC191C4A247338927419C
:1043F000635A20013725002041466C0013058520B3
:10440000EFC0321861D4D1B769F0E9F021447DBF23
:1044100039714ED656D206DE22DC26DA4AD852D47C
:104420005AD0AA8AAE890939854715C513060002F4
:104430009305F00F0A85EFE09FEB096493060002F5
:104440000A86930504202D4597E0FF1FE78040A5CD
:104450002A8909CD9947F2506254D2544259B2592F
:10446000225A925A025B3E85216182800A85C53BB1
:104470002A8A130B043009C52249054A130B04206C
:10448000130600029305F00F0A85EFE05FE609646A
:10449000930600020A86930504302D4597E0FF1F1E
:1044A000E78000A045F90A855D3B11C9A2441304C9
:1044B0000420630C0A00B38724416348F000896735
:1044C00013840720CA8463018B0C69468145130558
:1044D0006100EFE0DFE1B7574632938747044E862D
:1044E0003EC0D6858547850468002302F100A302FB
:1044F000310126C4EFC0F208F1450A85A9332ACE5E
:10450000930600100146A285254597E0FF1FE7802E
:10451000209929F1930600020A86A285294597E091
:10452000FF1FE780E0971DF5130600029305F00FCB
:104530000A85EFE0DFDB930600020A86A2852D459F
:1045400097E0FF1FE780C095E31605F00A85013B61
:10455000A147E30205F02247E39FE4EE0347510041
:10456000E31B37EF4E86D6856800EFC0227FA14758
:10457000E31305EE3725002041466C001305852026
:10458000EFC032008147C1BD138407303DBFB7473C
:104590000020938647B103D62600938747B105458F
:1045A00029C683D54600130700026360B704056778
:1045B0003697834557B0894663E9B602034847B04A
:1045C000636505036397D500035767B019CF630E82
:1045D000E60098530545636AE50003C547021305E5
:1045E000E5FA1375F50F1335D50A8280411126C2FD
:1045F0004AC0856437490020138604B1130549B1C8
:10460000814522C406C6EFE09FCEB75701BB938712
:10461000B72A130449B1232AF9B095472312F400AD
:104620000547B38784002382E7B07D572302E40265
:1046300037070A051307974023A4E7B011472386DD
:10464000E7B0E546054723A6E7AE239CD7AE18C4DE
:10465000B240224423AA018823AC918802499244A3
:10466000410182805171CECF9389018903A709004E
:1046700086D7A2D5A6D3CAD1D2CDD6CBDAC9DEC7CA
:1046800099476301F708938A418903A90A001544F1
:10469000631DA90CED3D2A846317050E1306C00B9C
:1046A00081454800EFE0BFC44808EFF0AFEFB747DF
:1046B0004332938737153EC28D472314F100050915
:1046C000C167138BF7FF935709012316F1004800C8
:1046D0009307C00A138A8189231521012317F1004A
:1046E000EFF08FD783240A00AA8B2AC893B4140052
:1046F000B20485660146A685254597D0FF1FE78051
:10470000207A19C1194495A09306C00B5000A685C4
:10471000294597D0FF1FE780A0786DF59306C00B61
:104720005000A6852D4597D0FF1FE780607731E9BF
:104730004800EFF05F9431C5B2470357A100B3F7CB
:104740006701C207D98F631EF902C247639BFB0250
:104750009305C00A480823A02A0123209A00EFF0FD
:104760009FAE23A6A18823A009002285BE502E5407
:104770009E540E59FE496E4ADE4A4E4BBE4B6D6149
:1047800082802144DDB70544CDB71571A2CDA6CBFB
:104790001306C00B9305F00F480086CFCEC723A8A1
:1047A0000188A38D018ACAC9D2C5D6C3EFE03FB440
:1047B0009306C00B500081452D4597D0FF1FE78021
:1047C000206EAA89938401891384B18B6316051026
:1047D0004800EFF05F8A81479306F00F1307C00B84
:1047E00050003E96034606006316D60E8507E399F1
:1047F000E7FE054A014915C54808EFF02FD2835757
:10480000C1000357A1009305C00AC207D98F23AA8C
:10481000F188480823AC0188EFF0FFA223A6A18805
:1048200005491306C00B9305F00F4800EFE03FACBD
:104830009306C00B500085652D4597D0FF1FE7807C
:104840002066AA8A49ED4800EFF0FF823335A000C8
:1048500081479306F00F1307C00B50003E960346A6
:104860000600631FD6068507E399E7FE8547B3E98F
:10487000590155C5138A4189630D09008357C10049
:104880000357A100C207D98F03270A00998F6353EA
:10489000F00C4808EFF08FC88357C1000357A10000
:1048A0009305C00AC207D98F2320FA00056748087C
:1048B00023ACE188EFF03F9923A6A188638C09021D
:1048C00099479CC08347040093E727002300F40026
:1048D0000149BDA0014A39BF0149014A99B70145C3
:1048E000814771B763060A0081C785479CC0A1A0B4
:1048F0009547EDBF6305090623A00400D1BF91478A
:104900009CC083470400AA853725030093E727004E
:104910001305052C2300F400EFC0A25655BF631EFB
:104920000902E38109FC99479CC08347040093E78F
:1049300027002300F4005D391949639309002149D8
:10494000FE406E444A85DE444E49BE492E4A9E4A88
:104950002D618280E38209FAA5B7E39309F6938972
:10496000418903A50900FD392A8951F989479CC06D
:104970008347040083A509003725030093E7170048
:104980001305C5282300F400EFC0A24F55BF3171B5
:10499000480006DF22DDEFF0EFC09305C00A4800B3
:1049A000EFF07F8A83A7C1886318F50203A7018906
:1049B00091476307F7000145FA506A5429618280E4
:1049C000138441890840793965F9184085470545C0
:1049D000E313F7FE4139CDB703A54189E5BF03A530
:1049E0004189828003A501898280411106C622C4C3
:1049F00026C22A84EFF09FBF8547014523A8F1888E
:104A000095319384018909E503A54189A13915C12F
:104A100091479CC09387B18B03C707002A84136713
:104A200027002380E7002285B240224492444101BE
:104A300082808D4711E09D479CC075D49387B18BD0
:104A400003C707000144136717002380E700E1BF95
:104A5000317152D523AA018A2389018A238D018AC3
:104A60009386418B1387218B9387A18B4AD94ED78D
:104A700056D362CD66CB6AC96EC7239C018A06DF16
:104A800022DD26DB5AD15ECF814D014C014D814C98
:104A9000814A02C601498149138A818B36C83ACAC4
:104AA0003ECC1306C0029305F00F2810EFE03F84C0
:104AB0009305C002B385BA028D6793940A019306E9
:104AC000C00230102D45C180BE9597D0FF1FE780F2
:104AD000203D19C9850423109A000549850A9307CA
:104AE0000004E390FAFC39A0A2577D57639BE70CC2
:104AF00023109A001306C0029305F00F2810EFE070
:104B00000FFF99659306C0023010938505E02D458F
:104B100097D0FF1FE780C038631B050E2257FD5753
:104B20006308F70E2810EFF00FF9630E05125247D5
:104B30008547B2542300F70063860900B3876441B8
:104B40006353F0021306C0022C10C808EFC06223A2
:104B50006254A64B034CC104834DD104034DE104C0
:104B6000834CF104268BB7440020938744B18569B8
:104B7000BE996146EC08138549ADA2D2EFC0622010
:104B8000B75700204167938444B1938747B163646A
:104B9000E4001304F7FF239089B023AA740123A62D
:104BA00087AF23AAB7AF239CA7AF23AE97AF63030A
:104BB0000C00814BC24723A87401854923A06701DB
:104BC00091A82810EFF02FEF21C1B257638609009A
:104BD000338767416356E0021306C0022C10C808F1
:104BE0003ECEEFC0021AF2476254A64B034CC104FA
:104BF000834DD104034DE104834CF1043E8B854980
:104C0000850423109A00D9BD85473EC6D5BF054906
:104C1000E39B09F4B24789CB9387B18B03C70700A5
:104C2000136717002380E700630209046247854782
:104C300019492300F7009387B18B03C70700136757
:104C400027002380E700FA506A544A85DA544A590B
:104C5000BA592A5A9A5A0A5BFA4B6A4CDA4C4A4DAC
:104C6000BA4D2961828085473EC65DB7E39D09FC48
:104C70002149D1BF1971A6DA83C4A18B86DEA2DCDB
:104C8000CAD8CED6D2D499C89944F650665426854F
:104C90004659D654B659265A09618280B7575434BA
:104CA000938727E53EC43749002083A7418B13092A
:104CB00049B105644A948507930544AD61460808E7
:104CC0003EC602D8EFC0E20B83274901930580025C
:104CD00028003ED48327C4AE130AF0039389418B86
:104CE0002306F102832744AFA306F102835784AF62
:104CF0002307F1028327C4AFA307F102EFF0AFD47B
:104D000083D7818B2AD81384818B6374FA0819693D
:104D1000930600100146930509E0254597D0FF1F33
:104D2000E780001819C1A1448DB79306C002300076
:104D3000930509E0294597D0FF1FE780601665F5C8
:104D40009306C0025018930509E02D4597D0FF1F28
:104D5000E780001569F91306C0024C182800EFB06F
:104D6000F27F71F14818EFF00FD555DD0547238923
:104D7000E18A83570400637EFA00856601468D65EB
:104D8000254597D0FF1FE780A011E31F05EE2310F4
:104D90000400035904009307C0029306C0023309BC
:104DA000F9028D67300029453E99CA8597D0FF1FCB
:104DB000E780000F8357040085072310F400E315F4
:104DC00005EC9306C0025018CA852D4597D0FF1FE9
:104DD000E780000D29F91306C0024C182800EFB037
:104DE000F27731F15257B7575434938727E5E31CD4
:104DF000F7F27644930580024818EFF0CFC4E3142D
:104E0000A4F2B2471384218B23A0F9008347040046
:104E1000E38D07E69965930600100146938505E04A
:104E2000254597D0FF1FE780A007E31005E6230084
:104E30000400A1BD5D71A2C403C4018B86C6A6C2D5
:104E4000CAC04EDE52DC56DA5AD85ED611CC1944AE
:104E50002285B640264496440649F259625AD25AEF
:104E6000425BB25B61618280B747002083C4C7B3F5
:104E7000A94763EA970E2685EFE07FE083A7418A82
:104E8000AA8A1389418AE385A7FCB75752329387D0
:104E900037953EC483A7818A02C8314685072C0016
:104EA0007D553EC623089100EFE05FD70566374A7F
:104EB00000201306A6A09305DAB32AC2EFE01FD69E
:104EC00083A6C18A1345F5FF2AC21167938B818A95
:104ED000138BC18A99646383E600916485660146F9
:104EE000A685254597D0FF1FE78080FB2DF1B146B1
:104EF0003000A685294597D0FF1FE78060FA21F989
:104F000085699386A9A01306DAB39385C400294561
:104F100097D0FF1FE780C0F81DF9938569A19146DE
:104F20005000A695294597D0FF1FE78060F705F14F
:104F300001464C082685EFE03FFE05C93247D247BF
:104F40006395E702E24612476391E6028346C10198
:104F500003470101639BE6002320590123A0FB00C6
:104F600023209B00F5B50544E5B52144D5B539713D
:104F7000130671002C00116506DE26DA4AD84ED6DB
:104F800022DCA3030100EFE03FF92A891306710038
:104F90004C081965EFE05FF82388018AAA89938499
:104FA000018B4DC163070900D2472247998F635D8A
:104FB000F008130671004C081965EFF0CF940DC18D
:104FC0000344710045C085472380F4009387B18B6B
:104FD00003C707001944136727002380E70075A063
:104FE00063090900130671002C001165EFF0AF9101
:104FF00061F9056637450020B74700201306A6A0D3
:1050000081451305D5B3238E07B2EFE04FAE23A23F
:10501000018A23A4018A196723A6E18A83477100C4
:10502000DDF38347210189C78347E1012144B1EFC3
:105030009387B18B03C707002144136717002380B0
:10504000E700A1A0E30709FA130671002C0011651F
:10505000EFF06F8B35F5E38E09F8130671004C08FD
:10506000196569B7630339039384418A03A904006E
:10507000934719009CC07D3B9387B18B19ED03C703
:105080000700136717002380E7002285F25062545F
:10509000D2544259B2592161828003C7070023A02C
:1050A000240113672700C5B72DC5B725030041119B
:1050B0000D469385852F22C406C62A84EFB0124A76
:1050C000814739E10307F40021E38D471D46A545DB
:1050D0006545BD46639CC700034774001307F7FB93
:1050E0001377F70F637EE500814739A83307F40093
:1050F00003470700130707FD1377F70FE3E6E5FE05
:105100008507E399D7FC8547B24022443E8541019B
:10511000828081473E8582806D151375F50F9D470E
:1051200063E9A7026D161376F60F054563E4C7021F
:10513000A94763E1B702B315B50093F5F57799C9AF
:1051400063EAD7003315D5001375F57713351500CD
:10515000828005458280011106CE22CC26CA4AC82B
:105160004EC663070514034905000544630B091087
:105170009377C90F639707108346450003463500B0
:1051800083452500AA840345150079372A846311D5
:10519000051203C75400854763ECE71003C764009A
:1051A00063E8E71003C7740063E4E71083C7940063
:1051B00003C78400A207D98F638C070E83C7B4008E
:1051C00003C7A400A207D98FC517C2070567C1830B
:1051D000930617E063EEF60C83C7D40083C6C400C1
:1051E000130767E0A207D58FD917C207C183636190
:1051F000F70C83C7F40003C7E400A207D98F89170F
:10520000C207C1831307A0236364F70A9305000351
:1052100013850401EFE0BFEA41CDD14513850404B5
:10522000EFE0FFE951C593894405930500024E85DF
:10523000EFE0FFE835CD93864407814793050002F0
:1052400005451308C0059308B0023387F40003072F
:1052500047071396070141820DEF39CA03864407B9
:105260001307F0026306E604B6978387F7FF6381AE
:10527000E70413792900630609004E853535133498
:1052800015002285F2406244D2444249B249056188
:10529000828063DFE5001306E7FD1376F60F63797E
:1052A000C50063070701630517018507E39FB7F88A
:1052B0000544C1BF1441411137574D3226C206C6BD
:1052C00022C4130737F48144639FE60283464500F6
:1052D0000D472A8481446398E602834655001307EC
:1052E000100A6392E6028356A50013074009639CE7
:1052F000E600EFE0FF9B5C446397A7001305040101
:10530000993D93341500B2402244268592444101D0
:1053100082801571D6C386CFA2CDA6CBCAC9CEC70F
:10532000D2C5DAC15EDFAA8A3D3583C7118BC9EBCE
:10533000AA846313050E13064009938581B8568528
:10534000EFB0D22103A4C1899389C18911E169E435
:1053500083A7018A0967138A018A13890710638367
:10536000E7000969B7574D32938737F43EC6E977AE
:105370009387371005042318F100C167138BF7FFDB
:105380009357040113064009D685231AF1006808D3
:1053900093074009231BF10002CC23198100EFB0D1
:1053A000521E6800EFE0DF90AA8B2ACC9306001013
:1053B0000146CA85254597D0FF1FE78060AE19C119
:1053C000994499A89306400A7000CA85294597D048
:1053D000FF1FE780E0AC6DF59306400A7000CA85B8
:1053E0002D4597D0FF1FE780A0AB79F96800D9352C
:1053F0001DC1034711019307100A631EF700D2472E
:1054000003572101B3F76701C207D98F6315F40071
:10541000E247638FFB00A144FE406E4426854E495F
:10542000DE44BE492E4A9E4A0E4BFA5B2D618280B5
:1054300083A70900568523202A01850723A0F900A8
:10544000EFE07F89D1BF1571DAC11306400A9305D9
:10545000F00F680086CFA388018AA2CDA6CBCAC967
:10546000CEC7D2C5D6C35EDF62DDEFD05FE893065C
:10547000400A700089652D4597D0FF1FE78040A244
:10548000138B118B6315052E31466C000A85EFB026
:10549000520F68000535014419C503441101130476
:1054A000F4F51334140081479306F00F1307400AF4
:1054B00070003E9603460600631FD60C8507E399ED
:1054C000E7FE854A014905C0835741010357210181
:1054D0006808C207D98F23AEF188096723A0E18A43
:1054E0000549EFE04FFF1306400A9305F00F6800EF
:1054F000EFD0FFDF89659306400A700093850510A1
:105500002D4597D0FF1FE780A099631205266800FC
:105510005533814419C5834411019384F4F593B440
:10552000140013F6F40F81479306F00F1307400A97
:105530006C00BE9583C505006391D5068507E39988
:10554000E7FE054A9375F40FF1C8835741010357ED
:105550002101C207D98F1387C1896307090014434A
:10556000B386D740635ED00A1CC389679387071050
:10557000680823A0F18AEFE00FF615C00145FE4050
:105580006E44DE444E49BE492E4A9E4A0E4BFA5B9B
:105590006A5C2D618280814A35B7014A65B7096925
:1055A000B7574D329389C189938737F403A7090010
:1055B0003EC6E977938737102318F1000507C167C6
:1055C00013064009938581B82319E100938BF7FFF7
:1055D0004183930740096808231AE100231BF10067
:1055E00002CCEFB0027A6800EFE08FEC2A8C2ACC74
:1055F000930600100146CA85254597D0FF1FE78016
:10560000208A0DC985472300FB009387B18B03C710
:105610000700136727002380E7008DB7630F090693
:10562000E38EC5F403A9018A8967E31AF9F6130921
:105630000910BDB79306400A7000CA85294597D066
:10564000FF1FE780E0855DFD9306400A7000CA8574
:105650002D4597D0FF1FE780A0844DF56800EFF03F
:105660007FC54DD1E247E31FFCF8D2470357210124
:10567000B3F77701C207D98F23A0F90023A0218BAC
:1056800019C0E31D0AEE99C0E39A0AEE9387B18B25
:1056900003C7070013671700BDBFEFE03FB523AE98
:1056A000018889679387071023A0F18A0247B757BB
:1056B00050329387C7246319F708A244A1450A858D
:1056C000EFE07FB86392A40883444100034B51008C
:1056D0008349610003497100DA854E86CA862685B2
:1056E000EFF09FA335E1938781B8A38097002381D2
:1056F0006701A38137012382270129476395E402CB
:1057000011476312EB022147639FE900631D990073
:105710002547A380E7000567130747A02391E7000B
:1057200015472382E700138581B8EFE0CFDA93872E
:10573000B18B03C70700138581B813671700238057
:10574000E700EFF01FBD25BD138581B8EFE0AFD8AE
:1057500063850A002145E3140AE29387B18B03C7EE
:1057600007002145136717002380E70009BDEFE01C
:10577000FFA7EFE09FBA138581B8EFE0CFD523AE46
:10578000018889679387071023A0F18A8547230042
:10579000FB009387B18B03C70700194513672700E8
:1057A0002380E700E9BB138581B8828003A5C18906
:1057B000828003C581B80589828003C581B80581CF
:1057C000058982807971D54706D622D426D24AD05F
:1057D0004ECE2317F10009E90545B25022549254E8
:1057E0000259F2494561828065DAD147AE84E3F51A
:1057F000B7FE8D472300F500938981B883C7090060
:10580000328993860901A300F50083C719001306A6
:10581000E1002A842301F50083C72900A301F500D4
:1058200083C739002302F50083C74900A302F500AE
:1058300083C759002303F50083C76900A303F5005C
:1058400083C779002304F50083D78900A304F500FA
:1058500083D78900A1832305F50083D7A900A30579
:10586000F50083D7A900A1832306F50083D7C900DB
:10587000A306F50083D7C900A1832307F50083D7CA
:10588000E900A307F50083D7E900A1832308F50009
:1058900083A7C18913D78700A308F5002309E50072
:1058A00013D70701E183A309E500230AF5001307D5
:1058B0000003EFE00FD80DD151479386090413067A
:1058C000E100A6852285EFE0CFD6E30705F01307B8
:1058D0000002938649051306E100A6852285EFE0C4
:1058E0004FD5E30B05EE1307000293864907130615
:1058F000E100A6852285EFE0CFD3E30F05EC8357C7
:10590000E10001452310F900C9BD0111D54706CEBC
:1059100022CC26CA4AC82317F10001E90545F24006
:105920006244D2444249056182806DDAD147E3F78F
:10593000B7FE034705008D47E312F7FEB2842E89B8
:105940002A8413064009938581B82685EFB0624307
:105950008347140015452380F40083472400A38067
:10596000F400834734002381F40083474400A3817B
:10597000F400834754002382F40083476400A38229
:10598000F400834774002383F40083478400A383D7
:10599000F4008347A40003479400A207D98F23840F
:1059A000F400A183A384F4008347C4000347B40038
:1059B000A207D98F2385F400A183A385F400834730
:1059C000E4000347D400A207D98F2386F400A18303
:1059D000A386F400834704010347F400A207D98F8C
:1059E0002387F400A183A387F400834714010347AE
:1059F000240122075D8F83473401C2075D8F8347EF
:105A00004401E207D98F03A7C189E31AF7F013070E
:105A10000003938604011306E100CA852285EFE0A6
:105A2000AFC8E30D05EE5147938604041306E10069
:105A3000CA852285EFE04FC7E30205EE1307000297
:105A4000938644051306E100CA852285EFE0CFC5A1
:105A5000E30605EC13070002938644071306E100F2
:105A6000CA852285EFE04FC4E30A05EA8357E100C7
:105A7000E39627EB2685EFF00FEE55B56FF0BF9C50
:105A8000317122DD26DB4AD94ED706DFAA892E895D
:105A9000B2843684EFF04FE883C7118B9DEB1DE194
:105AA00013064009938581B86800EFB0822D680025
:105AB000A306310123072101A307910023088100D8
:105AC000EFF03F85FA506A54DA544A59BA592961BD
:105AD00082801945C5BF01114AC8138581B81305D5
:105AE000450522CC06CE26CA02C002C202C402C6A6
:105AF000EFF08FDB1384C1BD11C54146A2850A8535
:105B0000EFB02228856601468965254597C0FF1FAD
:105B1000E78000396318050E856601468D652545C9
:105B200097C0FF1FE780C037631E050C996493067A
:105B300000100146938504E0254597C0FF1FE780CC
:105B400020366311050C856601469165254597C091
:105B5000FF1FE780E0345DE58566014699652545D0
:105B600097C0FF1FE780C03351ED85660146814530
:105B7000254597C0FF1FE780A03249E585660146AD
:105B80008565254597C0FF1FE780803125ED23AA55
:105B9000018A239C018A2389018A238D018A23A2F9
:105BA000018A23A4018A23A6918A2388018AA388D3
:105BB000018A23AE018889679387071023A0F18AA1
:105BC000EFE0CFE241468A852285EFB0821B138544
:105BD00081B8A38D018AEFF0CFF30DE537240020C3
:105BE00013058420EFB082409375F50F13058420D0
:105BF000EFE01F8201E96244F240D244424905616C
:105C00006FE0BFDEF2406244D2444249194505616B
:105C1000828003C5B18B8280C16705668146FD170E
:105C2000130616021397060141836364B7003E858D
:105C300082803307D500034707002207B98F214729
:105C4000139807018607C20713580841C18363539D
:105C50000800B18F7D171377F70F7DF38506D9B74D
:105C6000854755CDCDCDC5CE011126CA83546500DB
:105C700006CE22CC4AC84EC61307000F63699708A8
:105C800099C0184549C71389B4004209135909013D
:105C90008547636E2607930750FA2380F5008947EE
:105CA000A380F50083470500B6892E842381F50083
:105CB00083572500A381F500A1832382F500834744
:105CC0004500A382F500834755002383F5008357E1
:105CD0006500A383F500A1832384F50003566500C6
:105CE00011C60C4513059400EFB0A20993859400EA
:105CF000C205C18122850D379305E9FF2E9423004B
:105D0000A4002181A300A400239029018147F2402F
:105D10006244D2444249B2493E85056182803E8553
:105D20008280854755C94DCA29476377B70A011153
:105D300022CC06CE26CA4AC84EC6834605001307A3
:105D4000500A2A846392E608834615000947639D3A
:105D5000E6068349850003477500A209B3E9E90017
:105D60001307000F636237079384B900C204C18030
:105D7000639CB404F91493950401C181A2943289FF
:105D8000613D03C7140083C7040022075D8FA1474C
:105D9000631CE5028347240025042300F9008347A0
:105DA000B4FF0347A4FFA207D98F2311F90083474B
:105DB000C4FF2302F9008347D4FF231339012324AE
:105DC0008900A302F9008147F2406244D24442496B
:105DD000B2493E85056182803E85828011C51306E9
:105DE000001581456FD0AFD082800548630F05183C
:105DF000638D0518638B061863890718914863F64D
:105E0000C818797106D622D426D24AD04ECE52CCAA
:105E100056CA5AC85EC662C403C9250041439308E6
:105E2000F9FF93F8F80F6364130B83CB150063F04D
:105E30002B0B6D1693140601C1801306600F636867
:105E4000960803C605001373F6036312030813BE16
:105E50001B0013537600631C6E061982B3887841C9
:105E600093B81800058A6394C80683C945003E8A22
:105E700083C73500A2093A8BB3E9F90083470500CF
:105E8000B68A2E8C2A8489CB8357250063963701E6
:105E900083474500638B2701228589378547230087
:105EA000F40023113401230224011C44B3D77701E9
:105EB000858BA5EB8357C4009306B00F33879700FB
:105EC0004207418363F2E6022285093F0548B2504A
:105ED000225492540259F249624AD24A424BB24B7E
:105EE000224C42854561828093991B00A29913053B
:105EF00024052398F9023E95268693055C00EFA0C1
:105F000052688357C400A6972316F400239799007C
:105F10008547B3977701832B8400B3EBFB002324E1
:105F200074011444814733D7F600058B29CF8507C8
:105F300013F7F70FE36927FF930BE40081498144CE
:105F4000130C240503D60B00B3079600C207C183C8
:105F5000E36CFBF683D52B0233859A008509E29525
:105F6000EFA0326283D70B0093F9F90F890BBE942F
:105F7000C204C180E31839FD23109A002285EFF096
:105F8000FFE50148A9B70D4899B74285828093D7AC
:105F900085002300B500A300F50093D70501E1813A
:105FA0002301F500A301B500828037470020930646
:105FB00047B18567B69783A6C7AE1336150023A6EB
:105FC000C7AE93B61600130747B16380A60283D607
:105FD00047AE41667D166385C60085062392D7AE1F
:105FE00083A7019811C11CCB5CCB8280BD47638421
:105FF000F500054582802320060023220600231495
:106000000600230506000347150083470500220705
:106010005D8F2310E6000348250023010601834518
:106020003500A301B6008347550083464500A2070B
:10603000D58F2312F60003436500230366008348CF
:106040007500A303160183469500034E8500A20642
:10605000B3E6C6012314D6000345A5002305A60018
:1060600049DB93060002E3E606F98946E3E3B6F866
:106070000548E36068F8E36E18F7639CD500B5DB6C
:10608000E309F7F61305E5FA1375F50F1335D50A8D
:10609000828023120600FDB723AE018A828023AEE0
:1060A000018A82809387C18B9443014591CA03A7DB
:1060B00081980545158F6345070023A0070001451A
:1060C0008280411122C406C626C24AC0B9472E8426
:1060D0006312F510A547054963E1B706B7440020F0
:1060E000938744B198538547938444B1114963160B
:1060F000F70493071010B387F502A69783C797029A
:106100008DCF13F4F50F2285EF20504D0D4915C5A5
:106110009D4763ED8700B72503000A04938545304A
:106120002E941C4082870545EFF03FE813052003BD
:10613000EF10602E0149EF401023B24022444A85FF
:1061400092440249410182800145F9BF8567BE94AE
:10615000854723AAF4AED9BF8567BE949147D5BFC2
:106160008567BE948947F5B78567BE948D47D5B7D7
:106170008567BE9403D784AFB7570020BD4641174B
:1061800042074183938747B163F5E6006547239C47
:10619000E7AE03D787AFF946E3EAE6F80507239CA5
:1061A000E7AE69B78567BE9403D784AFB7570020C1
:1061B000BD46411742074183938747B163F5E60027
:1061C0006547239CE7AE03D787AFC146E3F0E6F609
:1061D0007D17F1B79307F5FF93F7F70F31472A893A
:1061E000636AF71A372703008A0713074732BA97FB
:1061F0009C4382878547E3E2B7F4B334B0009384CD
:1062000004082685EF203023630605182685EF2035
:10621000304563030518854733358000E306F9F000
:106220008947631DF90CB7570020938747B123AA0C
:1062300087AEEDBD91479384150AE3F4B7FC054999
:10624000EDBD938705F6C207C18313076009E368B4
:10625000F7FEA944B3F79502FDF3B3D495029384F6
:10626000040345B78D4793841505E3FCB7F8C1BF18
:10627000894793841506E3F6B7F8D1B78547E3E07D
:10628000B7FCB334B00093840407A5BF8547E3E8A7
:10629000B7FAB334B0009384040BA5B78547E3E0A5
:1062A000B7FAB334B0009384040CA1BF8547E3E888
:1062B000B7F8B334B0009384040DA1B78547E3E089
:1062C000B7F8B334B0009384040E25BF8547E3E8E4
:1062D000B7F6B334B0009384C40925B78547E3E02B
:1062E000B7F6B334B0009384E40921BF8547E3E8EF
:1062F000B7F4B334B0009384640921B78D47631CAD
:10630000F900A945B355B402B7570020938747B1A8
:10631000239CB7AE21BD91476319F900B757002000
:10632000938747B123AE87AE11B5B5476314F9041F
:10633000B7570020938747B183D787AF37570020DF
:10634000BD46C117C207C183130747B163F5F60005
:10635000E547231CF7AE835787AF01C8F946E3E74B
:10636000F6DC8507231CF7AED1B3C146E3F0F6DCBB
:10637000FD17CDBFAD47E31BF9DA0545EFF0FFC2CE
:10638000114711E00547B7570020938747B123AA6B
:10639000E7AE69BB114955B30D4945B31171A2DD93
:1063A000CED786DFA6DBCAD9D2D5D6D3DAD1DECF17
:1063B000E2CDE6CBEAC9EEC72310060083474500CD
:1063C000130700052E84B289E38CE7322A89636FB4
:1063D000F71649476380E7506363F7081547638EF4
:1063E000E73C636AF70005476380E72E0947638748
:1063F000E73491445DA641476380E7404547E39A0F
:10640000E7FEB7470020938747B103D727002390C3
:10641000E50003D747002381E50005673E978346E3
:1064200057B0A381D500835667B02392D5000347A8
:1064300047B02383E5009853A383E50003D76702A1
:106440002394E50083C747022385F500EFE02FD9A9
:10645000AA851305B400EFF09FB3BD4749AE1307FB
:106460000003638EE760636BF7024D47638CE7467A
:1064700013070002E39FE7F6035765008D47854445
:10648000631DF7301C4503C7270083C5170003C5EC
:1064900007002207D98DEFF0DFC299A1130700048E
:1064A000E387E70813071004E38DE72013071003C1
:1064B000E391E7F4B7550020938545B11306000A30
:1064C000938545A30810EFA0D20B83576900374A84
:1064D00000201147130A8A54637CF7780329890046
:1064E0002947834409006365977839473387E40275
:1064F0001507639FE776374500201306000A81459C
:1065000013058554EFC0BFDE930719005287814EF3
:1065100089439302F05905451309000F930AF005CA
:10652000654B930B50FA6393D46BEFE04FCBEFE0E6
:106530006F93AA84631F0572EFE06FCAAA85228554
:10654000EFF0FFA491472390F90081AC1307600599
:10655000E38CE72A6364F70613073005E382E72636
:106560006360F70413071005E387E75C1307200552
:10657000E391E7E8B7570020938747B103C787B097
:106580002380E50003C797B0A380E50003C7A7B049
:106590002381E50083C7B7B0A381F500914781ACA3
:1065A00013074005E388E72413075005E393E7E466
:1065B0009305000F2285EFF0EFA01DA613079005AD
:1065C000E382E7486362F70213077005E38CE72E66
:1065D00013078005E39FE7E0835765008544639ECA
:1065E000071AEF40C0564DAA1307B005E38CE752D7
:1065F000E3ECE74E1307F005E39DE7DEEF70E00400
:1066000085472300F40083475500AA84A300F400C3
:106610008345D5008347C500A205DD8D8347E5008E
:10662000C207CD8F8345F50013052400E205DD8DFB
:10663000EFF0FF9583C5140183C7040113056400BF
:10664000A205DD8D83C72401C207CD8F83C5340128
:10665000E205DD8DEFF0BF9383C5540183C744018C
:106660001305A400A205DD8D83C76401C207CD8F89
:1066700083C57401E205DD8DEFF07F9183C51402BF
:1066800083C704021305E400A205DD8D83C724023D
:10669000C207CD8F83C53402E205DD8DEFF03F8F59
:1066A00083C5940183C7840113052401A205DD8DF0
:1066B00083C7A401C207CD8F83C5B401E205DD8D78
:1066C000EFF0FF8CD94725A2B7470020138747B1C9
:1066D0001853938447B10DEF13050008EF20A05520
:1066E000896531C99385F5EF2285EFF05F8AB70799
:1066F0001613938727205CC09C502304F400EF20DE
:10670000700AA304A40021812305A400AD47C5A0FD
:10671000EF205009137735008D478965631AF7001C
:10672000938515AF1375C50361D193E525006DBF42
:10673000938505AFC5BF938505AF7DB7EFD0DFC0AB
:10674000AA8AEFA0B20A2A8A1379F50FEFF0AF8573
:10675000930545052E852EC6EFE01F95AA84B24508
:1067600011C1BD44894726862300F400A30094008C
:1067700013052400EFA0E260B307940013853400F2
:10678000238127011376FA0FD68522950D09EFA0F4
:10679000425FCA94239099008144FE506E5426852E
:1067A0004E59DE54BE592E5A9E5A0E5BFE4B6E4C0D
:1067B000DE4C4E4DBE4D11618280835765009DCBEE
:1067C0008544E3ECF4FC1C4583C707001387F7FFFF
:1067D0001377F70FE3E3E4FC03A7819889669386B8
:1067E000067136972300F40023AEE18A8547239093
:1067F000F9005DB78547CDB7EF10D042B74700200D
:10680000938747B18564BE9403A7C4AE83D604AF13
:106810002946133717002300E40003A744AF2A8951
:10682000A300E40003D784AF2312D4003307C702C8
:106830002311E40003A7C4AF2303E40003D7C4B0CB
:10684000A303E40021832304E4009C47A304F40091
:1068500083C744B0A30504002316040093B71700B0
:106860002305F40023070400EFE06F97AA851305C2
:10687000F400EFF0CFF18347C9001305A401A30989
:10688000F40083570900231AF40083572900231BBF
:10689000F40083574900231CF40083A544ADEFF0B6
:1068A0000FEF83576900231FF400EFD0CF9623002A
:1068B000A402EFD0AF96A300A40221812301A40279
:1068C000EFD02F96A301A40221812302A4029307F3
:1068D000500231BF8355650008455008EFF00FF1B5
:1068E000AA8465BD8355650008455008EFF00FF098
:1068F000AA84E31405EA37490020930749B1034706
:10690000B10183C70702130949B16312F70E035798
:10691000C10183576902631CF70C0347E1018347F8
:1069200049026316F70C8564CA9483C644B0130603
:10693000000A938544A3081036C6035D2900035B53
:10694000490083AC44B0832A0902035A6902034C0C
:106950004902EFA00243835741018345A101034748
:10696000B1012311F900834761010346E101B75DDD
:1069700000202312F900834771012382B4B0232041
:10698000E902A382F4B0835781012302C902938DE7
:106990004DB12393F4B08357C101B74B0020B246E9
:1069A0002313F90239CB014783C7CDB00A07ED9B0A
:1069B000D98F2386FDB06384B600EF801017EFE017
:1069C0000F82EFD03FCAAA8421E9EFE04F81AA8568
:1069D0002285EFF0CFDB91472390F90085472324F0
:1069E000F9009167938787A923AEF1987DB3EF20D3
:1069F000205E8D44E30305DA3DB713051005054716
:106A0000E364C5FAFD17C20741677917C183B3B7BD
:106A1000E70013C7170049BF137BFB0F93FAFA0F68
:106A20002311A9012312690123A29DB12320590337
:106A30002313490323028903814763910A02130741
:106A400010058547636C87017D1A420AC167F917F3
:106A5000135A0A01333AFA0093471A0003CACDB019
:106A60008A071306000A137ABAFF336AFA002386EC
:106A70004DB10C1013858B54EFA0A23039BBB74534
:106A80000020814681480147938545B10545294647
:106A90009387360A9207AE97DC4313F81700630B0F
:106AA00008008583990705079D8B1377F70F6363AC
:106AB000F50085488506E39DC6FCB7470020230006
:106AC000E40093879754014885440943854E130F8A
