:020000040000FA
:040000006FD00600B7
:101000006F20C020000000000000000090000020C1
:1010100092000020A9BDF9F3940000200000000018
:101020000000000096000020980000200000000052
:10103000000000009A000020000000009C0000203A
:101040000000000064020020A0000020A200002098
:10105000A4000020A6000020A8000020AA00002074
:10106000AC000020AE000020B0000020B200002044
:101070004E010020C6000020B8000020BA00002069
:10108000BC000020BE000020C0000020DC000020CA
:10109000C400002001A001A001A001A001A001A0A6
:1010A00001A001A001A001A001A001A001A001A038
:1010B00001A001A001A001A001A001A001A001A028
:1010C00001A001A001A001A001A0B71700401307D3
:1010D00000032388E702054723A6E186730020303A
:1010E00037470040834747C09146BD8B638FD70089
:1010F00063E7F60009476389E704730020309946E7
:10110000638AD7003147E39AE7FE3746004013056C
:10111000F00F0DA0834757C0CDB7034786C01377A4
:10112000F70F638DA6001388160023800701B6977A
:101130002381E70083C681C1938781C10347A6C08D
:101140001377F70F79FB55BF978000E0E780C00762
:101150006DB7138741F803472705938741F819EFC7
:10116000971001E0E78060A0B7E700E037070008CC
:1011700023A0E7180F10000073002030B73600409E
:1011800003C7464011463D8B6304C702636CE6000B
:101190008947E313F7FE89450145971001E0E78091
:1011A000209AD9BF1946630DC700B146E316D7FC94
:1011B0004166B7380040938681307D169D4E89A0E8
:1011C00083C7564055BFC84B9385E19203D70500AE
:1011D000050503C88840C8CB138501930355050056
:1011E00005071377F73F1378F80F6311A70203D7AA
:1011F00007016305C70005072398E7002384D70389
:1012000003C7A8401377F70F5DFFBDB703D50500EF
:101210003695230005012390E500DDB7411122C476
:1012200026C24AC006C601441309703E512F97F0EA
:1012300000E0E780E0BB692797F000E0E780A0BF0F
:10124000412797F000E0E78000C209E883A7819773
:10125000E37EF9FC97A000E0E780401497A000E04F
:10126000E780204E0544D9B7372700408347670001
:10127000858BB1C305462303C700138781981C43A0
:1012800085071CC3138781971443A90614C313F75A
:10129000170019E3238FC196294733F7E70201E7C7
:1012A0008546238ED19613074006B3F7E70281E700
:1012B0000547A38EE1967300203073270080218BB1
:1012C0009387019D01CB7327008098C398435D9B52
:1012D000731007800F100000371700409306700549
:1012E0002300D704930680FA2300D7040F100000D0
:1012F0008346B70493F6F60DA305D704230007042D
:10130000732600809443A18AD18E7390068023A017
:1013100007000F100000937605026380061803474C
:10132000A700118B3DE373270080218B01CB73272E
:10133000008098C398435D9B731007800F100000D6
:1013400037170040930670052300D704930680FAF0
:101350002300D7040F1000008346A70093E6460041
:101360002305D70023000704F32600809843218B30
:10137000558F7310078023A007000F10000013077C
:10138000004B010001007D176DFF73270080218B4A
:1013900001CB7327008098C398435D9B731007802F
:1013A0000F10000037170040930670052300D70484
:1013B000930680FA2300D7040F1000007D892314C0
:1013C000A700010001000100010023000704F3262B
:1013D00000809843218B558F7310078023A007004E
:1013E0000F10000073270080218B01CB7327008032
:1013F00098C398435D9B731007800F100000371748
:101400000040930670052300D704930680FA23005A
:10141000D7040F1000000F100000B726004013067D
:101420001005A383C68023000704F3260080984399
:10143000218B558F7310078023A007000F10000029
:1014400073270080218B01CB7327008098C39843BA
:101450005D9B731007800F10000037170040930644
:1014600070052300D704930680FA2300D7040F10D9
:1014700000008346B70493E60608A305D7042300BB
:101480000704F32600809843218B558F7310078043
:1014900023A007000F100000828093760504638765
:1014A00006140347A700418B3DE373270080218B7F
:1014B00001CB7327008098C398435D9B731007800E
:1014C0000F10000037170040930670052300D70463
:1014D000930680FA2300D7040F1000008346A7006C
:1014E00093E606012305D70023000704F3260080B6
:1014F0009843218B558F7310078023A007000F108E
:1015000000001307007D010001007D176DFF7327A8
:101510000080218B01CB7327008098C398435D9B8B
:10152000731007800F1000003717004093067005F6
:101530002300D704930680FA2300D7040F1000007D
:101540009376F50193E606042314D7000100010009
:101550000100010023000704F32600809843218B3B
:10156000558F7310078023A007000F10000013078A
:101570006004631FE50273270080218B01CB732772
:10158000008098C398435D9B731007800F10000084
:1015900037170040930670052300D704930680FA9E
:1015A0002300D7040F100000B7260040094695BD60
:1015B00073270080218B01CB7327008098C3984349
:1015C0005D9B731007800F100000371700409306D3
:1015D00070052300D704930680FA2300D7040F1068
:1015E0000000B72600401306200525BD73270080A4
:1015F000218B01CB7327008098C398435D9B7310A8
:1016000007800F1000003717004093067005230075
:10161000D704930680FA2300D7040F1000008356E6
:10162000870093E6060C2314D700F5BB41118146D1
:1016300001468145114506C6EF10900673270080CC
:10164000218B9387019D01CB7327008098C398431A
:101650005D9B731007800F10000037170040930642
:1016600070052300D704930680FA2300D7040F10D7
:1016700000008346670493E616002303D704230083
:101680000704F32600809843218B558F7310078041
:1016900023A007000F100000B24041018280814664
:1016A000014681451145EF10A07F73270080218BF3
:1016B0009387019D01CB7327008098C398435D9B5E
:1016C000731007800F100000371700409306700555
:1016D0002300D704930680FA2300D7040F100000DC
:1016E000FD562316D70223000704F32600809843F3
:1016F000218B558F7310078023A007000F10000067
:1017000073270080218B01CB7327008098C39843F7
:101710005D9B731007800F10000037170040930681
:1017200070052300D704930680FA2300D7040F1016
:1017300000008346670493E616002303D7042300C2
:101740000704F32600809843218B558F7310078080
:1017500023A007000F10000001A0BD473305F502CC
:1017600001007D1575FD8280411122C426C206C686
:10177000AA84014463179400B24022449244410178
:10178000828005041305803E4204C13F4180DDB7DD
:1017900019CD91CD09CE81473387F50083460700E7
:1017A0003307F50085072300D700E317F6FE828094
:1017B00019C991C909CA910583A7C5FF11057D16ED
:1017C000232EF5FEC5BF828001C919C62A960505DC
:1017D000A30FB5FEE31DA6FE828081473307F50007
:1017E0000307070019E33E8582808507C5BF011105
:1017F0002E8626CAAA84131506019305F00441819A
:1018000022CC06CE32C6EF00F0512A8401C5324602
:10181000A685BD3F2285F2406244D24405618280A4
:10182000854715C18DC105C28147B306F5003387D1
:10183000F50083C60600034707006398E6008507A6
:10184000E315F6FE85473E8582808147EDBF93070D
:10185000F6FFBE952A966313C5008280FD1583C7E7
:1018600015000505A30FF5FEFDB7AA87014581CF39
:1018700009CE3E96850703C7F7FF6317B700E39BC2
:10188000C7FE0545828082800145828079719387F9
:10189000C19E22D4804306D626D24AD04ECE52CC08
:1018A00056CA5AC85EC65DCCB7C4C901014B9389FC
:1018B000419E9384F437176A0000130A2A82976ABC
:1018C0000000938A6A8517690000130929898357E4
:1018D000240085E35C44631B0B0023A6F19E832B4D
:1018E000C4002285EF0070505E84B9A82326FB0057
:1018F000FDB783A7090082971C443307F540637640
:10190000F500032749001D8F2A9763E0E4089767D5
:10191000000023AB07808355240003450400970093
:1019200001E0E78000695C405844A1CB0C440326E9
:101930004900AE97BE8663E4B70063E4C700B38690
:10194000C74014C4228B3A8459F0975700009387FC
:10195000A77C9C4B09476370F706F91717570000DF
:101960002324F77CB250225492540259F249624A1D
:10197000D24A424BB24B4561828063150B0023A6CD
:10198000E19EB1BF2326EB0099BF03274A0209CF8E
:1019900063EFA7003385A74083A70A016376F500AC
:1019A0009757000023A2A778228B404471BF0327DA
:1019B0004900BA97C5B79757000023A707765DB7C8
:1019C000411122C417540000130484771C4006C63A
:1019D00026C24AC091C782979757000023A2077674
:1019E0009767000083C7978F858B97640000938467
:1019F000A48E95C397670000A382078E83C77400E7
:101A00001547637AF700052B83C77400F5178A071B
:101A1000A2979C4382971C4491C382971389819D0E
:101A200003270900175600000346166F975700005A
:101A300083C7876E93961700BA9683D60600C5CEE5
:101A40009757000083C7476D63E1C70C97570000A5
:101A50002384076C1C40639507129767000083C7B7
:101A6000378891CF83C7740093F7F70F89EB976797
:101A70000000A3870786970002E0E780E074938761
:101A8000419E9C43638E070E975700009387076D16
:101A9000DC43175700002329F768CD3B9757000018
:101AA0009387C763DC53E9CF175700001307C76656
:101AB000184B9757000083C7B7636363F70C83C75E
:101AC00074001547636EF70A9767000083C7478560
:101AD000918BDDE7032609009756000083C6D66385
:101AE00063C6D70A2244B240924402494101170317
:101AF00003E06700633A850793F7F70F97560000F6
:101B0000238CF660E3E4C7F225BF86073E97835532
:101B10000700231007002390019E9387019F9C4399
:101B2000175500000345455F13172500BA979C43DE
:101B3000829783D7019E175700000347E75D93C73D
:101B4000F7FF7D8D93171700032709003E978357F2
:101B500007005D8D2310A7009757000083C7C75B60
:101B600091C78507175700002308F75A1757000039
:101B70000347875A9757000083C7175AE378F7EC53
:101B8000B2402244924402494101828013971700D7
:101B90003297035707006DF7850799B7AD6737C7C9
:101BA0000040BD072326F7200F10000097570000C4
:101BB00093878756C84F83278726BD66BD0693C780
:101BC000F7FF99836A052326D7205D8D8280411116
:101BD000B7170040985F3AC6945F3247E39CE6FE31
:101BE0003245410182801305F00F82800111975721
:101BF00000009387677A22CC03A4070C26CA06CE7E
:101C00002AC42EC6854419E40145F2406244D244F8
:101C1000056182808347910003471400858B63042C
:101C2000F7000044CDB719469305A1001305240021
:101C3000C53EE31895FE0545C9BF1387C1AA1C43DD
:101C40009306001094C301000100010001001C4331
:101C500023A007008346150003482500A20642087A
:101C6000C29603480500C296034835006208C29632
:101C700094D78346550003486500A2064208C296E1
:101C800003484500C296034875006208C296D4D73F
:101C9000834695000348A500A2064208C296034861
:101CA0008500C2960348B5006208C29694DB83465D
:101CB000D5000348E500A2064208C2960348C500C5
:101CC0000345F500C2966205AA96D4DB83C61500CB
:101CD00003C52500A2064205AA9603C50500AA96DB
:101CE00003C535006205AA9694CF83C6550003C587
:101CF0006500A2064205AA9603C54500AA9603C53B
:101D000075006205AA96D4CF83C6950003C5A500C9
:101D1000A2064205AA9603C58500AA9603C5B5008A
:101D20006205AA9694D383C6D50003C5E500A20632
:101D30004205AA9603C5C50083C5F500AA96E2052B
:101D4000AE96D4D3D443F59AD4C3D44393E61600C5
:101D5000D4C3944393E6160094C3BA879443D842FD
:101D6000058B59E3984E01452300E6009843184F30
:101D70002183A300E6009843184F41832301E60026
:101D80009843184F6183A301E6009C43D84F230278
:101D9000E600D84F2183A302E600D84F41832303F6
:101DA000E600D84F6183A303E60098532304E600BE
:101DB00098532183A304E600985341832305E6004A
:101DC00098536183A305E600D8532306E600D85351
:101DD0002183A306E600D85341832307E600DC53A2
:101DE000E183A307F600828001008DBF138701AB5A
:101DF0001443411122C49C5E4AC006C6998326C280
:101E0000858B3A841389C1AAD1C79C5E9754000080
:101E10009384844C93F7F7F99CDE1757000003472F
:101E2000074C93070008631BF700832709009C43B6
:101E300093F70704175700002303F74A83C70400EA
:101E400093F707048DC39387419E9C4382979757CE
:101E5000000023ABA74883C7040093F7F70B17577D
:101E60000000230BF74683C7440093F707049DE364
:101E7000854717570000A303F7469387C1AB9C43E0
:101E8000096798C7130700FC975600002388E644AB
:101E9000D844F8D31C40985F1183058B09CB985F19
:101EA0003D9B98DF0547975600002389E642985FDF
:101EB0001D83058B11CB985F1377F7F798DF854764
:101EC00017570000230CF74083270900D8430583E8
:101ED000058B19C7D843759BD8C3D843799BD8C302
:101EE000B24022449244024941018280397106DEA7
:101EF00016DC1ADA1ED82AD62ED432D236D03ACEF2
:101F00003ECC42CA46C872C676C47AC27EC0F93D8B
:101F1000F250E2525253C2533255A25512568256D3
:101F20007247E2475248C248324EA24E124F824F89
:101F30002161730020309387C1AB94439757000011
:101F40009387873903C70700058B11CB975700008C
:101F50002386073897570000A3820738828003C77B
:101F60001700058B65F7F85271FF83C75700DDB77F
:101F7000138801AB032708001C5F9583858BD1E78D
:101F800009C61C5BBD832300F60085CA83270800B1
:101F9000985B4607935767016356070093E707C0AE
:101FA000C207C18303970600C207C18709C7BA9752
:101FB0000947B3C7E7022390F60085CD8347150094
:101FC0008DCB9756000083C6863193F6060413879F
:101FD000970089478DCA3A9503470500854699477A
:101FE0001376F7066311D60262076187B947634C1F
:101FF0000700832708009C5FED838D8B1757000037
:10200000A301F72E81473E8582808547EDBF4111B0
:1020100022C406C61384C1AB18402DE9AE877453A1
:10202000FDFE3E85B285975700002388072A97005A
:1020300002E0E780A0EE938701AB9C43B7068000E7
:102040009843558F98C3D857719BD8D7975700009E
:10205000A386072897570000A38007281C4009473C
:1020600098C314401757000013070727834727001A
:10207000858B89EB83473700858BD9C39757000041
:10208000238E0724B2402244410182808D47631E83
:10209000F500938701AB9C43B70680009843558FAA
:1020A00098C3D857719BD8D76DBF8547E31BF5FA06
:1020B0005447F977FD17F58F5CC70F1000001C40DF
:1020C000096798C7130700F8175600002308E62091
:1020D000138701AB1043184231830D8B11E71307AF
:1020E0006019F8D3D4C7B5BF1842094631830D8BA8
:1020F0006315C7001307E043EDB71307E01BD5B71F
:10210000FC52ADF741B75D71A2C4A6C22A84130682
:1021100080022800AE849305100886C6CAC04EDE31
:1021200052DCEFF06FEA3545970002E0E780601B74
:10213000138301AB832703009376F41F138E41AC06
:1021400023A40700984B938EC1AB370FFCFF136796
:10215000F70398CBF84F130510F8B7020400137774
:1021600007E0558FF8CF9843F576FD16758F98C325
:102170009843B7063300930380251377F7E798C396
:10218000984311497D1F1377F7E71367071098C32A
:1021900003270E008549930F80021C47D58F1CC76B
:1021A00083A70E001307900D3400B8CB0147935559
:1021B0003700A69583C7050013767700B3D7C740CD
:1021C000858BE1C38327030083280E00239C07042B
:1021D0002390070603A8C8021378D8FF23A6080394
:1021E00083A807001378F70793F808F833E8080185
:1021F00023A0070103A847023368580023A207035E
:1022000083A80E00014823A2780603DA07066307B5
:10221000480303A80703038A06001358F80062085E
:102220001358884163580A0103A807031358F8009C
:102230002380060103D807061378F80F03AA48067F
:1022400063060A0003DA8705E37F49FB03A8470218
:102250003378E80123A2070383870600635CF40058
:1022600003C805003396C9001346F6FF337606010E
:102270002380C5003E8663D3A7002A8613158601F6
:10228000618505071377F70F8506E312F7F3B6406C
:10229000264496440649F259625A616182809386C7
:1022A000C1AB9C42D84713161701635506029847E5
:1022B00013161701635006027D57B8D71757000051
:1022C000130787E5584F0507175600002324E6E655
:1022D000116798C798470D83058B1DCB17570000D2
:1022E0000347A7FF13671700175600002307E6FEF2
:1022F000130700F8175600002302E6FE214798C78F
:10230000138701AB10435856719B1367170058D6BB
:102310009847058B0DC7175700000347F7FB136756
:10232000170017560000A309E6FA054798C7138758
:1023300001AB10435856719B1367170058D6984746
:102340000983058B09E798470583058B21CF9847BB
:1023500017560000130646F8138501AB0983058B59
:10236000630307101841184331830D8B75EBAC4B99
:10237000184E93F5050203471700CDCD79EF1307EB
:102380007006D8CF034706001367170017560000E2
:102390002304E6F4114798C718415C57F19B93E773
:1023A00017005CD79C4298479316370163D6060204
:1023B0009756000083C6C605C18A17570000130749
:1023C000A7FDC5CE0347870713670702975600008E
:1023D0002380E604056798C798479316270163D1C1
:1023E000060217570000034767EF620761876357CC
:1023F00007000547975600002382E6EE096798C755
:1024000098479316070163D606029756000083C6C5
:102410003600858A17570000130707F8ADCE03472B
:1024200097071367270097560000A383E6FE2167EE
:1024300098C7828029D785456315B7001307B00672
:1024400089B789456315B7001307F0061DBF8D4591
:102450006315B700130730072DB71307500715B7DB
:102460001307600739BF0347360013671700175675
:102470000000A304E6E6094739BF834687070946FB
:10248000BD8A6388C600034787078D463D8BE313EB
:10249000D7F4114725BF83469707918AC9DA0347C6
:1024A00097071367870041B7397106DE16DC1ADA21
:1024B0001ED82AD62ED432D236D03ACE3ECC42CAFC
:1024C00046C872C676C47AC27EC0D13BF250E25290
:1024D0005253C2533255A255125682567247E247A2
:1024E0005248C248324EA24E124F824F21617300B1
:1024F00020309387C1AB98438567938707777CD358
:10250000938741AC9C4383A60709139656006358F2
:10251000060083A6070913966600634406007453F9
:10252000FDF2828061C1AA870145DDCD8D07C2071A
:10253000C183F19BC207C18313074003636BF7029A
:10254000138701B50843138781B414436396A60229
:1025500017570000130787B8185B014551C7411191
:10256000C20706C60545DD8D0297B240014541010F
:1025700082801387C1B4F9B70357650035E3035769
:102580004500636FF704B306F7402146637CD6022B
:1025900003280500938687001D8FAA96611717569A
:1025A00000000356C6B72392E60023A0060123933A
:1025B000060014C12312F500130786FF975600008A
:1025C000239FE6B42313B5009755000083D525B5A6
:1025D000B387F540175700002313F7B42105828015
:1025E0000841ADB701458280828009CD938701B54E
:1025F00003A30700938781B483A8070081469A87C5
:1026000063E31701828003A807006369F50A636723
:10261000A80A13878700E367E5FE03D667002167F2
:1026200005076317E60003C741A805072382E1A851
:1026300097550000938545AE03D6470003D7650044
:102640002393070032974207418317550000231850
:10265000E5AC638867021385C1B408416303F502E2
:1026600003D5660019ED83D7460023A00601210794
:102670003E9621062392C600975700002391E7AAB1
:10268000B6879843E30017F99386C1B49442E30BED
:10269000D7F683566700BDF683D64700035647003A
:1026A0001843A106B2962392D70098C383D765003A
:1026B000A107175700002314F7A68280BE86C287A1
:1026C00081B70327851163020712411122C406C690
:1026D0008347C5008345E5042A8493F7C70F230683
:1026E000F500834697000356C70013958601618560
:1026F00063F2C508635B05060345870093F6F6079A
:10270000A304D700054693E627006314C50093E6AB
:1027100017002306D4005C4389075CC3A30AB400F6
:10272000032504112E864C430905EFF06F8683279D
:10273000841103465401D44303D7C700B296118FC6
:10274000D4C32396E7008947A30DF400034764032D
:102750009757000083C7A7996378F7048347C4009D
:1027600093E707012306F40081A093E717002306EF
:10277000F4006DB79376F60F635D0502034587009D
:10278000854513E627006314B50013E617002306FA
:10279000C400A30AD400A30407008547A30DF400D6
:1027A000832784119C43DDF3B2402244014541015B
:1027B000828093E717002306F400A30AD400A30441
:1027C0000700032504114C430905EFE07FFC832734
:1027D000841103465401D44303D7C700B296118F26
:1027E000D4C32396E7008D4755BF05458280938764
:1027F00001B69C43411122C406C6858B2A84C5EFCD
:102800004165130525F597B002E0E78080ED45C5E9
:102810008347A5002315F50083270412BDE7232075
:10282000A4122322A41285472311F40423200500B7
:102830008347640154412316F5000347D400230461
:10284000E5000547A304E500175700001307C7A8D4
:10285000184F1385170215811C437D151375F50F4D
:102860009CC25C43DCC21C479CC65C47DCC61C4B5C
:102870009CCA5C4BDCCA1C4F9CCE5C4FDCCE19CD95
:102880009386060213070702C1BF8327441288C339
:10289000835724042322A412850779B79757000091
:1028A00083D707B0850717570000231BF7AEB24048
:1028B0002244410182808347C40023090400054566
:1028C00093C747002306F400DDB78347850193F7DC
:1028D000E70FC5EF83479501CDEB034625018346FE
:1028E000C50009CA834565031757000003473780B1
:1028F00063E7E50013F7060151CB014709C6C18A1A
:102900000357651C81C68356A51C369741C3130720
:10291000C712175500000355E584B335A7023746A3
:102920000F00411113060624814622C426C206C6A2
:102930007D543305A70297E002E0E780A0E59747C2
:10294000000083C7377BB384A700975700009387A5
:10295000A7A403A787098327070963F387003E8499
:10296000184375FB9387419E9C438297814763641C
:10297000A400B307A440B2402244B3B7970093C762
:10298000170092443E854101828081473E858280C6
:102990009387C1AB98437C53FDFF8280797126D227
:1029A00006D622D44AD04ECE52CC56CA5AC85EC69B
:1029B0008347550303447513AA843E941374F40F9C
:1029C0009307400263F687001304B4FD1374F40FF9
:1029D00003AA841383AAC413A38B8412228652856C
:1029E000D68597E002E0E78060D5058915E503CB41
:1029F000D41201498149337B6403930B50024A8608
:102A00005285D68597E002E0E78040D3058915C559
:102A1000639169031374F90F238B8412B25022540B
:102A200092540259F249624AD24A424BB24B456132
:102A300082808509E20993D989410509E31179FD6D
:102A4000E1BF8327850903560504797193D60701F1
:102A5000BD8EC206C182358E1357764093575640BD
:102A6000898B058B5D8F93573640918B5D8F935784
:102A70001640A18B5D8F93171600C18B5D8F931746
:102A8000360093F707025D8F931756009355860023
:102A900093F707041E065D8F1376F60F518F93D7B9
:102AA000554013D63540118A898BD18F13D6754086
:102AB000D18F13D61540218AD18F13961500418AE4
:102AC000D18F1396350013760602D18F13965500D9
:102AD000137606049E05D18F93F5F50FCD8FA207CF
:102AE00045465D8F3307C70222D42A8426D252CCB2
:102AF00056CA032A8413832AC4135AC806D63697A3
:102B00004207418393577740135557400989858B76
:102B1000C98F135537401189C98F13551740218923
:102B2000C98F131517004189C98F13153700137505
:102B30000502C98F131557009355870013750504B7
:102B40001E07C98F1377F70FD98F13D5354013D7C9
:102B500055401189098B498F13D57540498F13D57D
:102B600015402189498F139515004189498F139587
:102B7000350013750502498F13955500137505042B
:102B80009E05498F93F5F50F4D8F2207D98FB38797
:102B9000C7024AD04ECE5EC662C4B697C207C18392
:102BA00013D7774013D557400989058B498F13D523
:102BB00037401189498F13D517402189498F1395C3
:102BC00017004189498F1395370013750502498F06
:102BD0001395570093D58700137505049E07498FF9
:102BE00093F7F70FD98F13D5354013D75540118977
:102BF000098B498F13D57540498F13D5154021890D
:102C0000498F139515004189498F13953500137528
:102C10000502498F13955500137505049E05498FCC
:102C200093F5F50F4D8F2207D98FB387C70213068F
:102C300050025285D685B697BD8E93940601C18009
:102C400033F6C402137BF60F97E002E0E78000AF93
:102C500005890DED8347D41201498149B384970258
:102C6000130C5002C1804A865285D68597E002E057
:102C7000E780C0AC0589937BF90F11C563863403E7
:102C8000850993F9F90F0509E31F89FD230B6413E7
:102C9000B250225492540259F249624AD24A424BEB
:102CA000B24B224C456182805E8BCDB7797122D4C4
:102CB00006D683C735002E8423160100A307F10032
:102CC00083C74500100802C02307F10083C75500E1
:102CD0008A8502C2A306F10002C402C802CA02CC5D
:102CE00002CEEFE09FF50347F10183470400014561
:102CF0006310F7020347E10183471400014563199C
:102D0000F7000345D101834724001D8D13351500BD
:102D1000B250225445618280011197470000938789
:102D2000A76722CC03A4870C26CA4AC84EC606CE83
:102D3000AA8413092500854915C083C714000347D9
:102D40003400858B6304F700405CFDB7194693059A
:102D500044004A85EFE0DFACE31835FF2285F240FE
:102D60006244D2444249B249056182804111974789
:102D700000009387676222C403A4870C26C24AC05E
:102D800006C693042500054901E82285B240224485
:102D90009244024941018280A6851305A402393775
:102DA000E30525FF405CCDB74111974700009387AD
:102DB000A75E22C403A4870C26C24AC006C6930499
:102DC0002500054901E82285B24022449244024987
:102DD00041018280A6851305A401C93DE30525FFB5
:102DE000405CCDB72303048015472303E480010032
:102DF0002302A480828083076480E3CE07FE23033E
:102E00000480828083076480E3CE07FE034544800C
:102E1000828083076480E3CE07FE2302A480828041
:102E2000411126C44AC24EC006C61377F50BAD4702
:102E3000AA892E8995446306F70019456537653FD1
:102E40008D444E854537FD59FD1463983401B240D9
:102E5000A244124982494101828013550901137528
:102E6000F50F453F2209CDB7011126CC06CEB70498
:102E7000080051371545BD37713769372AC6A53F58
:102E800032459377150089EB136515001375F50F1F
:102E9000F240E24405618280FD14E9FC0145CDBFAA
:102EA000397126DC4ADA4ED852D656D45AD25ED080
:102EB00006DE62CE66CCB7E700E07D5783AA070046
:102EC00022C603AA470023A0E71823A2E718B717D2
:102ED0000040130770052380E704130780FA23805E
:102EE000E70483C74704930B75FFB684E20793FB9F
:102EF000FB0F8546AA892E8B328937240040E18753
:102F0000015763FA76016308D5008946130700026A
:102F10006313D5000157D98F93F7F70FB71C004003
:102F20002382FC0411472303E4801305F00F5D3D69
:102F3000094CD135636D7C11B7050700DA953787E9
:102F40000700795563F2E504B3879500636EF702D5
:102F5000370B0800A94733EB65016399F90689E44B
:102F60008144513D26850DA0DA850945553D050969
:102F70000345F9FFFD14050B693D81C49377FB0FF1
:102F8000FDF7DD3569FD7D55B71700401307700566
:102F90002380E704130780FA2380E70403C747046C
:102FA000418B2382E704F250B7E700E023A05711DA
:102FB00023A24711E25432445259C259325AA25AFA
:102FC000125B825B724CE24C21618280A547639563
:102FD000F90685691309F00FB3069900B3742B0144
:102FE000B6941349F9FFB3749900856B337969017D
:102FF000416B9387F9FFB3F7270199E363FC340131
:1030000093D94900C147E3E637FF99BF0569C16914
:103010007D19D9B71305800D638869011305000276
:103020006384790113051008CA85DD3B353D21DD38
:103030004E99B3843441D9B7DA852D45D533CA9436
:10304000E30099F205097D3BA30FA9FED5BF938745
:10305000F9FF93F7F70F6361FC0C83C71C04130798
:103060003008631FF70437070800636BEB04B307EE
:103070009B00B706100063F5D704334BEB0089477C
:103080006393F9068980D549E38C04ECDA85094518
:10309000413B11090327C9FF91472320E48003071F
:1030A0006480E34E07FE23033481FD17EDFBFD141E
:1030B000110B81C49377FB0FE9FF7D3371F5E1B507
:1030C000B717004003C75704B70708001377070274
:1030D00019E3B78707007955E378FBEA33079B00CC
:1030E000E3FFE7F855B58547E382F9F2DA852D4528
:1030F000053B9389F4FFE38504E6293393F7390010
:1031000091EB832604800327090093074900E39A83
:10311000E6E43E89CE84F1BFB5476396F900130516
:10312000900BC93135BDB1471305B00AE38BF9FEE9
:1031300099476391F904B7050800B365BB002D45B5
:10314000C53181448D4BA14975396396740183273C
:1031500004802320F9008504E39834FF832704804A
:1031600013172B01635507002312F900D5BB232247
:10317000F900FDB39D476399F90281451305B00439
:103180004531BD442320090023220900FD599D3902
:1031900093F77400CA9703C70700FD14398D238085
:1031A000A700E39634FF6DBBA1476392F9046D3924
:1031B0008144630D0B008D479304C0036308FB003B
:1031C0009304000563048B01930440041375C50741
:1031D000E30895D819453931393905452131268516
:1031E0000D3909453D314931E31C05D669BB91478D
:1031F0006399F90013056006F536F53E130590094D
:103200000DB7E38F09D4F154A9BB0000970100204A
:103210009381C1C3175100201301C1DE17E5FFFFE1
:10322000130585DE97D5FF1F9385C5DD17F6FF1FB4
:103230001306C6FD63FAC5008322050023A05500CE
:1032400011059105E3EAC5FE17E502001305C5D097
:1032500097F5FF1F938585FB1386818663FAC5006A
:103260008322050023A0550011059105E3EAC5FE60
:103270001385818697350020938545246377B500B3
:10328000232005001105E36DB5FEFD42739002BCDD
:103290008D4273904280B72200009382828873909F
:1032A000023097D2FF1F9382E2D593E232007390EF
:1032B000523037170040930770052300F704930737
:1032C00080FA2300F7040F1000003C47B70600FA0D
:1032D000E116F58FB70600069506D58F3CC797B265
:1032E00000009382C2D673901234730020303D43A5
:1032F0002A876373C3029377F700BDEFADE593763A
:1033000006FF3D8ABA960CC34CC30CC74CC7410795
:10331000E36BD7FE11E28280B306C3408A069702B0
:10332000000096966780A6002307B700A306B700A3
:103330002306B700A305B7002305B700A304B70011
:103340002304B700A303B7002303B700A302B70009
:103350002302B700A301B7002301B700A300B70001
:103360002300B700828093F5F50F93968500D58DE5
:1033700093960501D58D61B79396270097020000BB
:1033800096968682E78086FA9680C1171D8F3E96B4
:10339000E374C3F8A5B73367B500FD530D8B79E728
:1033A000B7877F7F9387F7F710419441B372F60098
:1033B0003363F600BE92B3E262006397720C631847
:1033C000D6065041D441B372F6003363F600BE9284
:1033D000B3E262006398720A631BD60410459445F9
:1033E000B372F6003363F600BE92B3E262006391FB
:1033F000720A631ED6025045D445B372F600336399
:10340000F600BE92B3E26200639A72086311D602BC
:1034100010499449B372F6003363F600BE92B3E2EA
:103420006200639372085105D105E30FD6F61317B6
:10343000060193970601631CF7001357060193D703
:1034400006013305F7409375F50F91E982804183BA
:10345000C1833305F7409375F50F91E182801377AF
:10346000F70F93F7F70F3305F74082800346050007
:1034700083C60500050585056313D60065FA330587
:10348000D640828011059105E312D6FE0145828067
:103490002105A105E31CD6FC014582803105B1055B
:1034A000E316D6FC014582804105C105E310D6FC38
:1034B00001458280011122CC06CE3714004026CA75
:1034C0004AC84EC652C483447405034AB4058349AE
:1034D000840503499405EFC0506D8347A40593F418
:1034E000F40F137AFA0F93E71700230DF40493F9FE
:1034F000F90F1379F90FB717004003C7A705058B1C
:103500006DFF03D5C705A38D4705238C3705A38C15
:103510002705A38B9704F2406244D2444249B24942
:10352000224A0561828041119397050122C406C693
:10353000C1872E8463DD0700EFD0807519C1EFD0FD
:10354000006E2165218DB24022444101828093F7B3
:10355000150013C51500E5FB9397250163D20708F5
:10356000EFE04105B717004083C7E70293F7C70FA5
:1035700093E71700F3260080A18A91CAF326008002
:1035800023A8D19C83A6019DDD9A739006800F101D
:103590000000B7160040130670052380C60413060A
:1035A00080FA2380C6040F1000002387F6022380D0
:1035B0000604F326008083A7019DA18BD58F73900D
:1035C000078023A8019C0F10000003C5818637F6F1
:1035D0000200130606E08965EFD0703409659DB7D7
:1035E000939715010145E3D007F603C581861306BD
:1035F00000649165EFD0B0321165A9B7B70503003B
:10360000371503001D7149469385450513054595FA
:1036100086CE97D0FF1FE780A02011E101A0B7F66A
:1036200000E0795798CAFD57DCCA0567B7E700E0A4
:1036300023A0E7101306F00290C223A0E7180F1092
:1036400000001306C0038145480897D0FF1FE7809C
:10365000A017B74700209387C7593ECA8967938749
:103660000780231CF1009307B00F2312F102954746
:10367000A301F10285472303F102A305F102B71765
:1036800001009387A79A3EDAB7F50700B737000025
:1036900035479387474B81467000E1051945230460
:1036A000E1023EDE97E0FF1FE780807F58088147F8
:1036B000994670003E960346060085070507A30C51
:1036C000C700E398D7FED24791C7035781018567AA
:1036D0006373F70001A04808EFD0506D11C101A03D
:1036E000F6402561828041113735000022C4130560
:1036F000655206C613848186EFD0D0672300A400EC
:103700001928034504002244B2401306003289659B
:1037100041016FD0D020411106C6F3270080A18B54
:1037200091CBF327008023A8F19C83A7019DDD9B0B
:10373000739007800F100000B717004093067005C4
:103740002380D704930680FA2380D7040F1000004B
:1037500083C6F70293E67600A387D7022380070487
:10376000F326008083A7019DA18BD58F73900780DE
:1037700023A8019C0F1000001305407E81470147DC
:10378000814605468545EFC0D046B240014541011E
:103790006FE04016B717004003A5470C218105894B
:1037A000828083470500214793C7F7FF93F7F70F00
:1037B00093968701E186860793F7F70F63C70602A2
:1037C0007D171377F70F6DF7034515003D8DA14762
:1037D00013178501618706051375F50F634A070006
:1037E000FD1793F7F70FEDF7828093C71703C9BF53
:1037F00013451503F5B78545130500106FD0A001DB
:103800008545130500206FD000013717004083273E
:10381000C70C8D451305001093E707102326F70CFE
:103820006FC0707F371700408327C70C8D45130585
:10383000002093E707202326F70C6FC0D07D1145A9
:1038400017D3FF1F670063F1411106C67D3FC53FD7
:10385000453FF5374D37B2404101D5B7011152C44C
:1038600081452A8A414506CE22CC26CA4AC84EC680
:1038700056C2EFC0107089450145EFC0D030EFC08F
:10388000B027931A0501B7170040416593DA0A0182
:10389000238C0704D14901441309F5FF8144EFC08B
:1038A0005033569542054181AA8763739500A687D8
:1038B00093940701C180AA876373A900CA87FD1981
:1038C000C2091399070193D90901135909012A94CF
:1038D000E39709FC33852401098C49453355A4023B
:1038E0006244F240D2444249B249924AD285224AC5
:1038F0000561420541816F90A02B411106C622C48B
:10390000DD3DFD3D2D3FB717004083A7470C93F7E2
:10391000072091E70145B2402244410182809D3D4C
:10392000254419C5DD35213FF53D113F0545E5B776
:10393000953509E97D141374F40FED350937C93550
:10394000FD3D7DF41137B93571FDE9B7011122CC88
:1039500026CA4AC806CEAA84214437190040939744
:103960008401E18763D407047935D13D513DC13DE0
:103970008327490C93F7072085CF7D1486041374A1
:10398000F40F4D3593F4F40F79F8B5354D3D8D3D79
:103990007D350935133515002AC669354D35324553
:1039A000F2406244D244424905618280B93D75BF0C
:1039B0000145FDB723880186238C0186238E01866D
:1039C00041112399018606C6239D01862D350D3DA3
:1039D000B75700209387C7A803C7C7B0B240136783
:1039E00087002386E7B04101828003C5018782807A
:1039F00003C58187828003D52187828003D5A18773
:103A00008280797106D622D426D24AD04ECE52CCAC
:103A10001387C18783460700638E061683A6018835
:103A200083A78197958FA54663FBF61A23000700AD
:103A300003A7019723AAE186C935630C050E130578
:103A40009008293781446305050E154A9949653365
:103A50002149014406041374F40F5D33CD331D3B3B
:103A600019C1136414007D191379F90F653BC13B2B
:103A7000E31209FE638C440F493B5933C9335D336C
:103A80007D3B953B3C00A697238087008504E3900F
:103A900034FD5D3B280031338347A100639BA708B9
:103AA0001305B100FD398347D1006394A70803478C
:103AB0008100834791008345C10022075D8F9307F2
:103AC000606D3307F702A1671386F7FFC16793861E
:103AD000F7FF8347B100A207CD8F9305204EB38730
:103AE000B70232973347D702B297B3C7D70213074B
:103AF000E7E342079306803E4187938747FC63D400
:103B0000F6009307803E63D3070081472399F1862F
:103B1000B75700209387C7A885462398E7AE238828
:103B2000D1869D46238CD18603C7C7B05D9B85A0F7
:103B3000213B9387A18703D70700C166FD16630564
:103B4000D70005072390E7002800093B15C103575C
:103B50008100B75700209387C7A885462398E7AE12
:103B60002388D18623990186E5466DBF693131B737
:103B700023880186414723990186238CE186B75724
:103B800000209387C7A803C7C7B0136787002386A1
:103B9000E7B0B1A09384C18703A74187138441870D
:103BA00009CB83A7019763E6E700998F25476378E0
:103BB000F702A1330DCD13058008493B014911C51A
:103BC0001305D00F61333339A000BD3963010902F9
:103BD00085472380F40003A7819723A0E188B25092
:103BE000225492540259F249624A4561828083A765
:103BF00001971CC03DBFB786B8ED014793860632DA
:103C000093170701C18363E3C7008280B387E50090
:103C100083C707003D8DA14713581500058911C1C1
:103C20003685FD1793F7F70F3345A800F5F705071D
:103C3000C1BF411122C4AA852A8431467D5506C6DA
:103C40005D3F930504011306C00A7537B240224454
:103C50001345F5FF4101828001112306A1006C008C
:103C600011467D5506CEA3060100231701006137DA
:103C70000566B74500201306A6A0938555ABA53F62
:103C8000F2401345F5FF05618280411122C4AA85E7
:103C90002A8431467D5506C6B93F930504011306B3
:103CA0004009913FB24022441345F5FF4101828013
:103CB000411122C4AA852A8413064009138501B73D
:103CC00006C6EFC0622103471400B7570020938750
:103CD000C7A82384E7B003472400A384E7B00347C1
:103CE00034002385E7B003474400A385E7B0B24022
:103CF0002244410182801971A2DCD6D2DAD086DE5C
:103D0000A6DACAD8CED6D2D4DECEE2CCE6CAEAC88B
:103D1000AA8A2E84328B23A0050023A2050023A4A7
:103D20000500B146AA8550002D4597E0FF1FE780AA
:103D3000201715C563110B020145F6506654D65481
:103D40004659B659265A965A065BF64B664CD64CDF
:103D5000464D0961828085472300FB00F1BF124771
:103D6000FD576316F70085472305F400F1B7B757F1
:103D7000523293873795E311F7FC0347C100A947F7
:103D8000E3ECE7FAAA8431464C007D55056AA53577
:103D9000AA89130CAAA0930C0004138DCA00930BDC
:103DA0009AA0B3079C403E89C207C18363F4FC001C
:103DB00013090004420913590901CA861008B30502
:103DC0009D002D4597E0FF1FE780800D25F54E856E
:103DD0004A860C080D35CA94AA89E3F49BFC930526
:103DE0006AA191460A86D6952D4597E0FF1FE78088
:103DF000200B29F1824793C9F9FFE39F37F35CC099
:103E00008347C100224705452304F400854718C0B5
:103E1000A304F4001DB783570500411122C43744A1
:103E2000002006C61307C4A82311F7008347250006
:103E30001306000A9305C5002312F70083463500D8
:103E40008567BA97A382D7B0835645001304C4A8E8
:103E50002393D7B0834665002382D7B0834675008D
:103E600014D3835685002313D7028346A5001385F8
:103E700047A32302D702EFC0220601472946930732
:103E8000370A9207A29783C647000507BD9A238287
:103E9000D700E316C7FEB24022444101828041119F
:103EA0001306C00A814506C622C42A84EFF02FC437
:103EB000B74700209387C7A803D727008565BE951D
:103EC0002310E40003D747001306000A938545A397
:103ED0002301E40003C7150D1305C400A301E4008A
:103EE00003D7250D2312E40003C7050D2303E400C7
:103EF0009853A303E40003D767022314E40083C7A5
:103F000047022305F400EFB0327D8147294613971D
:103F1000470022978346C7008507BD9A2306D7002E
:103F2000E397C7FEB240224441018280411122C47E
:103F300006C6328426C20146B387C60083870700BF
:103F400093140601C180B1E70357040001489307A9
:103F50001700C207C183B3889700C20893D808012D
:103F600063E315032310F4002A972300C700835747
:103F70000400B6853E95EFB03276835704000548BD
:103F8000BE9423109400B2402244924442854101E1
:103F90008280050693170601C183E3EFE7F8014825
:103FA000DDB703580600636BB80001458280014508
:103FB000B240224492440249410182809307180092
:103FC0004111C20726C206C622C44AC0C1832310BB
:103FD000F6002A980349080093140901C180E3F808
:103FE000E4FC3387970042074183E3E2E5FC328437
:103FF000B305F5004A863685EFB0126EB30625018B
:1040000023800600835704000545BE9423109400C6
:1040100045B71441B747433293873715639CF6027F
:1040200003564500411122C406C68D462A848147A5
:10403000631DD6000356A5009306C00A6317D60079
:10404000CD3E5C44898F93B71700B24022443E8531
:104050004101828081473E858280AA958387F5FF52
:104060009DEF01471306E005930520021308C005E4
:10407000B307E5008387070099E30545828093F73E
:10408000F70F938607FE93F6F60F636AD6006388F0
:10409000B70063860701050742074183D1BF014589
:1040A0008280797106D622D426D24AD04ECE52CC06
:1040B00056CA5AC883C79500E1C73289AE842A849C
:1040C000AA85B14650002D4597E0FF1FE78040DDEF
:1040D0004DE5056A374B00209306AAA013065BAB9B
:1040E0009305C4002D4597E0FF1FE78060DB51E595
:1040F00093056AA191460A86A2952D4597E0FF1F78
:10410000E78000DA3DE91247B75752329387379577
:1041100001496319F7048349C100A94763E43705DE
:10412000A24A9C406390FA048247C440639CF40214
:1041300031464C007D55C1341306AAA093055BABF4
:104140005D3C1345F5FF631F9500B74700204E8582
:10415000238A37AB113623AEA18823A0518B23A22B
:10416000818A0549B25022544A8592540259F24933
:10417000624AD24A424B4561828085472300F9005A
:104180000149CDB7411122C4138401B713060009B8
:1041900081451305440006C6EFF06F95B717040A72
:1041A000938717901CC095472302F4008547A3030B
:1041B000F400B7073C009387B7751CC4B7077800B5
:1041C0009387C7035CC4130544072244B240B70574
:1041D00003001D469385C50641016FB0F24F4111A2
:1041E0002E86AA857D5506C6EFF0FFA0B240134586
:1041F000F5FF41018280144137575434130727E5F6
:10420000639AE604411122C406C603464502854668
:104210002A84014763EBC60203465502914663E6D2
:10422000C602834665023D46C11693F6F60F636EDD
:10423000D600034675028D4663E9C60093058002E9
:10424000793F1854098F13371700B24022443A853A
:104250004101828001473A858280B74700209386DA
:10426000C7A803D626009387C7A8054529C683D5C6
:104270004600130700026360B7040567369783455D
:1042800057B0894663E9B602034847B06365050342
:104290006397D500035767B019CF630EE6009853B4
:1042A0000545636AE50003C547021305E5FA137582
:1042B000F50F1335D50A8280411126C24AC08564A4
:1042C00037490020138604B11305C9A8814522C4CB
:1042D00006C6EFF0CF81B75701BB9387B72A130407
:1042E000C9A82326F9A895472312F4000547B387E8
:1042F00084002382E7B07D572302E40237070A05D2
:104300001307974023A4E7B011472386E7B0E5469B
:10431000054723A6E7AE239CD7AE18C4B24022447B
:1043200023A6018823A891880249924441018280F2
:104330005171CECF9389818803A7090086D7A2D572
:10434000A6D3CAD1D2CDD6CBDAC9DEC7994763008E
:10435000F708938AC18803A90A001544631AA90CB7
:10436000ED3D2A846314050E1306C00B81454800F9
:10437000EFE0FFF748082536B747433293873715F4
:104380003EC28D472314F1000509C167138BF7FF67
:10439000935709012316F10048009307C00A138AB6
:1043A0000189231521012317F100EFF09F88832451
:1043B0000A00AA8B2AC893B41400B2048566014689
:1043C000A685254597E0FF1FE78080AD19C11944F8
:1043D00085A09306C00B5000A685294597E0FF1FD6
:1043E000E78000AC6DF59306C00B5000A6852D4507
:1043F00097E0FF1FE780C0AA21E94800193929C5C5
:10440000B2470357A100B3F76701C207D98F631DF5
:10441000F902C247639AFB029305C00A480823A029
:104420002A0123209A00653B23A2A18823A009002A
:104430002285BE502E549E540E59FE496E4ADE4AC5
:104440004E4BBE4B6D6182802144DDB70544CDB734
:104450001571A2CDA6CB1306C00B9305F00F480033
:1044600086CFCAC923A40188A389018ACEC7D2C531
:10447000D6C3EFE0DFE79306C00B500081452D4522
:1044800097E0FF1FE780C0A12A8993848188138465
:10449000318B631105104800AD3E81479306F00F44
:1044A0001307C00B50003E96034606006312D60E5B
:1044B0008507E399E7FE054A81490DC54808EFF0F5
:1044C0009F958357C1000357A1009305C00AC207F7
:1044D000D98F23A6F188480823A80188093323A28D
:1044E000A18885491306C00B9305F00F4800EFE043
:1044F0001FE09306C00B500085652D4597E0FF1F18
:10450000E780009AAA8A51E9480021363335A00095
:1045100081479306F00F1307C00B50003E960346E9
:104520000600631DD6068507E399E7FE85473369D4
:10453000590159C5138AC188638D09008357C10089
:104540000357A100C207D98F03270A00998F63532D
:10455000F00A4808EFF03F8C8357C1000357A100D1
:104560009305C00AC207D98F2320FA0005674808BF
:1045700023A8E188AD3123A2A188630B09029947E2
:104580009CC08347040093E727002300F4002DA07C
:10459000014A1DB78149014AB1B70145814741BF71
:1045A00063060A0081C785479CC03DA09547EDBFC3
:1045B0006387090423A00400014525A09147C9B7DA
:1045C000639D0902E30E09FC99479CC083470400E0
:1045D00093E727002300F400C53119456313090050
:1045E0002145FE406E44DE444E49BE492E4A9E4A55
:1045F0002D618280E30009FC59B7E31209F803A595
:10460000C1883D3345FD89479CC08347040093E73B
:1046100017002300F400F1B73171480006DF22DDF6
:10462000EFF0FF879305C00A4800553E83A74188F5
:104630006318F50203A7818891476307F7000145D6
:10464000FA506A54296182801384C1880840CD31B0
:1046500065F9184085470545E313F7FED139CDB715
:1046600003A5C188E5BF03A5C188828003A5818811
:104670008280411106C622C426C22A843539854764
:10468000014523A4F1886D319384818809E503A550
:10469000C188793915C191479CC09387318B03C775
:1046A00007002A84136727002380E7002285B24091
:1046B00022449244410182808D4711E09D479CC075
:1046C00075D49387318B03C7070001441367170024
:1046D0002380E700E1BF317152D523A6018A2385EB
:1046E000018A2389018A9386C18A1387A18A9387C5
:1046F000218B4AD94ED756D362CD66CB6AC96EC7D5
:104700002398018A06DF22DD26DB5AD15ECF814D58
:10471000014C014D814C814A02C601498149138AED
:10472000018B36C83ACA3ECC1306C0029305F00F7F
:104730002810EFE0DFBB9305C002B385BA028D6796
:1047400093940A019306C00230102D45C180BE9596
:1047500097D0FF1FE780C07419C9850423109A0001
:104760000549850A93070004E390FAFC39A0A25793
:104770007D57639BE70C23109A001306C002930534
:10478000F00F2810EFE0BFB699659306C002301015
:10479000938505E02D4597D0FF1FE7806070631B70
:1047A000050E2257FD576308F70E2810EFF0BFA43F
:1047B000630E051252478547B2542300F700638603
:1047C0000900B38764416353F0021306C0022C1042
:1047D000C808EFB062706254A64B034CC104834D0D
:1047E000D104034DE104834CF104268BB74400202F
:1047F0009387C4A88569BE996146EC08138549ADC5
:10480000A2D2EFB0626DB757002041679384C4A86D
:104810009387C7A86364E4001304F7FF239089B06B
:1048200023AA740123A687AF23AAB7AF239CA7AFFF
:1048300023AE97AF63030C00814BC24723A87401DA
:10484000854923A0670191A82810EFF0DF9A21C1C4
:10485000B25763860900338767416356E002130647
:10486000C0022C10C8083ECEEFB00267F247625477
:10487000A64B034CC104834DD104034DE104834C8A
:10488000F1043E8B8549850423109A00D9BD8547E4
:104890003EC6D5BF0549E39B09F4B24789CB938750
:1048A000318B03C70700136717002380E7006302FB
:1048B00009046247854719492300F7009387318B24
:1048C00003C70700136727002380E700FA506A54E4
:1048D0004A85DA544A59BA592A5A9A5A0A5BFA4B03
:1048E0006A4CDA4C4A4DBA4D2961828085473EC6F2
:1048F0005DB7E39D09FC2149D1BF1971A6DA83C4D4
:10490000218B86DEA2DCCAD8CED6D2D499C89944EF
:10491000F650665426854659D654B659265A09612A
:104920008280B7575434938727E53EC43749002027
:1049300083A7C18A1309C9A805644A94850793050A
:1049400044AD614608083EC602D8EFB0E25883275E
:1049500049019305800228003ED48327C4AE130A80
:10496000F0039389C18A2306F102832744AFA3068B
:10497000F102835784AF2307F1028327C4AFA30753
:10498000F102EFF0DF8583D7018B2AD81384018BE6
:104990006374FA081969930600100146930509E04B
:1049A000254597D0FF1FE780A04F19C1A1448DB7BF
:1049B0009306C0023000930509E0294597D0FF1FF8
:1049C000E780004E65F59306C0025018930509E094
:1049D0002D4597D0FF1FE780A04C69F91306C00250
:1049E0004C182800EFB0E24C71F14818EFF0BF808E
:1049F00055DD05472385E18A83570400637EFA006D
:104A0000856601468D65254597D0FF1FE7804049A3
:104A1000E31F05EE23100400035904009307C002AE
:104A20009306C0023309F9028D67300029453E998B
:104A3000CA8597D0FF1FE780A046835704008507EB
:104A40002310F400E31505EC9306C0025018CA8544
:104A50002D4597D0FF1FE780A04429F91306C00217
:104A60004C182800EFB0E24431F15257B757543494
:104A7000938727E5E31CF7F27644930580024818F4
:104A8000EFF0EFF5E314A4F2B2471384A18A23A058
:104A9000F90083470400E38D07E69965930600104B
:104AA0000146938505E0254597D0FF1FE780403FED
:104AB000E31005E623000400A1BD5D71A2C403C498
:104AC000818A86C6A6C2CAC04EDE52DC56DA5AD8E1
:104AD0005ED611CC19442285B64026449644064938
:104AE000F259625AD25A425BB25B61618280B74727
:104AF000002083C447ABA94763EA970E2685EFF0F1
:104B0000AF9583A7C189AA8A1389C189E385A7FCC8
:104B1000B7575232938737953EC483A7018A02C89C
:104B2000314685072C007D553EC623089100EFF0E5
:104B30008F8C0566374A00201306A6A093055AAB52
:104B40002AC2EFF04F8B83A6418A1345F5FF2AC294
:104B50001167938B018A138B418A99646383E60002
:104B6000916485660146A685254597D0FF1FE7809D
:104B700020332DF1B1463000A685294597D0FF1F7F
:104B8000E780003221F985699386A9A013065AAB04
:104B90009385C400294597D0FF1FE78060301DF939
:104BA000938569A191465000A695294597D0FF1F8E
:104BB000E780002F05F101464C082685EFF0AF9302
:104BC00005C93247D2476395E702E246124763912F
:104BD000E6028346C10103470101639BE6002320EF
:104BE000590123A0FB0023209B00F5B50544E5B542
:104BF0002144D5B53971130671002C00116506DE0C
:104C000026DA4AD84ED622DCA3030100EFF0AF8E9D
:104C10002A89130671004C081965EFF0CF8D2384A3
:104C2000018AAA899384818A4DC163070900D2470A
:104C30002247998F635DF008130671004C081965CF
:104C4000EFF02FC60DC10344710045C08547238096
:104C5000F4009387318B03C70700194413672700BB
:104C60002380E70075A063090900130671002C007A
:104C70001165EFF00FC361F9056637450020B747AE
:104C800000201306A6A08145130555AB238A07AA69
:104C9000EFE0EFE523AE018823A0018A196723A284
:104CA000E18A83477100DDF38347210189C7834788
:104CB000E1012144B1EF9387318B03C70700214401
:104CC000136717002380E700A1A0E30709FA130682
:104CD00071002C001165EFF0CFBC35F5E38E09F8BB
:104CE000130671004C08196569B76303390393848F
:104CF000C18903A90400934719009CC07D3B938799
:104D0000318B19ED03C70700136717002380E700F5
:104D10002285F2506254D2544259B25921618280A4
:104D200003C7070023A0240113672700C5B72DC5BB
:104D3000B705030041110D469385850622C406C6BA
:104D40002A84EFB00217814739E10307F40021E319
:104D50008D471D46A5456545BD46639CC700034775
:104D600074001307F7FB1377F70F637EE5008147A5
:104D700039A83307F40003470700130707FD13772B
:104D8000F70FE3E6E5FE8507E399D7FC8547B240D8
:104D900022443E854101828081473E8582806D1597
:104DA0001375F50F9D4763E9A7026D161376F60F8D
:104DB000054563E4C702A94763E1B702B315B5002F
:104DC00093F5F57799C963EAD7003315D5001375C4
:104DD000F57713351500828005458280011106CED6
:104DE00022CC26CA4AC84EC66307051403490500EB
:104DF0000544630B09109377C90F63970710834627
:104E000045000346350083452500AA840345150067
:104E100079372A846311051203C75400854763EC70
:104E2000E71003C7640063E8E71003C7740063E496
:104E3000E71083C7940003C78400A207D98F638C4F
:104E4000070E83C7B40003C7A400A207D98FC517F4
:104E5000C2070567C183930617E063EEF60C83C7AC
:104E6000D40083C6C400130767E0A207D58FD91703
:104E7000C207C1836361F70C83C7F40003C7E40072
:104E8000A207D98F8917C207C1831307A0236364C0
:104E9000F70A9305000313850401EFF00F9C41CD41
:104EA000D14513850404EFF04F9B51C59389440508
:104EB000930500024E85EFF04F9A35CD9386440757
:104EC00081479305000205451308C0059308B00209
:104ED0003387F400030747071396070141820DEF5C
:104EE00039CA038644071307F0026306E604B6973F
:104EF0008387F7FF6381E7041379290063060900BC
:104F00004E853535133415002285F2406244D24473
:104F10004249B2490561828063DFE5001306E7FD7F
:104F20001376F60F6379C500630707016305170160
:104F30008507E39FB7F80544C1BF144141113757B6
:104F40004D3226C206C622C4130737F48144639F3C
:104F5000E602834645000D472A8481446398E602B1
:104F6000834655001307100A6392E6028356A50094
:104F700013074009639CE600EFE03FD15C44639770
:104F8000A70013050401993D93341500B240224453
:104F900026859244410182801571D6C386CFA2CD69
:104FA000A6CBCAC9CEC7D2C5DAC15EDFAA8A3D3553
:104FB00083C7918AC9EBAA846313050E13064009BF
:104FC000938501B75685EFA0D26E03A441899389DA
:104FD000418911E169E483A781890967138A81897D
:104FE000138907106383E7000969B7574D32938728
:104FF00037F43EC6E9779387371005042318F1008C
:10500000C167138BF7FF9357040113064009D68538
:10501000231AF100680893074009231BF10002CC12
:1050200023198100EFA0526B6800EFE01FC6AA8B26
:105030002ACC930600100146CA85254597D0FF1F4C
:10504000E78000E619C1994499A89306400A7000C8
:10505000CA85294597D0FF1FE78080E46DF5930648
:10506000400A7000CA852D4597D0FF1FE78040E3B6
:1050700079F96800D9351DC1034711019307100A5A
:10508000631EF700D24703572101B3F76701C20738
:10509000D98F6315F400E247638FFB00A144FE4003
:1050A0006E4426854E49DE44BE492E4A9E4A0E4B2A
:1050B000FA5B2D61828083A70900568523202A018F
:1050C000850723A0F900EFE0BFBED1BF1571DAC19B
:1050D0001306400A9305F00F680086CFA384018A67
:1050E000A2CDA6CBCAC9CEC7D2C5D6C35EDF62DD0C
:1050F000EFE0EF9F9306400A700089652D4597D039
:10510000FF1FE780E0D9138B918A6315052E314686
:105110006C000A85EFA0525C68000535014419C592
:10512000034411011304F4F513341400814793066A
:10513000F00F1307400A70003E9603460600631FF7
:10514000D60C8507E399E7FE854A014905C08357D8
:105150004101035721016808C207D98F23AAF188AA
:10516000096723ACE1880549EFE09FB41306400AC4
:105170009305F00F6800EFE08F9789659306400A6A
:105180007000938505102D4597D0FF1FE78040D113
:105190006312052668005533814419C58344110103
:1051A0009384F4F593B4140013F6F40F8147930637
:1051B000F00F1307400A6C00BE9583C5050063918C
:1051C000D5068507E399E7FE054A9375F40FF1C804
:1051D0008357410103572101C207D98F13874189A2
:1051E000630709001443B386D740635ED00A1CC32B
:1051F000896793870710680823ACF188EFE05FABFD
:1052000015C00145FE406E44DE444E49BE492E4A5B
:105210009E4A0E4BFA5B6A5C2D618280814A35B7EB
:10522000014A65B70969B7574D3293894189938718
:1052300037F403A709003EC6E97793873710231890
:10524000F1000507C16713064009938501B72319CB
:10525000E100938BF7FF4183930740096808231A05
:10526000E100231BF10002CCEFA012476800EFE041
:10527000DFA12A8C2ACC930600100146CA85254559
:1052800097D0FF1FE780C0C10DC985472300FB00F1
:105290009387318B03C70700136727002380E7003C
:1052A0008DB7630F0906E38EC5F403A98189896769
:1052B000E31AF9F613090910BDB79306400A700006
:1052C000CA85294597D0FF1FE78080BD5DFD930605
:1052D000400A7000CA852D4597D0FF1FE78040BC6B
:1052E0004DF56800EFF07FC54DD1E247E31FFCF8B4
:1052F000D24703572101B3F77701C207D98F23A003
:10530000F90023AC218919C0E31D0AEE99C0E39A84
:105310000AEE9387318B03C7070013671700BDBFE1
:10532000EFE05FE623AA018889679387071023AC23
:10533000F1880247B75750329387C7246319F7089B
:10534000A244A1450A85EFE09FE96392A408834443
:105350004100034B51008349610003497100DA8524
:105360004E86CA862685EFF09FA335E1938701B765
:10537000A380970023816701A3813701238227013E
:1053800029476395E40211476312EB022147639FAB
:10539000E900631D99002547A380E700056713070F
:1053A00047A02391E70015472382E700138501B743
:1053B000EFE01F909387318B03C70700138501B778
:1053C000136717002380E700EFF01FBD25BD13858D
:1053D00001B7EFE0FF8D63850A002145E3140AE27F
:1053E0009387318B03C7070021451367170023807C
:1053F000E70009BDEFE01FD9138501B7EFE05F8B30
:1054000023AA018889679387071023ACF188854711
:105410002300FB009387318B03C7070019451367EF
:1054200027002380E700F9BB138501B7828003A51D
:105430004189828003C501B70589828003C501B710
:105440000581058982807971D54706D622D426D276
:105450004AD04ECE2317F10009E90545B250225437
:1054600092540259F2494561828065DAD147AE848F
:10547000E3F5B7FE8D472300F500938901B783C795
:105480000900328993860901A300F50083C719003A
:105490001306E1002A842301F50083C72900A30134
:1054A000F50083C739002302F50083C74900A30232
:1054B000F50083C759002303F50083C76900A303E0
:1054C000F50083C779002304F50083D78900A3047E
:1054D000F50083D78900A1832305F50083D7A900B0
:1054E000A305F50083D7A900A1832306F50083D780
:1054F000C900A306F50083D7C900A1832307F500DF
:1055000083D7E900A307F50083D7E900A183230827
:10551000F50083A7418913D78700A308F500230965
:10552000E50013D70701E183A309E500230AF5008D
:1055300013070003EFE09F9F0DD1514793860904A5
:105540001306E100A6852285EFE05F9EE30705F0E4
:1055500013070002938649051306E100A6852285FC
:10556000EFE0DF9CE30B05EE13070002938649078B
:105570001306E100A6852285EFE05F9BE30F05ECB3
:105580008357E10001452310F900C9BD0111D5473A
:1055900006CE22CC26CA4AC82317F10001E90545E8
:1055A000F2406244D2444249056182806DDAD147BB
:1055B000E3F7B7FE034705008D47E312F7FEB28419
:1055C0002E892A8413064009938501B72685EFA00A
:1055D000B2108347140015452380F400834724004C
:1055E000A380F400834734002381F4008347440000
:1055F000A381F400834754002382F40083476400AE
:10560000A382F400834774002383F400834784005B
:10561000A383F4008347A40003479400A207D98F13
:105620002384F400A183A384F4008347C4000347C8
:10563000B400A207D98F2385F400A183A385F400C9
:105640008347E4000347D400A207D98F2386F400E0
:10565000A183A386F400834704010347F400A20753
:10566000D98F2387F400A183A387F4008347140113
:105670000347240122075D8F83473401C2075D8FF2
:1056800083474401E207D98F03A74189E31AF7F062
:1056900013070003938604011306E100CA852285DF
:1056A000EFE03F90E30D05EE5147938604041306A7
:1056B000E100CA852285EFE0DF8EE30205EE1307E5
:1056C0000002938644051306E100CA852285EFE0B7
:1056D0005F8DE30605EC130700029386440713066B
:1056E000E100CA852285EFE0DF8BE30A05EA8357F4
:1056F000E100E39627EB2685EFF04FEE55B56FF00E
:10570000FF9C317122DD26DB4AD94ED706DFAA89FC
:105710002E89B2843684EFF08FE883C7918A9DEB9F
:105720001DE113064009938501B76800EFA0C27A16
:105730006800A306310123072101A3079100230874
:105740008100EFF07F85FA506A54DA544A59BA5909
:10575000296182801945C5BF01114AC8138501B767
:105760001305450522CC06CE26CA02C002C202C4D9
:1057700002C6EFF0CFDB138441BC11C54146A285C0
:105780000A85EFA06275856601468965254597C043
:10579000FF1FE780E0706319050C856601468D6583
:1057A000254597C0FF1FE780A06F5DED99649306C4
:1057B00000100146938504E0254597C0FF1FE78050
:1057C000206E5DE1856601469165254597C0FF1F06
:1057D000E780006D51E9856601469965254597C0CA
:1057E000FF1FE780E06B49E185660146814525455D
:1057F00097C0FF1FE780C06A25E985660146856579
:10580000254597C0FF1FE780A06939ED23A6018ACF
:105810002398018A2385018A2389018A23AE01887E
:1058200023A0018A23A2918A2384018AA384018A66
:1058300023AA018889679387071023ACF188EFE0DA
:105840007F9441468A852285EFA00269138501B7BE
:10585000A389018AEFF04FF401E96244F240D24497
:10586000424905616FE0FFE0F2406244D2444249A0
:1058700019450561828003C5318B8280C167056649
:105880008146FD17130616021397060141836364D0
:10589000B7003E8582803307D50003470700220703
:1058A000B98F2147139807018607C207135808418B
:1058B000C18363530800B18F7D171377F70F7DF312
:1058C0008506D9B7854755CDCDCDC5CE011126CAA0
:1058D0008354650006CE22CC4AC84EC61307000F7B
:1058E0006369970899C0184549C71389B4004209EC
:1058F000135909018547636E2607930750FA2380E1
:10590000F5008947A380F50083470500B6892E84FA
:105910002381F50083572500A381F500A18323820D
:10592000F50083474500A382F50083475500238394
:10593000F50083576500A383F500A1832384F50058
:105940000356650011C60C4513059400EFA0C2581C
:1059500093859400C205C18122850D379305E9FF27
:105960002E942300A4002181A300A40023902901E8
:105970008147F2406244D2444249B2493E850561C2
:1059800082803E858280854755C94DCA2947637705
:10599000B70A011122CC06CE26CA4AC84EC6834693
:1059A00005001307500A2A846392E608834615000F
:1059B0000947639DE6068349850003477500A209F0
:1059C000B3E9E9001307000F636237079384B90056
:1059D000C204C180639CB404F91493950401C1818D
:1059E000A2943289613D03C7140083C704002207D3
:1059F0005D8FA147631CE502834724002504230033
:105A0000F9008347B4FF0347A4FFA207D98F2311EE
:105A1000F9008347C4FF2302F9008347D4FF23130F
:105A2000390123248900A302F9008147F24062442E
:105A3000D2444249B2493E85056182803E858280DA
:105A400011C51306001581456FD07F8A82800548F5
:105A5000630E0518638C0518638A06186388071897
:105A6000914863F5C818797106D622D426D24AD057
:105A70004ECE52CC56CA5AC85EC662C403C925006F
:105A800041439308F9FF93F8F80F6364130B83CB3A
:105A9000150063F02B0B6D1693140601C1801306DD
:105AA000600F6368960803C605001373F60363125C
:105AB000030813BE1B0013537600631C6E06198285
:105AC000B388784193B81800058A6394C80683C9DF
:105AD00045003E8A83C73500A2093A8BB3E9F90035
:105AE00083470500B68A2E8C2A8489CB83572500EC
:105AF0006396370183474500638B270122858937E9
:105B000085472300F40023113401230224011C449F
:105B1000B3D77701858BA5EB8357C4009306B00FED
:105B2000338797004207418363F2E6022285093FEB
:105B30000548B250225492540259F249624AD24A5C
:105B4000424BB24B224C42854561828093991B00A7
:105B5000A299130524052398F9023E9526869305FC
:105B60005C00EFA062378357C400A6972316F400A9
:105B7000239799008547B3977701832B8400B3EB74
:105B8000FB00232474011444814733D7F600058BAE
:105B900021CF850713F7F70FE36927FF930BE40085
:105BA00081498144130C240503D60B00B3079600EA
:105BB000C207C183E36CFBF683D52B0233859A00C1
:105BC0008509E295EFA0423183D70B0093F9F90FD5
:105BD000890BBE94C204C180E31839FD23109A00DA
:105BE0002285B93D0148B1B70D48A1B742858280F1
:105BF00093D785002300B500A300F50093D70501D6
:105C0000E1812301F500A301B50082803747002020
:105C10009306C7A88567B69783A6C7AE1336150047
:105C200023A6C7AE93B616001307C7A86380A602C3
:105C300083D647AE41667D166385C60085062392EE
:105C4000D7AE83A7019711C11CCB5CCB8280BD4727
:105C50006384F50005458280232006002322060088
:105C6000231406002305060003471500834705009B
:105C700022075D8F2310E60003482500230106015B
:105C800083453500A301B600834755008346450090
:105C9000A207D58F2312F600034365002303660095
:105CA00083487500A303160183469500034E8500C3
:105CB000A206B3E6C6012314D6000345A5002305BA
:105CC000A60049DB93060002E3E606F98946E3E312
:105CD000B6F80548E36068F8E36E18F7639CD500F2
:105CE000B5DBE309F7F61305E5FA1375F50F133580
:105CF000D50A828023120600FDB723AA018A82807A
:105D000023AA018A82809387418B9443014591CADB
:105D100003A781970545158F6345070023A007005A
:105D200001458280411122C406C626C24AC0B94735
:105D30002E846311F510A547054963E0B706B74403
:105D400000209387C4A8985385479384C4A8114919
:105D50006315F70493071010B387F502A69783C75E
:105D6000970285CF13F4F50F2285EF2090250D497A
:105D70000DC59D4763EC8700B70503000A049385B2
:105D800045072E941C40828705454935130520039D
:105D9000EF10C0280149EF406071B24022444A85AB
:105DA00092440249410182800145C5B78567BE948E
:105DB000854723AAF4AED9BF8567BE949147D5BF66
:105DC0008567BE948947F5B78567BE948D47D5B77B
:105DD0008567BE9403D784AFB7570020BD464117EF
:105DE000420741839387C7A863F5E6006547239C74
:105DF000E7AE03D787AFF946E3EAE6F80507239C49
:105E0000E7AE69B78567BE9403D784AFB757002064
:105E1000BD464117420741839387C7A863F5E60053
:105E20006547239CE7AE03D787AFC146E3F0E6F6AC
:105E30007D17F1B79307F5FF93F7F70F31472A89DD
:105E4000636AF71A370703008A0713074709BA97E7
:105E50009C4382878547E3E2B7F4B334B000938470
:105E600004082685EF20407E630605182685EF206E
:105E7000701C63030518854733358000E307F9F08C
:105E80008947631DF90CB75700209387C7A823AA39
:105E900087AEEDBD91479384150AE3F4B7FC05493D
:105EA000EDBD938705F6C207C18313076009E36858
:105EB000F7FEA944B3F79502FDF3B3D4950293849A
:105EC000040345B78D4793841505E3FCB7F8C1BFBC
:105ED000894793841506E3F6B7F8D1B78547E3E021
:105EE000B7FCB334B00093840407A5BF8547E3E84B
:105EF000B7FAB334B0009384040BA5B78547E3E049
:105F0000B7FAB334B0009384040CA1BF8547E3E82B
:105F1000B7F8B334B0009384040DA1B78547E3E02C
:105F2000B7F8B334B0009384040E25BF8547E3E887
:105F3000B7F6B334B0009384C40925B78547E3E0CE
:105F4000B7F6B334B0009384E40921BF8547E3E892
:105F5000B7F4B334B0009384640921B78D47631C50
:105F6000F900A945B355B402B75700209387C7A8D5
:105F7000239CB7AE21BD91476319F900B7570020A4
:105F80009387C7A823AE87AE11B5B5476314F9044C
:105F9000B75700209387C7A883D787AF375700200C
:105FA000BD46C117C207C1831307C7A863F5F60032
:105FB000E547231CF7AE835787AF01C8F946E3E7EF
:105FC000F6DC8507231CF7AED1B3C146E3F0F6DC5F
:105FD000FD17CDBFAD47E31BF9DA0545EFF01FC351
:105FE000114711E00547B75700209387C7A823AA98
:105FF000E7AE69BB114955B30D4945B31171CAD913
:1060000086DFA2DDA6DBCED7D2D5D6D3DAD1DECFDE
:10601000E2CDE6CBEAC9EEC7231006008347450070
:10602000130710042A89E385E7402E84B28963644C
:10603000F71249476381E75C6363F7081547638F8D
:10604000E748636AF70005476386E73C0947638DC5
:10605000E7429144A5A141476381E74C4547E39A54
:10606000E7FEB74700209387C7A803D727002390F0
:10607000E50003D747002381E50005673E97834687
:1060800057B0A381D500835667B02392D50003474C
:1060900047B02383E5009853A383E50003D7670245
:1060A0002394E50083C747022385F500EFE0AFDBCB
:1060B000AA851305B400EFF0BFB3BD4791A913073C
:1060C0000003638FE76C636BF7024D47638DE75204
:1060D00013070002E39FE7F6035765008D478544E9
:1060E000631EF73C1C4503C7270083C5170003C583
:1060F00007002207D98DEFF0FFC221A31307100379
:106100006388E77E13070004E395E7F4835765008F
:1061100085446385073A144503C70600E317971EB5
:106120001147639DE73803C916009307100563E71D
:10613000273903C4360083C7260022045D8C630F11
:106140000436C167FD17630BF436EF20B005E31C7E
:1061500005188D44A5A613075005E38CE742636D2F
:10616000F70613072005E385E73C6364F70413078C
:106170000005E38FE72E13071005E39CE7ECEF60C3
:106180007060834755009544639A0732EF20900171
:106190008D4463050532EFF02FDCAA8463100532CD
:1061A000B7470020054723AAE7A823A601986F0058
:1061B000704A13073005E384E73A13074005E39A72
:1061C000E7E8835765008544639A072EEF80807A5D
:1061D0006305052E6F00902213078005E380E748D2
:1061E0006369F71813076005E38CE73A1307700536
:1061F000E391E7E6EFF04FA32A89EF40602D8D474A
:106200002300F40083470900AA8437490020A30033
:10621000F400834745022301F40083475502A3019C
:10622000F400834765022302F40083477502A3024A
:10623000F400834705022303F40083478502A30388
:10624000F400834795022304F40083578500A304D8
:10625000F400A1832305F4008357A500A305F400EF
:10626000A1832306F4008357C500A3070400230875
:106270000400A306F400A1832307F4008357E5007C
:10628000A308F400A1832309F40083570501A3099F
:10629000F400A183230AF4000C4113055401EFF02C
:1062A0003F95CC4013059401EFF09F949307C9A844
:1062B0009C471309C9A8A30EF400EFF0AF9719C5C6
:1062C000032789008D47054563E6E700EF40801E00
:1062D0003335A00083A58197230FA4001305F40193
:1062E000EFF01F9183C7A40213057402A301F40207
:1062F00083C7B4022302F40283D72401A302F40269
:10630000A1832303F402CC48EFF09F8E8C4C13053D
:10631000B402EFF0FF8DCC4C1305F402EFF05F8D6B
:10632000EF40A03883476500032789001305100854
:10633000A309F4028D4763F6E700EF30A03C137524
:10634000F50F230AA40283C71402A30AF40283D719
:106350002402231BF402BD47230CF402EF40401B30
:10636000AA853D4613059403EF90123793078004E6
:1063700045A21307B005E38CE7301307F005E3816E
:10638000E73213079005E396E7CC83556500854413
:10639000638605120845054783470500E399E72C06
:1063A000FD1593F5F50F0505EF40E016AA84631778
:1063B0000510EF40802F89472300F40083476500D4
:1063C000AA84A300F400834775002301F400EF4082
:1063D00020108347A50213056400A301F40083D7AE
:1063E00044002312F4008C40EFF09F80EF40402ED9
:1063F0002315A400EF40E02E2316A4009305100EF1
:106400001305F400EF40002F2307A4003D0523905F
:10641000A90065A0B74700201387C7A81853938425
:10642000C7A80DEF13050008EF200022896531C9C8
:106430009385F5EF2285EFF0AFFBB707161393872F
:1064400027205CC09C502304F400EF20E052A304FA
:10645000A40021812305A400AD475DA8EF20C05111
:10646000137735008D478965631AF700938515AF5B
:106470001375C50361D193E525006DBF938505AF05
:10648000C5BF938505AF7DB7EFE01FFA93054505BE
:106490002E852EC6EFE0BF89AA84B24511C1BD4446
:1064A0008947A300940026862300F40013052400E6
:1064B000EF9092228904239099008144FE506E54FB
:1064C00026854E59DE54BE592E5A9E5A0E5BFE4BFF
:1064D0006E4CDE4C4E4DBE4D11618280835765007F
:1064E0009DCB8544E3ECF4FC1C4583C70700138770
:1064F000F7FF1377F70FE3E3E4FC03A781978966BF
:106500009386067136972300F40023AAE18A854713
:106510002390F9005DB78547CDB7EF10D020B7477E
:1065200000209387C7A88564BE9403A7C4AE83D612
:1065300004AF2946133717002300E40003A744AF34
:106540002A89A300E40003D784AF2312D4003307C1
:10655000C7022311E40003A7C4AF2303E40003D759
:10656000C4B0A303E40021832304E4009C47A304F4
:10657000F40083C744B0A30504002316040093B7B6
:1065800017002305F40023070400EFE0CF8DAA8550
:106590001305F400EFF0CFE58347C9001305A4010C
:1065A000A309F40083570900231AF4008357290034
:1065B000231BF40083574900231CF40083A544AD3A
:1065C000EFF00FE383576900231FF400EFD04FC2B1
:1065D0002300A402EFD02FC2A300A4022181230133
:1065E000A402EFD0AFC1A301A40221812302A4021F
:1065F0009307500231BF8355650008455008EFF0FE
:106600000FE5AA8465BD8355650008455008EFF085
:106610000FE4AA84E31405EA374900209307C9A8C8
:106620000347B10183C707021309C9A86312F70E14
:106630000357C10183576902631CF70C0347E1014B
:10664000834749026316F70C8564CA9483C644B035
:106650001306000A938544A3081036C6035D29007B
:10666000035B490083AC44B0832A0902035A6902E0
:10667000034C4902EF905206835741018345A10123
:106680000347B1012311F900834761010346E1018A
:10669000B75D00202312F900834771012382B4B053
:1066A0002320E902A382F4B0835781012302C902A7
:1066B000938DCDA82393F4B08357C101B74B00202D
:1066C000B2462313F90239CB014783C7CDB00A077D
:1066D000ED9BD98F2386FDB06384B600EF80A018B0
:1066E000EFD07FF8EFD0DFC4AA8421E9EFD0BFF765
:1066F000AA852285EFF0CFCF91472390F9008547F7
:106700002324F9009167938787A923A6F1987DB385
:10671000EF2040298D44E30305DA3DB7130510054A
:106720000547E364C5FAFD17C20741677917C183BE
:10673000B3B7E70013C7170049BF137BFB0F93FAEA
:10674000FA0F2311A9012312690123A29DB123206D
:1067500059032313490323028903814763910A02E2
:10676000130710058547636C87017D1A420AC167CC
:10677000F917135A0A01333AFA0093471A0003CA69
:10678000CDB08A071306000A137ABAFF336AFA00FB
:1067900023864DB10C1013850B4CEF90E27339BB7F
:1067A000374600208146814801471306C6A80545A3
:1067B000A9459387360A9207B297DC4313F817006E
:1067C000630B08008583990705079D8B1377F70FE7
:1067D0006363F50085488506E39DB6FCB747002056
:1067E0002300E4009387174C014885440943854EF4
:1067F000130F500A93C81800294E1305380A1317AF
:10680000450032978346470013F716005DCFB98ADB
:10681000639A660C03C7D7006317E70183C6C700F6
:1068200005476374D300C6860547B30F94009315DC
:1068300045002380DF01B295CC41814285819D894D
:10684000A380BF0083C5070093F5F5072381BF0030
:1068500093853400A29519C383D217002390550065
:1068600093855400A295814219C383D237002390A7
:10687000550093857400A2952DCBC206C18223904A
:10688000D50093869400A296954519E383D53700E9
:106890002390B60083C6A70083C59700A206CD8EBD
:1068A000A395DF0009C783C6B700094791EA13170C
:1068B000450032970347C700058B133717000507BC
:1068C000B904C204A386EF00C1800508C107E3161E
:1068D000C8F3EFD05FD92694AA852285EFF04FB197
:1068E0009104D1BE0147814689B783D6170041BFC5
:1068F000B75500209385C5A81306000A938545A3C4
:106900000810EF90625D83576900374A00201147F5
:10691000130A0A4C637BF710032989002947834433
:1069200009006364971039473387E4021507639EB3
:10693000E70E374500201306000A81451305054C74
:10694000EFC0FF9A930719005287814E8943930243
:10695000F05905451309000F930AF005654B930B99
:1069600050FA6392D403EFD01FD0EFD07F9CAA845B
:1069700055EDEFD05FCFAA852285EFF06FA7914745
:106980002390F90025BE83C8470083C6370003C89B
:106990006700A208B3E8D80083C65700220803C6E0
:1069A00077003368D80083C6870003CEA70083C56D
:1069B000C700A206D18E03C69700220EA205336E31
:1069C000CE0003C6B700C206C186D18D03C617002C
:1069D000C205C1851303F6FF139C0601939F0501B1
:1069E0001373F30F135C0C0193DF0F0103CFD70078
:1069F00063ED63021383FFFF42031353030163E656
:106A00006202930CFFFF13F3FC0F636065026314D3
:106A1000A60263EC120163EA020163E8830103C387
:106A200027001373F3076316030285441306000A55
:106A30000C1052859DB313030CF64203135303014C
:106A4000E36569FE1303BEFF420313530301E3EE44
:106A50006AFC03C30700137D7600060DB33D60009A
:106A6000034307001373030F3363B3013363A301BD
:106A70002300670003C327001373F307A300670015
:106A80006303A600E288231117016303A60072883E
:106A90002312070185486304A60093B81C0003482D
:106AA000870093DF8F002305B7001378080C336845
:106AB000180123040701A3046701A305F701814519
:106AC0006315A600791F93351F002306B7006316D0
