:040000006F10D00BA2
:10000400000000000000000090000020A204002076
:10001400A9BDF9F3900000200000000000000000DA
:10002400900000209000002000000000000000006C
:10003400900000200000000090000020000000005C
:1000440090000020900000209000002090000020EC
:1000540090000020900000209000002090000020DC
:1000640090000020900000209000002090000020CC
:1000740096050020900000209000002090000020B1
:1000840090000020900000209000002090000020AC
:1000940001A04111B7170040985F3AC6945F3247F8
:1000A400E39CE6FE32454101828073270080218B68
:1000B4009387018109CB7327008023A8E1809843AB
:1000C4005D9B731007800F100000371700409306E4
:1000D40070052300D704930680FA2300D7040F1079
:1000E40000008346B70493F6F60DA305D704230056
:1000F4000704732600809443A18AD18E73900680EE
:1001040023A801800F10000093760502638406186B
:100114000347A700118B25E773270080218B09CBA8
:100124007327008023A8E18098435D9B73100780A8
:100134000F10000037170040930670052300D70402
:10014400930680FA2300D7040F1000008346A7000B
:1001540093E646002305D70023000704F326008016
:100164009843218B558F7310078023A801800F10AB
:1001740000001307004B010001007D176DFF73277A
:100184000080218B09CB7327008023A8E18098434A
:100194005D9B731007800F10000037170040930613
:1001A40070052300D704930680FA2300D7040F10A8
:1001B40000007D892314A700010001000100010053
:1001C40023000704F32600809843218B558F731076
:1001D400078023A801800F10000073270080218B63
:1001E40009CB7327008023A8E18098435D9B73109B
:1001F40007800F1000003717004093067005230096
:10020400D704930680FA2300D7040F1000000F10C0
:100214000000B726004013061005A383C680230000
:100224000704F32600809843218B558F73100780B1
:1002340023A801800F10000073270080218B09CBB5
:100244007327008023A8E18098435D9B7310078087
:100254000F10000037170040930670052300D704E1
:10026400930680FA2300D7040F1000008346B704D6
:1002740093E60608A305D704230007047327008028
:100284009C43A18BD98F7390078023A801800F1002
:100294000000828093760504638B06140347A7004D
:1002A400418B25E773270080218B09CB73270080BE
:1002B40023A8E18098435D9B731007800F10000012
:1002C40037170040930670052300D704930680FA7D
:1002D4002300D7040F1000008346A70093E606010D
:1002E4002305D70023000704F32600809843218BBD
:1002F400558F7310078023A801800F100000130787
:10030400007D010001007D176DFF73270080218BA4
:1003140009CB7327008023A8E18098435D9B731069
:1003240007800F1000003717004093067005230064
:10033400D704930680FA2300D7040F1000009376A5
:10034400F50193E606042314D7000100010001001F
:10035400010023000704F32600809843218B558F66
:100364007310078023A801800F1000001307600496
:100374006310E50473270080218B09CB7327008069
:1003840023A8E18098435D9B731007800F10000041
:1003940037170040930670052300D704930680FAAC
:1003A4002300D7040F100000B72600400946B5B556
:1003B40073270080218B09CB7327008023A8E18059
:1003C40098435D9B731007800F100000371700409F
:1003D400930670052300D704930680FA2300D704FC
:1003E4000F100000B7260040130620053DB5732703
:1003F4000080218B09CB7327008023A8E1809843D8
:100404005D9B731007800F100000371700409306A0
:1004140070052300D704930680FA2300D7040F1035
:1004240000008356870093E6060C2314D700C5BB4F
:100434004111814601468145114506C6152CF32715
:100444000080A18B9386018189CBF327008023A8A8
:10045400F1809C42DD9B739007800F100000B7175A
:100464000040130770052380E704130780FA2380F4
:10047400E7040F10000003C7670413671700238302
:10048400E70423800704732700809C42A18BD98F43
:100494007390078023A801800F100000B24041012F
:1004A40082808146014681451145D922F327008087
:1004B400A18B1387018189CBF327008023A8F180C6
:1004C4001C43DD9B739007800F100000B71700409A
:1004D400930670052380D704930680FA2380D704FB
:1004E4000F100000FD562396D70223800704F3263D
:1004F40000801C43A18BD58F7390078023A80180B3
:100504000F100000F3270080A18B89CBF327008014
:1005140023A8F1801C43DD9B739007800F1000001B
:10052400B7170040930670052380D704930680FA1A
:100534002380D7040F10000083C6670493E61600D7
:100544002383D70423800704F32600801C43A18B54
:10055400D58F7390078023A801800F10000001A09D
:10056400BD473305F50201007D1575FD82804111FB
:1005740022C426C206C6AA84014463179400B2406A
:10058400224492444101828005041305803E4204C2
:10059400C13F4180DDB7B71700401307000323882C
:1005A400E702854723ACF18073002030411106C671
:1005B400A92DFDBF2303048015472303E480010014
:1005C4002302A480828083076480E3CE07FE230392
:1005D4000480828083076480E3CE07FE0345448061
:1005E400828083076480E3CE07FE2302A480828096
:1005F400411126C44AC24EC006C61377F50BAD4757
:10060400AA892E8995446306F70019456537653F25
:100614008D444E854537FD59FD1463983401B2402D
:10062400A24412498249410182801355090113757C
:10063400F50F453F2209CDB7011126CC06CEB704EC
:10064400080051371545BD37713769372AC6A53FAC
:1006540032459377150089EB136515001375F50F73
:10066400F240E24405618280FD14E9FC0145CDBFFE
:10067400397126DC4ADA4ED852D656D45AD25ED0D4
:1006840006DE62CE66CCB7E700E07D5783AA07009A
:1006940022C603AA470023A0E71823A2E718B71726
:1006A4000040130770052380E704130780FA2380B2
:1006B400E70483C74704930B75FFB684E20793FBF3
:1006C400FB0F8546AA892E8B328937240040E187A7
:1006D400015763FA76016308D500894613070002BF
:1006E4006313D5000157D98F93F7F70FB71C004058
:1006F4002382FC0411472303E4801305F00F5D3DBE
:10070400094CD135636D7C11B7050700DA9537873D
:100714000700795563F2E504B3879500636EF70229
:10072400370B0800A94733EB65016399F90689E49F
:100734008144513D26850DA0DA850945553D0509BD
:100744000345F9FFFD14050B693D81C49377FB0F45
:10075400FDF7DD3569FD7D55B717004013077005BA
:100764002380E704130780FA2380E70403C74704C0
:10077400418B2382E704F250B7E700E023A057112E
:1007840023A24711E25432445259C259325AA25A4E
:10079400125B825B724CE24C21618280A5476395B7
:1007A400F90685691309F00FB3069900B3742B0198
:1007B400B6941349F9FFB3749900856B33796901D1
:1007C400416B9387F9FFB3F7270199E363FC340185
:1007D40093D94900C147E3E637FF99BF0569C16969
:1007E4007D19D9B71305800D6388690113050002CB
:1007F4006384790113051008CA85DD3B353D21DD8D
:100804004E99B3843441D9B7DA852D45D533CA948A
:10081400E30099F205097D3BA30FA9FED5BF938799
:10082400F9FF93F7F70F6361FC0C83C71C041307EC
:100834003008631FF70437070800636BEB04B30742
:100844009B00B706100063F5D704334BEB008947D0
:100854006393F9068980D549E38C04ECDA8509456C
:10086400413B11090327C9FF91472320E480030773
:100874006480E34E07FE23033481FD17EDFBFD1472
:10088400110B81C49377FB0FE9FF7D3371F5E1B55B
:10089400B717004003C75704B707080013770702C8
:1008A40019E3B78707007955E378FBEA33079B0020
:1008B400E3FFE7F855B58547E382F9F2DA852D457C
:1008C400053B9389F4FFE38504E6293393F7390064
:1008D40091EB832604800327090093074900E39AD8
:1008E400E6E43E89CE84F1BFB5476396F90013056B
:1008F400900BC93135BDB1471305B00AE38BF9FE3E
:1009040099476391F904B7050800B365BB002D4509
:10091400C53181448D4BA149753963967401832790
:1009240004802320F9008504E39834FF832704809E
:1009340013172B01635507002312F900D5BB23229B
:10094400F900FDB39D476399F90281451305B0048D
:100954004531BD442320090023220900FD599D3956
:1009640093F77400CA9703C70700FD14398D2380D9
:10097400A700E39634FF6DBBA1476392F9046D3978
:100984008144630D0B008D479304C0036308FB008F
:100994009304000563048B01930440041375C50795
:1009A400E30895D81945393139390545213126856A
:1009B4000D3909453D314931E31C05D669BB9147E1
:1009C4006399F90013056006F536F53E13059009A1
:1009D4000DB7E38F09D4F154A9BB19CD91CD09CE3C
:1009E40081473387F500834607003307F500850701
:1009F4002300D700E317F6FE828019C991C909CAFA
:100A0400910583A7C5FF11057D16232EF5FEC5BFED
:100A1400828001C919C62A960505A30FB5FEE31DF8
:100A2400A6FE828081473307F5000307070019E318
:100A34003E8582808507C5BF01112E8626CAAA84F9
:100A4400131506019305F004418122CC06CE32C66B
:100A5400EF00904C2A8401C53246A685BD3F22850D
:100A6400F2406244D24405618280854715C18DC13C
:100A740005C28147B306F5003387F50083C6060037
:100A8400034707006398E6008507E315F6FE8547EC
:100A94003E8582808147EDBF9307F6FFBE952A9677
:100AA4006313C5008280FD1583C715000505A30FD8
:100AB400F5FEFDB7AA87014581CF09CE3E9685078D
:100AC40003C7F7FF6317B700E39BC7FE05458280A2
:100AD40082800145828079719387818322D4804307
:100AE40006D626D24AD04ECE52CC56CA5AC85EC674
:100AF4005DCCB7C4C901014B938901839384F43756
:100B0400172A0000130A4A6A972A0000938A8A6DFA
:100B140017290000130949718357240085E35C44B5
:100B2400631B0B0023ACF182832BC4002285EF00EE
:100B3400104B5E84B9A82326FB00FDB783A70900E8
:100B440082971C443307F5406376F5000327490078
:100B54001D8F2A9763E0E4089727000023AC0768F9
:100B64008355240003450400972000E0E780E05209
:100B74005C405844A1CB0C4403264900AE97BE8682
:100B840063E4B70063E4C700B386C74014C4228B90
:100B94003A8459F0972700009387C7649C4B094710
:100BA4006370F706F917172700002325F764B2507E
:100BB400225492540259F249624AD24A424BB24BED
:100BC4004561828063150B0023ACE182B1BF23260B
:100BD400EB0099BF03274A0209CF63EFA7003385CF
:100BE400A74083A70A016376F5009727000023A393
:100BF400A760228B404471BF03274900BA97C5B749
:100C04009727000023A8075E5DB7411122C417246B
:100C140000001304A45F1C4006C626C24AC091C744
:100C240082979727000023A3075E9727000083C7B6
:100C3400F760858B972400009384046095C39727FD
:100C44000000A38D075E83C774001547637AF7001D
:100C5400052E83C77400F5178A07A2979C438297D1
:100C64001C4491C3829713894182032709001726E4
:100C74000000034636579727000083C7A75693966C
:100C84001700BA9683D60600C5CE9727000083C7FF
:100C9400675563E1C70C97270000238507541C4060
:100CA400639507129727000083C7975991CF83C78D
:100CB400740093F7F70F89EB97270000A382075876
:100CC400973000E0E780604E938701839C43638EF6
:100CD400070E9727000093872755DC43172700004A
:100CE400232AF750CD3B972700009387E74BDC532B
:100CF400E9CF172700001307E74E184B972700008A
:100D040083C7D74B6363F70C83C774001547636EBF
:100D1400F70A9727000083C7A756918BDDE70326C0
:100D240009009726000083C6F64B63C6D70A2244FF
:100D3400B240924402494101178300E0670043FB3B
:100D4400850793F7F70F97260000238DF648E3E411
:100D5400C7F225BF86073E97835507002310070077
:100D6400239601829387C1839C4317250000034582
:100D7400654713172500BA979C43829783D7C1828E
:100D8400172700000347074693C7F7FF7D8D931786
:100D94001700032709003E97835707005D8D231032
:100DA400A7009727000083C7E74391C78507172744
:100DB40000002309F742172700000347A74297279B
:100DC400000083C73742E378F7ECB24022449244F0
:100DD4000249410182801397170032970357070095
:100DE4006DF7850799B7AD6737C70040BD07232660
:100DF400F7200F100000972700009387A73EC84FE5
:100E040083278726BD66BD0693C7F7FF99836A05C6
:100E14002326D7205D8D82804111B7170040985F4B
:100E24003AC6945F3247E39CE6FE32454101828034
:100E34001305F00F8280138701841443411122C4E7
:100E44009C5E4AC006C6998326C2858B3A84138960
:100E54000187D1C79C5E972400009384E43D93F7F7
:100E6400F7F99CDE172700000347673D9307000846
:100E7400631BF700832709009C4393F70704172794
:100E84000000230EF73A83C7040093F707048DC3C9
:100E9400938701839C4382979727000023A6A73A50
:100EA40083C7040093F7F70B172700002306F738CE
:100EB40083C7440093F707049DE385471727000081
:100EC400A30EF7369387C1849C43096798C7130719
:100ED40000FC972600002383E636D844F8D31C4050
:100EE400985F1183058B09CB985F3D9B98DF05477D
:100EF400972600002384E634985F1D83058B11CB6D
:100F0400985F1377F7F798DF8547172700002307C3
:100F1400F73283270900D8430583058B19C7D843C3
:100F2400759BD8C3D843799BD8C3B240224492441A
:100F3400024941018280397106DE16DC1ADA1ED8B4
:100F44002AD62ED432D236D03ACE3ECC42CA46C865
:100F540072C676C47AC27EC0F93DF250E252525350
:100F6400C2533255A255125682567247E24752482E
:100F7400C248324EA24E124F824F2161730020307C
:100F84009387C1849443972700009387E72A03C774
:100F94000700058B11CB972700002381072A972789
:100FA4000000A38D0728828003C71700058B65F70F
:100FB400F85271FF83C75700DDB7138801840327F4
:100FC40008001C5F9583858BD1E709C61C5BBD8334
:100FD4002300F60085CA83270800985B46079357C9
:100FE40067016356070093E707C0C207C1830397ED
:100FF4000600C207C18709C7BA970947B3C7E70202
:101004002390F60085CD834715008DCB97260000ED
:1010140083C6E62293F606041387970089478DCA90
:101024003A9503470500854699471376F7066311F9
:10103400D60262076187B947634C0700832708001B
:101044009C5FED838D8B17270000A30CF71E81474F
:101054003E8582808547EDBF411122C406C61384B4
:10106400C18418402DE9AE877453FDFE3E85B285D8
:10107400972700002383071C973000E0E78040EDAA
:10108400938701849C43B70680009843558F98C387
:10109400D857719BD8D797270000A381071A9727A1
:1010A4000000A38B07181C40094798C31440172756
:1010B40000001307671883472700858B89EB834754
:1010C4003700858BD9C39727000023890716B240C0
:1010D4002244410182808D47631EF5009387018479
:1010E4009C43B70680009843558F98C3D857719B8B
:1010F400D8D76DBF8547E31BF5FA5447F977FD1739
:10110400F58F5CC70F1000001C40096798C71307D0
:1011140000F8172600002303E61213870184104306
:10112400184231830D8B11E713076019F8D3D4C724
:10113400B5BF1842094631830D8B6315C7001307E9
:10114400E043EDB71307E01BD5B7FC52ADF741B749
:101154005D71A2C4A6C22A84130680022800AE844C
:101164009305100886C6CAC04EDE52DCEFF07F8AB3
:101174003545973000E0E780001513830184832709
:1011840003009376F41F138E418523A40700984B24
:10119400938EC184370FFCFF1367F70398CBF84F86
:1011A400130510F8B7020400137707E0558FF8CF42
:1011B4009843F576FD16758F98C39843B7063300A8
:1011C400930380251377F7E798C3984311497D1F4C
:1011D4001377F7E71367071098C303270E008549B1
:1011E400930F80021C47D58F1CC783A70E001307DB
:1011F400900D3400B8CB014793553700A69583C7AB
:10120400050013767700B3D7C740858BE1C38327E6
:10121400030083280E00239C07042390070603A8D9
:10122400C8021378D8FF23A6080383A807001378FD
:10123400F70793F808F833E8080123A0070103A887
:1012440047023368580023A2070383A80E0001480D
:1012540023A2780603DA07066307480303A80703F3
:10126400038A06001358F80062081358884163582B
:101274000A0103A807031358F8002380060103D8C2
:1012840007061378F80F03AA480663060A0003DA70
:101294008705E37F49FB03A847023378E80123A2CB
:1012A400070383870600635CF40003C805003396D4
:1012B400C9001346F6FF337606012380C5003E8637
:1012C40063D3A7002A861315860161850507137762
:1012D400F70F8506E312F7F3B64026449644064911
:1012E400F259625A616182809386C1849C42D847D4
:1012F4001316170163550602984713161701635016
:1013040006027D57B8D7172700001307A7ED584FDB
:101314000507172600002325E6EE116798C79847AE
:101324000D83058B1DCB17270000034707F11367B7
:101334001700172600002302E6F0130700F817260B
:101344000000230DE6EE214798C71387018410435C
:101354005856719B1367170058D69847058B0DC7CD
:1013640017270000034757ED1367170017260000DF
:10137400A304E6EC054798C7138701841043585625
:10138400719B1367170058D698470983058B09E7A3
:1013940098470583058B21CF98471726000013062D
:1013A400A6E9138501840983058B6303071018419B
:1013B400184331830D8B75EBAC4B184E93F5050236
:1013C40003471700CDCD79EF13077006D8CF034735
:1013D40006001367170017260000230FE6E41147E1
:1013E40098C718415C57F19B93E717005CD79C4260
:1013F40098479316370163D606029726000083C6E2
:1014040066F1C18A17270000130747E9C5CE0347D1
:1014140087071367070297260000238DE6EE05670A
:1014240098C798479316270163D10602172700002F
:101434000347C7E06207618763570700054797269C
:101444000000238DE6DE096798C7984793160701C5
:1014540063D606029726000083C6D6EB858A172733
:1014640000001307A7E3ADCE0347970713672700D0
:1014740097260000A380E6EA216798C7828029D7CF
:1014840085456315B7001307B00689B78945631509
:10149400B7001307F0061DBF8D456315B70013078A
:1014A40030072DB71307500715B71307600739BF67
:1014B400034736001367170017260000A30FE6D66C
:1014C400094739BF834687070946BD8A6388C60032
:1014D400034787078D463D8BE313D7F4114725BF98
:1014E40083469707918AC9DA0347970713678700EA
:1014F40041B7397106DE16DC1ADA1ED82AD62ED484
:1015040032D236D03ACE3ECC42CA46C872C676C42F
:101514007AC27EC0D13BF250E2525253C25332558A
:10152400A255125682567247E2475248C248324E7A
:10153400A24E124F824F2161730020301727000002
:10154400130747D18346B7019727000083C757D3B2
:101554004C4BB697FD8B33D7F50097260000A38B31
:10156400F6CE97260000A38DF6D0058B15EF17272E
:101574000000034737D1B3F7E7028146014713055B
:10158400000233D6E500058A1378F70F19CA63976A
:10159400D70097270000A38F07CB8280850693F698
:1015A400F60F0507E31FA7FC82809727000083C777
:1015B400F7C8D9E7938701839C43411122C426C20B
:1015C40006C68297972700009387C7CA8047BE84C0
:1015D4006303A40663688504018D1354550097279B
:1015E400000083C7C7C86368F404893F98449727F9
:1015F400000083C7C7C79396570036971D8C97265C
:10160400000023ADE6C6E372F4FE2244B2409244E5
:1016140017250000034515C481454101173300E037
:10162400670063FF97270000938707C0DC43338478
:10163400874022955DB7B2402244924441018280A2
:101644008280938701839C43011122CC4AC806CE31
:1016540026CA4EC68297972700009387A7C1804762
:1016640001496301A406BE8463668506018D135493
:1016740055009727000083C787BF1379F50163607E
:10168400F40497290000938929BA4D3D03A88400E6
:101694009726000083C6A6BD139756004297158C63
:1016A4003A8683A54900636407016364B70033067F
:1016B400B7409727000023A3C7BCE378D4FC1604E3
:1016C40033692401F24062444A85D2444249B24912
:1016D4000561828097270000938707B5DC43338434
:1016E4008740229569B79387C18498438567938718
:1016F40007777CD3938741859C4383A60709139678
:1017040056006358060083A60709139666006344CF
:1017140006007453FDF2828061C1AA870145DDCDC4
:101724008D07C207C183F19BC207C183130740031E
:10173400636BF7021387818608431387018614437A
:101744006396A60217270000130707A6185B014536
:1017540051C74111C20706C60545DD8D0297B24047
:1017640001454101828013874186F9B7035765001B
:1017740035E303574500636FF704B306F74021468A
:10178400637CD60203280500938687001D8FAA96E2
:10179400611717260000035646A52392E60023A0EE
:1017A40006012393060014C12312F500130786FFD4
:1017B40097260000239BE6A22313B500972500007B
:1017C40083D5A5A2B387F54017270000231FF7A0F0
:1017D400210582800841ADB701458280828009CD10
:1017E4009387818603A307009387018683A8070054
:1017F40081469A8763E31701828003A8070063691F
:10180400F50A6367A80A13878700E367E5FE03D632
:101814006700216705076317E60003C7C18605074C
:101824002386E186972500009385C59B03D6470050
:1018340003D7650023930700329742074183172596
:1018440000002314E59A63886702138541860841E2
:101854006303F50203D5660019ED83D7460023A080
:10186400060121073E9621062392C6009727000011
:10187400239DE796B6879843E30017F9938641863C
:101884009442E30BD7F683566700BDF683D6470030
:10189400035647001843A106B2962392D70098C373
:1018A40083D76500A107172700002310F7948280CF
:0818B400BE86C28781B7000067
:1018BC00971100209381C186176100201301C17319
:1018CC001305400097E5FF1F93850573170600204D
:1018DC00130606FE63FAC5008322050023A05500FB
:1018EC0011059105E3EAC5FE177500001305C54BFC
:1018FC00970500209385C5FB1386018163FAC5000B
:10190C008322050023A0550011059105E3EAC5FECD
:10191C001385018197250020938545AA6377B5002F
:10192C00232005001105E36DB5FEFD42739002BC4A
:10193C008D4273904280930280087390023097E23C
:10194C00FF1F9382626B93E2320073905230371711
:10195C000040930770052300F704930780FA2300D7
:10196C00F7040F1000003C47B70600FAE116F58F9C
:10197C00B70600069506D58F3CC7971200009382D8
:10198C00224B73901234730020303D432A876373CB
:10199C00C3029377F700BDEFADE5937606FF3D8A62
:1019AC00BA960CC34CC30CC74CC74107E36BD7FEAC
:1019BC0011E28280B306C3408A0697020000969615
:1019CC006780A6002307B700A306B7002306B7005D
:1019DC00A305B7002305B700A304B7002304B70081
:1019EC00A303B7002303B700A302B7002302B70079
:1019FC00A301B7002301B700A300B7002300B70071
:101A0C00828093F5F50F93968500D58D93960501FD
:101A1C00D58D61B793962700970200009696868223
:101A2C00E78086FA9680C1171D8F3E96E374C3F843
:101A3C00A5B7B717004003C777051377E70FA38B3C
:101A4C00E704130700F8A38DE7043D47238CE70454
:101A5C0013075003A38CE7048280B717004083C799
:101A6C00E7020D8993F7C70FC98F73270080218B6D
:101A7C009386018109CB7327008023A8E1809842CB
:101A8C005D9B731007800F10000037170040130682
:101A9C0070052300C704130680FA2300C7040F1037
:101AAC0000002307F70223000704732700809C42E1
:101ABC00A18BD98F7390078023A801800F10000091
:101ACC00828041112A83014E930E407E130F001920
:101ADC00930F400663E66E14930800191303400637
:101AEC00B3781503854E0D4FA14F337365020D89E5
:101AFC001335150063E0BE161308F6FF794672988D
:101B0C004208135808013307C70213D61700BE0743
:101B1C0032976146B3F6C60213068070B386C602CE
:101B2C003697A166F58F42075D8FB716004083C7C5
:101B3C00F60293F70708A307F1000346F10083C7E9
:101B4C00F60293F70708E394C7FE8347F100B71634
:101B5C00004093F7F70F63890714F3270080A18BDC
:101B6C0093860181639807140F100000B71700408B
:101B7C00130670052380C704130680FA2380C7045C
:101B8C000F10000023AA070303C6170313660608E9
:101B9C00A388C70223800704732600809C42A18B74
:101BAC00D18F7390078023A801800F10000011665D
:101BBC00B71500407D16DC59C85DA98FF18FE5FF84
:101BCC00F3270080A18B89CBF327008023A8F18019
:101BDC009C42DD9B739007800F100000B7170040EC
:101BEC00130670052380C704130680FA2380C704EC
:101BFC000F100000D8DB03C7170313670704A38873
:101C0C00E70223800704732700809C42A18BD98FA5
:101C1C007390078023A801800F100000410182807F
:101C2C007D133368E3039308E016630E08003368F2
:101C3C00F3039308D016630808009378330093B825
:101C4C0018009388D81633081E01131E0801135E62
:101C5C000E0149B56393E503054863860800014806
:101C6C00630303002A8871087298FD15131E08017E
:101C7C00C205135E0E01C181B5BD13F8150063F4E6
:101C8C00BF007908D5B713381800E5BF83C7F60233
:101C9C0093F70708A307F1000346F10083C7F60288
:101CAC0093F70708E394C7FE8347F10093F7F70F08
:101CBC00F1DF65B5F327008023A8F1809C42DD9B02
:101CCC007390078055B55971E2C486D6A2D4A6D2BA
:101CDC00CAD0CECED2CCD6CADAC8DEC6E6C2EAC0EC
:101CEC006EDE2A8C02D6EF00F016F3270080A18B53
:101CFC00138D018191CBF327008023A8F1808327DA
:101D0C000D00DD9B739007800F100000B71700408B
:101D1C00130770052380E704130780FA2380E70478
:101D2C000F10000003C7F7021377770FA387E702A2
:101D3C0003C7F70213678700A387E7022380070412
:101D4C007327008083270D00A18BD98F7390078098
:101D5C0023A801800F100000F3270080A18B91CBEA
:101D6C00F327008023A8F18083270D00DD9B73905F
:101D7C0007800F100000B717004013077005238071
:101D8C00E704130780FA2380E7040F10000003C751
:101D9C00E7021377C70F2387E70203C7E70213672E
:101DAC0017002387E702238007047327008083270B
:101DBC000D00A18BD98F7390078023A801800F1081
:101DCC0000001308803E334605039307007D21670E
:101DDC00930550023D6937440F0013040424856BAE
:101DEC00130BA004916A8149014A93047005FD1AF2
:101DFC00B307F602B3C7E702130780C13347E50206
:101E0C003EC2930709A60549331989011359394074
:101E1C003307B7023347F702334585023AC41384BC
:101E2C000BFA33148401811BB305B60233C7F502D8
:101E3C0033048502130500103AC6330B6603334492
:101E4C00A4023347FB02130B80FA330404033AC891
:101E5C00130700083347E4023309C9023ACA1307CF
:101E6C0060553309E902B347F902371900401304EE
:101E7C0009043ECC73260080218A11CA7326008087
:101E8C0023A8C18003260D005D9A731006800F10E5
:101E9C000000930770052300F400230064010F1069
:101EAC000000034639051376860FA309C9040346BF
:101EBC00390513661600A309C90423000400732511
:101ECC00008003260D00218A498E7310068023A8FA
:101EDC0001800F100000916CE17D73260080218A37
:101EEC0011CA7326008023A8C18003260D005D9AB9
:101EFC00731006800F100000930770052300F40088
:101F0C00230064010F100000034639051366060216
:101F1C00A309C90403560905336696012318C9049D
:101F2C00035609053366B601420641822318C904DB
:101F3C00230004007325008003260D00218A498E9E
:101F4C007310068023A801800F100000034639058A
:101F5C00137606026305061603463905218A6DDEE3
:101F6C006810152F73260080218A11CA73260080F1
:101F7C0023A8C18003260D005D9A731006800F10F4
:101F8C00000023009400230064010F10000003469E
:101F9C0039051376F60DA309C904034639051366F2
:101FAC000602A309C90403560905336696012318D2
:101FBC00C904035609053366B6014206418223184B
:101FCC00C904230004007325008003260D00218A18
:101FDC00498E7310068023A801800F100000034661
:101FEC003905137606026308061003463905218A63
:101FFC006DFE97E0FF1FE78040092A8632CE97E0FE
:10200C00FF1FE78080087246E30AC5FE03560905E8
:10201C003255336696012318C904712D03463905D0
:10202C00218A6DDE0355090503462905924733F5D0
:10203C00AA003386CA0232951D8DA24763D5A7002C
:10204C00B2476346F50E09466365460FC247050A5B
:10205C0013161500137AFA0F3346F6026354A03A9E
:10206C00050609453346A60273250080218911C94E
:10207C007325008023A8A18003250D005D997310A2
:10208C0005800F10000023009400230064010F1042
:10209C0000000355C9022A96420641822316C90242
:1020AC00230004007325008003260D00218A498E2D
:1020BC007310068023A801800F10000039BD732611
:1020CC000080218A11CA7326008023A8C1800326B0
:1020DC000D005D9A731006800F1000002300940011
:1020EC00230064010F100000034639051366060235
:1020FC00A309C90435BD73260080218A11CA732631
:10210C00008023A8C18003260D005D9A7310068001
:10211C000F10000023009400230064010F10000036
:10212C000346390513660602A309C90459BDE30F1A
:10213C000AF073260080218A11CA7326008023A816
:10214C00C18003260D005D9A731006800F100000ED
:10215C0023009400230064010F100000034639058E
:10216C001375FC0F1376860FA309C90403463905B2
:10217C00498EA309C9042300040073280080032698
:10218C000D00218A336606017310068023A8018096
:10219C000F100000034639051D8A63178627732626
:1021AC000080218A11CA7326008023A8C1800326CF
:1021BC000D005D9A731006800F1000002300940030
:1021CC00230064010F1000000346390511651376D6
:1021DC00F60DA309C9040346390513660602A309C3
:1021EC00C90403560905498E2318C9040356090569
:1021FC002165498E2318C90423000400732500802F
:10220C0003260D00218A498E7310068023A80180B5
:10221C000F1000000346390513760602630E0620E4
:10222C0003463905218A6DDE6810B52173260080BE
:10223C00218A11CA7326008023A8C18003260D00B1
:10224C005D9A731006800F10000023009400230089
:10225C0064010F1000000346390511651376F60D65
:10226C00A309C9040346390513660602A309C90468
:10227C0003560905498E2318C9040356090521651F
:10228C00498E2318C90423000400732500800326FB
:10229C000D00218A498E7310068023A801800F102F
:1022AC00000003463905137606026303061C034639
:1022BC003905218A6DFE97E0FF1FE78000DDAA8CAF
:1022CC0097E0FF1FE78060DCE30C95FF03560905E0
:1022DC001165498E32552318C904F12E0346390570
:1022EC00218A6DDE73260080218A1385018109CA3B
:1022FC007326008023A8C18010415D9A731006805C
:10230C000F10000023009400230064010F10000044
:10231C00034639051376F60DA309C90423000400FE
:10232C00732800801041218A3366060173100680E1
:10233C0023A801800F100000035809050346290546
:10234C00D24733F80A013386CA0232983308F84070
:10235C001306800C3306C802E2473346F602635577
:10236C00001505060948334606036351C01403588B
:10237C00C9029308F00F13585800329863D6081FFF
:10238C00094663733619F3270080A18B89CBF32799
:10239C00008023A8F1801C41DD9B739007800F10F7
:1023AC00000037170040930770052300F7049307CC
:1023BC0080FA2300F7040F1000008356C7028967C8
:1023CC008117D58FC207C1832316F7022300070498
:1023DC00732700801C41A18BD98F7390078023A891
:1023EC0001800F100000B650265496540659F64939
:1023FC00664AD64A464BB64B264C964C064DF25D79
:10240C00656182807D16B1B973260080218A11CA5C
:10241C007326008023A8C18003260D005D9A7310DB
:10242C0006800F10000023009400230064010F109D
:10243C000000034639052DBB73260080218A11CA82
:10244C007326008023A8C18003260D005D9A7310AB
:10245C0006800F10000023009400230064010F106D
:10246C0000000346390513660602A309C90469B3C3
:10247C0073260080218A11CA7326008023A8C1808C
:10248C0003260D005D9A731006800F1000002300C8
:10249C009400230064010F100000034639051366F5
:1024AC000602A309C904C5B37D166DBD55CE0358EC
:1024BC00C902B308C040135858006357180B09469B
:1024CC0063743605F3270080A18B89CBF32700803A
:1024DC0023A8F1801C41DD9B739007800F10000036
:1024EC00B7170040130770052380E704130780FA21
:1024FC002380E7040F10000003D7C7027D8B2396BF
:10250C00E70223800704E9B573260080218A09CAF3
:10251C007326008023A8C18010415D9A7310068039
:10252C000F10000023009400230064010F10000022
:10253C000356C9021376F60F3366760142064182C2
:10254C002316C90223000400732800801041218A3D
:10255C00336606017310068023A801800F1000005B
:10256C00850993F9F90F39B2F3270080A18B89CB38
:10257C00F327008023A8F1801C41DD9B739007801A
:10258C000F100000B7170040130770052380E704F5
:10259C00130780FA2380E7040F10000003D7C7024B
:1025AC0016063A96420641822396C70299BF914776
:1025BC0063EEB70217670000130747448A05BA9504
:1025CC009C41BA978287B717004003A7470B134566
:1025DC00F5FF698F23AAE70A03A7070B698F23A8C6
:1025EC00E70A03A7070A798D23A0A70A8280B717E9
:1025FC00004083A6470B1347F5FFF98E23AAD70A91
:10260C0083A6070B558D23A8A70A83A6070A758FE7
:10261C0023A0E70A8280B717004003A7470B498F16
:10262C0023AAE70A03A7070B1345F5FF45BFB71706
:10263C00004083A6470B1347F5FF758F23AAE70AC3
:10264C0003A7070A598D4DB7B717004003A7470BCF
:10265C00498FEDB7B717004003D58700420541817C
:10266C009377050491EB9377F5013755E801130542
:10267C0005803345F50282809377050C130700041F
:10268C006397E7009377F50137459C1CCDB721651F
:10269C00130505D0828037E700E01C435443A18327
:1026AC00E206D58F1CC1FD572320F7182322F718FB
:1026BC000F100000828013178500B7E700E023A0FD
:1026CC00E710618123A2A7108280B7F700E088474A
:1026DC00CC478280814737370040A14663C4C7008E
:1026EC00328582800345B740E38EA6FE3385F50024
:1026FC000345050085072304A740CDB797F7FF1FB7
:10270C00938707229C4317170020130727CB3E956E
:10271C00636EE500175700201307076E6368A70068
:10272C0017F7FF1F232EA71E3E858280FD57EDBF96
:10273C00411122C406C62A84313F2947B307E5025A
:10274C00B2408D83B3D7870222449507B3D7E702F3
:10275C0037370040C207C1832316F74041018280FE
:10276C00716541111305052006C6D937B7370040EE
:10277C00130770F82381E7400D47A381E740130747
:10278C000004A380E74005472387E740B24041019E
:10279C00828011456FF02FD3411193962500AA85A5
:1027AC002D4506C697E0FF1FE78000ECB2400145BF
:1027BC0041018280411126C29394250022C44AC053
:1027CC002A843289A686AA850146254506C697E045
:1027DC00FF1FE78060E9A6864A86A285294597E017
:1027EC00FF1FE78060E8B240224492440249014551
:1027FC0041018280011122CC06CE3714004026CA3A
:10280C004AC84EC652C483447405034AB40583496E
:10281C00840503499405EFF0CFA18347A40593F4F5
:10282C00F40F137AFA0F93E71700230DF40493F9BE
:10283C00F90F1379F90FB717004003C7A705058BDC
:10284C006DFF03D5C705A38D4705238C3705A38CD6
:10285C002705A38B9704F2406244D2444249B24903
:10286C00224A0561828041119397050122C406C654
:10287C00C1872E8463DB0700252D11C1212521651D
:10288C00218DB24022444101828093F7150013C57B
:10289C001500E5FB9397250163D00702EF10303D3F
:1028AC00CD3D37F60200130606E0896503C541816C
:1028BC00EF0030030965E9B7939715010145E3D2A1
:1028CC0007FC1765000013052519EF40307413063B
:1028DC000064916503C54181EF00B00011654DB7EF
:1028EC001D71494697650000938585121765000098
:1028FC001305852386CE97E0FF1FE780801601E93C
:10290C001765000013050512EF40507001A0B7F6D3
:10291C0000E0795798CAFD57DCCA0567B7E700E0B5
:10292C0023A0E7101306F00290C223A0E7180F10A3
:10293C0000001306C0038145480897E0FF1FE7809D
:10294C00C00C97F7FF1F938767053ECA896793876B
:10295C000780231CF100B5472304F102A16793877C
:10296C0007E03ECEB7070105938707103ED0ED4731
:10297C002312F10285472303F10297070000938786
:10298C00E7E1BEC497070000938707E3BEC68567DF
:10299C00938727D02315F10297070000938727D33D
:1029AC003EDAB7F50700970700009387E7E43EDEB1
:1029BC00814697070000938707DE7000E1051945F3
:1029CC00BEC097E0FF1FE78020CA58088147994690
:1029DC0070003E960346060085070507A30CC7004A
:1029EC00E398D7FED24791C703578101856763737C
:1029FC00F70001A04808EF00D01CAA8501C9176593
:102A0C00000013056503EF40304C01A0F640256132
:102A1C008280411117050000130525E506C622C466
:102A2C00EF00B016138441812300A4001128034544
:102A3C0004002244B240130600328965410155A5B9
:102A4C00411106C6F3270080A18B1387018189CB26
:102A5C00F327008023A8F1801C43DD9B7390078033
:102A6C000F100000B7170040930670052380D704A1
:102A7C00930680FA2380D7040F10000083C6F70258
:102A8C0093F6A60FA387D70223800704F3260080B2
:102A9C001C43A18BD58F7390078023A801800F1046
:102AAC000000F3270080A18B89CBF327008023A89B
:102ABC00F1801C43DD9B739007800F100000B7174B
:102ACC000040930670052380D704930680FA238078
:102ADC00D7040F10000083C6F70293E62600A387E5
:102AEC00D70223800704F32600801C43A18BD58FCB
:102AFC007390078023A801800F1000000545EFE0BC
:102B0C00DFF541391305407E814701478146054673
:102B1C008545EFE01FFBB240014541016F003034A9
:102B2C0091476301F514411106C622C426C24AC05E
:102B3C0063E0A70289472E84B2846308F5028D47AF
:102B4C006306F50CB2402244924402494101828052
:102B5C0093072002630DF50893074002630CF50EF2
:102B6C00D147E311F5FE914551A8A1ED830506006F
:102B7C0017650000130585EE176900001309C9EFEE
:102B8C00EF40903483C5140017650000130545EE23
:102B9C00EF40903383C71400636AF4002244B240C0
:102BAC0092440249294541016F401036B387840095
:102BBC0083C527004A850504EF4010311374F40FC8
:102BCC00D1BF9377140099C717650000130505EB67
:102BDC00EF40D04309883DD42244B240924402498C
:102BEC0017650000130545EA41016F403042176537
:102BFC0000001305A5EAEF407041A1452244B24004
:102C0C009244024903C5C181410141A1DDF983050B
:102C1C000600176500001305A5E9176900001309E4
:102C2C00A9E5EF40702A83C5140017650000130551
:102C3C0025E4EF40702983C71400E371F4F6B387E1
:102C4C00840083C527004A850504EF40F0271374E0
:102C5C00F40FD5B7176500001305C5E6EF40103B20
:102C6C00C14569BF914503C5C18145B741119397D2
:102C7C00050122C406C6C1872E8463DB07000D2C18
:102C8C0011C109242165218DB24022444101828069
:102C9C0093F7150091CB1306803E894503C5C1817E
:102CAC00892113451400CDB793F7250095CFEF205C
:102CBC00E07F17F5FF1F1305A5BF8347050093069B
:102CCC00F00F1306F00FFD17A94517F7FF1F23018F
:102CDC00F7BEEF1070541306803E894503C5C181C1
:102CEC000921134524004DB793F7450085CBEF2000
:102CFC00E07B17F5FF1F1305A5BB83470500930663
:102D0C00F00F1306F00F8507A94517F7FF1F2301D6
:102D1C00F7BAEF10F07E13454400BDB793F785006A
:102D2C008DCB17650000130525DDEF40302E414596
:102D3C00EF20906F83C7C18109C913064006A145D6
:102D4C003E8545261345840081B71306803E894590
:102D5C00C5BF93F705010145E38807F2176500002D
:102D6C00130545DBEF40902A1305800CEF20302C27
:102D7C0011C913060019C14503C5C1819D26134510
:102D8C00040119B79306F00F1306F00FA94517F5B8
:102D9C00FF1F1305E5B1EF10B076D5B779711306A7
:102DAC00000281450A8506D622D497E0FF1FE780F2
:102DBC00C0C5170500001305A5EBC12BB7477671ED
:102DCC00938797123EC4B7575500938757553EC605
:102DDC00FD573ECA8567938717802310F10097072C
:102DEC000000938727D41384C1813EC8ED5723007C
:102DFC00A400230EF1000A859147A30CF100EF10FB
:102E0C00B027AA8517650000130505CDEF40D00B40
:102E1C0017650000130585CDEF40501F03450400D6
:102E2C00A145A524B250225445618280411113055D
:102E3C00800406C697D0FF1FE780A02637170040F6
:102E4C008327870A8D451305002093E70720232449
:102E5C00F70AEFF0CFF5EFF0BF9017650000130500
:102E6C0025CCEF40B01A176500001305E5CBEF40F9
:102E7C00F019BD34793EEF30A0170D3797D0FF1FF6
:102E8C00E78040721DC18346E5FF1307F00F9147A1
:102E9C00639EE600411106C697F0FF1FE780A093E2
:102EAC00B24081473E854101828095473E858280B4
:102EBC00138701821C43411122C426C24AC006C694
:102ECC0001440149BA8489E7A1653D2E0DC401A8CE
:102EDC0003C7E7FF6318A7021DC8A1657D229840B0
:102EEC00832784FF6317E40223A0F182FD57232C70
:102EFC0004FE230FF4FE2285B24022449244024980
:102F0C004101828011E03E8983A787FF6DBF3E841B
:102F1C00E5BF232CF9FED9BF23A0018282809387C1
:102F2C0081839C4399E33E85828003D727006316F7
:102F3C00B70003C70700E308A7FEDC47E5B7BDCD24
:102F4C00797122D406D626D24AD04ECE01444147BE
:102F5C00B3D78540858BB1CF120531472295330508
:102F6C00E5029387818203A907008544B39484000A
:102F7C00C204C180BE892A990327090011C7032501
:102F8C0049002EC60297B24531473304E40283A7A9
:102F9C0009003E941C4489E72320090023220900E0
:102FAC00B2502254A58D02599254F2492E85456196
:102FBC0082800504E31EE4F88144DDB72E8582800F
:102FCC0041111397050122C406C626C24AC0418787
:102FDC002E84635E0700E93D11C16D35A1673D8C00
:102FEC002285B24022449244024941018280EDD9AB
:102FFC00AA8701474146B356E440858A9DCA920789
:10300C00BA97B146B387D7029386818203A906008B
:10301C008544B394E400C204C1803E99832709001F
:10302C000325490082972320090023220900258CBF
:10303C0045BF0507E311C7FC8144D5BF97070020A6
:10304C009387C7159C53411122C406C61384418033
:10305C0099C782971C403E9523A2A18029A09387F3
:10306C0001839C43FDF70840B74703009387D73F84
:10307C003305F502B7A72600938737ECB2402244FC
:10308C003E9523A2A180410182809707002083C72F
:10309C00B714637FF500138741829317150008431B
:1030AC003E9583570500DD8D2310B50001458280C8
:1030BC000D4582809707002083C717126371F502B4
:1030CC001387418293171500084393C5F5FF3E956E
:1030DC0083570500FD8D2310B500014582800D45F9
:1030EC0082809707002083C7370F6364F500014582
:1030FC00828001119387018356C283AA070006CEF2
:10310C0022CC26CA4AC84EC652C4638D0A0A170A74
:10311C000020130AAA1083244A00B74736FE93876F
:10312C0007C8AE899705002083D5C50FBE94B38719
:10313C00C5022A8432898146B3B5C502138507328C
:10314C00B337F50013060064BE95EF40601E63EBC9
:10315C00A406829A9705002083D5C50CB387250356
:10316C00AA84130600648146B3B525031385073280
:10317C00B337F500BE95EF40A01BB3079500BE8496
:10318C0003274A0063E4A70063E4E700B384E74045
:10319C00CE852285693301C504C505452DA09365EF
:1031AC0004F0C205C181414597E0FF1FE7804056FE
:1031BC0005E597070020938767FE9C5B81C7A28576
:1031CC00114582970145F2406244D2444249B249CA
:1031DC00224A924A05618280938781839C438DE3C6
:1031EC0023ACA18285472326050004C52311350194
:1031FC0023008500A300F5002322050079BFBA87C0
:10320C00D84775FFC8C7F9BF411122C426C24AC0AE
:10321C0006C62A892E842133AA8419C123110500DC
:10322C00A2854A85413D9707002083C7E7FA63973B
:10323C00270183D7C1825D8C23968182014591E061
:10324C001945B24022449244024941018280411105
:10325C0006C623AAA1820295B2409707002023A993
:10326C00A7F8014541018280994763E9B7008A05B7
:10327C00970700209387C7F8BE9588C182804111BB
:10328C007146814517050020130585F706C623AC4A
:10329C00018223AA018223A8018297D0FF1FE78015
:1032AC00C076130680028145170500201305C5F270
:1032BC0097D0FF1FE7806075EF30B0529707002062
:1032CC0083C737EF13D527008D8B3E958D4733057C
:1032DC00F502854539051375F50F97070020238EE8
:1032EC00A7EE99473305F5021305052497E0FF1F58
:1032FC00E780004223A4A18251C5994717060020FC
:10330C000346A6ED3306F60281451306062497D034
:10331C00FF1FE780806F938781829C4393870724EC
:10332C0023AEF18217070020034727EB0A07BA9751
:10333C0023A2F182D53695299387C18394439707AD
:10334C00002083C777E913972700369717060000EC
:10335C00130626BF10C3138717001377F70F0A073E
:10336C003697170600001306E6C510C313873700FF
:10337C00890793F7F70F8A0797050020A38EE5E4DA
:10338C00B69790C3B240410182809707002083C753
:10339C00B7E417070020034747E463F1E7021387FC
:1033AC00C18318439386170017060020A306D6E2A4
:1033BC0093962700369708C33E8582809307F00FBB
:1033CC00E5BF1C416388071641777D8FB706002047
:1033DC0089476312D71603574500630E0714411132
:1033EC0022C419462A849305F00F690506C697D0A6
:1033FC00FF1FE780A06B05478D476308E5121C444F
:10340C0081CB5858994763020712185C630F071059
:10341C001306C003814517050020130525D897D046
:10342C00FF1FE780805E1306C003A28517050020EE
:10343C001305C5D697D0FF1FE780A05917070020AA
:10344C00035787D697070020938747D519E71307AB
:10345C000010970600202399E6D417070020034795
:10346C00C7D411E70547970600202380E6D4170739
:10347C0000200357A7D311E76D4797060020239729
:10348C00E6D217070020034757D211E715479706D6
:10349C000020A38CE6D017070020034747D111E783
:1034AC000547970600202384E6D017070020034722
:1034BC0017D019E703C7F70097060020A389E6CEBB
:1034CC00170700200347C7CE11E7354797060020A2
:1034DC002380E6CE170700200347D7CD19E7130743
:1034EC00800297060020A387E6CC1707002003472D
:1034FC0037CC19E71307D00297060020A38AE6CA37
:10350C000347840119E71307C003970600202383A0
:10351C00E6CA9C5791C78297970700202392A7CCA5
:10352C00FD57238FF184A13B8147B24022443E8555
:10353C004101828089473E85828001114EC69709E0
:10354C0000209389A9CD83A7090006CE22CC26CAD8
:10355C004AC852C4829713090064B335250303DAB1
:10356C0089008146528633052503EF30705C97073E
:10357C000020938767C6804FAA8401456306940296
:10358C0033858440636E940003A5490052868146BE
:10359C00B335A9023305A902EF309059018D269558
:1035AC009707002023A697C4F2406244D2444249B4
:1035BC00B249224A05618280011122CC06CE2A84AE
:1035CC002EC6AD3CB245F240818D33A5A5022295A5
:1035DC0062441375F50F05618280011122CC06CE71
:1035EC002A842EC6A13CB245F240818D33A5A5029A
:1035FC002295624442054181056182809707002033
:10360C009387C7B9985739CB411122C426C206C635
:10361C00BE84029717070020035787BC2A8415CB5A
:10362C00BA876373A700AA87C207C183BA8663737C
:10363C00E400A286C206C182958F5147635BF700F6
:10364C00DC5491C38297EF00906297070020239976
:10365C0087B8B2402244924441018280828097070D
:10366C0000209387A7B3DC57011106CEAA8581C72A
:10367C002AC68297B245C9C19C410545BDCBDC41E8
:10368C00ADCB83D78500B5C783D7A500BDC383C792
:10369C00C500A5E3414617050020130525B897D0B2
:1036AC00FF1FE780003397070020938727B79C43C1
:1036BC0023A8F1829707002083C7D7AF8DE7930724
:1036CC008002170500200355E5B53305F502374692
:1036DC000F001306062481468145EF30704597078D
:1036EC000020A389A7AC17050000130545E5853616
:1036FC000145F240056182809707002083C767ABC4
:10370C00139787016187635407049707002023A34D
:10371C0007AE97D7FF1F9387876C17070020232FBF
:10372C00F7AE7D579707002023ACE7AEB787320082
:10373C00938727A19706002023A6F6AE97070020B3
:10374C00238407AEB7C7004023A4E726A9BF13F70D
:10375C00170005CFB7872003938707D017070020E2
:10376C002322F7ACB707C0A817070020232AF7AA13
:10377C0097D7FF1F9387C769170700202320F7AA45
:10378C0097070020238207AA39BF6177970600208C
:10379C00239AE6A881CB9307003217070020231445
:1037AC00F7A8C9B793072003CDBF011122CC17048A
:1037BC0000201304A49E084406CE26CA4AC801E978
:1037CC000545F2406244D2444249056182805C580E
:1037DC00E5DB185C75D77000854582971844B247B5
:1037EC00E300F7FE9305E004170500200355C59B85
:1037FC0097E0FF1FE780C0F117070020232EA79E3C
:10380C0061D1170600200356269A9305F00F97D026
:10381C00FF1FE780801F8144170900201309C99BF3
:10382C009707002083C767980326090263C1F40237
:10383C00328597E0FF1FE78000FA014597070020CB
:10384C0023AC079A9707002023AA079A9DBF9705D8
:10385C00002083D56595B38795020844185C89814F
:10386C0085043E9508C2029765BF011156C2970A9E
:10387C000020938AAA9283A78A0022CC4AC84EC6FB
:10388C0006CE26CA52C45AC0AA892E8432896385B0
:10389C00072203A74A03630707147D476366A7142F
:1038AC00970400209384449303AA040263170A0A22
:1038BC009565938515E0170500200355E58E97E077
:1038CC00FF1FE780E0E49707002023A7A7922A8632
:1038DC00630A051083A74A0303A58A0097050020F5
:1038EC0083D5858C8981829783A78A0003AA0402D9
:1038FC00170700202324F7908947639CF908C147D8
:10390C006312F40E9705002083D5058A938505FC78
:10391C009147B3C5F5028A05D29503C705009307F5
:10392C00A005631DF70A83C715006399370B4A85F9
:10393C002286910597D0FF1FE780A0099C505285E5
:10394C00639347150145F2406244D2444249B2495F
:10395C00224A924A024B05618280D850E38EE7F8E6
:10396C009565938525E0170500200355E58397E0C1
:10397C00FF1FE780E0D92A8A35C52A8683A74A0328
:10398C0003A58A009705002083D50582898182973B
:10399C00A5B78D47639DF900C1476315F4049705DE
:1039AC00002083D56580938545FDF199B5B7914786
:1039BC00639AF9006318340397F5FF1F83D5C57E0E
:1039CC00A115E5B7C147639FF900A14763EC8700D8
:1039DC0097F5FF1F83D5457DC115C1BF9C505285FE
:1039EC006397470D294585B71307F006568B63611E
:1039FC00A70A130A05FE1947334AEA0217F7FF1FF5
:103A0C000357877A97FAFF1F938A0A7D330AEA02D3
:103A1C003E9A83A74A026395470183A40A029DE458
:103A2C009305E00417F5FF1F0355057897E0FF1F7A
:103A3C00E78000CEAA845DD583274B0397F5FF1F43
:103A4C0083D585762A86898152858297914513077D
:103A5C00A005898193972500A69783C607006393D9
:103A6C00E60483C61700639C360385058A05228607
:103A7C00A6954A8597D0FF1FE780A0F583A70A0279
:103A8C00E38297EC268597E0FF1FE780C0D45DBDED
:103A9C001307E007E368A7F4130A05F985B783D584
:103AAC00270045BF83A70A02E38E97F2268597E08D
:103ABC00FF1FE78040D23DB797F7FF1F9387C77171
:103ACC008C538DD191479306A005898313972700BA
:103ADC002E9703460700E317D6F003461700631C26
:103AEC00360185078A072286BE954A8597D0FF1F27
:103AFC00E78020EE81BD83572700C1BF97F7FF1FDA
:103B0C009387C769984739C79C5FA9C70547631353
:103B1C00E504411122C417F4FF1F1304E46B105089
:103B2C0006C60DC6485097F5FF1F83D5E5678981FA
:103B3C008297085097E0FF1FE780E0C997F7FF1FB7
:103B4C0023AC076A97F7FF1F23AA076AB2402244E7
:103B5C00410182808280011117F7FF1F1307076450
:103B6C004EC68329870022CC26CA4AC806CE52C428
:103B7C0056C2AA842E843289638A09201C5FBA8AB1
:103B8C0099EB2945F2406244D2444249B249224A57
:103B9C00924A056182805C5BEDD7FD4763E9A70E15
:103BAC0097F9FF1F9389496383A70902B1CB03A53A
:103BBC008A0083A749026395A70689476393F40893
:103BCC00C147E310F4FC17F5FF1F0355E55D914762
:103BDC00130505FC3345F5029317250003A50902CF
:103BEC002286CA853E959307A0052300F500A30005
:103BFC009500110597D0FF1FE780A0DD014559B74F
:103C0C009305E00417F5FF1F0355055A97E0FF1FB6
:103C1C00E78000B097F7FF1F23A0A75E49F995B77F
:103C2C0083A74A0303A6090297F5FF1F83D5C5573F
:103C3C008981829783A78A0017F7FF1F2320F75CDF
:103C4C00ADBF8D47639EF400C147E31CF4F217F53A
:103C5C00FF1F03556555130545FD9377C5FFBDBF84
:103C6C009147639AF400E31E94F017F5FF1F035578
:103C7C00A5532115DDB7C147E395F4F0A147E3E265
:103C8C0087F017F5FF1F035525524115F9B7930718
:103C9C00F00663EAA706930705FE1947B3C7E702C8
:103CAC0017F7FF1F0357475017FAFF1F130ACA5283
:103CBC00B387E702BE9983270A02A9CF83274A025A
:103CCC00639A370703250A0291461308A005FD5590
:103CDC0093D72600C207C183139727002A97034660
:103CEC000700631D060783481700035627006395DA
:103CFC009806B306D64063CF860485078A072286CA
:103D0C00CA853E95C5BD9307E007E3ECA7E693078C
:103D1C0005F979B79305E00417F5FF1F0355C5485E
:103D2C0097E0FF1FE780C09E97F7FF1F23A6A74CC5
:103D3C0051F581BD83A74A0303260A0297F5FF1F9D
:103D4C0083D5854689814E85829797F7FF1F23A7D8
:103D5C00374B8DBFA300B700B2869DBFB3858600DD
:103D6C0017F6FF1F035646449105130606FCE3FAAB
:103D7C00C5E0130634001376C60F1106B296230065
:103D8C000701A30097002311D70085BF97F7FF1FEA
:103D9C00938787449453BE89A1C203A50902914617
:103DAC001308A005FD5593D72600C207C1831397AE
:103DBC0027002A9703460700631606058348170059
:103DCC000356270063989800B306D640E3D786F2D3
:103DDC00A300B700B286C1BF8357C70017F5FF1FFA
:103DEC000345A53C9305E0043305F50242054181EA
:103DFC0097E0FF1FE780C09197F7FF1F23AEA73E08
:103E0C0049FD41B317F6FF1F0356063A97F5FF1FFE
:103E1C0083C5A539B385C502338686001106E3E256
:103E2C00C5D681BF138601841C42B7068000B71526
:103E3C0001809843938585E7558F98C39843B706BF
:103E4C000010558F98C31307001DD8DB17F7FF1F01
:103E5C000347073693169701CD8ED4D7D457B705A1
:103E6C0000821377F703FD15ED8E6607558FD8D7B3
:103E7C0037170040930770052300F704930780FA67
:103E8C002300F70497F6FF1F83C68632B54763FB02
:103E9C00D7028357270293E707012311F702184231
:103EAC00B7070900938737081CD337E700E0D147E1
:103EBC00A309F70497D7FF1F9387670793E71700AA
:103ECC007CD7828083572702C207C183BD9BC20760
:103EDC00C183E1B79307C00363E2A706130780020F
:103EEC009547636BA704714791476367A7045947CC
:103EFC008D476363A70449478947636FA702394716
:103F0C008547636BA702314781476367A70229473F
:103F1C00FD576363A7022147F557636FA700194745
:103F2C00ED57636BA7000D47E1576367A700054783
:103F3C00C1576373A700D1573E8582809947EDBF67
:103F4C00938781849C4399CB944BD04B9842518F4F
:103F5C0098C294439C479842D98F9CC29387018402
:103F6C001386C18405489C4317F7FF1F0347A72CF2
:103F7C00144263120505884375787D183375050165
:103F8C0088C3C846F977FD17E98FDCC6010001002C
:103F9C0014428967AD059CC6930700F817F6FF1FFE
:103FAC002308F628939725009305E709BE95860507
:103FBC00ECD2C8C682807578137325009308F8FF7D
:103FCC00630B030803A8070089050D433378180118
:103FDC0089683368180123A0070151781307E70B90
:103FEC008E057D18631165048843337505011168CE
:103FFC003365050188C3C846F977FD17E98FDCC620
:10400C00010001001C42930600F89385750D23A452
:10401C00170117F6FF1F230DD6208605BA958605C6
:10402C00ECD3C8C7828088433375050188C3C84662
:10403C00F977FD17E98FDCC6010001001C429306DD
:10404C0000F89385A50423A4170117F6FF1F23017D
:10405C00D61E8E05E1B788430568337515013365A7
:10406C00050188C3C846F977FD17E98FDCC6010046
:10407C0001001C428966A90594C7930600F817F63F
:10408C00FF1F2307D61A8E051307E70941BF938735
:10409C0081849C4389CFD44303A88700984233671B
:1040AC00070198C2D447DC4B9842D98F9CC29387A6
:1040BC00018483C64184137725009C43858A25CBD4
:1040CC00984375757D15698F0965498F98C33707B6
:1040DC0009001307670898D3372730084517D8CB42
:1040EC00371703001307976198CF0D671307E78DF8
:1040FC0098D73767000113070731D8D385C637A780
:10410C003F001307F74D9E0598CB9385453697F7DF
:10411C00FF1F23A3B71211C6060697F7FF1F23AD87
:10412C00C7108280372737001307F72DE9BF3707F1
:10413C0009001307370898D337271008130717906F
:10414C00D8CB371703001307476298CF0D671307B7
:10415C00E78B98D73767000113070731D8D385C68B
:10416C0037A73F001307E72C98CB75779306F7FF1B
:10417C00984305489505758F631C050198C38E05FA
:10418C009385C50369B7372737001307072DE9BF98
:10419C008566558F98C39205E5B7411106C617F78A
:1041AC00FF1F03472709A1476311F70497F7FF1F68
:1041BC0083C78709858B17F6FF1F0346160B97F6E7
:1041CC00FF1F83C6860ABDC797F7FF1F9387C709D2
:1041DC00C8432DC1834515000905EF00703211C588
:1041EC00854717F7FF1FA307F70417F7FF1F0347B0
:1041FC0067049947631CF70097F7FF1F93874709DC
:10420C00FC5F83C7B70095CBEF20107E17F7FF1F1D
:10421C00034747029D476312F70297F7FF1F9387E7
:10422C00270783A7070983C7770081CBB2404101D9
:10423C006F209067814501454DB7B24041018280A6
:10424C001387C1841C43B44BE19AB4CB944393E6DB
:10425C00860094C39C438D83858B89C70100010024
:10426C00010001009387018494439C4293F7F7E784
:10427C0093E707089CC2938741859043B706CEFF0E
:10428C00FD161C46F58F1CC61C4313070008B8CB43
:10429C00938781849C4399CBD44390479842518F08
:1042AC0098C2944BDC4B9842D98F9CC297F7FF1F56
:1042BC00A38107F882809387C1849C439C438D8B98
:1042CC00F1CB411122C426C206C617F7FF1F0347C4
:1042DC0057F68D47AA8417F4FF1F130424F5631BAC
:1042EC00F70097F7FF1F938727F69C4B01468145F4
:1042FC004545829719476391E40497F7FF1F83C7DD
:10430C0077F399CB97F7FF1F83C7C7F26396970094
:10431C0097F7FF1FA38007F28347740021476318A8
:10432C00F7009307801017F7FF1F2315F7F02244AF
:10433C00B2409244410129B79D47639FF40097F71F
:10434C00FF1F83C737EFE9DB17F7FF1F034787EE24
:10435C008D47E313F7FC6DBF83467400630BD700E6
:10436C00034774006387E700834774002147E31019
:10437C00F7FC97F7FF1F83C7F7EBD5FB8347740058
:10438C0017F7FF1F2308F7EA854717F7FF1FA3034B
:10439C00F7EA71BF8280011126CA4AC84EC6C164B1
:1043AC003709006AB70900AC22CC52C406CE0544CA
:1043BC00FD141309690E9389E90C130A000205E434
:1043CC009305000F4145EFF02F9FB7B7006A4205E8
:1043DC00938767CE5D8DF2406244D2444249B24924
:1043EC00224A05618280A6850145EFF00F9F931745
:1043FC00850013F7071033E5270119C333E537019F
:10440C0081470147E145B356F50085073356F50062
:10441C00858A058A6307D60005071377F70F63E4CF
:10442C00E504E39247FF81471306F003ED4633574B
:10443C00F5001377F70305CB6307C7028507E398ED
:10444C00D7FE135785009377F50F1377F70FE39487
:10445C00E7F8135705011377F70FE39EE7F61357A9
:10446C008501E39AE7F605041374F40F89BF17F777
:10447C00FF1F034717DCA5476306F70C97F7FF1FD1
:10448C009387C7DA83C777001147630DF70A9387C1
:10449C0001879843B7C70040938707306314F70A26
:1044AC004111354506C622C426C24AC02935138996
:1044BC0001840122EF10B03BEFF0DF968327090057
:1044CC00F576FD169843938441851384C184758FCA
:1044DC0098C39843B70633001377F7E798C398430C
:1044EC001377F7E71367071098C398401C47D58FCD
:1044FC001CC71C401307D00DB8CBEF10705AEF201F
:10450C00302AEF10D04DEF105056032709001C43F2
:10451C0093F7F7E793E707081CC394403707CEFFE0
:10452C007D179C46B2409244F98F9CC61C401307E1
:10453C0000082244B8CB97F7FF1FA38C07CE024983
:10454C004101828082802382018423A40184B7C725
:10455C0000401387073023A8E1861387072023A682
:10456C00E1849387071037D70040411123AAE184D7
:10457C0023A0F18406C617F7FF1F130727CB854727
:10458C00A303F70097F7FF1F938747C19C431CCFEA
:10459C00938707115CCBE13DB7E700E037071000CC
:1045AC00B24023A0E7103707200023A0E7104101F9
:1045BC0082809387C1849C431307C00893066007CD
:1045CC00D8CBD4CFD8D31306C003D0D7D8DBD0DF09
:1045DC00F8C317F7FF1F130767C5184FF4C7F8DBAD
:1045EC0041677D1798C73D673D07D8C737E700E09F
:1045FC00D5472309F70497D7FF1F938707EF93E756
:10460C0017003CD7828093874185984317F6FF1F8C
:10461C00130686C39387018494438347160013F8CB
:10462C00F707D9C588425C42137505F83365050157
:10463C0088C213F5150001C993F50503414563962E
:10464C00A506938707834C574168130808A093E588
:10465C0025004CD7B3D50703B70810FEFD18B3F7E8
:10466C000703FD89139545016C43B3F51501C98DFD
:10467C006CC39305A00F3705FCFFAA07B3D7B7028D
:10468C006C43E98DBA07B983CD8F7CC38347060091
:10469C00898B99CB9C4293F7F70713E707049C424D
:1046AC0093F707F8D98F9CC28280938787C161BF2B
:1046BC005C57F59B5CD79C4293F707F8B3E707016F
:1046CC009CC2E9B7411106C697F7FF1F238507BAAD
:1046DC00853E01458145EFE03FB9B24001454101BE
:1046EC0082809387C1849843797117F5FF1F034526
:1046FC00A5B522D426D206D64AD04ECE9376150036
:10470C00BE8417F4FF1F130464B2638D0612834733
:10471C002400858B638507101185014697F5FF1FD3
:10472C0083C545B40D8997F7FF1F238207B0EFF0BF
:10473C001F9697F5FF1F83C525B191851306F00FC2
:10474C008D89054597D0FF1FE7808090A53F17F90D
:10475C00FF1F130969AF83270901014681450545F0
:10476C00829783473400CA89858BC1CF084C97F751
:10477C00FF1FA38E07AA814581461306F100A307EC
:10478C00010097F7FF1F238507AA97D0FF1FE7802B
:10479C00408293158501E1858DE11C4C9306F00F49
:1047AC0003C70700630BD70097F7FF1F83C7D7AB6F
:1047BC006385D7006303F70089458387090063C7C6
:1047CC0007001C4C0347F1002380E70083A7090175
:1047DC00104C93F5F50F0945829797F7FF1F83C788
:1047EC0067A9898B81CB854517F5FF1F0345C5A8A4
:1047FC00EFE0BF89B250225492540259F2494561FC
:10480C0082809C40FC53FDF797F7FF1F238207A281
:10481C00832709010146814549458297E1BF7C53B5
:10482C00E39507EE4535EFE07FDD97F7FF1F23811A
:10483C0007A097F7FF1F938727A19C4B0146814543
:10484C004545E1BF83473400858B9DC3A53D97F754
:10485C00FF1FA38E079C97F7FF1F238B079C97F7CF
:10486C00FF1F9387679E9C4B01468145054575B795
:10487C007C53E9FB813D55BF1C49638D07184111E1
:10488C0022C406C626C2834705002A8493F7070470
:10489C0089C75C410945638E0710130600028145E8
:1048AC0017F5FF1F1305459A97C0FF1FE780E0150A
:1048BC0013060002A28517F5FF1F1305E59897C094
:1048CC00FF1FE780001197F7FF1F83C7779997F4B5
:1048DC00FF1F9384649799E79307800217F7FF1FD4
:1048EC00A300F79897F7FF1F83C7A79791E7A147F6
:1048FC0017F7FF1F2307F79697F7FF1F83C77796C6
:10490C0091E7C54717F7FF1FA30DF79497F7FF1F04
:10491C0083C7479591E7ED5717F7FF1F2304F794CB
:10492C0097F7FF1F83C7179491E7ED5717F7FF1FF2
:10493C00A30AF7928347040093F7070491CFDC4056
:10494C0037B724001307F7E9636AF7069307500299
:10495C0017F7FF1FA30AF78E97F7FF1F9387C790D0
:10496C00C84309C597D0FF1FE780E0E697F7FF1F04
:10497C0023AE078E83C70400858B85C317F5FF1FF5
:10498C000345558E93059004090597D0FF1FE780CA
:10499C0020D897F7FF1F23ABA78C83C714000145C2
:1049AC0017F7FF1FA309F78C9C4417F7FF1F23274A
:1049BC00F78CB24022449244410182803707250093
:1049CC009306F74863EDF6003767DBFF1307079391
:1049DC00BA971307007DB3D7E702FD1795BF1307EE
:1049EC0007496395E700930760029DB737D7250009
:1049FC001307F777636DF7003767DBFF1307079330
:104A0C00BA971307007DB3D7E702F91791B793074D
:104A1C0070023DBF05458280797122D417F4FF1FC7
:104A2C00130484821C4406D626D24AD04ECE52CCD5
:104A3C0056CA5AC85EC662C466C26381072C138A02
:104A4C00018403270A0093894185368C1C43138902
:104A5C00C184AA8B93F7F7E793E707081CC383A6D7
:104A6C0009003707CEFF7D179C46AE84328BF98F39
:104A7C009CC6832709001307000897EAFF1F938A37
:104A8C00AA7EB8CB97E7FF1F83C7C77E898BBD4C27
:104A9C00639307203545EFF01F8203270A005C570C
:104AAC00F19B93E717005CD783C7CA00898B63839C
:104ABC000720814517E5FF1F03451579A936032704
:104ACC000A00B70633001C4393F7F7E71CC31C43DB
:104ADC0093F7F7E793E707101CC383A709009847E0
:104AEC00558F98C7032709009306A00D34CB834636
:104AFC00040093F606046388061C5040B796DBFF4F
:104B0C00938606813696E1669386066A63FDC61A1D
:104B1C009306800C74D3D8431377F7EFD8C30100F6
:104B2C00010001000100010001000100010003A7C8
:104B3C0009005C4393E707105CC383270A00184401
:104B4C008326090017EAFF1F130A4A6E98C75844B8
:104B5C00D8C38347040013F71700DC42F99BD98FA5
:104B6C00DCC283C7EA0093E7270017E7FF1F230483
:104B7C00F77097E7FF1F2389676F97E7FF1FA385E0
:104B8C00876F63850B1403254A012686DE85230077
:104B9C006501A3009500090597C0FF1FE78060E33E
:104BAC008327090003274A018145170500001305D7
:104BBC0085B3B8DB97E7FF1FA38B076697E7FF1F4B
:104BCC0023880766EFE04FEA8D4717E7FF1FA30224
:104BDC00F76683C7CA00898B8DCF032709007C53E6
:104BEC00FDFF938701839C43829703A78A0063642C
:104BFC00E50E198D034704000D8183274A01218B93
:104C0C007DC33707800062051307F72F598D88C3C2
:104C1C00894497E5FF1F83C5256391850145268649
:104C2C008D8997C0FF1FE780A04203A709000145AB
:104C3C005C578583858BB9C35C40C165938505A0A2
:104C4C00938787C1B3D6B702370810FE7D18B3F728
:104C5C00B702FD8A139646017443B3F60601D18E52
:104C6C0074C39306A00F3706FCFFAA07B3D7D7026D
:104C7C007443F18EBA07B983D58F7CC3B2502254DA
:104C8C0092540259F249624AD24A424BB24B224CDC
:104C9C00924C4561828097D0FF1FE780009AE3FC1D
:104CAC00ACFE97E7FF1F83C7C75B9607C117E3E40A
:104CBC00A7FECDB38347040093F70704E38B07DE0D
:104CCC0089454840E5BB9306000AA9B583274A01EC
:104CDC0023A06701F1B597E7FF1F93872754DC43A7
:104CEC00998F3E9501BF890493F4F40FA38097002C
:104CFC00A69723800700A380A70021BF0545BDBF51
:104D0C0097E7FF1F9387C75883A7470A85C30545B5
:104D1C0082800545B250225492540259F249624A9B
:104D2C00D24A424BB24B224C4561828079714AD0B7
:104D3C0017E9FF1F130949518327890006D622D48E
:104D4C0026D24ECE52CC56CA5AC85EC662C4F1D3D5
:104D5C001384C1841C4098430D8B05C3B84B619BD5
:104D6C00B8CB98431367870098C39C438D83858B7E
:104D7C0089C70100010001000100138C0184032785
:104D8C000C00138A4185368B1C43B7063300B28B5B
:104D9C0093F7F7E71CC31C43AE89AA8A93F7F7E78E
:104DAC0093E707101CC303270A0097E4FF1F9384A3
:104DBC00A44B1C47D58F1CC71C401307900DB8CBB8
:104DCC0097E7FF1F83C7074B918B89EB97E5FF1F75
:104DDC0083C5854793F7050463980714814517E548
:104DEC00FF1F03457546EFF01F8217E5FF1F0345B4
:104DFC00A5451185014697E5FF1F83C5A5460D897D
:104E0C00EFF0EFA803270A005C4393F7F7EF5CC3BE
:104E1C00010001000100010001000100010001007E
:104E2C0003270A005C4393E707105CC383270C003D
:104E3C000327890098C70327C900D8C318408347A4
:104E4C00090093F617005C43F99BD58F5CC397E779
:104E5C00FF1FA38C774197E7FF1F238867415C43B3
:104E6C00858BA9CFDC4085E317E5FF1F0345953FF4
:104E7C0093059004090597D0FF1FE780608997E799
:104E8C00FF1F23A5A73EDC40E38507E817E7FF1FBC
:104E9C000347A73D2380E700DC40638E0A08638C40
:104EAC000908A3803701C8404E86D685090597C0EE
:104EBC00FF1FE78000B21C40D840B8DB3545EFF04F
:104ECC008FBF83C7E40093E7470017E7FF1F230456
:104EDC00F73A9307000417E7FF1F2309F73497E706
:104EEC00FF1F23870734A14717E7FF1FA303F734DE
:104EFC0097E7FF1F9387872A9C5791CB1306006473
:104F0C00C14517E5FF1F03452537EFE08F9D97E758
:104F1C00FF1FA38F073097E7FF1FA38907301C40A3
:104F2C000547014598C3FDB393F5050393E51500BB
:104F3C00032549004DBDA3800700B5BF797126D26A
:104F4C0097E4FF1F9384443083C7040022D406D611
:104F5C004AD04ECE52CC858B17E4FF1F1304042D80
:104F6C00638C072E83470400858B638F072A9387F6
:104F7C0041859843A3070100032984015C5785836D
:104F8C00858BA1C3DC40C165938505A0B3D6B70260
:104F9C00370510FE7D15B3F7B702FD8A139646014F
:104FAC007443E98ED18E74C39306A00F3706FCFFB1
:104FBC00AA07B3D7D7027443F18EBA07B983D58F3A
:104FCC007CC381461306F10081454A8597E7FF1F94
:104FDC00238E072497C0FF1FE780A0FD131A8501BD
:104FEC00135A8A4163120A0297E7FF1F83C7F727F8
:104FFC009306F00F638AD700184C0347070063052C
:10500C00D7006303F700094A8387040097E9FF1F61
:10501C009389892563C1071263110A128347F10032
:10502C002300F90083C7C900918B95C783471900EA
:10503C00CA9703C7070093070008631EF7005C4874
:10504C001307F00F98C383C7040093E7870017E793
:10505C00FF1F230BF71E938701849C43B706800028
:10506C009843558F98C3D857719BD8D783A74900BD
:10507C0017E5FF1F0345451D118583C517000D89D5
:10508C00EFE01FEC97C0FF1FE78000EFEFF04F9BA6
:10509C0083C7C900918B638B07141C480D47637E33
:1050AC00F70CF11717E7FF1F232AF7181C4803A763
:1050BC00890063EBE70C3387E7408347190083C60D
:1050CC00C900CA9783C71700E206E1868E0763DE24
:1050DC00060C63F2E70C1D8F9306000263EBE600EF
:1050EC001848636DF70AB307F74017E7FF1F232132
:1050FC00F718894517E5FF1F03450518EFD0FFF892
:10510C0083C70400A18BF1CF03A5490017E6FF1F4D
:10511C000346B61597E6FF1F83C6261561C1834566
:10512C0015000905F13E83C70400DD9B17E7FF1F3F
:10513C00230CF7101DA8E3070AEEEFF06F90104C4C
:10514C009C480D459375FA0F829703A5490017E605
:10515C00FF1F0346961197E6FF1F83C60611630CCB
:10516C000524834515000905613EB2502254925422
:10517C000259F249624A4561828017E7FF1F130703
:10518C00E7095843BA9731BF97E6FF1F9386060984
:10519C00D442B6970DB73387E7403DBF97E6FF1F64
:1051AC009386C607D44236973DBF18486361F70211
:1051BC00B307F74017E7FF1F232CF70A83C7C90073
:1051CC0093E7070817E7FF1F2306F70A1DB797E6B3
:1051DC00FF1F9386A604D4423697D9BF814501455B
:1051EC0091B783471900F917A300F900EFF08FCDA1
:1051FC009C48104C81450D45829783471400858B44
:10520C0099CB97E7FF1FA38307029C480146814572
:10521C001145829799BF97E7FF1F238B07009C4886
:10522C00014681455145F5B73545EFF0CF88938759
:10523C0001849843B70680001C43D58F1CC3EFF044
:10524C006FC897E7FF1F938767F59C5B894591DFD4
:10525C0013051008829711BF83471400858B638157
:10526C00072297E7FF1FA38307FCA307010003296D
:10527C008401EFF02FC597E7FF1F83C7A7FF918B22
:10528C0097E6FF1F938646FE6380071A8347190033
:10529C00CA9703C7070093070008631AF70083C770
:1052AC00040093E7870017E7FF1F230FF7F81C484C
:1052BC000D476375F710F11717E7FF1F2320F7F859
:1052CC001C48984663E3E7103387E740834719008F
:1052DC0003C6C600CA9783C71700620661868E078D
:1052EC006356061063FAE70E1D8F9306000263EBFC
:1052FC00E60018486365F70EB307F74017E7FF1F82
:10530C002328F7F6894517E5FF1F0345E5F6EFD08F
:10531C00DFD783C70400A18B638307109387C184F5
:10532C0094439307800C1307F00FFCD25C483706AC
:10533C003300014598C397E7FF1F238A07EE97E7D1
:10534C00FF1FA38607EE97E7FF1F238307EE97E760
:10535C00FF1FA38F07EC9387018498431C4393F79B
:10536C00F7E71CC31C4393F7F7E793E707101CC33D
:10537C0093874185984397E5FF1F83C5E5EC91859D
:10538C001C478D89D18F1CC79307A00DBCCA05463D
:10539C0097C0FF1FE780C0CB83C7040097E6FF1FB1
:1053AC0083C6A6EC17E6FF1F034636ECDD9B17E71A
:1053BC00FF1F230BF7E8814501457DB317E7FF1F5E
:1053CC001307C7E55843BA97FDB517E6FF1F130639
:1053DC00E6E45042B297CDBD3387E74039B797E644
:1053EC00FF1F9386A6E3D442369739B718486361FA
:1053FC00F702B307F74017E7FF1F232BF7E683C726
:10540C00C60093E7070817E7FF1F2305F7E6DDBD86
:10541C0017E6FF1F130686E050423297D9BF834729
:10542C001900F917A300F900084C814681451306B1
:10543C00F10097C0FF1FE780C0B71C4C9315850186
:10544C009306F00F03C70700E185630CD70097E7BD
:10545C00FF1F83C797E16386D7006304F70093E5CA
:10546C0025008387040063C7070089E58347F100A3
:10547C002300F9009C48104C93F5F50F0D4551BBDA
:10548C003545EFE05FE3938701849843B7068000CE
:10549C001C43D58F1CC3EFF0EFA297E7FF1F938738
:1054AC00E7CF9C5BE38307CC85455DB397E7FF1F94
:1054BC00238307DC97E7FF1F938707DBC843411162
:1054CC0006C609C597C0FF1FE780E03097E7FF1FAE
:1054DC0023AE07D817E7FF1F0347D7D597E7FF1F62
:1054EC009387C7D401CF97E6FF1F83C6A6D4214765
:1054FC006396E60017E7FF1FA30E07D203C77700DA
:10550C0099466387E60003C777009D46639DE600D6
:10551C0083C7770017E7FF1F230EF7D0854717E7E0
:10552C00FF1FA309F7D0EFE0BFD1C14517E5FF1F5F
:10553C00034585D4EFD05FCD01458145EFD0DFD257
:10554C00B240014541018280411106C622C426C2E7
:10555C0017E4FF1F130444D1913F8347F400A14586
:10556C0017E5FF1F034545D117E7FF1FA30EF7CC27
:10557C005C4897E4FF1F938424CD17E7FF1F232972
:10558C00F7CCEFD07FC8914517E5FF1F0345C5CE7B
:10559C00EFD09FC78347C400898B85C79C480146C1
:1055AC00814513052002829789450145EFD0DFCB59
:1055BC00B240224497E7FF1F238E07CA9244410151
:1055CC0082808347C400918BE5D39C48014681457A
:1055DC0013054002C9BF97E7FF1F83C7A7C9898B73
:1055EC0063820714797152CC17EAFF1F034ACAC5AC
:1055FC004AD04ECE93679A007979856922D426D207
:10560C0056CA5AC85EC606D617E7FF1F230EF7C246
:10561C00014497EAFF1F938A6AC1214B9384C1848A
:10562C007D19896B938929F997E6FF1F83C6D6C329
:10563C0017E6FF1F034646C381450145EFF0CFBD7A
:10564C0083C72A00858BEDD317E5FF1F0345C5BF24
:10565C00118501469305F00F0D8997E7FF1F2388ED
:10566C0007BCEFE0DFA2F9470100FD17F5FF97E556
:10567C00FF1F83C565BD91851306F00F8D89054508
:10568C0097C0FF1FE780C09C83C73A00858BA9CBCE
:10569C0097E7FF1FA38D07B8EFF0CF8297E7FF1FA7
:1056AC00938787BC83C7C700854517E5FF1F034554
:1056BC00A5BC93E7070817E7FF1F230DF7BAEFD038
:1056CC00DF9CB250225497E7FF1F238F47B79254A9
:1056DC000259F249624AD24A424BB24B456182802E
:1056EC0005041374F40FEFE0FFFD63146401A93D8E
:1056FC00C9BF9C40D847B3762701D4C7010001002D
:10570C009C40930600F823A4770117E6FF1F2301A2
:10571C00D6B223A23707D8C79C40FC53E38607F0C8
:10572C000100DDBF8280411122C406C693F715002B
:10573C002E84A1CB97E7FF1F83C7C7B3898B85CF77
:10574C0097E7FF1F938747B283C7C70017E5FF1F73
:10575C00034585B213060005E207E18763DA07000B
:10576C0017E6FF1F0346D6AF9307000A3306F6026F
:10577C009145EFD01F9713451400B24022444101CC
:10578C00828093F72500B9C797E7FF1F83C787AEC1
:10579C00918B95CF97E7FF1F938707AD83C7C70002
:1057AC0017E5FF1F034545AD1306000AE207E18725
:1057BC0063DC070017E6FF1F034696AA9307000A4F
:1057CC003306F60213068602A145EFD09F911345CE
:1057DC00240065B793F7450089C7F53B1345440092
:1057EC0069BF93F7850099CB97E7FF1F83C787A8FD
:1057FC00918B91C3913B1345840041B793F70501FD
:10580C000145A5DFEFD09FDF17E7FF1F034777A206
:10581C00A147631BF70013060064C14517E5FF1F82
:10582C00034585A5EFD0FF8B13450401B9B759711A
:10583C00D6CA97E7FF1F238F07A297EAFF1F83CAD9
:10584C00AAA0CAD093E71A0017E9FF1F1309C9A130
:10585C0017E7FF1F230AF79E8347F900194697E5C0
:10586C00FF1F9385459517E7FF1FA30FF79C832711
:10587C004901A2D42A8417E7FF1F232BF79C130599
:10588C005101954786D6230AF100A6D2CECEE2C4AA
:10589C00D2CCDAC8DEC6E6C2EAC06EDE97B0FF1F15
:1058AC00E7802013EFE03FAF9357850097E4FF1F8D
:1058BC00938484992301F10293570501A301F1020A
:1058CC0083C79401A300A1026181A302F10283D7D3
:1058DC00A4012302A10217E5FF1F0345658D2313C5
:1058EC00F102DC4893890183014C3ED483C78401C7
:1058FC002306F102EFE00FDEA306A10205C483A785
:10590C0009008297131754003A9597E7FF1F938766
:10591C00E7902A84DC436364E5006364F500330498
:10592C00F540054C83A70900829797E7FF1F23A931
:10593C00A79495461306F00FE9454808EFF04FBCC5
:10594C0085476317051C797B9307FBFFA16B3EC44E
:10595C00938B0BD017EAFF1F130A4A8D938C01848B
:10596C00138DC18483475A00858B638D071E97B0B6
:10597C00FF1FE780606083470A00858B638D071CDF
:10598C00032B8A0181461306310181455A85A309EF
:10599C00010097E7FF1F238B078897B0FF1FE78055
:1059AC004061AA8D6319051A83462B00054703280D
:1059BC004900639FE61622576308071C13059800DD
:1059CC00194693053B0097B0FF1FE78080008327A3
:1059DC00490017E5FF1F03452587118583C517006F
:1059EC000D89EFE0EFD583A70C00B7068000984334
:1059FC00558F98C3D857719BD8D797B0FF1FE780A6
:105A0C00A05783471A00858B6387071497E7FF1FFE
:105A1C00A38E078083270D002247D447758FD8C7E4
:105A2C000F10000083270D00096798C7130700F8B3
:105A3C0017D6FF1F230EE67E03A60C0018423183F7
:105A4C000D8B6310071813076019F8D3D4C797B0E0
:105A5C00FF1FE780605283470A00858B638D070E1A
:105A6C0097D7FF1F2384077C83278A0103C707006E
:105A7C0099476312F70E83A70900829797D7FF1FE8
:105A8C0023A8A77EEFF09FA297D7FF1FA38E077ABC
:105A9C0097D7FF1FA380077E97D7FF1F2386577BBF
:105AAC008257CC48814613D787008347410213069F
:105ABC000002E207D98F17D7FF1F232BF7789147E6
:105ACC0017D7FF1F2308F77A97D7FF1FA386077AEC
