:040000006F20C04568
:10000400000000000000000090000020460B0020CB
:10001400A9BDF9F3900000200000000000000000DA
:10002400900000209000002000000000000000006C
:10003400900000200000000090000020000000005C
:1000440090000020900000209000002090000020EC
:1000540090000020900000209000002090000020DC
:1000640090000020900000209000002090000020CC
:100074003A0C002090000020900000209000002006
:1000840090000020900000209000002090000020AC
:1000940001A04111B7170040985F3AC6945F3247F8
:1000A400E39CE6FE324541018280411181460146CE
:1000B4008145114506C6EF001046B7270040114799
:1000C4002383E780B7F700E003A707D16D9B23A83C
:1000D400E7D003A707D15D9B23A8E7D07300501096
:1000E40001000100B2404101828041118146014674
:1000F4008145114506C6EF001042B727004011475D
:100104002383E780B717004003C7E70203C6E70469
:1001140083D7870391661377F70F1366360063E579
:10012400D700719B13671700F3260080A18A938779
:10013400818189CAF326008023ACD1809443DD9A5F
:10014400739006800F100000B716004093057005E9
:100154002380B604930580FA2380B6040F100000B0
:100164002382060223800604F32500809443A18A97
:10017400CD8E7390068023AC01800F100000F3260F
:100184000080A18A89CAF326008023ACD1809443DD
:10019400DD9A739006800F100000B7160040930597
:1001A40070052380B604930580FA2380B6040F10EB
:1001B40000002387E6022387C60423800604F3266F
:1001C40000809843218B558F7310078023AC0180E6
:1001D4000F10000073270080218B09CB7327008048
:1001E40023ACE18098435D9B731007800F100000DF
:1001F40037170040930670052300D704930680FA4E
:100204002300D7040F1000008346B70493E60602C8
:10021400A305D70423000704F32600809843218B09
:10022400558F7310078023AC01800F10000037F73F
:1002340000E0832607D193E646002328D7D08326FF
:1002440007D1DD9A2328D7D0730050100100010094
:1002540073270080218B09CB7327008023ACE180B6
:1002640098435D9B731007800F1000003717004000
:10027400930670052300D704930680FA2300D7045D
:100284000F1000008346B70493F6F60DA305D704B8
:1002940023000704732700809C43A18BD98F73909C
:1002A400078023AC01800F100000B240410182801E
:1002B4000111B7F5070026CA8146AA840A86E1051A
:1002C400194506CE22CC4AC802C023120100EF0011
:1002D4009024B717004003C7E70413673700F327D8
:1002E4000080A18B1384818189CBF327008023AC08
:1002F400F1801C40DD9B739007800F100000B7173E
:100304000040930670052380D704930680FA238067
:10031400D7040F1000002382070223800704F3266A
:1003240000801C40A18BD58F7390078023AC018083
:100334000F100000F3270080A18B89CBF3270080E6
:1003440023ACF1801C40DD9B739007800F100000EC
:10035400B7170040930670052380D704930680FAEC
:100364002380D7040F1000002387E70423800704A9
:10037400F32600801840218B558F7310078023AC1F
:1003840001800F100000B7F600E003A706D1136741
:10039400470023A8E6D003D50702E5779107137534
:1003A4000560458D5D8D420541810100F327008084
:1003B400A18B89CBF327008023ACF1801C40DD9B0B
:1003C400739007800F100000B717004013077005E3
:1003D4002380E704130780FA2380E7040F1000004A
:1003E40003C7F70013670704A387E70003C7B7042D
:1003F40013670702A385E7042390A7022380070459
:10040400732700801C40A18BD98F7390078023AC85
:1004140001800F100000B7F4070037F900E0E10491
:10042400832709D1DD9B2328F9D0730050100100E4
:1004340001001305C012EF00E07C81463000A68560
:10044400194502C423160100EF00F00C224782472D
:10045400E318F7FCF3270080A18B89CBF3270080F6
:1004640023ACF1801C40DD9B739007800F100000CB
:10047400B7170040130770052380E704130780FAB9
:100484002380E7040F10000003D7070246074583C3
:100494002390E70223800704732700801C40A18B6C
:1004A400D98F7390078023AC01800F100000F327CD
:1004B4000080A18B89CBF327008023ACF1801C4002
:1004C400DD9B739007800F100000B71700401307DF
:1004D40070052380E704130780FA2380E7040F10D4
:1004E400000003C7B7041377F70DA385E70423803F
:1004F4000704732700801C40A18BD98F7390078059
:1005040023AC01800F1000005145ED2DF2406244F0
:10051400D244424905618280411126C28146014686
:10052400AA848145114506C622C4EF00C07E371750
:1005340000408347E7028346E704035787031166B5
:1005440093F7F70F93E636006365C700F19B93E7D3
:10055400170073270080218B1384818109CB7327B3
:10056400008023ACE18018405D9B731007800F105E
:10057400000037170040130670052300C704130654
:1005840080FA2300C7040F1000002302070223008F
:100594000704732600801840218B518F7310078045
:1005A40023AC01800F10000073270080218B09CB3E
:1005B4007327008023ACE18018405D9B7310078093
:1005C4000F10000037170040130670052300C704FE
:1005D400130680FA2300C7040F1000002307F70254
:1005E4002307D70423000704732700801C40A18B32
:1005F400D98F7390078023AC01800F10000013057E
:100604005002B12237F700E0832707D193E7470070
:100614002328F7D0F3270080A18B89CBF327008010
:1006240023ACF1801C40DD9B739007800F10000009
:10063400B7170040130770052380E704130780FAF7
:100644002380E7040F10000003C7F70013670704B3
:10065400A387E70023800704732700801C40A18B35
:10066400D98F7390078023AC01800F100000F3270B
:100674000080A18B89CBF327008023ACF1801C4040
:10068400DD9B739007800F100000B717004013071D
:1006940070052380E704130780FA2380E7040F1012
:1006A40000002567D98C23909702238007047327C1
:1006B40000801C40A18BD98F7390078023AC0180EC
:1006C4000F10000037F700E0832707D1DD9B2328B4
:1006D400F7D07300501001000100814601468145A6
:1006E4001145152DF3270080A18B89CBF3270080BA
:1006F40023ACF1801C40DD9B739007800F10000039
:10070400B7170040130770052380E704130780FA26
:100714002380E7040F1000007D572396E70203C7E8
:100724006704136717002383E704238007047327F0
:1007340000801C40A18BD98F7390078023AC01806B
:100744000F100000B240224492444101828073277A
:100754000080218B9387818109CB7327008023AC90
:10076400E18098435D9B731007800F1000003717DA
:100774000040930670052300D704930680FA2300F3
:10078400D7040F1000008346B70493F6F60DA305B3
:10079400D70423000704732600809443A18AD18ED2
:1007A4007390068023AC01800F100000937605023D
:1007B400638406180347A700118B25E7732700807D
:1007C400218B09CB7327008023ACE18098435D9B88
:1007D400731007800F100000371700409306700550
:1007E4002300D704930680FA2300D7040F100000D7
:1007F4008346A70093E646002305D7002300070499
:10080400F32600809843218B558F7310078023AC07
:1008140001800F1000001307004B010001007D1739
:100824006DFF73270080218B09CB7327008023ACD5
:10083400E18098435D9B731007800F100000371709
:100844000040930670052300D704930680FA230022
:10085400D7040F1000007D892314A70001000100B4
:100864000100010023000704F32600809843218B34
:10087400558F7310078023AC01800F10000073277D
:100884000080218B09CB7327008023ACE18098433F
:100894005D9B731007800F1000003717004093060C
:1008A40070052300D704930680FA2300D7040F10A1
:1008B40000000F100000B726004013061005A383A4
:1008C400C68023000704F32600809843218B558FAC
:1008D4007310078023AC01800F1000007327008081
:1008E400218B09CB7327008023ACE18098435D9B67
:1008F400731007800F10000037170040930670052F
:100904002300D704930680FA2300D7040F100000B5
:100914008346B70493E60608A305D7042300070417
:10092400732700809C43A18BD98F7390078023ACDD
:1009340001800F100000828093760504638B0614F7
:100944000347A700418B25E773270080218B09CB40
:100954007327008023ACE18098435D9B731007806C
:100964000F10000037170040930670052300D704CA
:10097400930680FA2300D7040F1000008346A700D3
:1009840093E606012305D70023000704F32600801D
:100994009843218B558F7310078023AC01800F106F
:1009A40000001307007D010001007D176DFF732710
:1009B4000080218B09CB7327008023ACE18098430E
:1009C4005D9B731007800F100000371700409306DB
:1009D40070052300D704930680FA2300D7040F1070
:1009E40000009376F50193E606042314D700010072
:1009F40001000100010023000704F326008098434E
:100A0400218B558F7310078023AC01800F100000D9
:100A1400130760046310E50473270080218B09CB5E
:100A24007327008023ACE18098435D9B731007809B
:100A34000F10000037170040930670052300D704F9
:100A4400930680FA2300D7040F100000B726004055
:100A54000946B5B573270080218B09CB7327008025
:100A640023ACE18098435D9B731007800F10000056
:100A740037170040930670052300D704930680FAC5
:100A84002300D7040F100000B726004013062005EA
:100A94003DB573270080218B09CB7327008023ACDD
:100AA400E18098435D9B731007800F100000371797
:100AB4000040930670052300D704930680FA2300B0
:100AC400D7040F1000008356870093E6060C231406
:100AD400D700C5BB4111814601468145114506C673
:100AE4001D2CF3270080A18B9386818189CBF3276A
:100AF400008023ACF1809C42DD9B739007800F1033
:100B04000000B7170040130770052380E70413079C
:100B140080FA2380E7040F10000003C767041367FB
:100B240017002383E70423800704732700809C4273
:100B3400A18BD98F7390078023AC01800F10000024
:100B4400B240410182808146014681451145E1223E
:100B5400F3270080A18B1387818189CBF327008041
:100B640023ACF1801C43DD9B739007800F100000C1
:100B7400B7170040930670052380D704930680FAC4
:100B84002380D7040F100000FD562396D70223803C
:100B94000704F32600801C43A18BD58F7390078034
:100BA40023AC01800F100000F3270080A18B89CBB8
:100BB400F327008023ACF1801C43DD9B73900780F6
:100BC4000F100000B7170040930670052380D70468
:100BD400930680FA2380D7040F10000083C66704AD
:100BE40093E616002383D70423800704F3260080AA
:100BF4001C43A18BD58F7390078023AC01800F1009
:100C0400000001A0BD473305F50201007D1575FD07
:100C14008280411122C426C206C6AA8401446317F5
:100C24009400B24022449244410182800504130599
:100C3400803E4204C13F4180DDB7B717004013072F
:100C440000032388E702854723A4F1827300203040
:100C5400411106C6EF00701AF5BF2303048015473F
:100C64002303E48001002302A4808280830764803C
:100C7400E3CE07FE23030480828083076480E3CEEF
:100C840007FE03454480828083076480E3CE07FE29
:100C94002302A4808280411126C44AC24EC006C6E3
:100CA4001377F50BAD47AA892E8995446306F7009F
:100CB40019456537653F8D444E854537FD59FD140B
:100CC40063983401B240A2441249824941018280AE
:100CD400135509011375F50F453F2209CDB70111CD
:100CE40026CC06CEB704080051371545BD377137F9
:100CF40069372AC6A53F32459377150089EB1365FA
:100D040015001375F50FF240E24405618280FD146D
:100D1400E9FC0145CDBF397126DC4ADA4ED852D6FA
:100D240056D45AD25ED006DE62CE66CCB7E700E077
:100D34007D5783AA070022C603AA470023A0E71809
:100D440023A2E718B7170040130770052380E704B0
:100D5400130780FA2380E70483C74704930B75FFC6
:100D6400B684E20793FBFB0F8546AA892E8B328952
:100D740037240040E187015763FA76016308D50000
:100D84008946130700026313D5000157D98F93F7DF
:100D9400F70FB71C00402382FC0411472303E480AF
:100DA4001305F00F5D3D094CD135636D7C11B7051A
:100DB4000700DA9537870700795563F2E504B387AE
:100DC4009500636EF702370B0800A94733EB650102
:100DD4006399F90689E48144513D26850DA0DA859D
:100DE4000945553D05090345F9FFFD14050B693D0A
:100DF40081C49377FB0FFDF7DD3569FD7D55B7178A
:100E04000040130770052380E704130780FA23804A
:100E1400E70403C74704418B2382E704F250B7E792
:100E240000E023A0571123A24711E254324452593F
:100E3400C259325AA25A125B825B724CE24C216153
:100E44008280A5476395F90685691309F00FB306F7
:100E54009900B3742B01B6941349F9FFB374990044
:100E6400856B33796901416B9387F9FFB3F72701E8
:100E740099E363FC340193D94900C147E3E637FFA2
:100E840099BF0569C1697D19D9B71305800D6388B8
:100E94006901130500026384790113051008CA85EA
:100EA400DD3B353D21DD4E99B3843441D9B7DA8534
:100EB4002D45D533CA94E30099F205097D3BA30F70
:100EC400A9FED5BF9387F9FF93F7F70F6361FC0C75
:100ED40083C71C0413073008631FF704370708008F
:100EE400636BEB04B3079B00B706100063F5D704EC
:100EF400334BEB0089476393F9068980D549E38C2A
:100F040004ECDA850945413B11090327C9FF9147E0
:100F14002320E48003076480E34E07FE2303348127
:100F2400FD17EDFBFD14110B81C49377FB0FE9FF53
:100F34007D3371F5E1B5B717004003C75704B70710
:100F440008001377070219E3B78707007955E37898
:100F5400FBEA33079B00E3FFE7F855B58547E382D7
:100F6400F9F2DA852D45053B9389F4FFE38504E620
:100F7400293393F7390091EB832604800327090072
:100F840093074900E39AE6E43E89CE84F1BFB5476E
:100F94006396F9001305900BC93135BDB1471305AC
:100FA400B00AE38BF9FE99476391F904B705080089
:100FB400B365BB002D45C53181448D4BA1497539BD
:100FC40063967401832704802320F9008504E39841
:100FD40034FF8327048013172B0163550700231262
:100FE400F900D5BB2322F900FDB39D476399F902AB
:100FF40081451305B0044531BD4423200900232253
:101004000900FD599D3993F77400CA9703C7070077
:10101400FD14398D2380A700E39634FF6DBBA147EF
:101024006392F9046D398144630D0B008D47930479
:10103400C0036308FB009304000563048B0193045D
:1010440040041375C507E30895D819453931393972
:101054000545213126850D3909453D314931E31CCA
:1010640005D669BB91476399F90013056006F53607
:10107400F53E130590090DB7E38F09D4F154A9BBCC
:10108400BD6601471736000013064634938606A64C
:1010940085458347060093F7F70F91C382800507C0
:1010A400E3F9E6FE973700002382B732DDB77D16F9
:1010B4006206618693178601E18763D407000145C0
:1010C4008280931726003307F500AE9718439C439C
:1010D40063E7E7007D16E37FF7FC7D5582800545D5
:1010E4008280FD15E205E18513978501618793F7F9
:1010F400F50F63480700FD15139725002A975843F9
:1011040065D7138517006205618582803308B502AF
:101114001C4283A80600B335B502C29733B5070154
:10112400AE98469585486367B5006394A50063E36C
:10113400070181480C43C6950CC388C21CC2828037
:1011440081471397870161876343B70082801397B0
:1011540027002A97232007008507E5B78147014721
:1011640093968701E18663C5B60013351700828024
:1011740093962700AA9694428507558FD5B793D79F
:1011840055408A07AA979C4305453315B5007D8DC4
:101194008280171300E0E702433D2A84993705C58E
:1011A400931725003E940327C4FF814711EB7D1557
:1011B40016053E9542054185171300E06700233D5F
:1011C40005838507E5B70145C5BF814713978701A7
:1011D40061876343C700828013972700B386E500C5
:1011E40094422A97850714C3D5B77D166206618693
:1011F400014793178601E18763D50700133517006C
:10120400828093172600B306F500AE9794429C4360
:101214007D16B58F5D8FF1BF8A05AA95014763637B
:10122400B500828083A6C5FFF11593D71600D98F28
:101234009CC11397F601E5B72A830148014701458C
:101244006343D7008280B387050183A80700B307EF
:1012540006019C43C697AA976384F80033B5170127
:101264000507B3080301620723A0F800618711088A
:10127400C1BF2A8301478147014563C3D7008280E8
:101284003388E50083280800330EE600032E0E00A1
:101294003388A8403308C8416384080133B5080182
:1012A4008507B308E300E20723A00801E1871107DB
:1012B400E9B7171300E0E702432B0111B286B284A9
:1012C4002E86AA850A8575372A84A6850A857935E6
:1012D40033348000060413351500018D056117139E
:1012E40000E06700C32A171300E0E70283254111D9
:1012F400AA89AE8A328BB68402C202C402C60144F1
:10130400131C8401135C8C4163499C02939B14005D
:10131400FD1B0549138CF4FFF15C3304890162045D
:101324006184634D740592478E04CE9423AEF4FE1B
:101334004101171300E06700432413192400B30B81
:101344002B01014A93172A00D69783A50B008843E3
:101354007800340050005D3B050A93178A01E18749
:10136400F11BE351FCFE92474E9905042320F9003A
:10137400A2473EC2B24702C63EC459B7131A8901F6
:10138400135A8A41131D240093178A01E18763CFFE
:10139400970092470A044E941CC0A247050913798A
:1013A400F90F3EC2B24702C63EC485BFB3079A03D3
:1013B40013152A0056950841780034005000050A98
:1013C400EA97DA978C439933C1B719CD91CD09CEF9
:1013D40081473387F500834607003307F500850707
:1013E4002300D700E317F6FE828019C991C909CA00
:1013F400910583A7C5FF11057D16232EF5FEC5BFF4
:10140400828001C919C62A960505A30FB5FEE31DFE
:10141400A6FE828081473307F5000307070019E31E
:101424003E8582808507C5BF01112E8626CAAA84FF
:10143400131506019305F004418122CC06CE32C671
:10144400EF00B0672A8401C53246A685BD3F2285D8
:10145400F2406244D24405618280854715C18DC142
:1014640005C28147B306F5003387F50083C606003D
:10147400034707006398E6008507E315F6FE8547F2
:101484003E8582808147EDBF9307F6FFBE952A967D
:101494006313C5008280FD1583C715000505A30FDE
:1014A400F5FEFDB7AA87014581CF09CE3E96850793
:1014B40003C7F7FF6317B700E39BC7FE05458280A8
:1014C40082800145828079719387418522D480434B
:1014D40006D626D24AD04ECE52CC56CA5AC85EC67A
:1014E4005DCCB7C4C901014B9389C1849384F4379B
:1014F400173A0000130A4A39973A0000938A8A3C43
:1015040017390000130949408357240085E35C44DC
:10151400631B0B0023AAF184832BC4002285EF00F4
:1015240030665E84B9A82326FB00FDB783A70900B3
:1015340082971C443307F5406376F500032749007E
:101544001D8F2A9763E0E4089737000023A4073827
:101554008355240003450400976001E0E78040CEF2
:101564005C405844A1CB0C4403264900AE97BE8688
:1015740063E4B70063E4C700B386C74014C4228B96
:101584003A8459F0973700009387C7339C4B094737
:101594006370F706F91717370000232DF732B2509E
:1015A400225492540259F249624AD24A424BB24BF3
:1015B4004561828063150B0023AAE184B1BF232611
:1015C400EB0099BF03274A0209CF63EFA7003385D5
:1015D400A74083A70A016376F5009737000023AB81
:1015E400A72E228B404471BF03274900BA97C5B781
:1015F4009737000023A0072E5DB7411122C417348A
:1016040000001304A42E1C4006C626C24AC091C77B
:1016140082979737000023AB072C9737000083C7C6
:10162400B735858B973400009384C43495C39737BA
:101634000000A383073483C774001547637AF70057
:10164400CD2183C77400F5178A07A2979C4382971C
:101654001C4491C382971389018403270900173618
:101664000000034636269737000083C7A7259396C4
:101674001700BA9683D60600C5CE9737000083C7F5
:10168400672463E1C70C97370000238D07221C40B1
:10169400639507129737000083C7572E91CF83C7EE
:1016A400740093F7F70F89EB97370000A388072C92
:1016B400977001E0E780C0489387C1849C43638EA0
:1016C400070E9737000093872724DC431737000061
:1016D4002322F720CD3B973700009387E71ADC538A
:1016E400E9CF173700001307E71D184B97370000A1
:1016F40083C7D71A6363F70C83C774001547636EF7
:10170400F70A9737000083C7672B918BDDE7032621
:1017140009009736000083C6F61A63C6D70A224426
:10172400B24092440249410117D301E0670083B0FB
:10173400850793F7F70F973600002385F618E3E43F
:10174400C7F225BF86073E9783550700231007007D
:1017540023940184938781859C43173500000345B6
:10176400651613172500BA979C43829783D7818403
:10177400173700000347071593C7F7FF7D8D9317AD
:101784001700032709003E97835707005D8D231038
:10179400A7009737000083C7E71291C7850717375B
:1017A40000002301F712173700000347A7119737EA
:1017B400000083C73711E378F7ECB2402244924427
:1017C400024941018280139717003297035707009B
:1017D4006DF7850799B7AD6737C70040BD07232666
:1017E400F7200F100000973700009387A70DC84F0C
:1017F40083278726BD66BD0693C7F7FF99836A05CD
:101804002326D7205D8D82804111B7170040985F51
:101814003AC6945F3247E39CE6FE3245410182803A
:101824001305F00F82801387C1871C4393060010B1
:1018340094C301000100010001001C4323A0070020
:101844008346150003482500A2064208C2960348B1
:101854000500C296034835006208C29694D78346B1
:10186400550003486500A2064208C2960348450095
:10187400C296034875006208C296D4D78346950081
:101884000348A500A2064208C29603488500C296F2
:101894000348B5006208C29694DB8346D50003482A
:1018A400E500A2064208C2960348C5000345F500B8
:1018B400C2966205AA96D4DB83C6150003C525002B
:1018C400A2064205AA9603C50500AA9603C53500DB
:1018D4006205AA9694CF83C6550003C56500A20687
:1018E4004205AA9603C54500AA9603C5750062057C
:1018F400AA96D4CF83C6950003C5A500A2064205C7
:10190400AA9603C58500AA9603C5B5006205AA96E2
:1019140094D383C6D50003C5E500A2064205AA9662
:1019240003C5C50083C5F500AA96E205AE96D4D3D7
:10193400D443F59AD4C3D44393E61600D4C3944352
:1019440093E6160094C3BA879443D842058B59E3AF
:10195400984E01452300E6009843184F2183A300C5
:10196400E6009843184F41832301E6009843184F3B
:101974006183A301E6009C43D84F2302E600D84FBD
:101984002183A302E600D84F41832303E600D84F06
:101994006183A303E60098532304E600985321834C
:1019A400A304E600985341832305E600985361831A
:1019B400A305E600D8532306E600D8532183A306E3
:1019C400E600D85341832307E600DC53E183A307F1
:1019D400F600828001008DBF1387018814434111F2
:1019E40022C49C5E4AC006C6998326C2858B3A846B
:1019F4001389C187D1C79C5E97340000938484F710
:101A040093F7F7F99CDE17370000034707F79307AE
:101A14000008631BF700832709009C4393F707041E
:101A240017370000230BF7F483C7040093F7070468
:101A34008DC39387C1849C4382979737000023A367
:101A4400A7F483C7040093F7F70B173700002303A9
:101A5400F7F283C7440093F707049DE385471737DC
:101A64000000A30BF7F09387C1889C43096798C7CC
:101A7400130700FC973600002380E6F0D844F8D31F
:101A84001C40985F1183058B09CB985F3D9B98DFC1
:101A94000547973600002381E6EE985F1D83058B8A
:101AA40011CB985F1377F7F798DF85471737000056
:101AB4002304F7EC83270900D8430583058B19C752
:101AC400D843759BD8C3D843799BD8C3B24022442A
:101AD4009244024941018280397106DE16DC1ADA29
:101AE4001ED82AD62ED432D236D03ACE3ECC42CAD2
:101AF40046C872C676C47AC27EC0F93DF250E2523C
:101B04005253C2533255A255125682567247E24777
:101B14005248C248324EA24E124F824F2161730086
:101B240020309387C188944397370000938787E4D4
:101B340003C70700058B11CB97370000238E07E2FC
:101B440097370000A38A07E2828003C71700058B3A
:101B540065F7F85271FF83C75700DDB71388018812
:101B6400032708001C5F9583858BD1E709C61C5B9E
:101B7400BD832300F60085CA83270800985B4607C7
:101B8400935767016356070093E707C0C207C183F1
:101B940003970600C207C18709C7BA970947B3C7A5
:101BA400E7022390F60085CD834715008DCB973649
:101BB400000083C686DC93F60604138797008947E2
:101BC4008DCA3A9503470500854699471376F7066B
:101BD4006311D60262076187B947634C0700832704
:101BE40008009C5FED838D8B17370000A309F7D89D
:101BF40081473E8582808547EDBF411122C406C6D8
:101C04001384C18818402DE9AE877453FDFE3E85C8
:101C1400B28597370000238007D6977001E0E780EC
:101C240080CC938701889C43B70680009843558FE6
:101C340098C3D857719BD8D797370000A38E07D283
:101C440097370000A38807D21C40094798C3144063
:101C540017370000130707D283472700858B89EBCA
:101C640083473700858BD9C397370000238607D075
:101C7400B2402244410182808D47631EF500938760
:101C840001889C43B70680009843558F98C3D85762
:101C9400719BD8D76DBF8547E31BF5FA5447F97795
:101CA400FD17F58F5CC70F1000001C40096798C72B
:101CB400130700F8173600002300E6CC13870188C9
:101CC4001043184231830D8B11E713076019F8D3C1
:101CD400D4C7B5BF1842094631830D8B6315C700BD
:101CE4001307E043EDB71307E01BD5B7FC52ADF77C
:101CF40041B75D71A2C4A6C22A84130680022800DB
:101D0400AE849305100886C6CAC04EDE52DCEFF0DE
:101D14004FEF3545977001E0E78040F41383018865
:101D2400832703009376F41F138E418923A40700AD
:101D3400984B938EC188370FFCFF1367F70398CB3A
:101D4400F84F130510F8B7020400137707E0558F16
:101D5400F8CF9843F576FD16758F98C39843B70668
:101D64003300930380251377F7E798C39843114909
:101D74007D1F1377F7E71367071098C303270E0037
:101D84008549930F80021C47D58F1CC783A70E007B
:101D94001307900D3400B8CB014793553700A6952F
:101DA40083C7050013767700B3D7C740858BE1C39B
:101DB4008327030083280E00239C0704239007062F
:101DC40003A8C8021378D8FF23A6080383A8070032
:101DD4001378F70793F808F833E8080123A00701FC
:101DE40003A847023368580023A2070383A80E0000
:101DF400014823A2780603DA07066307480303A809
:101E04000703038A06001358F80062081358884130
:101E140063580A0103A807031358F8002380060136
:101E240003D807061378F80F03AA480663060A00C6
:101E340003DA8705E37F49FB03A847023378E80107
:101E440023A2070383870600635CF40003C805002C
:101E54003396C9001346F6FF337606012380C50086
:101E64003E8663D3A7002A8613158601618505077C
:101E74001377F70F8506E312F7F3B640264496442A
:101E84000649F259625A616182809386C1889C42F4
:101E9400D8471316170163550602984713161701FE
:101EA400635006027D57B8D717370000130787A180
:101EB400584F0507173600002324E6A2116798C778
:101EC40098470D83058B1DCB173700000347A7AA3E
:101ED4001367170017360000230FE6A8130700F84E
:101EE40017360000230AE6A8214798C713870188FC
:101EF40010435856719B1367170058D69847058BA3
:101F04000DC7173700000347F7A6136717001736E6
:101F14000000A301E6A6054798C71387018810436C
:101F24005856719B1367170058D698470983058B39
:101F340009E798470583058B21CF9847173600009A
:101F4400130646A3138501880983058B63030710D1
:101F54001841184331830D8B75EBAC4B184E93F538
:101F6400050203471700CDCD79EF13077006D8CFCC
:101F7400034706001367170017360000230CE69E7C
:101F8400114798C718415C57F19B93E717005CD73A
:101F94009C4298479316370163D606029736000091
:101FA40083C6C6AAC18A173700001307A7A2C5CEE5
:101FB4000347870713670702973600002388E6A8BC
:101FC400056798C798479316270163D10602173708
:101FD40000000347679A6207618763570700054754
:101FE40097360000238AE698096798C7984793169E
:101FF400070163D606029736000083C636A5858A94
:10200400173700001307079DADCE034797071367E3
:10201400270097360000A38BE6A2216798C7828029
:1020240029D785456315B7001307B00689B78945D5
:102034006315B7001307F0061DBF8D456315B70080
:10204400130730072DB71307500715B71307600799
:1020540039BF034736001367170017360000A30C77
:10206400E690094739BF834687070946BD8A6388D6
:10207400C600034787078D463D8BE313D7F411470A
:1020840025BF83469707918AC9DA034797071367E1
:10209400870041B7397106DE16DC1ADA1ED82AD653
:1020A4002ED432D236D03ACE3ECC42CA46C872C6BC
:1020B40076C47AC27EC0D13BF250E2525253C2532C
:1020C4003255A255125682567247E2475248C248C8
:1020D400324EA24E124F824F2161730020301737C7
:1020E40000001307E78A8346B7019737000083C7C8
:1020F400F78C4C4BB697FD8B33D7F5009736000021
:10210400A388F68897360000A38AF68A058B15EF14
:10211400173700000347D78AB3F7E7028146014720
:102124001305000233D6E500058A1378F70F19CAA0
:102134006397D70097370000A38C078582808506B4
:1021440093F6F60F0507E31FA7FC8280973700007C
:1021540083C79782D9E79387C1849C43411122C4E2
:1021640026C206C682979737000093876784804704
:10217400BE846303A40663688504018D135455006B
:102184009737000083C767826368F404893F9844E3
:102194009737000083C767819396570036971D8C45
:1021A4009736000023AAE680E372F4FE2244B2408C
:1021B4009244172500000345B57D814541011773FD
:1021C40001E0670083D1972700009387E773DC431E
:1021D4003384874022955DB7B24022449244410142
:1021E400828082809387C1849C43011122CC4AC897
:1021F40006CE26CA4EC68297972700009387477B50
:10220400804701496301A406BE8463668506018D87
:10221400135455009727000083C727791379F501D4
:102224006360F404972900009389096E4D3D03A867
:1022340084009726000083C646771397560042977A
:10224400158C3A8683A54900636407016364B7006B
:102254003306B7409727000023A0C776E378D4FC61
:10226400160433692401F24062444A85D244424947
:10227400B24905618280972700009387E768DC43B1
:1022840033848740229569B79387C18898438567CB
:10229400938707777CD3938741899C4383A6070957
:1022A400139656006358060083A607091396660022
:1022B400634406007453FDF2828061C1AA8701451C
:1022C400DDCD8D07C207C183F19BC207C18313070C
:1022D4004003636BF7021387818A08431387018ADB
:1022E40014436396A602172700001307E759185BE7
:1022F400014551C74111C20706C60545DD8D029748
:10230400B2400145410182801387418AF9B70357DE
:10231400650035E303574500636FF704B306F740E0
:102324002146637CD60203280500938687001D8F0F
:10233400AA96611717260000035626592392E60031
:1023440023A006012393060014C12312F5001307EA
:1023540086FF97260000239AE6562313B500972597
:10236400000083D58556B387F54017270000231E48
:10237400F754210582800841ADB7014582808280EF
:1023840009CD9387818A03A307009387018A83A8D1
:10239400070081469A8763E31701828003A8070038
:1023A4006369F50A6367A80A13878700E367E5FE94
:1023B40003D66700216705076317E60003C7318763
:1023C4000507A389E186972500009385A54F03D6C9
:1023D400470003D7650023930700329742074183E0
:1023E400172500002313E54E638867021385418A8D
:1023F40008416303F50203D5660019ED83D746004F
:1024040023A0060121073E9621062392C6009727A2
:102414000000239CE74AB6879843E30017F99386A4
:10242400418A9442E30BD7F683566700BDF683D600
:102434004700035647001843A106B2962392D700DB
:1024440098C383D76500A10717270000231FF74609
:082454008280BE86C28781B7B9
:10245C00971100209381C1BA176100201301C1B9F3
:10246C001305400097E5FF1F938505B9170600205B
:10247C00130606FE63FAC5008322050023A055004F
:10248C0011059105E3EAC5FE17C50100130505E624
:10249C00970500209385C5FB1386818163FAC500DF
:1024AC008322050023A0550011059105E3EAC5FE22
:1024BC0013858181972500209385C5636377B500CB
:1024CC00232005001105E36DB5FEFD42739002BC9F
:1024DC008D4273904280930280087390023097E291
:1024EC00FF1F938262B193E2320073905230371720
:1024FC000040930770052300F704930780FA23002C
:10250C00F7040F1000003C47B70600FAE116F58FF0
:10251C00B70600069506D58F3CC79722000093821C
:10252C00A2EE7390123473002030397101436EC6E1
:10253C0019A0397141536AC866CA62CC5ECE19A023
:10254C00397101535AD056D252D44ED64AD826DAC3
:10255C0022DC06DE33016140828241114AC026C270
:10256C0022C406C68282B24D4101024D924C224CCD
:10257C00B24B4101024B924A224AB24941010249F3
:10258C0092442244B240410182803D432A876373C6
:10259C00C3029377F700BDEFADE5937606FF3D8A56
:1025AC00BA960CC34CC30CC74CC74107E36BD7FEA0
:1025BC0011E28280B306C3408A0697020000969609
:1025CC006780A6002307B700A306B7002306B70051
:1025DC00A305B7002305B700A304B7002304B70075
:1025EC00A303B7002303B700A302B7002302B7006D
:1025FC00A301B7002301B700A300B7002300B70065
:10260C00828093F5F50F93968500D58D93960501F1
:10261C00D58D61B793962700970200009696868217
:10262C00E78086FA9680C1171D8F3E96E374C3F837
:10263C00A5B73367B500FD530D8B79E7B7877F7F5F
:10264C009387F7F710419441B372F6003363F600A9
:10265C00BE92B3E262006397720C6318D6065041C7
:10266C00D441B372F6003363F600BE92B3E262005B
:10267C006398720A631BD60410459445B372F60036
:10268C003363F600BE92B3E262006391720A631E7A
:10269C00D6025045D445B372F6003363F600BE92B1
:1026AC00B3E26200639A72086311D602104994492E
:1026BC00B372F6003363F600BE92B3E2620063932A
:1026CC0072085105D105E30FD6F61317060193973F
:1026DC000601631CF7001357060193D70601330557
:1026EC00F7409375F50F91E982804183C1833305DF
:1026FC00F7409375F50F91E182801377F70F93F7FD
:10270C00F70F3305F74082800346050083C60500AA
:10271C00050585056313D60065FA3305D64082801E
:10272C0011059105E312D6FE014582802105A10514
:10273C00E31CD6FC014582803105B105E316D6FCBD
:10274C00014582804105C105E310D6FC014582801C
:10275C00B717004003C777051377E70FA38BE70480
:10276C00130700F8A38DE7043D47238CE7041307F8
:10277C005003A38CE7048280B717004083C7E7049B
:10278C000D8993F7C70FC98F73270080218B938610
:10279C00818109CB7327008023ACE18098425D9B3B
:1027AC00731007800F1000003717004013067005D8
:1027BC002300C704130680FA2300C7040F1000007F
:1027CC002307F70423000704732700809C42A18B86
:1027DC00D98F7390078023AC01800F10000082808A
:1027EC00B717004083C7E7020D8993F7C70FC98F4E
:1027FC0073270080218B9386818109CB73270080FE
:10280C0023ACE18098425D9B731007800F10000091
:10281C0037170040130670052300C704130680FA0F
:10282C002300C7040F1000002307F702230007043E
:10283C00732700809C42A18BD98F7390078023ACA7
:10284C0001800F100000828041112A83014E930EEB
:10285C00407E130F0019930F400663E66E14930825
:10286C00001913034006B3781503854E0D4FA14F85
:10287C00337365020D891335150063E0BE1613081A
:10288C00F6FF794672984208135808013307C702BD
:10289C0013D61700BE0732976146B3F6C60213066D
:1028AC008070B386C6023697A166F58F42075D8F9E
:1028BC00B716004083C7F60293F70708A307F10089
:1028CC000346F10083C7F60293F70708E394C7FEAB
:1028DC008347F100B716004093F7F70F638907148D
:1028EC00F3270080A18B93868181639807140F10C6
:1028FC000000B7170040130670052380C7041306A9
:10290C0080FA2380C7040F10000023AA070303C614
:10291C00170313660608A388C702238007047326CF
:10292C0000809C42A18BD18F7390078023AC0180D7
:10293C000F1000001166B71500407D16DC59C85DFC
:10294C00A98FF18FE5FFF3270080A18B89CBF327AB
:10295C00008023ACF1809C42DD9B739007800F10AC
:10296C000000B7170040130670052380C704130638
:10297C0080FA2380C7040F100000D8DB03C71703AD
:10298C0013670704A388E7022380070473270080DA
:10299C009C42A18BD98F7390078023AC01800F10C0
:1029AC000000410182807D133368E3039308E01635
:1029BC00630E08003368F3039308D016630808000D
:1029CC009378330093B818009388D81633081E01F7
:1029DC00131E0801135E0E0149B56393E503054808
:1029EC00638608000148630303002A887108729803
:1029FC00FD15131E0801C205135E0E01C181B5BD84
:102A0C0013F8150063F4BF007908D5B71338180014
:102A1C00E5BF83C7F60293F70708A307F100034647
:102A2C00F10083C7F60293F70708E394C7FE8347C8
:102A3C00F10093F7F70FF1DF65B5F327008023ACB6
:102A4C00F1809C42DD9B7390078055B55971E2C4AF
:102A5C0086D6A2D4A6D2CAD0CECED2CCD6CADAC80A
:102A6C00DEC6E6C2EAC06EDE2A8C02D6EF009020EB
:102A7C00F3270080A18B138D818191CBF3270080EC
:102A8C0023ACF18083270D00DD9B739007800F1022
:102A9C000000B7170040130770052380E7041307E5
:102AAC0080FA2380E7040F10000003C7F7021377A6
:102ABC00770FA387E70203C7F70213678700A38783
:102ACC00E702238007047327008083270D00A18B66
:102ADC00D98F7390078023AC01800F100000F3276F
:102AEC000080A18B91CBF327008023ACF18083274E
:102AFC000D00DD9B739007800F100000B71700408E
:102B0C00130770052380E704130780FA2380E7047A
:102B1C000F10000003C7E7021377C70F2387E702E4
:102B2C0003C7E702136717002387E7022380070414
:102B3C007327008083270D00A18BD98F739007809A
:102B4C0023AC01800F100000130780C13347E5024E
:102B5C009169938709E8130650023D69B7440F0049
:102B6C0093840424856B130BA004014A814A13043B
:102B7C007005FD19B347F5023307C7023EC2930730
:102B8C0009A61309803E3347F7023AC4334725039D
:102B9C0005493319890113593940334595029384FA
:102BAC000BFAB3948401811B3306C702B346F602B9
:102BBC003309E90236C6330B670313076055B304B8
:102BCC009502130500103309E902B346FB02130BFF
:102BDC0080FAB3C4A40236C8B347F9029396340002
:102BEC003719004036CC930409043ECA7326008082
:102BFC00218A11CA7326008023ACC18003260D00E4
:102C0C005D9A731006800F100000930770052380E7
:102C1C00F400238064010F1000000346390513767D
:102C2C00860FA309C9040346390513661600A309C8
:102C3C00C904238004007325008003260D00218A1B
:102C4C00498E7310068023AC01800F100000916C2C
:102C5C00E17D73260080218A11CA7326008023AC83
:102C6C00C18003260D005D9A731006800F100000C2
:102C7C00930770052380F400238064010F1000007B
:102C8C000346390513660602A309C9040356090550
:102C9C00336696012318C904035609053366B60139
:102CAC00420641822318C904238004007325008046
:102CBC0003260D00218A498E7310068023AC0180F7
:102CCC000F1000000346390513760602630606163C
:102CDC0003463905218A6DDE6810EF00C07D73262E
:102CEC000080218A11CA7326008023ACC180032680
:102CFC000D005D9A731006800F1000002380840075
:102D0C00238064010F100000034639051376F60D7D
:102D1C00A309C9040346390513660602A309C904AD
:102D2C0003560905336696012318C9040356090591
:102D3C003366B601420641822318C904238004007D
:102D4C007325008003260D00218A498E731006809E
:102D5C0023AC01800F1000000346390513760602E0
:102D6C006308061003463905218A6DFE97D0FF1FB4
:102D7C00E780A0312A8632CE97D0FF1FE780E03063
:102D8C007246E30AC5FE03560905325533669601B1
:102D9C002318C904892703463905218A6DDE03559A
:102DAC00090503462905924733F5A9003386C90264
:102DBC0032951D8DA24763D5A700B2476346F50E29
:102DCC0009466365560FC247850A1316150093FA18
:102DDC00FA0F3346F6026354A03A0506094533460A
:102DEC00A60273250080218911C97325008023ACAC
:102DFC00A18003250D005D99731005800F10000054
:102E0C0023808400238064010F1000000355C90245
:102E1C002A96420641822316C90223800400732598
:102E2C00008003260D00218A498E7310068023AC86
:102E3C0001800F10000031BD73260080218A11CA59
:102E4C007326008023ACC18003260D005D9A73109D
:102E5C0006800F10000023808400238064010F1073
:102E6C0000000346390513660602A309C9042DBDEB
:102E7C0073260080218A11CA7326008023ACC1807E
:102E8C0003260D005D9A731006800F10000023803E
:102E9C008400238064010F1000000346390513667B
:102EAC000602A309C90459BDE38F0AF073260080FA
:102EBC00218A11CA7326008023ACC18003260D0021
:102ECC005D9A731006800F1000002380840023800D
:102EDC0064010F100000034639051375FC0F1376BF
:102EEC00860FA309C90403463905498EA309C904F1
:102EFC00238004007328008003260D00218A33668A
:102F0C0006017310068023AC01800F1000000346ED
:102F1C0039051D8A6317862773260080218A11CAFA
:102F2C007326008023ACC18003260D005D9A7310BC
:102F3C0006800F10000023808400238064010F1092
:102F4C0000000346390511651376F60DA309C90473
:102F5C000346390513660602A309C904035609057D
:102F6C00498E2318C904035609052165498E231877
:102F7C00C904238004007325008003260D00218AD8
:102F8C00498E7310068023AC01800F10000003469D
:102F9C00390513760602630E062003463905218A8D
:102FAC006DDE6810092B73260080218A11CA7326E6
:102FBC00008023ACC18003260D005D9A731006803F
:102FCC000F10000023808400238064010F10000088
:102FDC000346390511651376F60DA309C90403469A
:102FEC00390513660602A309C90403560905498E5F
:102FFC002318C904035609052165498E2318C904F1
:10300C00238004007325008003260D00218A498E3D
:10301C007310068023AC01800F10000003463905A5
:10302C00137606026303061C03463905218A6DFEDE
:10303C0097D0FF1FE7806005AA8C97D0FF1FE78011
:10304C00C004E30C95FF035609051165498E3255F2
:10305C002318C904492103463905218A6DDE7326DC
:10306C000080218A1385818109CA7326008023ACD4
:10307C00C18010415D9A731006800F1000002380F0
:10308C008400238064010F10000003463905137679
:10309C00F60DA309C9042380040073280080104195
:1030AC00218A336606017310068023AC01800F1051
:1030BC0000000358090503462905E24733F80901C6
:1030CC003386C90232983308F8401306800C330655
:1030DC00C802D2473346F602635500150506094867
:1030EC00334606036351C0140358C9029308F00F0A
:1030FC0013585800329863D6081F09466373461953
:10310C00F3270080A18B89CBF327008023ACF180BF
:10311C001C41DD9B739007800F1000003717004097
:10312C00930770052300F704930780FA2300F70434
:10313C000F1000008356C70289678117D58FC2070D
:10314C00C1832316F70223000704732700801C4158
:10315C00A18BD98F7390078023AC01800F100000D6
:10316C00B650265496540659F649664AD64A464BEA
:10317C00B64B264C964C064DF25D656182807D16F1
:10318C00B1B973260080218A11CA7326008023AC42
:10319C00C18003260D005D9A731006800F1000008D
:1031AC0023808400238064010F100000034639053E
:1031BC002DBB73260080218A11CA7326008023AC94
:1031CC00C18003260D005D9A731006800F1000005D
:1031DC0023808400238064010F100000034639050E
:1031EC0013660602A309C90469B373260080218AF9
:1031FC0011CA7326008023ACC18003260D005D9A92
:10320C00731006800F10000023808400238064015B
:10321C000F1000000346390513660602A309C90402
:10322C00C5B37D166DBD55CE0358C902B308C04059
:10323C00135858006357180B094663744605F32757
:10324C000080A18B89CBF327008023ACF1801C413B
:10325C00DD9B739007800F100000B7170040130719
:10326C0070052380E704130780FA2380E7040F100E
:10327C00000003D7C7027D8B2396E7022380070447
:10328C00E9B573260080218A09CA7326008023AC15
:10329C00C18010415D9A731006800F1000002380CE
:1032AC008400238064010F1000000356C9021376BA
:1032BC00F60F33667601420641822316C90223803B
:1032CC000400732800801041218A336606017310B4
:1032DC00068023AC01800F100000050A137AFA0F48
:1032EC0031B2F3270080A18B89CBF327008023AC6C
:1032FC00F1801C41DD9B739007800F100000B71705
:10330C000040130770052380E704130780FA23801D
:10331C00E7040F10000003D7C70216063A964206C0
:10332C0041822396C70299BF914763EEB70217A754
:10333C0001001307A7DC8A05BA959C41BA978287CE
:10334C00B717004003A7470B1345F5FF698F23AA56
:10335C00E70A03A7070B698F23A8E70A03A7070A45
:10336C00798D23A0A70A8280B717004083A6470B4C
:10337C001347F5FFF98E23AAD70A83A6070B558DA1
:10338C0023A8A70A83A6070A758F23A0E70A8280C1
:10339C00B717004003A7470B498F23AAE70A03A7D7
:1033AC00070B1345F5FF45BFB717004083A6470B26
:1033BC001347F5FF758F23AAE70A03A7070A598D50
:1033CC004DB7B717004003A7470B498FEDB791478F
:1033DC0063EEB70217A70100130787D38A05BA95C6
:1033EC009C41BA978287B717004003A7470D134536
:1033FC00F5FF698F23AAE70C03A7070D698F23A894
:10340C00E70C03A7070C798D23A0A70C8280B717B4
:10341C00004083A6470D1347F5FFF98E23AAD70C5E
:10342C0083A6070D558D23A8A70C83A6070C758FB3
:10343C0023A0E70C8280B717004003A7470D498FE4
:10344C0023AAE70C03A7070D1345F5FF45BFB717D4
:10345C00004083A6470D1347F5FF758F23AAE70C91
:10346C0003A7070C598D4DB7B717004003A7470D9D
:10347C00498FEDB7B717004003D58700420541814E
:10348C009377050491EB9377F5013755E801130514
:10349C0005803345F50282809377050C13070004F1
:1034AC006397E7009377F50137459C1CCDB72165F1
:1034BC00130505D0828037E700E01C435443A183F9
:1034CC00E206D58F1CC1FD572320F7182322F718CD
:1034DC000F100000828013178500B7E700E023A0CF
:1034EC00E710618123A2A7108280B7F700E088471C
:1034FC00CC478280814737370040A14663C4C70060
:10350C00328582800345B740E38EA6FE3385F500F5
:10351C000345050085072304A740CDB797F7FF1F88
:10352C009387072E9C43171700201307A75C3E9523
:10353C00636EE500175700201307078C6368A7001C
:10354C0017F7FF1F232EA72A3E858280FD57EDBF5C
:10355C00411122C406C62A84313F2947B307E5022C
:10356C00B2408D83B3D7870222449507B3D7E702C5
:10357C0037370040C207C1832316F74041018280D0
:10358C00716541111305052006C6D937B7370040C0
:10359C00130770F82381E7400D47A381E740130719
:1035AC000004A380E74005472387E740B240410170
:1035BC008280238E018023A00182B717004003A7CD
:1035CC00070CB706C0FFFD16758F23A0E70C03A7E9
:1035DC00070DB7064000558F23A8E70C03A7070C6F
:1035EC003D9B23A0E70C03A7070D1367070123A836
:1035FC00E70C828011456FF06FC541119396250041
:10360C00AA852D4506C697D0FF1FE7804070B240B3
:10361C00014541018280411126C29394250022C4A8
:10362C004AC02A843289A686AA850146254506C643
:10363C0097D0FF1FE780A06DA6864A86A2852945F4
:10364C0097D0FF1FE780A06CB240224492440249FD
:10365C00014541018280011122CC06CE3714004075
:10366C0026CA4AC84EC652C483447405034AB405DC
:10367C008349840503499405EFF08F8D8347A40596
:10368C0093F4F40F137AFA0F93E71700230DF40455
:10369C0093F9F90F1379F90FB717004003C7A70572
:1036AC00058B6DFF03D5C705A38D4705238C370507
:1036BC00A38C2705A38B9704F2406244D244424961
:1036CC00B249224A0561828041119397050122C4B7
:1036DC0006C6C1872E8463DD0700EF30910E19C139
:1036EC00EF3011072165218DB240224441018280C7
:1036FC0093F7150013C51500E5FB9397250163D0CF
:10370C000702EF50C162FD3537F60200130606E0E2
:10371C00896503C54182EF3031370965E9B7939765
:10372C0015010145E3D207FC17A50100130505A4FB
:10373C00EF80C17713060064916503C54182EF30B9
:10374C00B13411654DB71D71494697A5010093859C
:10375C00659D17B501001305A59086CEA2CC97E008
:10376C00FF1FE78000CF01E917A501001305C59CD9
:10377C00EF80C17301A037F700E0795610CBFD56EE
:10378C0054CBB7E700E0056423A087109306F00242
:10379C0014C323A087180F1000001306C003814523
:1037AC00480897E0FF1FE78040C5970700209387E4
:1037BC00A7A63ECAA167938707E03ECEB7070105CF
:1037CC00938707103ED0ED472312F1028547230360
:1037DC00F10297070000938787E2BEC497070000A9
:1037EC009387A7E3BEC697070000938747D03EDABE
:1037FC0097070000938767E63EDE970700009387E4
:10380C00A7DFBEC0B737010D9387D7D0B7F5070038
:10381C003ED48146970700009387271D7000E10571
:10382C0019453EDC231C810097D0FF1FE780204EFA
:10383C0058088147994670003E9603460600850756
:10384C000507A30CC700E398D7FED24791C70357CF
:10385C00810185676373F70001A04808EF30315789
:10386C00AA8501C917A501001305458EEF80C14F2C
:10387C0001A0F640664425618280411117050000C5
:10388C001305C5E406C622C4EF30F15013844182FF
:10389C002300A4008D28FD22034504002244B240DD
:1038AC0013060032896541016F30111EF327008029
:1038BC00A18B1387818189CBF327008023ACF18006
:1038CC001C43DD9B739007800F100000B71700405E
:1038DC00930670052380D704930680FA2380D704BF
:1038EC000F100000C8DB23800704F32600801C4364
:1038FC00A18BD58F7390078023AC01800F10000033
:10390C0023A401828280411106C6F3270080A18B7B
:10391C001387818189CBF327008023ACF1801C4372
:10392C00DD9B739007800F100000B71700409306C3
:10393C0070052380D704930680FA2380D7040F10D8
:10394C00000083C6F70293F6A60FA387D702238045
:10395C000704F32600801C43A18BD58F739007803E
:10396C0023AC01800F100000F3270080A18B89CBC2
:10397C00F327008023ACF1801C43DD9B7390078000
:10398C000F100000B7170040930670052380D70472
:10399C00930680FA2380D7040F10000083C6F70229
:1039AC0093E62600A387D70223800704F326008022
:1039BC001C43A18BD58F7390078023AC01800F1013
:1039CC0000000545EFE0DFE135311305407E81470E
:1039DC000147814605468545EFE01FE7B2400145AA
:1039EC0041016F307164011122CC2A84680006CE2B
:1039FC0026CAD13497C0FF1FE7802069B307A440C3
:103A0C006376A400B707C0A8A297898F3737E2A1C5
:103A1C0081170117637AF7003245753C0945F2406E
:103A2C006244D24405618280228549353245653431
:103A3C00373700408347574093F70704B1C393844B
:103A4C0081829C400D45E1FF694597D0FF1FE780BF
:103A5C00A0859C408DC31305D402B707C0A863F79B
:103A6C00A700370540571305D5022295813597C01D
:103A7C00FF1FE78000630545EFE01FD0014545B708
:103A8C0001004DBFF3270080A18B1387818189CB67
:103A9C00F327008023ACF1801C43DD9B73900780DF
:103AAC000F100000B7170040930670052380D70451
:103ABC00930680FA2380D7040F10000083C6E7001A
:103ACC0093E686002387D70023800704F326008023
:103ADC001C43A18BD58F7390078023AC01800F10F2
:103AEC000000F3270080A18B89CBF327008023AC47
:103AFC00F1801C43DD9B739007800F100000B717FB
:103B0C000040930670052380D704930680FA238027
:103B1C00D7040F10000083C6170393E60602A38890
:103B2C00D70223800704F32600801C43A18BD58F7A
:103B3C007390078023AC01800F100000B7E700E002
:103B4C003707001023A0E7108280411197950100E0
:103B5C009385C566179501001305057906C6EF8098
:103B6C00A1201795010013052579EF80E11FB240C4
:103B7C00294541016F80412341119795010093859F
:103B8C002565179501001305257606C6EF80C11D26
:103B9C001795010013050574EF80011DB2402945EE
:103BAC0041016F80612041119795010093858563D8
:103BBC00179501001305457306C6EF80E11AB24054
:103BCC00294541016F80411E411122C41795010006
:103BDC00130585712E84979501009385656106C642
:103BEC00EF8081182945EF80211C0DC497950100A9
:103BFC0093850560179501001305056FEF80C116BD
:103C0C00A28517A5010013052582EF80E115294532
:103C1C00EF8081192244B240056603C5C1821306A8
:103C2C0006C8854541016F302166797122D426D2B0
:103C3C004AD02E842A89B28481457146480006D622
:103C4C00EFE0BF9497F7FF1F93874793DC4783D729
:103C5C000700231421012313F100EF00903C85474A
:103C6C00A305F100930700192305A1003EC6268683
:103C7C00FD57A2854800230AF100EF00F03CB2503A
:103C8C0022549254025945618280411122C406C6C5
:103C9C00834705002A849DC3979501009385C559D8
:103CAC001795010013054564EF80010C4C401795E6
:103CBC0001001305257EEF80210B71A85841B70731
:103CCC00CF009387777D631AF71A97950100938538
:103CDC00A5561795010013052561EF80E1081C44DA
:103CEC008356E4008355C40003C6070017950100F2
:103CFC001305C57BEF8041072945EF80E10A035688
:103D0C00C4000C441385410B97D0FF1FE780606BF8
:103D1C0083C7410B1307200A638AE7001307300A95
:103D2C006380E712B2402244410182800357C400F1
:103D3C008D47979501009385255017950100130524
:103D4C00A55A6300F702EF802102179501001305B5
:103D5C00E577EF8061012244B240294541016F8033
:103D6C00A104EF806100179501001305A577EF7092
:103D7C00B17F2945EF8041030355E400930720F8F8
:103D8C0005469385410B238AF10A45359377F50F48
:103D9C002A8495C7979501009385054A17950100CC
:103DAC0013058554EF70517C9375F40F1795010032
:103DBC0013050577EF70517B2945EF70F17E9795D0
:103DCC00010093856547179501001305E551EF70C8
:103DDC00B179179501001305E575EF70F178294558
:103DEC00EF70917C4165930730FA05469385410B42
:103DFC007D15238AF10A153D9377F50F2A8495C713
:103E0C009795010093854543179501001305C54D02
:103E1C00EF7091759375F40F1795010013054570AC
:103E2C00EF7091742945EF7031780566130606C85A
:103E3C0091452244B24003C5C18241016F30C14457
:103E4C000357C40085476301F702979501009385DA
:103E5C00A53E1795010013052549EF70F1701795D4
:103E6C00010013056570F5B58357E400056613066C
:103E7C0006C82397F182A1456DBFB707CC00938785
:103E8C00777D631AF702979501009385E53A1795AC
:103E9C00010013056545EF70316D1C448356E40039
:103EAC008355C40003C60700179501001305056070
:103EBC00EF70916B4DB5B707CE009387777DE30319
:103ECC00F7E69795010093852537179501001305A3
:103EDC00A541EF7071694C40179501001305856A77
:103EEC00D9BB411122C406C6834705002A8485CB61
:103EFC009795010093854532179501001305C53E32
:103F0C00EF7091664C40179501001305A54AEF70B0
:103F1C00B1652244B240294541016F70F1685841A6
:103F2C001DEF979501009385252F1795010013051B
:103F3C00A53BEF7071631795010013052549EF70D0
:103F4C00B1622945EF7051662244B240116603C537
:103F5C00C182130606E8914541016F30E132A16739
:103F6C009386D7036311D702979501009385C52AD1
:103F7C001795010013054537EF70115F1795010078
:103F8C001305C5456DBFED07979501009385C528B1
:103F9C0017950100130545356315F702EF70D15CD9
:103FAC00179501001305C544EF70115C2945EF709E
:103FBC00B15F2244B24003C5C182914541016F30CB
:103FCC00213FEF70715A4C40179501001305855B2A
:103FDC003DBF411106C6EF90304319E5EF10D035C7
:103FEC00B24041016F20E072B24041018280411128
:103FFC009795010093858521179501001305C52E12
:10400C0006C6EF7071562945EF70115AB240410146
:10401C00C9B7411106C622C426C285476395F5026D
:10402C00AA849795010093856520179501001305C7
:10403C00A52BEF707153A685179501001305853FCD
:10404C00EF7091522DA02E8489479795010093858E
:10405C00E51D17950100130525296311F402EF7076
:10406C00B150179501001305E53EEF70F14F224456
:10407C00B2409244294541016F701153EF70D14EFB
:10408C00A285179501001305A53E5DBF011122CC39
:10409C002EC62A8497950100938545161795010025
:1040AC001305852406CEEF70314C3246A285179548
:1040BC0001001305E53CEF70314B2945EF70D14EF3
:1040CC0083C7018381EF97E7FF1F9387274BDC475B
:1040DC0003D70700C167FD17631DF7006244F24068
:1040EC00116603C5C182130606E8914505616F3060
:1040FC00A119F24062440561828093F7250081C7C3
:10410C0013C525008280411122C406C693F7150001
:10411C002E84B9CF97E7FF1F93874746DC4703D51B
:10412C000700EF00814E0DCD0545EF8090789795F7
:10413C00010093856513179501001305E51AEF70BF
:10414C00B142179501001305A502EF70F141294505
:10415C00EF70914513451400B24022444101828016
:10416C0013060064854503C5C182EF30E111DDB74C
:10417C0093F745008DCB979501009385E50E179528
:10418C00010013056516EF70313E179501001305FC
:10419C0065FFEF70713D2945EF701141EF10907B79
:1041AC001345440055BF93F785000145D5D7854588
:1041BC0003D5E182EFE03076979501009385C50A2F
:1041CC001795010013054512EF70113A1795010070
:1041DC00130585FCEF7051392945EF70F13C1345FF
:1041EC0084009DBF011135469795010093850512FA
:1041FC00179501001305056306CE22CC97D0FF1F3F
:10420C00E780202501E9179501001305E5F2EF7011
:10421C00F14901A097E7FF1F9387C7693EC48567E3
:10422C0093870780970500009385E5DE17950000BE
:10423C00130585013EC6EF80D07FB7F50700814698
:10424C000A86E105194597D0FF1FE78040AC194657
:10425C008A851385011A97D0FF1FE78080163400DA
:10426C000A86979501009385E5341795010013058F
:10427C00E535EF10303A2A840DC9979501009385E6
:10428C00A5FD1795010013052506EF70F12DA285EC
:10429C001795010013058508EF70112D2945EF7056
:1042AC00B130F240624405618280EF701046179580
:1042BC0001001305A5FCEF00D057EF40D03CEFF008
:1042CC00400E17E5FF1F13052529EFE0307B1795EE
:1042DC0001001305A5FBEFF0800E2A84EF1060316E
:1042EC00EFA0702CEF10812CEF20204AEF10F00B78
:1042FC00EFD0801097950100938505F61795010076
:10430C00130585FE09C8EF703126A28517950100AB
:10431C001305050351B7EF703125179501001305EF
:10432C006504EF7071242945EF701128EFC03073CC
:10433C0085472388F182EF90300D31C997950100A4
:10434C00938585F117950100130505FAEF70D121BE
:10435C001795010013058502EF7011212945EF70A7
:10436C00B124854503C5C182EF20916C979501005E
:10437C00938585EE17950100130505F7EF70D11E97
:10438C00179501001305C501EF70111E01BF913186
:10439C00F1BF411117050000130565D606C6EF30B5
:1043AC00811F2386A18217E5FF1F1305251DEF0032
:1043BC0010010D3DB24041016FF0AF9F0111354628
:1043CC0097950100938585F4179501001305854594
:1043DC0006CE97D0FF1FE780C00701E917950100B3
:1043EC001305C51BEF70912C01A0EF5011522AC67A
:1043FC00EF10C15DEF10013DEF60F06BF240324504
:10440C000561828041111305800406C697C0FF1F09
:10441C00E780603385457D55EFE01FF185457D557F
:10442C00EFE0FFFA371700408327870A8D45130505
:10443C00002093E707202324F70AEFE0FFEEEFF0CC
:10444C002F9417A501001305A5C1EF703126179500
:10445C0001001305253DEF707125EFF0CFAEEFF0A5
:10446C00CFC1A93F3D3797C0FF1FE780E07D0145D5
:10447C0082804111B2862E86AA852D4506C697D01C
:10448C00FF1FE780C088B240014541018280AE86A3
:10449C000146AA85254517D3FF1F6700438793075D
:1044AC00000463E6C7021D71A2CC2A84080886CEDC
:1044BC0032C6EF701100B2461008A285294597D07C
:1044CC00FF1FE780C084F640664425618280395521
:1044DC0082809387418318429C4383D645000345D1
:1044EC00070083C5C700035646006396A50083D515
:1044FC00E700638DD502011106CE2386A700239712
:10450C00D700B705CF00DC4B9385757D05077D166D
:10451C002EC2230001003AC42316C1002317D10078
:10452C0099C30A858297F2400561828082806D7101
:10453C003C083EC6B707E500232291103EC8AA846A
:10454C003C083285232611103ECA232481102320D7
:10455C0021112E89EF2000432A8497950100938521
:10456C00250C17950100130525D8EF70E17FA28566
:10457C00179501001305C51AEF70017F2945EF70DF
:10458C00B102B705CB009385757D6800EF00102450
:10459C00A2856800EF20A034014781467000CA85CF
:1045AC002685EF00F04215C52A8497950100938566
:1045BC00250717950100130525D3EF70E17AA28525
:1045CC001795010013058516EF70017A2945EF70D8
:1045DC00A17D8320C1100324811083244110032961
:1045EC000110516182809387418318429C437971F9
:1045FC0022D406D60348070083C807012A8483D631
:10460C004500035546006396080183D82701638D46
:10461C00D8022388070105072399D7003708CC0057
:10462C00DC4B1308787D3ACC1307F5FF42CA2308FC
:10463C000100231EE100231FD10099C7080832C6D0
:10464C002EC482973246A2452285D535B2502254CB
:10465C00456182806D713C083EC0B707E5003EC2E3
:10466C003C083EC4232611102324811023229110D0
:10467C00231701002318010023190100231A01003C
:10468C00231B010097E7FF1F83D747F399E3C1670B
:10469C00FD172316F10097E7FF1F83D747F281EB35
:1046AC00938741839C439C43DC4783D7070017E4E3
:1046BC00FF1F1304A4F0584C2317F1008357440038
:1046CC00484B2318F10005ED97950100938545FCA7
:1046DC0017950100130545C1EF700169179501008D
:1046EC00130545FCEF7041682945EF70E16B8320A1
:1046FC00C11003248110832441105161828097E7FB
:10470C00FF1F83C717EC99E7EF2091045C4C23AA99
:10471C000700F1BFFD1797E6FF1FA384F6EA0356C7
:10472C000701834704014C470A85230BF100EF2056
:10473C002019938741839C430147814688430A860D
:10474C006C00EF00F028AA8405C9979501009385A9
:10475C0025F417950100130525B9EF70E160A685C6
:10476C00179501001305C5F4EF7001602945EF7032
:10477C00A1635C4CC84B49BF97E7FF1F83C777E425
:10478C00EDDB1044854503C58183EF20F12F85B700
:10479C00DC4DDC4B99C7904503C5818391456F2057
:1047AC00B12E82805C4EDC4BA1C7B9C1411122C431
:1047BC0017950100130545B32E8497950100938539
:1047CC0065EB06C6EF70415AA285179501001305DB
:1047DC0065F0EF7061592945EF70015D2244B240DC
:1047EC0003C5818313064006914541016F20D129F1
:1047FC008280411122C417E4FF1F130424DA1C4CDD
:10480C0006C689C7DC4399C34C4882975C4CC84B9D
:10481C00EF2001745C4CB240224423AA07004101F2
:10482C0082801387E180834707009306F00B85078E
:10483C0093F7F70F63E7F6002387F1800345070032
:10484C008280930700F8CDBF83574500638D070C1A
:10485C0001114AC817E9FF1F130949D652C4032A8C
:10486C00C90106CE22CC03274A0126CA4EC6F157EF
:10487C0029EB1307D00DFD576365C7042A84130574
:10488C00860042054181B284AE89EF20216F232A34
:10489C00AA000325C9015C4995EF97950100938502
:1048AC0065DB17950100130525A4EF70E14B1795F7
:1048BC000100130565EAEF70214B2945EF70C14EDD
:1048CC00DD57F2406244D2444249B249224A3E8505
:1048DC000561828093874400B705CF002319F5004A
:1048EC009385757D3105EF00606E0325C901834505
:1048FC0064003105EF10B07E0325C9012686CE85F4
:10490C003105EF10F07B7146A2854A85EF70613A54
:10491C00504401CA854503C58183EF20F1168147B8
:10492C004DB70D3BEDBFFD573E858280411122C432
:10493C0017E4FF1F130484C85C4C06C6C84BEF2059
:10494C0021615C4C2244B24023AA070003C5818339
:10495C00854541016F20D125411126C293844183A5
:10496C009C4006C622C4BDCFDC43ADCF5CC1230046
:10497C00B5002A8497950100938505C91795010008
:10498C0013058596EF70413E2945EF70E1419C403F
:10499C0023A4070023A2070097E7FF1F938707C0F4
:1049AC00DC4FDC4B99C32955A93597E7FF1F93873B
:1049BC00E7C0DC4FDC4B91C3953F894503C5818330
:1049CC00EF20111F914503C58183EF20711E9C4080
:1049DC0003A347016308030022852244B24092449A
:1049EC0041010283B2402244924441018280011170
:1049FC00328506CE22CC26CA2E84EF10B078AA843B
:104A0C0097950100938585C3179501001305C58DF6
:104A1C00EF7081350307840003566400835544000E
:104A2C00A686179501001305E5CCEF70E1332945F7
:104A3C00EF70813797E7FF1F83C7A7B6639797007F
:104A4C000145453B81450A85013FF2406244D24411
:104A5C00056182806D71232481102326111023227D
:104A6C00911093F745002E84638F07103C083EC0CD
:104A7C00B707E5003EC23C083EC4231701002318CB
:104A8C00010023190100231A0100231B010097E7E1
:104A9C00FF1F83D7A7B099E3C167FD172316F10059
:104AAC0097E7FF1F83D7A7AF81EB938741839C4385
:104ABC009C43DC4783D7070017E7FF1F130707AE9C
:104ACC002317F100544F835747002318F100DC4A99
:104ADC0095EF979501009385A5BA179501001305DD
:104AEC00A580EF706128179501001305A5BBEF7029
:104AFC00A1272945EF70412B134544008320C11099
:104B0C0003248110832441105161828097E7FF1F99
:104B1C0083C737A92555B5C7FD1717E6FF1FA30295
:104B2C00F6A803D6060183470701CC460A85230B5A
:104B3C00F100EF10F058938741839C4317E7FF1F58
:104B4C001307C7A5979601009386866C88430A863F
:104B5C006C00BD2DAA844DD197950100938545B26B
:104B6C001785010013054578EF700120A685179570
:104B7C0001001305E5B3EF70211F2945EF70C12229
:104B8C002685853995BF93F725008DC34146814510
:104B9C00280897D0FF1FE7804086255599392808AB
:104BAC009305F00F553B1345240089BF93F715006F
:104BBC000145A9D7EFF01FAA1345140081B75C4D2E
:104BCC00411106C688C3170500001305E5E823AAA2
:104BDC00F182EF20511CB240238CA182014541018E
:104BEC008280EFD2FF952A8408452E89B28909C9A3
:104BFC0000C1970500009385C5736105EF00F12D89
:104C0C0081447D5AEF10A00363C3A4048144EF10C8
:104C1C00000463C6A40497F7FF1F938767639C4344
:104C2C00DC47B307F94091872302F4006381090440
:104C3C008327C900B307F4409587A302F4001C4CEA
:104C4C0089C79C4799C3228582976FD0BF925C44D9
:104C5C00139714008504BA972390470165B71C4835
:104C6C00139714008504BA97239007004DB7832738
:104C7C0089000547B307F4409587A302F4008357D6
:104C8C000400638EE7028DC309476384E7040D4774
:104C9C00E397E7FA97970100938787071CCC9797C0
:104CAC0001009387E70711A8979701009387C7CD59
:104CBC001CCC97970100938727CE5CC849B7979770
:104CCC000100938767B91CCC979701009387C7B9EC
:104CDC00EDB797970100938767081CCC9797010055
:104CEC009387C708D9BF85E1EFD23F8700461844A8
:104CFC008347940075839D8B6315F700EF00901923
:104D0C0048C46FD0DF878280EFD29F831389350030
:104D1C00C16442094111AA890144F11413590901D2
:104D2C00054A2EC6EF00B071B2456346A40001459A
:104D3C0041016FD03F8483A7090013171400BA9761
:104D4C0083D707006388B7006394970063742A01C4
:104D5C000504C1BF0545E9BFEFD2AFFDAA892E8975
:104D6C00328BB6843A8ABE8AEF80106A4DC1268592
:104D7C00EF10F0308D4763E5A7007D556FD0EFFE47
:104D8C0083DB4400EF00B0712A84EF00907293072C
:104D9C00740031443305850263C5A702EF003070FF
:104DAC00EF00F06F2A84EF00D07093077400314449
:104DBC003305850263CDA702EF00706E93074500A3
:104DCC0019A8EF00106F330585021307F01793072E
:104DDC00C017E357A7FC2D55E3C277FB63000B020A
:104DEC00D6865286A6854A85EFF0D01041BFEF00DB
:104DFC00506C330585029307C5FFF1BF832749002B
:104E0C001385C90083D52700013779F9BDB76955DA
:104E1C00B5B797F7FF1F239FA74297F7FF1F9387FD
:104E2C002743904381470C463307F50042074183E3
:104E3C006393B70082805446139847008507C29647
:104E4C002390E600D5B797F7FF1F938767409C43E5
:104E5C0003C58700828017F5FF1F0355A53F82808D
:104E6C00EFD2AFEFC1671387D7FF6307E502636823
:104E7C00A700F117630EF50001456FD04FF01387B3
:104E8C00E7FF630EE500FD171D8D13351500F5B713
:104E9C00EF40E0377D15D5BFEF406015E5BFEF4023
:104EAC00C013CDBFEFD26FEB4111AA8401442EC6C3
:104EBC00EF00F059B2456346A400014541016FD0A3
:104ECC000FEC9C48131514003E9583570500E3879F
:104EDC00B7FE0504E9BF03485500814693F7F60F6A
:104EEC0063E5070181473E858280584593975600BC
:104EFC00BA9703D727006316B70003D70700E3045C
:104F0C00C7FE8506E1BF8346450001479377F70F3F
:104F1C0063E4D700814711A81C45131657000507F9
:104F2C00B29703D60700E313B6FE3E858280EFD21C
:104F3C002FE193170501C18797FAFF1F938A4A3116
:104F4C006353F00883A70A00C0479C47035704002B
:104F5C00198D420541816366F500014422856FD0AD
:104F6C006FE112052A94DDBFDC4713944900014A16
:104F7C003E94834744006341FA02014A834754003C
:104F8C006346FA028509C20993D9090183A70A006D
:104F9C009847E3EBE9FCD1B71C4413195A00A685DA
:104FAC003E994A85013709ED050AE1B75C441319AE
:104FBC005A00A6853E994A85F53519E1050A7DBF4B
:104FCC00E30209FC61BFAA848149C9B7EFD2EFD8CB
:104FDC001C452A8481E79307C5001CC51C44231279
:104FEC0004001CC09307F00F63E9B70093F5F50FAD
:104FFC002285EF10D00E6FD08FD893940501C16726
:10500C00C18063F7F500A6852285EF10F010E5B797
:10501C00C18193F5F50F2285EF10700CA6852285C2
:10502C00EF10300DC9BF97F7FF1F93876722884396
:10503C0082801C4599C797F7FF1F23ABA72001451A
:10504C0082807D55828097F7FF1F93876720984356
:10505C0083474500484792073E958280EFD2EFCFB9
:10506C00617100451C183EC6B70780013EC81C186C
:10507C003ECA8357440002CE02D002CC231EF1005C
:10508C00834784002A8902D22301F1023C083ED4D2
:10509C0002D6553F835705002316F102EF30B06658
:1050AC002307A1025C4003556400F18313F717003A
:1050BC008347F10252055181F99BD98FA307F10265
:1050CC00EFF0A05439C5AA8403550500EF80B03425
:1050DC0083D704002AD26800231CF10083D7240054
:1050EC00231DF1001C4803D647008C43EF10407D74
:1050FC008347B400CA86178601001306666F8117B2
:10510C00A305F4006C004810EFF0C05E5D616FD039
:10511C000FC72155E5BF1C45B1CF03C5A700894674
:10512C0013576500630BD7028D46630ED702854675
:10513C006300D702130740063305E50203C7B70027
:10514C00418B15CB83C7B700BD8B3355F54082809F
:10515C001375F5031307803EC5B709671375F5037F
:10516C0013070771D1BF372709001375F503130710
:10517C00077CD9B701458280EFD22FBE03A98500E9
:10518C00630409048347B900AE8493F7070E91CFEB
:10519C0003459900930520030D810505B305B50260
:1051AC0088446105EF00415F05A02E85AD372A8448
:1051BC0001CDCD218325C900B307B54063F8870025
:1051CC002E94B305A440E9FD6FD06FBB8545C9BFD4
:1051DC00EFD2AFB82A8403D50500011132C636C40C
:1051EC003AC22EC002CA02CC02CEEF80D022824537
:1051FC002ACA22852ECC813D03570500231EE100CF
:10520C00EF307050A24632469247230FA1003687EA
:10521C004C08B28622850146EFF01FB405616FD0B1
:10522C000FB6EFD28FB361711C183EC6B707800161
:10523C003EC81C183ECA3C0800453ED4AA8402CC89
:10524C0002CE02D002D202D6FD3B8357050035595F
:10525C002316F102EF30304B2307A10209C4835708
:10526C00440091E721594A855D616FD04FB10355D8
:10527C00640052055181EFF040392A8965D5834786
:10528C00B40093F7070E89C713058401EF00415250
:10529C0083574400231EF100834784002301F1024D
:1052AC005C4003550900D98313F7070883471102A3
:1052BC00231CA10093F7F707D98FA300F1028357A2
:1052CC002900231DF1005C40F18313F7170083477D
:1052DC00F102F99BD98FA307F102EF80D0132AD2E8
:1052EC0051D1834794006800139757008347B4004B
:1052FC00FD8BD98FA305F4001C4803D647008C43C3
:10530C00EF10005CA687178701001307674E740027
:10531C0005464C102685EFF03FA42A8929D58347F2
:10532C00B400A685FD8BA305F400B9352DBFEFD2D3
:10533C00CFA2832485FE2A8441112685E93B83472D
:10534C0034FF93F7070E9DC32AC62685EFF01FD1B5
:10535C0019C9834734FFB245FD8BA309F4FE81C5FF
:10536C002285EF00614341016FD06FA16DDD832772
:10537C00C4FF2685829765F9834734FF93F7070EA0
:10538C0081C72285EF00C142032584FE593DE1BF50
:10539C00EFD2AF999C4141112A8903C70700894775
:1053AC002E8493566700638CF6020D466382C60406
:1053BC009307F0076302F7022E85EF10A05CAA8416
:1053CC008149C16B130C490097F7FF1F938747E87E
:1053DC009C43984763ECE90241016FD0CF9803D707
:1053EC0045008547E3FAE7FE2E85EF10805DC1BFCF
:1053FC0003D74500E3F2E7FE2E85EF10A058AA84F0
:10540C002285EF108059C204C98C5DBFDC4703555F
:10541C00A900139A49003E9A93170501C187635D51
:10542C00F00083570A006395A70263E57403832792
:10543C00CA00034D5A001DA0A1672167A98F13074D
:10544C00F7EFE374F7FE63950900EFF07FA171FDB0
:10545C0085099DBF83278A00034D4A00835DA900FF
:10546C0003576900216A138BC7003AC6814A33CAB5
:10547C004D01631E5D0197F7FF1F9387E7DD9C438A
:10548C00E1DBA2866286814526858297D1B7A1672A
:10549C009387F7EF930C4BFF63F04703B2455A85A4
:1054AC00EFF09F8619CD03278B00104719CA1043C4
:1054BC006380C4023107D5BFEE856685EFF09F9EF1
:1054CC0071FD93861A0093FAF60F130B0B0255B766
:1054DC00835644005C43E3EDF6F622853AC6EF10A2
:1054EC006039A1679387D7042A8A035D4400324749
:1054FC0063E897008347D90093E707F8A306F90000
:10550C001C4766852286E2858297C1670844FD1791
:10551C00337AFA00529508C02312A40115BF97F7ED
:10552C00FF1F9387E7D29843814715C314478147E0
:10553C0063FFD500939745004C47BE9519C903C727
:10554C00550081476375E600DC451606B2973E852B
:10555C00828003C745008147E37BE6FE16069C4527
:10556C00F5B7EFC2FFFDAA892E8A814497FAFF1F77
:10557C00938A0ACE83A70A00984763E4E4006FC0BD
:10558C007FFFDC471394440001493E9413BB140085
:10559C0083474400634BF900014913BB1400834754
:1055AC005400634FF9008504F1B708449317590070
:1055BC005287DA860146A2853E9582990509C9BFB4
:1055CC004844931759005287DA860546A2853E95C2
:1055DC0082990509E9B7EFC25FF8814517F5FFFF1E
:1055EC001305656097F7FF1F239607C69D3F6FC095
:1055FC001FF997F7FF1F9387A7C59C4399CBEFC261
:10560C00DFF5814517F5FFFF1305E55D993F6FC089
:10561C001FF78280EFC2DFF241112315E1002E89C2
:10562C00B284B6893A8681460147ED452A84EF203B
:10563C0041642AC61DCD0356A100CE85EF6061677B
:10564C00CA852285EF204177058915C1228501463F
:10565C002C0023149100EF20310D2A8409C5ED454F
:10566C002800EF20616F228541016FC0BFF04944D3
:10567C00FDB76554CDBF5C41FD175CC18280EFC2A4
:10568C00DFEDEF10113895473305F50281450D819B
:10569C006FC0FFEEEFC27FECEF10B13695473305CC
:1056AC00F5020D816FC0BFEDEFC23FEB0355050056
:1056BC00EF2061386FC0BFECEFC23FEA0355050025
:1056CC003287AE8617D6FF1F035626F697F5FF1FB7
:1056DC009385C5B881376FC09FEAEFC21FE8EF50C2
:1056EC0051326FC0DFE9EFC25FE797F5FF1F93857B
:1056FC00E5B6EF20510A01456FC07FE8EFC2FFE528
:10570C00814517D5FF1F035545EEEF2001756FC07E
:10571C001FE7EFC29FE497F5FF1F938525B5EF2098
:10572C00910701456FC0BFE5EFC23FE3814517D537
:10573C00FF1F035585F1EF2041726FC05FE4EFC28C
:10574C00DFE12E85EF60804FEF60D0046FC03FE348
:10575C00EFC2BFE0EF60B00E6FC07FE25C49E117B3
:10576C005CC95CC583572501A1072319F500835734
:10577C000501A1072318F5008280F1473305F502D6
:10578C0097F7FF1F938787B09C433E9582808D4788
:10579C006317F60603D74600854763F2E706EFC2A8
:1057AC00DFDB368536842E89EF10C01D39C1835757
:1057BC00440093140501C18063ED97022285EF101C
:1057CC00601CFD14231294009307A002630EF500D5
:1057DC009307B0026301F50293079002631BF50077
:1057EC002285EFD0D03131A00146CA852285EF80C9
:1057FC0050326FC0DFD82285EF00B059DDBF8280F8
:10580C0097F6FF1F9386C6A89C42014599CF9843F3
:10581C00D44217F6FF1F232DE6A66396D70097F602
:10582C00FF1F23A9E6A61385C7FE8280EFC2FFD215
:10583C007D2E7144330585029145EF80A00501E56D
:10584C0065556FC0DFD397F7FF1F23AFA7A245267F
:10585C00330585029145EF80E0037DD197F7FF1F5B
:10586C0023A6A7A2692697F7FF1F2399A7A0412675
:10587C0097F7FF1F2395A7A097870100938787FCB5
:10588C0017F7FF1F2320F7A097070000938747ED1A
:10589C0017F7FF1F2326F79E014565B7EFC2FFCB15
:1058AC00AA8517F5FF1F1305659DEF1080216FC0AA
:1058BC001FCDEFC29FCADD37EF10202297F7FF1FD5
:1058CC009387079D9C4381CF1387C7FE09CB83D554
:1058DC00C7FF17F5FF1F1305259CEFF0F06B6FC08A
:1058EC001FCAEFC29FC7293F11C9834785002A846D
:1058FC0093F7070491E70355E500653F6FC03FC878
:10590C008347C5009304450117F9FF1F13094998F4
:10591C0085E3832709005CC997F7FF1F23AA979695
:10592C0083274900E1FF97F7FF1F23A59796F9B747
:10593C00FD172306F5006105EF60E0758307840011
:10594C0063C907048347840093E707F82304F40032
:10595C00EF1051064205A94741813375F502834783
:10596C00840093F707FCC98F2304F4008347D40009
:10597C003E951C402318A40089CF984319CB83472C
:10598C00C4005040814585073305F502420541812D
:10599C000297832709005CC897F7FF1F23AA978EED
:1059AC008327490089E797F7FF1F23A5978E834725
:1059BC00C400A9D78355040117F5FF1F1305C58D26
:1059CC00EFF0905D25BFEFC25FB997F7FF1F93878C
:1059DC00E7B19C4701448583858B81EFAE84B2850A
:1059EC003A86EF10E0142A8409C5EF10E00B82947C
:1059FC0008CC22856FC0BFB8EFC29FB441112E896D
:105A0C0032C6AA89692C324713060502CA86970545
:105A1C0000009385C5D617F5FF1F1305258665373E
:105A2C002A8429CD9304C500C5261946AA85268546
:105A3C00EF00106985452685EF00F065178501009C
:105A4C00130505DE4E95834505002685EF0030696C
:105A5C005C4831468145A1075CC85CC4835724016E
:105A6C00E1172319F40083570401E1172318F400FC
:105A7C001C4C3E85EFC07FB1A3042501228541015A
:105A8C006FC05FAFEFC27FAD4111AA842EC632C486
:105A9C00EF10E003004DB2452246834784000CC052
:105AAC0050C093F7F70393E707042304F40023187B
:105ABC0004002685EF00507F83479400A9462317E6
:105ACC00A40013D7370005073307D7029D8B850732
