:041000006F00105D10
:101004000000000000000000902000202A2500209D
:10101400A9BDF9F3942000200000000000000000A6
:10102400962000209820002000000000000000000E
:101034009A200020000000009C20002000000000F6
:101044009E200020A0200020A2200020A420002018
:10105400A6200020A8200020AA200020AC200020E8
:10106400AE200020B0200020B2200020B4200020B8
:1010740032260020B8200020BA200020BC20002006
:10108400BE200020C0200020C2200020C420002058
:1010940001A001A001A001A001A001A001A001A044
:1010A40001A001A001A001A001A001A001A001A034
:1010B40001A001A001A001A001A001A001A001A024
:1010C40001A001A001A04111B7170040985F3AC6E2
:1010D400945F3247E39CE6FE3245410182807327E8
:1010E4000080218B971700009387C72E19CB732795
:1010F40000809716000023AFE62C98435D9B731085
:1011040007800F1000003717004093067005230076
:10111400D704930680FA2300D7040F1000008346F7
:10112400B70493F6F60DA305D7042300070473262A
:1011340000809443A18AD18E739006809716000094
:1011440023AA06280F100000937605026384061A6A
:101154000347A700118B25EB73270080218B19CB44
:10116400732700809716000023A6E62698435D9B0C
:10117400731007800F1000003717004093067005A6
:101184002300D704930680FA2300D7040F1000002D
:101194008346A70093E646002305D70023000704EF
:1011A400F32600809843218B558F731007801717FF
:1011B4000000232107220F1000001307004B010039
:1011C40001007D176DFF73270080218B19CB7327D6
:1011D40000809716000023AFE61E98435D9B7310B2
:1011E40007800F1000003717004093067005230096
:1011F400D704930680FA2300D7040F1000007D89DA
:101204002314A700010001000100010023000704CA
:10121400F32600809843218B558F7310078017178E
:1012240000002329071A0F10000073270080218B68
:1012340019CB732700809716000023ADE618984356
:101244005D9B731007800F10000037170040930652
:1012540070052300D704930680FA2300D7040F10E7
:1012640000000F100000B726004013061005A383EA
:10127400C68023000704F32600809843218B558FF2
:101284007310078017170000232607140F1000009F
:1012940073270080218B19CB7327008097160000D9
:1012A40023AAE61298435D9B731007800F10000079
:1012B40037170040930670052300D704930680FA7D
:1012C4002300D7040F1000008346B70493E60608F2
:1012D400A305D70423000704732700809C43A18B34
:1012E400D98F739007809717000023A5070E0F105E
:1012F4000000828093760504638706160347A700DF
:10130400418B25EB73270080218B19CB7327008039
:101314009716000023A0E60C98435D9B731007808A
:101324000F10000037170040930670052300D70400
:10133400930680FA2300D7040F1000008346A70009
:1013440093E606012305D70023000704F326008053
:101354009843218B558F7310078017170000232B98
:1013640007060F1000001307007D010001007D1720
:101374006DFF73270080218B19CB7327008097168C
:10138400000023A9E60498435D9B731007800F10A7
:10139400000037170040930670052300D704930616
:1013A40080FA2300D7040F1000009376F50193E62A
:1013B40006042314D70001000100010001002300EA
:1013C4000704F32600809843218B558F7310078000
:1013D40017170000232007000F10000013076004F4
:1013E4006312E50473270080218B19CB73270080D7
:1013F4009716000023A0E6FE98435D9B73100780B8
:101404000F10000037170040930670052300D7041F
:10141400930680FA2300D7040F100000B72600407B
:101424000946B1B573270080218B19CB732700803F
:101434009716000023A0E6FA98435D9B731007807B
:101444000F10000037170040930670052300D704DF
:10145400930680FA2300D7040F100000B72600403B
:101464001306200529B573270080218B19CB732718
:1014740000809716000023AFE6F498435D9B731039
:1014840007800F10000037170040930670052300F3
:10149400D704930680FA2300D7040F100000835664
:1014A400870093E6060C2314D700E1B3411181466B
:1014B40001468145114506C68524F3270080A18B8A
:1014C40097160000938606F199CBF327008017172F
:1014D40000002321F7F09C42DD9B739007800F10DE
:1014E4000000B7170040130770052380E7041307B3
:1014F40080FA2380E7040F10000003C76704136712
:1015040017002383E70423800704732700809C4289
:10151400A18BD98F739007809717000023AC07EA3B
:101524000F100000B240410182808146014681458E
:101534001145DD22F3270080A18B17170000130744
:1015440067E999CBF32700809716000023A4F6E8F7
:101554001C43DD9B739007800F100000B7170040F9
:10156400930670052380D704930680FA2380D7045A
:101574000F100000FD562396D70223800704F3269C
:1015840000801C43A18BD58F7390078097170000B0
:1015940023A207E40F100000F3270080A18B99CB4E
:1015A400F32700809716000023A6F6E21C43DD9B78
:1015B400739007800F100000B71700409306700562
:1015C4002380D704930680FA2380D7040F100000E9
:1015D40083C6670493E616002383D7042380070495
:1015E400F32600801C43A18BD58F73900780971737
:1015F400000023A107DE0F10000001A0BD47330542
:10160400F50201007D1575FD8280411122C426C2B8
:1016140006C6AA84014463179400B240224492444B
:101624004101828005041305803E4204C13F41808C
:10163400DDB7B7170040130700032388E702854787
:1016440017170000232AF7DA73002030411122C44F
:1016540006C6370400201C408297F5BF230304808C
:1016640015472303E48001002302A48082808307BA
:101674006480E3CE07FE23030480828083076480B2
:10168400E3CE07FE03454480828083076480E3CE73
:1016940007FE2302A4808280411126C44AC24EC0A0
:1016A40006C61377F50BAD47AA892E8995446306C0
:1016B400F70019456537653F8D444E854537FD591B
:1016C400FD1463983401B240A24412498249410195
:1016D4008280135509011375F50F453F2209CDB7D3
:1016E400011126CC06CEB704080051371545BD3785
:1016F400713769372AC6A53F32459377150089EBC0
:10170400136515001375F50FF240E24405618280FC
:10171400FD14E9FC0145CDBF397126DC4ADA4ED807
:1017240052D656D45AD25ED006DE62CE66CCB7E725
:1017340000E07D5783AA070022C603AA470023A01E
:10174400E71823A2E718B717004013077005238092
:10175400E704130780FA2380E70483C74704930B45
:1017640075FFB684E20793FBFB0F8546AA892E8B8F
:10177400328937240040E187015763FA7601630810
:10178400D5008946130700026313D5000157D98F8A
:1017940093F7F70FB71C00402382FC04114723037F
:1017A400E4801305F00F5D3D094CD135636D7C1168
:1017B400B7050700DA9537870700795563F2E50422
:1017C400B3879500636EF702370B0800A94733EB24
:1017D40065016399F90689E48144513D26850DA08C
:1017E400DA850945553D05090345F9FFFD14050B47
:1017F400693D81C49377FB0FFDF7DD3569FD7D55A8
:10180400B7170040130770052380E704130780FA15
:101814002380E70403C74704418B2382E704F25083
:10182400B7E700E023A0571123A24711E254324442
:101834005259C259325AA25A125B825B724CE24C20
:1018440021618280A5476395F90685691309F00F24
:10185400B3069900B3742B01B6941349F9FFB3741A
:101864009900856B33796901416B9387F9FFB3F76D
:10187400270199E363FC340193D94900C147E3E6A6
:1018840037FF99BF0569C1697D19D9B71305800D63
:101894006388690113050002638479011305100844
:1018A400CA85DD3B353D21DD4E99B3843441D9B73A
:1018B400DA852D45D533CA94E30099F205097D3BB9
:1018C400A30FA9FED5BF9387F9FF93F7F70F6361C1
:1018D400FC0C83C71C0413073008631FF704370785
:1018E4000800636BEB04B3079B00B706100063F5B5
:1018F400D704334BEB0089476393F9068980D549B4
:10190400E38C04ECDA850945413B11090327C9FF3F
:1019140091472320E48003076480E34E07FE2303FA
:101924003481FD17EDFBFD14110B81C49377FB0F7C
:10193400E9FF7D3371F5E1B5B717004003C75704DC
:10194400B70708001377070219E3B787070079552B
:10195400E378FBEA33079B00E3FFE7F855B58547D7
:10196400E382F9F2DA852D45053B9389F4FFE3859B
:1019740004E6293393F7390091EB83260480032787
:10198400090093074900E39AE6E43E89CE84F1BF57
:10199400B5476396F9001305900BC93135BDB147BE
:1019A4001305B00AE38BF9FE99476391F904B7056F
:1019B4000800B365BB002D45C53181448D4BA14959
:1019C400753963967401832704802320F900850404
:1019D400E39834FF8327048013172B016355070012
:1019E4002312F900D5BB2322F900FDB39D47639967
:1019F400F90281451305B0044531BD442320090093
:101A040023220900FD599D3993F77400CA9703C72F
:101A14000700FD14398D2380A700E39634FF6DBBC6
:101A2400A1476392F9046D398144630D0B008D471E
:101A34009304C0036308FB009304000563048B0153
:101A4400930440041375C507E30895D81945393143
:101A540039390545213126850D3909453D3149314D
:101A6400E31C05D669BB91476399F9001305600629
:101A7400F536F53E130590090DB7E38F09D4F154FB
:101A8400A9BBBD660147173600001306E66C9386B2
:101A940006A685458347060093F7F70F91C3828016
:101AA4000507E3F9E6FE973700002387B76ADDB739
:101AB4007D166206618693178601E18763D4070069
:101AC40001458280931726003307F500AE9718432B
:101AD4009C4363E7E7007D16E37FF7FC7D55828036
:101AE40005458280FD15E205E1851397850161872F
:101AF40093F7F50F63480700FD15139725002A9700
:101B0400584365D7138517006205618582803308C1
:101B1400B5021C4283A80600B335B502C29733B59B
:101B24000701AE98469585486367B5006394A500A0
:101B340063E3070181480C43C6950CC388C21CC2E9
:101B4400828081471397870161876343B70082804E
:101B5400139727002A97232007008507E5B78147B5
:101B6400014793968701E18663C5B60013351700D4
:101B7400828093962700AA9694428507558FD5B7FD
:101B840093D755408A07AA979C4305453315B5005A
:101B94007D8D828017F3FFDFE702A3352A8499370E
:101BA40005C5931725003E940327C4FF814711EB15
:101BB4007D1516053E954205418517F3FFDF670045
:101BC400833505838507E5B70145C5BF814713976D
:101BD400870161876343C700828013972700B38618
:101BE400E50094422A97850714C3D5B77D1662068B
:101BF4006186014793178601E18763D50700133592
:101C04001700828093172600B306F500AE9794421E
:101C14009C437D16B58F5D8FF1BF8A05AA95014758
:101C24006363B500828083A6C5FFF11593D71600C0
:101C3400D98F9CC11397F601E5B72A830148014760
:101C440001456343D7008280B387050183A8070059
:101C5400B30706019C43C697AA976384F80033B57B
:101C640017010507B3080301620723A0F800618781
:101C74001108C1BF2A8301478147014563C3D700C7
:101C840082803388E50083280800330EE600032EA3
:101C94000E003388A8403308C8416384080133B573
:101CA40008018507B308E300E20723A00801E187E0
:101CB4001107E9B717F3FFDFE702A3230111B28687
:101CC400B2842E86AA850A8575372A84A6850A8554
:101CD400793533348000060413351500018D056110
:101CE40017F3FFDF6700232317F3FFDFE702E31D8A
:101CF4004111AA89AE8A328BB68402C202C402C6DA
:101D04000144131C8401135C8C4163499C02939B22
:101D14001400FD1B0549138CF4FFF15C33048901A5
:101D240062046184634D740592478E04CE9423AE9D
:101D3400F4FE410117F3FFDF6700A31C131924000D
:101D4400B30B2B01014A93172A00D69783A50B00E6
:101D540088437800340050005D3B050A93178A01DC
:101D6400E187F11BE351FCFE92474E9905042320C1
:101D7400F900A2473EC2B24702C63EC459B7131A7D
:101D84008901135A8A41131D240093178A01E1879C
:101D940063CF970092470A044E941CC0A2470509DA
:101DA4001379F90F3EC2B24702C63EC485BFB307DA
:101DB4009A0313152A005695084178003400500000
:0C1DC400050AEA97DA978C439933C1B7FF
:101DD00097010020938101231761002013018122C4
:101DE00017F5FFFF130545229705002093858521F0
:101DF000171600201306C6FD63FAC50083220500EE
:101E000023A0550011059105E3EAC5FE17950100D1
:101E10001305C5FD971500209385C5FB17160020F7
:101E20001306465B63FAC5008322050023A0550014
:101E300011059105E3EAC5FE171500201305855924
:101E4000974500209385857D6377B50023200500A5
:101E50001105E36DB5FEFD42739002BC8D42739097
:101E60004280B722000093828288739002309702EA
:101E700000209382221993E2320073905230371778
:101E80000040930770052300F704930780FA2300AE
:101E9000F7040F1000003C47B70600FAE116F58F73
:101EA000B70600069506D58F3CC79732000093828F
:101EB000C254739012346FC0A4147300203039716F
:101EC00001436EC619A0397141536AC866CA62CC13
:101ED0005ECE19A0397101535AD056D252D44ED683
:101EE0004AD826DA22DC06DE3301614082824111C3
:101EF0004AC026C222C406C68282B24D4101024DAA
:101F0000924C224CB24B4101024B924A224AB249B6
:101F10004101024992442244B240410182803D4342
:101F20002A876373C3029377F700BDEFADE593761D
:101F300006FF3D8ABA960CC34CC30CC74CC7410779
:101F4000E36BD7FE11E28280B306C3408A06970294
:101F5000000096966780A6002307B700A306B70087
:101F60002306B700A305B7002305B700A304B700F5
:101F70002304B700A303B7002303B700A302B700ED
:101F80002302B700A301B7002301B700A300B700E5
:101F90002300B700828093F5F50F93968500D58DC9
:101FA00093960501D58D61B793962700970200009F
:101FB00096968682E78086FA9680C1171D8F3E9698
:101FC000E374C3F8A5B73367B500FD530D8B79E70C
:101FD000B7877F7F9387F7F710419441B372F6007C
:101FE0003363F600BE92B3E262006397720C63182B
:101FF000D6065041D441B372F6003363F600BE9268
:10200000B3E262006398720A631BD60410459445DC
:10201000B372F6003363F600BE92B3E262006391DE
:10202000720A631ED6025045D445B372F60033637C
:10203000F600BE92B3E26200639A72086311D602A0
:1020400010499449B372F6003363F600BE92B3E2CE
:102050006200639372085105D105E30FD6F613179A
:10206000060193970601631CF7001357060193D7E7
:1020700006013305F7409375F50F91E9828041839E
:10208000C1833305F7409375F50F91E18280137793
:10209000F70F93F7F70F3305F740828003460500EB
:1020A00083C60500050585056313D60065FA33056B
:1020B000D640828011059105E312D6FE014582804B
:1020C0002105A105E31CD6FC014582803105B1053F
:1020D000E316D6FC014582804105C105E310D6FC1C
:1020E00001458280B717004003C777051377E70FD4
:1020F000A38BE704130700F8A38DE7043D47238C67
:10210000E70413075003A38CE7048280B71700404D
:1021100083C7E7020D8993F7C70FC98F7327008024
:10212000218B971600209386E62A19CB732700800F
:10213000171600202320E62A98425D9B7310078023
:102140000F10000037170040130670052300C70466
:10215000130680FA2300C7040F1000002307F702BC
:1021600023000704732700809C42A18BD98F7390B2
:1021700007809717002023AF07240F1000008280EC
:1021800041112A83014E930E407E130F0019930FC5
:10219000400663EE6E149308001913034006B378EB
:1021A0001503854E0D4FA14F337365020D8913350D
:1021B000150063E8BE161308F6FF794672984208C8
:1021C000135808013307C70213D61700BE0732970A
:1021D0006146B3F6C60213068070B386C602369710
:1021E000A166F58F42075D8FB716004083C7F602E0
:1021F00093F70708A307F1000346F10083C7F6022F
:1022000093F70708E394C7FE8347F100B716004031
:1022100093F7F70F63810716F3270080A18B9716BA
:1022200000209386261B639E07140F100000B7172B
:102230000040130670052380C704130680FA23802C
:10224000C7040F10000023AA070303C61703136671
:102250000608A388C70223800704732600809C42D7
:10226000A18BD18F739007809717002023A40716A6
:102270000F1000001166B71500407D16DC59C85DCF
:10228000A98FF18FE5FFF3270080A18B99CBF3276E
:10229000008017160020232FF6129C42DD9B7390BE
:1022A00007800F100000B717004013067005238049
:1022B000C704130680FA2380C7040F100000D8DB80
:1022C00003C7170313670704A388E70223800704E3
:1022D000732700809C42A18BD98F7390078097173A
:1022E000002023A9070E0F100000410182807D13FA
:1022F0003368E3039308E016630E08003368F303C2
:102300009308D016630808009378330093B8180038
:102310009388D81633081E01131E0801135E0E01A0
:102320008DBD6393E5030548638608000148630398
:1023300003002A8871087298FD15131E0801C20552
:10234000135E0E01C181B5B513F8150063F4BF002B
:102350007908D5B713381800E5BF83C7F60293F79D
:102360000708A307F1000346F10083C7F60293F7BD
:102370000708E394C7FE8347F10093F7F70FF1DFF7
:1023800061BDF3270080171600202325F6049C4228
:10239000DD9B7390078051BD5971E2C486D6A2D4EB
:1023A000A6D2CAD0CECED2CCD6CADAC8DEC6E6C253
:1023B000EAC06EDE2A8C02D6EF00D028F327008018
:1023C000A18B171D0020130DED0081CFF327008096
:1023D000171700202320F70083270D00DD9B739043
:1023E00007800F100000B717004013077005238007
:1023F000E704130780FA2380E7040F10000003C7E7
:10240000F7021377770FA387E70203C7F702136773
:102410008700A387E70223800704732700808327B0
:102420000D00A18BD98F739007809717002023A3ED
:1024300007FA0F100000F3270080A18B81CFF3274C
:102440000080171700202327F7F883270D00DD9B56
:10245000739007800F100000B71700401307700536
:102460002380E704130780FA2380E7040F1000009D
:1024700003C7E7021377C70F2387E70203C7E70203
:10248000136717002387E702238007047327008060
:1024900083270D00A18BD98F739007809717002099
:1024A00023AA07F20F100000130780C13347E5028B
:1024B0009169938709E8130650023D69B7440F00FC
:1024C00093840424856B130BA004014A814A1304EE
:1024D0007005FD19B347F5023307C7023EC29307E3
:1024E00009A61309803E3347F7023AC43347250350
:1024F00005493319890113593940334595029384AD
:102500000BFAB3948401811B3306C702B346F6026B
:102510003309E90236C6330B670313076055B3046A
:102520009502130500103309E902B346FB02130BB1
:1025300080FAB3C4A40236C8B347F90293963400B4
:102540003719004036CC930409043ECA7326008034
:10255000218A01CE732600809717002023ACC7E69E
:1025600003260D005D9A731006800F10000093077C
:1025700070052380F400238064010F1000000346DF
:1025800039051376860FA309C90403463905136676
:102590001600A309C90423800400732500800326C4
:1025A0000D00218A498E731006809717002023A3FF
:1025B00007E20F100000916CE17D73260080218AF4
:1025C00001CE732600809717002023A5C7E00326BD
:1025D0000D005D9A731006800F10000093077005C0
:1025E0002380F400238064010F10000003463905A6
:1025F00013660602A309C90403560905336696014A
:102600002318C904035609053366B6014206418200
:102610002318C904238004007325008003260D00BD
:10262000218A498E731006809717002023A407DAA9
:102630000F1000000346390513760602630E0616D6
:1026400003463905218A6DDE6810EF00D00373263A
:102650000080218A01CE732600809717002023ABCB
:10266000C7D603260D005D9A731006800F10000078
:1026700023808400238064010F1000000346390585
:102680001376F60DA309C90403463905136606023D
:10269000A309C90403560905336696012318C90422
:1026A000035609053366B601420641822318C90460
:1026B000238004007325008003260D00218A498EA3
:1026C000731006809717002023A607D00F10000074
:1026D0000346390513760602630E061003463905D4
:1026E000218A6DFE97000020E780209E2A8632CE48
:1026F00097000020E780609D7246E30AC5FE0356FE
:1027000009053255336696012318C904692F03461B
:102710003905218A6DDE03550905034629059247CF
:1027200033F5A9003386C90232951D8DA24763D5C2
:10273000A700B247634EF50E0946636D560FC247B8
:10274000850A1316150093FAFA0F3346F602635200
:10275000A03E050609453346A6027325008021895F
:1027600001CD732500809717002023A5A7C6032558
:102770000D005D99731005800F1000002380840008
:10278000238064010F1000000355C9022A964206F7
:1027900041822316C902238004007325008003268A
:1027A0000D00218A498E731006809717002023A3FD
:1027B00007C20F10000011B573260080218A01CED8
:1027C000732600809717002023A6C7C003260D009C
:1027D0005D9A731006800F10000023808400238010
:1027E00064010F1000000346390513660602A309B1
:1027F000C9040DB573260080218A01CE732600809E
:102800009717002023A8C7BC03260D005D9A7310FC
:1028100006800F10000023808400238064010F10C5
:1028200000000346390513660602A309C90449B529
:10283000E3870AF073260080218A01CE7326008088
:102840009717002023A8C7B803260D005D9A7310C0
:1028500006800F10000023808400238064010F1085
:102860000000034639051375FC0F1376860FA30984
:10287000C90403463905498EA309C904238004000D
:102880007328008003260D00218A33660601731029
:1028900006809717002023AF07B20F1000000346F1
:1028A00039051D8A6319862973260080218A01CE85
:1028B000732600809717002023AEC7B003260D00B3
:1028C0005D9A731006800F1000002380840023801F
:1028D00064010F1000000346390511651376F60DEB
:1028E000A309C9040346390513660602A309C904EE
:1028F00003560905498E2318C904035609052165A5
:10290000498E2318C9042380040073250080032600
:102910000D00218A498E731006809717002023AB83
:1029200007AA0F1000000346390513760602630E4E
:10293000062203463905218A6DDE6810A923732615
:102940000080218A01CE732600809717002023A3E0
:10295000C7A803260D005D9A731006800F100000B3
:1029600023808400238064010F1000000346390592
:1029700011651376F60DA309C904034639051366DC
:102980000602A309C90403560905498E2318C90480
:10299000035609052165498E2318C90423800400C4
:1029A0007325008003260D00218A498E731006804E
:1029B0009717002023A007A20F1000000346390537
:1029C000137606026301061E03463905218A6DFE51
:1029D00097F0FF1FE780606FAA8C97F0FF1FE780DA
:1029E000C06EE30C95FF035609051165498E3255FB
:1029F0002318C9044D2903463905218A6DDE732643
:102A00000080218A171500201305C59C19CA73265A
:102A100000809717002023AFC79A10415D9A73106A
:102A200006800F10000023808400238064010F10B3
:102A30000000034639051376F60DA309C904238067
:102A40000400732800801041218A33660601731048
:102A500006809717002023AF07960F100000035839
:102A6000090503462905E24733F809013386C902FF
:102A700032983308F8401306800C3306C802D24758
:102A80003346F602635F0015050609483346060320
:102A9000635BC0140358C9029308F00F1358580021
:102AA000329863D608210946637F4619F3270080D0
:102AB000A18B99CBF327008017170020232CF790C8
:102AC0001C41DD9B739007800F10000037170040FA
:102AD000930770052300F704930780FA2300F70497
:102AE0000F1000008356C70289678117D58FC20770
:102AF000C1832316F70223000704732700801C41BB
:102B0000A18BD98F739007809717002023A4078C7F
:102B10000F100000B650265496540659F649664ADE
:102B2000D64A464BB64B264C964C064DF25D656137
:102B300082807D1605B173260080218A01CE73261E
:102B400000809717002023A7C78803260D005D9AF1
:102B5000731006800F10000023808400238064011E
:102B60000F1000000346390539B373260080218A0F
:102B700001CE732600809717002023ADC78403265B
:102B80000D005D9A731006800F10000023808400F2
:102B9000238064010F100000034639051366060206
:102BA000A309C9048DB373260080218A01CE732640
:102BB00000809717002023AFC78003260D005D9A81
:102BC000731006800F1000002380840023806401AE
:102BD0000F1000000346390513660602A309C90455
:102BE00075BB7D165DB561C60358C902B308C04008
:102BF00013585800635D180B094663764605F327A2
:102C00000080A18B99CBF327008017070020232396
:102C1000F77C1C41DD9B739007800F100000B717F5
:102C20000040130770052380E704130780FA238010
:102C3000E7040F10000003D7C7027D8B2396E7023D
:102C4000238007045DBD73260080218A19CA73267C
:102C500000809707002023AFC77610415D9A73105C
:102C600006800F10000023808400238064010F1071
:102C700000000356C9021376F60F3366760142064A
:102C800041822316C902238004007328008010416A
:102C9000218A33660601731006809707002023AB54
:102CA00007720F100000050A137AFA0F45B0F327D8
:102CB0000080A18B99CBF327008017070020232BDE
:102CC000F7701C41DD9B739007800F100000B71751
:102CD0000040130770052380E704130780FA238060
:102CE000E7040F10000003D7C70216063A96420603
:102CF00041822396C702A9B7914763EEB7021777BF
:102D000001001307A7838A05BA959C41BA97828769
:102D1000B717004003A7470B1345F5FF698F23AA98
:102D2000E70A03A7070B698F23A8E70A03A7070A87
:102D3000798D23A0A70A8280B717004083A6470B8E
:102D40001347F5FFF98E23AAD70A83A6070B558DE3
:102D500023A8A70A83A6070A758F23A0E70A828003
:102D6000B717004003A7470B498F23AAE70A03A719
:102D7000070B1345F5FF45BFB717004083A6470B68
:102D80001347F5FF758F23AAE70A03A7070A598D92
:102D90004DB7B717004003A7470B498FEDB79147D1
:102DA00063EEB702176701001307877A8A05BA95A1
:102DB0009C41BA978287B717004003A7470D134578
:102DC000F5FF698F23AAE70C03A7070D698F23A8D6
:102DD000E70C03A7070C798D23A0A70C8280B717F7
:102DE000004083A6470D1347F5FFF98E23AAD70CA1
:102DF00083A6070D558D23A8A70C83A6070C758FF6
:102E000023A0E70C8280B717004003A7470D498F26
:102E100023AAE70C03A7070D1345F5FF45BFB71716
:102E2000004083A6470D1347F5FF758F23AAE70CD3
:102E300003A7070C598D4DB7B717004003A7470DDF
:102E4000498FEDB7B717004003D587004205418190
:102E50009377050491EB9377F5013755E801130556
:102E600005803345F50282809377050C1307000433
:102E70006397E7009377F50137459C1CCDB7216533
:102E8000130505D0828037E700E01C435443A1833B
:102E9000E206D58F1CC1FD572320F7182322F7180F
:102EA0000F100000828013178500B7E700E023A011
:102EB000E710618123A2A7108280B7F700E088475E
:102EC000CC478280814737370040A14663C4C700A2
:102ED000328582800345B740E38EA6FE3385F50038
:102EE0000345050085072304A740CDB797070020B9
:102EF0009387C74A9C4317370020130727723E95D4
:102F0000636EE500175700201307C7EF6368A7003B
:102F1000170700202324A7483E858280FD57EDBF78
:102F2000411122C406C62A84313F2947B307E5026E
:102F3000B2408D83B3D7870222449507B3D7E70207
:102F400037370040C207C1832316F7404101828012
:102F5000716541111305052006C6D937B737004002
:102F6000130770F82381E7400D47A381E74013075B
:102F70000004A380E74005472387E740B2404101B2
:102F800082802D4559EF03C5050009476317E50801
:102F900003A84500411106C60347180032850346C1
:102FA000080022074168518F930828FE6308170321
:102FB00063E9E80005186303070523900600294527
:102FC0001DA8130648FE630BC7021518E31707FF79
:102FD00015463E87637BF602154705A83E8691C3DA
:102FE0000546B7E70400FC472390C6004206CC45DF
:102FF000418282970145B240410182801306700FE1
:103000003E876374F6001307700FB7E70400239040
:10301000E600FC4713160701D9BF239006000545BB
:1030200082808280416779176304E504411122C4DC
:1030300006C685472A84639FF500B7E7040022850A
:103040002244B24003A387139705002093850539D6
:103050004101028389476399F500B7E7040083A71C
:10306000070B8545829771D9B24022444101828085
:103070008280797122D452CC2E842A8A97650100ED
:103080009385854F176501001305C55006D63AC6CE
:1030900026D24AD0B68432894ECEEF50610EA68534
:1030A0001765010013050550EF50810D2945EF50BC
:1030B00061118347840093F70702F1E38349040019
:1030C0008947054532476396F908544083C716007F
:1030D00083C60600A207D58FC166138616FE638CD1
:1030E000C7028D16638FD7068D6693862690294575
:1030F0006391D706B7E70400A285225403A34714BF
:10310000B250F249A6864A86925402595285624AC2
:103110008547456102832D450DEF9307700F3545B7
:1031200063E99702B7E70400FC4748441306700FB1
:10313000CA8582978149970700209387E72A9C4395
:10314000014581CB9C4391C74E852686CA858297CF
:103150000145B250225492540259F249624A4561E3
:1031600082802D457DF7D5473545E3E497FEB7E7E7
:103170000400FC4748445546CA8582976DBF2145E7
:10318000C9BF411122C437E404008327841326C237
:10319000AA84416506C697050020938525247D15E0
:1031A00082978327C40A170500001305E5E7858881
:1031B000829795C0032304132244B2409244970699
:1031C0000020938626D24146C545170500201305E9
:1031D00065C041010283B24022449244014541014D
:1031E000828019C59707002023A0A720014582806F
:1031F0004545828011476368A70A97660100938658
:1032000066360A0536951841411106C63697AE87CF
:10321000B28502871307700F6145639DE700B7E72A
:103220000400FC471306700F170500201305052145
:1032300082970145B2404101828005476145E39B89
:10324000E7FEB7E70400FC47054617050020130515
:10325000A518F9BF55476145E39EE7FCB7E70400B1
:10326000FC475546170500201305C52CD1B7130799
:10327000700F6145E390E7FCB7E70400FC471306D5
:10328000700F170500201305652C5DB715476145C4
:10329000E392E7FAB7E70400FC471546170500205C
:1032A0001305051471B709458280411126C2B7E4A0
:1032B000040083A7C41322C44AC006C62E849705FF
:1032C00000209385A5112A898297058905C597074E
:1032D0000020938727B083D7A70BA28503A3440DB3
:1032E0002310F4002244B24092444A850249014628
:1032F00041010283B24022449244024949454101BE
:103300008280970700202383070E9707002023A1C0
:10331000070EB717004003A7070CB706C0FFFD163E
:10332000758F23A0E70C03A7070DB7064000558F44
:1033300023A8E70C03A7070C3D9B23A0E70C03A7DA
:10334000070D1367070123A8E70C82809707002069
:1033500023A0A70AB7E7040003A3870513064006C6
:103360008945170500200345E5080283B71700408B
:1033700003A5470C83A7470C598113451500C18B42
:10338000058999E3136525009707002083C7070681
:103390006380A70297070020238AA70411C9970713
:1033A00000209387E70403A307006303030002835D
:1033B000828011456FE05FFE411193962500AA853A
:1033C0002D4506C697F0FF1FE7804035B240014506
:1033D00041018280411126C29394250022C44AC033
:1033E0002A843289A686AA850146254506C697F015
:1033F000FF1FE780A032A6864A86A285294597F05E
:10340000FF1FE780A031B2402244924402490145A7
:1034100041018280011122CC06CE3714004026CA19
:103420004AC84EC652C483447405034AB40583494E
:10343000840503499405EFE0FFCA8347A40593F48C
:10344000F40F137AFA0F93E71700230DF40493F99E
:10345000F90F1379F90FB717004003C7A705058BBC
:103460006DFF03D5C705A38D4705238C3705A38CB6
:103470002705A38B9704F2406244D2444249B249E3
:10348000224A0561828041119397050122C406C634
:1034900026C2C1872E8463DC0700B7E40400FC5415
:1034A000829719C1BC5482972165218D3DA093F765
:1034B000150013C5150095E393F7250085C77D35E5
:1034C000B7E70400BC4F1306000A89451705002022
:1034D000034545F2829713452400B24022449244AA
:1034E000410182809397250163D50702B7E4040068
:1034F00083A7C41E8297753DBC4C37F602001306A5
:1035000006E08965170500200345C5EE8297096529
:1035100069BF939715010145E3D107FC17650100C9
:103520001305050FEF40915AB7E70400BC4F13068F
:1035300000649165170500200345C5EB829711656E
:10354000ADB71D71A2CC37E404005C5C485886CE50
:1035500049469765010093852507829701E917651C
:1035600001001305A507EF40715601A0B7F600E072
:10357000795798CAFD57DCCA0567B7E700E023A072
:10358000E7101306F00290C223A0E7180F10000006
:103590003C441306C00381454808829797170020D2
:1035A000938747E33ECA8967938707BD231CF100D1
:1035B000B5472304F102A167938707E03ECEB70722
:1035C0000105938707103ED09307B00F2312F10235
:1035D00085472303F10297070000938727DEBEC4C7
:1035E00097070000938747DFBEC68567938717D08C
:1035F0002315F102970700009387678C3EDAB7F531
:10360000070097070000938727E13EDE8146970772
:103610000000938747DA7000E1051945BEC097F0B6
:10362000FF1FE780A00F58088147994670003E961B
:103630000346060085070507A30CC700E398D7FEDD
:10364000D24791C70357810185676373F70001A0D3
:10365000B7E7040083A7470A48088297AA8501C9EB
:10366000176501001305C5F8EF40913101A0F64040
:10367000664425618280411126C2B7E4040083A715
:10368000040806C622C417050000130505E082974A
:1036900017040020130404D62300A4003128953118
:1036A00003450400224403A38405B2409244130658
:1036B0000032896541010283411106C6F32700806B
:1036C000A18B170700201307E7D099CBF3270080C1
:1036D0009706002023A0F6D01C43DD9B7390078043
:1036E0000F100000B7170040930670052380D70421
:1036F000930680FA2380D7040F10000083C6F702D8
:1037000093F6A60FA387D70223800704F326008031
:103710001C43A18BD58F739007809707002023ABA4
:1037200007CA0F100000F3270080A18B99CBF32765
:1037300000809706002023AFF6C81C43DD9B7390E2
:1037400007800F100000B717004093067005238014
:10375000D704930680FA2380D7040F10000083C695
:10376000F70293E62600A387D70223800704F326F7
:1037700000801C43A18BD58F739007809707002092
:1037800023AA07C40F1000000545EFE03F9815314C
:1037900081471305407E0147814605468545EFE098
:1037A0003F9EB7E70400B24003A34707014541012C
:1037B00002834111976501009385855117650100CA
:1037C000130545DD06C6EF40B11B17650100130563
:1037D000A568EF40F11AB240294541016F40911EA2
:1037E0004111976501009385E54F176501001305A9
:1037F00065DA06C6EF40D118176501001305856428
:10380000EF401118B240294541016F40B11B4111F1
:1038100022C406C6834705002A849DC3976501001C
:1038200093850552176501001305C5D6EF40511564
:103830004C401765010013056570EF4071141DA021
:1038400058411DE7976501009385854F1765010075
:10385000130545D4EF40D112176501001305856F9C
:10386000EF4011122244B240294541016F409115A9
:10387000A1679386D7036311D702976501009385EB
:10388000254C176501001305E5D0EF40710F176552
:1038900001001305256DE9B7ED07976501009385D4
:1038A000254A176501001305E5CE6319F700EF40BF
:1038B000310D176501001305256C5DB7EF40510C04
:1038C0004C40176501001305256D85BF41119765B3
:1038D000010093856542176501001305A5CB06C657
:1038E000EF40110AB240294541016F40B10D797195
:1038F00022D426D24AD02E842A898145B284480017
:10390000714606D6EFE0AFE197F7FF1F9387C77CBC
:10391000DC4783D70700231421012313F100EF10A4
:10392000F0779547A305F1009307401F3EC6FD576A
:103930002305A100230AF100EF2080082686A28536
:103940004800EF109078B2502254925402594561C9
:103950008280011122CC976501009385E5422A847B
:1039600017650100130505C306CEEF407101A2855E
:103970001775010013050589EF4091002945EF40B7
:103980007104970700209387E7A39843DC434165C0
:1039900021462C007D153EC63AC4913F9377F50F22
:1039A0009DC72A84976501009385053E1765010030
:1039B000130545BEEF40C17C9375F40F17650100F8
:1039C00013058560EF40C17B2945EF40A17FF240A0
:1039D000624405618280411106C617170020034723
:1039E00067869307F00A631FF7009307F00889457D
:1039F0001715002013050585171700202314F784D9
:103A0000EF203007EF201017814537050400970796
:103A1000002023A107A097070020239A079E97075D
:103A200000202387079E970700202390079E970773
:103A30000020239B079C970700202399079C97074A
:103A40000020239B079CEF10F0260145EF20300952
:103A5000976501009385C52C17650100130585B393
:103A6000EF400172176501001305C557EF40417122
:103A7000B240294541016F40E174411122C406C69C
:103A800026C293F715002E846387070E814617F62A
:103A9000FF1F1306E661854517050020035585962F
:103AA000EF70104E05C597650100938525281765B1
:103AB0000100130525AEEF40A16C17650100130549
:103AC000A5C3EF40E16B2945EF40C16F9765010049
:103AD0009385C525176501001305C5ABEF40416A05
:103AE00017650100130585C2EF4081692945EF4044
:103AF000616D17F5FF1F1305255E5C450547239093
:103B0000E700EFE0006697650100938525221765C1
:103B10000100130525A8EF40A166176501001305F4
:103B200025C0EF40E1652945EF40C169930710F8D2
:103B3000170700202308F7709707002083D7478CCA
:103B400017070020A300F770170500201305856FE5
:103B5000A1839145170700202307F76E97070020E0
:103B6000A383076EEF20E07013451400B240224497
:103B700092444101828093F72500D5C717070020A2
:103B80000357E78851CF970600209386A688944272
:103B9000976701009387074717060020034646876B
:103BA00081451715002013052581EF30B04AAA84FE
:103BB00025C9976501009385E51E1765010013056A
:103BC000659DEF40E15BA685176501001305C5B64D
:103BD000EF40015B2945EF40E15E97070020239805
:103BE0000782930710F817070020230DF764970743
:103BF000002083D7E78017070020A305F764A1837F
:103C0000170700202301F76491458D471705002011
:103C10001305456317070020A307F762EF206065CF
:103C200013452400A1B793F74500A5CB9765010084
:103C300093854517176501001305C595EF4041545D
:103C400017650100130505B1EF4081532945EF4089
:103C50006157930720F8170700202305F75E97F7B1
:103C6000FF1F83D7877A17070020A30DF75CA18376
:103C7000170700202309F75C854717070020A304D6
:103C8000F75CEF10F053170500201305A55B914575
:103C9000EF20205E13454400D1BD93F785008DCF02
:103CA0009765010093850510176501001305858E42
:103CB000EF40014D17650100130505ABEF40414C86
:103CC0002945EF40215097F7FF1F23920774EF30EB
:103CD00050451345840059BD93F70501A5CB854593
:103CE00017F5FF1F03556572EF00C11697650100B8
:103CF0009385450B176501001305C589EF404148C1
:103D000017650100130585A7EF4081472945EF405E
:103D1000614B930730F8170700202305F75297F7F8
:103D2000FF1F83D7876E17070020A30DF7501705D5
:103D3000002013052551A1838D451707002023047A
:103D4000F750EF200053134504010DB593F705021A
:103D5000A5CF976501009385E5041765010013055C
:103D60006583EF40E14117650100130565A3EF404E
:103D700021412945EF400145930740F817070020EE
:103D80002302F74C97F7FF1F83D707681707002018
:103D9000A30AF74AA183170700202306F74A85479D
:103DA00017070020A301F74A97F7FF1F239E076418
:103DB000EF101041170500201305C5489145EF206D
:103DC000404B134504025DB393F70504E9CB9765B7
:103DD0000100938525FD175501001305A57BEF40D4
:103DE000213A176501001305259DEF4061392945EA
:103DF000EF40413D9707002083C7C7441307700A6F
:103E00006382E7061307800A6388E7081307600ADE
:103E10006391E704930720F8170700202304F74273
:103E200097F7FF1F83D7875E17070020A30CF74083
:103E3000A183170700202308F740854717070020B4
:103E4000A307F740B145170500201305A53FEF2054
:103E50004042EF10F0361345040497F7FF1F2397F5
:103E6000075A29B3930770F817070020230CF73C73
:103E700097F7FF1F83D7875917070020A304F73C44
:103E8000A183170700202300F73C85471707002070
:103E9000A30CF73A994545BF930780F8F1B793F71C
:103EA00005080145E38407CC97650100938585EFFC
:103EB000175501001305056EEF40812C17650100B1
:103EC00013050591EF40C12B2945EF40A12F930722
:103ED000A0F8170700202307F73697F7FF1F83D7AF
:103EE000A75317070020A30FF734A183170700205B
:103EF000230BF734854717070020A306F73497F7FD
:103F0000FF1F239B0750EF10B02B17050020130550
:103F100065339145EF20E0351345040881B941111F
:103F200022C4976501009385E5E22A8417550100B4
:103F30001305456606C6EF40A1244C4017650100F5
:103F4000130545FDEF40C1232945EF40A127034755
:103F500004009307F00F6319F7029765010093853A
:103F600065DF175501001305E562EF4061214C4004
:103F700017650100130505FBEF4081202244B24084
:103F8000294541016F400124B24022444101828011
:103F900085CD411122C4175501001305A55F2E845C
:103FA00097650100938505D606C6EF40611DA28581
:103FB0001765010013054502EF40811C2244B24001
:103FC000294541016F4001208280411122C426C24F
:103FD0002E84AA8497650100938585D31755010027
:103FE0001305455B06C6EF40A1192945EF40811D29
:103FF00097F7FF1F2398974097F7FF1F239287405B
:10400000854785453705040017F7FF1F231BF73E3B
:10401000EF10404A0545EF20802C97F7FF1F93874C
:10402000A70BDC4703D70700C167FD176312F70230
:104030002244B7E70400B240924403A3870517F572
:10404000FF1F0345A53B1306000A85454101028376
:10405000B2402244924441018280011122CC37E4D3
:1040600004005C5C06CE354697650100938505E04B
:10407000176501001305C53A829701E9175501003C
:104080001305C555EF40812401A097F7FF1F9387C3
:10409000675B3EC4B7F507008567938707C0814615
:1040A0000A86E10519453EC697E0FF1FE7800067D5
:1040B0007C4419468A851705002013052529829717
:1040C00034000A86976501009385C5F917650100DC
:1040D0001305C5FAEF3080502A840DC99765010099
:1040E000938545CB175501001305C54AEF4041099B
:1040F000A28517650100130565D8EF4061082945C1
:10410000EF40410CF240624405618280EF90E0662E
:1041100017650100130585CDEF20806CEF60C05559
:10412000EFF0107C17F5FF1F1305C5F7EFF0F068EF
:1041300017650100130585CCEFF0507C2A84EF2031
:10414000F046EFB0F019EF20A11BEF30B062EF3076
:104150002026EFD0507E976501009385A5C31755A3
:1041600001001305254309C8EF408101A2851765A9
:1041700001001305E5D251B7EF408100176501003A
:10418000130545D4EF30D17F2945EF40A103EFD08F
:10419000F060EFA0B00331C9854537050400EF108A
:1041A0006031976501009385E5BE17550100130541
:1041B000653EEF30F17C17650100130525D2EF3025
:1041C000317C2945EF40010097650100938585BC4E
:1041D000175501001305053CEF30917A1765010072
:1041E000130505D2EF30D17919BF81453705040099
:1041F000EF10402C976501009385C5B91755010054
:1042000013054539EF30D17717650100130585DDBA
:10421000EF3011772945EF30F17A0145EF20200C7E
:1042200065B7411122C437E404008327041A06C687
:104230008297EF1010648327040817050000130508
:104240000584829797F7FF1F238AA71A17F5FF1F88
:10425000130585E8EF1090230935EFF08F8A22448B
:10426000B24017F5FFFF1305056F41016FF00F8E88
:10427000411122C4170400201304C40A26C2228656
:10428000AA8491469D652D4506C697E0FF1FE780ED
:10429000E0489306001001469D65254597E0FF1F05
:1042A000E780C0472286230094002244B240924413
:1042B00091469D652945410117E3FF1F67000346AD
:1042C000B7E704001171FC47CED797090020938906
:1042D00069F7A2DDCAD986DFA6DB2E8432892E8655
:1042E000AA854E85829783C70900130780029387AA
:1042F000E70793F7F70F6364F77E1757010013077B
:1043000067318A07BA979C43BA9782878D4797652A
:104310000100938565AA175501001305A527630BB6
:10432000F400EF30F165175501001305E566EF3035
:10433000316539A4EF30D164175501001305456785
:10434000EF3011642945EF30F167930720F81146EB
:1043500097050020938505EF4A8517070020230362
:10436000F7EE97070020A38007EEEFF04FD82A84DE
:104370000DC597650100938525A417550100130508
:104380006521EF30F15FA285175501001305056621
:10439000EF30115F2945EF30F16297650100938599
:1043A000A5A1175501001305E51EEF30715D1755E6
:1043B00001001305E564EF30B15C2945EF309160F1
:1043C0004165930730FA054697050020938585E7F8
:1043D0007D15170700202307F7E6EFF04FD12A8459
:1043E0000DC5976501009385259D1755010013059F
:1043F000651AEF30F158A285175501001305055FC6
:10440000EF3011582945EF30F15BB7E70400BC4F9E
:104410000566130606C8A14517F5FF1F034505FEEF
:104420008297FE506E54DE544E59BE5911618280FF
:1044300091476301F402976501009385E59717554D
:10444000010013052515EF30B15317550100130571
:10445000655EF1BDB7E70400FC4F914517F5FF1FFE
:104460000345C5F98297976501009385E594175533
:10447000010013052512EF30B15017550100130547
:10448000255DEF30F14F2945EF30D153EF10405308
:104490009145F5A285476301F40297650100938574
:1044A000A591175501001305E50EEF30714D175515
:1044B00001001305655BA5BD97F7FF1F239727F53F
:1044C000B7E704000566BC4F130606C8C145A9B787
:1044D0008D476301F402976501009385E58D1755BB
:1044E00001001305250BEF30B149175501001305E5
:1044F000655935BD930740F811469705002093850F
:1045000065D44A8517070020230EF7D297070020AD
:10451000A38B07D2EFF0AFBD2A84E30405F09765C3
:10452000010093856589175501001305A506EF3035
:104530003145A285175501001305454BEF30514415
:104540002945EF303148F1BD9147E316F4F8B7E75C
:104550000400FC4F9305000217F5FF1F034505EA11
:1045600082979765010093852585175501001305EE
:104570006502EF30F140175501001305255211B7C0
:10458000894763E18702976501009385E5821755A6
:10459000010013052500EF30B13E1755010013054A
:1045A000255171B39704002083C4E4C99707002004
:1045B00083C757C99765010093850580A2041755E5
:1045C0000100130525FDDD8CEF30913BA2851755C9
:1045D00001001305254FEF30B13AC2042945EF30F1
:1045E000713EC1849305D4FF93960401C1824A862B
:1045F00093F5F50F170500201305F5C4EF00106FB4
:10460000E35190E2930750F817070020230CF7C2FC
:1046100083C739002286970500209385A5C28507A8
:104620004A8517070020A300F7C2EFF04FAC2A8499
:10463000E30905DE975501009385057817550100BC
:10464000130545F5EF30D133A28517650100130539
:10465000A597EDB5894763E18702975501009385DA
:10466000A575175501001305E5F2EF3071311755A7
:1046700001001305E54665B9EF108034A2851705E2
:104680000020130525BCEF10D03E61BB8D476301B0
:10469000F402975501009385257217550100130503
:1046A00065EFEF30F12D175501001305254541B198
:1046B000B76602000146B7750200054597E0FF1F87
:1046C000E780C005930760F817070020230CF7B6B2
:1046D00097070020A38907B6930700261707002035
:1046E0002324F7B6E1779387073117070020231FAC
:1046F000F7B4314697070020A38BA7B49705002095
:10470000938545B44A8597070020238207B4EFF0CC
:104710000F9E2A84E30705D0975501009385C5694C
:1047200017550100130505E7EF309125A2851755B0
:1047300001001305253E19B5B1476301F4029755F1
:10474000010093856567175501001305A5E4EF3057
:104750003123175501001305A53DD1BEB7E704006D
:10476000FC4F9305000417F5FF1F034525C98297E9
:10477000EF100025B14521B7914763E187029755B6
:10478000010093856563175501001305A5E0EF301F
:10479000311F175501001305653B51BE97040020DA
:1047A00083C484AA9707002083C7F7A9A204DD8CDD
:1047B0008E04B76702006D14BE942286A685175535
:1047C00001001305E539EF30B11BB7E70400FC47E2
:1047D000228697050020938535A728008297931697
:1047E0000401C1823000A685094597E0FF1FE780DC
:1047F000E0F22A8419C51755010013052538EF305A
:10480000F12C930770F8194697050020938585A32E
:104810004A85170700202307F7A297070020A385E2
:1048200087A2EFF0CF8C2A84E30D05BE97550100D7
:1048300093858558175501001305C5D5EF305114E0
:10484000A2851755010013056534CDB99947630D4D
:10485000F41097550100938525561755010013054F
:1048600065D3EF30F111175501001305A533C1B41D
:10487000914763E18702975501009385E5531755EA
:104880000100130525D1EF30B10F175501001305B5
:10489000E53271BC9704002083C4049B9707002075
:1048A00083C7779AA204DD8C8E04B76702006D146B
:1048B000BE942286A6851755010013056531EF3099
:1048C000310CB7E70400FC4722869705002093854A
:1048D000B5972800829793160401C1823000A685FF
:1048E0000D4597E0FF1FE78060E32A8419C517553F
:1048F00001001305A52FEF30711D930780F81946AD
:1049000097050020938505944A8517070020230BFF
:10491000F79297070020A3898792EFE05FFD2A8432
:10492000E30105B09755010093850549175501002E
:10493000130545C6EF30D104A285175501001305B4
:10494000252CEDBE99476301F4029755010093852C
:10495000A546175501001305E5C3EF307102175541
:1049600001001305652BE1B2B7E70400FC4F930586
:10497000000417F5FF1F034565A88297EF10400458
:104980009945F5B98D476301F40297550100938568
:10499000A542175501001305E5BFEF30617E17559D
:1049A00001001305E52861B21755010013054529DB
:1049B000EF30D1110145EFE00FCD0D45EFF05F8BEA
:1049C000294597E0FF1FE78080C497E0FF1FE7803D
:1049D00020AE81BC99476301F4029755010093858D
:1049E000A53D175501001305E5BAEF30617917555C
:1049F00001001305A52525BA170700200347D78412
:104A00009707002083C7478422075D8F9166BA9677
:104A1000C2061166C1821306F6EF8D476365D602A2
:104A200097E7FF1F9387476B9C4B170600200346B1
:104A300096819386C70029CE03D6070069C28907ED
:104A4000E39CD7FE89471307A0F8114697F5FF1F8F
:104A50009385457F4A8597F6FF1F2385E67E17F7E6
:104A6000FF1FA302F77EEFE09FE82A84E30B059A7D
:104A7000975501009385453417550100130585B1FD
:104A8000EF300170A285175501001305651D7DB437
:104A900003D607006302E60A8907E39BF6FE8D470B
:104AA0005DB791476302F402975501009385C530C5
:104AB00017550100130505AEEF30816C1755010045
:104AC0001305851B6FF0BF86B7E70400FC4F930505
:104AD000000817F5FF1F03456592829745BA975561
:104AE00001009385652D175501001305A5AAEF3028
:104AF0002169175501001305A5196FF05F832390F5
:104B0000E70017E5FF1F1305255DEFD020679755D8
:104B100001009385652A175501001305A5A7EF30FD
:104B20002166175501001305A517EF30616529456A
:104B3000EF304169814701BF2390070017E5FF1F50
:104B400013058559EFD08063975501009385C526DD
:104B500017550100130505A4EF30816217550100B8
:104B600013058515D9B7411122C406C68347050030
:104B70002A849DC3975501009385051F1755010091
:104B8000130545A1EF30C15F4C40175501001305D7
:104B90006548EF30E15E49A85841B707CF009387D9
:104BA000777D6316F704975501009385E51B17552C
:104BB00001001305259EEF30A15C1C448355C40001
:104BC0008356E40003C60700175501001305054688
:104BD000EF30015B2945EF30E15E0356E400835579
:104BE000C40008442244B24041016FF06FEDB707A2
:104BF000CC009387777D631FF7029755010093855B
:104C0000A516175501001305E598EF3061571C44B0
:104C10008356E4008355C40003C6070017550100FE
:104C20001305C540EF30C1552244B240294541012A
:104C30006F304159B707CE009387777D6302F70243
:104C4000975501009385451217550100130585946A
:104C5000EF3001534C40175501001305E53315BFE4
:104C6000B240224441018280B7E704004111FC4771
:104C700026C297F4FF1F9384E45C2E8606C622C4E6
:104C80002E84AA85268582979755010093858514E1
:104C90001755010013050590EF30814E97F5FF1F62
:104CA00083C5455A17550100130505B4EF30414D32
:104CB0002945EF30215183C704003D4793870706FC
:104CC00093F7F70F636EF76A175701001307C79E34
:104CD0008A07BA979C43BA9782879D476303F40279
:104CE000975501009385050F175501001305858A17
:104CF000EF30014917550100130585AFEF304148EA
:104D0000FDAA97F7FF1F83C7F753D1C797F7FF1F78
:104D100083D7875317F7FF1F0357E752C207D98F6F
:104D200017E7FF1F2328F76E83C76400975501001C
:104D30009385450A175501001305C58517E7FF1F21
:104D40002308F76CEF30C14397E7FF1F9387876C09
:104D50008C4317E6FF1F0346A66B1755010013058A
:104D6000E5AAEF30E1412945EF30C14597F7FF1F34
:104D7000A38A074C2244B2409244930700F817F7E5
:104D8000FF1F2301F74C9D4517F5FF1F1305854BAA
:104D900041016F10004EEF20704497F7FF1F2394DE
:104DA000A74A935705012A8417F7FF1F230EF748D8
:104DB00093578501014517F7FF1FA307F748EF2019
:104DC000B04297F7FF1F2382A748975501009385AC
:104DD0006500174501001305E57BEF30613A17F6D2
:104DE000FF1F03468646A28517550100130585A3BC
:104DF0008DBFCD476301F40297550100938585FD72
:104E00001745010013050579EF308137175501006B
:104E10001305C5A2E5B537E404007C44414697F587
:104E2000FF1F9385354217F5FF1F1305E55882973D
:104E300097F7FF1F83C7274217F7FF1F03479741C5
:104E4000A20703238405D98F17E7FF1F2311F75CFF
:104E50001306000A89452244B240924417E5FF1F19
:104E60000345C559410102838D476301F4029755FB
:104E70000100938525F6174501001305A571EF3054
:104E8000213017550100130525B18DBD17F4FF1F03
:104E90000344643B97F7FF1F83C7D73A9755010038
:104EA000938545F32204174501001305A56E5D8C1B
:104EB000EF30012DA285175501001305A599EF309C
:104EC000212C2945EF3001300D4697F5FF1F9385C2
:104ED00065372285EFE0BFA1AA840DC9975501006F
:104EE000938545EF174501001305C56AEF30412949
:104EF000A6851755010013052597EF306128224438
:104F0000B2409244294541016F30C12B97E7FF1F02
:104F1000239D874EB7E70400116603A38705130698
:104F200006E891450DBF8D476301F40297550100D6
:104F3000938545EA174501001305C565EF30412407
:104F400017550100130505B455BB17F4FF1F0344A3
:104F5000842F97F7FF1F83C7F72E9755010093857E
:104F600065E72204174501001305C5625D8CEF302B
:104F70002121A2851755010013054590EF304120EE
:104F80002945EF3021240D4697F5FF1F9385852B8A
:104F90002285EFE0DF95AA840DC197550100938526
:104FA00065E3174501001305E55EEF30611DA68539
:104FB000175501001305C58D89B797E7FF1F239586
:104FC0008744B7E70400116603A38705130606E8C4
:104FD0009305000249B5894763E1870297550100AF
:104FE000938545DF174501001305C55AEF30411978
:104FF000175501001305C5AB11B397F4FF1F83C408
:10500000842497F7FF1F83C7F723975501009385E3
:1050100065DCA204174501001305C557DD8CEF3090
:105020002116A6851755010013050588EF30411597
:105030002945EF302119228697F5FF1F938585209A
:105040002685EFE0DF8A2A84630B0534975501003B
:10505000938545D8174501001305C553EF3041121C
:10506000A285175501001305658541BD8D47630174
:10507000F402975501009385E5D517450100130506
:105080006551EF30E10F17550100130525A7BDB19C
:1050900017F4FF1F0344241B97F7FF1F83C7971ABA
:1050A00097550100938505D3220417450100130588
:1050B000654E5D8CEF30C10CA285175501001305BC
:1050C0002581EF30E10B2945EF30C10F0D4697F5F3
:1050D000FF1F938525172285EFE07F81AA840DC1EC
:1050E00097550100938505CF174501001305854AA3
:1050F000EF300109A685174501001305A57EF5BB14
:1051000097E7FF1F23948730B7E70400116603A3D6
:105110008705130606E89305000435BB91479755AC
:105120000100938525CB174501001305A54663E9CA
:105130008700EF30E10417550100130525A17DBE5E
:10514000EF300104A285174501001305257BEF30E0
:1051500021032945EF30010797F4FF1F83C4A40EF4
:1051600097F7FF1F83C7170EA204DD8C228697F5E1
:10517000FF1F9385250D2685EFE06FF72A8459C51B
:1051800097550100938505C5174501001305854016
:10519000EF20117FA2851745010013056577B1BB8C
:1051A000914763E18702975501009385A5C2174592
:1051B00001001305253EEF20B17C175501001305B2
:1051C000E59F2DBE97F4FF1F83C4E40797F7FF1FE9
:1051D00083C75707A204DD8C228697F5FF1F9385AE
:1051E00065062685EFE0AFF02A840DC197550100D2
:1051F000938545BE174501001305C539EF20517849
:10520000A285174501001305E571C5B997E7FF1F92
:10521000239E971ED5BD8D476301F402975501006B
:10522000938545BB174501001305C536EF20517521
:10523000175501001305C59FD1B497F7FF1F83C70A
:105240008700A20717F5FF1F0345D5FF0D4697F509
:10525000FF1F938525FF5D8DEFE06FE92A846300D2
:105260000514975501009385E5B617450100130510
:105270006532EF20F170A285174501001305C56B5B
:10528000ADB999476301F40297550100938585B440
:105290001745010013050530EF20916E17550100E9
:1052A0001305C59AA1BC17F4FF1F0344C4F997F76F
:1052B000FF1F83C737F9975501009385A5B12204D5
:1052C000174501001305052D5D8CEF20716BA2853C
:1052D0001745010013054567EF20916A2945EF2026
:1052E000716E194697F5FF1F9385C5F52285EFE08E
:1052F0000FE0AA840DC1975501009385A5AD174510
:10530000010013052529EF20B167A6851745010087
:1053100013058564DDB697E7FF1F239F870EB7E768
:105320000400116603A38705130606E89305000829
:105330001DB68547975501009385C5A917450100FE
:10534000130545256309F400EF209163174501001B
:105350001305C56165B2EF20B16217450100130561
:105360006562EF20F1612945EF20D1652244B2400A
:10537000924497E7FF1F239C070841016F20605A62
:1053800097550100938505A5174501001305852054
:10539000EF20115F175501001305858F85B2B240CC
:1053A0002244924441018280011122CC37E404005E
:1053B0005C5C06CE354697550100938525AB1755A5
:1053C00001001305E505829701E917550100130552
:1053D000E5C7EF20B16F01A08327041C82972AC67E
:1053E000EF104135EF108113EF70606EF2406244B0
:1053F00032450561828041111305800406C697D0AD
:10540000FF1FE78000CE371700408327870A8D45AE
:105410001305002093E707202324F70AEFD0DF8D40
:10542000EFD01FB3B7E70400C85BEF20316A175510
:1054300001001305E5FEEF207169EFE08F90EFE0CA
:105440008FA39D37EFE0FFDD97D0FF1FE78040205F
:10545000014582804111B2862E86AA852D4506C659
:1054600097D0FF1FE780802BB24001454101828029
:10547000AE860146AA85254517D3FF1F6700032A7C
:105480009307000463E6C7021D71A2CC2A840808B2
:1054900086CE32C6EF207143B2461008A285294558
:1054A00097D0FF1FE7808027F64066442561828001
:1054B00039558280411126C2AE848D4522C406C66C
:1054C0002A84EFD0DF8DB717004099C803A5C70C19
:1054D000418D23A6A70CB240224492444101828010
:1054E00003A5870C418D23A4A70CF5B783470500BE
:1054F00003471500A207D98FC2076177C187130739
:1055000027206397E70083452500370504005DB732
:10551000828097E7FF1F938767F018429C4383D6EA
:1055200045000345070083C5C70003564600639640
:10553000A50083D5E700638DD502011106CE238631
:10554000A7002397D700B705CF00DC4B9385757D67
:1055500005077D162EC2230001003AC42316C100A0
:105560002317D10099C30A858297F2400561828092
:105570008280DC4DDC4B81CFB7E70400904503A36C
:105580008705914517E5FF1F034585E90283828062
:105590006D713C083EC6B707E500232291103EC856
:1055A000AA843C083285232611103ECA2324811088
:1055B000232021112E89EF20103C2A8497550100C9
:1055C000938505B1174501001305C5FCEF20513B3C
:1055D000A285175501001305A5BFEF20713A294593
:1055E000EF20513EB705CB009385757D6800EF1025
:1055F000C018A2856800EF20B02D014781467000D9
:10560000CA852685EF10A03715C52A849755010055
:10561000938505AC174501001305C5F7EF205136FA
:10562000A28517550100130565BBEF20713529458B
:10563000EF2051398320C1100324811083244110AD
:10564000032901105161828097E7FF1F938707DDCF
:1056500018429C43797122D406D60348070083C8B8
:1056600007012A8483D64500035546006396080146
:1056700083D82701638DD802238807010507239962
:10568000D7003708CC00DC4B1308787D3ACC1307E1
:10569000F5FF42CA23080100231EE100231FD100A9
:1056A00099C7080832C62EC482973246A245228581
:1056B000C535B2502254456182806D713C083EC0B0
:1056C000B707E5003EC23C083EC423261110232440
:1056D00081102322911023170100231801002319A0
:1056E0000100231A0100231B010097E7FF1F83D746
:1056F000A7A299E3C167FD172316F10097E7FF1FE3
:1057000083D7A7A191EB97E7FF1F938727D19C43EE
:105710009C43DC4783D7070017E4FF1F1304C49F93
:10572000584C2317F10083574400484B2318F100CD
:1057300005ED975501009385A5A0174501001305B8
:1057400065E5EF20F123175501001305A5A0EF2013
:1057500031232945EF2011278320C1100324811014
:10576000832441105161828097E7FF1F83C7379BD5
:1057700089EBB7E70400BC5782975C4C23AA07006B
:10578000E1BFFD1797E6FF1FA38BF69803560701AD
:10579000834704014C470A85230BF100EF20701169
:1057A00097E7FF1F938787C79C430147814688433C
:1057B0000A866C00EF10A01CAA841DC99755010031
:1057C00093850598174501001305C5DCEF20511B93
:1057D000A685175501001305A598EF20711A2945D4
:1057E000EF20511E584CB7E70400BC57484B69B72F
:1057F00097E7FF1F83C7B792F5D7B7E70400BC4F01
:105800001044854517E5FF1F034585C18297A9B759
:105810005C4EDC4BA9CBA1C9411122C41745010044
:10582000130545D72E84975501009385A58F06C68D
:10583000EF201115A285175501001305A594EF203F
:1058400031142945EF201118B7E704002244B24073
:1058500003A3870517E5FF1F034585BC1306400614
:105860009145410102838280411122C417E4FF1F48
:10587000130484881C4C06C689C7DC4399C34C4872
:105880008297584CB7E70400BC57484B82975C4C52
:10589000B240224423AA07004101828017E7FF1F7C
:1058A000130767B1834707009306F00B850793F74B
:1058B000F70F63E9F60097E6FF1F238EF6AE034568
:1058C00007008280930700F8FDB783574500638681
:1058D000070E01114AC817E9FF1F1309E98352C4D3
:1058E000032AC90106CE22CC03274A0126CA4EC686
:1058F00056C2F15721EF1307D00DFD576368C70457
:10590000B7E9040083A709072A8413058600420526
:105910004181B284AE8A8297232AAA000325C90155
:105920005C499DEF974501009385C57D17450100B2
:10593000130545C6EF20D104175501001305C58C8A
:10594000EF2011042945EF20F107DD57F2406244B2
:10595000D2444249B249224A924A3E850561828038
:1059600093874400B705CF002319F5009385757D13
:105970003105EF0090600325C901834564003105BE
:10598000EF2000750325C9012686D6853105EF2055
:1059900040727146A2854A85EF202173504419CA8E
:1059A00083A78905854517E5FF1F034565A78297EE
:1059B000814769BFEFF07FD0E5BFFD573E8582800C
:1059C000411126C297D4FF1F93840475D84C22C47A
:1059D00037E404003C54484B06C68297DC4C032352
:1059E000C4052244B240924423AA070017E5FF1FD2
:1059F000034505A3854541010283411126C297E471
:105A0000FF1F9384A4A19C4006C622C44AC0C1CBF8
:105A1000DC43D1C75CC12300B5002A84974501004F
:105A200093858569174501001305C5B6EF204175BB
:105A30002945EF2021799C4023A4070023A20700D9
:105A400097D7FF1F9387476BDC4FDC4B99C32955D2
:105A5000213D97D7FF1F9387276CDC4FDC4B91C309
:105A6000853737E904008327C905894517E5FF1FF6
:105A70000345059B82978327C905914517E5FF1FBD
:105A80000345059A82979C4003A3470163090300DD
:105A900022852244B2409244024941010283B2402D
:105AA000224492440249410182800111328506CE8E
:105AB00022CC26CA2E84EF20006CAA8497450100D0
:105AC0009385C562174501001305C5ACEF20416BF6
:105AD000030784000356640083554400A6861745D7
:105AE00001001305256CEF20A1692945EF20816D88
:105AF00097D7FF1F83C7A760639897000145EFF012
:105B0000BFD681450A85D53DF2406244D244056145
:105B100082806D712324811023261110232291107D
:105B200093F745002E84638507123C083EC0B707F3
:105B3000E5003EC23C083EC42317010023180100C3
:105B400023190100231A0100231B010097D7FF1F0F
:105B500083D7875A99E3C167FD172316F10097D7BA
:105B6000FF1F83D7875991EB97E7FF1F9387078B19
:105B70009C439C43DC4783D7070017D7FF1F1307BD
:105B8000A7572317F100544F835747002318F100FC
:105B9000DC4A95EF9745010093858559174501002B
:105BA0001305459FEF20C15D174501001305855A78
:105BB000EF20015D2945EF20E1601345440083207B
:105BC000C11003248110832441105161828097D732
:105BD000FF1F83C7D7522555ADCBFD1717D6FF1F23
:105BE000A30FF65003D6060183470701CC460A856A
:105BF000230BF100EF20E04B97E7FF1F938707820D
:105C00009C4317D7FF1F1307274F97560100938612
:105C1000261D88430A866C00EF007056AA8451DD69
:105C2000974501009385C5501745010013058596DA
:105C3000EF200155A6851745010013056552EF2099
:105C400021542945EF2001582685EFF0FFC1B5B753
:105C500093F725009DC3B7E70400BC474146814543
:105C6000280882972555EFF03FC028089305F00FCC
:105C7000EFF0BFD81345240099B793F715000145FD
:105C80009DDFEFF09FA31345140015BF5C4D41113C
:105C900006C688C317D7FF1F2322F778B7E704008B
:105CA00083A70708170500001305E5E68297B240B1
:105CB00097D7FF1F2386A7760145410182802A8658
:105CC000B305B040174501001305C5616F20414B76
:105CD00041119397050122C406C626C2C1872E84AE
:105CE00063D40702B7E40400FC5417D5FF1F034533
:105CF000E56C829719C1BC5482972165218DB24011
:105D0000224492444101828093F715008DC7B7E782
:105D1000040083A7471A17D6FF1F1306E64197050D
:105D200000209385A52B17D5FF1F03452569829772
:105D300013451400E9B793F7250099CFB7E704009E
:105D4000BC4F13060064894517D5FF1F034505673F
:105D500082971345240065B793F785009DC7B7E781
:105D6000040003A8871A1307401F97D7FF1F83C794
:105D7000E764814613064006994517D5FF1F035572
:105D8000E56A0298134584009DBF93F745000145DD
:105D9000BDD7B7E4040083A7041817D5FF1F035528
:105DA000E5688297BC4C0566130606C8914517D571
:105DB000FF1F0345A56082971345440089B7035729
:105DC0004500011106CE22CC97D7FF1F83D7076667
:105DD000631BF704C167F91717D7FF1F2328F76460
:105DE00037E4040097D7FF1F23A407647C4C894540
:105DF00017D5FF1F0345855C82977C4C914517D5CD
:105E0000FF1F0345A55B82978547A307F100832702
:105E100044171306F1008545130550308297F24070
:105E2000624405618280174501001305E548EF20B3
:105E3000E149F5B77D15954763E6A71817470100B7
:105E4000130707460A053A951C41011122CC06CEDC
:105E500026CABA972E848287174501001305054A82
:105E6000EF20C14601AA03C725009947631CF7002C
:105E70002E85B13783456400174501001305054998
:105E8000EF200130174501001305054AD1BF03C7B4
:105E9000250095476317F702C16717D7FF1F035700
:105EA000E758F91703D5A5006302F702B7E7040026
:105EB00083A7C7178297174501001305E547EF2011
:105EC000E140174501001305A54959BF97D7FF1FAA
:105ED000239EA75483D7E500B7E40400096617D7CB
:105EE000FF1F2316F75483D705011306069017D515
:105EF000FF1F0345A54C17D7FF1F231BF75283D75E
:105F00002501A14517D7FF1F2315F752BC4C8297D7
:105F1000BC4C0566130606C8914517D5FF1F0345FF
:105F2000E54982970356E4008355A4001745010014
:105F30001305C541EF20C12469B7174501001305BA
:105F4000E54239BF83C525009147639AF50285472D
:105F50001745010013050543A307F100EF200137A2
:105F6000B7E7040083A747171306F100854513051B
:105F700050308297F2406244D24405618280994752
:105F8000639DF5002285253D83456400174501008A
:105F90001305C537EF20C11EF1BF9547639FF5007C
:105FA00083471400174501001305C53DE39A07EA2E
:105FB000174501001305C53E65B5174501001305DA
:105FC000A53EC9BF8280B7E70400FC476D71232658
:105FD0001110232481102E862E84AA8528008297F2
:105FE000174501001305053DEF20412EA28528002D
:105FF000EFE09FC78320C11003248110516182808C
:10600000797106D619C509476309E500B2504561A3
:1060100082802E85B285453FD5BFB7E70400FC4797
:1060200028008297174501001305853AEF20012AC1
:10603000F1BF97D7FF1F83D7673F6396A70217D794
:10604000FF1F2316B73E17D7FF1F2313C73E17D7CF
:10605000FF1F2310D73E2E86174501001305052785
:10606000BE856F20E111174501001305E5246F205F
:10607000E125130101DD2324812237E40400832775
:1060800004082326112223229122232021231705ED
:106090000000130525C48297854417D9FF1F1309F3
:1060A000E93199472300A900230C91002318F1023C
:1060B000930740062314F1128327441730088545BF
:1060C0001305503082978327441717D6FF1F1306F6
:1060D000E609B1451305703082978327441717D618
:1060E000FF1F13062606B5451305603082978327E8
:1060F00044171018894513051031829783274417D8
:106100003012894513052031829783274415930562
:1061100000050D4582978327441593050005114519
:1061200082972306910023089100230C91002324D9
:1061300001122308010283278416301291451305AA
:1061400070408297832784167000854513050040B0
:10615000829783278416100885451305104082977F
:1061600083278416101885451305204082978327BE
:1061700084163008854513055040829783270415FF
:106180007D558297832744137D5582977D55EFC0B7
:106190005FFF8327841417D6FF1F1306A6FBD54580
:1061A000014582971306700F81450818EFB03FD75D
:1061B0008947554681452808230891022306F100A6
:1061C000EFB0FFD58D471306700F81452812230CC1
:1061D000F100EFB0DFD491472304F11297D7FF1FEE
:1061E0009387C71E984383C7470010189305700F05
:1061F00001453AC8230AF100EFC0DFFF7000854572
:106200000545EFC03FFF3008D5450945EFC09FFE6B
:1062100030129305700F0D45EFC0DFFD1008954556
:106220001145EFC03FFDC16717D7FF1F13070720B8
:10623000F9171CC32322070017D5FF1F1305C51725
:10624000EFC03FFA8327C41D17D5FF1F1305851D17
:1062500082973C4803450900854582978320C122E7
:1062600003248122832441220329012213010123D3
:1062700082800111C16726CA06CEAA8422CC17D516
:10628000FF1F0355A51AF9176306F50437E4040048
:10629000832784122E862315B10001478146ED45E0
:1062A00082977C440356A1002AC6A68582972C00BB
:1062B00017D5FF1F03558517EFC03FFF01CD1745C9
:1062C00001001305E5FFEF2061008327C412ED45AF
:1062D00028008297F2406244D24405618280011115
:1062E00006CE22CC2DC9854717D7FF1FA301F7E69D
:1062F00097D7FF1F238E07E437E404008327841712
:106300009305F1001305503082978347F100A9CB24
:10631000A3070100832744171306F10085451305E1
:10632000503082978327441717D6FF1F130686E144
:10633000B5451305603082978547A307F100832791
:1063400044171306F1008545130550308297F2403B
:1063500062440561828097D7FF1FA38A07DE49BF89
:106360008327441717D6FF1F1306C6DDB54513054F
:106370006030E9BFC16717D5FF1F0355250BF9171B
:106380006307F500B7E7040003A3C7170283828001
:10639000EFB25FB42A8408452E89B28909C900C1C9
:1063A00097050000938525746105EF00410881443D
:1063B0007D5AEF10200963C3A4048144EF108009C3
:1063C00063C6A40497070020938707C29C43DC4759
:1063D000B307F94091872302F400638109048327FE
:1063E000C900B307F4409587A302F4001C4C89C789
:1063F0009C4799C3228582976FB01FB15C44139765
:1064000014008504BA972390470165B71C48139779
:1064100014008504BA97239007004DB7832789009D
:106420000547B307F4409587A302F400835704009F
:10643000638EE7028DC309476384E7040D47E39742
:10644000E7FA974701009387674C1CCC97470100F8
:106450009387C74C11A8974701009387A7121CCCBC
:1064600097470100938707135CC849B79747010016
:10647000938747FE1CCC974701009387A7FEEDB793
:10648000974701009387474D1CCC9747010093879E
:10649000A74DD9BF85E1EFB29FA5004618448347B9
:1064A000940075839D8B6315F700EF00B01B48C403
:1064B0006FB03FA68280EFB2FFA113893500C1649F
:1064C00042094111AA890144F11413590901054AED
:1064D0002EC6EF003077B2456346A4000145410166
:1064E0006FB09FA283A7090013171400BA9783D730
:1064F00007006388B7006394970063742A0105045A
:10650000C1BF0545E9BFEFB21F9CAA892E89328B16
:10651000B6843A8ABE8AEF80604B4DC12685EF1063
:1065200030358D4763E5A7007D556FB05F9D83DBF8
:106530004400EF0030772A84EF001078930774004E
:1065400031443305850263C5A702EF00B075EF0043
:1065500070752A84EF005076930774003144330538
:10656000850263CDA702EF00F0739307450019A8D9
:10657000EF009074330585021307F0179307C017D7
:10658000E357A7FC2D55E3C277FB63000B02D686C9
:106590005286A6854A85EFE0D06941BFEF00D071F1
:1065A000330585029307C5FFF1BF83274900138593
:1065B000C90083D52700013779F9BDB76955B5B74B
:1065C000970700202394A7A2970700209387C7A1CD
:1065D000904381470C463307F5004207418363939C
:1065E000B70082805446139847008507C2962390CF
:1065F000E600D5B7970700209387079F9C4303C504
:1066000087008280170500200355459E8280EFB2E7
:106610001F8EC1671387D7FF6307E5026368A70072
:10662000F117630EF50001456FB0BF8E1387E7FFCA
:10663000630EE500FD171D8D13351500F5B7EF400E
:10664000203C7D15D5BFEF40A019E5BFEF400018F5
:10665000CDBFEFB2DF894111AA8401442EC6EF00FD
:10666000705FB2456346A400014541016FB07F8A67
:106670009C48131514003E9583570500E387B7FE29
:106680000504E9BF03485500814693F7F60F63E51B
:10669000070181473E858280584593975600BA97F7
:1066A00003D727006316B70003D70700E304C7FE2C
:1066B0008506E1BF8346450001479377F70F63E402
:1066C000D700814711A81C45131657000507B2973C
:1066D00003D60700E313B6FE3E858280EFB28FFF3C
:1066E00093170501C187970A0020938AEA8F6353A5
:1066F000F00883A70A00C0479C4703570400198D80
:10670000420541816366F500014422856FB0CFFFE9
:1067100012052A94DDBFDC4713944900014A3E94D8
:10672000834744006341FA02014A834754006346A9
:10673000FA028509C20993D9090183A70A0098477B
:10674000E3EBE9FCD1B71C4413195A00A6853E9926
:106750004A85013709ED050AE1B75C4413195A006F
:10676000A6853E994A85F53519E1050A7DBFE30204
:1067700009FC61BFAA848149C9B7EFB24FF71C4534
:106780002A8481E79307C5001CC51C44231204001A
:106790001CC09307F00F63E9B70093F5F50F22854E
:1067A000EF1010136FB0EFF693940501C167C1802D
:1067B00063F7F500A6852285EF103015E5B7C18196
:1067C00093F5F50F2285EF10B010A6852285EF1006
:1067D0007011C9BF97070020938707818843828083
:1067E0001C4599C79707002023A0A78001458280F8
:1067F0007D55828097F7FF1F9387077F98438347D4
:106800004500484792073E958280EFB24FEE617196
:1068100000451C183EC6B70780013EC81C183ECA7A
:106820008357440002CE02D002CC231EF1008347DE
:1068300084002A8902D22301F1023C083ED402D608
:10684000553F835705002316F102EF30F06A230706
:10685000A1025C4003556400F18313F717008347DE
:10686000F10252055181F99BD98FA307F102EFE0A4
:10687000B02D39C5AA8403550500EF80001683D7D3
:1068800004002AD26800231CF10083D72400231DB2
:10689000F1001C4803D647008C43EF10900183475A
:1068A000B400CA8617460100130646B48117A30533
:1068B000F4006C004810EFE0D0375D616FB06FE519
:1068C0002155E5BF1C45B1CF03C5A7008946135725
:1068D0006500630BD7028D46630ED70285466300C1
:1068E000D702130740063305E50203C7B700418B03
:1068F00015CB83C7B700BD8B3355F5408280137528
:10690000F5031307803EC5B709671375F503130731
:106910000771D1BF372709001375F5031307077CEB
:10692000D9B701458280EFB28FDC03A985006304EB
:1069300009048347B900AE8493F7070E91CF03454E
:106940009900930520030D810505B305B502884420
:106950006105EFF0F03905A02E85AD372A8401CD11
:1069600011238325C900B307B54063F887002E942F
:10697000B305A440E9FD6FB0CFD98545C9BFEFB2DB
:106980000FD72A8403D50500011132C636C43AC296
:106990002EC002CA02CC02CEEF80200482452ACA51
:1069A00022852ECCEFF01FE503570500231EE100E2
:1069B000EF309054A24632469247230FA10036870B
:1069C0004C08B28622850146EFF0FFB305616FB037
:1069D0004FD4EFB2CFD161711C183EC6B70780010A
:1069E0003EC81C183ECA3C0800453ED4AA8402CCCE
:1069F00002CE02D002D202D6EFF0DFDF83570500CD
:106A000035592316F102EF30304F2307A10209C494
:106A10008357440091E721594A855D616FB06FCF7C
:106A20000355640052055181EFE010122A8965D5A3
:106A30008347B40093F7070E89C713058401EFF06D
:106A4000B02C83574400231EF100834784002301A8
:106A5000F1025C4003550900D98313F70708834707
:106A60001102231CA10093F7F707D98FA300F102AD
:106A700083572900231DF1005C40F18313F71700B1
:106A80008347F102F99BD98FA307F102EF70F074ED
:106A90002AD251D183479400680013975700834747
:106AA000B400FD8BD98FA305F4001C4803D6470022
:106AB0008C43EF100060A687174701001307079368
:106AC000740005464C102685EFF0FFA32A8929D5CE
:106AD0008347B400A685FD8BA305F400EFF0BFE467
