:040000006F10800DF0
:10000400000000000000000090000020BA0B002057
:10001400A9BDF9F3900000200000000000000000DA
:10002400900000209000002000000000000000006C
:10003400900000200000000090000020000000005C
:1000440090000020920000209000002090000020EA
:1000540090000020900000209000002090000020DC
:1000640090000020900000209000002090000020CC
:1000740090000020900000209000002090000020BC
:1000840090000020900000209000002090000020AC
:1000940001A0B717004013070002239EE70873006E
:1000A40020304111814601468145114506C6EF00C5
:1000B400D04BB727004011472383E780B7F700E010
:1000C40003A707D16D9B23A8E7D003A707D15D9BA6
:1000D40023A8E7D07300501001000100B240410191
:1000E40082804111814601468145114506C6EF00D3
:1000F400D047B727004011472383E780B717004054
:1001040003C7E70203C6E70483D78703916613771F
:10011400F70F1366360063E5D700719B136717006A
:10012400F3260080A18A971700009387A70199CA34
:10013400F32600809715000023A6D5009443DD9A8A
:10014400739006800F100000B716004093057005E9
:100154002380B604930580FA2380B6040F100000B0
:100164002382060223800604F32500809443A18A97
:10017400CD8E739006809716000023A506FC0F1001
:100184000000F3260080A18A99CAF32600809715FF
:10019400000023A9D5FA9443DD9A739006800F10CA
:1001A4000000B7160040930570052380B60493053C
:1001B40080FA2380B6040F1000002387E602238709
:1001C400C60423800604F32600809843218B558FB0
:1001D4007310078017170000232607F60F1000007E
:1001E40073270080218B19CB73270080971600009A
:1001F40023AAE6F498435D9B731007800F10000058
:1002040037170040930670052300D704930680FA3D
:100214002300D7040F1000008346B70493E60602B8
:10022400A305D70423000704F32600809843218BF9
:10023400558F7310078017170000232507F00F1040
:10024400000037F700E0832607D193E64600232811
:10025400D7D0832607D1DD9A2328D7D07300501036
:100264000100010073270080218B19CB73270080C4
:100274009716000023A8E6EC98435D9B7310078053
:100284000F10000037170040930670052300D704B1
:10029400930680FA2300D7040F1000008346B704A6
:1002A40093F6F60DA305D7042300070473270080F3
:1002B4009C43A18BD98F739007809717000023A3C9
:1002C40007E80F100000B240410182800111B7F528
:1002D400070026CA8146AA840A86E105194506CE86
:1002E40022CC4AC802C023120100EF001028B7171D
:1002F400004003C7E70413673700F3270080A18B8E
:1003040017140000130404E499CBF3270080971614
:10031400000023A9F6E21C40DD9B739007800F10B8
:100324000000B7170040930670052380D704930696
:1003340080FA2380D7040F10000023820702238051
:100344000704F32600801C40A18BD58F739007808F
:100354009717000023A807DE0F100000F327008082
:10036400A18B99CBF32700809716000023ACF6DC11
:100374001C40DD9B739007800F100000B7170040EE
:10038400930670052380D704930680FA2380D7044C
:100394000F1000002387E70423800704F32600805E
:1003A4001840218B558F7310078017170000232BDB
:1003B40007D80F100000B7F600E003A706D11367B3
:1003C400470023A8E6D003D50702E5779107137504
:1003D4000560458D5D8D420541810100F327008054
:1003E400A18B99CBF327008017170000232CF7D497
:1003F4001C40DD9B739007800F100000B71700406E
:10040400130770052380E704130780FA2380E704A9
:100414000F10000003C7F70013670704A387E70062
:1004240003C7B70413670702A385E7042390A70251
:1004340023800704732700801C40A18BD98F7390FD
:1004440007809717000023AF07CE0F100000B7F402
:10045400070037F900E0E104832709D1DD9B232855
:10046400F9D073005010010001001305C012EF0011
:10047400B00081463000A685194502C42316010048
:10048400EF00B00E22478247E318F7FCF327008001
:10049400A18B99CBF3270080171700002324F7CAF8
:1004A4001C40DD9B739007800F100000B7170040BD
:1004B400130770052380E704130780FA2380E704F9
:1004C4000F10000003D70702460745832390E70275
:1004D40023800704732700801C40A18BD98F73905D
:1004E40007809717000023AF07C40F100000F327FD
:1004F4000080A18B99CBF3270080171700002323DA
:10050400F7C41C40DD9B739007800F100000B717E1
:100514000040130770052380E704130780FA238043
:10052400E7040F10000003C7B7041377F70DA38582
:10053400E70423800704732700801C40A18BD98F14
:10054400739007809717000023AE07BE0F100000BA
:1005540051451D27F2406244D244424905618280DC
:10056400411126C281460146AA848145114506C629
:1005740022C4EF00807F371700408347E702834699
:10058400E70403578703116693F7F70F93E63600E2
:100594006365C700F19B93E7170073270080218BE5
:1005A40017140000130404BA19CB7327008017161C
:1005B40000002329E6B818405D9B731007800F10D4
:1005C400000037170040130670052300C704130604
:1005D40080FA2300C7040F1000002302070223003F
:1005E4000704732600801840218B518F73100780F5
:1005F40017170000232807B40F100000732700808A
:10060400218B19CB7327008017160000232CE6B228
:1006140018405D9B731007800F10000037170040CF
:10062400130670052300C704130680FA2300C704C9
:100634000F1000002307F7022307D7042300070441
:10064400732700801C40A18BD98F73900780971764
:10065400000023A907AE0F100000130550029522D5
:1006640037F700E0832707D193E747002328F7D023
:10067400F3270080A18B99CBF32700801717000084
:100684002322F7AC1C40DD9B739007800F10000001
:10069400B7170040130770052380E704130780FA97
:1006A4002380E7040F10000003C7F7001367070453
:1006B400A387E70023800704732700801C40A18BD5
:1006C400D98F739007809717000023AD07A60F10EA
:1006D4000000F3270080A18B99CBF3270080171724
:1006E40000002321F7A61C40DD9B739007800F10A8
:1006F4000000B7170040130770052380E7041307B1
:1007040080FA2380E7040F1000002567D98C23901A
:10071400970223800704732700801C40A18BD98F84
:10072400739007809717000023AE07A00F100000F6
:1007340037F700E0832707D1DD9B2328F7D0730028
:100744005010010001008146014681451145312DBB
:10075400F3270080A18B99CBF327008017170000A3
:100764002322F79E1C40DD9B739007800F1000002E
:10077400B7170040130770052380E704130780FAB6
:100784002380E7040F1000007D572396E70203C778
:100794006704136717002383E70423800704732780
:1007A40000801C40A18BD98F73900780971700009D
:1007B40023AA07980F100000B2402244924441013A
:1007C400828073270080218B9387818009CB7327D4
:1007D400008023A4E18098435D9B731007800F1071
:1007E400000037170040930670052300D7049306D2
:1007F40080FA2300D7040F1000008346B70493F651
:10080400F60DA305D7042300070473260080944340
:10081400A18AD18E7390068023A401800F1000005A
:1008240093760502638406180347A700118B25E716
:1008340073270080218B09CB7327008023A4E180D8
:1008440098435D9B731007800F100000371700401A
:10085400930670052300D704930680FA2300D70477
:100864000F1000008346A70093E646002305D70037
:1008740023000704F32600809843218B558F7310BF
:10088400078023A401800F1000001307004B010010
:1008940001007D176DFF73270080218B09CB73271F
:1008A400008023A4E18098435D9B731007800F10A0
:1008B400000037170040930670052300D704930601
:1008C40080FA2300D7040F1000007D892314A700A9
:1008D400010001000100010023000704F326008049
:1008E4009843218B558F7310078023A401800F1028
:1008F400000073270080218B09CB7327008023A479
:10090400E18098435D9B731007800F100000371738
:100914000040930670052300D704930680FA230051
:10092400D7040F1000000F100000B7260040130674
:100934001005A383C68023000704F3260080984390
:10094400218B558F7310078023A401800F100000A2
:1009540073270080218B09CB7327008023A4E180B7
:1009640098435D9B731007800F10000037170040F9
:10097400930670052300D704930680FA2300D70456
:100984000F1000008346B70493E60608A305D704B6
:1009940023000704732700809C43A18BD98F739095
:1009A400078023A401800F10000082809376050441
:1009B400638B06140347A700418B25E77327008048
:1009C400218B09CB7327008023A4E18098435D9B8E
:1009D400731007800F10000037170040930670054E
:1009E4002300D704930680FA2300D7040F100000D5
:1009F4008346A70093E606012305D70023000704D6
:100A0400F32600809843218B558F7310078023A40D
:100A140001800F1000001307007D010001007D1705
:100A24006DFF73270080218B09CB7327008023A4DB
:100A3400E18098435D9B731007800F100000371707
:100A44000040930670052300D704930680FA230020
:100A5400D7040F1000009376F50193E606042314DF
:100A6400D700010001000100010023000704F32660
:100A740000809843218B558F7310078023A4018035
:100A84000F100000130760046310E504732700804F
:100A9400218B09CB7327008023A4E18098435D9BBD
:100AA400731007800F10000037170040930670057D
:100AB4002300D704930680FA2300D7040F10000004
:100AC400B72600400946B5B573270080218B09CBB2
:100AD4007327008023A4E18098435D9B73100780F3
:100AE4000F10000037170040930670052300D70449
:100AF400930680FA2300D7040F100000B7260040A5
:100B0400130620053DB573270080218B09CB73277D
:100B1400008023A4E18098435D9B731007800F102D
:100B2400000037170040930670052300D70493068E
:100B340080FA2300D7040F1000008356870093E641
:100B4400060C2314D700C5BB4111814601468145DB
:100B5400114506C6192CF3270080A18B938681804A
:100B640089CBF327008023A4F1809C42DD9B739002
:100B740007800F100000B71700401307700523808B
:100B8400E704130780FA2380E7040F10000003C76B
:100B94006704136717002383E7042380070473277C
:100BA40000809C42A18BD98F7390078023A401807D
:100BB4000F100000B2404101828081460146814508
:100BC40011456522F3270080A18B1387818089CB8F
:100BD400F327008023A4F1801C43DD9B73900780DE
:100BE4000F100000B7170040930670052380D70448
:100BF400930680FA2380D7040F100000FD56239635
:100C0400D70223800704F32600801C43A18BD58FD1
:100C14007390078023A401800F100000F327008045
:100C2400A18B89CBF327008023A4F1801C43DD9B97
:100C3400739007800F100000B717004093067005EB
:100C44002380D704930680FA2380D7040F10000072
:100C540083C6670493E616002383D704238007041E
:100C6400F32600801C43A18BD58F7390078023A4A7
:100C740001800F10000001A0BD473305F5020100FB
:100C84007D1575FD8280411122C426C206C6AA8440
:100C9400014463179400B24022449244410182808B
:100CA40005041305803E4204C13F4180DDB72303A0
:100CB400048015472303E48001002302A48082807A
:100CC40083076480E3CE07FE2303048082808307C6
:100CD4006480E3CE07FE03454480828083076480FA
:100CE400E3CE07FE2302A4808280411126C44AC2B7
:100CF4004EC006C61377F50BAD47AA892E899544D5
:100D04006306F70019456537653F8D444E854537C1
:100D1400FD59FD1463983401B240A244124982493A
:100D240041018280135509011375F50F453F2209CE
:100D3400CDB7011126CC06CEB704080051371545AE
:100D4400BD37713769372AC6A53F324593771500F9
:100D540089EB136515001375F50FF240E244056144
:100D64008280FD14E9FC0145CDBF397126DC4ADAE5
:100D74004ED852D656D45AD25ED006DE62CE66CC57
:100D8400B7E700E07D5783AA070022C603AA4700FD
:100D940023A0E71823A2E718B7170040130770052C
:100DA4002380E704130780FA2380E70483C74704FA
:100DB400930B75FFB684E20793FBFB0F8546AA8964
:100DC4002E8B328937240040E187015763FA76017C
:100DD4006308D5008946130700026313D500015741
:100DE400D98F93F7F70FB71C00402382FC041147F7
:100DF4002303E4801305F00F5D3D094CD135636D89
:100E04007C11B7050700DA9537870700795563F237
:100E1400E504B3879500636EF702370B0800A94712
:100E240033EB65016399F90689E48144513D2685D4
:100E34000DA0DA850945553D05090345F9FFFD1463
:100E4400050B693D81C49377FB0FFDF7DD3569FD23
:100E54007D55B7170040130770052380E704130777
:100E640080FA2380E70403C74704418B2382E70405
:100E7400F250B7E700E023A0571123A24711E25430
:100E840032445259C259325AA25A125B825B724C92
:100E9400E24C21618280A5476395F90685691309AF
:100EA400F00FB3069900B3742B01B6941349F9FFFC
:100EB400B3749900856B33796901416B9387F9FFAA
:100EC400B3F7270199E363FC340193D94900C1477F
:100ED400E3E637FF99BF0569C1697D19D9B71305E1
:100EE400800D638869011305000263847901130589
:100EF4001008CA85DD3B353D21DD4E99B38434416C
:100F0400D9B7DA852D45D533CA94E30099F205099A
:100F14007D3BA30FA9FED5BF9387F9FF93F7F70F86
:100F24006361FC0C83C71C0413073008631FF704B8
:100F340037070800636BEB04B3079B00B706100088
:100F440063F5D704334BEB0089476393F906898033
:100F5400D549E38C04ECDA850945413B11090327A3
:100F6400C9FF91472320E48003076480E34E07FE12
:100F740023033481FD17EDFBFD14110B81C493771A
:100F8400FB0FE9FF7D3371F5E1B5B717004003C7E7
:100F94005704B70708001377070219E3B787070058
:100FA4007955E378FBEA33079B00E3FFE7F855B58F
:100FB4008547E382F9F2DA852D45053B9389F4FFF1
:100FC400E38504E6293393F7390091EB8326048003
:100FD4000327090093074900E39AE6E43E89CE8497
:100FE400F1BFB5476396F9001305900BC93135BDC0
:100FF400B1471305B00AE38BF9FE99476391F904ED
:10100400B7050800B365BB002D45C53181448D4B40
:10101400A149753963967401832704802320F9005C
:101024008504E39834FF8327048013172B01635549
:1010340007002312F900D5BB2322F900FDB39D4715
:101044006399F90281451305B0044531BD44232059
:10105400090023220900FD599D3993F77400CA97AA
:1010640003C70700FD14398D2380A700E39634FFDE
:101074006DBBA1476392F9046D398144630D0B0084
:101084008D479304C0036308FB00930400056304C5
:101094008B01930440041375C507E30895D81945DB
:1010A400393139390545213126850D3909453D3117
:1010B4004931E31C05D669BB91476399F9001305CF
:1010C4006006F536F53E130590090DB7E38F09D494
:0410D400F154A9BB6F
:1010D800971100209381018617710020130101F2F6
:1010E8001305400097F5FF1F938545F1170600206B
:1010F800130606FE63FAC5008322050023A05500E7
:1011080011059105E3EAC5FE17250000130545AE54
:10111800970500209385C5FB1386818063FAC50077
:101128008322050023A0550011059105E3EAC5FEB9
:1011380013858180938581816377B500232005001D
:101148001105E36DB5FEFD42739002BC8D427390AC
:101158004280930280087390023097F2FF1F9382B7
:10116800E2E993E232007390523037170040930758
:1011780070052300F704930780FA2300F7040F1083
:1011880000003C47B70600FAE116F58FB7060006DF
:101198009506D58F3CC7970200009382A20D7390E5
:1011A8001234730020303D432A876373C302937758
:1011B800F700BDEFADE5937606FF3D8ABA960CC3FE
:1011C8004CC30CC74CC74107E36BD7FE11E28280C2
:1011D800B306C3408A069702000096966780A60069
:1011E8002307B700A306B7002306B700A305B70077
:1011F8002305B700A304B7002304B700A303B7006F
:101208002303B700A302B7002302B700A301B70066
:101218002301B700A300B7002300B700828093F52D
:10122800F50F93968500D58D93960501D58D61B7F9
:10123800939627009702000096968682E78086FAA2
:101248009680C1171D8F3E96E374C3F8A5B737176C
:1012580000408327870A411106C693E70720232405
:10126800F70A8D4513050020E922B2404101F1AB90
:1012780041111305800406C697F0FF1FE78020542C
:1012880085457D557D2285457D55B924C937B717D4
:10129800004083C51704172500001305E581F92BC5
:1012A8001305800C97000020E780A09D8545130555
:1012B80000024122894513050002D124B7E700E066
:1012C8003707020023A0E7100546C14505450D2E46
:1012D800171500001305857FC925054597000020CF
:1012E800E780209A97F0FF1FE78060DB1715000062
:1012F8001305057F5D251305401F97000020E78033
:101308004098171500001305257E412D09459700C3
:101318000020E780009797F0FF1FE78040DC054535
:101328007928094597000020E780A0951715000047
:101338001305057B9D251305401F97000020E780B6
:101348004094171500001305657B812D094597000A
:101358000020E7800093494597F0FF1FE780C0F61B
:101368000545B128154597000020E780809117159D
:1013780000001305E57615251305401F970000208A
:10138800E780209017150000130585783925094551
:1013980097000020E780E08E014597F0FF1FE78067
:1013A800E01B054529281715000013056573F5236B
:1013B8001305401F97000020E780A08C01A0B717F5
:1013C800004083C7E7040D8993F7C70FC98F7327B8
:1013D8000080218B97060020938646D619CB732769
:1013E800008017060020232BE6D498425D9B7310DB
:1013F80007800F1000003717004013067005230000
:10140800C704130680FA2300C7040F10000023073F
:10141800F70423000704732700809C42A18BD98F0F
:10142800739007809707002023AA07D00F100000A9
:101438008280914763EEB702171700001307C76E43
:101448008A05BA959C41BA978287B717004003A7C7
:10145800470B1345F5FF698F23AAE70A03A7070B74
:10146800698F23A8E70A03A7070A798D23A0A70A8B
:101478008280B717004083A6470B1347F5FFF98E04
:1014880023AAD70A83A6070B558D23A8A70A83A6E4
:10149800070A758F23A0E70A8280B717004003A7C1
:1014A800470B498F23AAE70A03A7070B1345F5FF44
:1014B80045BFB717004083A6470B1347F5FF758F45
:1014C80023AAE70A03A7070A598D4DB7B7170040A3
:1014D80003A7470B498FEDB7914763EEB70217177C
:1014E80000001307A7658A05BA959C41BA978287B9
:1014F800B717004003A7470D1345F5FF698F23AAC7
:10150800E70C03A7070D698F23A8E70C03A7070CAF
:10151800798D23A0A70C8280B717004083A6470DBA
:101528001347F5FFF98E23AAD70C83A6070D558D0F
:1015380023A8A70C83A6070C758F23A0E70C82802D
:10154800B717004003A7470D498F23AAE70C03A745
:10155800070D1345F5FF45BFB717004083A6470D94
:101568001347F5FF758F23AAE70C03A7070C598DBE
:101578004DB7B717004003A7470D498FEDB793172D
:1015880005010547C1836382E5048DC10947638D61
:10159800E5040D476380E50637170040231EF7086A
:1015A80083560709D58F2318F7088280371700401C
:1015B8000356470993C6F7FFF18E231AD7088326E7
:1015C800C70A558D2326A70AC1BF371700400356FF
:1015D800470993C6F7FFF18E231AD7088326870A8F
:1015E800558D2324A70A4DBF371700408356470956
:1015F800DD8EE1B73717004083564709DD8EE9BF16
:1016080097070020938787B325E573270080218BF0
:1016180019CB732700809706002023A1E6B29843D0
:101628005D9B731007800F1000003717004093066A
:1016380070052300D704930680FA2300D7040F10FF
:1016480000008346E70093C5F5FFF58D2307B70033
:1016580023000704732700809C43A18BD98F7390C4
:1016680007809707002023AB07AC0F10000082808B
:101678007D163336C00073270080218B19CB732762
:1016880000809706002023ABE6AA98435D9B731061
:1016980007800F10000037170040930670052300DD
:1016A800D704930680FA2300D7040F10000083465E
:1016B800E700D58D93E505042307B7002300070449
:1016C800F32600809843218B558F731007801707E6
:1016D8000020232507A60F10000073270080218B08
:1016E80019CB732700809706002023A9E6A4984306
:1016F8005D9B731007800F1000003717004093069A
:1017080070052300D704930680FA2300D7040F102E
:1017180000008346F70093F6C60FA307D7002300FF
:101728000704F32600809843218B558F7310078098
:1017380017070020232407A00F100000732700803C
:10174800218B19CB732700809706002023A8E69EDB
:1017580098435D9B731007800F10000037170040F7
:10176800930670052300D704930680FA2300D70454
:101778000F1000008346F700558EA307C700C9BDA8
:10178800B717004003D587004205418193770504C8
:1017980091EB9377F5013755E8011305058033453B
:1017A800F50282809377050C130700046397E7001E
:1017B8009377F50137459C1CCDB72165130505D0F6
:1017C8008280814737370040A14663C4C70032850D
:1017D80082800345B740E38EA6FE3385F5000345B6
:1017E800050085072304A740CDB7970700209387F6
:1017F80067949C43138781813E95636EE500176764
:1018080000201307A75F6368A7001707002023239A
:10181800A7923E858280FD57EDBF411122C406C6BE
:101828002A84B93F2947B307E502B2408D83B3D76D
:10183800870222449507B3D7E70237370040C2072B
:10184800C1832316F7404101828071654111130558
:10185800052006C6D937B7370040130770F823812B
:10186800E7400D47A381E74013070004A380E74042
:1018780005472387E740B2404101828039713EDA4B
:101888002ED232D436D63AD842DC46DE970700202C
:101898009387878A22CC804326CA06CEAA8409C4A5
:1018A8001C4C99E3228535230C4454102686228546
:1018B80036C6EF007017F2406244D244216182803C
:1018C800011126CA4AC806CE22CC4EC652C4AA84E2
:1018D8002E8901C51C4D91E3ED299C4C804499E368
:1018E8002685C5299717000093878728631CF4026B
:1018F800C0408357C400A18BB1C71C48A1C7FD597C
:10190800294A1C4483450900FD17B1E91CC463DE5C
:1019180007062286A94526854128FD576308F50252
:10192800294535A097170000938787266314F4008C
:101938008044C1B79717000093878721E31BF4FA07
:10194800C04445BFA2852685052255D97D55F2405C
:101958006244D2444249B249224A056182801CC489
:10196800050963D70700184C63CBE7006389450175
:101978001C401387170018C02380B70059B7228668
:1019880026851D20E31F35F7D1B71C4013871700A4
:1019980018C029472380E70061B797F7FF1F93878F
:1019A800A779AA85884329BF011122CC26CA4AC82B
:1019B80006CE4EC6AA842E89328401C51C4D91E3F9
:1019C8000929971700009387A71A6319F406C040DE
:1019D8001C4C1CC48357C400A18BC9C31C48BDCF71
:1019E8001C4808409379F90F1379F90F1D8D5C484D
:1019F8006346F500A2852685752C2DE51C44050552
:101A0800FD171CC41C401387170018C0238037011A
:101A18005C486389A7008357C400858B81CBA9479D
:101A28006316F900A285268571240DEDF240624403
:101A38004A85D2444249B24905618280971700001D
:101A4800938707156314F400804459B7971700006B
:101A580093870710E31EF4F6C0449DBFA285268530
:101A680021203DDD7D59D9B7411197F7FF1F938795
:101A7800A76C26C2844322C44AC006C62A892E847B
:101A880089C49C4C99E32685A9269717000093875B
:101A9800270E631CF402C0400317C4009317070104
:101AA800C18393F68700B5EE93F607019DEEA5472F
:101AB8002320F900136707042316E4007D55B2407C
:101AC800224492440249410182809717000093877B
:101AD800270C6314F4008044C1B79717000093875C
:101AE8002707E31BF4FAC04445BF918B8DC74C58B8
:101AF80089C9930744046384F5004A859123232AFE
:101B080004028357C4002322040093F7B7FD231669
:101B1800F4001C481CC08357C40093E787002316B1
:101B2800F4001C4881EF8357C4001307002093F783
:101B380007286385E700A2854A85A5218357C40045
:101B480013F7170005C75C4823240400B307F040C7
:101B58001CCC1C480145A5F78317C40013F70708D8
:101B680039DF93E707042316F40089BF898B0147FF
:101B780091E3584818C4F1BF83D7C500011122CC9E
:101B880026CA06CE4AC84EC613F78700AA842E84F2
:101B980071EFD841634DE000B841634AE000014568
:101BA800F2406244D2444249B249056182805854A5
:101BB8007DD703A904009396370123A0040063DDB1
:101BC800060670488357C400918B99C75C401D8EE8
:101BD8005C5899C33C401D8E5C540C508146268548
:101BE8008297FD570357C400631DF5009440F547DD
:101BF80063E8D706B70740208507B3D7D700858B9A
:101C0800A5C31C48232204001CC09317370163D8BE
:101C18000700FD576314F5009C4091E368C84C58D1
:101C280023A02401ADDD930744046384F5002685D1
:101C38000129232A0402A5B70C50014685462685AA
:101C48000297FD572A86E31FF5F69C40A5DF7547E6
:101C58006385E70059476394E70423A0240181B70B
:101C6800136707042316E4007D551DBF83A90501EA
:101C7800E38709F203A905008D8B23A035013309F9
:101C88003941014791E3D84918C4E35A20F11C545B
:101C98000C50CA864E86268582976349A0008357D2
:101CA800C40093E707042316F4007DBFAA993309FB
:101CB800A940E1BF9C49B9CF011122CC06CE2A84A4
:101CC80011C51C4D81E72EC62922B2459717000081
:101CD800938707EA639BF5004C408397C50095C737
:101CE80022856244F240056141BD97170000938741
:101CF80027EA6394F5000C44CDB797170000938743
:101D080027E5E39CF5FC4C44C9BFF2406244014519
:101D18000561828001458280411122C406C62A8459
:101D28002316B5002317C50023200500232205002C
:101D3800232405002322050623280500232A05005D
:101D4800232C0500214681451305C505EFF0AFC5D5
:101D5800971700009387E7B45CD097170000938724
:101D680047B71CD497170000938787BB5CD4971795
:101D78000000938747BE00D01CD8B24022444101DE
:101D8800828097050000938525F389AA411126C210
:101D9800130680069384F5FFB384C4024AC02E89D3
:101DA80022C406C69385440781262A8401CD2320B0
:101DB800050023222501310508C4138684068145C0
:101DC800EFF06FBE2285B24022449244024941019D
:101DD80082801C4DBDE3411106C622C4970700004E
:101DE800938767FA1CD597170000938727E09C43D1
:101DF8002324050423260504232805046314F50079
:101E080085471CCD2A841D2848C02285052808C47A
:101E180022852D2048C4484001469145F53D084497
:101E28000546A545D53D48440946C945F535854784
:101E38001CCCB24022444101828082804111971714
:101E480000009387A7DA26C284434AC006C69C4C82
:101E580022C42A8999E32685AD3F9384840480446B
:101E6800DC40FD1763D607009C40B9CF8440C5BF4E
:101E78000317C40039E7C177850723220406232006
:101E8800040023220400232404005CC42328040043
:101E9800232A0400232C0400214681451305C40588
:101EA800EFF06FB0232A0402232C04022324040435
:101EB800232604042285B240224492440249410167
:101EC80082801304840671BF91454A85C13588C054
:101ED80051FDB1472320F9000144E9BF797122D4AB
:101EE8004AD052CC56CA5AC85EC606D626D24ECE5C
:101EF8002A8AAE8A130485040149054BFD5B09EC67
:101F0800B25022544A8592540259F249624AD24A3E
:101F1800424BB24B45618280044483294400FD1939
:101F280063D409000040E1BF83D7C400637BFB0092
:101F38008397E40063877701A6855285829A33697F
:101F4800A90093848406E1BF1971A6DAAE8483954B
:101F5800E500A2DC86DE328463DC050083D7C4009A
:101F680023A0060093F7070885E7930700401DA004
:101F7800300836C6EF00B023B246E34105FE72478B
:101F8800BD67F98F7977BA9793B717009CC2F1BFED
:101F9800930700041CC0F6506654D65401450961E5
:101FA800828083D7C500011122CC06CE26CA4AC832
:101FB800898B2E8489CF930774041CC01CC885475D
:101FC8005CC8F2406244D244424905618280740090
:101FD8003000AA84953FA2452A892685312201ED41
:101FE8008317C40013F7072069FFF19B93E72700C5
:101FF8002316F400C9B7970700009387C7D89CD465
:102008008357C40008C008C893E707082316F400DC
:10201800A2475CC8B24791CF8315E4002685EF003C
:10202800B01B01C98357C400F19B93E7170023161F
:10203800F4008357C4003369F9002316240151B70B
:10204800DDC183A7C5FF411122C406C626C2138479
:10205800C5FF63D307003E94AA84EF00D01E938780
:10206800C1809C4381EF2322040023A6818022445F
:10207800B2402685924441016F00101D637EF40032
:1020880014403307D4006396E7009843DC4336973F
:1020980018C05CC0D9BFBA87D84319C3E37DE4FE32
:1020A80094433386D700631F86001040B29694C3CA
:1020B8003386D700E31DC7FA10435843B29694C33A
:1020C800D8C375B76375C400B1479CC04DB71040FD
:1020D800B306C4006316D70014435843B29614C01D
:1020E80058C0C0C369B78280011126CA93843500DD
:1020F800F19806CE22CC4AC84EC6A104B14763F374
:10210800F404B14463E2B4042A89EF00D01393873E
:10211800C18098433A8439E0938701819C4391E7D1
:1021280081454A85812F23A8A180A6854A859927BC
:10213800FD5963193507B1472320F9004A85EF0097
:10214800B01029A0E3D004FCB1471CC10145F240FE
:102158006244D2444249B249056182801C40858F5D
:1021680063CF0702AD4663F6F6001CC03E9404C078
:1021780031A05C406313870223A6F1804A85EF00F3
:10218800B00C1305B4009307440061993307F54078
:102198005DDF3A94898F1CC05DBF5CC3C5B72287D9
:1021A800404095BF130435007198E30285FCB305E0
:1021B800A4404A85C125E31C35FBB5BF1C46FD1765
:1021C8001CC663DA0700184E63C5E700A947639485
:1021D800F5006FF06FFD1C422E851387170018C29B
:1021E8002380B7008280011122CC26CA4AC84EC675
:1021F80052C406CE2A89AE893284B304D6007D5AE9
:1022080063149400014509A8834504004E864A8555
:1022180075370504E31645FFF2406244D24442494B
:10222800B249224A05618280357122CD26CB4AC93E
:102238004EC706CF52C556C35AC1DEDEE2DCE6DA27
:10224800AA89AE843289368401C51C4D91E3513682
:10225800971700009387C791639BF40C83A44900E8
:1022680083D7C400A18BF5C79C48E5C79307000234
:10227800A304F1029307000302D22305F10222C648
:10228800930B5002971A0000938A8A92054C294BA7
:102298004A848347040099C36390770FB30C2441A1
:1022A800638D0C00E6864A86A6854E852D3FFD5730
:1022B8006306F51E9256E69636D283470400638F6E
:1022C800071CFD571309140002C802CE3ECA02CCEF
:1022D800A309010482D48345090015465685B92708
:1022E80013041900C24759E913F7070109C713076F
:1022F8000002A309E10413F7870009C71307B00216
:10230800A309E104834609001307A0026380E608D5
:10231800F2474A8481462546034704009305140082
:10232800130707FD6379E60AB5CA3ECE85A8971755
:1023380000009387E7856395F40083A489000DB7AF
:10234800971700009387C780E39CF4F083A4C90023
:1023580001BFA6854E85EFF02FF109D97D55FA40CA
:102368006A44DA444A49BA492A4A9A4A0A4BF65B05
:10237800665CD65C0D618280050421BF330555413A
:102388003315AC00C98F3EC82289B1B732479306CE
:102398004700184336C6634907023ACE034704008C
:1023A8009307E002631FF704034714009307A00292
:1023B800631BF702B2470904138747009C433AC6D8
:1023C80063C107023ECA35A83307E04093E72700F8
:1023D8003ACE3EC8E1B7B387670385462E84BA97DD
:1023E80025BFFD57C5B7050402CA81468147254662
:1023F8000347040093051400130707FD6376E606F8
:10240800F1F2834504000D46170500001305C57A4F
:10241800312D11CD970700009387077A1D8D9307FB
:102428000004B397A700424505045D8D2AC883457B
:102438000400194617050000130545781309140010
:102448002304B102E5233DC197E7FFFF938707BB4C
:1024580095E74247B2471377071009CF91073EC661
:102468009257D2973ED22DB5B387670385462E84FF
:10247800BA97BDBF9D07E19BA107D5B7780097061E
:102488000000938686D626860C084E8597000000A5
:10249800E7000000FD572A8AE314F5FC83D7C4003F
:1024A80093F70704E39C07EA125555BD7800970691
:1024B8000000938686D326860C084E85012AD9BF4C
:1024C800797156CA9C49BA8A984522D426D24ECEEA
:1024D80052CC06D64AD05AC85EC6AA892E84B2847F
:1024E800368A63D3E700BA879CC00347340419C30C
:1024F80085079CC01C4093F7070281C79C40890749
:102508009CC00329040013796900631A0900130B9E
:102518009401FD5B5C449840998F634CF9041C401E
:102528008346340493F70702B336D000A5EB1306AD
:102538003404D2854E85829AFD576303F5041C4006
:1025480011469840998B544481446397C700B384DB
:10255800E64063D3040081441C4418486354F700E0
:10256800998FBE94014969047D5B639824050145F0
:1025780009A885465A86D2854E85829A631E7501BA
:102588007D55B250225492540259F249624AD24AB5
:10259800424BB24B456182800509ADBF3307D40079
:1025A80013060003A301C7040347540493871600C6
:1025B800A2978906A381E7049DBF85462286D28516
:1025C8004E85829AE30E65FB050945B7797122D4D9
:1025D80026D24AD04ECE06D652CC56CA5AC8B6894A
:1025E80083C68501930790063289AA842E841386B0
:1025F8003504638DF60263E2D70693078005638787
:10260800F61863EDD7006380062293073004638EC3
:10261800F60A930A24042301D404C9A093073006B8
:102628006385F60A93074006E395F6FE1C400843C7
:1026380093F6070893054500C5C61C410CC363D82B
:1026480007001307D002B307F040A301E40497067C
:1026580000009386265729476DA8930700076383D0
:10266800F61663E5D7029307E006638AF618930720
:10267800F006E390F6FA0C401C4313F8050813859E
:1026880047006307080608C39C438DA893075007B3
:10269800E383F6FE93078007638AF61293073007F1
:1026A800E399F6F61C43D04181459386470014C34D
:1026B80083AA070056859D2E01C53305554148C09C
:1026C8005C401CC8A301040471A81C43930A240499
:1026D800938647009C4314C32301F4048547D5B768
:1026E80093F607041C410CC3B9DAC207C18781BF3E
:1026F80093F5050408C3C9D983D707001307F00663
:102708006387E60E970600009386C64B2947A30108
:1027180004044C400CC463C5050008406D9908C00A
:1027280099E3B28A91CDB28AB3F5E702FD1AB6955C
:1027380083C505002380BA00B3D5E70263FFE70A23
:10274800A147631EF7001C40858B91CB58401C485D
:1027580063C7E70093070003A38FFAFEFD1A330649
:10276800564110C84E87CA867000A2852685893BC7
:102778007D5A631E450B7D55B2502254925402591E
:10278800F249624AD24A424B45618280A382D5040B
:1027980097060000938606430C40084313F8050883
:1027A8001C411105630D080208C313F7150001C782
:1027B80093E505020CC04147B9FB0C4093F5F5FDC4
:1027C8000CC0B1B79C4193E707029CC193078007EF
:1027D800A302F404970600009386064075BF13F819
:1027E800050408C3E30308FCC207C1837DBF97063D
:1027F80000009386263D214719BFAE8735B794411F
:102808001C43CC4913F806081385470063060800E3
:1028180008C39C438CC301A808C393F606049C43D1
:10282800F5DA2390B70023280400B28A25BF14489C
:102838005686CA8526858299E30F45F31C40898B05
:102848008DE7B2474844E359F5F23E8535B78546EA
:102858005686CA8526858299E30F65F1050A5C4488
:102868003247998FE345FAFEE9BF014A930A94017A
:102878007D5BF5B7411122C42A842E8523AA0180E5
:1028880006C6EFE09FF6FD576317F5009387418171
:102898009C4391C31CC0B240224441018280411133
:1028A80022C42E848395E50006C6452263490500A7
:1028B8007C48AA977CC8B240224441018280835751
:1028C800C4007D777D17F98F2316F400EDB783D701
:1028D800C500011122CC26CA4AC84EC606CE93F7B7
:1028E8000710AA842E843289B68991C78395E5009A
:1028F8008946014631228357C4007D777D17F98FB9
:102908002316F4008315E4006244F240CE864A861A
:10291800B24942492685D24405613DA8411122C4E5
:102928002E848395E50006C6E128FD570357C400A9
:10293800631BF500FD77FD17F98F2316F400B240ED
:102948002244410182808567D98F2316F40068C824
:10295800FDB78395E50005A8411122C42A842E8578
:10296800B285368623AA018006C6EFE09FE5FD57AB
:102978006317F500938741819C4391C31CC0B24003
:10298800224441018280411122C42A842E8523AA2F
:10299800018006C6CD20FD576317F5009387418156
:1029A8009C4391C31CC0B240224441018280411122
:1029B80022C42A842E85B28523AA018006C6D12086
:1029C800FD576317F500938741819C4391C31CC051
:1029D800B240224441018280411122C42A842E85BA
:1029E80023AA018006C66520FD576317F500938763
:1029F80041819C4391C31CC0B24022444101828062
:102A0800411122C42A842E85B285368623AA0180E4
:102A180006C66120FD576317F500938741819C43E3
:102A280091C31CC0B24022444101828093F5F50F46
:102A38002A966314C5000145828083470500E38D0B
:102A4800B7FE0505FDB782808280411122C42A8421
:102A58002E85B285368623AA018006C6A920FD5791
:102A68006317F500938741819C4391C31CC0B24012
:102A78002244410182809307800523AAF1807D5575
:102A880082809307800523AAF1807D558280930771
:102A9800800523AAF180014582809307800523AA37
:102AA800F1807D5582809307800523AAF1807D55AA
:102AB80082800000537461727420404368697049D1
:102AC800443D253032780A0049444C45206D6F64F6
:102AD8006520736C656570200000000077616B6588
:102AE8002E2E200048616C74206D6F646520736C15
:102AF8006565702000000000736C656570206D6F5F
:102B0800646520736C6565702000000073687574D7
:102B180020646F776E206D6F646520736C656570D7
:102B28002000000026E9FFFF4EE9FFFF76E9FFFFDE
:102B38008EE9FFFFA8E9FFFFB8E9FFFFE0E9FFFF23
:102B480008EAFFFF20EAFFFF3AEAFFFF0000000063
:102B5800000000000000000000000000000000006D
:102B6800000000000000000000000000000000005D
:102B7800000000000000000000000000000000004D
:102B8800000000000000000000000000000000003D
:102B9800000000000000000000000000000000002D
:102BA800000000000000000000000000232D302B72
:102BB80020000000686C4C006566674546470000C9
:102BC800303132333435363738394142434445465B
:102BD800000000003031323334353637383961621D
:0C2BE8006364656600000000D41000204B
:102BF40000000000742B0000942B0000542B0000F4
:102C040000000000000000000000000000000000C0
:102C140000000000000000000000000000000000B0
:102C240000000000000000000000000000000000A0
:102C34000000000000000000000000000000000090
:102C44000000000000000000000000000000000080
:0C2C54000000000050110020D4100020EF
:00000001FF
