:040000006F2040032A
:10000400000000000000000090000020A204002076
:10001400A9BDF9F3900000200000000000000000DA
:10002400900000209000002000000000000000006C
:10003400900000200000000090000020000000005C
:1000440090000020900000209000002090000020EC
:1000540090000020900000209000002090000020DC
:1000640090000020900000209000002090000020CC
:1000740096050020900000209000002090000020B1
:1000840090000020900000209000002090000020AC
:1000940001A04111B7170040985F3AC6945F3247F8
:1000A400E39CE6FE32454101828073270080218B68
:1000B4009387018709CB7327008023A8E18698439F
:1000C4005D9B731007800F100000371700409306E4
:1000D40070052300D704930680FA2300D7040F1079
:1000E40000008346B70493F6F60DA305D704230056
:1000F4000704732600809443A18AD18E73900680EE
:1001040023A801860F100000937605026384061865
:100114000347A700118B25E773270080218B09CBA8
:100124007327008023A8E18698435D9B73100780A2
:100134000F10000037170040930670052300D70402
:10014400930680FA2300D7040F1000008346A7000B
:1001540093E646002305D70023000704F326008016
:100164009843218B558F7310078023A801860F10A5
:1001740000001307004B010001007D176DFF73277A
:100184000080218B09CB7327008023A8E186984344
:100194005D9B731007800F10000037170040930613
:1001A40070052300D704930680FA2300D7040F10A8
:1001B40000007D892314A700010001000100010053
:1001C40023000704F32600809843218B558F731076
:1001D400078023A801860F10000073270080218B5D
:1001E40009CB7327008023A8E18698435D9B731095
:1001F40007800F1000003717004093067005230096
:10020400D704930680FA2300D7040F1000000F10C0
:100214000000B726004013061005A383C680230000
:100224000704F32600809843218B558F73100780B1
:1002340023A801860F10000073270080218B09CBAF
:100244007327008023A8E18698435D9B7310078081
:100254000F10000037170040930670052300D704E1
:10026400930680FA2300D7040F1000008346B704D6
:1002740093E60608A305D704230007047327008028
:100284009C43A18BD98F7390078023A801860F10FC
:100294000000828093760504638B06140347A7004D
:1002A400418B25E773270080218B09CB73270080BE
:1002B40023A8E18698435D9B731007800F1000000C
:1002C40037170040930670052300D704930680FA7D
:1002D4002300D7040F1000008346A70093E606010D
:1002E4002305D70023000704F32600809843218BBD
:1002F400558F7310078023A801860F100000130781
:10030400007D010001007D176DFF73270080218BA4
:1003140009CB7327008023A8E18698435D9B731063
:1003240007800F1000003717004093067005230064
:10033400D704930680FA2300D7040F1000009376A5
:10034400F50193E606042314D7000100010001001F
:10035400010023000704F32600809843218B558F66
:100364007310078023A801860F1000001307600490
:100374006310E50473270080218B09CB7327008069
:1003840023A8E18698435D9B731007800F1000003B
:1003940037170040930670052300D704930680FAAC
:1003A4002300D7040F100000B72600400946B5B556
:1003B40073270080218B09CB7327008023A8E18653
:1003C40098435D9B731007800F100000371700409F
:1003D400930670052300D704930680FA2300D704FC
:1003E4000F100000B7260040130620053DB5732703
:1003F4000080218B09CB7327008023A8E1869843D2
:100404005D9B731007800F100000371700409306A0
:1004140070052300D704930680FA2300D7040F1035
:1004240000008356870093E6060C2314D700C5BB4F
:100434004111814601468145114506C6152CF32715
:100444000080A18B9386018789CBF327008023A8A2
:10045400F1869C42DD9B739007800F100000B71754
:100464000040130770052380E704130780FA2380F4
:10047400E7040F10000003C7670413671700238302
:10048400E70423800704732700809C42A18BD98F43
:100494007390078023A801860F100000B240410129
:1004A40082808146014681451145D922F327008087
:1004B400A18B1387018789CBF327008023A8F186BA
:1004C4001C43DD9B739007800F100000B71700409A
:1004D400930670052380D704930680FA2380D704FB
:1004E4000F100000FD562396D70223800704F3263D
:1004F40000801C43A18BD58F7390078023A80186AD
:100504000F100000F3270080A18B89CBF327008014
:1005140023A8F1861C43DD9B739007800F10000015
:10052400B7170040930670052380D704930680FA1A
:100534002380D7040F10000083C6670493E61600D7
:100544002383D70423800704F32600801C43A18B54
:10055400D58F7390078023A801860F10000001A097
:10056400BD473305F50201007D1575FD82804111FB
:1005740022C426C206C6AA84014463179400B2406A
:10058400224492444101828005041305803E4204C2
:10059400C13F4180DDB7B71700401307000323882C
:1005A400E702854723A0F18C73002030411106C671
:1005B400A92DFDBF2303048015472303E480010014
:1005C4002302A480828083076480E3CE07FE230392
:1005D4000480828083076480E3CE07FE0345448061
:1005E400828083076480E3CE07FE2302A480828096
:1005F400411126C44AC24EC006C61377F50BAD4757
:10060400AA892E8995446306F70019456537653F25
:100614008D444E854537FD59FD1463983401B2402D
:10062400A24412498249410182801355090113757C
:10063400F50F453F2209CDB7011126CC06CEB704EC
:10064400080051371545BD37713769372AC6A53FAC
:1006540032459377150089EB136515001375F50F73
:10066400F240E24405618280FD14E9FC0145CDBFFE
:10067400397126DC4ADA4ED852D656D45AD25ED0D4
:1006840006DE62CE66CCB7E700E07D5783AA07009A
:1006940022C603AA470023A0E71823A2E718B71726
:1006A4000040130770052380E704130780FA2380B2
:1006B400E70483C74704930B75FFB684E20793FBF3
:1006C400FB0F8546AA892E8B328937240040E187A7
:1006D400015763FA76016308D500894613070002BF
:1006E4006313D5000157D98F93F7F70FB71C004058
:1006F4002382FC0411472303E4801305F00F5D3DBE
:10070400094CD135636D7C11B7050700DA9537873D
:100714000700795563F2E504B3879500636EF70229
:10072400370B0800A94733EB65016399F90689E49F
:100734008144513D26850DA0DA850945553D0509BD
:100744000345F9FFFD14050B693D81C49377FB0F45
:10075400FDF7DD3569FD7D55B717004013077005BA
:100764002380E704130780FA2380E70403C74704C0
:10077400418B2382E704F250B7E700E023A057112E
:1007840023A24711E25432445259C259325AA25A4E
:10079400125B825B724CE24C21618280A5476395B7
:1007A400F90685691309F00FB3069900B3742B0198
:1007B400B6941349F9FFB3749900856B33796901D1
:1007C400416B9387F9FFB3F7270199E363FC340185
:1007D40093D94900C147E3E637FF99BF0569C16969
:1007E4007D19D9B71305800D6388690113050002CB
:1007F4006384790113051008CA85DD3B353D21DD8D
:100804004E99B3843441D9B7DA852D45D533CA948A
:10081400E30099F205097D3BA30FA9FED5BF938799
:10082400F9FF93F7F70F6361FC0C83C71C041307EC
:100834003008631FF70437070800636BEB04B30742
:100844009B00B706100063F5D704334BEB008947D0
:100854006393F9068980D549E38C04ECDA8509456C
:10086400413B11090327C9FF91472320E480030773
:100874006480E34E07FE23033481FD17EDFBFD1472
:10088400110B81C49377FB0FE9FF7D3371F5E1B55B
:10089400B717004003C75704B707080013770702C8
:1008A40019E3B78707007955E378FBEA33079B0020
:1008B400E3FFE7F855B58547E382F9F2DA852D457C
:1008C400053B9389F4FFE38504E6293393F7390064
:1008D40091EB832604800327090093074900E39AD8
:1008E400E6E43E89CE84F1BFB5476396F90013056B
:1008F400900BC93135BDB1471305B00AE38BF9FE3E
:1009040099476391F904B7050800B365BB002D4509
:10091400C53181448D4BA149753963967401832790
:1009240004802320F9008504E39834FF832704809E
:1009340013172B01635507002312F900D5BB23229B
:10094400F900FDB39D476399F90281451305B0048D
:100954004531BD442320090023220900FD599D3956
:1009640093F77400CA9703C70700FD14398D2380D9
:10097400A700E39634FF6DBBA1476392F9046D3978
:100984008144630D0B008D479304C0036308FB008F
:100994009304000563048B01930440041375C50795
:1009A400E30895D81945393139390545213126856A
:1009B4000D3909453D314931E31C05D669BB9147E1
:1009C4006399F90013056006F536F53E13059009A1
:1009D4000DB7E38F09D4F154A9BB19CD91CD09CE3C
:1009E40081473387F500834607003307F500850701
:1009F4002300D700E317F6FE828019C991C909CAFA
:100A0400910583A7C5FF11057D16232EF5FEC5BFED
:100A1400828001C919C62A960505A30FB5FEE31DF8
:100A2400A6FE828081473307F5000307070019E318
:100A34003E8582808507C5BF01112E8626CAAA84F9
:100A4400131506019305F004418122CC06CE32C66B
:100A5400EF00F0512A8401C53246A685BD3F2285A8
:100A6400F2406244D24405618280854715C18DC13C
:100A740005C28147B306F5003387F50083C6060037
:100A8400034707006398E6008507E315F6FE8547EC
:100A94003E8582808147EDBF9307F6FFBE952A9677
:100AA4006313C5008280FD1583C715000505A30FD8
:100AB400F5FEFDB7AA87014581CF09CE3E9685078D
:100AC40003C7F7FF6317B700E39BC7FE05458280A2
:100AD40082800145828079719387C18D22D48043BD
:100AE40006D626D24AD04ECE52CC56CA5AC85EC674
:100AF4005DCCB7C4C901014B9389418D9384F4370C
:100B0400173A0000130A8A4A973A0000938ACA4D9A
:100B140017390000130989518357240085E35C4485
:100B2400631B0B0023AEF18C832BC4002285EF00E2
:100B340070505E84B9A82326FB00FDB783A7090083
:100B440082971C443307F5406376F5000327490078
:100B54001D8F2A9763E0E4089737000023AE074807
:100B64008355240003450400974000E0E780E0BA81
:100B74005C405844A1CB0C4403264900AE97BE8682
:100B840063E4B70063E4C700B386C74014C4228B90
:100B94003A8459F097370000938707459C4B0947DF
:100BA4006370F706F917173700002327F744B2508C
:100BB400225492540259F249624AD24A424BB24BED
:100BC4004561828063150B0023AEE18CB1BF2326FF
:100BD400EB0099BF03274A0209CF63EFA7003385CF
:100BE400A74083A70A016376F5009737000023A581
:100BF400A740228B404471BF03274900BA97C5B769
:100C04009737000023AA073E5DB7411122C4173469
:100C140000001304E43F1C4006C626C24AC091C724
:100C240082979737000023A5073E9737000083C7B4
:100C3400F757858B973400009384045795C39737EF
:100C44000000A385075683C774001547637AF7002D
:100C5400052B83C77400F5178A07A2979C438297D4
:100C64001C4491C382971389818C0327090017368A
:100C74000000034676379737000083C7E73693961C
:100C84001700BA9683D60600C5CE9737000083C7EF
:100C9400A73563E1C70C97370000238707341C404E
:100CA400639507129737000083C7975091CF83C786
:100CB400740093F7F70F89EB97370000A38A074E68
:100CC400974001E0E78060D69387418D9C43638E13
:100CD400070E9737000093876735DC43173700000A
:100CE400232CF730CD3B973700009387272CDC5318
:100CF400E9CF173700001307272F184B9737000049
:100D040083C7172C6363F70C83C774001547636E9E
:100D1400F70A9737000083C7A74D918BDDE70326B9
:100D240009009736000083C6362C63C6D70A2244CE
:100D3400B240924402494101174302E06700434B29
:100D4400850793F7F70F97360000238FF628E3E41F
:100D5400C7F225BF86073E97835507002310070077
:100D64002398018C9387018E9C431735000003451B
:100D7400A52713172500BA979C43829783D7018D23
:100D8400173700000347472693C7F7FF7D8D931756
:100D94001700032709003E97835707005D8D231032
:100DA400A7009737000083C7272491C78507173703
:100DB4000000230BF722173700000347E722973779
:100DC400000083C77722E378F7ECB24022449244D0
:100DD4000249410182801397170032970357070095
:100DE4006DF7850799B7AD6737C70040BD07232660
:100DF400F7200F100000973700009387E71EC84FB5
:100E040083278726BD66BD0693C7F7FF99836A05C6
:100E14002326D7205D8D82804111B7170040985F4B
:100E24003AC6945F3247E39CE6FE32454101828034
:100E34001305F00F82800111973700009387074351
:100E440022CC03A4070C26CA06CE2AC42EC6854487
:100E540019E40145F2406244D2440561828083472B
:100E6400910003471400858B6304F7000044CDB759
:100E740019469305A10013052400C53EE31895FE09
:100E84000545C9BF1387C1991C439306001094C339
:100E940001000100010001001C4323A00700834658
:100EA400150003482500A2064208C296034805001F
:100EB400C296034835006208C29694D7834655000B
:100EC40003486500A2064208C29603484500C2963C
:100ED400034875006208C296D4D783469500034838
:100EE400A500A2064208C29603488500C29603489C
:100EF400B5006208C29694DB8346D5000348E5003A
:100F0400A2064208C2960348C5000345F500C296EE
:100F14006205AA96D4DB83C6150003C52500A20684
:100F24004205AA9603C50500AA9603C535006205C5
:100F3400AA9694CF83C6550003C56500A206420550
:100F4400AA9603C54500AA9603C575006205AA962C
:100F5400D4CF83C6950003C5A500A2064205AA9670
:100F640003C58500AA9603C5B5006205AA9694D365
:100F740083C6D50003C5E500A2064205AA9603C5AB
:100F8400C50083C5F500AA96E205AE96D4D3D44332
:100F9400F59AD4C3D44393E61600D4C3944393E69A
:100FA400160094C3BA879443D842058B59E3984EEC
:100FB40001452300E6009843184F2183A300E6006F
:100FC4009843184F41832301E6009843184F6183E7
:100FD400A301E6009C43D84F2302E600D84F2183A7
:100FE400A302E600D84F41832303E600D84F618370
:100FF400A303E60098532304E60098532183A30433
:10100400E600985341832305E60098536183A305C2
:10101400E600D8532306E600D8532183A306E6004E
:10102400D85341832307E600DC53E183A307F6008A
:10103400828001008DBF1387019A1443411122C499
:101044009C5E4AC006C6998326C2858B3A8413895E
:10105400C199D1C79C5E973400009384E41493F73C
:10106400F7F99CDE1737000003476714930700085D
:10107400631BF700832709009C4393F70704173782
:1010840000002306F71283C7040093F707048DC3F7
:101094009387418D9C4382979737000023AEA71016
:1010A40083C7040093F7F70B17370000230EF70EDE
:1010B40083C7440093F707049DE38547173700006F
:1010C400A306F70E9387C19A9C43096798C7130731
:1010D40000FC97360000238BE60CD844F8D31C4060
:1010E400985F1183058B09CB985F3D9B98DF05477B
:1010F40097360000238CE60A985F1D83058B11CB7D
:10110400985F1377F7F798DF854717370000230FA9
:10111400F70883270900D8430583058B19C7D843EB
:10112400759BD8C3D843799BD8C3B2402244924418
:10113400024941018280397106DE16DC1ADA1ED8B2
:101144002AD62ED432D236D03ACE3ECC42CA46C863
:1011540072C676C47AC27EC0F93DF250E25252534E
:10116400C2533255A255125682567247E24752482C
:10117400C248324EA24E124F824F2161730020307A
:101184009387C19A9443973700009387E70103C775
:101194000700058B11CB9737000023890700973789
:1011A4000000A3850700828003C71700058B65F73D
:1011B400F85271FF83C75700DDB71388019A0327DC
:1011C40008001C5F9583858BD1E709C61C5BBD8332
:1011D4002300F60085CA83270800985B46079357C7
:1011E40067016356070093E707C0C207C1830397EB
:1011F4000600C207C18709C7BA970947B3C7E70200
:101204002390F60085CD834715008DCB97360000DB
:1012140083C6E6F993F606041387970089478DCAB7
:101224003A9503470500854699471376F7066311F7
:10123400D60262076187B947634C07008327080019
:101244009C5FED838D8B17370000A304F7F681476D
:101254003E8582808547EDBF411122C406C61384B2
:10126400C19A18402DE9AE877453FDFE3E85B285C0
:1012740097370000238B07F2973001E0E780205076
:101284009387019A9C43B70680009843558F98C36F
:10129400D857719BD8D797370000A38907F09737A1
:1012A4000000A38307F01C40094798C31440173774
:1012B4000000130767EF83472700858B89EB83477B
:1012C4003700858BD9C397370000238107EEB240DE
:1012D4002244410182808D47631EF5009387019A61
:1012E4009C43B70680009843558F98C3D857719B89
:1012F400D8D76DBF8547E31BF5FA5447F977FD1737
:10130400F58F5CC70F1000001C40096798C71307CE
:1013140000F817360000230BE6E81387019A104300
:10132400184231830D8B11E713076019F8D3D4C722
:10133400B5BF1842094631830D8B6315C7001307E7
:10134400E043EDB71307E01BD5B7FC52ADF741B747
:101354005D71A2C4A6C22A84130680022800AE844A
:101364009305100886C6CAC04EDE52DCEFF06FEA61
:101374003545973001E0E780E07C1383019A8327A9
:1013840003009376F41F138E419B23A40700984B0C
:10139400938EC19A370FFCFF1367F70398CBF84F6E
:1013A400130510F8B7020400137707E0558FF8CF40
:1013B4009843F576FD16758F98C39843B7063300A6
:1013C400930380251377F7E798C3984311497D1F4A
:1013D4001377F7E71367071098C303270E008549AF
:1013E400930F80021C47D58F1CC783A70E001307D9
:1013F400900D3400B8CB014793553700A69583C7A9
:10140400050013767700B3D7C740858BE1C38327E4
:10141400030083280E00239C07042390070603A8D7
:10142400C8021378D8FF23A6080383A807001378FB
:10143400F70793F808F833E8080123A0070103A885
:1014440047023368580023A2070383A80E0001480B
:1014540023A2780603DA07066307480303A80703F1
:10146400038A06001358F800620813588841635829
:101474000A0103A807031358F8002380060103D8C0
:1014840007061378F80F03AA480663060A0003DA6E
:101494008705E37F49FB03A847023378E80123A2C9
:1014A400070383870600635CF40003C805003396D2
:1014B400C9001346F6FF337606012380C5003E8635
:1014C40063D3A7002A861315860161850507137760
:1014D400F70F8506E312F7F3B6402644964406490F
:1014E400F259625A616182809386C19A9C42D847BC
:1014F4001316170163550602984713161701635014
:1015040006027D57B8D7173700001307E7AD584FC9
:101514000507173600002327E6AE116798C79847DA
:101524000D83058B1DCB17370000034707C81367CE
:10153400170017360000230AE6C6130700F817360B
:1015440000002305E6C6214798C71387019A104374
:101554005856719B1367170058D69847058B0DC7CB
:1015640017370000034757C41367170017360000E6
:10157400A30CE6C2054798C71387019A104358562F
:10158400719B1367170058D698470983058B09E7A1
:1015940098470583058B21CF98471736000013061B
:1015A400A6C01385019A0983058B630307101841AC
:1015B400184331830D8B75EBAC4B184E93F5050234
:1015C40003471700CDCD79EF13077006D8CF034733
:1015D400060013671700173600002307E6BC1147FF
:1015E40098C718415C57F19B93E717005CD79C425E
:1015F40098479316370163D606029736000083C6D0
:1016040066CEC18A17370000130747C6C5CE034705
:10161400870713670702973600002385E6CC056722
:1016240098C798479316270163D10602173700001D
:101634000347C7B7620761876357070005479736B3
:1016440000002385E6B6096798C7984793160701F3
:1016540063D606029736000083C6D6C8858A173734
:1016640000001307A7C0ADCE0347970713672700F1
:1016740097360000A388E6C6216798C7828029D7D9
:1016840085456315B7001307B00689B78945631507
:10169400B7001307F0061DBF8D456315B700130788
:1016A40030072DB71307500715B71307600739BF65
:1016B400034736001367170017360000A307E6AE8A
:1016C400094739BF834687070946BD8A6388C60030
:1016D400034787078D463D8BE313D7F4114725BF96
:1016E40083469707918AC9DA0347970713678700E8
:1016F40041B7397106DE16DC1ADA1ED82AD62ED482
:1017040032D236D03ACE3ECC42CA46C872C676C42D
:101714007AC27EC0D13BF250E2525253C253325588
:10172400A255125682567247E2475248C248324E78
:10173400A24E124F824F2161730020309387C19AC9
:1017440098438567938707777CD39387419B9C4312
:1017540083A60709139656006358060083A6070953
:1017640013966600634406007453FDF2828061C1DF
:10177400AA870145DDCD8D07C207C183F19BC2074E
:10178400C18313074003636BF7021387C1A30843A4
:10179400138741A314436396A60217370000130767
:1017A400E780185B014551C74111C20706C60545CC
:1017B400DD8D0297B240014541018280138781A3E8
:1017C400F9B70357650035E303574500636FF70422
:1017D400B306F7402146637CD602032805009386AE
:1017E40087001D8FAA9661171736000003562680BE
:1017F4002392E60023A006012393060014C12312BA
:10180400F500130786FF972600002392E67E231334
:10181400B5009725000083D5857DB387F54017274C
:1018240000002316F77C210582800841ADB70145ED
:101834008280828009CD9387C1A303A30700938785
:1018440041A383A8070081469A8763E31701828036
:1018540003A807006369F50A6367A80A138787006A
:10186400E367E5FE03D66700216705076317E60013
:1018740003C741970507238AE196972500009385BE
:10188400A57603D6470003D7650023930700329754
:101894004207418317250000231BE5746388670210
:1018A400138581A308416303F50203D5660019ED8E
:1018B40083D7460023A0060121073E9621062392E2
:1018C400C600972700002394E772B6879843E30085
:1018D40017F9938681A39442E30BD7F683566700E6
:1018E400BDF683D64700035647001843A106B296B7
:1018F4002392D70098C383D76500A1071727000058
:101904002317F76E8280BE86C28781B703278511AD
:1019140063020712411122C406C68347C5008345EA
:10192400E5042A8493F7C70F2306F500834697003E
:101934000356C70013958601618563F2C508635B8E
:1019440005060345870093F6F607A304D70005466A
:1019540093E627006314C50093E617002306D4001A
:101964005C4389075CC3A30AB400032504112E86D3
:101974004C430905EFF06F86832784110346540115
:10198400D44303D7C700B296118FD4C32396E7007C
:101994008947A30DF400034764039727000083C716
:1019A40007626378F7048347C40093E707012306BB
:1019B400F40081A093E717002306F4006DB7937633
:1019C400F60F635D050203458700854513E627008E
:1019D4006314B50013E617002306C400A30AD40059
:1019E400A30407008547A30DF400832784119C43B7
:1019F400DDF3B240224401454101828093E71700A0
:101A04002306F400A30AD400A30407000325041149
:101A14004C430905EFE07FFC8327841103465401FE
:101A2400D44303D7C700B296118FD4C32396E700DB
:101A34008D4755BF054582809387C1A49C434111BE
:101A440022C406C6858B2A84C5EF4165130525F596
:101A540097E001E0E780E04A45C58347A5002315E8
:101A6400F50083270412BDE72320A4122322A41225
:101A740085472311F404232005008347640154415E
:101A84002316F5000347D4002304E5000547A30407
:101A9400E5001727000013072771184F1385170255
:101AA40015811C437D151375F50F9CC25C43DCC284
:101AB4001C479CC65C47DCC61C4B9CCA5C4BDCCAFE
:101AC4001C4F9CCE5C4FDCCE19CD938606021307C7
:101AD4000702C1BF8327441288C3835724042322E7
:101AE400A412850779B79727000083D7A7788507BD
:101AF400172700002310F778B24022444101828066
:101B04008347C40023090400054593C747002306FF
:101B1400F400DDB78347850193F7E70FC5EF8347EB
:101B24009501CDEB034625018346C50009CA8345CB
:101B34006503172700000347974863E7E50013F799
:101B4400060151CB014709C6C18A0357651C81C6EA
:101B54008356A51C369741C31307C71217250000E7
:101B64000355454DB335A70237460F0041111306FF
:101B74000624814622C426C206C67D543305A70224
:101B8400971002E0E78000439727000083C797433C
:101B9400B384A700972700009387476D03A787099D
:101BA4008327070963F387003E84184375FB9387F3
:101BB400418D9C43829781476364A400B307A4408A
:101BC400B2402244B3B7970093C7170092443E85AE
:101BD4004101828081473E8582809387C19A9843E0
:101BE4007C53FDFF8280797126D206D622D44AD056
:101BF4004ECE52CC56CA5AC85EC6834755030344D8
:101C04007513AA843E941374F40F9307400263F689
:101C140087001304B4FD1374F40F03AA841383AA76
:101C2400C413A38B841222865285D685971002E0B2
:101C3400E780C032058915E503CBD41201498149F7
:101C4400337B6403930B50024A865285D6859710E2
:101C540002E0E780A030058915C563916903137418
:101C6400F90F238B8412B250225492540259F24930
:101C7400624AD24A424BB24B456182808509E209ED
:101C840093D989410509E31179FDE1BF83278509CA
:101C940003560504797193D60701BD8EC206C1822D
:101CA400358E1357764093575640898B058B5D8F3D
:101CB40093573640918B5D8F93571640A18B5D8F60
:101CC40093171600C18B5D8F9317360093F70702A5
:101CD4005D8F931756009355860093F707041E06ED
:101CE4005D8F1376F60F518F93D7554013D6354039
:101CF400118A898BD18F13D67540D18F13D6154095
:101D0400218AD18F13961500418AD18F13963500FD
:101D140013760602D18F13965500137606049E059A
:101D2400D18F93F5F50FCD8FA20745465D8F33070D
:101D3400C70222D42A8426D252CC56CA032A841338
:101D4400832AC4135AC806D6369742074183935749
:101D54007740135557400989858BC98F13553740F0
:101D64001189C98F135517402189C98F131517007D
:101D74004189C98F1315370013750502C98F1315CF
:101D8400570093558700137505041E07C98F1377F1
:101D9400F70FD98F13D5354013D755401189098BC7
:101DA400498F13D57540498F13D515402189498F23
:101DB400139515004189498F139535001375050254
:101DC400498F13955500137505049E05498F93F5A6
:101DD400F50F4D8F2207D98FB387C7024AD04ECE55
:101DE4005EC662C4B697C207C18313D7774013D5C2
:101DF40057400989058B498F13D537401189498F7D
:101E040013D517402189498F139517004189498FAC
:101E14001395370013750502498F1395570093D511
:101E24008700137505049E07498F93F7F70FD98F21
:101E340013D5354013D755401189098B498F13D5D4
:101E44007540498F13D515402189498F1395150085
:101E54004189498F1395350013750502498F1395F0
:101E64005500137505049E05498F93F5F50F4D8FA5
:101E74002207D98FB387C702130650025285D6852D
:101E8400B697BD8E93940601C18033F6C402137BCA
:101E9400F60F971002E0E780600C05890DED83478B
:101EA400D41201498149B3849702130C5002C180B2
:101EB4004A865285D685971002E0E780200A058974
:101EC400937BF90F11C563863403850993F9F90FE0
:101ED4000509E31F89FD230B6413B2502254925465
:101EE4000259F249624AD24A424BB24B224C4561F2
:101EF40082805E8BCDB7797122D406D683C7350034
:101F04002E8423160100A307F10083C7450010089F
:101F140002C02307F10083C755008A8502C2A306C5
:101F2400F10002C402C802CA02CC02CEEFE09FF55F
:101F34000347F1018347040001456310F702034797
:101F4400E1018347140001456319F7000345D101FA
:101F5400834724001D8D13351500B250225445616A
:101F640082800111972700009387473022CC03A475
:101F7400870C26CA4AC84EC606CEAA841309250071
:101F8400854915C083C7140003473400858B630457
:101F9400F700405CFDB71946930544004A85EFE01D
:101FA400DFACE31835FF2285F2406244D244424953
:101FB400B249056182804111972700009387072B5E
:101FC40022C403A4870C26C24AC006C69304250073
:101FD400054901E82285B240224492440249410164
:101FE4008280A6851305A4023937E30525FF405CEA
:101FF400CDB74111972700009387472722C403A434
:10200400870C26C24AC006C693042500054901E888
:102014002285B24022449244024941018280A6852D
:102024001305A401C93DE30525FF405CCDB70000BD
:1020340097110020938141CC17610020130141FCCA
:102044001305400097E5FF1F938585FB17060020C5
:10205400130606FE63FAC5008322050023A055007B
:1020640011059105E3EAC5FE173502001305452461
:10207400970500209385C5FB1386018763FAC50085
:102084008322050023A0550011059105E3EAC5FE4E
:1020940013850187972500209385C52F6377B500A5
:1020A400232005001105E36DB5FEFD42739002BCCB
:1020B4008D4273904280930280087390023097E2BD
:1020C400FF1F9382E2F393E232007390523037178A
:1020D4000040930770052300F704930780FA230058
:1020E400F7040F1000003C47B70600FAE116F58F1D
:1020F400B70600069506D58F3CC797220000938249
:10210400822273901234730020303D432A87637314
:10211400C3029377F700BDEFADE5937606FF3D8AE2
:10212400BA960CC34CC30CC74CC74107E36BD7FE2C
:1021340011E28280B306C3408A0697020000969695
:102144006780A6002307B700A306B7002306B700DD
:10215400A305B7002305B700A304B7002304B70001
:10216400A303B7002303B700A302B7002302B700F9
:10217400A301B7002301B700A300B7002300B700F1
:10218400828093F5F50F93968500D58D939605017E
:10219400D58D61B7939627009702000096968682A4
:1021A400E78086FA9680C1171D8F3E96E374C3F8C4
:1021B400A5B7B717004003C777051377E70FA38BBD
:1021C400E704130700F8A38DE7043D47238CE704D5
:1021D40013075003A38CE7048280B717004083C71A
:1021E400E7020D8993F7C70FC98F73270080218BEE
:1021F4009386018709CB7327008023A8E186984240
:102204005D9B731007800F10000037170040130602
:1022140070052300C704130680FA2300C7040F10B7
:1022240000002307F70223000704732700809C4261
:10223400A18BD98F7390078023A801860F1000000B
:10224400828041112A83014E930E407E130F0019A0
:10225400930F400663E66E149308001913034006B7
:10226400B3781503854E0D4FA14F337365020D8965
:102274001335150063E0BE161308F6FF794672980D
:102284004208135808013307C70213D61700BE07C4
:1022940032976146B3F6C60213068070B386C6024F
:1022A4003697A166F58F42075D8FB716004083C746
:1022B400F60293F70708A307F1000346F10083C76A
:1022C400F60293F70708E394C7FE8347F100B716B5
:1022D400004093F7F70F63890714F3270080A18B5D
:1022E40093860187639807140F100000B717004006
:1022F400130670052380C704130680FA2380C704DD
:102304000F10000023AA070303C617031366060869
:10231400A388C70223800704732600809C42A18BF4
:10232400D18F7390078023A801860F1000001166D7
:10233400B71500407D16DC59C85DA98FF18FE5FF04
:10234400F3270080A18B89CBF327008023A8F18693
:102354009C42DD9B739007800F100000B71700406C
:10236400130670052380C704130680FA2380C7046C
:102374000F100000D8DB03C7170313670704A388F3
:10238400E70223800704732700809C42A18BD98F26
:102394007390078023A801860F10000041018280FA
:1023A4007D133368E3039308E016630E0800336873
:1023B400F3039308D016630808009378330093B8A6
:1023C40018009388D81633081E01131E0801135EE3
:1023D4000E0149B56393E503054863860800014887
:1023E400630303002A8871087298FD15131E0801FF
:1023F400C205135E0E01C181B5BD13F8150063F467
:10240400BF007908D5B713381800E5BF83C7F602B3
:1024140093F70708A307F1000346F10083C7F60208
:1024240093F70708E394C7FE8347F10093F7F70F88
:10243400F1DF65B5F327008023A8F1869C42DD9B7C
:102444007390078055B55971E2C486D6A2D4A6D23A
:10245400CAD0CECED2CCD6CADAC8DEC6E6C2EAC06C
:102464006EDE2A8C02D6EF001016F3270080A18BB3
:10247400138D018791CBF327008023A8F18683274E
:102484000D00DD9B739007800F100000B71700400C
:10249400130770052380E704130780FA2380E704F9
:1024A4000F10000003C7F7021377770FA387E70223
:1024B40003C7F70213678700A387E7022380070493
:1024C4007327008083270D00A18BD98F7390078019
:1024D40023A801860F100000F3270080A18B91CB65
:1024E400F327008023A8F18683270D00DD9B7390DA
:1024F40007800F100000B7170040130770052380F2
:10250400E704130780FA2380E7040F10000003C7D1
:10251400E7021377C70F2387E70203C7E7021367AE
:1025240017002387E702238007047327008083278B
:102534000D00A18BD98F7390078023A801860F10FB
:102544000000130780C13347E5029169938709E8C6
:10255400130650023D69B7440F0093840424856B2D
:10256400130BA004014A814A13047005FD19B347F3
:10257400F5023307C7023EC2930709A61309803E3A
:102584003347F7023AC43347250305493319890110
:10259400135939403345950293840BFAB39484015B
:1025A400811B3306C702B346F6023309E90236C675
:1025B400330B670313076055B3049502130500102A
:1025C4003309E902B346FB02130B80FAB3C4A40235
:1025D40036C8B347F902939634003719004036CC15
:1025E400930409043ECA73260080218A11CA732603
:1025F400008023A8C18603260D005D9A731006800F
:102604000F100000930770052380F40023806401F9
:102614000F100000034639051376860FA309C90479
:102624000346390513661600A309C9042380040070
:102634007325008003260D00218A498E73100680BD
:1026440023A801860F100000916CE17D73260080A1
:10265400218A11CA7326008023A8C18603260D008F
:102664005D9A731006800F10000093077005238095
:10267400F400238064010F1000000346390513663B
:102684000602A309C90403560905336696012318F3
:10269400C904035609053366B6014206418223186C
:1026A400C904238004007325008003260D00218AB9
:1026B400498E7310068023A801860F10000003467C
:1026C4003905137606026305061603463905218A81
:1026D4006DDE6810152F73260080218A11CA7326B7
:1026E400008023A8C18603260D005D9A731006801E
:1026F4000F10000023808400238064010F10000069
:10270400034639051376F60DA309C90403463905B2
:1027140013660602A309C904035609053366960124
:102724002318C904035609053366B60142064182DB
:102734002318C904238004007325008003260D0098
:10274400218A498E7310068023A801860F10000089
:102754000346390513760602630806100346390555
:10276400218A6DFE97E0FF1FE780A0922A8632CE71
:1027740097E0FF1FE780E0917246E30AC5FE035627
:1027840009053255336696012318C904712D034691
:102794003905218A6DDE035509050346290592474B
:1027A40033F5A9003386C90232951D8DA24763D53E
:1027B400A700B2476346F50E09466365560FC24744
:1027C400850A1316150093FAFA0F3346F60263547A
:1027D400A03A050609453346A602732500802189DF
:1027E40011C97325008023A8A18603250D005D99D6
:1027F400731005800F10000023808400238064017F
:102804000F1000000355C9022A964206418223167E
:10281400C902238004007325008003260D00218A49
:10282400498E7310068023A801860F10000039BD5D
:1028340073260080218A11CA7326008023A8C186CA
:1028440003260D005D9A731006800F10000023808C
:102854008400238064010F100000034639051366C9
:102864000602A309C90435BD73260080218A11CA52
:102874007326008023A8C18603260D005D9A731079
:1028840006800F10000023808400238064010F1051
:1028940000000346390513660602A309C90459BD9D
:1028A400E38F0AF073260080218A11CA7326008000
:1028B40023A8C18603260D005D9A731006800F10AD
:1028C400000023808400238064010F10000003466D
:1028D40039051375FC0F1376860FA309C904034643
:1028E4003905498EA309C904238004007328008094
:1028F40003260D00218A336606017310068023A87F
:1029040001860F100000034639051D8A63178627C8
:1029140073260080218A11CA7326008023A8C186E9
:1029240003260D005D9A731006800F1000002380AB
:102934008400238064010F100000034639051165EB
:102944001376F60DA309C904034639051366060276
:10295400A309C90403560905498E2318C90403565B
:1029640009052165498E2318C904238004007325B1
:10297400008003260D00218A498E7310068023A847
:1029840001860F1000000346390513760602630E14
:10299400062003463905218A6DDE6810B5217326A9
:1029A4000080218A11CA7326008023A8C1860326C9
:1029B4000D005D9A731006800F10000023808400C0
:1029C400238064010F100000034639051165137656
:1029D400F60DA309C9040346390513660602A309C3
:1029E400C90403560905498E2318C9040356090569
:1029F4002165498E2318C9042380040073250080AF
:102A040003260D00218A498E7310068023A80186AF
:102A14000F10000003463905137606026303061CF3
:102A240003463905218A6DFE97D0FF1FE780606653
:102A3400AA8C97D0FF1FE780C065E30C95FF03566F
:102A440009051165498E32552318C904F12E034630
:102A54003905218A6DDE73260080218A138501875A
:102A640009CA7326008023A8C18610415D9A731099
:102A740006800F10000023808400238064010F105F
:102A84000000034639051376F60DA309C904238013
:102A94000400732800801041218A336606017310F4
:102AA400068023A801860F10000003580905034679
:102AB4002905E24733F809013386C90232983308FD
:102AC400F8401306800C3306C802D2473346F60298
:102AD4006355001505060948334606036351C014BF
:102AE4000358C9029308F00F13585800329863D65C
:102AF400081F094663734619F3270080A18B89CB0D
:102B0400F327008023A8F1861C41DD9B7390078086
:102B14000F10000037170040930770052300F704D7
:102B2400930780FA2300F7040F1000008356C702AE
:102B340089678117D58FC207C1832316F702230043
:102B44000704732700801C41A18BD98F73900780E1
:102B540023A801860F100000B65026549654065937
:102B6400F649664AD64A464BB64B264C964C064D19
:102B7400F25D656182807D16B1B973260080218A79
:102B840011CA7326008023A8C18603260D005D9A0E
:102B9400731006800F1000002380840023806401DA
:102BA4000F100000034639052DBB73260080218ACF
:102BB40011CA7326008023A8C18603260D005D9ADE
:102BC400731006800F1000002380840023806401AA
:102BD4000F1000000346390513660602A309C90451
:102BE40069B373260080218A11CA7326008023A842
:102BF400C18603260D005D9A731006800F10000035
:102C040023808400238064010F10000003463905EB
:102C140013660602A309C904C5B37D166DBD55CE5E
:102C24000358C902B308C040135858006357180B1F
:102C3400094663744605F3270080A18B89CBF327EB
:102C4400008023A8F1861C41DD9B739007800F1040
:102C54000000B7170040130770052380E70413072B
:102C640080FA2380E7040F10000003D7C7027D8B8E
:102C74002396E70223800704E9B573260080218A9E
:102C840009CA7326008023A8C18610415D9A731077
:102C940006800F10000023808400238064010F103D
:102CA40000000356C9021376F60F33667601420616
:102CB40041822316C9022380040073280080104136
:102CC400218A336606017310068023A801860F103B
:102CD4000000050A137AFA0F39B2F3270080A18B9A
:102CE40089CBF327008023A8F1861C41DD9B7390D8
:102CF40007800F100000B7170040130770052380EA
:102D0400E704130780FA2380E7040F10000003D7B9
:102D1400C70216063A96420641822396C70299BF15
:102D2400914763EEB702172702001307A7A28A058B
:102D3400BA959C41BA978287B717004003A7470BFF
:102D44001345F5FF698F23AAE70A03A7070B698FC9
:102D540023A8E70A03A7070A798D23A0A70A82807C
:102D6400B717004083A6470B1347F5FFF98E23AA34
:102D7400D70A83A6070B558D23A8A70A83A6070A9B
:102D8400758F23A0E70A8280B717004003A7470B7B
:102D9400498F23AAE70A03A7070B1345F5FF45BF8D
:102DA400B717004083A6470B1347F5FF758F23AA77
:102DB400E70A03A7070A598D4DB7B717004003A7C1
:102DC400470B498FEDB7B717004003D5870042057D
:102DD40041819377050491EB9377F5013755E80129
:102DE400130505803345F50282809377050C13079C
:102DF40000046397E7009377F50137459C1CCDB732
:102E04002165130505D0828037E700E01C43544355
:102E1400A183E206D58F1CC1FD572320F718232276
:102E2400F7180F100000828013178500B7E700E041
:102E340023A0E710618123A2A7108280B7F700E0E6
:102E44008847CC478280814737370040A14663C416
:102E5400C700328582800345B740E38EA6FE3385E2
:102E6400F5000345050085072304A740CDB797F770
:102E7400FF1F938767689C43171700201307875128
:102E84003E95636EE50017570020130767F76368E4
:102E9400A70017F7FF1F2321A7663E858280FD57F1
:102EA400EDBF411122C406C62A84313F2947B30726
:102EB400E502B2408D83B3D7870222449507B3D786
:102EC400E70237370040C207C1832316F7404101A8
:102ED4008280716541111305052006C6D937B737BD
:102EE4000040130770F82381E7400D47A381E740B2
:102EF40013070004A380E74005472387E740B24057
:102F040041018280938701889C43411106C691C385
:102F14008297938741889C4391C3829703D76180AA
:102F24009307C01263F7E70403D581809306B012B8
:102F340063E4A6049386C18703A306006307030022
:102F4400B2401305C012410102830507098F33857E
:102F5400A740E5473305F5024207418309839307F8
:102F6400F7FF3E953345E5021375F50FB240410175
:102F7400828013054006DDBF0145CDBF03A845008F
:102F8400411126C206C622C483471800034808001C
:102F9400A944A207B3E70701C2070D68C187130854
:102FA40028906396070385473284EF60907DAA8456
:102FB40019ED938781879C4399CB034514000347FC
:102FC40004002205598D1335150005058297B2407A
:102FD400224426859244410182802D453DE7D84113
:102FE400411122C426C206C68347170003470700BF
:102FF400B684A207D98F0D67930697A1328463968E
:10300400D702093783C741806374F5002382A18006
:1030140085472390F40083C741802300F4000145D1
:10302400B24022449244410182801307879029458B
:10303400E398E7FECC4589472390F40009462285AE
:1030440097E0FF1FE7806099D9BF828083474500DE
:10305400858BADC7011122CC2A84035525009385A5
:1030640081A606CEEF60B06C058929C503552400FE
:10307400014781460546ED45EF60D0252AC61DC9A6
:1030840097F7FF1F9387C7FA83D7A70201462C003F
:103094002314F10085472315F10083C741802300E1
:1030A400F50003552400EF70704509C5ED4528006F
:1030B400EF60103AF240624405618280828041658B
:1030C4004111938581A67D1506C6EF80B032B240CA
:1030D40097F6FF1F9386C6FA4146954517F5FF1FDD
:1030E400130505F541016F80102623ACA18682806B
:1030F400411122C406C6854709446311F50283477A
:1031040006000144238AF18603C741806378F700EF
:10311400170500001305C5F3EFA010682285B2401F
:1031240022444101828085476301F50209C90947A8
:103134006302E5020D476306E5020945828083C701
:1031440041802380F500014582809387418783C7AE
:103154000700C5BF97F7FF1F83D727EE2390F5001D
:10316400DDB71387C180035707002392E50017F7E3
:10317400FF1F1307E7EB8356A7020357A703238315
:10318400F5002390D5002391E50075BF411106C6D3
:10319400953B83C74180637AF5002382A18017059C
:1031A40000001305E5EAEFA0305FB240014541019C
:1031B400828041677917630CE502411122C406C677
:1031C40085472A84639AF50022852244B240938578
:1031D40081A641016F80102289476396F5008545D9
:1031E400EFA0105675D1B240224441018280828002
:1031F400CC41411106C6328503C6150083C50500BE
:1032040022064D8E42068D654186138875A2630C95
:10321400060F6348C804138845A26306060B634A75
:10322400C800938535A26309B60623900600294693
:1032340079A0138855A26308060B938565A2E3164B
:10324400B6FEC1451D4663ECE5064546198E63F39B
:10325400C7003E862390C600971502009385C5518A
:1032640089A8138895A26300060F634E060B138882
:10327400A5A2630A060F938505A5E318B6FA994536
:103284001D4663EEE502198E63F3C7003E86239064
:10329400C6009385418131A89D451D4663E1E50241
:1032A4002146198E63F3C7003E862390C60093859A
:1032B4008188BA9597D0FF1FE78020720146B240FB
:1032C400328541018280AD451D46E3EAE5FE314683
:1032D400198E63F3C7003E862390C600971502003B
:1032E4009385454DF9B7B1451D46E3EAE5FC3546FE
:1032F400198E63F3C7003E862390C600971502001B
:103304009385454C7DB7C1451D46E3EAE5FA45463C
:10331400198E63F3C7003E862390C60097150200FA
:103324009385C54679B7C1451D46E3EAE5F84546A8
:10333400198E63F3C7003E862390C60097150200DA
:1033440093854549BDB7C1451D46E3EAE5F64546C3
:10335400198E63F3C7003E862390C60097150200BA
:1033640093850544B9B7B5451D46E3EAE5F4394606
:10337400198E63F3C7003E862390C600971502009A
:103384009385853E3DB797F6FF1F938626E3414616
:10339400CD4517F5FF1F130565CF6F80C07A828076
:1033A4009387418A9C4303C7818983C6318201E79D
:1033B40081473E85828003D607006316A60003C6B4
:1033C4006700E308D6FE7D171377F70FA107C5B78B
:1033D400B2862E86AA8517150200130565446F0070
:1033E400C2010111930500030D4506CEEF30006ABA
:1033F400930500051145EF3060699305C003054549
:10340400EF30C06885471306F10085451305503039
:10341400A307F100EF70A13CF2400561828085476B
:10342400631AF5001166130686A9894503C59189B7
:103434006F10E04489476317F500894503C59189F6
:103444006F100065828085476398F50019E223892F
:10345400B1882384C18A828009476399E50019E60B
:103464002389F18803D501896F00A07B828093872B
:10347400C1899C43011122CC06CE2E8481CB9C476A
:1034840091C78297F2406244056182806C00130503
:103494007040EF50312C324681452285EF50F16D5A
:1034A400D5B701119397050126CA06CE22CC4AC886
:1034B4004EC652C4C187AE8463D7070803C5918939
:1034C400EF0030742A8439C9034705009307000DBF
:1034D4006313F704834725004547638BE704654777
:1034E400639BE7021715020013050530EFF0F17036
:1034F400130954009309B400171A0200130A0A307E
:103504008345090052850509EFF0316FE39A29FFDD
:103514002945EFF091722285EF0090672165258D92
:10352400F2406244D2444249B249224A056182804F
:103534000346650083457500171502001305852CA5
:10354400EFF0B16BC9BF93F7150085C317F6FF1FE2
:10355400130646C897F5FF1F938505C703C59189D0
:10356400EF60F17D13C5140065BF93F72500014595
:10357400C5DB29391166130686A9894503C59189D6
:10358400EF10E02F13C5240061BF797126D24ECE0F
:1035940006D622D44AD052CC9147AA84AE89631469
:1035A400F50483D7A5001306E100854513055030C3
:1035B4002398F1882307010023890188EF702122D1
:1035C4009387C1899C4391C7DC4781C7CE852685F3
:1035D4008297B250225423AA918802599254F249F4
:1035E400624A45618280138741891843E31AF7FCD4
:1035F400854503D50189753E854503D50189412556
:10360400C16703DA0189F917631BFA0205449305BC
:10361400E1001305504123890188A3818182230796
:103624000100EF5031138347E100B1E303C7818AFE
:103634009147E317F7F875332384018A51B79387C9
:10364400418A03A9070003C4818969D0035529006D
:1036540011C99305E100EF60F07209C54C4552852C
:10366400EF8040597D141374F40F2109F9BF938737
:10367400018A9C4383C74700898BCDDB9305000AED
:103684000D45EF30A0409305000A1145EF3000408E
:1036940081450545EF30803F1306E100854513055C
:1036A400503023078100EF70811349B701111705CA
:1036B4000000130545DF06CE22CCEF100061138411
:1036C400918985471306F10085452300A40013055D
:1036D4004041A307F100EF50F1707D55EF60C00742
:1036E4007D55EF80004E4531D93A19231705000066
:1036F400130525D3DD3A17050000130585CA392BB8
:10370400034504008545EF10C000F24062440561A2
:10371400828023AEB18823A0A18A828023A2B18AA9
:10372400238CA1888280938741899C43797106D632
:1037340022D426D24AD04ECE52CC1147639BE70402
:1037440083C72189414481CF9387418A8043B284CE
:10375400B68983C7818903C7318299EB5544228591
:10376400B250225492540259F249624A456182800D
:1037740083464400639AA600834654006396B600C9
:10378400834664006380E606FD1793F7F70F210470
:10379400E9B709474144E384E7FC2C001305504191
:1037A40023040100EF50017B834781008DCB9305F7
:1037B40000020D45EF30802D930500031145EF30D5
:1037C400E02C95450545EF30602C85473000854554
:1037D400130550302304F100EF70610049B7113133
:1037E4004144B5BF0355240093056100EF6090592F
:1037F40035D54C4503D50189EF606073058939DD02
:103804001399040113590901014781464A86ED457C
:1038140003D50189035A0400EF60C02B2AC64D4426
:103824001DDD2686CE85231441012315210197D061
:10383400FF1FE780801A01462C0003D50189EF7031
:10384400E04B2A84E30D05F0ED452800EF6040408D
:1038540039B7C841011122CC06CE32840346150083
:10386400034505002206498E19CB0D681308B8A438
:103874002D4563090607F2406244056182800D65A7
:103884001308D5A463000603130825A2630C0601DC
:1038940075781308E85C3298420813580801854883
:1038A40063EE080303D5A50036C632C4D53CB24640
:1038B40015C19387C1899C4322468345550003A3C0
:1038C4000700A2876244F2400345450036878546D7
:1038D4000561028323900600014571BF1308B5A456
:1038E4006317060303D661821D45E376C7F8198E74
:1038F40063D3C7003E86CC452390C600420641826E
:10390400BA95228597D0FF1FE780200DF1B7930762
:10391400A5A46318F60091472390F6001146CC4500
:10392400CDB7930785906317F60089472390F60077
:103934000946F5B79307E5A4631AF600DC4523901E
:10394400160183C707002300F40079B713057590A7
:10395400E314A6F8D9BF011122CC06CE26CA4AC860
:103964002317D1002D4429EBDC412E89B28403C4F2
:10397400170083C7070022045D8C8D679386D7A444
:103984006306D400938627A3631FD4020355A900BA
:10399400013C19E101440DA09387C1899C438345EF
:1039A40055000345450003A807002286A687130790
:1039B400E100814602982A842285F2406244D2447E
:1039C4004249056182809386C7A46314D402835755
:1039D400E10005473544E391E7FE0345060013047F
:1039E4000008E3EBA7FC9387C1899C43DC438297DF
:1039F40055B793862790631AD4028356E10085470E
:103A0400EF6020582A844DF99387418A8356A90090
:103A14009C4303C781893DDF03D627006302D60494
:103A24007D171377F70FA107FDB79387E7A4E31377
:103A3400F4F68357E10005473544E39FE7F6034571
:103A4400060013040008E3E9A7F6DC452380A70079
:103A54009387C1899C433335A0000905DC4341BFEA
:103A64001387C189184303C5470083C5570083C71B
:103A740014000328070003C70400A2078946D98F4E
:103A8400C207C18705476383E7008D460D66A68795
:103A94001307E10013062690029839BF41654111CE
:103AA400938581A77D1506C622C426C24AC097E421
:103AB400FF1F9384E472EF80E01397F6FF1F938651
:103AC40026844146C9452685EF80E007CC4C2A89E7
:103AD4000945EFF04FE59387018383D707001384EB
:103AE40081A81387C1822312F40083D7A40C03573F
:103AF4000700938581A92310F40083D7A40D23160E
:103B0400E40003D7A4102311F4000D4585472303D3
:103B1400F4002314E4002307F40023150400EFF059
:103B24008FE0A2850D45DD3EB24022444A85924491
:103B34000249410182808D679387D7A40145631FA1
:103B4400F6008D472945639BF50085473545639706
:103B5400F6008347070001452385F18A82808D673B
:103B64009387D7A4631EF6008D47639BF50083C734
:103B7400A18A2300F70085472390F600014582803F
:103B840023900600E5BF0145828025E303A8450094
:103B9400AE888347180003480800A207B3E707016B
:103BA4000D68930EF8A4639AD70391473548639F31
:103BB400F60203A5C8004111B285114606C697D086
:103BC400FF1FE78080E19387818B9C4305458297A3
:103BD400B2400148428541018280930828902948D7
:103BE4006396170185476F60C0392D4842858280EE
:103BF40041654111938501AA7D1506C6EF70907F3A
:103C0400B24097E6FF1F938666764146994517E5CD
:103C1400FF1F1305A56F41016F70F07223ACA18AD9
:103C240082800111938501AA22CC06CE2A84EF60FA
:103C34000030058929C1014781460546ED452285A5
:103C4400EF5050692AC605C997E7FF1F9387076C91
:103C540083D7A70501462C002314F10085472315BB
:103C6400F100230005002285EF70400909C5ED45E8
:103C74002800EF50F07DF240624405618280416784
:103C84007917630CE502411122C406C685472A84CC
:103C9400639AF50022852244B240938501AA41012A
:103CA4006F70507589476396F5008545EFA04029EC
:103CB40075D1B240224441018280828011456FE077
:103CC4008FF8411193962500AA852D4506C697D0F5
:103CD400FF1FE780E099B240014541018280411114
:103CE40026C29394250022C44AC02A843289A68617
:103CF400AA850146254506C697D0FF1FE780409751
:103D0400A6864A86A285294597D0FF1FE78040965C
:103D1400B24022449244024901454101828001118A
:103D240022CC06CE3714004026CA4AC84EC652C416
:103D340083447405034AB4058349840503499405FF
:103D4400EFE02FC78347A40593F4F40F137AFA0F17
:103D540093E71700230DF40493F9F90F1379F90F7E
:103D6400B717004003C7A705058B6DFF03D5C7052B
:103D7400A38D4705238C3705A38C2705A38B9704B4
:103D8400F2406244D2444249B249224A05618280E7
:103D940041119397050122C406C6C1872E8463DBB3
:103DA4000700852511C1ED232165218DB2402244F0
:103DB4004101828093F7150013C51500E5FB939725
:103DC400250163D00702EF100105CD3D37F602004F
:103DD400130606E0896503C5C18BEF00502A096507
:103DE400E9B7939715010145E3D207FC17150200C3
:103DF4001305C5ACEFF0A17413060064916503C507
:103E0400C18BEF00D02711654DB71D714946971539
:103E14000200938525A617150200130565DD86CEDD
:103E240097D0FF1FE78060C401E91715020013054E
:103E3400A5A5EFF0C17001A0B7F600E0795798CAC4
:103E4400FD57DCCA0567B7E700E023A0E7101306B7
:103E5400F00290C223A0E7180F1000001306C0035D
:103E64008145480897D0FF1FE780A0BA97F7FF1F46
:103E7400938787933ECA896793870780231CF10041
:103E8400B5472304F102A167938707E03ECEB70745
:103E94000105938707103ED0ED472312F1028547B1
:103EA4002303F102970700009387E7E1BEC4970755
:103EB4000000938707E3BEC68567938717D0231551
:103EC400F10297F7FFFF9387A7F73EDAB7F50700EC
:103ED400970700009387E7E43EDE814697070000DA
:103EE400938707DE7000E1051945BEC097C0FF1F28
:103EF400E780007858088147994670003E9603464B
:103F0400060085070507A30CC700E398D7FED24730
:103F140091C70357810185676373F70001A04808BF
:103F2400EF00305EAA8501C9171502001305059735
:103F3400EFF0A14C01A0F6402561828041111705E4
:103F44000000130525E506C622C4EF0010581384AB
:103F5400C18B2300A4001928034504002244B24065
:103F640013060032896541016F007011411106C6C4
:103F7400F3270080A18B1387018789CBF327008067
:103F840023A8F1861C43DD9B739007800F1000006B
:103F9400B7170040930670052380D704930680FA70
:103FA4002380D7040F10000083C6F70293F6A60FF0
:103FB400A387D70223800704F32600801C43A18B28
:103FC400D58F7390078023A801860F100000F32774
:103FD4000080A18B89CBF327008023A8F1861C43A2
:103FE400DD9B739007800F100000B7170040930605
:103FF40070052380D704930680FA2380D7040F101A
:10400400000083C6F70293E62600A387D702238025
:104014000704F32600801C43A18BD58F739007807F
:1040240023A801860F1000000545EFE00F9B7931AE
:104034001305407E81470147814605468545EFE0EB
:104044004FA0B240014541016F10000082803D89BC
:104054007D15954763EAA70E1717020013074786D5
:104064000A053A951C41011106CEBA9782872C00A5
:1040740013054030EF60E1662C000545EF40D03574
:104084001715020013054588EFF0614B11A803C70B
:1040940025008D471715020013050588E306F7FE72
:1040A400F2400561828003C725009547E31AF7FEB5
:1040B40083D7A5000D6613060620914503C5E18349
:1040C400239EF182EF00A07B171502001305C5851E
:1040D40065BF03C725008D47E314F7FC17150200DD
:1040E4001305458555B783C72500114717150200E9
:1040F4001305C585638EE70219476394E70283C5F8
:1041040065001715020013052586EFF0012F85477A
:1041140030008545130550302304F100EF60216C15
:1041240041B71547E395E7FE17150200130585858A
:10413400EFF0E140E9BF83C5250017150200130520
:10414400E585EFF0812BA9BF82803A883E8789E616
:10415400834608006FF03F9E85476395F600C2864C
:104164006FF0FF9F8947639FF60041111306401FBC
:10417400894503C5E18306C6EF006070B24001457E
:10418400410182800145828001119397050122CC6F
:1041940006CEC1872E8463DD070003C5E183952421
:1041A40011C1FD222165218DF240624405618280A6
:1041B40093F7150013C51500E5FB93F7450099CF58
:1041C40083C7E1831307401F81462146A14503D5D8
:1041D400C183EF60213013454400F9B793F785009C
:1041E4009DC3014789460946814503D5C183EF60D4
:1041F400710AAA85170502001305056EEFF0E11F89
:104204001345840055B793F725000145D1DFB7075F
:104214000200938707207400114685453EC6EFF0DF
:104224008FD013060032894503C5E183892D1345D8
:1042340024009DBF011117050000130525F506CEC6
:1042440022CC26CAEF0070289384E183054423809E
:10425400A400700085451305503023068100EF60EB
:10426400015817E6FF1F13062611C94513056030D0
:10427400EF60E15617E6FF1F13064612BD4513050E
:104284007030EF60C1551706020013066666D54507
:104294000145EF50003B8D47700091451305704078
:1042A4002305F10023048100A305810002C6A304B1
:1042B4000100EF5021333000854513050040EF50D5
:1042C400613213069100854513051040EF5081318A
:1042D4001306A100854513052040EF50A1301306B5
:1042E400B100854513055040EF50C12F9947700028
:1042F400854505452306F100EFE09FDFEFF00FFA57
:1043040097E5FF1F9385850813854183EFF06FC000
:1043140003C504008545F52EF2406244D24405618C
:10432400828041111305800406C697C0FF1FE780F1
:10433400C0D7371700408327870A8D45130500200F
:1043440093E707202324F70AEFE09F9DEFE07FB86F
:10435400171502001305C589EFF0611E7D34F93E7F
:10436400EF608173EFF08FB4F13597C0FF1FE780E2
:10437400E02323AC05FE1C4191E7010001000CC1C0
:104384008280BA8703A787FF6DFF23ACB7FE8280C4
:104394001DC18346E5FF1307F00F9147639EE600B6
:1043A400411106C697D0FF1FE780C048B24081473D
:1043B4003E854101828095473E85828001E9014521
:1043C40082800145B24022444101828095654111B9
:1043D400938505D022C4C98D2A842105C2054205CE
:1043E400C181418106C697D0FF1FE780403871D94B
:1043F400FD5723200500231285002303F500210522
:10440400D1B71387418C1C43411122C426C24AC030
:1044140006C601440149BA8489E7A165952D0DC4F6
:1044240001A803C7E7FF6318A7021DC8A165D52427
:104434009840832784FF6317E40223A2F18CFD577D
:10444400232C04FE230FF4FE2285B240224492441E
:1044540002494101828011E03E8983A787FF6DBF35
:104464003E84E5BF232CF9FED9BFA1CD411122C45E
:1044740006C62A849707002083C7D7B62E8563759E
:10448400F400894763E8870021370D45B240224490
:104494004101828083A785FF99E703C7E5FF93075E
:1044A400F00F6305F700ED351545CDB7238F85FE75
:1044B4001385418C7D3D22852244B240A165410192
:1044C40089AC1545828023A2018C82809387C18D9B
:1044D4009C4399E33E85828003D727006316B70087
:1044E40003C70700E308A7FEDC47E5B7BDCD797134
:1044F40022D406D626D24AD04ECE01444147B3D761
:104504008540858BB1CF1205314722953305E502ED
:104514009387C18C03A907008544B3948400C20423
:10452400C180BE892A990327090011C703254900C0
:104534002EC60297B24531473304E40283A709002B
:104544003E941C4489E72320090023220900B25029
:104554002254A58D02599254F2492E8545618280D8
:104564000504E31EE4F88144DDB72E858280411101
:104574001397050122C406C626C24AC041872E8469
:10458400635E0700BD3D11C12135A1673D8C2285C5
:10459400B24022449244024941018280EDD9AA8763
:1045A40001474146B356E440858A9DCA9207BA97AB
:1045B400B146B387D7029386C18C03A9060085440C
:1045C400B394E400C204C1803E9983270900032503
:1045D400490082972320090023220900258C45BF26
:1045E4000507E311C7FC8144D5BF970700209387D3
:1045F400A79B9C53411122C406C61384018499C706
:1046040082971C403E9523A0A18429A09387418DC5
:104614009C43FDF70840B74703009387D73F330512
:10462400F502B7A72600938737ECB24022443E95A3
:1046340023A0A1844101828079C99387418D9C4341
:10464400797122D426D24AD04ECE52CC56CA5AC8F8
:1046540006D65EC63A8AB689328BAE8A2A89829792
:104664009387C18C9843BE840144B146C147B30BC0
:10467400D40233067701104251E6C165938505F0F3
:10468400414597D0FF1FE780800E1DE59707002066
:10469400938787919C5B2D4589C7114581458297F6
:1046A4002D45B250225492540259F249624AD24AD8
:1046B400424BB24B456182809387C18D98431DEF75
:1046C40023AEA18C230005009C40054733178700C7
:1046D40023260500232465012311E5002322450137
:1046E400DE9723A0270123A2570123A447010145F4
:1046F400E38909FA238089006DB73E875C47F5FF9B
:1047040048C7C9B70504E314F4F6214559BF094560
:1047140082809707002083C7F78C637FF500138797
:10472400818C9317150008433E9583570500DD8D52
:104734002310B500014582800D4582809707002033
:1047440083C7578A6371F5021387818C9317150009
:10475400084393C5F5FF3E9583570500FD8D23104F
:10476400B500014582800D458280130705FF13774C
:10477400F70FFD4763E5E70AB146B306D502938711
:10478400C18C984389473697184359CB011122CCE1
:104794004EC60544935945003D893315A4001314AE
:1047A4000501418026CA4E85AE84A2854AC806CE3C
:1047B400313B2A89814721CDA2854E854137938794
:1047C400418D9C4382979707002083D76786338760
:1047D40097022A84814613060064B3B7970213052F
:1047E4000732B335E500BE95EFE0417CB3078500A1
:1047F40097060020938646833E87D44263E4A7004D
:1048040063E4D7003387D7402324E9008147F2408B
:104814006244D2444249B2493E8505618280894757
:104824003E858280011126CA06CE22CC4AC84EC6D5
:10483400BD47894463EDA70231473307E5029387F7
:10484400C18C9C438944BA979C4395C30544331453
:10485400A400420441802E890145A2858539AA8994
:10486400814411C5A2850145D13D23A42901F2400B
:10487400624426854249D244B2490561828097F751
:10488400FF1F83C737766364F500014582800111F9
:104894009387418D56C283AA070006CE22CC26CA2E
:1048A4004AC84EC652C4638D0A0A17FAFF1F130A78
:1048B400AA7783244A00B74736FE938707C8AE8990
:1048C40097F5FF1F83D5C576BE94B387C5022A84A6
:1048D40032898146B3B5C50213850732B337F50073
:1048E40013060064BE95EFE0616C63EBA406829A44
:1048F40097F5FF1F83D5C573B3872503AA841306D1
:1049040000648146B3B5250313850732B337F50038
:10491400BE95EFE0A169B3079500BE8403274A0062
:1049240063E4A70063E4E700B384E740CE8522850F
:10493400713E01C504C505452DA0936504F0C2056B
:10494400C181414597D0FF1FE78060E205E597F7F5
:10495400FF1F938767659C5B81C7A285114582977A
:104964000145F2406244D2444249B249224A924A41
:10497400056182809387C18D9C438DE323AEA18C16
:1049840085472326050004C523113501230085002E
:10499400A300F5002322050079BFBA87D84775FF25
:1049A400C8C7F9BF49C9797122D426D24AD04ECE9C
:1049B40052CC56CA5EC662C466C206D65AC8368986
:1049C400328AAE89AA844144314C938AC18C854C85
:1049D400930B0003330B840303A70A005A971C4369
:1049E400B1E79375F400B395BC0013554440C20578
:1049F4005286C1811375F50F59350DC983A70A0075
:104A04000145DA9784C323A2370163040900230014
:104A14008900B250225492540259F249624AD24A4D
:104A2400424BB24B224C924C456182800504E31305
:104A340074FB2145F9BF09458280411122C426C275
:104A44004AC006C62A842E89B284153DCA852285A9
:104A5400EFF0DFA705CD97F5FF1F83D5655DB3871D
:104A640095022A84130600648146B3B59502138522
:104A74000732B337F500BE95EFE0415348C0014516
:104A8400B240224492440249410182802145CDBF73
:104A9400411122C426C24AC006C62A892E84EFF0D8
:104AA400FFA2AA8419C123110500A2854A85793180
:104AB40097F7FF1F83C707536397270183D7018D98
:104AC4005D8C2398818C014591E01945B2402244C4
:104AD40092440249410182809307F00263E6A704ED
:104AE4004111B14722C43304F50226C29384C18C18
:104AF4009C4006C6A297984389470DC39377F50057
:104B04008545B395F500C205C181118151379C409B
:104B1400A29723A0070023A207008147B2402244A2
:104B240092443E854101828089473E8582804111BD
:104B340006C622C4EFF09F9911E50145B240224414
:104B4400410182809387418D9C430045829797F76A
:104B5400FF1F9387674D6368A402D843B74636FEA8
:104B6400938606C83305A4403697E378E5FC13071B
:104B74000064B335E50203D6870081463305E502B8
:104B8400EFE0C14265BFD8433A94C1BF411106C6A4
:104B940023ACA18C0295B24097F7FF1F23A0A74630
:104BA400014541018280994763E9B7008A0597F777
:104BB400FF1F9387A745BE9588C182804111714626
:104BC400814517F5FF1F1305654406C623AE018C06
:104BD40023AC018C23AA018C97C0FF1FE78060E3FC
:104BE40013068002814517F5FF1F1305A53F97C0E3
:104BF400FF1FE78000E2EF50717397F7FF1F83C731
:104C0400173C13D527008D8B3E958D473305F50250
:104C1400854539051375F50F97F7FF1F2385A73CC5
:104C240099473305F5021305052497D0FF1FE78044
:104C340000B423A6A18C59C5994717F6FF1F034654
:104C4400863A3306F60281451306062497C0FF1FF1
:104C5400E78020DC9387C18C9C439387072423A09F
:104C6400F18E17F7FF1F034707380A07BA9723A4E3
:104C7400F18CEFF05F8505239387018E944397F7BA
:104C8400FF1F83C737361397270036971706000090
:104C94001306068610C3138717001377F70F0A0746
:104CA4003697170600001306C68C10C31387370007
:104CB400890793F7F70F8A0797F5FF1FA384E53257
:104CC400B69790C3B2404101828097F7FF1F83C714
:104CD400773117F7FF1F0347073163F1E7021387A3
:104CE400018E18439386170017F6FF1FA30CD62EC8
:104CF40093962700369708C33E8582809307F00F6A
:104D0400E5BF1C416388071641777D8FB7060020F5
:104D140089476312D71603574500630E07144111E0
:104D240022C419462A849305F00F690506C697C064
:104D3400FF1FE78020D805478D476308E5121C4410
:104D440081CB5858994763020712185C630F071008
:104D54001306C003814517F5FF1F1305E52497C00B
:104D6400FF1FE78000CB1306C003A28517F5FF1FC2
:104D74001305852397C0FF1FE78020C617F7FF1F81
:104D84000357472397F7FF1F9387072219E7130752
:104D9400001097F6FF1F239FE62017F7FF1F034716
:104DA400872111E7054797F6FF1F2386E62017F7AB
:104DB400FF1F0357672011E76D4797F6FF1F239DD9
:104DC400E61E17F7FF1F0347171F11E7154797F64E
:104DD400FF1FA382E61E17F7FF1F0347071E11E7F5
:104DE400054797F6FF1F238AE61C17F7FF1F0347A3
:104DF400D71C19E703C7F70097F6FF1FA38FE61A1E
:104E040017F7FF1F0347871B11E7354797F6FF1F67
:104E14002386E61A17F7FF1F0347971A19E71307A4
:104E2400800297F6FF1FA38DE61817F7FF1F0347AD
:104E3400F71819E71307D00297F6FF1FA380E618A7
:104E44000347840119E71307C00397F6FF1F23895B
:104E5400E6169C5791C7829797F7FF1F2398A718C8
:104E6400FD57A381F1A2993B8147B24022443E857C
:104E74004101828089473E85828001114EC697F99F
:104E8400FF1F9389691A83A7090006CE22CC26CA7C
:104E94004AC852C4829713090064B335250303DA60
:104EA40089008146528633052503EFE0211097F7E8
:104EB400FF1F93872713804FAA840145630694023A
:104EC40033858440636E940003A54900528681466D
:104ED400B335A9023305A902EFE0410D018D2695F2
:104EE40097F7FF1F23AC9710F2406244D244424923
:104EF400B249224A05618280011122CC0A852E849E
:104F04004146970502009385E58306CEEFE0814391
:104F1400180806043A94035504FF97F7FF1F83D734
:104F24004711F2406244AA9737450F001305052440
:104F34003355F5020561828097F7FF1F83D7670F0A
:104F440051471D45637CF702794719456378F70299
:104F54001307200315456373F7021307B0041145C3
:104F6400637EF700130740060D456379F7001307C6
:104F7400600909456374F70013B5B70F8280011106
:104F840022CC06CE2A842EC6EFF02FE6B245F2409C
:104F9400818D33A5A502229562441375F50F056131
:104FA4008280011122CC06CE2A842EC6EFF0EFE3D4
:104FB400B245F240818D33A5A50222956244420593
:104FC400418105618280011122CC06CE2A842EC63D
:104FD400EFF0AFE1B245F240818D33B5A5022295E1
:104FE40062440561828097F7FF1F9387E7FB985718
:104FF40039CB411122C426C206C6BE84029717F7D4
:10500400FF1F0357A7FE2A8415CBBA876373A70033
:10501400AA87C207C183BA866373E400A286C20664
:10502400C182958F5147635BF700DC5491C382972B
:10503400EFF0705E97F7FF1F239A87FAB24022447D
:10504400924441018280828097F7FF1F9387C7F5BE
:10505400DC57011106CEAA8581C72AC68297B245BC
:10506400D1C19C410545A5CFDC41B5CB83D7850093
:10507400BDC783D7A500A5C783C7C500ADE3414617
:1050840017F5FF1F130545FA97C0FF1FE780E0944B
:1050940097F7FF1F938747F99C4323AAF18C97F74F
:1050A400FF1F83C7F7F18DE79307800217F5FF1FF2
:1050B400035505F83305F50237460F001306062499
:1050C40081468145EFD0916E97F7FF1FA38AA7EE23
:1050D400170500001305A5DAEFF05FAB0145F240B8
:1050E4000561828097F7FF1F83C767ED13978701D8
:1050F40061876354070497F7FF1F23A307F097C73B
:10510400FF1F938747CE17F7FF1F232FF7F07D5715
:1051140097F7FF1F23ACE7F0B7873200938727A1E7
:1051240097F6FF1F23A6F6F097F7FF1F238407F0D7
:10513400B7C7004023A4E726A1BF13F7170005CF84
:10514400B7872003938707D017F7FF1F2322F7EEB3
:10515400B707C0A817F7FF1F232AF7EC97C7FF1F4D
:10516400938787CB17F7FF1F2320F7EC97F7FF1FD1
:10517400238207EC31BF617797F6FF1F239AE6EA93
:1051840081CB9307003217F7FF1F2314F7EAC9B73F
:1051940093072003CDBF011122CC17F4FF1F130482
:1051A400A4E0084406CE26CA4AC801E90545F240EF
:1051B4006244D2444249056182805C58E5DB185C54
:1051C40075D77000854582971844B247E300F7FE0F
:1051D4009305E00417F5FF1F0355C5DD97C0FF1FB6
:1051E400E780E05817F7FF1F232EA7E061D117F6D9
:1051F400FF1F035626DC9305F00F97C0FF1FE780BF
:105204004081814417F9FF1F1309C9DD97F7FF1F78
:1052140083C767DA0326090263C1F402328597C0A3
:10522400FF1FE7802061014597F7FF1F23AC07DCD0
:1052340097F7FF1F23AA07DC9DBF97F5FF1F83D5B0
:1052440065D7B38795020844185C898185043E9527
:1052540008C2029765BF011156C297FAFF1F938ACD
:10526400AAD483A78A0022CC4AC84EC606CE26CA30
:1052740052C45AC0AA892E8432896385072203A79F
:105284004A03630707147D476366A71497F4FF1F57
:10529400938444D503AA040263170A0A9565938587
:1052A40015E017F5FF1F0355E5D097C0FF1FE780F2
:1052B400004C97F7FF1F23A7A7D42A86630A05107B
:1052C40083A74A0303A58A0097F5FF1F83D585CEDC
:1052D4008981829783A78A0003AA040217F7FF1F14
:1052E4002324F7D28947639CF908C1476312F40E5B
:1052F40097F5FF1F83D505CC938505FC9147B3C56E
:10530400F5028A05D29503C705009307A005631D1E
:10531400F70A83C715006399370B4A8522869105DE
:1053240097B0FF1FE780606B9C50528563934715CD
:105334000145F2406244D2444249B249224A924A67
:10534400024B05618280D850E38EE7F8956593851A
:1053540025E017F5FF1F0355E5C597C0FF1FE7803C
:1053640000412A8A35C52A8683A74A0303A58A00F1
:1053740097F5FF1F83D505C489818297A5B78D470B
:10538400639DF900C1476315F40497F5FF1F83D5A6
:1053940065C2938545FDF199B5B79147639AF900C4
:1053A4006318340397F5FF1F83D5C5C0A115E5B76E
:1053B400C147639FF900A14763EC870097F5FF1F7E
:1053C40083D545BFC115C1BF9C5052856397470D16
:1053D400294585B71307F006568B6361A70A130A9C
:1053E40005FE1947334AEA0217F7FF1F035787BC24
:1053F40097FAFF1F938A0ABF330AEA023E9A83A7E9
:105404004A026395470183A40A029DE49305E004DC
:1054140017F5FF1F035505BA97C0FF1FE780203516
:10542400AA845DD583274B0397F5FF1F83D585B8E1
:105434002A8689815285829791451307A00589811F
:1054440093972500A69783C607006393E60483C653
:105454001700639C360385058A052286A6954A852E
:1054640097B0FF1FE780605783A70A02E38297EC97
:10547400268597C0FF1FE780E03B5DBD1307E0076B
:10548400E368A7F4130A05F985B783D5270045BF58
:1054940083A70A02E38E97F2268597C0FF1FE78051
:1054A40060393DB797F7FF1F9387C7B38C538DD1EE
:1054B40091479306A0058983139727002E970346E7
:1054C4000700E317D6F003461700631C360185076F
:1054D4008A072286BE954A8597B0FF1FE780E04F72
:1054E40081BD83572700C1BF97F7FF1F9387C7ABC1
:1054F400984739C79C5FA9C705476313E504411161
:1055040022C417F4FF1F1304E4AD105006C60DC6E1
:10551400485097F5FF1F83D5E5A9898182970850E4
:1055240097C0FF1FE780003197F7FF1F23AC07AC3C
:1055340097F7FF1F23AA07ACB2402244410182809F
:105544008280011117F7FF1F130707A64EC6832990
:10555400870022CC26CA4AC806CE52C456C2AA84A0
:105564002E843289638A09201C5FBA8A99EB294503
:10557400F2406244D2444249B249224A924A056105
:1055840082805C5BEDD7FD4763E9A70E97F9FF1FA7
:10559400938949A583A70902B1CB03A58A0083A7F0
:1055A40049026395A70689476393F408C147E3104A
:1055B400F4FC17F5FF1F0355E59F9147130505FC00
:1055C4003345F5029317250003A509022286CA85EF
:1055D4003E959307A0052300F500A300950011054F
:1055E40097B0FF1FE780603F014559B79305E0047A
:1055F40017F5FF1F0355059C97C0FF1FE780201771
:1056040097F7FF1F23A0A7A049F995B783A74A03DB
:1056140003A6090297F5FF1F83D5C599898182974F
:1056240083A78A0017F7FF1F2320F79EADBF8D477E
:10563400639EF400C147E31CF4F217F5FF1F035502
:105644006597130545FD9377C5FFBDBF9147639AE1
:10565400F400E31E94F017F5FF1F0355A5952115DB
:10566400DDB7C147E395F4F0A147E3E287F017F50E
:10567400FF1F035525944115F9B79307F00663EA14
:10568400A706930705FE1947B3C7E70217F7FF1FDD
:105694000357479217FAFF1F130ACA94B387E70206
:1056A400BE9983270A02A9CF83274A02639A370740
:1056B40003250A0291461308A005FD5593D7260039
:1056C400C207C183139727002A9703460700631D67
:1056D4000607834817000356270063959806B30608
:1056E400D64063CF860485078A072286CA853E95FD
:1056F400C5BD9307E007E3ECA7E6930705F979B77F
:105704009305E00417F5FF1F0355C58A97C0FF1FD3
:10571400E780E00597F7FF1F23A6A78E51F581BD0B
:1057240083A74A0303260A0297F5FF1F83D58588BA
:1057340089814E85829797F7FF1F23A7378D8DBFE9
:10574400A300B700B2869DBFB385860017F6FF1F7E
:10575400035646869105130606FCE3FAC5E01306D4
:1057640034001376C60F1106B29623000701A30076
:1057740097002311D70085BF97F7FF1F938787866C
:105784009453BE89A1C203A5090291461308A0053A
:10579400FD5593D72600C207C183139727002A9784
:1057A40003460700631606058348170003562700BF
:1057B40063989800B306D640E3D786F2A300B700F7
:1057C400B286C1BF8357C70017E5FF1F0345A57EF7
:1057D4009305E0043305F5024205418197C0FF1F9C
:1057E400E780E0F897F7FF1F23AEA78049FD41B398
:1057F40017E6FF1F0356067C97E5FF1F83C5A57BAD
:10580400B385C502338686001106E3E2C5D681BF9F
:1058140001458280011106CE2EC6EF80A06001C929
:10582400B245F2400355250005616FC04073F24054
:10583400494505618280A38601902386019023AAAD
:10584400018E23AC018E23AE018E23A0019023A8E8
:10585400018E23A6018E97E7FF1F9387E77D370606
:1058640084033707B40090D337C6070098C31306E0
:1058740006B83747A000D8C3D0D337071000416615
:105884009306070AB70550009308060194C723A49A
:10589400170393860501930816F8D4C723A61703A4
:1058A400B706D007B7087F0013080705138506015C
:1058B400410723A81703B0C393081600938606056F
:1058C40013861500D8CBF8C323A8070188CF23AECD
:1058D400070023AA170323AC070223AE070223A45D
:1058E4000704F0C7B4CB23AA0704ACCF23AE070543
:1058F400B8D33707A000F8D71307000AB8DB13079B
:10590400C01CF8DB37071400B8DF0547F8DF1307BE
:1059140010F8E8D323A4070623A0070823A2E70866
:105924008280011126CAAA84214522CC06CE2E8467
:1059340032C636C43AC2EFE07FA81DC9A246124758
:105944003246930700FD2300F5009947A300950014
:105954002301F5002303D500A303E5002312C500AA
:10596400AA8522856244F240D24405616FE0FFAF0C
:10597400F2406244D2440561828023AAA18E8280CF
:1059840023ACA18E828023AEA18E828023A0A1901D
:105994008280011122CC4AC806CE26CA2A89014433
:1059A400B30489006368B400F2406244D2444249BB
:1059B400056182802EC6EFE05FC393170501C183A2
:1059C400A183B2452380F4009307140093F7F70FE3
:1059D400850463F9B700CA9709042380A7001374E8
:1059E400F40F7DBF3E847DBFC16717E5FF1F0355DC
:1059F400856DFD176304F502411117E6FF1F034689
:105A0400A6799385419006C6EF80C020B240FD5729
:105A140017E7FF1F2319F76A41018280828009C9B1
:105A240025151375F50F1335850E13451500828062
:105A34000145828023900500C9C6797122D426D2FB
:105A44004ECE52CC5AC806D64AD056CA5EC6368402
:105A5400328AAE892A8B814463F34407B3079400E6
:105A640083C70700138914004209939A070193DA44
:105A74000A011359090163840A04CA976341FA04A9
:105A8400B307240183CB07005E85513F0DC993877B
:105A9400FAFF2390F90063906B0313051900229514
:105AA400B250225492540259F249624AD24A424BA9
:105AB400B24B45618280D694C204C18071BF014556
:105AC400C5B701458280411126C2AE8422C497E73E
:105AD400FF1F23A1C76097E7FF1F23ABB75E97E7BC
